:0400000080312428FF
:1000060008007E1480310B1F22282100111D15289F
:100016002000111D1528210045088A0044080A0001
:100026008031222821009119200091190E282100E3
:10003600131E22282000131E22288A317B227E10BE
:1000460009008031262855308400893085006830C3
:1000560086000030870008308931392180311C3014
:10006600840089308500D630860000308700053050
:1000760089313921803156308400003085001230B4
:10008600893133218031A03084000030850036303C
:1000960089313321803120308400013085003030B1
:1000A600893133218031A030840001308500303021
:1000B600893133217E1020008D31182D20005E08F5
:1000C600031D08006C086D04031DCD2803108C1E4B
:1000D60003140030093DA200A30122082100D40028
:1000E600200023082100D500031020000C1E031455
:1000F6000030093DA200A30122082100D200200001
:1001060023082100D30054085504031D8E285208E5
:1001160053040319972801302000A0000030A100E5
:100126008B3195238031A12800302000A000A1004A
:100136008B319523803189315D218031003020005B
:10014600AA000030A9000030A8000030A700200057
:100156002A08A5002908A4002808A3002708A20049
:100166000130A7070030A83DA93DAA3DA51BC82818
:100176002508031D08002408031D08002308031D85
:100186000800323022020318080000320032003222
:100196000032AA282100B001B1010A302100300640
:1001A60031040319D42A031020008C1E03140030D6
:1001B600093DA200A30122082100D4002000230843
:1001C6002100D500031020000C1E03140030093D49
:1001D600A200A30122082100D2002000230821004A
:1001E600D300762A200063088600870116000104E2
:1001F6000319FF280130272A6208860087011600A6
:100206000104031908290230272A0030A000A100A2
:100216008B31952380310A30272A89312D2180316F
:100226000330272A89312D2180310430272A0130D5
:100236002000A0000030A1008B31952380312000E2
:1002460067085706031D292966085606031D39291E
:10025600D601D7010030A000A1008B319523803153
:1002660005302100B0000030B1003D290130D6072D
:100276000030D73D20006C036D04031D612963081F
:100286008600870116000104031D542962088600B2
:10029600870116000104031D54292100B201B30190
:1002A6009B2A6208860087011600010403199B2A0F
:1002B60001302100B2000030B3009B2A02306C06E8
:1002C6006D04031D9B2A62088600870116005829C3
:1002D60001302000A0000030A1008B319523803131
:1002E60021002F0820005706031D7D2921002E0816
:1002F60020005606031D8D29D601D7010030A00027
:10030600A1008B319523803106302100B0000030EA
:10031600B10091290130D6070030D73D20006C038B
:100326006D04031DB52963088600870116000104C4
:10033600031DA82962088600870116000104031D13
:10034600A8292100B401B5019B2A6308860087010C
:100356001600010403199B2A01302100B400003065
:10036600B5009B2A02306C066D04031D9B2A6308A8
:10037600860087011600AC29200067085706031D72
:10038600C62966085606031DE429D601D701630867
:100396008600870116000104031DD8296C086D0428
:1003A600031DD8290A302100E02921003208330430
:1003B6000319DF290230E0290730B0000030B10010
:1003C600E8290130D6070030D73D200062088600B4
:1003D600870116005829200067085706031DF529CE
:1003E60066085606031D052AD601D70121003408E2
:1003F60035040319002A0130012A0830B000003004
:10040600B100092A0130D6070030D73D2000630825
:10041600860087011600AC29200063088600870144
:1004260016000104031DFD286208860087011600D8
:100436000104031D062921002C082D0403190E2989
:1004460089312D21803109302100B0000030B10002
:100456009B2A200062088600870116000104031DFE
:10046600062963088600870116000104031DFD287E
:100476001E2A20006708A3006608A200A235A30D65
:1004860057082306031D492A56082206031D5F2A1C
:10049600D601D7012100340835040319542A013046
:1004A6005B2A3208330403195A2A02305B2A0A30BF
:1004B600B0000030B100632A0130D6070030D73DC6
:1004C6002000630886008701160001040319702ABC
:1004D60001302100B4000030B5002000620886001B
:1004E6008701160058293108003A03197B2A0E297C
:1004F6003008003A0319F528013A03191029033A7E
:1005060003191529013A03191A29073A03196B2900
:10051600013A0319BF29033A0319EE29013A0319CF
:100526000F2A0F3A03192C2A013A03193C2A0E29DD
:1005360000302000AA000030A9000030A8000030DA
:10054600A70020002A08A5002908A4002808A3005F
:100556002708A2000130A7070030A83DA93DAA3D03
:100566002508803AA60021002308803A20002602AA
:10057600031DCD2A2100220820002402031DCD2AB6
:100586002100210820002302031DCD2A2100200876
:10059600200022020318D028003200320032003236
:1005A600A42A89315D21080020006F08803ABB002B
:1005B60080303B02031DE12A05306E020318E82A4B
:1005C60005302000EE000030EF0020006F08803A72
:1005D600BB0080303B02031DF22A3D306E02031C35
:1005E600F92A3C302000EE000030EF0020006F08B2
:1005F600A7006E08A600B030A8000430A9008D310F
:100606005F25823120002708E7002608E6006F08EC
:10061600A7006E08A600BE30A8000A30A9008D31DA
:100626005F258231200026082100A000200027082F
:100636002100A100890D893B8909A200A3002000A1
:100646006708A1006608A000210059082000A30041
:10065600210058082000A2008A31EF2282312000B2
:100666002108C4002008C3003230A6000030A700CD
:100676004408A1004308A0000330A2000030A300F4
:100686008A31EF22823120002108A9002008A80023
:100696008D315F258231200027082100AF00200020
:1006A60026082100AE002B082000CA0021002A08D7
:1006B6002000C90049084A0403196F2B4A08803AEA
:1006C600BB0080303B02031D6A2B0530490203182C
:1006D6006F2B2000C901CA0120004A08803ABB00DE
:1006E60080303B02031D792B3D304902031C802BD1
:1006F6003C302000C9000030CA0020004A08803A79
:10070600BB0080303B02031D8A2B01304902031CCB
:10071600EB2B20004A08803ABB006F08803A3B0268
:10072600031D972B6E0849020318EB2B200049087E
:10073600A0004A08A100890D893B8909A200A300EF
:10074600FF30A700FF30A600FF30A500E130A4006F
:100756008B31EC23823120002008BB002108BC002D
:100766002208BD002308BE006E08A0006F08A10085
:10077600890D893B8909A200A3000030A70000303B
:10078600A6000030A5003230A4008B31EC23823164
:1007960020002008BB072108BC3D2208BD3D2308D8
:1007A600BE3D3E08C8003D08C7003C08C6003B08E1
:1007B600C500C81BEB2B4808031DF42B4708031D77
:1007C600F42B4608031DF42B013045020318F42BC5
:1007D600200066352100A8002000670D2100A90031
:1007E600E12C20006608A0006708A100890D893B5E
:1007F6008909A200A3004808A7004708A6004608E2
:10080600A5004508A4008B31EC2382312000230883
:10081600C2002208C1002108C0002008BF00490804
:10082600A0004A08A100890D893B8909A200A300FE
:100836000030A7000030A6000030A5001330A40049
:100846008B31EC23823120002308AF002208AE0052
:100856002108AD002008AC004208A3004108A20010
:100866004008A1003F08A0000030A7000030A60005
:100876000030A5000330A4008B31EC238231200028
:100886002308B3002208B2002108B1002008B000F6
:1008960086318C26823120002D082100A9002000F7
:1008A6002C082100A80020004908A0004A08A10041
:1008B600890D893B8909A200A3000030A7000030FA
:1008C600A6000030A5001330A4008B31EC23823142
:1008D60020002308AF002208AE002108AD00200842
:1008E600AC004508BB004608BC004708BD004808E8
:1008F600BE000230BB35BC0DBD0DBE0D890B7D2C77
:100906003E08A3003D08A2003C08A1003B08A00049
:100916006608A4006708A500890D893B8909A60019
:10092600A7008B31EC23823120002308B300220874
:10093600B2002108B1002008B00086318C26823131
:1009460020002D082100A70020002C082100A60069
:1009560020006708BC006608BB00BB35BC0D210043
:100966002908803A2000BD003C08803A3D02031D5C
:10097600BF2C3B08210028020318C92C200066352D
:100986002100A8002000670D2100A90020006708AB
:10099600BC006608BB00BB35BC0DBB35BC0D2100D9
:1009A6002708803A2000BD003C08803A3D02031D1E
:1009B600DF2C3B08210026020318F12C20006708D3
:1009C600BC006608BB00BB35BC0DBB35BC0D3B0887
:1009D6002100A60020003C082100A700210056089F
:1009E60057040319FC2CD2302000E300D430E20077
:1009F6000800D4302000E300D230E20008002000D6
:100A0600D301D1015130A400533087318E2785316F
:100A16002000D200C7305206031908009C30520647
:100A2600031953080319632E29009E13632E5308D6
:100A3600CF00D0014F082100D60020005008210029
:100A4600D70020005308CF00D0014F08A50050085A
:100A5600A600CD308931AE218531892E5308CF00CD
:100A6600D0014F082100D800200050082100D900ED
:100A760020005308CF00D0014F08A5005008A6005B
:100A8600D1308931AE218531892E5308CF00D0016E
:100A96004F08EC005008ED005308CF00D0014F0876
:100AA600A5005008A600CF308931AE218531892EA8
:100AB60005305306031D612D0630D3005308CF00C1
:100AC600D0014F08EE005008EF005308CF00D001C8
:100AD6004F08A5005008A600D3308931AE218531D4
:100AE600892E5308CF00D0014F082100AC0020000A
:100AF60050082100AD0020005308CF00D0014F0858
:100B0600A5005008A600CA308931AE218531892E4C
:100B160053080319932D053053020318932DD3015F
:100B26003D305302031C992D3C30D3005308CF00AF
:100B3600D0014F082100AA00200050082100AB0078
:100B460020005308CF00D0014F08A5005008A6008A
:100B5600C8308931AE218531892E29009C011A3091
:100B66009B002000A501CC308931B82185311A308F
:100B76002000A500D5308931B8218531892E29007C
:100B86009C0127309B002000A501CC308931B8217B
:100B9600853127302000A500D5308931B82185312F
:100BA600892E29009C0134309B002000A501CC3001
:100BB6008931B821853134302000A500D5308931FE
:100BC600B8218531892E29009C0142309B002000E6
:100BD600A501CC308931B821853142302000A500ED
:100BE600D5308931B8218531892E29009C012730DD
:100BF6009B002000A501CC308931B82185312730F2
:100C06002000A500D5308931B8218531892E5308B9
:100C1600CF00D0015008003A0319122EF82D4F08C4
:100C2600003A0319B02D013A0319C22D033A0319EC
:100C3600D42D013A0319E62DF82D21004F0803198A
:100C46002D2ECF0104302000530203182D2E5308F9
:100C5600DF00892E033020005306031D362E2100A7
:100C6600CF01CF0A892E5308031D3D2E8E3105264E
:100C76008531892E5303031D422EE001892E023051
:100C86005306031D4B2E5F088C31D6248531892EE1
:100C960020305302031C892E7F3053020318892EFD
:100CA600303060020318892E6008A03E86000130AD
:100CB6008700530881000130CF004F08E007892ED6
:100CC60020005208CF00D0015008003A03196C2EBC
:100CD600892E4F08713A0319482D023A03191A2D25
:100CE600063A0319742D033A03198B2D013A031999
:100CF600312D0C3A03195B2D073A0319892E033A55
:100D060003190A2EE33A0319202E892E8231D7229F
:100D160008002000B601AF1F9D2EAC09AD09AE0933
:100D2600AF09AC0A0319AD0A0319AE0A0319AF0AD3
:100D3600B601B60AB31FAE2EB009B109B209B3099E
:100D4600B00A0319B10A0319B20A0319B30A01302A
:100D5600B4003408B6060030BA000030B9000030DE
:100D6600B8000030B7002F082E042D042C040319F8
:100D7600F72EB501B50AAF1BCC2E0130AC35AD0D43
:100D8600AE0DAF0D890BC12E0130B4003408B50786
:100D9600BE2E0130B735B80DB90DBA0D890BCD2E63
:100DA6002F083302031DE12E2E083202031DE12E09
:100DB6002D083102031DE12E2C083002031CEC2EF7
:100DC6002C08B0022D08B13B2E08B23B2F08B33BCE
:100DD60037140130AF36AE0CAD0CAC0C890BED2ED2
:100DE6000130B502031DCC2E36080319052FB709AD
:100DF600B809B909BA09B70A0319B80A0319B90A29
:100E06000319BA0A3A08AF003908AE003808AD002F
:100E16003708AC0008002000A50030302502031C6E
:100E2600292F3A3025020318292F2508A200A301ED
:100E3600A235A30DA030220784000F30233D803851
:100E46008500003FA000013FA10008006130250297
:100E5600031C342F7B3025020318342F2508E03E6F
:100E6600A50041302502031C6E2F5B3025020318B6
:100E76006E2F2508A200A301A235A30D92302207EA
:100E860084000F30233D80388500003FA000013FDD
:100E9600A10008009B30A0009030A100080064303B
:100EA600A0009030A10008005D30A0009030A100A5
:100EB60008005630A0009030A10008008330A00042
:100EC6009030A10008009530A0009030A1000800E5
:100ED600A001A10108002508A200A3012308003AE9
:100EE6000319762F6B2F2208203A03196B2F0B3A22
:100EF6000319662F073A03195C2F023A0319572F75
:100F0600013A03194D2F123A0319612F023A0319B8
:100F1600522F6B2F08002000A700C730A8005A08E0
:100F2600031DFB2F6A0A031D9E2F6B0A031D9E2FAE
:100F3600C730A800FB2F0330A0006A088A31692257
:100F46008731203E86000130870001082000A80076
:100F56002708860087010330A0006A088A316922C3
:100F66008731213E84000130850000088100200081
:100F76002408860087010330A0006A088A316922A6
:100F86008731223E8400013085000008810003304D
:100F96002000A0006A088A3169228731203E860037
:100FA60001308700C7308100200069086B06031DE9
:100FB600DE2F68086A06031DE92FFF30E800FF30C0
:100FC600E9006908EB006808EA00F52F6A08013EA7
:100FD600A50000306B3DA6000F302505EA00003065
:100FE6002605EB00C73028060319FB2F0130D9026E
:0A0FF6002808080028001310080066
:1011C4002400110808008831E22008002000911151
:1011D40008002400151608002100911508002400B9
:1011E40014080139080016302100970008008831DE
:1011F400E2202100D00008002400140C890C0139DD
:1012040008008831E2202100D1000800F0007008B5
:10121400240091000800F1007108893108210800B8
:101224002000580889310D21080020006508893103
:101234000821080001340034323400340134200021
:10124400A00020352400920008002000A0002035D2
:101254002400930008002100B401B501B201B301D8
:101264000800640080010131890B34290034FE0038
:1012740012001E00FE0B3A29003403102400941EB1
:1012840003140030093D080003102400141C031447
:101294000030093D0800320091019201930194014C
:1012A400950196010800FF34FF34FF34FF34023403
:1012B40000341234003421004703031D0800C70121
:1012C40022000C118E1508002000A001A00A8C1A1F
:1012D4000C1E6D29A001200808002000210821000F
:1012E400BF00200020082100BE00080020002108C3
:1012F4002100BD00200020082100BC0008002000BF
:1013040021082100C500200020082100C400080095
:10131400200021082100C300200020082100C20071
:101324000800200021082100BB0020002008210023
:10133400BA000800200021082100C1002000200874
:101344002100C0000800200021082100B70020006F
:1013540020082100B60008002000A7002530A000C6
:101364000230A10027088C311C2408002000A600AC
:101374002530A000A101A10A26088C311C240800F4
:1013840060303200990040309B009D0107309F007F
:101394009E01080021003E083F04031908003F088D
:1013A4008A003E080A0089310800210042084304EB
:1013B4000319080043088A0042080A00893108001A
:1013C4002100400841040319080041088A0040082C
:1013D4000A0089310800210039082000A1002100F9
:1013E40038082000A0008A31BC2208002000A50093
:1013F4002508A000A101A10A26308B316D2320000D
:10140400260808002400940106302000A0002008CB
:1014140024009504013096009512080029009E01CD
:10142400E0309F009A01990198019D019C012730A9
:101434009B009E1708002400951A080094010630AA
:101444002000A00020082400950401309600951681
:10145400080021004803031D342A22000C11210036
:10146400C801080022000C1501302100C800080042
:101474002800131D442A131071089200700891006B
:1014840013140800710892007008910008002000ED
:10149400A9002908A0000230A10027308B316D2358
:1014A40020002808A6002708A5000800F300F20180
:1014B400731C602A7008F1007108F2070310F00D24
:1014C4000310F30C7308031D5A2A72080800200045
:1014D400A300A201231C722A2008A1002108A2074C
:1014E4000310A00D0310A30C2308031D6C2A22086B
:1014F40008002000131221003908F1003808F00018
:101504008A313A228A312100360837040319080047
:1015140037088A0036080A008A31080089314D21CB
:101524008A318A3104228A318B31C0238A3189314C
:10153400C2218A318831F5208A318A3110228A31D8
:101544008B310B23080001302000A0000030A100E3
:101554008B3195238A3120003008A3002F08A20084
:101564008F311C278A3100302000A000A1008B316C
:10157400952308002800131DCA2A131020002108EF
:10158400280092002000200828009100131408006D
:101594002000210828009200200020082800910043
:1015A40008008831E5208A312000DB005B36210009
:1015B400CE0020005B080139DC005C08031DE62A2C
:1015C40001302100CD0008005908D800213058020C
:1015D400031C08002030D80008002000A401A50145
:1015E400201CF82A2208A4072308A53D0130A235AF
:1015F400A30D890BF92A0130A136A00C890BFE2A10
:1016040020082104031DF22A2508A1002408A000B3
:10161400080028009401F03092006030910020000E
:101624001312280012082100B90028001108210013
:10163400B800131603302000A0000030A100893147
:10164400A521013028009300080021004D08031D46
:101654002E2B8831E52008000130CD028831E520A9
:101664008B31FB0021005A03031D3C2B7B08CC006B
:10167400DA0108007B08CB000130DA004B08F400E3
:10168400F5014C088E31B52608008A3104228B31CD
:101694008C3159248B3127302000A0000B30A1005D
:1016A40089318A218B31D3302000A0000A30A10077
:1016B40089316F218B3112302000A0000930A10044
:1016C40089319C218B3100302000A0000030A10022
:1016D4008931782108002000A4002408A3003100E7
:1016E4009518712B151720002008310091007030D7
:1016F400920001302000A102210A031908003100E0
:101704001514200023088600870131001308810086
:1017140001302000A2002208A3070130A200220801
:10172400310091077B2B2000210821002506031D91
:101734009F2B200020082100240603190800200004
:1017440021082100A500200020082100A40047084A
:10175400031DB12BC701C70A22000C158E112000EE
:10176400200821040319BB2B22008E1229009E1786
:10177400080022008E1629009E13080022008C0106
:1017840008308E00303021008C0003308E0023009E
:101794008E018C01303024008C008E0125008C01D8
:1017A4008E01373026008C003F308E003F302700FA
:1017B4008C003F308E0018303D00A00010303C00FB
:1017C400A00019303D00A1001D30A20011303C00E2
:1017D400A100080000302000AB000030AA00003057
:1017E400A9000030A800201CFF2B2408A807250806
:1017F400A93D2608AA3D2708AB3D0130A435A50D17
:10180400A60DA70D890B002C0130A336A20CA10C48
:10181400A00C890B072C2308220421042004031D97
:10182400F52B2B08A3002A08A2002908A1002808E8
:10183400A00008002000A4002008A300310095188F
:10184400202C151720002408FF3E31009100703031
:101854009200940101302000A102210A031908001A
:1018640031009518322C20002308860087010108D6
:101874003100930001302000A2002208A3070130A8
:10188400A200220831009107200003108B1B0314CF
:101894003100151555309600AA3096009514951808
:1018A400512C15112000031C2C2C8B172C2C8A3145
:1018B4001D228C314030893121218C317F30893196
:1018C40027218C31B1302000A0000D30A1008931D6
:1018D40081218C3100302000A0000030A10089312A
:1018E40078218C3117302000A0000930A100893103
:1018F4009C218C3103302000A0000930A1008931E3
:101904008A218C31F9302000A0000830A1008931EF
:101914006F218C3100302000A0000030A1008931FB
:1019240093218C318831EE2008002000AB00043074
:101934002B020318AB012B08C43E8931F8218C31EA
:101944002000E10031306102031CAA2C3030E10098
:101954002B08A700A8012708A0002808A100303000
:10196400A2000030A3008A31EF228C31200021082C
:10197400AA002008A900AC0161082C020318080081
:101984002C08043E29078931F8218C312000A70056
:101994002C08A03E86000130870027088100013012
:1019A400A7002708AC07BE2C2000AB0004302B0294
:1019B4000318AB0131306002031CE22C3030E0002C
:1019C4002B08A700A8012708A0002808A100303090
:1019D400A2000030A3008A31EF228C3120002108BC
:1019E400AA002008A9006008A5002B08C43E89317C
:1019F400B8218C312000AC0160082C020318152D8D
:101A04002C08A03E8600013087000108A5002C08A0
:101A1400043E29078931B8218C3101302000A70008
:101A24002708AC07FE2C6008E100080029302000DC
:101A3400D5009630D4007F30890B1E2DD40B1E2D7B
:101A4400D50B1E2D8A3190228D318B3147238D3158
:101A54008B310B238D312B302000A0000A30A100E4
:101A64008931A5218D318731FD278D31003020004A
:101A7400A000E030A1008A31BC228D318931ED21F2
:101A84008D318B170B178E315B268D3124008C160C
:101A94000C160E168E1622000C128C120E168E16B2
:101AA4000C118E15803161208D3120005A08031DE0
:101AB400542D853102258D31542D2000AC01A71FF2
:101AC4006A2DA609A709A60A0319A70AAC01AC0A3C
:101AD400A91F752DA809A909A80A0319A90A013083
:101AE400AA002A08AC06AD01AE0126082704031992
:101AF400A42DAB01AB0AA71B892D0130A635A70D78
:101B0400890B802D0130AA002A08AB077D2D0130F6
:101B1400AD35AE0D890B8A2D27082902031D942D9E
:101B240026082802031C9B2D2608A8022708A93B87
:101B34002D140130A736A60C890B9C2D0130AB0265
:101B4400031D892D2C080319AC2DAD09AE09AD0A6E
:101B54000319AE0A2E08A7002D08A6000800883134
:101B6400E8208D3189313F218D31003A0319C42D8C
:101B74008831FE208D31003A0319C22D0130CD2D5C
:101B84000230CD2D8831FE208D31003A0319CC2D41
:101B94000330CD2D04302000E400EC2D8931CC211C
:101BA4008D31893146218D31003A0319022E893154
:101BB400E2218D31022E8931CC218D31022ED32D9B
:101BC4008831F1208D31003A0319022E8931D72151
:101BD4008D31022E6408FC00FD017D08003A0319D2
:101BE400F42D022E7C08013A0319D02D033A03196F
:101BF400DD2D013A0319E12D073A0319E22D022ED6
:101C04008831EB20080020005F088C3197248E3146
:101C14002000610803190800CC01CD01252E89316B
:101C240066218E31003A03192C2E0B302000CB0094
:101C34006230890B1B2ECB0B1B2E000001302000C1
:101C4400CC070030CD3D01304D02F43003194C0275
:101C5400031C112E2000DE01DE0ADD012100C60175
:101C64008231D7228E312000CE0161084E02031842
:101C74004D2E5D08031D4D2E4E08A03E86000130FA
:101C8400870001088F3184278E3101302000CB007A
:101C94004B08CE07372E0030A000A1008B319523CE
:101CA4008E3189315D212000DE01DD012100C60174
:101CB4000800D3308A3149228E3120002608EF00F3
:101CC4002508EE00CD308A3149228E3120002608C5
:101CD4002100D700200025082100D600D1308A3108
:101CE40049228E31200026082100D9002000250831
:101CF4002100D800CF308A3149228E3120002608B5
:101D0400ED002508EC00CA308A3149228E312000CA
:101D140026082100AD00200025082100AC00C830B1
:101D24008A3149228E31200026082100AB00200090
:101D340025082100AA00CC308931F8218E312900F0
:101D44009C00D5308931F8218E3129009B009E13E7
:101D54002000DF012100CF0100308C3197248E3127
:101D64008231D7220800FA0001302000DA00680826
:101D7400013EF6000030693DF7000F307605F800AB
:101D840000307705F9006B087906031DCB2E6A082D
:101D94007806031DD32E01302100C9002000DA018A
:101DA40008006A0A031DDE2E6B0A031DDE2EE801FD
:101DB400E901EA01EB01EA2E6808013EF600003071
:101DC400693DF7000F307605E80000307705E9003B
:101DD4000330F00068088A3158228E31203E860094
:101DE400013087007A0881000330F0002000680881
:101DF4008A3158228E31213E8600013087007408D2
:101E040081000330F000200068088A3158228E31A6
:101E1400223E860001308700750881000130F600FB
:101E240076082000D90711305902031CD02E103037
:101E3400D900D02E2000AD01AE012E08803AA400B6
:101E44002308803A2402031D292F22082D02031897
:101E5400080020005E080319462F893166218F315E
:101E6400003A031D392F2100C601C60A462F21005E
:101E740046080319462F2000DD01DD0A0030A000CA
:101E8400A1008B319523080000302000AC00003005
:101E9400AB000030AA000030A90020002C08A700E5
:101EA4002B08A6002A08A5002908A4000130A907C8
:101EB4000030AA3DAB3DAC3D2708803AA800210084
:101EC4002308803A20002802031D782F21002208CD
:101ED40020002602031D782F21002108200025025E
:101EE400031D782F210020082000240203187F2FCF
:101EF40000320032003200324F2F0130AD07003083
:101F0400AE3D1F2F2000B4002030340603198E2F5D
:101F140009303406031D992F210027082000A3004F
:101F2400210026082000A2008F311C270800340855
:101F340087310E278F3120002108B8002008B70010
:101F44003708380403190800B501B6013708350706
:101F540084003808363D850012000319F52F5D080A
:101F6400031D08003708350784003808363D85000E
:101F740012002E3A031DC22F6708B0006608D32F43
:101F84003708350784003808363D850012002D3A9D
:101F9400031DD72F21002F082000B00021002E0898
:101FA4002000AF008A31A5228F3120003508370781
:101FB400B1003608383DB2000130310784003208E0
:101FC4000318320A850012000319EF2F6708A300D3
:101FD4006608A2008F311C278F3101302000B5071D
:101FE4000030B63DA82F210029082000A3002100BD
:101FF40028082000A2008F311C2708006B3490347D
:1020040071349034773490347D34903489349034FE
:10201400B3349034AD349034A7349034A134903434
:102024008F349034C0349034A8349034963490343F
:10203400A3349034933490349C3490349134903459
:10204400AE349034A434903478349034BF34903423
:10205400CD3490346E349034923490346D34903462
:10206400C8349034BE34903497349034A9349034C6
:102074006F349034C434903484349034BA3490340B
:10208400C3349034B9349034A234903400340034DE
:10209400003400340034003400340034003400349C
:1020A40000340034003400342D342D342E342E34D6
:1020B4002D342D3400342E342D342E342D342E343E
:1020C4002D3400342E342E342D342D342E342E342D
:1020D40000342D342D342D342D342D3400342E344D
:1020E4002D342D342D342D3400342E342E342D340F
:1020F4002D342D3400342E342E342E342D342D34FE
:1021040000342D342E342E342E342D3400342E3419
:102114002E342E342E342D3400342D342D342D34DD
:102124002D342E3400342E342D342E342D342E34CC
:1021340000342D342E342E342D342E3400342D34EA
:102144002D342D342E342E3400342D342D342E34AD
:102154002E342E3400342D342E342E342E342E349A
:1021640000342E342E342E342E342E3400342D34B8
:102174002E342D342D3400342D342D342E342D347E
:1021840000342D342E342E342D3400342E342D349A
:102194002D342E3400342E342D342E342E34003489
:020000040001F9
:08000000FF3FFF3FFF3FFF3F00
:08000E008C3FF33FFF3FFF3F71
:10E000000000000000000000000000000000000010
:10E010000000000000000000000000000000000000
:10E0200000000000000000000000000000000000F0
:10E0300000000000000000000000000000000000E0
:10E0400000000000000000000000000000000000D0
:10E0500000000000000000000000000000000000C0
:10E0600000000000000000000000000000000000B0
:10E0700000000000000000000000000000000000A0
:10E080000000000000000000000000000000000090
:10E090000000000000000000000000000000000080
:10E0A0000000000000000000000000000000000070
:10E0B0000000000000000000000000000000000060
:10E0C0000000000000000000000000000000000050
:10E0D0000000000000000000000000000000000040
:10E0E0000000000000000000000000000000000030
:10E0F0000000000000000000000000000000000020
:10E10000000000000000000000000000000000000F
:10E1100000000000000000000000000000000000FF
:10E1200000000000000000000000000000000000EF
:10E1300000000000000000000000000000000000DF
:10E1400000000000000000000000000000000000CF
:10E1500000000000000000000000000000000000BF
:10E1600000000000000000000000000000000000AF
:10E17000000000000000000000000000000000009F
:10E18000000000000000000000000000000000008F
:10E19000000000000000000000000100000002007C
:0CE1A00000003200000012000000270008
:00000001FF
