:0400000080312528FE
:1000060008007E1480312100901E10282000901ECA
:1000160010288831AD20803123280B1F232821008A
:100026001119200011191D282100911D23282000D7
:10003600911D2328220058088A0057080A0080319B
:100046007E10090080312728EB3084009730850028
:10005600E1308600003087000030FF000A3088312A
:100066003C208031B0308400263085004030FE00D0
:100076000130FF00883130208031FD01EF01A030D2
:100086008400003085002430FE000030FF008831F7
:100096003020803120308400013085003930FE0068
:1000A6000030FF00883130208031A03084000130DC
:1000B60085003030FE000030FF00883130207E1091
:1000C60020008731A92F8931C62180312100D50032
:1000D60055080239D40055080139D5006329220094
:1000E6003608031D93282100550803197D282C0383
:1000F6000319842854080319932803302C06031D7A
:10010600932847082200C000210046082200BF00AD
:10011600210045082200BE00210044082200BD003F
:100126002100440822003D022100C80045082200A3
:100136003E3B2100C900460822003F3B2100CA0081
:1001460047082200403B2100CB00CB1F7F2902300D
:100156002A2944082002C8004508213BC900460850
:10016600223BCA004708233BCB00CB1FBC280330E9
:10017600E60004306702031C7F2944082002C800F9
:100186004508213BC9004608223BCA004708233BD5
:10019600CB00CB1BE1287F2900298030E500220017
:1001A6003608803A7E3E031C002902302100E60014
:1001B600002922003608803A7D3ED6286708C80006
:1001C600C9014908003A0319E92800294808003AF4
:1001D6000319CF28013A0319D028033A0319002935
:1001E600013A03190029073A0319DC28013A0319D1
:1001F600DC28033A0319DC280029073021006702AE
:10020600031809290130C8004808E7070230220010
:100216003406031D112903302100E60021002408BD
:10022600A0072508A13D2608A23D2708A33D7F2952
:1002360044082002C8004508213BC9004608223B65
:10024600CA004708233BCB00CB1F7F290530E600B9
:100256007F29440822003D022100C80045082200EB
:100266003E3B2100C900460822003F3B2100CA0050
:1002760047082200403B2100CB00CB1F7F290330DB
:10028600E600AA0124084407C8002508453DC90020
:100296002608463DCA002708473DCB004B08A30069
:1002A6004A08A2004908A1004808A000E701651C09
:1002B6005F29FF30E5007F290310E50CE5177F294C
:1002C6006608C800C9014908003A03196B297F2945
:1002D6004808013A03197228033A0319AC28013A6F
:1002E6000319C028073A03191B29013A03197F2964
:1002F600033A03192C297F290330220034060319F7
:10030600882902303406031DEB29210054080319FD
:10031600CD294708D9004608D8004508D700440823
:10032600D600043066020318A2290430E6005908F4
:10033600A3005808A2005708A1005608A0000630DE
:1003460066020318C82959082200C000210058086F
:100356002200BF00210057082200BE0021005608D7
:100366002200BD00210059082000A30021005808E2
:100376002000A200210057082000A10021005608F5
:100386002000A00088319920803103302100AC0084
:10039600AA01F22905306606031DF2292A03031D68
:1003A600D6290330F1290630E60047082000A300CD
:1003B600210046082000A200210045082000A100D7
:1003C600210044082000A000883199208031F229BC
:1003D600043021006602031CF2290630E6002100E3
:1003E6002A08031D532A02306602031C222A5508D6
:1003F6000319162A54080319162A2B0803190A2A60
:1004060022003403031D0A2A21002C080F2A21008A
:100416002C03031D112A0330AA00132AAA01AA0AD3
:10042600AB01AB0A532A550803191B2AAA01AA0ACB
:1004360054080319202A0330AA00AB01532A2B08BB
:100446000319292A220034030319532A21005508C7
:100456000319412A03302C060319342A67080319A5
:10046600412A220035082100C800C901C81BC9035A
:10047600C81C412AAA01AA0AAB01AB0A54080319EF
:10048600532A2C0303194A2A67080319532A220000
:1004960035082100C800C901C81BC90348180E2A1F
:1004A600033021006606031D08002A080319080008
:1004B6002A08C800C901CA01CB014B082000A300C5
:1004C60021004A082000A200210049082000A100BE
:1004D600210048082000A000210027082000A700CE
:1004E600210026082000A600210025082000A500DE
:1004F600210024082000A4008A313F2280312000F8
:10050600200821004407CC00200021082100453D99
:10051600CD00200022082100463DCE002000230801
:100526002100473DCF004F08D9004E08D8004D089E
:10053600D7004C08D6000730303E860001308700D1
:10054600403F2000B200413FB300423FB400433F6A
:10055600B5004030B1000030B0000030AF000030D0
:10056600AE0084319824803120003108CF00300855
:10057600CE002F08CD002E08CC00BF30CB00803037
:10058600CA000030C9000030C8008E314E268031C6
:1005960020004B082100D30020004A082100D20089
:1005A600200049082100D100200048082100D00081
:1005B60059082000A300210058082000A2002100AD
:1005C60057082000A100210056082000A000013095
:1005D6008D31BA25803120002308CF002208CE00B5
:1005E6002108CD002008CC00210053082000B500CA
:1005F600210052082000B400210051082000B30059
:10060600210050082000B200210027082000A30086
:10061600210026082000A200210025082000A100B4
:10062600210024082000A00001308D31BA25803138
:1006360020002308B1002208B0002108AF002008DE
:10064600AE0084319824803120003108CB00300878
:10065600CA002F08C9002E08C8008E314E268031E8
:1006660020004B08E7004A08E6004908E50048086C
:10067600E4008B31D7238031200067082100D900A0
:10068600200066082100D800200065082100D70058
:10069600200064082100D60022003C082100C80082
:1006A600C901CA01CB014B082000A30021004A085A
:1006B6002000A200210049082000A10021004808CE
:1006C6002000A0000030A7000030A6000330A500DF
:1006D600E830A4008A313F22803120002008210022
:1006E6005607CC00200021082100573DCD002000F0
:1006F60022082100583DCE00200023082100593D44
:10070600CF004F08A3004E08A2004D08A1004C08D8
:10071600A00023082200C000210022082200BF00FA
:10072600210021082200BE00210020082200BD0071
:10073600210023082000A300210022082000A20097
:10074600210021082000A100210020082000A0008F
:1007560088319920803140302000E3000030E200EB
:100766000030E1000030E0000730303E8600013006
:100776008700403FB200413FB300423FB400433FD1
:10078600B5004030B1000030B0000030AF0000309E
:10079600AE0084319824803120003108DF00300813
:1007A600DE002F08DD002E08DC0089316121803152
:1007B60020005F082100D30020005E082100D2003F
:1007C60020005D082100D10020005C082100D00037
:1007D60059082000A300210058082000A20021008B
:1007E60057082000A100210056082000A000013073
:1007F6008D31BA25803120002308CF002208CE0093
:100806002108CD002008CC00210027082000A300E5
:10081600210026082000A200210025082000A100B2
:10082600210024082000A00001308D31BA25803136
:1008360020002308B5002208B4002108B3002008D0
:10084600B200210053082000B10021005208200008
:10085600B000210051082000AF0021005008200000
:10086600AE0084319824803120003108CB00300856
:10087600CA002F08C9002E08C8008E314E268031C6
:1008860020004B08E7004A08E6004908E50048084A
:10089600E4008B31D7238031200067082100D9007E
:1008A600200066082100D800200065082100D70036
:1008B600200064082100D60022003608803A7F3ED8
:1008C600031C7E2C210059082200C0002100580874
:1008D6002200BF00210057082200BE002100560852
:1008E6002200BD0021005908A3005808A20057089D
:1008F600A1005608A0002100E701651C8C2C6503A9
:10090600031D892C03302A06031D922CFF30E500B7
:10091600922C0310E50C03302A060319E5172A0862
:10092600AC00AA01E601E60A080020003108803979
:10093600BB003135C100B01B411441080319B02C6E
:10094600410A031DAE2C0030B1000030B00000306B
:10095600AF000030AE00B017B82C0030B100003048
:10096600B0000030AF000030AE0035088039B60068
:100976003608BB063535C000B41B401440080319C1
:10098600D12C400A031DCF2C0030B5000030B40036
:100996000030B3000030B200B417D92C0030B500D7
:1009A6000030B4000030B3000030B2004008031D30
:1009B6004108031DE72C0030B1000030B0000030C4
:1009C600AF000030AE0008002E08A00034088931C0
:1009D6008021843120002108C7002008C60046086F
:1009E600B600B701B801B9013908BF003808BE0022
:1009F6003708BD003608BC004708B600B701B80185
:100A0600B9013908C5003808C4003708C3003608DC
:100A1600C2002F08A00033088931802184312000CC
:100A26002108C7002008C6004608B600B701B8016D
:100A3600B9013608BC073708BD3D3808BE3D390840
:100A4600BF3D4708B600B701B801B9013608C2076D
:100A56003708C33D3808C43D3908C53D3008A000F5
:100A6600320889318021843120002108C7002008FE
:100A7600C6004608B600B701B801B9013608BC077A
:100A86003708BD3D3808BE3D3908BF3D4708B600AA
:100A9600B701B801B9013608C2073708C33D38089F
:100AA600C43D3908C53D0830BC35BD0DBE0DBF0D72
:100AB600890B572D2F08A0003208893180218431F7
:100AC60020002108C7002008C6004608BC074708C2
:100AD600BD3D0030BE3DBF3D2E08A0003308893124
:100AE6008021843120002108C7002008C60046085E
:100AF600BC074708BD3D0030BE3DBF3D0830BC3594
:100B0600BD0DBE0DBF0D890B822D2E08A00032082B
:100B160089318021843120002108C7002008C600C1
:100B26004608BC074708BD3D0030BE3DBF3D2F0807
:100B3600A000340889318021843120002108C700B3
:100B46002008C6004608C2074708C33D0030C43D1A
:100B5600C53D3008A000330889318021843120004A
:100B66002108C7002008C6004608C2074708C33D3B
:100B76000030C43DC53D3008A000340889318021CD
:100B8600843120002108C7002008C6004608B600A8
:100B96004708B700B801B9010830B635B70DB80D2A
:100BA600B90D890BD02D3608C2073708C33D380862
:100BB600C43D3908C53D3C08B6003D08B7003E08AF
:100BC600B8003F08B9001830B936B80CB70CB60CE7
:100BD600890BE72D3608C2073708C33D3808C43DE0
:100BE6003908C53D0830BC35BD0DBE0DBF0D890B9E
:100BF600F62D41084007B600B701B70D3608823E0C
:100C0600C600FF30373DC700C41B1E2E0130C2355B
:100C1600C30DC40DC50D890B0A2EBF1B421401302E
:100C2600BC35BD0DBE0DBF0D890B132EFF30C6079B
:100C3600FF30C73D072EC001BF1F372EFF303C05D2
:100C4600B600FF303D05B700FF303E05B8007F30E7
:100C56003F05B90039083804370436040319421829
:100C6600352E372EC001C00A40080319602E013008
:100C7600C2070030C33D0030C43D0030C53D451CB1
:100C8600602E4208B6004308B7004408B80045087D
:100C9600B9000130BA00B937B80CB70CB60CBA0BAC
:100CA6004E2E3908C5003808C4003708C300360878
:100CB600C2000130C6070030C73D4708803AB6007B
:100CC60080303602031D692EFF304602031C752E46
:100CD6007F302000C5008030C4000030C3000030E3
:100CE600C2009B2E20004708803AB60080303602AC
:100CF600031D7F2E0130460203188C2E0030200083
:100D0600C5000030C4000030C3000030C200BB0183
:100D16009B2E20004608C100FF30C205FF30C305E8
:100D26007F30C4050030C5054118C4174136C500DB
:100D36003B08B6003608C5044508B1004408B000B3
:100D46004308AF004208AE0008002100E001DE01C2
:100D5600DE302000A400E0308C31B1248631210041
:100D6600DF00C7305F06031908008C2F60082200D9
:100D7600BB00210060082000A5000B309731CD276D
:100D860008006008D600D701D801D901590820000B
:100D9600A300210058082000A200210057082000C7
:100DA600A100210056082000A00000308D31BA2590
:100DB6008631200023082200BA00200022082200E3
:100DC600B900200021082200B800200020082200D7
:100DD600B70021006008D600D701D801D90159080B
:100DE6002000A300210058082000A2002100570877
:100DF6002000A100210056082000A00000308D31FF
:100E0600BA25863120002308B1002208B000210847
:100E1600AF002008AE0000309731D72708006008E1
:100E26002200B400210060082000A5000A30973196
:100E3600CD27080060082200B500210060082000C8
:100E4600A50009309731CD2708006008D600D701E4
:100E5600D801D90159082000A30021005808200014
:100E6600A200210057082000A100210056082000FA
:100E7600A00000308D31BA258631200023082100DC
:100E8600DD00200022082100DC00200021082100CE
:100E9600DB00200020082100DA005D08D5005C0890
:100EA600D4005B08D3005A08D2008A31EA22863180
:100EB60021006008D600D701D801D90159082000C1
:100EC600A300210058082000A20021005708200096
:100ED600A100210056082000A00000308D31BA255F
:100EE600863120002308B1002208B0002108AF0097
:100EF6002008AE0004309731D7270800600822008A
:100F0600B600210060082000A50008309731CD27E3
:100F160008005F08D600D7015708003A0319942F36
:100F2600A82F5608713A0319122F023A0319B92E3F
:100F3600063A0319812F033A03191D2F013A0319A3
:100F4600C42E0C3A0319282FA82F08008831C22076
:100F560087318B170B178931A021873189314421BD
:100F6600873197313E2787310B302000A0000930AA
:100F7600A1009731C42787318831482087318B31CA
:100F86003123873124008C160C1622000C128C1289
:100F96000E128E128E1121002F030319AF012200AB
:100FA6004C082100C70022004B082100C600220081
:100FB6004A082100C500220049082100C4008031EA
:100FC60066208731220048082000A3002200470837
:100FD6002000A200220046082000A10022004508A9
:100FE6002000A0008831F020873120006F08031D03
:0A0FF600CE2F8631A8268731CE2FBA
:101004002200550856040319080056088A0055089A
:101014000A00883108002200530854040319080008
:1010240054088A0053080A00883108002000A500EB
:101034002508A000A101A10A26308931EC21200055
:10104400260808002400940106302000A00020088F
:101054002400950401309600951208006400800174
:1010640001310130FE020030FF3B7F087E0403198A
:1010740000343128FE0012001E000130FE02003050
:10108400FF3B7F087E04031900343D2829009E019C
:10109400E1309F009A01990198019D019C0127303C
:1010A4009B009E1708002400951A0800940106303E
:1010B4002000A00020082400950401309600951615
:1010C4000800F300F201731C6B287008F10071082A
:1010D400F2070310F00D0310F30C7308031D6528C9
:1010E400720808002000A300A201231C7D28200808
:1010F400A1002108A2070310A00D0310A30C2308CC
:10110400031D7728220808002000A9002908A00050
:101114000430A1002A308931EC2120002D08A800D8
:101124002C08A7002B08A6002A08A5000800220006
:101134008E16200023082200C4002000220822006A
:10114400C300200021082200C20020002008220041
:10115400C1000C150800200090122100290820006D
:1011640096002100280820009500220059085A04FE
:10117400031908005A088A0059080A00883108002F
:101184009731862788318831242088318A31142286
:1011940088319731E1278831973145278831883163
:1011A4004820883189314421080097313227883119
:1011B400FD007D362100BE007D080139BD003D08DB
:1011C400031DE7280130B90008003008AE002130C3
:1011D4002E02031C08002030AE0008002000200866
:1011E400220041022000A40021082200423B2000EA
:1011F400A50022082200433B2000A6002308220069
:10120400443B2000A700A71F080022008E120C11E7
:10121400080001302200C9070030CA3D0030CB3D30
:101224000030CC3D0130C5070030C63D0030C73D1D
:101234000030C83D03108E1D0314031C2429220012
:101244008E15080022008E110800210039080319A8
:1012540008000130B902B601B501B401B301B2010D
:101264009731322789312100B700973132278931EC
:101274002100B3003308F4003208F50037088C313C
:1012840039240800633020009800FE309600703046
:10129400950016082100A900200015082100A800C7
:1012A400200090122100901603302000A00000308E
:1012B400A1009731C42790302000970008008030A7
:1012C4002000DF066308CB006208CA006108C90079
:1012D4006008C8005F08CF005E08CE005D08CD003E
:1012E4005C08CC008E314E2620004B08DF004A08F3
:1012F400DE004908DD004808DC0008002000A800E2
:10130400A401A5012008A200A3012208A600230825
:10131400A700281C91292608A4072708A53D013009
:10132400A635A70D890B92290310A80C2808031DC4
:101334008B292508A1002408A00008008831242056
:1013440089318A31AC22893127302000A00009304C
:10135400A1009731A9278931D7302000A000083097
:10136400A10097318E27893162302000A000173008
:10137400A1009731BB27893100302000A000003044
:10138400A100973197270800031020008C1E031436
:10139400003003180130A00003100C1E03140030A9
:1013A40003180130A100033022003406031DDF2995
:1013B40003102000A00DA101E9293B08031DE62923
:1013C40003102000A10DE92903102000A00D20081E
:1013D400210408002000A4002408A300310095186B
:1013E400F029151720002008310091007030920078
:1013F40001302000A102210A03190800310015144C
:101404002000230886008701310013088100013081
:101414002000A2002208A3070130A2002208310004
:101424009107FA2922008C018E01303021008C00B2
:1014340003308E0023008E018C01303024008C0098
:101444008E0125008C018E01373026008C003F3040
:101454008E003F3027008C003F308E0018303D0056
:10146400A00010303C00A00019303D00A1001D3048
:10147400A20011303C00A100080000302000AB00A5
:101484000030AA000030A9000030A800201C522A15
:101494002408A8072508A93D2608AA3D2708AB3D2E
:1014A4000130A435A50DA60DA70D890B532A0130D3
:1014B400A336A20CA10CA00C890B5A2A23082204DF
:1014C40021042004031D482A2B08A3002A08A20093
:1014D4002908A1002808A00008002000A400200872
:1014E400A30031009518732A151720002408FF3E25
:1014F4003100910070309200940101302000A1026B
:10150400210A0319080031009518852A20002308B0
:101514008600870101083100930001302000A200F9
:101524002208A3070130A2002208310091072000FD
:1015340003108B1B03143100151555309600AA3087
:10154400960095149518A42A15112000031C7F2ACF
:101554008B177F2A883155208A31403097316C2788
:101564008A317F30973172278A3183302000A0007E
:101574000B30A1009731A0278A3100302000A00051
:101584000030A100973197278A3167302000A000EE
:101594001730A1009731BB278A3153302000A000B7
:1015A4001730A1009731A9278A3149302000A000C3
:1015B4001730A10097318E278A3100302000A00017
:1015C4000030A1009731B2278A3197313B270800B8
:1015D400210055082200B300210054082200B20063
:1015E400210053082200B100210052082200B0005B
:1015F400210055082000E700210054082000E600DF
:10160400210053082000E500210052082000E400D6
:101614008B31D7238A31200067082100C7002000BE
:1016240066082100C600200065082100C5002000CE
:1016340064082100C4000030CB001230CA004F30CF
:10164400C9008030C8008D31342521004708A70027
:101654004608A6004508A5004408A4000800043074
:10166400883186208B31200028082200B300200016
:1016740027082200B200200026082200B100200022
:1016840025082200B0000B30883118208B3122004D
:10169400BB000030883186208B31200028082200CE
:1016A400BA00200027082200B900200026082200E2
:1016B400B800200025082200B7000A30883118201D
:1016C4008B312200B4000930883118208B3122007C
:1016D400B5000830883118208B312200B600330859
:1016E4002100D500220032082100D4002200310854
:1016F4002100D300220030082100D2008A31EA22DE
:101704000800973135278B31973178278B31003A90
:101714000319962B97314E278B31003A0319942BDA
:1017240001309F2B02309F2B97314E278B31003A8B
:1017340003199E2B03309F2B04302100C000BE2BC5
:101744009731F5278B3197317F278B31003A031975
:10175400D42B88310D208B31D42B9731F5278B3145
:10176400D42BA52B973141278B31003A0319D42B65
:10177400883102208B31D42B4008FB00FC017C080B
:10178400003A0319C62BD42B7B08013A0319A22B68
:10179400033A0319AF2B013A0319B32B073A031980
:1017A400B42BD42B97313827080003102000660D82
:1017B400670DED006D08031DE82B0030E7000030D5
:1017C400E6000030E5000030E40008006408E800AA
:1017D4006508E9006608EA006708EB001F30EB368D
:1017E400EA0CE90CE80C890BF12B6808EC00E6170D
:1017F400FF30E405FF30E505FF30E6050030E7057E
:101804009630ED02ED1F192C6D08803A973E031CAB
:10181400DF2B0130E736E60CE50CE40C890B0C2CCD
:101824000130E8006808ED0703192A2C0B2C20303E
:101834006D020318DF2B6D0803192A2C0130E435DF
:10184400E50DE60DE70D890B212C0130ED021D2C71
:101854006C0803190800E409E509E609E709E40A44
:101864000319E50A0319E60A0319E70A0800FA004E
:1018740001302000EF0021006108013EF600003035
:10188400623DF7000F307605F80000307705F90067
:1018940064087906031D502C63087806031D662C22
:1018A4000130AF002030F6002A30890B572CF60B9C
:1018B400572CFF302100E300FF30E400FF30E1004B
:1018C400FF30E200B001AE2C630A031D712C640AE0
:1018D400031D712CE101E201E301E4017D2C6108A7
:1018E400013EF6000030623DF7000F307605E1005E
:1018F40000307705E2000330F0006108883163208E
:101904008C31A03E8600013087007A0881000330C4
:10191400F00021006108883163208C31A13E8600EB
:1019240001308700740881000330F0002100610851
:10193400883163208C31A23E86000130870075080F
:1019440081000130F60076082100B0071130300222
:10195400031CAE2C1030B0002000EF010800200062
:10196400A700C730A8006F08031D312D01302100E6
:10197400B100630A031DC52C640A031DC52CC730BE
:101984002000A800272D03302000A00021006308B8
:10199400883174208C31A03E860001308700010814
:1019A4002000A8002708860087010330A00021003A
:1019B4006308883174208C31A13E84000130850095
:1019C4000008810020002408860087010330A0005D
:1019D40021006308883174208C31A23E84000130D8
:1019E40085000008810003302000A0002100630866
:1019F400883174208C31A03E860001308700C730C6
:101A04008100210062086406031D0A2D6108630633
:101A1400031D152DFF30E100FF30E2006208E400F1
:101A24006108E300272D6308013E2000A500003073
:101A34002100643D2000A6000F3025052100E300AD
:101A44000030200026052100E400C73020002806CD
:101A540003192F2D01302100B0022100B101200013
:101A6400280808002100CD01C71F452DC409C50958
:101A7400C609C709C40A0319C50A0319C60A031902
:101A8400C70ACD01CD0ACB1F582DC809C909CA09F7
:101A9400CB09C80A0319C90A0319CA0A0319CB0ACC
:101AA40001302000EE006E082100CD060030D10088
:101AB4000030D0000030CF000030CE00470846048C
:101AC400450444040319A32DCC01CC0AC71B782D6B
:101AD4000130C435C50DC60DC70D890B6B2D013002
:101AE4002000EE006E082100CC07682D0130CE35B1
:101AF400CF0DD00DD10D890B792D47084B02031D55
:101B04008D2D46084A02031D8D2D45084902031DEB
:101B14008D2D44084802031C982D4408C80245082A
:101B2400C93B4608CA3B4708CB3B4E140130C73675
:101B3400C60CC50CC40C890B992D0130CC02031DB5
:101B4400782D4D080319B12DCE09CF09D009D1093B
:101B5400CE0A0319CF0A0319D00A0319D10A51086E
:101B6400C7005008C6004F08C5004E08C40008004E
:101B74002000A8002808031DA31FD02D2009AA00B7
:101B84002109AB002209AC002309AD00AA0A0319FC
:101B9400AB0A0319AC0A0319AD0AD82D2308AD000A
:101BA4002208AC002108AB002008AA002308220464
:101BB40021042004031DE72D0030A3000030A200FF
:101BC4000030A1000030A00008009630A900FE30CB
:101BD4002D0503190C2E0130A4002408A907013097
:101BE400AD36AC0CAB0CAA0C890BF22DE92D0130EF
:101BF400A4002408A9070130AA070030AB3D003037
:101C0400AC3D0030AD3D0130AD36AC0CAB0CAA0C94
:101C1400890B062EFF302D0503191E2EF92D0230D7
:101C24002902031C202E0130A9020130AA35AB0D74
:101C3400AC0DAD0D890B182EAC1F112E29182A2EB0
:101C4400FF30AA05FF30AB057F30AC05FF30AD0592
:101C54000310A90C2908A400A501A601A7011830A6
:101C6400A435A50DA60DA70D890B322E2408AA04B0
:101C74002508AB042608AC042708AD042808031D76
:101C8400A31F452EAD172D08A3002C08A2002B0876
:101C9400A1002A08A000080020004B088039D800C1
:101CA4004B35DA00CA1B5A145A080319672E5A0A0C
:101CB400031D642E0030CB000030CA000030C90080
:101CC4000030C800CA17CB016F2E0030CB000030A3
:101CD400CA000030C9000030C8004F088039D9005C
:101CE40059085806031D58174F35D900CE1B5914EF
:101CF400590803198B2E590A031D882E0030CF0072
:101D04000030CE000030CD000030CC00CE17CF0123
:101D1400932E0030CF000030CE000030CD000030D4
:101D2400CC005A0859020318BB2E581F9D2E803030
:101D3400D0005008D8065A08DB005908DA005B08BE
:101D4400D9004808DB004C08C8005B08CC004908EF
:101D5400DB004D08C9005B08CD004A08DB004E08D3
:101D6400CA005B08CE004B08DB004F08CB005B08C1
:101D7400CF00DB015908D000D1015108D3005A0823
:101D84005002D200031CD3035308803AD40080309D
:101D94005402031DCF2E1A305202031CFD2E2000C4
:101DA4004B084A04490448040319DA2E0130DB2E97
:101DB4000030DB000030CB000030CA000030C90026
:101DC4000030C8005908DA00022F5B1CED2E5B3688
:101DD4000138DB00EF2E0310DB0C4818DB17013051
:101DE400D000CB37CA0CC90CC80CD00BF32E013071
:101DF400D0005008DA07200059085A02031CE72EC5
:101E0400581B312F5A08031D102F0030CB0000300F
:101E1400CA000030C9000030C80008004C08C807D8
:101E24004D08C93D4E08CA3D4F08CB3D4B1CAB2F56
:101E34005B1C202F5B360138DB00222F0310DB0CE8
:101E44004818DB170130D000CB37CA0CC90CC80CBA
:101E5400D00B262F0130D0005008DA07AB2F4B08E7
:101E6400803AD0004F08803A5002031D432F4E0899
:101E74004A02031D432F4D084902031D432F4C08FA
:101E8400480203187B2FFF30D000FF30D100FF3011
:101E9400D200FF30D30048084C02D40049084D3B1F
:101EA400D5004A084E3BD6004B084F3BD700540898
:101EB400D0075508D13D5608D23D5708D33D5308A5
:101EC400CB005208CA005108C9005008C80080302D
:101ED400D0005008D806DB09DB0A5B08031D832FFA
:101EE4000130C8070030C93D0030CA3D0030CB3D49
:101EF400832F4C08C8024D08C93B4E08CA3B4F0803
:101F0400CB3B4B084A0449044804031DA92F5B0832
:101F1400031DA92F0030CB000030CA000030C900D7
:101F24000030C80008000130C835C90DCA0DCB0DFA
:101F3400890B962FDB1B48145B1CA22F0314A32FC1
:101F44000310DB0D5A080319A92F0130DA02CA1F46
:101F5400952FD901DB1FB62F5B087F390319481869
:101F6400B42FB62FD901D90A59080319E22F013029
:101F7400C8070030C93D0030CA3D0030CB3D4B1C82
:101F8400E22F4808D0004908D1004A08D2004B0883
:101F9400D3000130D400D337D20CD10CD00CD40BE5
:101FA400CD2F5308CB005208CA005108C90050086D
:101FB400C8005A0A0319E22F0130D0005008DA078A
:101FC4005A0A031D5A08031DF22F0030CB000030BB
:101FD400CA000030C9000030C8005A080319D801EB
:101FE4005A1CF62FCA17FA2F7F30D0005008CA05A2
:0C1FF4005A36CB00D81F0800CB1708009D
:102E5E0024001108080097312F2708002000911137
:102E6E000800240015160800210091150800200006
:102E7E0097170800240014080139080016302100A5
:102E8E009700080097312F272100C1000800240069
:102E9E00140C890C0139080097312F272100C2002C
:102EAE000800F0007008240091000800F10071087D
:102EBE0097315827080021002E0897315D2708000A
:102ECE00210043089731582708002000A000203524
:102EDE002400920008002000A0002035240093005A
:102EEE00080003102400941E03140030093D08004E
:102EFE0003102400141C03140030093D0800320096
:102F0E009101920193019401950196010800200010
:102F1E0021082200D200200020082200D100080043
:102F2E00200021082200D000200020082200CF001F
:102F3E000800200021082200D800200020082200CE
:102F4E00D7000800200021082200D600200020080B
:102F5E002200D5000800200021082200CE0020000B
:102F6E0020082200CD000800200021082200D400F5
:102F7E00200020082200D300080020002108220093
:102F8E00DA00200020082200D90008002000A60048
:102F9E002530A000A101A10A26088A316F2208005F
:102FAE002000B2002E30A0000430A10032088A3179
:102FBE006F22080060303200990040309B009D0166
:102FCE0007309F009E010800FF34FF34FF34FF34AA
:102FDE0080340334023401340134013422005108A8
:102FEE0052040319080052088A0051080A0097314A
:022FFE000800C9
:020000040001F9
:08000000FF3FFF3FFF3FFF3F00
:08000E008C3FF33FFF3FFF3F71
:10E0000000000000480042000000000090004100B5
:08E01000010003000000000004
:00000001FF
