:10410000024A6E008F828E83E0540100000070F836
:104110002278FFE4F6D8FD024AFC024462E864809B
:10412000F8E933E83360110460F0ED33EC337009E3
:10413000E8FCE9FDEAFEEBFF220460DED3EB9FEA38
:104140009EE99DE8C2E78CF0C2F795F0400CE8CC00
:10415000F8E9CDF9EACEFAEBCFFB12442D85D0F089
:104160005804700320D5B3E80470075002B2D5029A
:10417000446C92D5EC0460F7E4CCC0E0C398F860DE
:104180003B94186008400DD0E0FB024444E4FBFA85
:10419000C9FC8028E830E406E4C9FBE4CAFCE83046
:1041A000E305E4C9CACBFCE854076010F8C3E9137F
:1041B000F9EA13FAEB13FBEC13FCD8F130F52FC33B
:1041C000E49CFCEF9BFFEE9AFEED99FDD0E0FBEF47
:1041D0004E4D4C701222DB03024469EC2CFCEF3391
:1041E000FFEE33FEED33FDED30E7EB024444EF2B01
:1041F000FFEE3AFEED39FDD0E0FB50130BBB0003A0
:1042000002446CED13FDEE13FEEF13FFEC13FC0202
:104210004444EC4D6011E8497017ED33EC33046011
:104220000DE4FCFFFEFD22E933E8330470F802449C
:104230006212442D58046009E4CC248150062850B1
:104240000902446C284003024469C0E0EB4A704410
:10425000B98006D0E0FB024458EF4E701CBD8008C8
:10426000EBFFEAFEE9FD80EBE98DF0A4FEE5F0024C
:1042700042FBE9CDF9EAFEEBFFEF89F0A4FCE5F0A3
:10428000CE89F0A42EFFE435F0CD89F0A42DFEE414
:1042900035F08067EF4E7005BD80D780C3EF8BF09F
:1042A000A4ACF0EE8BF0A42CFCE435F0F8EF8AF02F
:1042B000A42CE5F038FCE433CB8DF0A42CFCE5F025
:1042C0003BF8EE8AF0A42CFCE5F038F8E433CF8913
:1042D000F0A42CFCE5F038CF3400CE89F0A42FFFF9
:1042E000E5F03EFEE433C98DF0A42EFEE5F039CDB5
:1042F0008AF0A42FFFE5F03EFEE43DFD33D0E0FB65
:1043000050070BBB000F02446CEC2CFCEF33FFEEAC
:1043100033FEED33FD02444402446CEC5D04600561
:10432000E85904700302446212442D580460F6EC0C
:104330004860F2EC7004FDFEFF22C860DB2481C8F7
:104340005009C398600250060244699850CAF58229
:10435000E9294B4A7005AB8202445875F0007C1A7B
:104360007880C3EF9BEE9AED99400DC3EF9BFFEE73
:104370009AFEED99FDE842F0DC23ACF0D0E0FFD0EE
:10438000E0FED0E0FDAB8220E7101BEB60BAEC2C26
:10439000FCEF33FFEE33FEED33FD024444E803F857
:1043A00030E705C0F075F000EF2FFFEE33FEED3380
:1043B000FD40B830E7C280AA75F020800E75F0107D
:1043C000800575F0087D007E007F003392D530D5E2
:1043D00003124629EC334010EF33FFEE33FEED338A
:1043E000FDEC33FCD5F0ED22E5F0247EA2D513CC14
:1043F00092E7CDCEFF22EDD2E7CD33EC3392D52438
:10440000814006E4FFFEFDFC22FCE4CFCECDCC24AF
:10441000E0501174FF80EDC3CC13CCCD13CDCE137F
:10442000CECF13CF0470F030D5DE024629E9D2E7B3
:10443000C933E833F892D5EDD2E7CD33EC33FC50F5
:1044400002B2D522EC30E7100FBF000C0EBE000800
:104450000DBD00040BEB6014A2D5EB13FCED92E74D
:10446000FD2274FFFCFDFEFF22E480F8A2D574FF5C
:1044700013FC7D80E480EFBB010689828A83E02201
:104480005002E722BBFE02E32289828A83E4932260
:10449000BB010689828A83F0225002F722BBFE010B
:1044A000F322EF8DF0A4A8F0CF8CF0A428CE8DF0ED
:1044B000A42EFE22C5F0F8A3E028F0C5F0F8E582AE
:1044C000158270021583E038F022A3F8E0C5F025CC
:1044D000F0F0E582158270021583E0C838F0E8221A
:1044E000BB010A89828A83F0E5F0A3F0225006F727
:1044F00009A7F01922BBFE06F3E5F009F31922E83B
:104500008FF0A4CC8BF0A42CFCE98EF0A42CFC8AB8
:10451000F0EDA42CFCEA8EF0A4CDA8F08BF0A42D35
:10452000CC3825F0FDE98FF0A42CCD35F0FCEB8ED6
:10453000F0A4FEA9F0EB8FF0A4CFC5F02ECD39FE8C
:10454000E43CFCEAA42DCE35F0FDE43CFC2275F001
:1045500008758200EF2FFFEE33FECD33CDCC33CC88
:10456000C58233C5829BED9AEC99E58298400CF5A3
:1045700082EE9BFEED9AFDEC99FC0FD5F0D6E4CED1
:10458000FBE4CDFAE4CCF9A88222B800C1B9005905
:10459000BA002DEC8BF084CFCECDFCE5F0CBF978D2
:1045A00018EF2FFFEE33FEED33FDEC33FCEB33FB66
:1045B00010D703994004EB99FB0FD8E5E4F9FA22F0
:1045C0007818EF2FFFEE33FEED33FDEC33FCC933EB
:1045D000C910D7059BE99A4007EC9BFCE99AF90FB3
:1045E000D8E0E4C9FAE4CCFB2275F010EF2FFFEE1F
:1045F00033FEED33FDCC33CCC833C810D7079BEC6A
:104600009AE899400AED9BFDEC9AFCE899F80FD5E1
:10461000F0DAE4CDFBE4CCFAE4C8F922CFF4CFCE53
:10462000F4CECDF4CDCCF4CC22C3E49FFFE49EFEC7
:10463000E49DFDE49CFC22EB9FF5F0EA9E42F0E94C
:104640009D42F0EC6480C864809845F022EB9FF5B1
:10465000F0EA9E42F0E99D42F0E89C45F022E860D5
:104660000FECC313FCED13FDEE13FEEF13FFD8F1B7
:1046700022E8600FEFC333FFEE33FEED33FDEC3382
:10468000FCD8F122BB010789828A83024766500564
:10469000E9F802475ABBFE05E9F802477289828AA7
:1046A0008302477EBB010789828A830246BE50058A
:1046B000E9F802478EBBFE05E9F802479A22ECF0C2
:1046C000A3EDF0A3EEF0A3EFF022A42582F582E59E
:1046D000F03583F58322D083D082F8E4937012748E
:1046E0000193700DA3A393F8740193F5828883E47A
:1046F000737402936860EFA3A3A380DFE5092582AA
:10470000F582E5083583F583B50804858209221012
:10471000AF06858209F50822858209F508D2AF2205
:10472000E5092582F582E5083583F58322EC8EF0D4
:10473000A4CCC5F0CCCDF8EFA4CEC5F02DFDE43C63
:10474000FCE8A42EC8C5F03DFDE43CFCEFA4FFE569
:10475000F028FEE43DFDE43CFC22E6FC08E6FD0812
:10476000E6FE08E6FF22E0FCA3E0FDA3E0FEA3E0F6
:10477000FF22E2FC08E2FD08E2FE08E2FF22E493E9
:10478000FC740193FD740293FE740393FF22ECF614
:1047900008EDF608EEF608EFF622ECF208EDF20866
:1047A000EEF208EFF222410A03554109A73241090E
:1047B0009C0041099B004109FE01410A091241097F
:1047C0009D004109FA004109A532410A0100410951
:1047D0009E00410A08014209A000004109A40041CD
:1047E00009FD004109FC00440A0400000000410AE0
:1047F00002004109FB024109FF004109A600410AEC
:1048000000004109F90041099F004109A200410946
:10481000A30041099800410CE400410CE300410C65
:10482000E800410CE700410CE60060390BBD480789
:1048300007070778B5B60755CE865695FD7D3D1D11
:104840000D0585C5E5F5E007078D0730684284A4AE
:10485000830124C3040274A344C282E364D44303E7
:104860008123146394B4C4440CC600001388410C23
:10487000B700420CAC3DF4420CAE0000410CB0005D
:10488000420CB10BB8420CB30000420CB50000441E
:104890000B6A00000000440B6E00000000410B3961
:1048A00000410B4600440B5C00000000440B60001C
:1048B000000000410B6400410B6500410B660041A4
:1048C0000B6700440AAE713D0A07440ABF713D0AF6
:1048D00007410A9800440A9D00000000410ABE00FA
:1048E000410AA200440A9900000000440AC3017D65
:1048F0007840410A9700410A8000420AA3002A42F8
:104900000A7E002A440AC800000000410AD0004183
:104910000AC700420A810000440A700000000041FA
:104920000A7400440A7500000000440A790000007F
:1049300000410A7D00440C5400000000440C460075
:10494000000000410C5200410C5300440C58000080
:104950000000440C3D00000000440C410000000039
:10496000410C450041090300440C8500000000444F
:104970000C8100000000410C8000440C8900000004
:1049800000410C7700420C782710440C7C000D4A43
:1049900058410C7432410C7200410C7500410C738B
:1049A00000410C6D15440C6E00000000410C7600B7
:1049B000410C5C00410C5D00410C5E00410C5F004D
:1049C000410C6000410C6100410C6200410C63002D
:1049D000410C6600410C6700410C6800440C690002
:1049E000000000410B1000410B2C0C490AD10000C3
:1049F00004040000000000410CEA00410CEF0041FB
:104A00000CF0FF410CF1FF410CF2FF410CF3FF41B0
:104A10000CF4FF410CF5FF410CCF80410CCE7F44DC
:104A20000CCA000000FF440CA3023366C4440C9E71
:104A30000000903C410CA225440CA8481E000041F7
:104A40000CF600460CD0008102370300410CF7FF42
:104A5000410CF8FF430CD6000000410CF900420C59
:104A6000140180420C16FF7F420C12010000759366
:104A70000078007583467582E8E04401F0009048B4
:104A80000074C0F07581099076BCE4F0A3F0A3F047
:104A9000A3F0907010F0907019F0907020F0907664
:104AA000007410F0907604E4F0A3F0A3F0A3F0906B
:104AB00078007800087400F0A37408F0E8B80402E5
:104AC00074FFA3F0A37422F0A374BCF0A37476F077
:104AD000A3E4F0A3E81475F008A4F0A3B804D590FB
:104AE00070107401F0907014F07E707F1812410401
:104AF000907010F0EA900CA7F002411175081F7534
:104B000009FD12B94912A61212B8DC024B49025D26
:104B100020E493A3F8E493A34003F68001F208DFB6
:104B2000F48029E493A3F85407240CC8C333C45475
:104B30000F4420C8834004F456800146F6DFE48029
:104B40000B01020408102040809047A6E47E0193E8
:104B500060BCA3FF543F30E509541FFEE493A360FB
:104B6000010ECF54C025E060A840B8E493A3FAE456
:104B700093A3F8E493A3C8C582C8CAC583CAF0A3A7
:104B8000C8C582C8CAC583CADFE9DEE780BEC2D510
:104B9000E830E70FB2D5E4C39BFBE49AFAE499F955
:104BA000E498F8EC30E717B2D5124BC412458AE40A
:104BB000C39BFBE49AFAE499F9E498F88003124560
:104BC0008A30D50DE4C39FFFE49EFEE49DFDE49C86
:104BD000FC22758600EF4E601BEF60010E8C838D0A
:104BE000828B958A858984E493A30586F0A3158634
:104BF000DFF5DEF3E4F59522EC30E70312462922D7
:104C0000EC4D4E700D78FCEF24E950032840FD2256
:104C100000007BF178DA0000EF28FF78FFEE38FE25
:104C2000ED38FDEC38FC50E7EF2BFFEE38FEED38A9
:104C3000FDEC38FC40F22205020304758600EF4EBD
:104C40006027EF60010E759300900A2AE0F595A3A6
:104C5000E0F585A3E0F5848B938A838982E0A30540
:104C600086F0A31586DFF6DEF4E4F593F59522329F
:104C7000EEFA900CA2E0F88FF0A4FFAEF0E88AF014
:104C8000A42EFEE5F03400FDEF24C9FF78FFEE38D6
:104C9000FEED38FDE438FC5003024C0022EC4D6080
:104CA00011ED60010C8B938A838982E4F0A3DDFC13
:104CB000DCFA75930022EF54016004D2AF8002C287
:104CC000AFEF5402FF9044F4E054FD4FF0229044C3
:104CD000F4E0F84402F0E85402FF10AF012274013E
:104CE0004FFF228B938A838982EFF0A3EEF0A3ED2E
:104CF000F0A3ECF075930022452020005020200006
:104D000053202000432020008B938A838982E0FF78
:104D1000A3E0FE759300228B938A838982EDF0A332
:104D2000ECF0759300228B938A838982E07593005F
:104D3000FF228B938A838982EDF075930022800095
:104D40000000000000000000000000000000000063
:104D50000000000000000000000000000000000053
:104D60000000004000000000000000000000000003
:104D70000000000000000000000000000000000033
:104D80000000000000000000000000000000000023
:104D90000001000000000000000000000000000012
:104DA00000000020000000000000000000000000E3
:104DB00000000000000000000000000000000000F3
:104DC000800000000000000000040000000100005E
:104DD00000000000040400000000000000000000CB
:104DE00000014040400000000000100000000000F2
:104DF0000000000000000000000000000000400073
:104E00000000000000002000000000000000000082
:104E10000000800000008000000000000000000092
:104E200080000000000000001000000000000000F2
:104E30000000000000000000000000000000000072
:104E40000000000000000000000000000000000062
:104E50000000000000000000000000000000004012
:104E60004000000000000000000000000000000002
:104E70000000000000000000000000000000000032
:104E80000000000000000000000000000000000022
:104E900000000000000000000000000000002000F2
:104EA0000000000000000000000000000000000002
:104EB00000000000000000000000000000000100F1
:104EC00001000020000020000000000000000000A1
:104ED00000000180840400000000000000000000C9
:104EE0000001506041000000000000000040000090
:104EF000040000400000000000000000000000006E
:104F00000000000000001000000000000000000091
:104F10000000000000004000000000000000000051
:104F20009000000080000000000000004000000031
:104F30000000000000000000000000000000000071
:104F40000000000000000000000000000000100051
:104F50000000000000000000000000000000000051
:104F60000000000000000000000000000000000041
:104F70000000000000000000000020000000000011
:104F800000000000000000000000000000000040E1
:104F90000000000000000000000000000000000011
:104FA0000000000000000000000000000000000001
:104FB00000000000000000000000000000000000F1
:104FC000200001000000010000000000000000407F
:104FD00000000100804400000000110020000000DB
:104FE00000014160410000000014000000000000CA
:104FF00000000000000000000000000000000000B1
:105000000000100000000000000000002000000070
:105010000000200000000000000000000000000070
:1050200020000000100000000000A00000000000B0
:105030000000000000000000000000000000000070
:10504000000000000000001000000000002A000026
:105050000000000000000000000000000000000050
:105060000000000000000000000000000000000040
:1050700000000000000004000000000000440400E4
:105080000000000000000000000000000000000020
:10509000100001002000000080000000000001203E
:1050A00000000000200000000000000000000000E0
:1050B00000000000000000000000000000000000F0
:1050C000100000001000400000000010000004402C
:1050D00010000000000000000000110000000000AF
:1050E000000000404100000000000000002100001E
:1050F00000000000000000000000000000000000B0
:10510000E00000000000000000000000E0001000CF
:105110000000E0006000C00000000000000080000F
:10512000400000000000000000000000000000003F
:10513000000000000000000000000000000000006F
:10514000000000000000000000000000000000401F
:1051500000000000800004000001000010000000BA
:10516000000000000000000000000000000011002E
:10517000000000004100000000000080000000006E
:1051800000200000000000000000000000000000FF
:10519000000000000000000000000000000000000F
:1051A00000000000000000000000000000000000FF
:1051B00000000000000000000000000000000000EF
:1051C000800000000000000000000000000000005F
:1051D00000000000000000000000000000000000CF
:1051E00000000000000000000000000000000000BF
:1051F00000000000000000000000000000000000AF
:1052000000006000700000000000F00020001000AE
:10521000000000000000000000000000000080000E
:10522000000000000000000000000000000000007E
:10523000000000000000000000000000000001006D
:10524000000000000000010000000000010001005B
:105250000000100001000100000008000000010033
:1052600000000800010001000000010008230252B4
:105270003E760800082303524676100008230452A5
:105280004E76200008230552567628000823065241
:105290005E76300005230752667020000523085211
:1052A00066703000052309526670500005230A52CB
:1052B000667060000523FE526670700015220C0CAB
:1052C000DF49C8004022FE0CDF51300180220E0C65
:1052D000DF08000180220F0CDF0A00018022100C81
:1052E000DF0C00018022110CDF0E00010022120CE5
:1052F000DF4400008022130CDF4600008022FE0CF9
:10530000DF4D00008023154D3E4800008023164DE0
:10531000BE4880008023174E3E4300008023184E75
:10532000BE4380008023194F3E42000080231A4F65
:10533000BE42800080231B503E41000080231C5051
:10534000BE41800080231D513E4000008023FE515D
:10535000BE40800007231F082852000007232008B2
:105360003052080007232108385210000623220873
:10537000405260000723230848527800082324087D
:10538000504578000C232508604F0000202326108C
:105390006C6470002023FE108C65700008232808C0
:1053A00058510000802329086C00000080232A083F
:1053B000EC00800080232B096C02000080232C0964
:1053C000EC02800080232D0A6C04000080232E0A4A
:1053D000EC04800080232F0B6C0600008023300B30
:1053E000EC0680008023310C6C1400008023320C0A
:1053F000EC1480008023330D6C1600008023340DE4
:10540000EC1680008023350E6C1800008023360EC9
:10541000EC1880008023370F6C1A00008023380FAF
:10542000EC1A800010233910AC50100010233A10F1
:10543000BC50000080233B10CC4D800080233C11E9
:105440004C4C000080233D11CC4C800080233E1248
:105450004C47000080233F12CC478000802340133C
:105460004C46800080234113CC4500008023421429
:105470004C45800080234314CC1B0000802344153E
:105480004C1B800080234515CC1500008023461658
:105490004C15800080234716CC1900008023481744
:1054A0004C19800080234917CC17000080234A182C
:1054B0004C17800080234B18CC09800080234C19A6
:1054C0004C07000080234D19CC07800080234E1A22
:1054D0004C0B800080234F1ACC0500008023501B0A
:1054E0004C0580008023511BCC0D80008023521C72
:1054F0004C0300008023531CCC0380008023541DE8
:105500004C0F80008023551DCC0100008023561EC7
:105510004C0180008023571ECC4900008023FE1FD1
:105520004C4980000100000002000000040000005F
:10553000050000000600001201000200000008C083
:1055400016DC0503000F0E80010902B700040100FC
:10555000C0020904000000FF00000C090401000063
:10556000010100090A2401000134000202030C2495
:1055700002010306000203000000092403020101E6
:105580000001000C240203010100020300000009D5
:1055900024030403060003000904020000010200C2
:1055A0000A09040201010102000A072401020201A2
:1055B000000B240201020210010077010905822D6F
:1055C000800101000007250180010000090403009B
:1055D000000102000B09040301010102000B072472
:1055E00001030101000B24020102021001007701F6
:1055F0000905032D8001010000072501800100003D
:10560000040309040C034100450039005200420024
:105610001A035000650061006200650072007200AC
:10562000790020005300440052002203500065001E
:105630006100620065007200720079002000520073
:105640006500630065006900760065002403500072
:105650006500610062006500720072007900200040
:105660005400720061006E0073006D0069007400E8
:105670001E03500065006100620065007200720048
:105680007900200052006100640069006F00160379
:105690004400470038005300410051002D004900EC
:1056A000320043001A037700770077002E006F0066
:1056B00062006400650076002E00610074001E0325
:1056C0004D0075006C0074007500730020004300ED
:1056D0006F006E00740072006F006C0020034D00BC
:1056E00075006C00740075007300200049005100C3
:1056F000200053006F0075006E00640024034D000D
:1057000075006C00740075007300200049005100A2
:1057100020005200650063006500690076006500A6
:1057200026034D0075006C007400750073002000A6
:105730004900510020005400720061006E007300A7
:105740006D006900740026034D0075006C00740044
:1057500075007300200053004400520020004300F5
:105760006F006E00740072006F006C0020034D002B
:1057700075006C0074007500730020005300440035
:1057800052002C004C004C0043002E00120350002D
:1057900072006F0066006900630069006F002603F5
:1057A0007700770077002E006D0075006C007400A4
:1057B000750073002D007300640072002E006300FA
:1057C0006F006D0000120350004500300046004B92
:1057D000004F002D0030000201822D0180010301E5
:1057E000032D018001FF01010101FF554902FF570F
:1057F000D7000000000000000000000000000000D2
:105800000000FF57E501FF55370000000001FF577A
:10581000E901FF58053031323334353637383941F4
:10582000424344454600E4900A31F0A3F0A3F0A3BC
:10583000F0A3F07F64FEFDFC11E8D2AF9044F47455
:10584000FDF0126C9412ABD712BD007E9F7FF51253
:10585000BD3E1287CDE4FFFEFDFC900A371246BE26
:105860007FC031D2900A2FEFF0700912B6FE12AB52
:10587000D712B79D126F22900A30EFF0900A2FE0F6
:10588000700CA3E060087BFF7A4C79F8316F900AC6
:1058900030E060087BFF7A4C79FC316F900A2FE092
:1058A00070087BFF7A4D7900316F7F807E9F7DD5B8
:1058B0007C00900A991246BEE4900AA1F0900A99E1
:1058C000E0FCA3E0FDA3E0FEA3E0FF127A45EF7049
:1058D000ECE47FDC7E05FDFC11E8D1CAEF54FEFF4D
:1058E000D1C4E47F05FEFDFC90FFFC1246FC12468D
:1058F000BE850883850982E0A3E0A3E0FEA3E0D390
:105900009400EE9480403D900CA8E0FCA3E0FDA341
:10591000E0FEA3E0FF124C00850883850982C08366
:10592000C082E0FCA3E0FDA3E0FEA3E02400FFEEC4
:105930003480FEED34FFFDEC34FFFCD082D08312C6
:1059400046BE80AD900C9EE0FCA3E0FDA3E0FEA36C
:10595000E0FF850883850982E0F8A3E0F9A3E0FA77
:10596000A3E0FB1244FF124C009000040246FC909E
:105970000A36EBF0A3EAF0A3E9F0E4900A3AF0A3C8
:10598000F0900B10E0600312AF67D1CAEF540144EE
:105990000AFFD1C4900A36E0FBA3E0FAA3E0F912B3
:1059A0006B52F157EF5408FF900A39E06F60F3EF44
:1059B000F0A374FFF5F01244CA45F070E5900A3A7E
:1059C00004F0A374E0F07B007A007900126B52803F
:1059D000D122900A36EFF0E4900A3BF0FF7ED77DAB
:1059E000A37C701267F0900AB21246BE900A36E0AD
:1059F000FD7FB751AB900A3BEFF0700241A3E4FF8B
:105A0000FEFDFC900A37E0F8A3E0F9A3E0FAA3E07A
:105A1000FBC312464D6014900A37E0FCA3E0FDA3DF
:105A2000E0FEA3E0FF900AC31246BE7D807F1051C6
:105A3000AB900A3BEFF07D807F1151AB900A3BEFBA
:105A4000F07D807F1251AB900A3BEFF07D0C7F1010
:105A500051AB900A3BEFF07D0C7F1151AB900A3BAC
:105A6000EFF07D0C7F1251AB900A3BEFF0E4FDFFAD
:105A700012868CE4FFB1057F01B105E4FD7F0112C0
:105A800085AEE4FD7F021285AEE4FD7F01F1AAE45C
:105A9000FD7F02F1AAE4FD7F01128398E4FD7F02FD
:105AA000128398900A3BE0FF7E0022900A5B74010B
:105AB000F0E4A3F0900A59EFF0A3EDF07B017A0A2D
:105AC0007959900A617402F0E4A3F07F601284FFB8
:105AD000900A5CEFF012847BEF30E1F9F1F1EF64B2
:105AE000026005E4900A5BF0900A5BE0FF22900AF6
:105AF0004FEFF0900B46E0B40800400281FF905B4E
:105B000005F8282873025B1D025B89025BAE025B0D
:105B1000F4025C23025C49025CAD025CDCE47F8041
:105B2000FEFDFC900A50E0F8A3E0F9A3E0FAA3E040
:105B3000FB1244FFE42FFFEE34FEFEED34FFFDECDC
:105B400034FFFC900B3A1246BEE4FFFEFDFC900BC6
:105B50003E1246BEE47F01FEFDFC900B421246BEA3
:105B6000900B42E0FCA3E0FDA3E0FEA3E0E4FFEE27
:105B7000E4FDFC780812465EAD07900A4FE0FF5145
:105B8000AB900B46E004F081FF900A4FE004FFC0A9
:105B900007900B42E0FCA3E0FDA3E0FEA3E0FFE4DE
:105BA000AD07D00751AB900B46E004F081FF900A9F
:105BB0004FE02402FFC007900B3AE0FCA3E0FDA3F6
:105BC000E0FEA3E0E4FFFEED5403FDE4FC781012D8
:105BD000465EA804A905AA06AB07900A54E0FFE4B4
:105BE000EB4FFFEAE9E8AD07D00751AB900B46E079
:105BF00004F081FF900A4FE02403FFC007900B3AA6
:105C0000E0FCA3E0FDA3E0FEA3E0E4FFEEE4FDFC86
:105C1000780812465EAD07D00751AB900B46E00402
:105C2000F081FF900A4FE02404FFC007900B3AE098
:105C3000FCA3E0FDA3E0FEA3E0FFE4AD07D0075125
:105C4000AB900B46E004F081FF900A4FE02405FF83
:105C5000C007900B3EE0FCA3E0FDA3E0FEA3E0E460
:105C6000FFFEED540FFDE4FC781012465EC004C048
:105C700005C006C007A3E0FCA3E0FDA3E0FEA3E08F
:105C8000E4FFFEED540FFDE4FC780C12465ED003F9
:105C9000D002D001D000EF4BFFEE4AED49EC48AD09
:105CA00007D00751AB900B46E004F08052900A4FAA
:105CB000E02406FFC007900B3EE0FCA3E0FDA3E05C
:105CC000FEA3E0E4FFEEE4FDFC780812465EAD07BB
:105CD000D00751AB900B46E004F08023900A4FE0D0
:105CE0002407FFC007900B3EE0FCA3E0FDA3E0FE0D
:105CF000A3E0FFE4AD07D00751ABE4900B46F09072
:105D00000B46E0FF22900A3CEFF070067D207FB149
:105D100041AB900A3CE0B401067D807FB151AB22DB
:105D2000E4900A27F0A3F0A3F0A3F0A3F0A3F0A35C
:105D3000F0A3740AF01126126A63127064900A03C9
:105D4000E0FFB4430C900A28E06F6002EFF012A26B
:105D5000DFF157EF5408FF900A25F0A3E06F60D7FA
:105D6000A3E0FF04F0EFB407004002C1B4905D74FB
:105D7000F8282873025D89025DC4025E10025E3B52
:105D8000025E40025E4D025E62900A2EE014F070E8
:105D9000A6124CCE900A2DEFF0F157900A29EFF0A1
:105DA000900A2DE0FF124CB6900A29E030E40890EA
:105DB00009A27401F08005E49009A2F0900A2E7403
:105DC0000AF0A137900A03E0FF64437002A1379004
:105DD0000A28E06F6036D1CAEF54FEFFD1C4D1CAA1
:105DE000EF4402FFF14FEF54FBFFF15DD1CA900A7F
:105DF0002CEFF04408F04410F04404FFF0D1C4E468
:105E0000900CE8F0900A03E0900A28F0D1D0A13776
:105E1000128D729009A7E0FF900998E06F600DEF76
:105E2000F0E075F064A4FFAEF012BD24900A08E023
:105E300064016002A13712A045A137127451A13745
:105E4000900A00E06002A137128EE5A137128C455E
:105E500012B937EF7002A1377BFF7A4D7904316FA9
:105E6000A137900A03E064436016900A99E0FCA30E
:105E7000E0FDA3E0FEA3E0FF127A45900A00EFF0F8
:105E8000F157EF20E202F1E39009A3E0B4010EE440
:105E9000F07F2C7E01FDFC11E8F1E9A1379009A308
:105EA000E064026002A137F07F2C7E01FDFC11E866
:105EB000F1E3A137F1F7E4900A27F0900A25E0A377
:105EC000F0A13722906474EFF022906474E0FF2216
:105ED000900CE6E014602F14603324F8603E1460E8
:105EE00060240B7069900CE8E06063900CE7E07050
:105EF0005D900CE604F0D1CAEF54FDFFD1C4F1511E
:105F0000EF4404FF8057900CE67402F022D1CAEFF0
:105F100054F7FFD1C4900CE6740AF022900CE8E02C
:105F2000702C900CE7E07026D1CAEF54FE4408FFB5
:105F3000D1C4F151EF54FBFFF15D900CE6740BF00E
:105F400022D1CAEF4402FFD1C4E4900CE6F022D182
:105F5000C4906576E0FF22906460E0FF2290657651
:105F6000EFF022D1CAEF54F7FF54FDFF4404FFF1D4
:105F70004FEF4404FFF15D90099B7401F022900CF7
:105F80006EE0FCA3E0FDA3E0FEA3E0FF127A45EF84
:105F9000600122F151EF54FBFFF15DD1CAEF441EC5
:105FA000FFD1C4E490099CF0FF22900A3DEDF090EF
:105FB0000A3CEFF02410FF7B017A0A793E1283F449
:105FC000900A3DE0B40107A3E0547FF08007900AF7
:105FD0003EE04440F0900A3CE02410FF900A3EE08E
:105FE000FD41AB9046FA7440F09046F6E04401F073
:105FF00022900CBCE0FF2212B5BDEF6010900B1098
:10600000E0701A7D02FF12A8F1F1900191900B103F
:10601000E0600AE4900CE8F0111E12AF67227DF0F8
:106020007F4011C5900A36EFF012B82312B7E990FD
:106030000CF1E0FF115E900CF0E0FF115E900CF3AC
:10604000E0FF115E900CF2E0FF115E900CF4E0FFB7
:10605000115E12B83712B7FD900A36E0FF227E01BA
:10606000EFC39418502875F010EFA42410F582E5C2
:10607000F03470F583E054FEF075F010EFA42410B6
:10608000F582E5F03470F583E054DFF0E41EAF06EE
:10609000227DC07F4011C57D807F4511C57DFF7F7A
:1060A0004111C57DFF7F4211C5913C314212B80EAE
:1060B000124CCE90659BE04410F0124CB69065797E
:1060C000E04401F022900A37EFF0A3EDF0E4900AEB
:1060D0003BF0A3F0A3F0900A3BE0FFC39402505FB3
:1060E000EF14602F0470EF900A37E0900A39F090B7
:1060F0000A38E0900A3AF07B017A0A7939900A610D
:106100007402F0E4A3F07F461284FF900A3BE0049F
:10611000F080C312847BEF30E708900A3BE014F074
:10612000800AEF30E106900A3BE004F0900A3C74EC
:10613000FFF5F01244B445F0709C7F012280977FF8
:106140000022E4900A2FF0900A2FE0FFC39403404E
:106150000221E9EF6402703FE02407F582E434098C
:10616000F583E0FF900907E0FBE4900A3EF07D0133
:10617000FC71B5900A2FE02407F582E43409F58319
:10618000E0FF7B017A097903E9EAE4AD01AC027B27
:106190004B7A65B185804A900A2FE0FE2407F5828C
:1061A000E43409F583E0FF74082EF582E43409F540
:1061B00083E0FB900A3E7404F07D017C0071B59091
:1061C0000A2FE02407F582E43409F583E0FF7B0120
:1061D0007A09790BE9EAE4AD01AC027B4B7A65B14F
:1061E00085900A2FE004F02147900CF3E0FFD11BCB
:1061F000900CF3E0FF900907E0FDB1FDE4900A2F59
:10620000F0900A2FE0FFC3940340026121EF04A342
:10621000F0C39403402EE4F0900A2FE0240FF5829F
:10622000E43409F583E0FF900A30E0240FF582E4BE
:106230003409F583E0FB900A3E7405F07D807C0113
:1062400071B58029900A2FE0240FF582E43409F516
:1062500083E0FF900A30E0240FF582E43409F583EF
:10626000E0FB900A3E7401F07D80FC71B5900A2F2E
:10627000E0FB75F080A42483F582E5F03404F58317
:10628000EB2583F583FEE582EEE4AD82AC06C00526
:10629000740F2BF582E43409F583E0FF7B017A0962
:1062A000790BE9EAE4AB01D005B185900A2FE0242F
:1062B00000F582E43400F583E0FF900A30E024002A
:1062C000F582E43400F583E0FB900A3E7402F07D31
:1062D000807C0171B5900A2FE0F975F080A42483C9
:1062E000F582E5F03404F583E92583F583FEE58244
:1062F000EEE4AB82AA06C002C003740029F582E472
:106300003400F583E0FF7B017A097903E9EAE4AD23
:1063100001AC02D003D002B185900A2FE004F04115
:1063200001900CF2E0FFD11B900CF2E0FF90090FFE
:10633000E0FDB1FD900CF4E0FFD11B900CF4E0FF08
:10634000900000E0FDB1FD900CF4E0FF7D01716A6A
:10635000900CF2E0FF7D0112B912900CF2E0FF7D8B
:1063600001716A900CF3E0FF7D017E01EFC3941888
:106370005040ED601575F010EFA42410F582E5F0A3
:106380003470F583E04420F0801375F010EFA424FE
:1063900010F582E5F03470F583E054DFF075F0100D
:1063A000EFA42410F582E5F03470F583E04401F0A9
:1063B000E4FEAF0622900A3BECF0A3EDF0A3EBF075
:1063C000900A3AEFF0900A3F7401F0EFC3948050C6
:1063D00065900A3BE054F0A3705C900A3AE075F0D7
:1063E00008A42400FFE5F03478FE900A40F0A3EF03
:1063F000F0AA06F97B01900A3BE0FCA3E0FD124DF8
:1064000019900A3DE0FF900A3AE0FE75F008A424D6
:1064100002F582E5F03478F583EFF0900A3EE0FF74
:1064200075F008EEA42403F582E5F03478F583EFE7
:10643000F0E4900A3FF0900A3FE0FF22E4900A2F38
:10644000F0900A2FE0FFC394035070EFB4021C24B5
:1064500004F582E43409F583E0FF900904E0FBE4ED
:10646000900A3EF07D01FC71B58028900A2FE0FE75
:106470002404F582E43409F583E0FF74052EF582E7
:10648000E43409F583E0FB900A3E7404F07D017C5E
:106490000071B5900A2FE02404F582E43409F583F5
:1064A000E0FF7B017A09790AE9EAE4AB017D497CE6
:1064B00065B185900A2FE004F08086900CF1E0FF32
:1064C000D11B900CF1E0FF900904E0FDB1FDE490D8
:1064D0000A2FF0900A2FE0FFC394034002A160EF5F
:1064E00004A3F0C394034002E4F0900A2FE0240CCC
:1064F000F582E43409F583E0FF900A30E0240CF5DE
:1065000082E43409F583E0FB900A3E7402F07D805A
:106510007C0171B5900A2FE0F975F080A42403F591
:1065200082E5F03400F583E92583F583FEE582EE0C
:10653000E4AB82AA06C002C003740C29F582E434DD
:1065400009F583E0FF7B017A09790AE9EAE4AD0104
:10655000AC02D003D002B185900A2FE004F081D3C1
:10656000900CF0E0FFD11B900CF0E0FF90090CE0E4
:10657000FDB1FD900CF0E0FF7D01716A900CF1E03F
:10658000FF7D01616A900A3BECF0A3EDF0A3EAF015
:10659000A3EBF0900A3AEFF0900A3F7401F0EFC3DA
:1065A00094805053900A3AE075F008A42404FFE563
:1065B000F03478FE900A40F0A3EFF0AA06F97B01D0
:1065C000900A3BE0FCA3E0FD124D19900A3AE075F9
:1065D000F008A42406FFE5F03478FE900A40F0A30A
:1065E000EFF0AA06F97B01900A3DE0FCA3E0FD1262
:1065F0004D19E4900A3FF0900A3FE0FF227E01EF40
:10660000C39418501375F010EFA42419F582E5F027
:106610003470F583EDF0E41EAF06227E01EFC394E3
:1066200018502875F010EFA42414F582E5F03470AA
:10663000F583E04404F075F010EFA42410F582E532
:10664000F03470F583E04401F0E41EAF0622900AB6
:1066500030EBF0A3EAF0A3E9F0900A2FEFF024FF6B
:10666000FFE434FFFEEFC4F8540FC868FFEEC454D3
:10667000F048EF2488FFE43460FAA907900A3674E2
:1066800001F0A3EAF0A3E9F0900CE4E030E1089017
:106690000A357492F08006900A3574D2F0900A2F71
:1066A000E02423F582E4340BF583E0FF115E900AC9
:1066B0002FE02407F582E4340BF583E0FBFF900A1A
:1066C00033E0FCA3E0FDA3E0900A3EF071B5900A30
:1066D0002FE02407F582E4340BF583E0FFC0079038
:1066E0000A36E0FBA3E0FAA3E0F9FFAE02EAE4AD6C
:1066F00007AC06C005900A30E0FBA3E0FAA3E0F97E
:10670000FFEAE4AB07D005D007B185900A2FE0245B
:1067100023F582E4340BF583E0FFD11B900A2FE0D0
:10672000FE2423F582E4340BF583E0FF74072EF595
:1067300082E4340BF583E0FDB1FD900A2FE02423C1
:10674000F582E4340BF583E0FF7D01616A900A363F
:10675000EFF07FF47E3D12737B126E3F900A37EFAD
:10676000F0E0FBFFE4900A3EF07D01FC71B5900A79
:1067700037E0FF7B227A427D667C65B185900A36E0
:10678000E0FFA3E0FDB1FD900A36E0FF7D01616A04
:10679000900B09E0B4FF07F1DA7F0212AFE7900B2C
:1067A0000AE0B4FF07F1BE7F0312AFE7E4900CE507
:1067B000F0F1BEE4900A33F0A3F07F03C14EF1D4B0
:1067C0007E007C017D801244A274832FF974043E04
:1067D000FA7B0122906465E0FF22F1D47E007C0107
:1067E0007D801244A274032FF974003EFA7B0122CB
:1067F00090FFFC1246FC1246BE90FFF61246FC7B50
:1068000001900006124720A982AA83850883850982
:1068100082EBF0A3EAF0A3E9F07B0190000A1247B3
:1068200020A982AA83900003124720EBF0A3EAF08C
:10683000A3E9F0900003124720E0FBA3E0FAA3E0F5
:106840002403F9E43AFA124477FF85088385098224
:10685000E0FBA3E0FAA3E0F9EF12449090000312EA
:106860004720E0FBA3E0FAA3E02402F9E43AFA129D
:106870004477FF850883850982E0FBA3E0FAA3E063
:106880002401F9E43AFAEF124490900003124720F1
:10689000E0FBA3E0FAA3E02401F9E43AFA1244771A
:1068A000FF850883850982E0FBA3E0FAA3E02402C8
:1068B000F9E43AFAEF124490900003124720E0FB0B
:1068C000A3E0FAA3E0F9124477FF850883850982E3
:1068D000E0FBA3E0FAA3E02403F9E43AFAEF124460
:1068E00090900006124720E0FCA3E0FDA3E0FEA389
:1068F000E0FF90000E0246FC900A30EBF0A3EAF0B5
:10690000A3E9F0900A2FEFF024FFFFE434FFFEEF3D
:10691000C4F8540FC868FFEEC454F048900A35EF2D
:10692000F02488FFE43460FAA907900A377401F074
:10693000A3EAF0A3E9F0900CE4E030E008900A3616
:106940007491F08006900A3674D1F0900A33E0FC1E
:10695000A3E0FDECFF900A2FE0FE75F00BA42438B5
:10696000F582E5F03409F583E04FFF900A35E0FB4E
:10697000240CF582E43460F583EFF0ED740D2BF513
:1069800082E43460F583EDF074232EF582E4340B59
:10699000F583E0FF12605E900A2FE02407F582E4A1
:1069A000340BF583E0FBFF900A33E0FCA3E0FD909D
:1069B0000A36E0900A3EF01263B5900A2FE02407F1
:1069C000F582E4340BF583E0FFC007900A30E0FB6A
:1069D000A3E0FAA3E0F9FFAE02EAE4AD07AC06C01B
:1069E00005900A37E0FBA3E0FAA3E0F9FFEAE4AB85
:1069F00007D005D007126585900A2FE02423F58281
:106A0000E4340BF583E0FF12661B900A2FE0FE24AE
:106A100023F582E4340BF583E0FF74072EF582E45E
:106A2000340BF583E0FD1265FD900A2FE02423F579
:106A300082E4340BF583E0FF7D0112636A900A2F34
:106A4000E075F00BA42436F582E5F03409F583E413
:106A5000F0900A35E02480F582E43460F583E04468
:106A600001F0227F037127EF6012900CE5E0701BAC
:106A70007F0351CC900CE57401F0800F900CE5E0A1
:106A800060097F037134E4900CE5F0711AEF600443
:106A90007F0351CC7F037109EFB401161267BE90DA
:106AA0000A337401F0A37480F07F0312664E7F03F3
:106AB00051CC7F027109EFB401111267DA900A33E9
:106AC0007401F0A37480F07F0211F822EFD39400D8
:106AD0004036EF94095031EF75F00BA42436F5825F
:106AE000E43409F583E4F0EF75F00BA4243AF58261
:106AF000E43409F583E0FE75F010EFA424FEF5827E
:106B0000E5F0345FF583EEF022EF75F00BA4243648
:106B1000F582E43409F583E0FF22E4FF900922E0E6
:106B20006004E0FFE4F02274122FF582E43409F5EA
:106B300083E0FF22EFD394004017EF9409501275C1
:106B4000F010EFA424FEF582E5F0345FF5837408BD
:106B5000F022EA494B6015E4900BB5F0900BB8F0C9
:106B6000900BBAEBF0A3EAF0A3E9F022900BB8E0A7
:106B7000147002811414700281451470028177240C
:106B80000360028193900BBAE0FBA3E0FAA3E0F963
:106B9000900BB5E0FFE92FF9E43AFA12447770045C
:106BA000900BB5F0900BBAE0FBA3E0FAA3E0F990EC
:106BB0000BB5E0FF04F0E92FF9E43AFA124477FF4D
:106BC000C39461400AEFD3947A500474E02FFFEF2E
:106BD000C394224006EFD3945A4008900BB6740732
:106BE000F0800F749B2FF582E4340BF583E0900B5B
:106BF000B6F0900BB6E0FF5407A3F070037406F0F4
:106C0000EFB40710900BB97402F0E4900BB7F0A347
:106C10007403F022900BB6E0FF30E708900BB974D4
:106C200003F08006900BB97401F0EF25E0900BB6ED
:106C3000F0A3E014F0125ECAEF54FEFF125EC4909F
:106C40000BB87402F0900BB9E07025900BB8740388
:106C5000F0900BB7E07008900BB97402F08005E477
:106C6000900BB9F0125ECAEF4401FF125EC48007B8
:106C7000900BB9E014F022900BB9E07010900BB7B4
:106C8000E07003A3F022900BB87401F022900BB9CE
:106C9000E014F022E4900A3AF0A3F0FBFA7D017FC1
:106CA0000191B112674D91F5E47F01FEFDFC0258A0
:106CB000E8900A38EAF0A3EBF0AE05E4900CF5F0AA
:106CC000AD07AF06AB07900A40F0A3F0A3F0FFF1C9
:106CD000EB900CF5E0FF900A38E0FCA3E0FDA3E0A8
:106CE000FAA3E0FBF173900CF5E0FFE4FDB1049032
:106CF0000CF5E0FF229064957420F0906492F0907F
:106D00006491F022AC077B01ECC39418503375F00A
:106D100010ECA42410F582E5F03470F583E054F112
:106D2000FAED540725E0FFE433AE02EF4AFF75F0B9
:106D300010ECA42410F582E5F03470F583EFF0E454
:106D40001BAF0322900A39EAF0A3EBF0AE05900CDA
:106D5000F07403F0AD07AF06AB07E4900A40F0A370
:106D6000F0A3F07F03F1EB900CF0E0FF900A39E024
:106D7000FCA3E0FDA3E0FAA3E0FBF173900CF0E0CC
:106D8000FF7D01B104900CF0E0FF22900A39EAF097
:106D9000A3EBF0AE05900CF17404F0AD07AF06ABB9
:106DA00007900A40F0E4A3F0A3F07F04F1EB900C0D
:106DB000F1E0FF900A39E0FCA3E0FDA3E0FAA3E0D4
:106DC000FBF173900CF1E0FF7D01B104900CF1E058
:106DD000FF22E4900A3BF0A3F0FBFA7D017F01B1B2
:106DE0008BE4900A3BF0A3F0FBFA7D017F01B144F4
:106DF000E4900A36F0900A36E0C394035019D13F6C
:106E0000900A36E02404F582E43409F583EFF0902B
:106E10000A36E004F080DEE4900A36F0900A36E0AC
:106E2000C394035019D13F900A36E0240CF582E454
:106E30003409F583EFF0900A36E004F080DE22900A
:106E40000A3874FFF0124CCE900CCFE0D394184067
:106E500023900CCEE0FE900A38F0900CCFE014F0B6
:106E600075F008EEA42400F582E5F03478F583E0AF
:106E7000900CCEF0124CB6900A38E0FF22E4900A53
:106E80003BF0A3F0FBFA7D017F01F12CE4900A3B7B
:106E9000F0A3F0FBFA7D017F0112B848E4900A3BB1
:106EA000F0A3F0FBFA7D017F0112B892E4900A365C
:106EB000F0900A36E0C394035019D13F900A36E0AF
:106EC0002407F582E43409F583EFF0900A36E004F4
:106ED000F080DEE4900A36F0900A36E0C394035066
:106EE00019D13F900A36E0240FF582E43409F58386
:106EF000EFF0900A36E004F080DEE4900A36F0907D
:106F00000A36E0C394035019D13F900A36E02400BA
:106F1000F582E43400F583EFF0900A36E004F08067
:106F2000DE2212B7C6B1D2D17D02601E900A39EAC4
:106F3000F0A3EBF0AE05900CF27405F0AD07AF06D0
:106F4000AB07900A40F0E4A3F0A3F07F05F1EB90CB
:106F50000CF2E0FF900A39E0FCA3E0FDA3E0FAA305
:106F6000E0FBF173900CF2E0FF7D01B104900CF2B4
:106F7000E0FF22900A3EECF0A3EDF0A3EAF0A3EBD1
:106F8000F0900A3DEFF0900A427401F0EFC39418BC
:106F90005053900A3DE075F008A42404FFE5F03456
:106FA00076FE900A43F0A3EFF0AA06F97B01900A5F
:106FB0003EE0FCA3E0FD124D19900A3DE075F0089B
:106FC000A42406FFE5F03476FE900A43F0A3EFF028
:106FD000AA06F97B01900A40E0FCA3E0FD124D19DE
:106FE000E4900A42F0900A42E0FF22AC077A01ECFA
:106FF000C39418506CEB540175F080A4FFED547FDE
:107000004FFF75F008ECA42400F582E5F03476F526
:1070100083EFF0900A41E0540F75F010A4FF900A3E
:1070200040E0540F4FFF75F008ECA42401F582E511
:10703000F03476F583EFF0900A42E0540FFF75F0DC
:1070400008ECA42402F582E5F03476F583EFF075C0
:10705000F008ECA42403F582E5F03476F583E4F03F
:107060001AAF0222906461E0FD7C0020E002413D05
:10707000A3E0FEE42DFDEC3EFCFEAF05ED2410FF89
:10708000EE34AA900A2FF0A3EFF0900CAEE0FEA32E
:10709000E0FF900A2FE0FCA3E0FDC39FFFEC9EA35E
:1070A000F0A3EFF0EC1243BD7B177AB779D17839B2
:1070B0001242121243F6900A33EEF0A3EFF0900A58
:1070C00031E0FCA3E0FDEC1243BDE4FBFAF9783FAC
:1070D0001242121243F6900A2FE0FDA3E0900CAE8C
:1070E000CDF0A3EDF0900A34E02FFF900A33E03E9C
:1070F000FE900CADE02FF0900CACE03EF0D3A3E09E
:1071000094E8900CACE0943F4007743FF0A374E81F
:10711000F0C3900CADE0940C900CACE0943A5007A6
:10712000743AF0A3740CF0900CB1E07002A3E0701C
:10713000024133900CB0E0602FE4900CACF0A3F06F
:10714000900CB0E014F060024133125ECAEF54FEBE
:10715000FF125EC4900CAC743DF0A374F4F07D019A
:107160007F0C7E00513E4133900CB2E024FFF09042
:107170000CB1E034FFF0900A31E0FEA3E0FFC3EE73
:1071800064809480500FC3900CB4E09FF0900CB3D7
:10719000E09EF08014900A31E0FEA3E0FF900CB472
:1071A000E02FF0900CB3E03EF0900CB3E0C313FE80
:1071B000A3E013FF900CB3EEF0A3EFF0C39402EE44
:1071C00094005018A3E07002A3E0602D900CB6E08C
:1071D00024FFF0900CB5E034FFF0801DD3900CB488
:1071E000E09407900CB3E09400400E900CB6E004DD
:1071F000F07006900CB5E004F0D3900CB6E0943239
:10720000900CB5E09400402BE4900CB3F0A3F0A3F5
:10721000F0A3F0900CB074C8F0A3740BF0A374B892
:10722000F0125ECAEF4401FF125EC47D017F0D7E45
:1072300000513E900CACE0FEA3E0FF717B22900A6F
:1072400035EEF0A3EFF0A3EDF0716A900A39EFF09C
:107250007172900A3AEEF0A3EFF0900A35E0FCA3C9
:10726000E0FD6F7002EC6E700261699043A2E05421
:1072700001900A38F0A3E0703AA3E0FEA3E0FF4ECD
:107280006004ED4C702DEF4E70117B027A407980D6
:10729000124D19904082E054BFF022904082E044A9
:1072A00040F07B027A407980900A35E0FCA3E0FD53
:1072B000024D19900A38E06053904001E4F090408C
:1072C0001004F0904014E4F0904008E0547FF090F7
:1072D0004082E05408600A900A35E07002A3E07032
:1072E0002B7B027A407902900A3AE0FCA3E0FD127F
:1072F0004D199040017407F0904001E0540170F87E
:107300009043A2E054FEF0904001E4F09043A2E0EC
:107310005401602F7B027A407902900A35E0FCA389
:10732000E0FD124D19900A37E060047F0280027F71
:1073300000EF4401904001F0904001E054016029C9
:1073400080F6227B027A407980900A35E0FCA3E047
:10735000FD124D199043A2C083C082E0FF900A380D
:10736000E0FEEF4ED082D083F022904082E05407BE
:10737000FF227B027A407980024D0AAD07AC06EC11
:10738000906575F0EF906574F022900A331246BE56
:10739000E4FFFEFDFC900A471246BE900A33E0FC73
:1073A000A3E0FDA3E0FEA3E0FF1267F0E41243B800
:1073B000E4FBFAF9784A12431B900A371246BE9052
:1073C0000A37E0FCA3E0FDA3E0FEA3E0FF1243F6D2
:1073D000900A3B1246BE7F007E247D747C49900A51
:1073E00037E0F8A3E0F9A3E0FAA3E0FB124212129F
:1073F00043F67B407A42790F7800124B8EAC00AD99
:1074000001AE02AF03900A431246BE7F407E427D2A
:107410000F7C00900A3BE0F8A3E0F9A3E0FAA3E0B8
:10742000FB1244FF900A43E0F8A3E0F9A3E0FAA3BB
:10743000E02FFFEA3EFEE93DFDE83CFC900A3F12EA
:1074400046BE900A3FE0FCA3E0FDA3E0FEA3E0FF00
:1074500022900A74E0147002A17D147002A1D62457
:10746000026002E13E900AAEE0FCA3E0FDA3E0FE74
:10747000A3E0FF900A75E0F8A3E0F9A3E0FAA3E027
:10748000FBC312464D7002A176124CCEAB07900A98
:10749000AEE0FCA3E0FDA3E0FEA3E0FF900A7512BE
:1074A00046BEAF03124CB6900C52E0146038047024
:1074B0004C900A75E0FCA3E0FDA3E0FEA3E0FF71A1
:1074C0008A900A2F1246BE900A2FE0FCA3E0FDA38B
:1074D000E0FEA3E0FFE47B04FAF9F812458A900A83
:1074E0002F1246BE8017900A75E0FCA3E0FDA3E0D2
:1074F000FEA3E0FF1267F0900A2F1246BEE47F64FD
:10750000FEFDFC900A2FE0F8A3E0F9A3E0FAA3E067
:10751000FBD312464D405F900A2FE0FCA3E0FDA391
:10752000E0FEA3E0FF900A99E0F8A3E0F9A3E0FAF7
:10753000A3E0FB12464D603E900A2FE0FCA3E0FD65
:10754000A3E0FEA3E0FF900A991246BE900A99E0DC
:10755000FCA3E0FDA3E0FEA3E0FF900C6E1246BE8C
:10756000900A99E0FCA3E0FDA3E0FEA3E0FF1282F5
:107570006F900AA1EFF0900A74E004F022900AD014
:10758000E0FF900A7DE06F6047900AD0E01460163B
:1075900014601F1460282403702E900A817401F077
:1075A000A37490F08022900A817402F0A37458F0C2
:1075B0008016900A817403F0A37420F0800A900A68
:1075C000817403F0A374E8F0900AD0E0900A7DF093
:1075D000900A74E004F0900A99E0FCA3E0FDA3E0B7
:1075E000FEA3E0FF900A79E0F8A3E0F9A3E0FAA394
:1075F000E0FBC312464D7002E139900A99E0FCA30A
:10760000E0FDA3E0FEA3E0FF900AC81246BE900A88
:1076100003E024BD7002C1DF24F77002C1A224F789
:10762000604324146002E125900AC8E0FCA3E0FD59
:10763000A3E0FEA3E02454FFEE342EFEE43DFDE47F
:107640003CFCC007900AC7E0FFFB3395E0FAF9F86D
:10765000D007C3EF9BFFEE9AFEED99FDEC98FCA3DB
:107660001246BEE125900AC8E0FCA3E0FDA3E0FEBF
:10767000A3E024E0FFEE342EFEE43DFDE43CFCC03C
:1076800007900AC7E0FFFB3395E0FAF9F8D007C38B
:10769000EF9BFFEE9AFEED99FDEC98FCA31246BE1F
:1076A000E125900AC8E0FCA3E0FDA3E0FEA3E024EE
:1076B000E0FFEE342EFEE43DFDE43CFCC007900A02
:1076C000C7E0FFFB3395E0FAF9F8D007C3EF9BFF63
:1076D000EE9AFEED99FDEC98FCA31246BE80469012
:1076E0000AC8E0FCA3E0FDA3E0FEA3E024E0FFEE77
:1076F000342EFEE43DFDE43CFCC006C007900A8148
:10770000E0FEA3E0FFFBAA06EA3395E0F9F8D00714
:10771000D006C3EF9BFFEE9AFEED99FDEC98FC902E
:107720000AAA1246BE900A99E0FCA3E0FDA3E0FE7F
:10773000A3E0FF900A791246BEE4900A74F022900A
:107740000A4FEFF0A3EDF0900B39E0B408004003CE
:10775000027A3F90775AF82828730277720278D617
:107760000278FC02792F02795F0279860279EB02B6
:107770007A1B900A55E0FCA3E0FDA3E0FEA3E0FF26
:10778000E41243B8C004C005C006C007900A51E027
:10779000FCA3E0FDA3E0FEA3E0FFE41243B8D003A6
:1077A000D002D001D00012431BE4FBFAF978431257
:1077B00042121243F6900B2D1246BE900A50E0FF83
:1077C0007E007C007D8012472D900B2DE0F8A3E019
:1077D000F9A3E0FAA3E02FFFEA3EFEE93DFDE83C15
:1077E000FCE42FFFEE34FEFEED34FFFDEC34FFFC35
:1077F000900B2D1246BE900A55E0FCA3E0FDA3E0DD
:10780000FEA3E0FFE41243B8C004C005C006C007F1
:10781000900A51E0FCA3E0FDA3E0FEA3E0FFE41228
:1078200043B8D003D002D001D00012431BE4FBFACE
:10783000F978431242121243F6900B311246BE9071
:107840000B31E0FCA3E0FDA3E0FEA3E0FF900A55AE
:10785000E0F8A3E0F9A3E0FAA3E0FB1244FFC004C0
:10786000C005C006C007E47F80FEFDFC900A51E021
:10787000F8A3E0F9A3E0FAA3E0FB1244FFD003D0A1
:1078800002D001D000C3EF9BFFEE9AFEED99FDEC14
:1078900098FC900B311246BE900A55E0FCA3E0FD27
:1078A000A3E0FEA3E0FF900B351246BE900B35E03F
:1078B000FCA3E0FDA3E0FEA3E0E4FFEEE4FDFC7822
:1078C0000812465EAD07900A4FE0FF125AAB900BCC
:1078D00039E004F0413F900A4FE004FFC007900BED
:1078E00035E0FCA3E0FDA3E0FEA3E0FFE4AD07D09C
:1078F00007125AAB900B39E004F0413F900A4FE079
:107900002402FFC007900B2DE0FCA3E0FDA3E0FEE6
:10791000A3E0E4FFFEED5403FDE4FC781012465EA4
:10792000AD07D007125AAB900B39E004F0413F90FD
:107930000A4FE02403FFC007900B2DE0FCA3E0FDFD
:10794000A3E0FEA3E0E4FFEEE4FDFC780812465E4F
:10795000AD07D007125AAB900B39E004F0413F90CD
:107960000A4FE02404FFC007900B2DE0FCA3E0FDCC
:10797000A3E0FEA3E0FFE4AD07D007125AAB900BE3
:1079800039E004F0413F900A4FE02405FFC0079022
:107990000B31E0FCA3E0FDA3E0FEA3E0E4FFFEED7D
:1079A000540FFDE4FC781012465EC004C005C0060A
:1079B000C007A3E0FCA3E0FDA3E0FEA3E0E4FFFE1C
:1079C000ED540FFDE4FC780C12465ED003D002D0DB
:1079D00001D000EF4BFFEE4AED49EC48AD07D00770
:1079E000125AAB900B39E004F08054900A4FE02417
:1079F00006FFC007900B31E0FCA3E0FDA3E0FEA36F
:107A0000E0E4FFEEE4FDFC780812465EAD07D00727
:107A1000125AAB900B39E004F08024900A4FE02416
:107A200007FFC007900B31E0FCA3E0FDA3E0FEA33D
:107A3000E0FFE4AD07D007125AABE4900B39F090A9
:107A40000B39E0FF22900A361246BE7F407E787DD9
:107A50007D7C01900A3A1246BE900B67E0147002DA
:107A600061CA1470030281861470030281DC1470F1
:107A70000302821314700302824F24056003028202
:107A8000699009A6E024FE601D146041240370562D
:107A9000900A36E0FCA3E0FDA3E0FEA3E0FF900B1C
:107AA0006E1246BE8040900A36E0FCA3E0FDA3E0E3
:107AB000FEA3E02464FFE43EFEE43DFDE43CFC90D4
:107AC0000B6E1246BE9009A67403F08019900A3618
:107AD000E0FCA3E0FDA3E0FEA3E0FF900B6E1246E6
:107AE000BEE49009A6F0900CE8E060026174900A90
:107AF00004E0FCA3E0FDA3E0FEA3E0FF900B6EE03A
:107B0000F8A3E0F9A3E0FAA3E02FFFEA3EFEE93D87
:107B1000FDE83CFC900B5CE0F8A3E0F9A3E0FAA3DD
:107B2000E0FBC312464D7003028269900A04E0FC38
:107B3000A3E0FDA3E0FEA3E0FF900B6EE0F8A3E05E
:107B4000F9A3E0FAA3E02FFFEA3EFEE93DFDE83CA1
:107B5000FC900B6A1246BE900B6AE0FCA3E0FDA30A
:107B6000E0FEA3E0FF900B5C1246BE900B67E004C2
:107B7000F0028269900B6EE0FCA3E0FDA3E0FEA39F
:107B8000E0FF900B5CE0F8A3E0F9A3E0FAA3E0FBD0
:107B9000C312464D7003028269900B6EE0FCA3E0B5
:107BA000FDA3E0FEA3E0FF900B6A1246BE900B6EB1
:107BB000E0FCA3E0FDA3E0FEA3E0FF900B5C124617
:107BC000BE900B67E004F0028269900A97E0900B88
:107BD00068F0900A80E0900B69F0E0FC1243C2E488
:107BE000FBFA79C8784212431B900A421246BE90B3
:107BF0000A42E0F8A3E0F9A3E0FAA3E0FBC000C06A
:107C000001C002C003900B68E0FC1243C2D003D055
:107C100002D001D000124121900A421246BE900BC0
:107C20006AE0FCA3E0FDA3E0FEA3E0FFE41243B89A
:107C30007B007A247974784912431B900A3E1246DD
:107C4000BE900A42E0FCA3E0FDA3E0FEA3E0FF90AB
:107C50000A3EE0F8A3E0F9A3E0FAA3E0FB12421227
:107C6000E4FBFA798078C0124212900A3E1246BEB6
:107C7000900A3EE0FCA3E0FDA3E0FEA3E0FF124378
:107C8000F6900A4A1246BEE4FFFEFDFC900A4AE066
:107C9000F8A3E0F9A3E0FAA3E0FBC3124637505182
:107CA000E47B04FAF9F8900A4AE0FCA3E0FDA3E0C3
:107CB000FEA3E0FF124B8EAC00AD01AE02AF03E4B9
:107CC000FBFAF9F8C31246377002A15C900A4AE049
:107CD000FCA3E0FDA3E0FEA3E0FFE40BF8EF2BFF25
:107CE000EA3EFEE93DFDE83CFC900A4A1246BE80B1
:107CF000AFE4FFFEFDFC900A4AE0F8A3E0F9A3E040
:107D0000FAA3E0FBD31246374052E47B04FAF9F8B9
:107D1000900A4AE0FCA3E0FDA3E0FEA3E0FF124BC3
:107D20008EAC00AD01AE02AF03E4FBFAF9F8C3126A
:107D300046376028900A4AE0FCA3E0FDA3E0FEA3DA
:107D4000E0FF74FFEF24FFFFEE34FFFEED34FFFD94
:107D5000EC34FFFC900A4A1246BE80AE900B6AE0FB
:107D6000FCA3E0FDA3E0FEA3E0FFE47B04FAF9F846
:107D70001244FF900B6A1246BE900B6AE0F8A3E033
:107D8000F9A3E0FAA3E0FB900A4AE0FCA3E0FDA31C
:107D9000E0FEA3E0FFEB2FFFEA3EFEE93DFDE83CFD
:107DA000FC900B6A1246BEE4900B64F0900A4EF011
:107DB0007F06FEFDFC900B60E0F8A3E0F9A3E0FA7B
:107DC000A3E0FBC312464D5002C189E4FFFEFDFC57
:107DD000900B6AE0F8A3E0F9A3E0FAA3E0FBD3126A
:107DE000464D5002C189900B60E0F8A3E0F9A3E092
:107DF000FAA3E0FB7F007EE97DA47C3512458A90E2
:107E00000B6AE0F8A3E0F9A3E0FAA3E0FBD3124683
:107E10004D5076900B6AE0FCA3E0FDA3E0FEA3E0EA
:107E2000FF900B60E0F8A3E0F9A3E0FAA3E0FB12F7
:107E300044FF900B471246BE7F007E467DC37C23E5
:107E4000900B47E0F8A3E0F9A3E0FAA3E0FBC3122C
:107E5000464D4035900A3AE0F8A3E0F9A3E0FAA3D2
:107E6000E0FB900B47E0FCA3E0FDA3E0FEA3E0FFF6
:107E700012458A900B4FEFF0C3940F400CE0D3945F
:107E80005A5006900A4E7401F0900A4EE06021901C
:107E90000B60E0FCA3E0FDA3E0FEA3E0FF900B5825
:107EA0001246BE900B647401F0900AA1F002808D1E
:107EB000900B6AE0F8A3E0F9A3E0FAA3E0FB7F806F
:107EC0007E177DB47C2C12458A900B581246BEE476
:107ED0007F06FEFDFC900B58E0F8A3E0F9A3E0FA62
:107EE000A3E0FBC312464D500CE47F06FEFDFC9060
:107EF0000B581246BEE47F087E07FDFC900B58E04D
:107F0000F8A3E0F9A3E0FAA3E0FBD312464D400D3D
:107F1000E47F087E07FDFC900B581246BE900B587C
:107F2000E0FCA3E0FDA3E0FEA3E05401FFE4FEFDBE
:107F3000FCEF6026900B58E0FCA3E0FDA3E0FEA35D
:107F4000E0FF74FFEF24FFFFEE34FFFEED34FFFD92
:107F5000EC34FFFC900B581246BEE47F06FEFDFC9D
:107F6000900B58E0F8A3E0F9A3E0FAA3E0FBC312FA
:107F7000464D500CE47F06FEFDFC900B581246BEA9
:107F8000900B6AE0FCA3E0FDA3E0FEA3E0FF900BF2
:107F900058E0F8A3E0F9A3E0FAA3E0FB1244FF9055
:107FA0000B471246BE7F007EE97DA47C35900B47CF
:107FB000E0F8A3E0F9A3E0FAA3E0FBD312464D50AA
:107FC0001C7F007E467DC37C23900B47E0F8A3E036
:107FD000A3E0A3E0C312464D4003028084900B6AE5
:107FE000E0F8A3E0F9A3E0FAA3E0FB7F007EE97DDF
:107FF000A47C3512458A900B581246BE900B58E06F
:10800000FCA3E0FDA3E0FEA3E05401FFE4FEFDFCC1
:10801000EF6026900B58E0FCA3E0FDA3E0FEA3E098
:10802000FF74FFEF24FFFFEE34FFFEED34FFFDECA5
:1080300034FFFC900B581246BEE47F06FEFDFC9018
:108040000B58E0F8A3E0F9A3E0FAA3E0FBC3124663
:108050004D500CE47F06FEFDFC900B581246BE907E
:108060000B6AE0FCA3E0FDA3E0FEA3E0FF900B5849
:10807000E0F8A3E0F9A3E0FAA3E0FB1244FF900BC1
:10808000471246BEE4900B64F0900AA1F0900A3AC1
:10809000E0F8A3E0F9A3E0FAA3E0FB900B47E0FCD3
:1080A000A3E0FDA3E0FEA3E0FF12458A900B4FEF93
:1080B000F0900A3AE0F8A3E0F9A3E0FAA3E0FB901D
:1080C0000B47E0FCA3E0FDA3E0FEA3E0FF12458A1E
:1080D000AC00AD01AE02AF03900B4B1246BE900B4D
:1080E0004BE0FCA3E0FDA3E0FEA3E0FFE41243B8F5
:1080F000900A461246BE900A46E0FCA3E0FDA3E0CB
:10810000FEA3E0FF7BF07AFF797F7849124212905C
:108110000A461246BE900A46E0FCA3E0FDA3E0FE3C
:10812000A3E0FFC004C005C006C007900A3AE0FC07
:10813000A3E0FDA3E0FEA3E0FFE41243B8A804A976
:1081400005AA06AB07D007D006D005D00412431B02
:10815000900A461246BE900A46E0FCA3E0FDA3E06A
:10816000FEA3E0FF1243F6900B501246BE7FFF7E47
:10817000FF7D0F7C00900B541246BEE4900B66F01E
:10818000A3E004F04169900B64E07011A3E0700D6E
:108190007D807F10125AAB900B657401F0900B50EC
:1081A000E0FCA3E0FDA3E0FEA3E0FF900A5112462D
:1081B000BE900B54E0FCA3E0FDA3E0FEA3E0FF9023
:1081C0000A551246BE900B4FE0FD7F1A12773FEF23
:1081D00060024169900B67E004F04169900B64E034
:1081E0006008900B67E004F0807F900B58E0FCA3E0
:1081F000E0FDA3E0FEA3E0FF900A501246BEE4902B
:108200000A54F07F2A125AEEEF705E900B67E0047A
:10821000F08056900AA1E070157DA07FB1125AAB94
:10822000900AA17401F0900B667406F08005E4904A
:108230000B66F0900B58E0FCA3E0FDA3E0FEA3E08A
:10824000FF900B601246BE900B677405F0801A9089
:108250000B66E0600414F080107D4F7F10125AAB63
:10826000E4900B65F0900B67F0900B67E0FF2290B5
:108270000A331246BE900A377401F0E4FFFEFDFC9B
:10828000900A70E0F8A3E0F9A3E0FAA3E0FBC312C0
:10829000464D7017900A33E0FCA3E0FDA3E0FEA377
:1082A000E0FF900A701246BE7F0022900A70E0FC48
:1082B000A3E0FDA3E0FEA3E0FFFBAA06A905A80436
:1082C000900A33E0FCA3E0FDA3E0FEA3E0C39BFF24
:1082D000EE9AFEED99FDEC98FC124BF8900A3812DC
:1082E00046BE7F807E847D1E7C00900A38E0F8A325
:1082F000E0F9A3E0FAA3E0FBC312464D4007E49087
:108300000A37F08079E47BE87A03F9F8900A33E0E1
:10831000FCA3E0FDA3E0FEA3E0FF12458AE47B108E
:108320007A27F9F81244FFE47BE87A03F9F812455A
:108330008A900A3C1246BE900A3CE0A3E0A3E0FE0D
:10834000A3E0C394F4EE9401500DE47FF47E01FDAC
:10835000FC900A3C1246BE900A3CE0FCA3E0FDA360
:10836000E0FEA3E0FF900A38E0F8A3E0F9A3E0FA0A
:10837000A3E0FBD312464D4005E4900A37F0900A83
:1083800033E0FCA3E0FDA3E0FEA3E0FF900A70123F
:1083900046BE900A37E0FF22900A3CEFF0A3EDF0D2
:1083A0007B017A0A793E7F0371F4EF7046900A3DB3
:1083B000E0B4011BA3E0FF900A3CE0FE7401A806B4
:1083C000088002C333D8FCF45F900A3EF0801A9014
:1083D0000A3EE0FF900A3CE0FE7401A80608800215
:1083E000C333D8FC4F900A3EF0900A3EE0FD7F0375
:1083F000125AAB22900A40EFF0A3EBF0A3EAF0A3ED
:10840000E9F0E4A3F0A3F07B01A304F0A3740AF065
:10841000A37440F0917B900A45EFF064806056A30E
:10842000E0FBA3E0FAA3E0F9900A617401F0E4A391
:10843000F07F6091FF900A45EFF0917BEF30E1FA19
:10844000900A45E0702F900A41E0FBA3E0FAA3E018
:10845000F9900A4D7401F0E4A3F07F60F11C900ADA
:1084600045EFF0917BEF30E0FA900A45E06006902E
:108470000A447401F0900A44E0FF229044C97480D9
:10848000F0900CC0E0FF900CE9E054406004EF4431
:1084900004FF9044C17480F022E4900A30F0A3F00D
:1084A000A3F0A3F0900A30EFF0E4900A34F0900AC1
:1084B00034E0C3940850427B017A0A7930900A6113
:1084C0007401F0E4A3F07F4091FF900A32EFF09145
:1084D0007BEF30E1FA125FF1900A33EFF0B401085C
:1084E000900A317401F08011E47F05FEFDFC125802
:1084F000E8900A34E004F080B5900A31E0FF229061
:108500000A5EEBF0A3EAF0A3E9F0AC077D02900A63
:108510005EE0FBA3E0FAA3E04A4B7002A1AB900C33
:10852000E9E0B4100F9049D9E054087003FD801AB7
:108530007D018016900CE9E0B4600FE4FD9044D911
:108540007480F0900CC0E054F7F0ED705E900CE990
:108550007445F0E4900CBCF0900A61E0900CBFF020
:10856000900A5EE0F9A3E0FAA3E0900CB8C9F0A38A
:10857000EAF0A3E9F0900A62E0FF900CBDF0900CE5
:10858000C0E054FDF0AE04EE25E09049D8F0EF5481
:1085900001600CA37412F09049D77404F080069027
:1085A00049D97401F09044C17480F0AF0522900A5B
:1085B0003DEDF0900A3CEFF0E4900A3FF0EFC394F9
:1085C000004011900A3CE0D394035008900A3F7495
:1085D00018F08016900A3CE0FFC39400400CEFD3E3
:1085E00094035006900A3F7419F0900A3FE0FF7B15
:1085F000017A0A793E71F4900A3CE0FFC39400408E
:108600003AEFD394035034900A3EE0FF900A3CE0E6
:1086100025E0FE7403A806088002C333D8FCF45F8B
:10862000900A3EF0E0FF900A3DE0FDA806088002B7
:10863000C333D8FC4F900A3EF08044900A3CE0FFE0
:10864000C39400403AEFD394035034900A3EE0FFC5
:10865000900A3CE024FC25E0FE7403A80608800292
:10866000C333D8FCF45F900A3EF0E0FF900A3DE08F
:10867000FDA806088002C333D8FC4F900A3EF09054
:108680000A3FE0FF900A3EE0FD025AAB900A3DED42
:10869000F0900A3CEFF0900A3F7403F0EF2410FFD3
:1086A0007B017A0A793E71F4EF7070900A3DE01414
:1086B000601D14602F14604124037050900A3EE046
:1086C000FFA3E0F4FEEF5E900A3EF0E0F0803D9004
:1086D0000A3EE0FFA3E0F4FEEF5E900A3EF0E044C5
:1086E00001F08028900A3EE0FFA3E0F4FEEF5E90E8
:1086F0000A3EF0E04402F08013900A3EE0FFA3E05F
:10870000F4FEEF5E900A3EF0E04403F0900A3CE095
:108710002410FF900A3EE0FD125AAB22900A4AEB69
:10872000F0A3EAF0A3E9F0AC077D02900A4AE0FB6F
:10873000A3E0FAA3E04A4B7002E1CA900CE9E0B46E
:10874000100F9049D9E054087003FD801A7D018014
:1087500016900CE9E0B4600FE4FD9044D97480F009
:10876000900CC0E054F7F0ED7060900CE97449F0A3
:10877000E4900CBBF0900A4DE0900CBEF0900A4AD9
:10878000E0F9A3E0FAA3E0900CC1C9F0A3EAF0A3DA
:10879000E9F0900A4EE0FF900CBDF0900CC0E05460
:1087A000FEF0AE04EE25E044019049D8F0EF54010C
:1087B000600CA37412F09049D77404F080069049BD
:1087C000D97401F09044C17480F0AF0522E4900A9E
:1087D00036F0A3F0128D55E47F64FEFDFC1258E8DC
:1087E0007B007A808B828A83E0900A97F08B828A62
:1087F00083A3E0900A80F08B828A83A3A3A3E090F6
:108800000A36F0EB2404F582E43AF583E0900A3767
:10881000F0900A36E0B40112900A97E0FF3395E039
:10882000FE7CFF7DFF1244A2EFF0900A37E0B40116
:1088300012900A80E0FF3395E0FE7CFF7DFF12443A
:10884000A2EFF0AE02AF038F828E83A3A3E0900C61
:10885000E4F0E4F022E4900A34F0900A37F0A3F058
:10886000900A357480F0A3E4F03124900A34EFF0DC
:10887000E064077002211C900A377405F0900A37F3
:10888000E0FFC394105014748D2FF582E4340CF57E
:1088900083E4F0900A37E004F080E2900A97E0C3A6
:1088A00064809480501AE0FF3395E0FE7CFF7DFFEA
:1088B0001244A2900C8DEFF0900C907401F0800D9A
:1088C000900A97E0900C8DF0E4900C90F0900A8064
:1088D000E0C364809480501AE0FF3395E0FE7CFF93
:1088E0007DFF1244A2900C8EEFF0900C917401F079
:1088F000800D900A80E0900C8EF0E4900C91F09046
:108900000CE4E0900C8FF07B017A0C798DE4FD3162
:108910005DE49009FFF09009A67402F0900A34E03B
:10892000FF7E0022510E904722E054026023E05463
:10893000026009E0FF1313543FFF80027FFFEF70D6
:1089400006900A39F08006900A3974FFF0514D8084
:1089500006900A397407F0900A39E0FF22900A392C
:10896000EBF0A3EAF0A3E9F0A3EDF0510E900A3C7E
:10897000E0C394804002410251A4EF707D900A3D13
:1089800074FFF0900A39E0FBA3E0FAA3E0F9900A43
:1089900042E4F0A37410F07F40D172EF6407706876
:1089A000904722E0540260F8904722E054026009A8
:1089B000E0FF1313543FFF80027FFFEF7004900A23
:1089C0003DF0900A3DE0702A900A3CE0FD7C00906A
:1089D0000CD9E0FBA3E0900A42F07F40B1BEEFB4B7
:1089E0000708900A3D7407F0801E900A3D74FFF05E
:1089F0008016900A3D74FFF0800E900A3D7404F0DA
:108A00008006900A3D7401F0900A3DE0FF22124C6E
:108A1000CE9043A0E04408F09043B0E04408F00258
:108A20004CB6900A3074FFF0510E51A4EF70127FD3
:108A300001715CEFB40706900A307407F0514D8065
:108A400006900A307404F0900A30E0FF22124CCEF7
:108A5000E4900CF9F0024CB6510E51A4EF7039B10C
:108A600057900A39EFF06407702A904722E05402C9
:108A700070087F01FE124C7080F0904722E0540293
:108A80006009E0FF1313543FFF80027FFFEF700483
:108A9000900A39F0514D8006900A397404F0900A1A
:108AA00039E0FF22900A3E7404F0124CCE900CF98B
:108AB000E0700704F0E4900A3EF0124CB6900A3ED3
:108AC000E0FF22510E900A3974FFF051A4EF703884
:108AD0007F01715CEF6407702B7B017A0C79D97D83
:108AE00002D112EFB40215E4900A39F0904722E067
:108AF000540270107F01FE124C7080F0904722E00B
:108B0000540260D5514D8006900A397404F0900AE1
:108B100039E0FF225158900A38EFF0700751C390A6
:108B20000A38EFF0900A38E0FF227114124CCE9010
:108B300043A0E04408F09043B0E04408F0904701BF
:108B400074C8F09043ACE04410F09043BCE0441093
:108B5000F0904700E0542060F8024CB67E07904742
:108B600022E05402601F90472074B6F074E1F07464
:108B70000EF0904722E054027007904720EFF080FB
:108B8000067E0980027E04AF0622900A30EBF0A335
:108B9000EAF0A3E9F0904722E054026002812FE05E
:108BA000FF1313543F60028127E05401602C90476B
:108BB00020E0900A33F0904722E054016003D38014
:108BC00001C340097F017E00124C7080E99047206C
:108BD000E0900A34F0E4A3F08006900A357407F0C0
:108BE000900A35E0704F900A33E0B40116A3E0FF1D
:108BF000900A30E0FBA3E0FAA3E0F9E48FF012441E
:108C0000E0801D900A34E0FFC3E49FFFE49400F984
:108C1000900A30E0FBA3E0FAA3E0C98FF01244E031
:108C2000E4900A35F0800E900A357407F0800690C3
:108C30000A357410F0900A35E064076002514D90D7
:108C40000A35E0FF22E4900A2FF0FFFEFDFC900CB5
:108C50007CE0F8A3E0F9A3E0FAA3E0FBC312464DE1
:108C60006002A12E900C78E07002A3E06002A11FC8
:108C7000900C77E014604114700281FC24026002C1
:108C8000A1545122900A2FEFF024FC601724F460C5
:108C90000D24096002A154900C77E004F022E490C6
:108CA0000C77F0227B017A0C797A718A900A2FEF87
:108CB000F0E4900C77F022227B017A0C797A718AA9
:108CC000900A2FEFF024F9602524F7602824106023
:108CD00002A154900C7AE0FEA3E0FFEE3395E0FD94
:108CE000FC900C851246BE900C77E004F022900CAC
:108CF000777401F022E4900C77F02222900C85E04A
:108D0000FCA3E0FDA3E0FEA3E0FFA31246BE900C8F
:108D1000787427F0A37410F0E4900C77F02222907E
:108D20000C79E024FFF0900C78E034FFF022900CF6
:108D30007CE0FCA3E0FDA3E0FEA3E0FF74FFEF24D2
:108D4000FFFFEE34FFFEED34FFFDEC34FFFC900C32
:108D50007C1246BE22612A7F07904722E0540260BF
:108D60000E90472074B6F074E0F0740DF080027F2E
:108D70000422E4900A31F0A3F0A3F0900A2F74804B
:108D8000F0A3E4F0900A97E0900A32F0900A80E0B5
:108D9000900A33F09009FFE0B40322900ABEE090FD
:108DA0000A32F0900AA2E0900A33F0900A32E09082
:108DB0000A97F0900A33E0900A80F0115522900A49
:108DC0003FECF0A3EDF0AC077D07904722E05402A2
:108DD000603B90472074B6F074D8F07405F090476B
:108DE00022E054027023904720ECF0900A3FE0907C
:108DF0004720F0900A3FE0A3E0904720F0EBF0908E
:108E00000A42E0904720F080067D0980027D04AF91
:108E10000522900A3AEBF0A3EAF0A3E9F0A3EDF003
:108E2000E4A3F0900A3DE0FFA3E0C39F503E9047CB
:108E300022E054016003D38001C340097F017E001A
:108E4000124C7080E9904720E0FF900A3AE0FBA3C3
:108E5000E0FAA3E0F9900A3EE0FEE92EF9E43AFADE
:108E6000EF124490900A3EE004F080B7900A3EE092
:108E7000FF22900A3FEBF0A3EAF0A3E9F0900A4446
:108E80007407F0904722E05402604E90472074B679
:108E9000F074D5F07402F0904722E05402703290E2
:108EA0004720EFF0E4FFFED3900A43E09F900A4290
:108EB000E09E402B900A3FE0FBA3E0FAA3E02FF9ED
:108EC000EA3EFA124477904720F00FEF70010E80CF
:108ED000D6900A447409F08006900A447404F09015
:108EE0000A44E0FF22900A99E0FCA3E0FDA3E0FE23
:108EF000A3E0FF900CDBE0F8A3E0F9A3E0FAA3E025
:108F0000FBC312464D7003029186900A99E0FCA3C0
:108F1000E0FDA3E0FEA3E0FF900CDB1246BE7FC0A5
:108F20007E3B7D477C03900CDBE0F8A3E0F9A3E0F7
:108F3000FAA3E0FBD312464D4009900CC4740CF028
:108F40000290D97FC07E057DD97C01900CDBE0F8D2
:108F5000A3E0F9A3E0FAA3E0FBD312464D40099049
:108F60000CC4740BF00290D97F807EBA7D8C7C019A
:108F7000900CDBE0F8A3E0F9A3E0FAA3E0FBD31246
:108F8000464D4009900CC4740AF00290D97F807E4F
:108F9000B17D4F7C01900CDBE0F8A3E0F9A3E0FA8F
:108FA000A3E0FBD312464D4009900CC47409F002B3
:108FB00090D97FC07EEA7D217C01900CDBE0F8A394
:108FC000E0F9A3E0FAA3E0FBD312464D4009900C70
:108FD000C47408F00290D97F007E247DF47C009058
:108FE0000CDBE0F8A3E0F9A3E0FAA3E0FBD3124620
:108FF0004D4009900CC47407F00290D97F007E1B8D
:109000007DB77C00900CDBE0F8A3E0F9A3E0FAA3C5
:10901000E0FBD312464D4008900CC47406F001D911
:109020007F407E547D897C00900CDBE0F8A3E0F962
:10903000A3E0FAA3E0FBD312464D4008900CC474A1
:1090400005F001D97F807E8D7D5B7C00900CDBE09C
:10905000F8A3E0F9A3E0FAA3E0FBD312464D4008E1
:10906000900CC47404F080717F407E4B7D4C7C007A
:10907000900CDBE0F8A3E0F9A3E0FAA3E0FBD31245
:10908000464D4008900CC47403F0804D7FC07EC6EE
:109090007D2D7C00900CDBE0F8A3E0F9A3E0FAA3BF
:1090A000E0FBD312464D4008900CC47402F08029B6
:1090B0007F607EE37D167C00900CDBE0F8A3E0F996
:1090C000A3E0FAA3E0FBD312464D4008900CC47411
:1090D00001F08005E4900CC4F07F807E1A7D067C50
:1090E00000900CDBE0F8A3E0F9A3E0FAA3E0FBD3E7
:1090F00012464D40077F02125F5D80057F01125FBF
:109100005D900CE77401F07FC07ED4FD7C00900C74
:10911000DBE0F8A3E0F9A3E0FAA3E0FBC312464DBD
:1091200040247FE07E227D027C00900CDBE0F8A3EF
:10913000E0A3E0A3E0D312464D500BE49009F8F011
:10914000900CE7F080407F807E1A7D067C00900CBA
:10915000DBE0F8A3E0F9A3E0FAA3E0FBC312464D7D
:1091600040247F207EA17D077C00900CDBE0F8A3EB
:10917000E0A3E0A3E0D312464D500B9009F8740130
:10918000F0E4900CE7F07F002290FFFC1246FC1206
:1091900046BE90FFF61246FC7B0190000612472067
:1091A000A982AA83850883850982EBF0A3EAF0A34C
:1091B000E9F07B0190000A124720A982AA8390005F
:1091C00003124720EBF0A3EAF0A3E9F090000312AA
:1091D0004720E0FBA3E0FAA3E02403F9E43AFA1203
:1091E0004477FF850883850982E0FBA3E0FAA3E0CA
:1091F000F9EF124490900003124720E0FBA3E0FA3D
:10920000A3E02402F9E43AFA124477FF8508838543
:109210000982E0FBA3E0FAA3E02401F9E43AFAEFC3
:10922000124490900003124720E0FBA3E0FAA3E071
:109230002401F9E43AFA124477FF8508838509820C
:10924000E0FBA3E0FAA3E02402F9E43AFAEF1244C7
:1092500090900003124720E0FBA3E0FAA3E0F9128C
:109260004477FF850883850982E0FBA3E0FAA3E049
:109270002403F9E43AFAEF124490900006124720D2
:10928000E0FCA3E0FDA3E0FEA3E0FF90000E024699
:10929000FCE4FF900CE8E060037410FF90099CE090
:1092A000FE30E004EF4420FFEE30E104EF4402FF23
:1092B00022E4900A0DF0906000E0900A0EF09060B9
:1092C00001E0900A0FF0900A0EE054806480600282
:1092D000A1E4A3E01246D6930B00933702950D0646
:1092E000945220952E3393753A939A3C93CC3D93A8
:1092F000F63F941750942B51955694959E959492C1
:10930000A494B2A594D6BF000095E4900C4A74973B
:10931000F0A37402F07B0190091814F0A3740CF010
:10932000A3744AF0900916E4F0A37402F0129C189A
:10933000900A0DEFF0A1E45191900C4AEFF0E0FC9F
:10934000A3E0FDA3E0FEA3E0FFEEEDEC4408FC90FB
:109350000C4A1246BE9009187401F0A3740CF0A3D5
:10936000744AF0900916E4F0A304F0129C18900AD5
:109370000DEFF0A1E47A0A79AE9009187401F0A318
:10938000740AF0A374AEF0900916E4F0A37404F02C
:10939000129C18900A0DEFF0A1E47F707E3D7D0ACB
:1093A0007C071267F0900C4A1246BE9009187401AF
:1093B000F0A3740CF0A3744AF0900916E4F0A374BF
:1093C00004F0129C18900A0DEFF0A1E47A0A79B229
:1093D0009009187401F0A3740AF0A374B2F0900914
:1093E00016E4F0A37404F0129C18900A0DEFF0E458
:1093F000900C52F0A1E49009187401F0A3740AF0E3
:10940000A374B8F0900916E4F0A37406F0129C1847
:10941000900A0DEFF0A1E4906002E030E008900CBB
:10942000E87401F08005E4900CE8F05191900C4A4A
:10943000EFF09009187401F0A3740CF0A3744AF0D3
:10944000900916E4F0A304F0129C18900A0DEFF0B6
:10945000A1E4906003E064876002A1E47B027A608B
:109460007904124D0AEF64014E6002A1E4900C4AA7
:10947000F07B0190091804F0A3740CF0A3744AF077
:10948000900916E4F0A304F0129C18900A0DEFF076
:10949000A1E49009187401F0A37409F0A3749CF07E
:1094A000900916E4F0A304F0129C18900A0DEFF056
:1094B000A1E47A0979A29009187401F0A37409F063
:1094C000A374A2F0900916E4F0A304F0129C189083
:1094D0000A0DEFF0A1E4900C89E0FCA3E0FDA3E00D
:1094E000FEA3E0FF3189900C581246BE9009187413
:1094F00001F0A3740CF0A37458F0900916E4F0A3E3
:109500007404F0129C18900A0DEFF0A1E490091871
:109510007401F0A3740AF0A37410F0900916E4F03B
:10952000A37404F0129C18900A0DEFF0A1E4900AC5
:1095300097E0900C45F09009187401F0A3740CF0BA
:10954000A37445F0900916E4F0A304F0129C18905F
:109550000A0DEFF0A1E4900A97E0FF3395E0FEFDDD
:10956000FC900C461246BE900C46E0FCA3E0FDA326
:10957000E0FEA3E0FF3189900C541246BE9009181A
:109580007401F0A3740CF0A37454F0900916E4F085
:10959000A37402F0129C18900A0DEFF08046900A16
:1095A00080E0FF3395E0FEFDFC900C461246BE9035
:1095B0000C46E0FCA3E0FDA3E0FEA3E0FF318990B0
:1095C0000C541246BE9009187401F0A3740CF0A359
:1095D0007454F0900916E4F0A37402F0129C1890F1
:1095E0000A0DEFF0900A0EE054806003029995A3F3
:1095F000E01246D699710E994B0F96403096623222
:1096000096883397023596C53A97AB70982F719725
:10961000CC72984E73986D75988C7698AB7797ED61
:109620007A98CA7B99087D98E97F980C9099279C35
:109630009727A09748A99769F3978AF7000099950B
:109640009009187401F0A3740AF0A3748DF09009C6
:1096500016E4F0A37406F012999B900A0DEFF00245
:1096600099957A0A79AE9009187401F0A3740AF0FA
:10967000A374AEF0900916E4F0A37404F012999B61
:10968000900A0DEFF00299957A0A79BE9009187444
:1096900001F0A3740AF0A374BEF0900916E4F0A3DD
:1096A00004F012999B900A0DEFF0900ABEE0FF3390
:1096B00095E0FEFDFC900C411246BE9009FFE0448F
:1096C00001F00299957A0A79A29009187401F0A321
:1096D000740AF0A374A2F0900916E4F0A304F01247
:1096E000999B900A0DEFF0900AA2E0FF3395E0FEFF
:1096F000FDFC900C3D1246BE9009FFE04402F002D2
:1097000099957A0A79C79009187401F0A3740AF040
:10971000A374C7F0900916E4F0A304F012999B908B
:109720000A0DEFF00299959009187401F0A3740CDA
:10973000F0A37452F0900916E4F0A304F012999B80
:10974000900A0DEFF00299959009187401F0A37436
:109750000AF0A37402F0900916E4F0A304F0129941
:109760009B900A0DEFF00299959009187401F0A3EF
:109770007409F0A374FBF0900916E4F0A304F0124E
:10978000999B900A0DEFF00299959009187401F0D9
:10979000A37409F0A374F9F0900916E4F0A304F09F
:1097A00012999B900A0DEFF0029995900918740197
:1097B000F0A3740AF0A37403F0900916E4F0A30474
:1097C000F012999B900A0DEFF00299959009187488
:1097D00001F0A37409F0A3749FF0900916E4F0A3BC
:1097E00004F012999B900A0DEFF0029995900918D8
:1097F0007401F0A37409F0A374A7F0900916E4F0C3
:10980000A304F0319B900A0DEFF021957A0A79D0EC
:109810009009187401F0A3740AF0A374D0F09009B1
:1098200016E4F0A304F0319B900A0DEFF02195901F
:1098300009187401F0A37409F0A374FEF0900916DE
:10984000E4F0A304F0319B900A0DEFF0219590090C
:10985000187401F0A37409F0A3749EF0900916E443
:10986000F0A304F0319B900A0DEFF02195900918B8
:109870007401F0A37409F0A3749DF0900916E4F04C
:10988000A304F0319B900A0DEFF021959009187414
:1098900001F0A37409F0A374FAF0900916E4F0A3A0
:1098A00004F0319B900A0DEFF02195900918740196
:1098B000F0A37409F0A374A5F0900916E4F0A304D2
:1098C000F0319B900A0DEFF021959009187401F08A
:1098D000A3740AF0A37409F0900916E4F0A304F04D
:1098E000319B900A0DEFF021959009187401F0A3B7
:1098F000740AF0A37401F0900916E4F0A304F031A7
:109900009B900A0DEFF021959009187401F0A37453
:109910000AF0A37408F0900916E4F0A304F0319B58
:10992000900A0DEFF0806E7A0979A0900918740101
:10993000F0A37409F0A374A0F0900916E4F0A374E6
:1099400002F0319B900A0DEFF0804A9009187401E3
:10995000F0A3740CF0A3744EF0900916E4F0A37415
:1099600004F0319B900A0DEFF09009A37401F08090
:10997000249009187401F0A3740CF0A3744EF090B5
:109980000916E4F0A37404F0319B900A0DEFF090F7
:1099900009A37402F0900A0DE0FF2290092D7404CF
:1099A000F090092C7480F09157906007E0FE906071
:1099B00006E0FDEEEDFFD3900917E09F900916E059
:1099C0009E4005EEF0A3EFF0900931740BF07F019B
:1099D00022E4900A17F0906000E0FE5403900A1809
:1099E000F0906003E0900A19F0906004E0547F90DA
:1099F0000A1AF0EE54807002615F900A18E0640267
:109A00007043906001E0247F60028112900A19E0A7
:109A1000640160028112900916F0A37403F0900AA9
:109A20001AE075F003A424F7F9740B35F0FA9009E5
:109A3000187401F0A3EAF0A3E9F09118900A17EF67
:109A4000F081128112900A18E06401600281129084
:109A50006001E0247E606C14700241F114700261B8
:109A60001F24857002614D247E60028112900A19C4
:109A7000E0B40121900916E4F0A304F07A0B79F622
:109A8000900918F0A3740BF0A374F6F09118900AE3
:109A900017EFF08112900A19E064026002811290BF
:109AA0000916F0A37402F07B017A0C79189009185A
:109AB00014F0A3740CF0A37418F09118900A17EF27
:109AC000F08112900A19E064026002811290091676
:109AD000F0A37402F07B017A0C791490091814F049
:109AE000A3740CF0A37414F09118900A17EFF0818E
:109AF00012900A19E0640260028112900916F0A324
:109B00007402F07B017A0C791690091814F0A37492
:109B10000CF0A37416F09118900A17EFF0811290D0
:109B20000A19E0640260028112900916F0A374021F
:109B3000F07B017A0C791290091814F0A3740CF0E0
:109B4000A37412F09118900A17EFF08112E49009B3
:109B500016F0A3F0319B900A17EFF081128112905A
:109B60000A18E06402704A906001E01460028112F9
:109B7000900A19E0640160028112900916F0A37442
:109B800003F0900A1AE075F003A424F7F9740B357A
:109B9000F0FA9009187401F0A3EAF0A3E9F0900A32
:109BA0001AE0900C1AF0319B900A17EFF080638056
:109BB00061900A18E064017059906001E0147052DD
:109BC000900A19E0B40121900916E4F0A304F07A98
:109BD0000B79F6900918F0A3740BF0A374F6F0312A
