:10410000024A6E008F828E83E0540100000070F836
:104110002278FFE4F6D8FD024AFC024462E864809B
:10412000F8E933E83360110460F0ED33EC337009E3
:10413000E8FCE9FDEAFEEBFF220460DED3EB9FEA38
:104140009EE99DE8C2E78CF0C2F795F0400CE8CC00
:10415000F8E9CDF9EACEFAEBCFFB12442D85D0F089
:104160005804700320D5B3E80470075002B2D5029A
:10417000446C92D5EC0460F7E4CCC0E0C398F860DE
:104180003B94186008400DD0E0FB024444E4FBFA85
:10419000C9FC8028E830E406E4C9FBE4CAFCE83046
:1041A000E305E4C9CACBFCE854076010F8C3E9137F
:1041B000F9EA13FAEB13FBEC13FCD8F130F52FC33B
:1041C000E49CFCEF9BFFEE9AFEED99FDD0E0FBEF47
:1041D0004E4D4C701222DB03024469EC2CFCEF3391
:1041E000FFEE33FEED33FDED30E7EB024444EF2B01
:1041F000FFEE3AFEED39FDD0E0FB50130BBB0003A0
:1042000002446CED13FDEE13FEEF13FFEC13FC0202
:104210004444EC4D6011E8497017ED33EC33046011
:104220000DE4FCFFFEFD22E933E8330470F802449C
:104230006212442D58046009E4CC248150062850B1
:104240000902446C284003024469C0E0EB4A704410
:10425000B98006D0E0FB024458EF4E701CBD8008C8
:10426000EBFFEAFEE9FD80EBE98DF0A4FEE5F0024C
:1042700042FBE9CDF9EAFEEBFFEF89F0A4FCE5F0A3
:10428000CE89F0A42EFFE435F0CD89F0A42DFEE414
:1042900035F08067EF4E7005BD80D780C3EF8BF09F
:1042A000A4ACF0EE8BF0A42CFCE435F0F8EF8AF02F
:1042B000A42CE5F038FCE433CB8DF0A42CFCE5F025
:1042C0003BF8EE8AF0A42CFCE5F038F8E433CF8913
:1042D000F0A42CFCE5F038CF3400CE89F0A42FFFF9
:1042E000E5F03EFEE433C98DF0A42EFEE5F039CDB5
:1042F0008AF0A42FFFE5F03EFEE43DFD33D0E0FB65
:1043000050070BBB000F02446CEC2CFCEF33FFEEAC
:1043100033FEED33FD02444402446CEC5D04600561
:10432000E85904700302446212442D580460F6EC0C
:104330004860F2EC7004FDFEFF22C860DB2481C8F7
:104340005009C398600250060244699850CAF58229
:10435000E9294B4A7005AB8202445875F0007C1A7B
:104360007880C3EF9BEE9AED99400DC3EF9BFFEE73
:104370009AFEED99FDE842F0DC23ACF0D0E0FFD0EE
:10438000E0FED0E0FDAB8220E7101BEB60BAEC2C26
:10439000FCEF33FFEE33FEED33FD024444E803F857
:1043A00030E705C0F075F000EF2FFFEE33FEED3380
:1043B000FD40B830E7C280AA75F020800E75F0107D
:1043C000800575F0087D007E007F003392D530D5E2
:1043D00003124629EC334010EF33FFEE33FEED338A
:1043E000FDEC33FCD5F0ED22E5F0247EA2D513CC14
:1043F00092E7CDCEFF22EDD2E7CD33EC3392D52438
:10440000814006E4FFFEFDFC22FCE4CFCECDCC24AF
:10441000E0501174FF80EDC3CC13CCCD13CDCE137F
:10442000CECF13CF0470F030D5DE024629E9D2E7B3
:10443000C933E833F892D5EDD2E7CD33EC33FC50F5
:1044400002B2D522EC30E7100FBF000C0EBE000800
:104450000DBD00040BEB6014A2D5EB13FCED92E74D
:10446000FD2274FFFCFDFEFF22E480F8A2D574FF5C
:1044700013FC7D80E480EFBB010689828A83E02201
:104480005002E722BBFE02E32289828A83E4932260
:10449000BB010689828A83F0225002F722BBFE010B
:1044A000F322EF8DF0A4A8F0CF8CF0A428CE8DF0ED
:1044B000A42EFE22C5F0F8A3E028F0C5F0F8E582AE
:1044C000158270021583E038F022A3F8E0C5F025CC
:1044D000F0F0E582158270021583E0C838F0E8221A
:1044E000BB010A89828A83F0E5F0A3F0225006F727
:1044F00009A7F01922BBFE06F3E5F009F31922E83B
:104500008FF0A4CC8BF0A42CFCE98EF0A42CFC8AB8
:10451000F0EDA42CFCEA8EF0A4CDA8F08BF0A42D35
:10452000CC3825F0FDE98FF0A42CCD35F0FCEB8ED6
:10453000F0A4FEA9F0EB8FF0A4CFC5F02ECD39FE8C
:10454000E43CFCEAA42DCE35F0FDE43CFC2275F001
:1045500008758200EF2FFFEE33FECD33CDCC33CC88
:10456000C58233C5829BED9AEC99E58298400CF5A3
:1045700082EE9BFEED9AFDEC99FC0FD5F0D6E4CED1
:10458000FBE4CDFAE4CCF9A88222B800C1B9005905
:10459000BA002DEC8BF084CFCECDFCE5F0CBF978D2
:1045A00018EF2FFFEE33FEED33FDEC33FCEB33FB66
:1045B00010D703994004EB99FB0FD8E5E4F9FA22F0
:1045C0007818EF2FFFEE33FEED33FDEC33FCC933EB
:1045D000C910D7059BE99A4007EC9BFCE99AF90FB3
:1045E000D8E0E4C9FAE4CCFB2275F010EF2FFFEE1F
:1045F00033FEED33FDCC33CCC833C810D7079BEC6A
:104600009AE899400AED9BFDEC9AFCE899F80FD5E1
:10461000F0DAE4CDFBE4CCFAE4C8F922CFF4CFCE53
:10462000F4CECDF4CDCCF4CC22C3E49FFFE49EFEC7
:10463000E49DFDE49CFC22EB9FF5F0EA9E42F0E94C
:104640009D42F0EC6480C864809845F022EB9FF5B1
:10465000F0EA9E42F0E99D42F0E89C45F022E860D5
:104660000FECC313FCED13FDEE13FEEF13FFD8F1B7
:1046700022E8600FEFC333FFEE33FEED33FDEC3382
:10468000FCD8F122BB010789828A83024766500564
:10469000E9F802475ABBFE05E9F802477289828AA7
:1046A0008302477EBB010789828A830246BE50058A
:1046B000E9F802478EBBFE05E9F802479A22ECF0C2
:1046C000A3EDF0A3EEF0A3EFF022A42582F582E59E
:1046D000F03583F58322D083D082F8E4937012748E
:1046E0000193700DA3A393F8740193F5828883E47A
:1046F000737402936860EFA3A3A380DFE5092582AA
:10470000F582E5083583F583B50804858209221012
:10471000AF06858209F50822858209F508D2AF2205
:10472000E5092582F582E5083583F58322EC8EF0D4
:10473000A4CCC5F0CCCDF8EFA4CEC5F02DFDE43C63
:10474000FCE8A42EC8C5F03DFDE43CFCEFA4FFE569
:10475000F028FEE43DFDE43CFC22E6FC08E6FD0812
:10476000E6FE08E6FF22E0FCA3E0FDA3E0FEA3E0F6
:10477000FF22E2FC08E2FD08E2FE08E2FF22E493E9
:10478000FC740193FD740293FE740393FF22ECF614
:1047900008EDF608EEF608EFF622ECF208EDF20866
:1047A000EEF208EFF222410A03554109A73241090E
:1047B0009C0041099B004109FE01410A091241097F
:1047C0009D004109FA004109A532410A0100410951
:1047D0009E00410A08014209A000004109A40041CD
:1047E00009FD004109FC00440A0400000000410AE0
:1047F00002004109FB024109FF004109A600410AEC
:1048000000004109F90041099F004109A200410946
:10481000A30041099800410CE000410CDF00410C6D
:10482000E400410CE300410CE20060390BBD480795
:1048300007070778B5B60755CE865695FD7D3D1D11
:104840000D0585C5E5F5E007078D0730684284A4AE
:10485000830124C3040274A344C282E364D44303E7
:104860008123146394B4C4440CC200001388410C27
:10487000B300420CA83DF4420CAA0000410CAC006D
:10488000420CAD0BB8420CAF0000420CB10000442A
:104890000B6A00000000440B6E00000000410B3961
:1048A00000410B4600440B5C00000000440B60001C
:1048B000000000410B6400410B6500410B660041A4
:1048C0000B6700440AAE713D0A07440ABF713D0AF6
:1048D00007410A9800440A9D00000000410ABE00FA
:1048E000410AA1C4440A9900000000440AC3017DA2
:1048F0007840410A9700410A8000420AA3002A42F8
:104900000A7E002A440AC800000000410AD0004183
:104910000AC700420A810000440A700000000041FA
:104920000A7400440A7500000000440A790000007F
:1049300000410A7D00440C5000000000440C460079
:10494000000000410C4E00410C4F00440C5400008C
:104950000000440C3D00000000440C410000000039
:10496000410C450041090300440C81000000004453
:104970000C7D00000000410C7C00440C8500000010
:1049800000410C7300420C742710440C78000D4A4F
:1049900058410C7032410C6E00410C7100410C6F9B
:1049A00000410C6915440C6A00000000410C7200C3
:1049B000410C5800410C5900410C5A00410C5B005D
:1049C000410C5C00410C5D00410C5E00410C5F003D
:1049D000410C6200410C6300410C6400440C650012
:1049E000000000410B1000410B2C0C490AD10000C3
:1049F00004040000000000410CE600410CEB004103
:104A00000CECFF410CEDFF410CEEFF410CEFFF41C0
:104A10000CF0FF410CF1FF410CCB80410CCA7F44EC
:104A20000CC6000000FF440C9F023366C4440C9A7D
:104A30000000903C410C9E25440CA4481E000041FF
:104A40000CF200460CCC008102370300410CF3FF4E
:104A5000410CF4FF430CD2000000410CF500420C65
:104A6000140180420C16FF7F420C12010000759366
:104A70000078007583467582E8E04401F0009048B4
:104A80000074C0F07581099076BCE4F0A3F0A3F047
:104A9000A3F0907010F0907019F0907020F0907664
:104AA000007410F0907604E4F0A3F0A3F0A3F0906B
:104AB00078007800087400F0A37408F0E8B80402E5
:104AC00074FFA3F0A37422F0A374BCF0A37476F077
:104AD000A3E4F0A3E81475F008A4F0A3B804D590FB
:104AE00070107401F0907014F07E707F1812410401
:104AF000907010F0EA900CA3F002411175081F7538
:104B000009FD12C42912A81912C3BC024B49025D47
:104B10001BE493A3F8E493A34003F68001F208DFBB
:104B2000F48029E493A3F85407240CC8C333C45475
:104B30000F4420C8834004F456800146F6DFE48029
:104B40000B01020408102040809047A6E47E0193E8
:104B500060BCA3FF543F30E509541FFEE493A360FB
:104B6000010ECF54C025E060A840B8E493A3FAE456
:104B700093A3F8E493A3C8C582C8CAC583CAF0A3A7
:104B8000C8C582C8CAC583CADFE9DEE780BEC2D510
:104B9000E830E70FB2D5E4C39BFBE49AFAE499F955
:104BA000E498F8EC30E717B2D5124BC412458AE40A
:104BB000C39BFBE49AFAE499F9E498F88003124560
:104BC0008A30D50DE4C39FFFE49EFEE49DFDE49C86
:104BD000FC22758600EF4E601BEF60010E8C838D0A
:104BE000828B958A858984E493A30586F0A3158634
:104BF000DFF5DEF3E4F59522EC30E70312462922D7
:104C0000EC4D4E700D78FCEF24E950032840FD2256
:104C100000007BF178DA0000EF28FF78FFEE38FE25
:104C2000ED38FDEC38FC50E7EF2BFFEE38FEED38A9
:104C3000FDEC38FC40F22205020304758600EF4EBD
:104C40006027EF60010E759300900A2AE0F595A3A6
:104C5000E0F585A3E0F5848B938A838982E0A30540
:104C600086F0A31586DFF6DEF4E4F593F59522329F
:104C7000EEFA900C9EE0F88FF0A4FFAEF0E88AF018
:104C8000A42EFEE5F03400FDEF24C9FF78FFEE38D6
:104C9000FEED38FDE438FC5003024C0022EC4D6080
:104CA00011ED60010C8B938A838982E4F0A3DDFC13
:104CB000DCFA75930022EF54016004D2AF8002C287
:104CC000AFEF5402FF9044F4E054FD4FF0229044C3
:104CD000F4E0F84402F0E85402FF10AF012274013E
:104CE0004FFF228B938A838982EFF0A3EEF0A3ED2E
:104CF000F0A3ECF075930022452020005020200006
:104D000053202000432020008B938A838982E0FF78
:104D1000A3E0FE759300228B938A838982EDF0A332
:104D2000ECF0759300228B938A838982E07593005F
:104D3000FF228B938A838982EDF075930022800095
:104D40000000000000000000000000000000000063
:104D50000000000000000000000000000000000053
:104D60000000004000000000000000000000000003
:104D70000000000000000000000000000000000033
:104D80000000000000000000000000000000000023
:104D90000001000000000000000000000000000012
:104DA00000000020000000000000000000000000E3
:104DB00000000000000000000000000000000000F3
:104DC000800000000000000000040000000100005E
:104DD00000000000040400000000000000000000CB
:104DE00000014040400000000000100000000000F2
:104DF0000000000000000000000000000000400073
:104E00000000000000002000000000000000000082
:104E10000000800000008000000000000000000092
:104E200080000000000000001000000000000000F2
:104E30000000000000000000000000000000000072
:104E40000000000000000000000000000000000062
:104E50000000000000000000000000000000004012
:104E60004000000000000000000000000000000002
:104E70000000000000000000000000000000000032
:104E80000000000000000000000000000000000022
:104E900000000000000000000000000000002000F2
:104EA0000000000000000000000000000000000002
:104EB00000000000000000000000000000000100F1
:104EC00001000020000020000000000000000000A1
:104ED00000000180840400000000000000000000C9
:104EE0000001506041000000000000000040000090
:104EF000040000400000000000000000000000006E
:104F00000000000000001000000000000000000091
:104F10000000000000004000000000000000000051
:104F20009000000080000000000000004000000031
:104F30000000000000000000000000000000000071
:104F40000000000000000000000000000000100051
:104F50000000000000000000000000000000000051
:104F60000000000000000000000000000000000041
:104F70000000000000000000000020000000000011
:104F800000000000000000000000000000000040E1
:104F90000000000000000000000000000000000011
:104FA0000000000000000000000000000000000001
:104FB00000000000000000000000000000000000F1
:104FC000200001000000010000000000000000407F
:104FD00000000100804400000000110020000000DB
:104FE00000014160410000000014000000000000CA
:104FF00000000000000000000000000000000000B1
:105000000000100000000000000000002000000070
:105010000000200000000000000000000000000070
:1050200020000000100000000000A00000000000B0
:105030000000000000000000000000000000000070
:10504000000000000000001000000000002A000026
:105050000000000000000000000000000000000050
:105060000000000000000000000000000000000040
:1050700000000000000004000000000000440400E4
:105080000000000000000000000000000000000020
:10509000100001002000000080000000000001203E
:1050A00000000000200000000000000000000000E0
:1050B00000000000000000000000000000000000F0
:1050C000100000001000400000000010000004402C
:1050D00010000000000000000000110000000000AF
:1050E000000000404100000000000000002100001E
:1050F00000000000000000000000000000000000B0
:10510000E00000000000000000000000E0001000CF
:105110000000E0006000C00000000000000080000F
:10512000400000000000000000000000000000003F
:10513000000000000000000000000000000000006F
:10514000000000000000000000000000000000401F
:1051500000000000800004000001000010000000BA
:10516000000000000000000000000000000011002E
:10517000000000004100000000000080000000006E
:1051800000200000000000000000000000000000FF
:10519000000000000000000000000000000000000F
:1051A00000000000000000000000000000000000FF
:1051B00000000000000000000000000000000000EF
:1051C000800000000000000000000000000000005F
:1051D00000000000000000000000000000000000CF
:1051E00000000000000000000000000000000000BF
:1051F00000000000000000000000000000000000AF
:1052000000006000700000000000F00020001000AE
:10521000000000000000000000000000000080000E
:10522000000000000000000000000000000000007E
:10523000000000000000000000000000000001006D
:10524000000000000000010000000000010001005B
:105250000000100001000100000008000000010033
:1052600000000800010001000000010008230252B4
:105270003E760800082303524676100008230452A5
:105280004E76200008230552567628000823065241
:105290005E76300005230752667020000523085211
:1052A00066703000052309526670500005230A52CB
:1052B000667060000523FE526670700015220C0CAB
:1052C000DB49C8004022FE0CDB51300180220E0C6D
:1052D000DB08000180220F0CDB0A00018022100C89
:1052E000DB0C00018022110CDB0E00010022120CED
:1052F000DB4400008022130CDB4600008022FE0C01
:10530000DB4D00008023154D3E4800008023164DE4
:10531000BE4880008023174E3E4300008023184E75
:10532000BE4380008023194F3E42000080231A4F65
:10533000BE42800080231B503E41000080231C5051
:10534000BE41800080231D513E4000008023FE515D
:10535000BE40800007231F082852000007232008B2
:105360003052080007232108385210000623220873
:10537000405260000723230848527800082324087D
:10538000504578000C232508604F0000202326108C
:105390006C6470002023FE108C65700008232808C0
:1053A00058510000802329086C00000080232A083F
:1053B000EC00800080232B096C02000080232C0964
:1053C000EC02800080232D0A6C04000080232E0A4A
:1053D000EC04800080232F0B6C0600008023300B30
:1053E000EC0680008023310C6C1400008023320C0A
:1053F000EC1480008023330D6C1600008023340DE4
:10540000EC1680008023350E6C1800008023360EC9
:10541000EC1880008023370F6C1A00008023380FAF
:10542000EC1A800010233910AC50100010233A10F1
:10543000BC50000080233B10CC4D800080233C11E9
:105440004C4C000080233D11CC4C800080233E1248
:105450004C47000080233F12CC478000802340133C
:105460004C46800080234113CC4500008023421429
:105470004C45800080234314CC1B0000802344153E
:105480004C1B800080234515CC1500008023461658
:105490004C15800080234716CC1900008023481744
:1054A0004C19800080234917CC17000080234A182C
:1054B0004C17800080234B18CC09800080234C19A6
:1054C0004C07000080234D19CC07800080234E1A22
:1054D0004C0B800080234F1ACC0500008023501B0A
:1054E0004C0580008023511BCC0D80008023521C72
:1054F0004C0300008023531CCC0380008023541DE8
:105500004C0F80008023551DCC0100008023561EC7
:105510004C0180008023571ECC4900008023FE1FD1
:105520004C4980000100000002000000040000005F
:10553000050000000600001201000200000008C083
:1055400016DC0503000F0E80010902B700040100FC
:10555000C0020904000000FF00000C090401000063
:10556000010100090A2401000134000202030C2495
:1055700002010306000203000000092403020101E6
:105580000001000C240203010100020300000009D5
:1055900024030403060003000904020000010200C2
:1055A0000A09040201010102000A072401020201A2
:1055B000000B240201020210010077010905822D6F
:1055C000800101000007250180010000090403009B
:1055D000000102000B09040301010102000B072472
:1055E00001030101000B24020102021001007701F6
:1055F0000905032D8001010000072501800100003D
:10560000040309040C034100450039005200420024
:105610001A035000650061006200650072007200AC
:10562000790020005300440052002203500065001E
:105630006100620065007200720079002000520073
:105640006500630065006900760065002403500072
:105650006500610062006500720072007900200040
:105660005400720061006E0073006D0069007400E8
:105670001E03500065006100620065007200720048
:105680007900200052006100640069006F00160379
:105690004400470038005300410051002D004900EC
:1056A000320043001A037700770077002E006F0066
:1056B00062006400650076002E00610074001E0325
:1056C0004D0075006C0074007500730020004300ED
:1056D0006F006E00740072006F006C0020034D00BC
:1056E00075006C00740075007300200049005100C3
:1056F000200053006F0075006E00640024034D000D
:1057000075006C00740075007300200049005100A2
:1057100020005200650063006500690076006500A6
:1057200026034D0075006C007400750073002000A6
:105730004900510020005400720061006E007300A7
:105740006D006900740026034D0075006C00740044
:1057500075007300200053004400520020004300F5
:105760006F006E00740072006F006C0020034D002B
:1057700075006C0074007500730020005300440035
:1057800052002C004C004C0043002E00120350002D
:1057900072006F0066006900630069006F002603F5
:1057A0007700770077002E006D0075006C007400A4
:1057B000750073002D007300640072002E006300FA
:1057C0006F006D0000120350004500300046004B92
:1057D000004F002D0030000201822D0180010301E5
:1057E000032D018001FF01010101FF554902FF570F
:1057F000D7000000000000000000000000000000D2
:105800000000FF57E501FF55370000000001FF577A
:10581000E901FF58053031323334353637383941F4
:10582000424344454600E4900A31F0A3F0A3F0A3BC
:10583000F0A3F07F64FEFDFC11E5D2AF9044F47458
:10584000FDF0126C94F16812C7F87E9F7FEB12C8CE
:1058500023128771E4FFFEFDFC900A371246BE7FDB
:10586000C031CF900A2FEFF0700812C1DEF168123C
:10587000C27D126F22900A30EFF0900A2FE0700C78
:10588000A3E060087BFF7A4C79F8316C900A30E035
:1058900060087BFF7A4C79FC316C900A2FE070082D
:1058A0007BFF7A4D7900316C7F02F1F17F807E9F22
:1058B0007DD57C00900A991246BE900A99E0FCA31F
:1058C000E0FDA3E0FEA3E0FF127A45EF70ECE47F79
:1058D000DC7E05FDFC11E5D1C2EF54FEFFD1BCE436
:1058E0007F05FEFDFC90FFFC1246FC1246BE8508BB
:1058F00083850982E0A3E0A3E0FEA3E0D39400EE59
:105900009480403D900CA4E0FCA3E0FDA3E0FEA346
:10591000E0FF124C00850883850982C083C082E0C5
:10592000FCA3E0FDA3E0FEA3E02400FFEE3480FE34
:10593000ED34FFFDEC34FFFCD082D0831246BE80F4
:10594000AD900C9AE0FCA3E0FDA3E0FEA3E0FF8590
:105950000883850982E0F8A3E0F9A3E0FAA3E0FB5D
:105960001244FF124C009000040246FC900A36EBF1
:10597000F0A3EAF0A3E9F0E4900A3AF0A3F0900B68
:1059800010E0600312AFEFD1C2EF5401440AFFD11F
:10599000BC900A36E0FBA3E0FAA3E0F9126B52D107
:1059A000B6EF5408FF900A39E06F60F3EFF0A3748C
:1059B000FFF5F01244CA45F070E5900A3A04F0A3EE
:1059C00074E0F07B007A007900126B5280D1229053
:1059D0000A36EFF0E4900A3BF0FF7ED77DA37C709F
:1059E0001267F0900AB21246BE900A36E0FD7FB709
:1059F00051A6900A3BEFF07002419EE4FFFEFDFCD1
:105A0000900A37E0F8A3E0F9A3E0FAA3E0FBC312A1
:105A1000464D6014900A37E0FCA3E0FDA3E0FEA32E
:105A2000E0FF900AC31246BE7D807F1051A6900A07
:105A30003BEFF07D807F1151A6900A3BEFF07D8017
:105A40007F1251A6900A3BEFF07D0C7F1051A6907B
:105A50000A3BEFF07D0C7F1151A6900A3BEFF07DE1
:105A60000C7F1251A6900A3BEFF0E4FDFF128398E1
:105A7000E4FFB1007F01B100E4FD7F011285E2E4A3
:105A8000FD7F021285E2E4FD7F01F12FE4FD7F023C
:105A9000F12FE4FD7F01F181E4FD7F02F181900AA5
:105AA0003BE0FF7E0022900A5B7401F0E4A3F090DB
:105AB0000A59EFF0A3EDF07B017A0A7959900A6157
:105AC0007402F0E4A3F07F60128533900A5CEFF07B
:105AD0001284AFEF30E1F9F1EBEF64026005E4907E
:105AE0000A5BF0900A5BE0FF22900A4FEFF0900B08
:105AF00046E0B40800400281FA905B00F828287361
:105B0000025B18025B84025BA9025BEF025C1E026F
:105B10005C44025CA8025CD7E47F80FEFDFC900A36
:105B200050E0F8A3E0F9A3E0FAA3E0FB1244FFE49D
:105B30002FFFEE34FEFEED34FFFDEC34FFFC900B46
:105B40003A1246BEE4FFFEFDFC900B3E1246BEE458
:105B50007F01FEFDFC900B421246BE900B42E0FC22
:105B6000A3E0FDA3E0FEA3E0E4FFEEE4FDFC780883
:105B700012465EAD07900A4FE0FF51A6900B46E03B
:105B800004F081FA900A4FE004FFC007900B42E056
:105B9000FCA3E0FDA3E0FEA3E0FFE4AD07D00751C6
:105BA000A6900B46E004F081FA900A4FE02402FF31
:105BB000C007900B3AE0FCA3E0FDA3E0FEA3E0E405
:105BC000FFFEED5403FDE4FC781012465EA804A924
:105BD00005AA06AB07900A54E0FFE4EB4FFFEAE9A1
:105BE000E8AD07D00751A6900B46E004F081FA908B
:105BF0000A4FE02403FFC007900B3AE0FCA3E0FD4E
:105C0000A3E0FEA3E0E4FFEEE4FDFC780812465EAC
:105C1000AD07D00751A6900B46E004F081FA900A38
:105C20004FE02404FFC007900B3AE0FCA3E0FDA383
:105C3000E0FEA3E0FFE4AD07D00751A6900B46E0DD
:105C400004F081FA900A4FE02405FFC007900B3E54
:105C5000E0FCA3E0FDA3E0FEA3E0E4FFFEED540FB3
:105C6000FDE4FC781012465EC004C005C006C00703
:105C7000A3E0FCA3E0FDA3E0FEA3E0E4FFFEED54FF
:105C80000FFDE4FC780C12465ED003D002D001D0A8
:105C900000EF4BFFEE4AED49EC48AD07D00751A6A7
:105CA000900B46E004F08052900A4FE02406FFC0BB
:105CB00007900B3EE0FCA3E0FDA3E0FEA3E0E4FFC1
:105CC000EEE4FDFC780812465EAD07D00751A690C1
:105CD0000B46E004F08023900A4FE02407FFC00742
:105CE000900B3EE0FCA3E0FDA3E0FEA3E0FFE4ADEB
:105CF00007D00751A6E4900B46F0900B46E0FF2238
:105D0000900A3CEFF070067D207FB141A6900A3CDE
:105D1000E0B401067D807FB151A622E4900A27F00D
:105D2000A3F0A3F0A3F0A3F0A3F0A3F0A3740AF0F0
:105D30001126126A63127064900A03E0FFB4430CE8
:105D4000900A28E06F6002EFF012A286D1B6EF54FD
:105D500008FF900A25F0A3E06F60D7A3E0FF04F0EE
:105D6000EFB407004002C1A6905D6FF828287302C7
:105D70005D84025DBF025E02025E2D025E32025E43
:105D80003F025E54900A2EE014F070A6124CCE90A2
:105D90000A2DEFF0D1B6900A29EFF0900A2DE0FF1E
:105DA000124CB6900A29E030E4089009A27401F080
:105DB0008005E49009A2F0900A2E740AF0A13290B6
:105DC0000A03E0FF64437002A132900A28E06F608A
:105DD0002DD1C2EF54FEFFD1BCD1C2EF4402FFD19E
:105DE000BCD1C2900A2CEFF04408F04410FFF0D16F
:105DF000BCE4900CE4F0900A03E0900A28F0D1C8CB
:105E0000A132128D169009A7E0FF900998E06F600B
:105E10000DEFF0E075F064A4FFAEF012C809900A2F
:105E200008E064016002A13212A03BA13212745159
:105E3000A132900A00E06002A132128E8AA13212D1
:105E40008BE912C417EF7002A1327BFF7A4D7904FF
:105E5000316CA132900A03E064436016900A99E025
:105E6000FCA3E0FDA3E0FEA3E0FF127A45900A0048
:105E7000EFF0D1B6EF20E202F1DD9009A3E0B4012A
:105E80000EE4F07F2C7E01FDFC11E5F1E3A13290E0
:105E900009A3E064026002A132F07F2C7E01FDFCC8
:105EA00011E5F1DDA132F1F7E4900A27F0900A251F
:105EB000E0A3F0A13222906460E0FF22906474EFCE
:105EC000F022906474E0FF22900CE2E024FE602552
:105ED00024F8603014604A240B7053900CE4E060A6
:105EE0004D900CE3E07047900CE27402F0D1C2EFE9
:105EF00054FDFF80C7D1C2EF54F7FFD1BC900CE234
:105F0000740AF022900CE4E07024900CE3E0701E20
:105F1000D1C2EF54FE4408FFD1BC900CE2740BF0E8
:105F200022D1C2EF4402FFD1BCE4900CE2F02290F7
:105F30000A3DEDF0900A3CEFF02410FF7B017A0A55
:105F4000793E128428900A3DE0B40107A3E0547F13
:105F5000F08007900A3EE04440F0900A3CE02410B4
:105F6000FF900A3EE0FD41A6900CE6E0700912ACFD
:105F700097900CE67401F012C1CA9044C17480F08D
:105F800022900A3CEFF0A3EDF07B017A0A793E7F84
:105F900003128428EF7045900A3DE0B4011BA3E092
:105FA000FF900A3CE0FE7401A806088002C333D8C3
:105FB000FCF45F900A3EF0801A900A3EE0FF900ADF
:105FC0003CE0FE7401A806088002C333D8FC4F9061
:105FD0000A3EF0900A3EE0FD7F0351A6229046FA69
:105FE0007440F09046F6E04401F022900CB8E0FFD7
:105FF00022906576EFF02212B695EF6010900B10AC
:10600000E0701A7D02FF12A9F4F1900191900B103B
:10601000E0600AE4900CE4F0111E12AFEF227DF074
:106020007F4011C5900A36EFF012C30312C2C99027
:106030000CEDE0FF115E900CECE0FF115E900CEFB8
:10604000E0FF115E900CEEE0FF115E900CF0E0FFBF
:10605000115E12C31712C2DD900A36E0FF227E01E4
:10606000EFC39418502875F010EFA42410F582E5C2
:10607000F03470F583E054FEF075F010EFA42410B6
:10608000F582E5F03470F583E054DFF0E41EAF06EE
:10609000227DC07F4011C57D807F4511C57DFF7F7A
:1060A0004111C57DFF7F4211C5913C314212C2EEC4
:1060B000124CCE90659BE04410F0124CB69065797E
:1060C000E04401F022900A37EFF0A3EDF0E4900AEB
:1060D0003BF0A3F0A3F0900A3BE0FFC39402505FB3
:1060E000EF14602F0470EF900A37E0900A39F090B7
:1060F0000A38E0900A3AF07B017A0A7939900A610D
:106100007402F0E4A3F07F46128533900A3BE0046A
:10611000F080C31284AFEF30E708900A3BE014F040
:10612000800AEF30E106900A3BE004F0900A3C74EC
:10613000FFF5F01244B445F0709C7F012280977FF8
:106140000022E4900A2FF0900A2FE0FFC39403404E
:106150000221E9EF6402703FE02407F582E434098C
:10616000F583E0FF900907E0FBE4900A3EF07D0133
:10617000FC71B5900A2FE02407F582E43409F58319
:10618000E0FF7B017A097903E9EAE4AD01AC027B27
:106190004B7A65B185804A900A2FE0FE2407F5828C
:1061A000E43409F583E0FF74082EF582E43409F540
:1061B00083E0FB900A3E7404F07D017C0071B59091
:1061C0000A2FE02407F582E43409F583E0FF7B0120
:1061D0007A09790BE9EAE4AD01AC027B4B7A65B14F
:1061E00085900A2FE004F02147900CEFE0FFD11BCF
:1061F000900CEFE0FF900907E0FDB1FDE4900A2F5D
:10620000F0900A2FE0FFC3940340026121EF04A342
:10621000F0C39403402EE4F0900A2FE0240FF5829F
:10622000E43409F583E0FF900A30E0240FF582E4BE
:106230003409F583E0FB900A3E7405F07D807C0113
:1062400071B58029900A2FE0240FF582E43409F516
:1062500083E0FF900A30E0240FF582E43409F583EF
:10626000E0FB900A3E7401F07D80FC71B5900A2F2E
:10627000E0FB75F080A42483F582E5F03404F58317
:10628000EB2583F583FEE582EEE4AD82AC06C00526
:10629000740F2BF582E43409F583E0FF7B017A0962
:1062A000790BE9EAE4AB01D005B185900A2FE0242F
:1062B00000F582E43400F583E0FF900A30E024002A
:1062C000F582E43400F583E0FB900A3E7402F07D31
:1062D000807C0171B5900A2FE0F975F080A42483C9
:1062E000F582E5F03404F583E92583F583FEE58244
:1062F000EEE4AB82AA06C002C003740029F582E472
:106300003400F583E0FF7B017A097903E9EAE4AD23
:1063100001AC02D003D002B185900A2FE004F04115
:1063200001900CEEE0FFD11B900CEEE0FF90090F06
:10633000E0FDB1FD900CF0E0FFD11B900CF0E0FF10
:10634000900000E0FDB1FD900CF0E0FF7D01716A6E
:10635000900CEEE0FF7D0112C3F2900CEEE0FF7DA9
:1063600001716A900CEFE0FF7D017E01EFC394188C
:106370005040ED601575F010EFA42410F582E5F0A3
:106380003470F583E04420F0801375F010EFA424FE
:1063900010F582E5F03470F583E054DFF075F0100D
:1063A000EFA42410F582E5F03470F583E04401F0A9
:1063B000E4FEAF0622900A3BECF0A3EDF0A3EBF075
:1063C000900A3AEFF0900A3F7401F0EFC3948050C6
:1063D00065900A3BE054F0A3705C900A3AE075F0D7
:1063E00008A42400FFE5F03478FE900A40F0A3EF03
:1063F000F0AA06F97B01900A3BE0FCA3E0FD124DF8
:1064000019900A3DE0FF900A3AE0FE75F008A424D6
:1064100002F582E5F03478F583EFF0900A3EE0FF74
:1064200075F008EEA42403F582E5F03478F583EFE7
:10643000F0E4900A3FF0900A3FE0FF22E4900A2F38
:10644000F0900A2FE0FFC394035070EFB4021C24B5
:1064500004F582E43409F583E0FF900904E0FBE4ED
:10646000900A3EF07D01FC71B58028900A2FE0FE75
:106470002404F582E43409F583E0FF74052EF582E7
:10648000E43409F583E0FB900A3E7404F07D017C5E
:106490000071B5900A2FE02404F582E43409F583F5
:1064A000E0FF7B017A09790AE9EAE4AB017D497CE6
:1064B00065B185900A2FE004F08086900CEDE0FF36
:1064C000D11B900CEDE0FF900904E0FDB1FDE490DC
:1064D0000A2FF0900A2FE0FFC394034002A160EF5F
:1064E00004A3F0C394034002E4F0900A2FE0240CCC
:1064F000F582E43409F583E0FF900A30E0240CF5DE
:1065000082E43409F583E0FB900A3E7402F07D805A
:106510007C0171B5900A2FE0F975F080A42403F591
:1065200082E5F03400F583E92583F583FEE582EE0C
:10653000E4AB82AA06C002C003740C29F582E434DD
:1065400009F583E0FF7B017A09790AE9EAE4AD0104
:10655000AC02D003D002B185900A2FE004F081D3C1
:10656000900CECE0FFD11B900CECE0FF90090CE0EC
:10657000FDB1FD900CECE0FF7D01716A900CEDE047
:10658000FF7D01616A900A3BECF0A3EDF0A3EAF015
:10659000A3EBF0900A3AEFF0900A3F7401F0EFC3DA
:1065A00094805053900A3AE075F008A42404FFE563
:1065B000F03478FE900A40F0A3EFF0AA06F97B01D0
:1065C000900A3BE0FCA3E0FD124D19900A3AE075F9
:1065D000F008A42406FFE5F03478FE900A40F0A30A
:1065E000EFF0AA06F97B01900A3DE0FCA3E0FD1262
:1065F0004D19E4900A3FF0900A3FE0FF227E01EF40
:10660000C39418501375F010EFA42419F582E5F027
:106610003470F583EDF0E41EAF06227E01EFC394E3
:1066200018502875F010EFA42414F582E5F03470AA
:10663000F583E04404F075F010EFA42410F582E532
:10664000F03470F583E04401F0E41EAF0622900AB6
:1066500030EBF0A3EAF0A3E9F0900A2FEFF024FF6B
:10666000FFE434FFFEEFC4F8540FC868FFEEC454D3
:10667000F048EF2488FFE43460FAA907900A3674E2
:1066800001F0A3EAF0A3E9F0900CE0E030E108901B
:106690000A357492F08006900A3574D2F0900A2F71
:1066A000E02423F582E4340BF583E0FF115E900AC9
:1066B0002FE02407F582E4340BF583E0FBFF900A1A
:1066C00033E0FCA3E0FDA3E0900A3EF071B5900A30
:1066D0002FE02407F582E4340BF583E0FFC0079038
:1066E0000A36E0FBA3E0FAA3E0F9FFAE02EAE4AD6C
:1066F00007AC06C005900A30E0FBA3E0FAA3E0F97E
:10670000FFEAE4AB07D005D007B185900A2FE0245B
:1067100023F582E4340BF583E0FFD11B900A2FE0D0
:10672000FE2423F582E4340BF583E0FF74072EF595
:1067300082E4340BF583E0FDB1FD900A2FE02423C1
:10674000F582E4340BF583E0FF7D01616A900A363F
:10675000EFF07FF47E3D12737B126E3F900A37EFAD
:10676000F0E0FBFFE4900A3EF07D01FC71B5900A79
:1067700037E0FF7B227A427D667C65B185900A36E0
:10678000E0FFA3E0FDB1FD900A36E0FF7D01616A04
:10679000900B09E0B4FF07F1DA7F0212B18D900B84
:1067A0000AE0B4FF07F1BE7F0312B18DE4900CE163
:1067B000F0F1BEE4900A33F0A3F07F03C14EF1D4B0
:1067C0007E007C017D801244A274832FF974043E04
:1067D000FA7B0122906465E0FF22F1D47E007C0107
:1067E0007D801244A274032FF974003EFA7B0122CB
:1067F00090FFFC1246FC1246BE90FFF61246FC7B50
:1068000001900006124720A982AA83850883850982
:1068100082EBF0A3EAF0A3E9F07B0190000A1247B3
:1068200020A982AA83900003124720EBF0A3EAF08C
:10683000A3E9F0900003124720E0FBA3E0FAA3E0F5
:106840002403F9E43AFA124477FF85088385098224
:10685000E0FBA3E0FAA3E0F9EF12449090000312EA
:106860004720E0FBA3E0FAA3E02402F9E43AFA129D
:106870004477FF850883850982E0FBA3E0FAA3E063
:106880002401F9E43AFAEF124490900003124720F1
:10689000E0FBA3E0FAA3E02401F9E43AFA1244771A
:1068A000FF850883850982E0FBA3E0FAA3E02402C8
:1068B000F9E43AFAEF124490900003124720E0FB0B
:1068C000A3E0FAA3E0F9124477FF850883850982E3
:1068D000E0FBA3E0FAA3E02403F9E43AFAEF124460
:1068E00090900006124720E0FCA3E0FDA3E0FEA389
:1068F000E0FF90000E0246FC900A30EBF0A3EAF0B5
:10690000A3E9F0900A2FEFF024FFFFE434FFFEEF3D
:10691000C4F8540FC868FFEEC454F048900A35EF2D
:10692000F02488FFE43460FAA907900A377401F074
:10693000A3EAF0A3E9F0900CE0E030E008900A361A
:106940007491F08006900A3674D1F0900A33E0FC1E
:10695000A3E0FDECFF900A2FE0FE75F00BA42438B5
:10696000F582E5F03409F583E04FFF900A35E0FB4E
:10697000240CF582E43460F583EFF0ED740D2BF513
:1069800082E43460F583EDF074232EF582E4340B59
:10699000F583E0FF12605E900A2FE02407F582E4A1
:1069A000340BF583E0FBFF900A33E0FCA3E0FD909D
:1069B0000A36E0900A3EF01263B5900A2FE02407F1
:1069C000F582E4340BF583E0FFC007900A30E0FB6A
:1069D000A3E0FAA3E0F9FFAE02EAE4AD07AC06C01B
:1069E00005900A37E0FBA3E0FAA3E0F9FFEAE4AB85
:1069F00007D005D007126585900A2FE02423F58281
:106A0000E4340BF583E0FF12661B900A2FE0FE24AE
:106A100023F582E4340BF583E0FF74072EF582E45E
:106A2000340BF583E0FD1265FD900A2FE02423F579
:106A300082E4340BF583E0FF7D0112636A900A2F34
:106A4000E075F00BA42436F582E5F03409F583E413
:106A5000F0900A35E02480F582E43460F583E04468
:106A600001F0227F037127EF6012900CE1E0701BB0
:106A70007F0351CC900CE17401F0800F900CE1E0A9
:106A800060097F037134E4900CE1F0711AEF600447
:106A90007F0351CC7F037109EFB401161267BE90DA
:106AA0000A337401F0A37480F07F0312664E7F03F3
:106AB00051CC7F027109EFB401111267DA900A33E9
:106AC0007401F0A37480F07F0211F822EFD39400D8
:106AD0004036EF94095031EF75F00BA42436F5825F
:106AE000E43409F583E4F0EF75F00BA4243AF58261
:106AF000E43409F583E0FE75F010EFA424FEF5827E
:106B0000E5F0345FF583EEF022EF75F00BA4243648
:106B1000F582E43409F583E0FF22E4FF900922E0E6
:106B20006004E0FFE4F02274122FF582E43409F5EA
:106B300083E0FF22EFD394004017EF9409501275C1
:106B4000F010EFA424FEF582E5F0345FF5837408BD
:106B5000F022EA494B6015E4900BB5F0900BB8F0C9
:106B6000900BBAEBF0A3EAF0A3E9F022900BB8E0A7
:106B7000147002811414700281451470028177240C
:106B80000360028193900BBAE0FBA3E0FAA3E0F963
:106B9000900BB5E0FFE92FF9E43AFA12447770045C
:106BA000900BB5F0900BBAE0FBA3E0FAA3E0F990EC
:106BB0000BB5E0FF04F0E92FF9E43AFA124477FF4D
:106BC000C39461400AEFD3947A500474E02FFFEF2E
:106BD000C394224006EFD3945A4008900BB6740732
:106BE000F0800F749B2FF582E4340BF583E0900B5B
:106BF000B6F0900BB6E0FF5407A3F070037406F0F4
:106C0000EFB40710900BB97402F0E4900BB7F0A347
:106C10007403F022900BB6E0FF30E708900BB974D4
:106C200003F08006900BB97401F0EF25E0900BB6ED
:106C3000F0A3E014F0125EC2EF54FEFF125EBC90AF
:106C40000BB87402F0900BB9E07025900BB8740388
:106C5000F0900BB7E07008900BB97402F08005E477
:106C6000900BB9F0125EC2EF4401FF125EBC8007C8
:106C7000900BB9E014F022900BB9E07010900BB7B4
:106C8000E07003A3F022900BB87401F022900BB9CE
:106C9000E014F022E4900A3AF0A3F0FBFA7D017FC1
:106CA0000191B112674D91F5E47F01FEFDFC0258A0
:106CB000E5900A38EAF0A3EBF0AE05E4900CF1F0B1
:106CC000AD07AF06AB07900A40F0A3F0A3F0FFF1C9
:106CD000EB900CF1E0FF900A38E0FCA3E0FDA3E0AC
:106CE000FAA3E0FBF173900CF1E0FFE4FDB1049036
:106CF0000CF1E0FF229064957420F0906492F09083
:106D00006491F022AC077B01ECC39418503375F00A
:106D100010ECA42410F582E5F03470F583E054F112
:106D2000FAED540725E0FFE433AE02EF4AFF75F0B9
:106D300010ECA42410F582E5F03470F583EFF0E454
:106D40001BAF0322900A39EAF0A3EBF0AE05900CDA
:106D5000EC7403F0AD07AF06AB07E4900A40F0A374
:106D6000F0A3F07F03F1EB900CECE0FF900A39E028
:106D7000FCA3E0FDA3E0FAA3E0FBF173900CECE0D0
:106D8000FF7D01B104900CECE0FF22900A39EAF09B
:106D9000A3EBF0AE05900CED7404F0AD07AF06ABBD
:106DA00007900A40F0E4A3F0A3F07F04F1EB900C0D
:106DB000EDE0FF900A39E0FCA3E0FDA3E0FAA3E0D8
:106DC000FBF173900CEDE0FF7D01B104900CEDE060
:106DD000FF22E4900A3BF0A3F0FBFA7D017F01B1B2
:106DE0008BE4900A3BF0A3F0FBFA7D017F01B144F4
:106DF000E4900A36F0900A36E0C394035019D13F6C
:106E0000900A36E02404F582E43409F583EFF0902B
:106E10000A36E004F080DEE4900A36F0900A36E0AC
:106E2000C394035019D13F900A36E0240CF582E454
:106E30003409F583EFF0900A36E004F080DE22900A
:106E40000A3874FFF0124CCE900CCBE0D39418406B
:106E500023900CCAE0FE900A38F0900CCBE014F0BE
:106E600075F008EEA42400F582E5F03478F583E0AF
:106E7000900CCAF0124CB6900A38E0FF22E4900A57
:106E80003BF0A3F0FBFA7D017F01F12CE4900A3B7B
:106E9000F0A3F0FBFA7D017F0112C328E4900A3BC6
:106EA000F0A3F0FBFA7D017F0112C372E4900A3671
:106EB000F0900A36E0C394035019D13F900A36E0AF
:106EC0002407F582E43409F583EFF0900A36E004F4
:106ED000F080DEE4900A36F0900A36E0C394035066
:106EE00019D13F900A36E0240FF582E43409F58386
:106EF000EFF0900A36E004F080DEE4900A36F0907D
:106F00000A36E0C394035019D13F900A36E02400BA
:106F1000F582E43400F583EFF0900A36E004F08067
:106F2000DE2212C2A6B1D2D17D02601E900A39EAD9
:106F3000F0A3EBF0AE05900CEE7405F0AD07AF06D4
:106F4000AB07900A40F0E4A3F0A3F07F05F1EB90CB
:106F50000CEEE0FF900A39E0FCA3E0FDA3E0FAA309
:106F6000E0FBF173900CEEE0FF7D01B104900CEEBC
:106F7000E0FF22900A3EECF0A3EDF0A3EAF0A3EBD1
:106F8000F0900A3DEFF0900A427401F0EFC39418BC
:106F90005053900A3DE075F008A42404FFE5F03456
:106FA00076FE900A43F0A3EFF0AA06F97B01900A5F
:106FB0003EE0FCA3E0FD124D19900A3DE075F0089B
:106FC000A42406FFE5F03476FE900A43F0A3EFF028
:106FD000AA06F97B01900A40E0FCA3E0FD124D19DE
:106FE000E4900A42F0900A42E0FF22AC077A01ECFA
:106FF000C39418506CEB540175F080A4FFED547FDE
:107000004FFF75F008ECA42400F582E5F03476F526
:1070100083EFF0900A41E0540F75F010A4FF900A3E
:1070200040E0540F4FFF75F008ECA42401F582E511
:10703000F03476F583EFF0900A42E0540FFF75F0DC
:1070400008ECA42402F582E5F03476F583EFF075C0
:10705000F008ECA42403F582E5F03476F583E4F03F
:107060001AAF0222906461E0FD7C0020E002413D05
:10707000A3E0FEE42DFDEC3EFCFEAF05ED2410FF89
:10708000EE34AA900A2FF0A3EFF0900CAAE0FEA332
:10709000E0FF900A2FE0FCA3E0FDC39FFFEC9EA35E
:1070A000F0A3EFF0EC1243BD7B177AB779D17839B2
:1070B0001242121243F6900A33EEF0A3EFF0900A58
:1070C00031E0FCA3E0FDEC1243BDE4FBFAF9783FAC
:1070D0001242121243F6900A2FE0FDA3E0900CAA90
:1070E000CDF0A3EDF0900A34E02FFF900A33E03E9C
:1070F000FE900CA9E02FF0900CA8E03EF0D3A3E0A6
:1071000094E8900CA8E0943F4007743FF0A374E823
:10711000F0C3900CA9E0940C900CA8E0943A5007AE
:10712000743AF0A3740CF0900CADE07002A3E07020
:10713000024133900CACE0602FE4900CA8F0A3F077
:10714000900CACE014F060024133125EC2EF54FECA
:10715000FF125EBC900CA8743DF0A374F4F07D01A6
:107160007F0C7E00513E4133900CAEE024FFF09046
:107170000CADE034FFF0900A31E0FEA3E0FFC3EE77
:1071800064809480500FC3900CB0E09FF0900CAFDF
:10719000E09EF08014900A31E0FEA3E0FF900CB076
:1071A000E02FF0900CAFE03EF0900CAFE0C313FE88
:1071B000A3E013FF900CAFEEF0A3EFF0C39402EE48
:1071C00094005018A3E07002A3E0602D900CB2E090
:1071D00024FFF0900CB1E034FFF0801DD3900CB090
:1071E000E09407900CAFE09400400E900CB2E004E5
:1071F000F07006900CB1E004F0D3900CB2E0943241
:10720000900CB1E09400402BE4900CAFF0A3F0A3FD
:10721000F0A3F0900CAC74C8F0A3740BF0A374B896
:10722000F0125EC2EF4401FF125EBC7D017F0D7E55
:1072300000513E900CA8E0FEA3E0FF717B22900A73
:1072400035EEF0A3EFF0A3EDF0716A900A39EFF09C
:107250007172900A3AEEF0A3EFF0900A35E0FCA3C9
:10726000E0FD6F7002EC6E700261699043A2E05421
:1072700001900A38F0A3E0703AA3E0FEA3E0FF4ECD
:107280006004ED4C702DEF4E70117B027A407980D6
:10729000124D19904082E054BFF022904082E044A9
:1072A00040F07B027A407980900A35E0FCA3E0FD53
:1072B000024D19900A38E06053904001E4F090408C
:1072C0001004F0904014E4F0904008E0547FF090F7
:1072D0004082E05408600A900A35E07002A3E07032
:1072E0002B7B027A407902900A3AE0FCA3E0FD127F
:1072F0004D199040017407F0904001E0540170F87E
:107300009043A2E054FEF0904001E4F09043A2E0EC
:107310005401602F7B027A407902900A35E0FCA389
:10732000E0FD124D19900A37E060047F0280027F71
:1073300000EF4401904001F0904001E054016029C9
:1073400080F6227B027A407980900A35E0FCA3E047
:10735000FD124D199043A2C083C082E0FF900A380D
:10736000E0FEEF4ED082D083F022904082E05407BE
:10737000FF227B027A407980024D0AAD07AC06EC11
:10738000906575F0EF906574F022900A331246BE56
:10739000E4FFFEFDFC900A471246BE900A33E0FC73
:1073A000A3E0FDA3E0FEA3E0FF1267F0E41243B800
:1073B000E4FBFAF9784A12431B900A371246BE9052
:1073C0000A37E0FCA3E0FDA3E0FEA3E0FF1243F6D2
:1073D000900A3B1246BE7F007E247D747C49900A51
:1073E00037E0F8A3E0F9A3E0FAA3E0FB124212129F
:1073F00043F67B407A42790F7800124B8EAC00AD99
:1074000001AE02AF03900A431246BE7F407E427D2A
:107410000F7C00900A3BE0F8A3E0F9A3E0FAA3E0B8
:10742000FB1244FF900A43E0F8A3E0F9A3E0FAA3BB
:10743000E02FFFEA3EFEE93DFDE83CFC900A3F12EA
:1074400046BE900A3FE0FCA3E0FDA3E0FEA3E0FF00
:1074500022900A74E0147002A17D147002A1D62457
:10746000026002E13E900AAEE0FCA3E0FDA3E0FE74
:10747000A3E0FF900A75E0F8A3E0F9A3E0FAA3E027
:10748000FBC312464D7002A176124CCEAB07900A98
:10749000AEE0FCA3E0FDA3E0FEA3E0FF900A7512BE
:1074A00046BEAF03124CB6900C4EE0146038047028
:1074B0004C900A75E0FCA3E0FDA3E0FEA3E0FF71A1
:1074C0008A900A2F1246BE900A2FE0FCA3E0FDA38B
:1074D000E0FEA3E0FFE47B04FAF9F812458A900A83
:1074E0002F1246BE8017900A75E0FCA3E0FDA3E0D2
:1074F000FEA3E0FF1267F0900A2F1246BEE47F64FD
:10750000FEFDFC900A2FE0F8A3E0F9A3E0FAA3E067
:10751000FBD312464D405F900A2FE0FCA3E0FDA391
:10752000E0FEA3E0FF900A99E0F8A3E0F9A3E0FAF7
:10753000A3E0FB12464D603E900A2FE0FCA3E0FD65
:10754000A3E0FEA3E0FF900A991246BE900A99E0DC
:10755000FCA3E0FDA3E0FEA3E0FF900C6A1246BE90
:10756000900A99E0FCA3E0FDA3E0FEA3E0FF1282F5
:107570006F900AA2EFF0900A74E004F022900AD013
:10758000E0FF900A7DE06F6047900AD0E01460163B
:1075900014601F1460282403702E900A817401F077
:1075A000A37490F08022900A817402F0A37458F0C2
:1075B0008016900A817403F0A37420F0800A900A68
:1075C000817403F0A374E8F0900AD0E0900A7DF093
:1075D000900A74E004F0900A99E0FCA3E0FDA3E0B7
:1075E000FEA3E0FF900A79E0F8A3E0F9A3E0FAA394
:1075F000E0FBC312464D7002E139900A99E0FCA30A
:10760000E0FDA3E0FEA3E0FF900AC81246BE900A88
:1076100003E024BD7002C1DF24F77002C1A224F789
:10762000604324146002E125900AC8E0FCA3E0FD59
:10763000A3E0FEA3E02454FFEE342EFEE43DFDE47F
:107640003CFCC007900AC7E0FFFB3395E0FAF9F86D
:10765000D007C3EF9BFFEE9AFEED99FDEC98FCA3DB
:107660001246BEE125900AC8E0FCA3E0FDA3E0FEBF
:10767000A3E024E0FFEE342EFEE43DFDE43CFCC03C
:1076800007900AC7E0FFFB3395E0FAF9F8D007C38B
:10769000EF9BFFEE9AFEED99FDEC98FCA31246BE1F
:1076A000E125900AC8E0FCA3E0FDA3E0FEA3E024EE
:1076B000E0FFEE342EFEE43DFDE43CFCC007900A02
:1076C000C7E0FFFB3395E0FAF9F8D007C3EF9BFF63
:1076D000EE9AFEED99FDEC98FCA31246BE80469012
:1076E0000AC8E0FCA3E0FDA3E0FEA3E024E0FFEE77
:1076F000342EFEE43DFDE43CFCC006C007900A8148
:10770000E0FEA3E0FFFBAA06EA3395E0F9F8D00714
:10771000D006C3EF9BFFEE9AFEED99FDEC98FC902E
:107720000AAA1246BE900A99E0FCA3E0FDA3E0FE7F
:10773000A3E0FF900A791246BEE4900A74F022900A
:107740000A4FEFF0A3EDF0900B39E0B408004003CE
:10775000027A3F90775AF82828730277720278D617
:107760000278FC02792F02795F0279860279EB02B6
:107770007A1B900A55E0FCA3E0FDA3E0FEA3E0FF26
:10778000E41243B8C004C005C006C007900A51E027
:10779000FCA3E0FDA3E0FEA3E0FFE41243B8D003A6
:1077A000D002D001D00012431BE4FBFAF978431257
:1077B00042121243F6900B2D1246BE900A50E0FF83
:1077C0007E007C007D8012472D900B2DE0F8A3E019
:1077D000F9A3E0FAA3E02FFFEA3EFEE93DFDE83C15
:1077E000FCE42FFFEE34FEFEED34FFFDEC34FFFC35
:1077F000900B2D1246BE900A55E0FCA3E0FDA3E0DD
:10780000FEA3E0FFE41243B8C004C005C006C007F1
:10781000900A51E0FCA3E0FDA3E0FEA3E0FFE41228
:1078200043B8D003D002D001D00012431BE4FBFACE
:10783000F978431242121243F6900B311246BE9071
:107840000B31E0FCA3E0FDA3E0FEA3E0FF900A55AE
:10785000E0F8A3E0F9A3E0FAA3E0FB1244FFC004C0
:10786000C005C006C007E47F80FEFDFC900A51E021
:10787000F8A3E0F9A3E0FAA3E0FB1244FFD003D0A1
:1078800002D001D000C3EF9BFFEE9AFEED99FDEC14
:1078900098FC900B311246BE900A55E0FCA3E0FD27
:1078A000A3E0FEA3E0FF900B351246BE900B35E03F
:1078B000FCA3E0FDA3E0FEA3E0E4FFEEE4FDFC7822
:1078C0000812465EAD07900A4FE0FF125AA6900BD1
:1078D00039E004F0413F900A4FE004FFC007900BED
:1078E00035E0FCA3E0FDA3E0FEA3E0FFE4AD07D09C
:1078F00007125AA6900B39E004F0413F900A4FE07E
:107900002402FFC007900B2DE0FCA3E0FDA3E0FEE6
:10791000A3E0E4FFFEED5403FDE4FC781012465EA4
:10792000AD07D007125AA6900B39E004F0413F9002
:107930000A4FE02403FFC007900B2DE0FCA3E0FDFD
:10794000A3E0FEA3E0E4FFEEE4FDFC780812465E4F
:10795000AD07D007125AA6900B39E004F0413F90D2
:107960000A4FE02404FFC007900B2DE0FCA3E0FDCC
:10797000A3E0FEA3E0FFE4AD07D007125AA6900BE8
:1079800039E004F0413F900A4FE02405FFC0079022
:107990000B31E0FCA3E0FDA3E0FEA3E0E4FFFEED7D
:1079A000540FFDE4FC781012465EC004C005C0060A
:1079B000C007A3E0FCA3E0FDA3E0FEA3E0E4FFFE1C
:1079C000ED540FFDE4FC780C12465ED003D002D0DB
:1079D00001D000EF4BFFEE4AED49EC48AD07D00770
:1079E000125AA6900B39E004F08054900A4FE0241C
:1079F00006FFC007900B31E0FCA3E0FDA3E0FEA36F
:107A0000E0E4FFEEE4FDFC780812465EAD07D00727
:107A1000125AA6900B39E004F08024900A4FE0241B
:107A200007FFC007900B31E0FCA3E0FDA3E0FEA33D
:107A3000E0FFE4AD07D007125AA6E4900B39F090AE
:107A40000B39E0FF22900A361246BE7F407E787DD9
:107A50007D7C01900A3A1246BE900B67E0147002DA
:107A600061CA1470030281861470030281DC1470F1
:107A70000302821314700302824F24056003028202
:107A8000699009A6E024FE601D146041240370562D
:107A9000900A36E0FCA3E0FDA3E0FEA3E0FF900B1C
:107AA0006E1246BE8040900A36E0FCA3E0FDA3E0E3
:107AB000FEA3E02464FFE43EFEE43DFDE43CFC90D4
:107AC0000B6E1246BE9009A67403F08019900A3618
:107AD000E0FCA3E0FDA3E0FEA3E0FF900B6E1246E6
:107AE000BEE49009A6F0900CE4E060026174900A94
:107AF00004E0FCA3E0FDA3E0FEA3E0FF900B6EE03A
:107B0000F8A3E0F9A3E0FAA3E02FFFEA3EFEE93D87
:107B1000FDE83CFC900B5CE0F8A3E0F9A3E0FAA3DD
:107B2000E0FBC312464D7003028269900A04E0FC38
:107B3000A3E0FDA3E0FEA3E0FF900B6EE0F8A3E05E
:107B4000F9A3E0FAA3E02FFFEA3EFEE93DFDE83CA1
:107B5000FC900B6A1246BE900B6AE0FCA3E0FDA30A
:107B6000E0FEA3E0FF900B5C1246BE900B67E004C2
:107B7000F0028269900B6EE0FCA3E0FDA3E0FEA39F
:107B8000E0FF900B5CE0F8A3E0F9A3E0FAA3E0FBD0
:107B9000C312464D7003028269900B6EE0FCA3E0B5
:107BA000FDA3E0FEA3E0FF900B6A1246BE900B6EB1
:107BB000E0FCA3E0FDA3E0FEA3E0FF900B5C124617
:107BC000BE900B67E004F0028269900A97E0900B88
:107BD00068F0900A80E0900B69F0E0FC1243C2E488
:107BE000FBFA79C8784212431B900A421246BE90B3
:107BF0000A42E0F8A3E0F9A3E0FAA3E0FBC000C06A
:107C000001C002C003900B68E0FC1243C2D003D055
:107C100002D001D000124121900A421246BE900BC0
:107C20006AE0FCA3E0FDA3E0FEA3E0FFE41243B89A
:107C30007B007A247974784912431B900A3E1246DD
:107C4000BE900A42E0FCA3E0FDA3E0FEA3E0FF90AB
:107C50000A3EE0F8A3E0F9A3E0FAA3E0FB12421227
:107C6000E4FBFA798078C0124212900A3E1246BEB6
:107C7000900A3EE0FCA3E0FDA3E0FEA3E0FF124378
:107C8000F6900A4A1246BEE4FFFEFDFC900A4AE066
:107C9000F8A3E0F9A3E0FAA3E0FBC3124637505182
:107CA000E47B04FAF9F8900A4AE0FCA3E0FDA3E0C3
:107CB000FEA3E0FF124B8EAC00AD01AE02AF03E4B9
:107CC000FBFAF9F8C31246377002A15C900A4AE049
:107CD000FCA3E0FDA3E0FEA3E0FFE40BF8EF2BFF25
:107CE000EA3EFEE93DFDE83CFC900A4A1246BE80B1
:107CF000AFE4FFFEFDFC900A4AE0F8A3E0F9A3E040
:107D0000FAA3E0FBD31246374052E47B04FAF9F8B9
:107D1000900A4AE0FCA3E0FDA3E0FEA3E0FF124BC3
:107D20008EAC00AD01AE02AF03E4FBFAF9F8C3126A
:107D300046376028900A4AE0FCA3E0FDA3E0FEA3DA
:107D4000E0FF74FFEF24FFFFEE34FFFEED34FFFD94
:107D5000EC34FFFC900A4A1246BE80AE900B6AE0FB
:107D6000FCA3E0FDA3E0FEA3E0FFE47B04FAF9F846
:107D70001244FF900B6A1246BE900B6AE0F8A3E033
:107D8000F9A3E0FAA3E0FB900A4AE0FCA3E0FDA31C
:107D9000E0FEA3E0FFEB2FFFEA3EFEE93DFDE83CFD
:107DA000FC900B6A1246BEE4900B64F0900A4EF011
:107DB0007F06FEFDFC900B60E0F8A3E0F9A3E0FA7B
:107DC000A3E0FBC312464D5002C189E4FFFEFDFC57
:107DD000900B6AE0F8A3E0F9A3E0FAA3E0FBD3126A
:107DE000464D5002C189900B60E0F8A3E0F9A3E092
:107DF000FAA3E0FB7F007EE97DA47C3512458A90E2
:107E00000B6AE0F8A3E0F9A3E0FAA3E0FBD3124683
:107E10004D5076900B6AE0FCA3E0FDA3E0FEA3E0EA
:107E2000FF900B60E0F8A3E0F9A3E0FAA3E0FB12F7
:107E300044FF900B471246BE7F007E467DC37C23E5
:107E4000900B47E0F8A3E0F9A3E0FAA3E0FBC3122C
:107E5000464D4035900A3AE0F8A3E0F9A3E0FAA3D2
:107E6000E0FB900B47E0FCA3E0FDA3E0FEA3E0FFF6
:107E700012458A900B4FEFF0C3940F400CE0D3945F
:107E80005A5006900A4E7401F0900A4EE06021901C
:107E90000B60E0FCA3E0FDA3E0FEA3E0FF900B5825
:107EA0001246BE900B647401F0900AA2F002808D1D
:107EB000900B6AE0F8A3E0F9A3E0FAA3E0FB7F806F
:107EC0007E177DB47C2C12458A900B581246BEE476
:107ED0007F06FEFDFC900B58E0F8A3E0F9A3E0FA62
:107EE000A3E0FBC312464D500CE47F06FEFDFC9060
:107EF0000B581246BEE47F087E07FDFC900B58E04D
:107F0000F8A3E0F9A3E0FAA3E0FBD312464D400D3D
:107F1000E47F087E07FDFC900B581246BE900B587C
:107F2000E0FCA3E0FDA3E0FEA3E05401FFE4FEFDBE
:107F3000FCEF6026900B58E0FCA3E0FDA3E0FEA35D
:107F4000E0FF74FFEF24FFFFEE34FFFEED34FFFD92
:107F5000EC34FFFC900B581246BEE47F06FEFDFC9D
:107F6000900B58E0F8A3E0F9A3E0FAA3E0FBC312FA
:107F7000464D500CE47F06FEFDFC900B581246BEA9
:107F8000900B6AE0FCA3E0FDA3E0FEA3E0FF900BF2
:107F900058E0F8A3E0F9A3E0FAA3E0FB1244FF9055
:107FA0000B471246BE7F007EE97DA47C35900B47CF
:107FB000E0F8A3E0F9A3E0FAA3E0FBD312464D50AA
:107FC0001C7F007E467DC37C23900B47E0F8A3E036
:107FD000A3E0A3E0C312464D4003028084900B6AE5
:107FE000E0F8A3E0F9A3E0FAA3E0FB7F007EE97DDF
:107FF000A47C3512458A900B581246BE900B58E06F
:10800000FCA3E0FDA3E0FEA3E05401FFE4FEFDFCC1
:10801000EF6026900B58E0FCA3E0FDA3E0FEA3E098
:10802000FF74FFEF24FFFFEE34FFFEED34FFFDECA5
:1080300034FFFC900B581246BEE47F06FEFDFC9018
:108040000B58E0F8A3E0F9A3E0FAA3E0FBC3124663
:108050004D500CE47F06FEFDFC900B581246BE907E
:108060000B6AE0FCA3E0FDA3E0FEA3E0FF900B5849
:10807000E0F8A3E0F9A3E0FAA3E0FB1244FF900BC1
:10808000471246BEE4900B64F0900AA2F0900A3AC0
:10809000E0F8A3E0F9A3E0FAA3E0FB900B47E0FCD3
:1080A000A3E0FDA3E0FEA3E0FF12458A900B4FEF93
:1080B000F0900A3AE0F8A3E0F9A3E0FAA3E0FB901D
:1080C0000B47E0FCA3E0FDA3E0FEA3E0FF12458A1E
:1080D000AC00AD01AE02AF03900B4B1246BE900B4D
:1080E0004BE0FCA3E0FDA3E0FEA3E0FFE41243B8F5
:1080F000900A461246BE900A46E0FCA3E0FDA3E0CB
:10810000FEA3E0FF7BF07AFF797F7849124212905C
:108110000A461246BE900A46E0FCA3E0FDA3E0FE3C
:10812000A3E0FFC004C005C006C007900A3AE0FC07
:10813000A3E0FDA3E0FEA3E0FFE41243B8A804A976
:1081400005AA06AB07D007D006D005D00412431B02
:10815000900A461246BE900A46E0FCA3E0FDA3E06A
:10816000FEA3E0FF1243F6900B501246BE7FFF7E47
:10817000FF7D0F7C00900B541246BEE4900B66F01E
:10818000A3E004F04169900B64E07011A3E0700D6E
:108190007D807F10125AA6900B657401F0900B50F1
:1081A000E0FCA3E0FDA3E0FEA3E0FF900A5112462D
:1081B000BE900B54E0FCA3E0FDA3E0FEA3E0FF9023
:1081C0000A551246BE900B4FE0FD7F1A12773FEF23
:1081D00060024169900B67E004F04169900B64E034
:1081E0006008900B67E004F0807F900B58E0FCA3E0
:1081F000E0FDA3E0FEA3E0FF900A501246BEE4902B
:108200000A54F07F2A125AE9EF705E900B67E0047F
:10821000F08056900AA2E070157DA07FB1125AA698
:10822000900AA27401F0900B667406F08005E49049
:108230000B66F0900B58E0FCA3E0FDA3E0FEA3E08A
:10824000FF900B601246BE900B677405F0801A9089
:108250000B66E0600414F080107D4F7F10125AA668
:10826000E4900B65F0900B67F0900B67E0FF2290B5
:108270000A331246BE900A377401F0E4FFFEFDFC9B
:10828000900A70E0F8A3E0F9A3E0FAA3E0FBC312C0
:10829000464D7017900A33E0FCA3E0FDA3E0FEA377
:1082A000E0FF900A701246BE7F0022900A70E0FC48
:1082B000A3E0FDA3E0FEA3E0FFFBAA06A905A80436
:1082C000900A33E0FCA3E0FDA3E0FEA3E0C39BFF24
:1082D000EE9AFEED99FDEC98FC124BF8900A3812DC
:1082E00046BE7F807E847D1E7C00900A38E0F8A325
:1082F000E0F9A3E0FAA3E0FBC312464D4007E49087
:108300000A37F08079E47BE87A03F9F8900A33E0E1
:10831000FCA3E0FDA3E0FEA3E0FF12458AE47B108E
:108320007A27F9F81244FFE47BE87A03F9F812455A
:108330008A900A3C1246BE900A3CE0A3E0A3E0FE0D
:10834000A3E0C394F4EE9401500DE47FF47E01FDAC
:10835000FC900A3C1246BE900A3CE0FCA3E0FDA360
:10836000E0FEA3E0FF900A38E0F8A3E0F9A3E0FA0A
:10837000A3E0FBD312464D4005E4900A37F0900A83
:1083800033E0FCA3E0FDA3E0FEA3E0FF900A70123F
:1083900046BE900A37E0FF22900A3DEDF0900A3C7D
:1083A000EFF0900A3F7403F0EF2410FF7B017A0A8C
:1083B000793E9128EF7070900A3DE014601D1460C2
:1083C0002F14604124037050900A3EE0FFA3E0F4B4
:1083D000FEEF5E900A3EF0E0F0803D900A3EE0FF46
:1083E000A3E0F4FEEF5E900A3EF0E04401F0802846
:1083F000900A3EE0FFA3E0F4FEEF5E900A3EF0E05C
:108400004402F08013900A3EE0FFA3E0F4FEEF5E2A
:10841000900A3EF0E04403F0900A3CE02410FF9004
:108420000A3EE0FD125AA622900A40EFF0A3EBF0BC
:10843000A3EAF0A3E9F0E4A3F0A3F07B01A304F026
:10844000A3740AF0A37440F091AF900A45EFF06472
:10845000806056A3E0FBA3E0FAA3E0F9900A617400
:1084600001F0E4A3F07F60B133900A45EFF091AFE3
:10847000EF30E1FA900A45E0702F900A41E0FBA34B
:10848000E0FAA3E0F9900A4D7401F0E4A3F07F60F4
:10849000D1C0900A45EFF091AFEF30E0FA900A4575
:1084A000E06006900A447401F0900A44E0FF2290D4
:1084B00044C97480F0900CBCE0FF900CE5E054409F
:1084C0006004EF4404FF9044C17480F022E4900AF9
:1084D00030F0A3F0A3F0A3F0900A30EFF0E4900A9C
:1084E00034F0900A34E0C3940850427B017A0A7950
:1084F00030900A617401F0E4A3F07F40B133900A38
:1085000032EFF091AFEF30E1FA125FEB900A33EF08
:10851000F0B40108900A317401F08011E47F05FE87
:10852000FDFC1258E5900A34E004F080B5900A3161
:10853000E0FF22900A5EEBF0A3EAF0A3E9F0AC07BB
:108540007D02900A5EE0FBA3E0FAA3E04A4B7002D2
:10855000A1DF900CE5E0B4100F9049D9E054087009
:1085600003FD801A7D018016900CE5E0B4600FE4F5
:10857000FD9044D97480F0900CBCE054F7F0ED709D
:108580005E900CE57445F0E4900CB8F0900A61E060
:10859000900CBBF0900A5EE0F9A3E0FAA3E0900C27
:1085A000B4C9F0A3EAF0A3E9F0900A62E0FF900CEE
:1085B000B9F0900CBCE054FDF0AE04EE25E090491B
:1085C000D8F0EF5401600CA37412F09049D77404F2
:1085D000F080069049D97401F09044C17480F0AFE6
:1085E0000522900A3DEDF0900A3CEFF0E4900A3F3E
:1085F000F0EFC394004011900A3CE0D3940350087C
:10860000900A3F7418F08016900A3CE0FFC3940073
:10861000400CEFD394035006900A3F7419F0900A6F
:108620003FE0FF7B017A0A793E9128900A3CE0FF07
:10863000C39400403AEFD394035034900A3EE0FFD5
:10864000900A3CE025E0FE7403A806088002C333CC
:10865000D8FCF45F900A3EF0E0FF900A3DE0FDA8F0
:1086600006088002C333D8FC4F900A3EF080449045
:108670000A3CE0FFC39400403AEFD3940350349097
:108680000A3EE0FF900A3CE024FC25E0FE7403A8CB
:1086900006088002C333D8FCF45F900A3EF0E0FF86
:1086A000900A3DE0FDA806088002C333D8FC4F9035
:1086B0000A3EF0900A3FE0FF900A3EE0FD025AA613
:1086C000900A4AEBF0A3EAF0A3E9F0AC077D029030
:1086D0000A4AE0FBA3E0FAA3E04A4B7002E16E9085
:1086E0000CE5E0B4100F9049D9E054087003FD8008
:1086F0001A7D018016900CE5E0B4600FE4FD904413
:10870000D97480F0900CBCE054F7F0ED7060900CE0
:10871000E57449F0E4900CB7F0900A4DE0900CBA83
:10872000F0900A4AE0F9A3E0FAA3E0900CBDC9F08A
:10873000A3EAF0A3E9F0900A4EE0FF900CB9F090A4
:108740000CBCE054FEF0AE04EE25E044019049D8A4
:10875000F0EF5401600CA37412F09049D77404F048
:1087600080069049D97401F09044C17480F0AF053F
:1087700022E4900A36F0A3F0128CF9E47F64FEFD47
:10878000FC1258E57B007A808B828A83E0900A97FE
:10879000F08B828A83A3E0900A80F08B828A83A385
:1087A000A3A3E0900A36F0EB2404F582E43AF583C3
:1087B000E0900A37F0900A36E0B40112900A97E090
:1087C000FF3395E0FE7CFF7DFF1244A2EFF0900A9C
:1087D00037E0B40112900A80E0FF3395E0FE7CFFA1
:1087E0007DFF1244A2EFF0AE02AF038F828E83A30F
:1087F000A3E0900CE0F0E4F022E4900A34F0900A58
:1088000037F0A3F0900A357480F0A3E4F011C8901B
:108810000A34EFF0E06407700201C0900A37740573
:10882000F0900A37E0FFC39410501474892FF5823A
:10883000E4340CF583E4F0900A37E004F080E29031
:108840000A97E0C364809480501AE0FF3395E0FEFD
:108850007CFF7DFF1244A2900C89EFF0900C8C7489
:1088600001F0800D900A97E0900C89F0E4900C8C58
:10887000F0900A80E0C364809480501AE0FF339542
:10888000E0FE7CFF7DFF1244A2900C8AEFF0900C7A
:108890008D7401F0800D900A80E0900C8AF0E490D5
:1088A0000C8DF0900CE0E0900C8BF07B017A0C7951
:1088B00089E4FD3101E49009FFF09009A67402F00B
:1088C000900A34E0FF7E002231B2904722E0540249
:1088D0006023E054026009E0FF1313543FFF80025D
:1088E0007FFFEF7006900A39F08006900A3974FF16
:1088F000F031F18006900A397407F0900A39E0FFF0
:1089000022900A39EBF0A3EAF0A3E9F0A3EDF031ED
:10891000B2900A3CE0C39480400221A65148EF7017
:108920007D900A3D74FFF0900A39E0FBA3E0FAA3C2
:10893000E0F9900A42E4F0A37410F07F40D117EF01
:1089400064077068904722E0540260F8904722E084
:1089500054026009E0FF1313543FFF80027FFFEFD2
:108960007004900A3DF0900A3DE0702A900A3CE0C5
:10897000FD7C00900CD5E0FBA3E0900A42F07F4024
:10898000B163EFB40708900A3D7407F0801E900AA7
:108990003D74FFF08016900A3D74FFF0800E900A3F
:1089A0003D7404F08006900A3D7401F0900A3DE0A9
:1089B000FF22124CCE9043A0E04408F09043B0E078
:1089C0004408F0024CB6900A3074FFF031B25148BE
:1089D000EF70127F017100EFB40706900A30740740
:1089E000F031F18006900A307404F0900A30E0FF14
:1089F00022124CCEE4900CF5F0024CB631B2514844
:108A0000EF703991FB900A39EFF06407702A9047B4
:108A100022E0540270087F01FE124C7080F09047F3
:108A200022E054026009E0FF1313543FFF80027FED
:108A3000FFEF7004900A39F031F18006900A397422
:108A400004F0900A39E0FF22900A3E7404F0124CC0
:108A5000CE900CF5E0700704F0E4900A3EF0124C62
:108A6000B6900A3EE0FF2231B2900A3974FFF0510D
:108A700048EF70387F017100EF6407702B7B017A3B
:108A80000C79D57D02B1B7EFB40215E4900A39F044
:108A9000904722E0540270107F01FE124C7080F06B
:108AA000904722E0540260D531F18006900A397473
:108AB00004F0900A39E0FF2231FC900A38EFF070A0
:108AC000075167900A38EFF0900A38E0FF2251B85A
:108AD000124CCE9043A0E04408F09043B0E044082C
:108AE000F090470174C8F09043ACE04410F090431C
:108AF000BCE04410F0904700E0542060F8024CB60F
:108B00007E07904722E05402601F90472074B6F021
:108B100074E1F0740EF0904722E054027007904721
:108B200020EFF080067E0980027E04AF0622900AC4
:108B300030EBF0A3EAF0A3E9F0904722E0540260A2
:108B40000261D3E0FF1313543F600261CBE0540194
:108B5000602C904720E0900A33F0904722E05401C7
:108B60006003D38001C340097F017E00124C7080F6
:108B7000E9904720E0900A34F0E4A3F08006900AE0
:108B8000357407F0900A35E0704F900A33E0B40175
:108B900016A3E0FF900A30E0FBA3E0FAA3E0F9E4BB
:108BA0008FF01244E0801D900A34E0FFC3E49FFF81
:108BB000E49400F9900A30E0FBA3E0FAA3E0C98F47
:108BC000F01244E0E4900A35F0800E900A35740704
:108BD000F08006900A357410F0900A35E064076062
:108BE0000231F1900A35E0FF22E4900A2FF0FFFEF7
:108BF000FDFC900C78E0F8A3E0F9A3E0FAA3E0FB19
:108C0000C312464D600281D2900C74E07002A3E062
:108C1000600281C3900C73E014604114700281A063
:108C20002402600281F831C6900A2FEFF024FC6024
:108C30001724F4600D2409600281F8900C73E0049D
:108C4000F022E4900C73F0227B017A0C7976712E7D
:108C5000900A2FEFF0E4900C73F022227B017A0C43
:108C60007976712E900A2FEFF024F9602524F760B1
:108C7000282410600281F8900C76E0FEA3E0FFEE5D
:108C80003395E0FDFC900C811246BE900C73E0041D
:108C9000F022900C737401F022E4900C73F0222205
:108CA000900C81E0FCA3E0FDA3E0FEA3E0FFA31293
:108CB00046BE900C747427F0A37410F0E4900C730B
:108CC000F02222900C75E024FFF0900C74E034FF49
:108CD000F022900C78E0FCA3E0FDA3E0FEA3E0FF0F
:108CE00074FFEF24FFFFEE34FFFEED34FFFDEC34A4
:108CF000FFFC900C781246BE2241CE7F079047229F
:108D0000E05402600E90472074B6F074E0F0740DE9
:108D1000F080027F0422E4900A31F0A3F0A3F090E7
:108D20000A2F7480F0A3E4F0900A97E0900A32F0E2
:108D3000900A80E0900A33F09009FFE0B40323909A
:108D40000ABEE0900A32F0900AA1E0900A33F09057
:108D50000A32E0900A97F0900A33E0900A80F0120D
:108D600087F922900A3FECF0A3EDF0AC077D079065
:108D70004722E05402603B90472074B6F074D8F06C
:108D80007405F0904722E054027023904720ECF0E5
:108D9000900A3FE0904720F0900A3FE0A3E0904720
:108DA00020F0EBF0900A42E0904720F080067D0929
:108DB00080027D04AF0522900A3AEBF0A3EAF0A30B
:108DC000E9F0A3EDF0E4A3F0900A3DE0FFA3E0C3D7
:108DD0009F503E904722E054016003D38001C3407E
:108DE000097F017E00124C7080E9904720E0FF90DF
:108DF0000A3AE0FBA3E0FAA3E0F9900A3EE0FEE9BC
:108E00002EF9E43AFAEF124490900A3EE004F08022
:108E1000B7900A3EE0FF22900A3FEBF0A3EAF0A3EE
:108E2000E9F0900A447407F0904722E05402604E43
:108E300090472074B6F074D5F07402F0904722E0A9
:108E400054027032904720EFF0E4FFFED3900A43C3
:108E5000E09F900A42E09E402B900A3FE0FBA3E097
:108E6000FAA3E02FF9EA3EFA124477904720F00F78
:108E7000EF70010E80D6900A447409F08006900AC3
:108E8000447404F0900A44E0FF22900A99E0FCA3A5
:108E9000E0FDA3E0FEA3E0FF900CD7E0F8A3E0F92B
:108EA000A3E0FAA3E0FBC312464D70030293F790D0
:108EB0000A99E0FCA3E0FDA3E0FEA3E0FF900CD73D
:108EC0001246BE7FC07E3B7D477C03900CD7E0F806
:108ED000A3E0F9A3E0FAA3E0FBD312464D400990CA
:108EE0000CC0740CF00290807FC07E057DD97C019F
:108EF000900CD7E0F8A3E0F9A3E0FAA3E0FBD312CB
:108F0000464D4009900CC0740BF00290807F807E2B
:108F1000BA7D8C7C01900CD7E0F8A3E0F9A3E0FACD
:108F2000A3E0FBD312464D4009900CC0740AF00236
:108F300090807F807EB17D4F7C01900CD7E0F8A3BC
:108F4000E0F9A3E0FAA3E0FBD312464D4009900CF0
:108F5000C07409F00290807FC07EEA7D217C019080
:108F60000CD7E0F8A3E0F9A3E0FAA3E0FBD31246A4
:108F70004D4009900CC07408F00290807F007E2460
:108F80007DF47C00900CD7E0F8A3E0F9A3E0FAA30D
:108F9000E0FBD312464D4009900CC07407F00290DC
:108FA000807F007E1B7DB77C00900CD7E0F8A3E0AB
:108FB000F9A3E0FAA3E0FBD312464D4009900CC0A0
:108FC0007406F00290807F407E547D897C00900C76
:108FD000D7E0F8A3E0F9A3E0FAA3E0FBD312464DF3
:108FE0004009900CC07405F00290807F807E8D7DDA
:108FF0005B7C00900CD7E0F8A3E0F9A3E0FAA3E0D3
:10900000FBD312464D4008900CC07404F080717F71
:10901000407E4B7D4C7C00900CD7E0F8A3E0F9A398
:10902000E0FAA3E0FBD312464D4008900CC0740355
:10903000F0804D7FC07EC67D2D7C00900CD7E0F87F
:10904000A3E0F9A3E0FAA3E0FBD312464D40089059
:109050000CC07402F080297F607EE37D167C009056
:109060000CD7E0F8A3E0F9A3E0FAA3E0FBD31246A3
:109070004D4008900CC07401F08005E4900CC0F0E5
:109080007F007E367D6E7C01900CD7E0F8A3E0F97E
:10909000A3E0FAA3E0FBD312464D4007E4FF125FC2
:1090A000F121347FC07EE17DE47C00900CD7E0F8B4
:1090B000A3E0F9A3E0FAA3E0FBD312464D40077FFB
:1090C00001125FF1806E7F407E547D897C00900CA0
:1090D000D7E0F8A3E0F9A3E0FAA3E0FBD312464DF2
:1090E00040077F02125FF1804B7FC07E307D467C5F
:1090F00000900CD7E0F8A3E0F9A3E0FAA3E0FBD3DB
:1091000012464D40077F03125FF180287F807EB9B1
:109110007D2A7C00900CD7E0F8A3E0F9A3E0FAA345
:10912000E0FBD312464D40077F04125FF180057FBC
:1091300005125FF1900CE37401F07F207E297D1B06
:109140007C00900CD7E0F8A3E0F9A3E0FAA3E0FBE1
:10915000C312464D40247F907EAB7D1E7C00900C58
:10916000D7E0F8A3E0A3E0A3E0D312464D500BE410
:109170009009F8F0900CE3F061CA7FC07E197D354C
:109180007C00900CD7E0F8A3E0F9A3E0FAA3E0FBA1
:10919000C312464D40267F107E307D3D7C00900CF2
:1091A000D7E0F8A3E0A3E0A3E0D312464D500D9022
:1091B00009F87401F0E4900CE3F061CA7F247E08A2
:1091C0007D517C00900CD7E0F8A3E0F9A3E0FAA36E
:1091D000E0FBC312464D40267F7C7E9A7D527C0088
:1091E000900CD7E0F8A3E0A3E0A3E0D312464D50E3
:1091F0000D9009F87402F0E4900CE3F061CA7FA0CE
:109200007E817D6A7C00900CD7E0F8A3E0F9A3E0B2
:10921000FAA3E0FBC312464D40267FB07E8A7D6FE5
:109220007C00900CD7E0F8A3E0A3E0A3E0D31246C3
:109230004D500D9009F87403F0E4900CE3F061CA0E
:109240007F007ECF7D997C00900CD7E0F8A3E0F9F9
:10925000A3E0FAA3E0FBC312464D40267F807E07C1
:109260007D9B7C00900CD7E0F8A3E0A3E0A3E0D3C3
:1092700012464D500D9009F87404F0E4900CE3F0A0
:1092800061CA7F007E647D137C01900CD7E0F8A357
:10929000E0F9A3E0FAA3E0FBC312464D40267F901D
:1092A0007E407D157C01900CD7E0F8A3E0A3E0A3FD
:1092B000E0D312464D500D9009F87406F0E4900C7E
:1092C000E3F061CA7F607E517DD57C00900CD7E0D1
:1092D000F8A3E0F9A3E0FAA3E0FBC312464D402651
:1092E0007FC07E1D7DDB7C00900CD7E0F8A3E0A35F
:1092F000E0A3E0D312464D500D9009F87405F0E458
:10930000900CE3F061CA7F207E217D407C01900CAF
:10931000D7E0F8A3E0F9A3E0FAA3E0FBC312464DBF
:1093200040267F207E747D477C01900CD7E0F8A317
:10933000E0A3E0A3E0D312464D500D9009F8740766
:10934000F0E4900CE3F061CA7F707E7C7D7B7C0151
:10935000900CD7E0F8A3E0F9A3E0FAA3E0FBC31276
:10936000464D40267F407E787D7D7C01900CD7E085
:10937000F8A3E0A3E0A3E0D312464D500D9009F806
:109380007408F0E4900CE3F080407FE07EF07DAA6A
:109390007C01900CD7E0F8A3E0F9A3E0FAA3E0FB8E
:1093A000C312464D40247FB07E567DC57C01900C93
:1093B000D7E0F8A3E0A3E0A3E0D312464D500B9012
:1093C00009F87409F0E4900CE3F07FE07EF07DAAE8
:1093D0007C01900CD7E0F8A3E0F9A3E0FAA3E0FB4E
:1093E000C312464D4011900A02E0600B9009F874D8
:1093F00009F0E4900CE3F07F002290FFFC1246FCA1
:109400001246BE90FFF61246FC7B01900006124702
:1094100020A982AA83850883850982EBF0A3EAF05C
:10942000A3E9F07B0190000A124720A982AA839049
:109430000003124720EBF0A3EAF0A3E9F090000349
:10944000124720E0FBA3E0FAA3E02403F9E43AFA90
:10945000124477FF850883850982E0FBA3E0FAA325
:10946000E0F9EF124490900003124720E0FBA3E0E4
:10947000FAA3E02402F9E43AFA124477FF8508835C
:10948000850982E0FBA3E0FAA3E02401F9E43AFABB
:10949000EF124490900003124720E0FBA3E0FAA3F0
:1094A000E02401F9E43AFA124477FF85088385093C
:1094B00082E0FBA3E0FAA3E02402F9E43AFAEF1217
:1094C0004490900003124720E0FBA3E0FAA3E0F9E8
:1094D000124477FF850883850982E0FBA3E0FAA3A5
:1094E000E02403F9E43AFAEF1244909000061247A0
:1094F00020E0FCA3E0FDA3E0FEA3E0FF90000E024D
:1095000046FCE4FF900CE4E060037410FF90099CBB
:10951000E0FE30E004EF4420FFEE30E104EF4402CF
:10952000FF22E4900A0DF0906000E0900A0EF090A7
:109530006001E0900A0FF0900A0EE05480648060B1
:1095400003029863A3E01246D6957D0095A9029781
:109550008B0696CA2097AD3395E83A960E3C964115
:109560003D966C3F968E5096A25197D694981D9535
:10957000970DA4972EA59753BF00009863900C4AAF
:1095800074E8F0A37403F09009187401F0A3740C4C
:10959000F0A3744AF0900916E4F0A37402F0129B51
:1095A000E7900A0DEFF0029863B102900C4AEFF0D9
:1095B000E0FCA3E0FDA3E0FEA3E0FFEEEDEC440839
:1095C000FC900C4A1246BE9009187401F0A3740C6A
:1095D000F0A3744AF0900916E4F0A304F0129BE79C
:1095E000900A0DEFF00298637A0A79AE9009187428
:1095F00001F0A3740AF0A374AEF0900916E4F0A38E
:109600007404F0129BE7900A0DEFF00298637F70EC
:109610007E3D7D0A7C071267F0900C4A1246BE9090
:1096200009187401F0A3740CF0A3744AF0900916A1
:10963000E4F0A37404F0129BE7900A0DEFF0029897
:10964000637A0A79B29009187401F0A3740AF0A33E
:1096500074B2F0900916E4F0A37404F0129BE79042
:109660000A0DEFF0E4900C4EF00298639009187424
:1096700001F0A3740AF0A374B8F0900916E4F0A303
:109680007406F0129BE7900A0DEFF0029863906069
:1096900002E030E008900CE47401F08005E4900CE6
:1096A000E4F0B102900C4AEFF09009187401F0A3B5
:1096B000740CF0A3744AF0900916E4F0A304F012BD
:1096C0009BE7900A0DEFF0029863906003E06487D7
:1096D00060030298637B027A607904124D0AEF649A
:1096E000014E6003029863900C4AF07B01900918C8
:1096F00004F0A3740CF0A3744AF0900916E4F0A3EC
:1097000004F0129BE7900A0DEFF00298639009189D
:109710007401F0A37409F0A3749CF0900916E4F0AE
:10972000A304F0129BE7900A0DEFF00298637A0908
:1097300079A29009187401F0A37409F0A374A2F03F
:10974000900916E4F0A304F0129BE7900A0DEFF0E5
:10975000029863900C85E0FCA3E0FDA3E0FEA3E08B
:10976000FF71FA900C541246BE9009187401F0A3D0
:10977000740CF0A37454F0900916E4F0A37404F090
:10978000129BE7900A0DEFF002986390091874019C
:10979000F0A3740AF0A37410F0900916E4F0A37417
:1097A00004F0129BE7900A0DEFF0029863900A977D
:1097B000E0900C45F09009187401F0A3740CF0A32C
:1097C0007445F0900916E4F0A304F0129BE7900AA8
:1097D0000DEFF0029863900A97E0FF3395E0FEFDED
:1097E000FC900C461246BE900C46E0FCA3E0FDA3A4
:1097F000E0FEA3E0FF71FA900C501246BE900918EB
:109800007401F0A3740CF0A37450F0900916E4F006
:10981000A37402F071E7900A0DEFF08046900A8081
:10982000E0FF3395E0FEFDFC900C461246BE900C26
:1098300046E0FCA3E0FDA3E0FEA3E0FF1293FA9054
:109840000C501246BE9009187401F0A3740CF0A3DA
:109850007450F0900916E4F0A37402F071E7900AD6
:109860000DEFF0900A0EE05480600261ABA3E012AD
:1098700046D698B83098D83298FC339972359937D3
:109880003A9A11709A91719A30729AB0739ACF7510
:109890009AEE769B0D779A4F7A9B2C7B9B6A7D9BE9
:1098A0004B7F9A6E909B899C9995A099B4A999D366
:1098B000F399F2F700009BAB9009187401F0A374C0
:1098C0000AF0A3748DF0900916E4F0A37406F07109
:1098D000B1900A0DEFF061AB7A0A79AE9009187475
:1098E00001F0A3740AF0A374AEF0900916E4F0A39B
:1098F0007404F071B1900A0DEFF061AB7A0A79BE91
:109900009009187401F0A3740AF0A374BEF09009D2
:1099100016E4F0A304F071B1900A0DEFF0900ABEC6
:10992000E0FF3395E0FEFDFC900C411246BE90092D
:10993000FFE04401F061AB7A0A79A1900918740143
:10994000F0A3740AF0A374A1F0900916E4F0A30444
:10995000F071B1900A0DEFF0900AA1E0FF3395E0AD
:10996000FEFDFC900C3D1246BE9009FFE04402F063
:1099700061AB7A0A79C79009187401F0A3740AF0F0
:10998000A374C7F0900916E4F0A304F071B1900A33
:109990000DEFF061AB9009187401F0A3740CF0A303
:1099A000744EF0900916E4F0A304F071B1900A0D22
:1099B000EFF061AB9009187401F0A3740AF0A3747E
:1099C00002F0900916E4F0A304F071B1900A0DEFD3
:1099D000F061AB9009187401F0A37409F0A374FB53
:1099E000F0900916E4F0A304F071B1900A0DEFF0C5
:1099F00061AB9009187401F0A37409F0A374F9F035
:109A0000900916E4F0A304F071B1900A0DEFF06133
:109A1000AB9009187401F0A3740AF0A37403F090DA
:109A20000916E4F0A304F071B1900A0DEFF061ABF8
:109A30009009187401F0A37409F0A3749FF09009C1
:109A400016E4F0A304F071B1900A0DEFF061AB9051
:109A500009187401F0A37409F0A374A7F090091613
:109A6000E4F0A304F071B1900A0DEFF061AB7A0A53
:109A700079D09009187401F0A3740AF0A374D0F09F
:109A8000900916E4F0A304F071B1900A0DEFF061B3
:109A9000AB9009187401F0A37409F0A374FEF09060
:109AA0000916E4F0A304F071B1900A0DEFF061AB78
:109AB0009009187401F0A37409F0A3749EF0900942
:109AC00016E4F0A304F071B1900A0DEFF061AB90D1
:109AD00009187401F0A37409F0A3749DF09009169D
:109AE000E4F0A304F071B1900A0DEFF061AB9009BE
:109AF000187401F0A37409F0A374FAF0900916E445
:109B0000F0A304F071B1900A0DEFF061AB90091869
:109B10007401F0A37409F0A374A5F0900916E4F0A1
:109B2000A304F071B1900A0DEFF0807F90091874D2
:109B300001F0A3740AF0A37409F0900916E4F0A3ED
:109B400004F071B1900A0DEFF08060900918740173
:109B5000F0A3740AF0A37401F0900916E4F0A304D2
:109B6000F071B1900A0DEFF080419009187401F086
:109B7000A3740AF0A37408F0900916E4F0A304F0AB
:109B800071B1900A0DEFF080227A0979A09009183E
:109B90007401F0A37409F0A374A0F0900916E4F026
:109BA000A37402F071B1900A0DEFF0900A0DE0FF7E
:109BB0002290092D7404F090092C7480F0D16E90DD
:109BC0006007E0FE906006E0FDEEEDFFD390091720
:109BD000E09F900916E09E4005EEF0A3EFF090099B
