:400000000204AE008F828E83E0540100000070F82278FFE4F6D8FD020513BB010689828A83E0225002E722BBFE02E32289828A83E49322BB010689828A83F0225002F722EC
:40004000BBFE01F322C5F0F8A3E028F0C5F0F8E582158270021583E038F022BB010A89828A83E0F5F0A3E022500687F009E71922BBFE07E3F5F009E3192289828A83E4930C
:40008000F5F074019322BB010A89828A83F0E5F0A3F0225006F709A7F01922BBFE06F3E5F009F31922EF2BFFEE3AFEED39FDEC38FC22C3EF9BFFEE9AFEED99FDEC98FC2258
:4000C000E88FF0A4CC8BF0A42CFCE98EF0A42CFC8AF0EDA42CFCEA8EF0A4CDA8F08BF0A42DCC3825F0FDE98FF0A42CCD35F0FCEB8EF0A4FEA9F0EB8FF0A4CFC5F02ECD3919
:40010000FEE43CFCEAA42DCE35F0FDE43CFC2275F008758200EF2FFFEE33FECD33CDCC33CCC58233C5829BED9AEC99E58298400CF582EE9BFEED9AFDEC99FC0FD5F0D6E440
:40014000CEFBE4CDFAE4CCF9A88222B800C1B90059BA002DEC8BF084CFCECDFCE5F0CBF97818EF2FFFEE33FEED33FDEC33FCEB33FB10D703994004EB99FB0FD8E5E4F9FAB4
:40018000227818EF2FFFEE33FEED33FDEC33FCC933C910D7059BE99A4007EC9BFCE99AF90FD8E0E4C9FAE4CCFB2275F010EF2FFFEE33FEED33FDCC33CCC833C810D7079BE4
:4001C000EC9AE899400AED9BFDEC9AFCE899F80FD5F0DAE4CDFBE4CCFAE4C8F922EF4BFFEE4AFEED49FDEC48FC22C3E49FFFE49EFEE49DFDE49CFC22EB9FF5F0EA9E42F065
:40020000E99D42F0E89C45F022E8600FECC313FCED13FDEE13FEEF13FFD8F122E8600FEFC333FFEE33FEED33FDEC33FCD8F122BB010789828A830202695005E9F802046CC1
:40024000BBFE05E9F802047889828A83020275BB010789828A830202915005E9F8020484BBFE05E9F802049022E0FCA3E0FDA3E0FEA3E0FF22E493FC740193FD740293FE49
:40028000740393FF22E0F8A3E0F9A3E0FAA3E0FB22ECF0A3EDF0A3EEF0A3EFF022A42582F582E5F03583F58322E0FBA3E0FAA3E0F922EBF0A3EAF0A3E9F022E493FB740165
:4002C00093FA740293F922BB010789828A830202A95005E9F802049CBBFE05E9F80204A589828A830202BBD083D082F8E4937012740193700DA3A393F8740193F582888356
:40030000E4737402936860EFA3A3A380DFE5092582F582E5083583F583B508048582092210AF06858209F50822858209F508D2AF22EC8EF0A4CCC5F0CCCDF8EFA4CEC5F068
:400340002DFDE43CFCE8A42EC8C5F03DFDE43CFCEFA4FFE5F028FEE43DFDE43CFC22EF4E6012EF60010EEDBB010B89828A83F0A3DFFCDEFA2289F05007F709DFFCA9F0221A
:40038000BBFEFCF309DFFCA9F022E709F608DFFA8046E709F208DFFA803E88828C83E709F0A3DFFA8032E309F608DFFA806EE309F208DFFA806688828C83E309F0A3DFFAFA
:4003C000805A89828A83E0A3F608DFFA804E89828A83E0A3F208DFFA804280D280FA80C680D4805580F28029801080A680EA809A80A880DA80E280CA802988848C85898224
:400400008A83E493A30586F0A30586DFF5DEF3800B89828A83E493A3F608DFF9ECFAA9F0EDFB2288848C8589828A83E0A30586F0A30586DFF6DEF480E389828A83E493A38E
:40044000F208DFF980D688F0EF60010E4E60CD88F0ED2402B4040050C3F582EB2402B4040050B923234582239003DA73E6FC08E6FD08E6FE08E6FF22E2FC08E2FD08E2FEDF
:4004800008E2FF22ECF608EDF608EEF608EFF622ECF208EDF208EEF208EFF222E6FB08E6FA08E6F922E2FB08E2FA08E2F92275930078007583467582E8E04401F000904691
:4004C000ECE0F99046FAE0FA9003E0F0B903225420B40012B8001AEA901FFFF07401901FFEF09046F6F0901FFEE06005901FFFE0FA90480074C0F07581591218019000006A
:4005000078007920E4F0A3D8FCD9FAEA9003E0F002001175081F7509FD1225A112148C02055D020B10E493A3F8E493A34003F68001F208DFF48029E493A3F85407240CC849
:40054000C333C4540F4420C8834004F456800146F6DFE4800B01020408102040809005A2E47E019360BCA3FF543F30E509541FFEE493A360010ECF54C025E060A840B8E4B5
:4005800093A3FAE493A3F8E493A3C8C582C8CAC583CAF0A3C8C582C8CAC583CADFE9DEE780BE4103E5004103E6004203F209D04203F409D14103FD004403DC016E36004458
:4005C00003D700005DC04103DB184403E12EE000004103FE004303ED0000004103FF004104000000EC4D6011ED60010C8B938A838982E4F0A3DDFCDCFA759300220221CF1E
:40060000EC4D4E700D78FCEF24E950032840FD2200007BF178DA0000EF28FF78FFEE38FEED38FDEC38FC50E7EF2BFFEE38FEED38FDEC38FC40F22205020304758600EF4E6B
:400640006027EF60010E759300900005E0F595A3E0F585A3E0F5848B938A838982E0A30586F0A31586DFF6DEF4E4F593F59522ACEAADA08E838F82E493F9601CA3E493F564
:40068000EAA3E493F5A0A3E49360F1FAA3E493F8A3E493F2DAF6D9E48DA08CEA22323200EEFA9003DBE0F88FF0A4FFAEF0E88AF0A42EFEE5F03400FDEF24C9FF78FFEE38CA
:4006C000FEED38FDE438FC500302060022758600EF4E601BEF60010E8C838D828B958A858984E493A30586F0A31586DFF5DEF3E4F59522EF54016004D2AF8002C2AFEF5473
:4007000002FF9044F4E054FD4FF0229044F4E0F84402F0E85402FF10AF012274014FFF228B938A838982E0FFA3E0FE759300228B938A838982EDF0A3ECF075930022900375
:40074000E0E0FA8E838F827400758101738B938A838982E0759300FF228B938A838982EDF0759300221201000200000008B4041DB701300203800109022900010100C002EB
:400780000904000002030000030921110100012224000705010340000107058203400001040309040C03410045003900520042002C034300790070007200650073007300F0
:4007C0002000530065006D00690063006F006E0064007500630074006F0072002203500053006F0043003300200042006F006F0074006C006F006100640065007200000A98
:40080000033000300030003100240005010900A1000900A1000900150025FF7508954091020900150025FF750895408102C0C00000240005010900A1000900A1000900151C
:400840000025FF7508954091020900150025FF750895408102C0C00000004101028E0102D200410102D50102CF00FF085900FF08610000000001FF083101FF078901FF08AD
:400880006900000103004003000082030040030301FF077702FF088101FF087D00FF088F01FF07650000000001FF089001FF08A00001010001000000400000080800080093
:4008C000C000006F0B00400000000040600060000000170045017E02004F010A4B00520509400C20102011207C400064017D01010501EE010109019C80010B039C80AA40FE
:40090000B401010C05B880BE41D804DB04DF01010D0618011A80588068028802D608011701EE0A0119029C80EE0A011B01B080014004320433803640CC700141039608A6B6
:4009400040A78001420A12805B0296089B02A640A780AB02C410D640EE80014303A640A780AE8401450464048804D801E401014603A102B502EC0801470408080F40A1021F
:40098000C20C014803AE40AF80EE50014C070F406102A102AC08AF40C204D802014D02B340EA04015101003A004F00000C005100001000513000400100001000011400086D
:4009C000000140000A00014C0002000150000020C7000040006930091E033C010144E342830143009481424400C0E0C0F0C083C082C085C084C086758600C093759300C05F
:400A0000D075D000C000C001C002C003C004C005C006C0079003E6E014604814607414700241C12403600241E19003EA1202A99003E5E0FF04F0E92FF9E43AFA12001A90EB
:400A400003E7F0E0FE5407A3F0EE70179003E5F09003E97402F09003E8E4F09003E67403F0807E9003E7E0FF30E7089003E97403F080069003E97401F0EF25E09003E7F0C4
:400A8000A3E014F0710AEF54FEFF71049003E67402F09003E9E070219003E67403F09003E8E07006A37402F080059003E9E4F0710AEF4401FF710480089003E9E014F08099
:400AC000209003E9E070149003E8E070069003E6F0800E9003E67401F080069003E9E014F0D007D006D005D004D003D002D001D000D0D0D093D086D084D085D082D083D057
:400B0000F0D0E03290647DEFF02290647DE0FF227BFF7A0979DD9003EA1202B29046FAE054C0644060251222C9EF30E01E122316EF600E7BFF7A0979E49003EA1202B2809D
:400B40000AE4FF91CBEF7003FF71E07E097FE971847160D2AF9044F474FDF0914480FE229003FDE0700871A69003FD7401F09043A3E04401F09043B3E04401F0904F00E0CD
:400B80004401F022900000EEF0A3EFF01222E6900000E0FEA3E0FF1222CF7F071222DC9044C07404F022904F00E05401F0904F02E054FCF0904F01E04401F0904F0BE05415
:400BC000CFF0E04430F0E054F0F0E0440FF07FF01223097FF01222EDE4FF904F03EFF0228F21E521B402079046FAE4F0804EAF2191CBEF7042F522E522C394015031AF223E
:400C00007E007C017D00120331C374D09FFF74FF9EFE74109DFDE49CFCE522B521047B0180027B00900004EBF0D152052280C89046FA7480F080059046FAE4F09046F6E0C4
:400C40004401F022752106E4FF91CBEF7002F521E4F54DF54CF54BF54A9003F4E0FEA3E0F5828E831202758F518E508D4F8C4EE4FFFE7D10FC12179C9003F2E0FCA3E0F570
:400C8000828C83E493FEC3EF9EFFF404FFB506129003F4E0FEA3E0F5828E83120275EF4E70057F001223259046FAE054C064406004E52160099046FAE4F0FF121BBBE4FFEE
:400CC000121BBB9046FA7480F0813C8F46AD467F03121822EF2401FFE43EFEE43DFDE43CFCE4FB7A01F9F81200C0C004C005C006C007AD467F04121822D003D002D001D05D
:400D0000001200A58F4E8E4D8D4C8C4BC201E4F54FAD467F03121822EF2401FFE43EFEE43DFDE43CFCE4FB7A01F9F81200C08F4A8E498D488C47AF4EAE4DAD4CAC4BAB4A29
:400D4000AA49A948A847C31201F85032854A82854983E493F5506005F46002D201E550254FF54FAF4AAE49AD48AC47E47B01FAF9F81200A58F4A8E498D488C4780B8AD461A
:400D80007F03121822EF2401FFE43EFEE43DFDE43CFCE4FB7A01F9F81200C078031202098F4A8E498D488C47E47FC07EFFFDFCAB4EAA4DA94CA84BC31201F87007FF7E2098
:400DC000FDFC800DAF4EAE4DAD4CAC4B78031202098F4E8E4D8D4C8C4BAF4EAE4DAD4CAC4BAB4AAA49A948A847C31201F85039E4254AFFE43549FEE5483408FDE43547A95D
:400E000007AA06AB0512074DEF254FF54FAF4AAE49AD48AC47E47B01FAF9F81200A58F4A8E498D488C4780B1E54FF404F54FAD467F01121822A804A905AA06AB07AF4FE40E
:400E4000FCFDFEC31201F870032001037F06227F0022900000120291900000120269E42FFFE43EFEED34F0FDEC34FFFC900005120291E4FBFA7901F8900005120269120187
:400E80004B900109EFF0900005120269EFEEE4FDFCFB7A01F9F812014B90010AEEF0A3EFF0900000120269EFFBE4FAF9F89000001202691200B290010C120291E4FBC3EA7D
:400EC0009401502590010C120269EF2BFFEE3A8F82F583E493FF74092BF58274003AF583EFF00BEB70010A80D5900000120269EFE4FE74092FF582EE3400F583E0FD90009C
:400F000004E0FCED6C601F74092FF582EE3400F583ECF0900109E0FFA3E0FCA3E0FD7B017A007909F12722900110EFF0D3943F40067E007F1080047E017F00900111EEF0BB
:400F4000A3EFF0900111E0FFA3E0900265CFF0A3EFF0900110E0FF900260ECF0A3EDF0A31202B290025FEFF0E4900267F0EFD3943F500E90025FE0940140069002677401D2
:400F8000F090025FE0FFD3947F40069002677401F0EFC39440400CEFD3944140069002677401F0EFD3943F501E900260E0FEA3E0FFE4FCFDFB7A01F9F8C31201F8502F9064
:400FC00002677401F08027D3900261E09480900260E0940040069002677401F0900265E07004A3E0641060069002677401F09002621202A9E94A4B700590026704F090028F
:4010000067E0600201CF3193EF600201C9900260E0FCA3E0FDA31202A9900265E0FFA3E090026ECFF0A3EFF090025FE0FF51B9900267EFF06407600201C5904722E054029C
:4010400070087F01FE1206A080F0904722E054026009E0FF1313543FFF80027FFFEF7006900267F0800690026774FFF0900267E0705390025FE0FFA3E0FCA3E0FD9003F005
:40108000E0FBA3E090026CF0510F900267EFF064077032904722E0540270087F01FE1206A080F0904722E054026009E0FF1313543FFF80027FFFEF7006900267F0800690BF
:4010C000026774FFF011D580069002677404F0900267E0FF2212070BE4900400F00206F331B23193EF703931C6900260EFF06407702A904722E0540270087F01FE1206A0ED
:4011000080F0904722E054026009E0FF1313543FFF80027FFFEF7004900260F011D580069002607404F0900260E0FF2211E090025FEFF07007314290025FEFF090025FE0C6
:40114000FF2231B290026074FFF03193EF70387F0131E1EF6407702B7B017A0379F07D025163EFB40215E4900260F0904722E0540270107F01FE1206A080F0904722E0549D
:401180000260D511D580069002607404F0900260E0FF229002687404F012070B900400E0700704F0E4900268F01206F3900268E0FF2212070B9043A0E04408F09043B0E0F0
:4011C0004408F00206F37F07904722E05402600E90472074B6F074E0F0740DF080027F04227E07904722E05402601F90472074B6F074E1F0740EF0904722E0540270079077
:401200004720EFF080067E0980027E04AF0622900269ECF0A3EDF0AC077D07904722E05402603B90472074B6F074D8F07405F0904722E054027023904720ECF0900269E002
:40124000904720F0900269E0A3E0904720F0EBF090026CE0904720F080067D0980027D04AF05229002611202B2900264EDF0E4A3F0900264E0FFA3E0C39F5037904722E0A0
:4012800054016003D38001C340097F017E001206A080E9904720E0FF9002611202A9900265E029F9E43AFAEF120033900265E004F080BE900265E0FF22900268EFF0A3ECC3
:4012C000F0A3EDF0A31202B29002707407F0904722E05402700261C590472074B6F074D5F07402F0904722E05402600261BD900268E0904720F0E4900271F0A3F090026E57
:40130000E0FEA3E0FF900271E0FCA3E0FDC39FEC9E501F90026B1202A9E92DF9EA3CFA12001A904720F0900271E475F00112004580CB90026EE064017002A3E0600261CBE0
:40134000900268E0FFD3943F400261CB7E007C207D00120331E42FFFE43EFEED3408FDE43CFCC004A905AA06AB07A3E0FEA3E0FF7C007D20120331D0001200A5900273125B
:401380000291E4900271F0A3F0900271E0FEA3E0FFC39420EE94005032E4FCFDA31202851200A5A907AA06AB0512074D904720EFF0900271E475F00112004580CC90027044
:4013C0007409F080069002707404F0900270E0FF227B007A4079807DBF7C5D12072F9040827419F09043007406F07B007A4279127D177C3312072F9042107405F0E0FFE49B
:401400007FC87E32FDFC900000120291900000120269D3EF9400EE94004029904210E054806021E47FE07E01FDFC12060090000012026974FFFBFAF9F81200A59000001290
:40144000029180C89042007452F07B0C7A01790F12074D9046A1EFF07B007A407904E4FDFC12072F9040047407F0904006E4F09040087448F0904004E4F0904009F090403E
:40148000017402F09043A2E04401F0227B007A4679E812074DEF4405FD7B007A4679E8120759E4F523E523C39408502CE52375F005A424A8F582E43409AF82F5218F22F58E
:4014C000831202BB8F82852183740393FC740493FD1205E4052380CD7E087FD212066F7B017A50790312074DEF4402FD7B017A5079031207597B017A50791312074DEF448B
:4015000002FD7B017A5079131207599043A0E04440F09043C2E04410F07C087DB07B007A5179C27F087E001206CD7C087DB87B007A5179F07F0A7E001206CD7C087DC27B3A
:40154000007A5179127F087E001206CD7C087DCA7B007A5179227F087E001206CD9044F47401F0904322E04408F09046ECE0C394055006904689743AF090480074F1F07168
:40158000D190480074B1F0B1AA7B007A4379A0C00179B09000051202B2D0017F0E7E0012063B9043B0E054FDF0227B0C7A0179CF12074DEF540790586EF0EFC4540FA3F09E
:4015C0009058767444F0228B4E8A4F89508C518D5274FFF553F554855157855258E552455170086354FF6353FFC173C3E5589552FFE5579551FEAB4EE5502FF9E54F3EFA70
:4016000012001A755500F556E4FDEDC39408503DE5565401FFE5545401FBE4EB6F6015E553C313FEE55413FFEE6484F553EF6408F554800BE553C313F553E55413F554E570
:4016400055C313F555E55613F5560D80BDE552155270021551E552455170906354FF6353FF855355855456E554FCE555FFECF553EFF554AE53AF54228B478A48894974011D
:40168000120033AB472549F9E43548FAEF120033E54BAB47E5492402F9E43548FAE54B120033E54AFFAB47E5492403F9E43548FAEF120033AB47AA48A949E54B2404FDE4B2
:4016C000354AFCB1C78E4C8F4DEFAB47E54B2404FDE4354AFCE5492DF9E5483CFAEF120033E54CFFAB47E54B2405FDE4354AFCE5492DF9E5483CFAEF120033AB47E54B24B9
:4017000006FFE4354AFEE5492FF9E5483EFA7417120033E54B2407FDE4354AFC75530075540075554A755696AB47AA48A9498C518D52E55675F00AA485F058F5599002630B
:40174000E4F0A37440F07F021228017F02F18BEF7019E55945586013E47F01FEFDFC122339E55915597002155880E07F02F18BEF70057557108011AB53AA54A955E5518598
:4017800052F0120086E4F557AF5722EF75F00BA42431F582E43403F583E0FF228F498E488D478C46E4F552D3E5519400E5509400404CAF51AE50AD4FAC4E74FFFBFAF9F8D6
:4017C0001200A58F518E508D4F8C4EE549254DFFE548354CFEE547354BFDE546354AFCEF2551FFEE3550FEED354FFDEC354EA907AA06AB0512074DEF2552F55280A9AF5225
:40180000229046FAE054C064807016F521F0AD217F021122EF4E6009AD217F02112212073E2290025FEDF0AB079002647402F0E4FFFEFDFCA3120291EB1202E718640118B6
:40184000900218B40318D80418FC0519260619740719500819980919BC0A19E60B1A100C00001A3A90025FE0FF7E007C017D001203311201EAEF24C0FFEE34FFFEED3410D6
:40188000FDE43CFCA31202919002647401F0414590025FE0FF7E007C017D00120331C374C39FFF74FF9EFE74109DFDE49CFCA3120291414590025FE0FF7E007C017D0012EF
:4018C0000331C374C79FFF74FF9EFE74109DFDE49CFCA3120291414590025FE0FF7E007C017D00120331C374CB9FFF74FF9EFE74109DFDE49CFCA3120291414590025FE02B
:40190000FF7E007C017D00120331C374D09FFF74FF9EFE74109DFDE49CFCA31202919002647401F0414590025FE0FF7E007C017D00120331C374D19FFF74FF9EFE74109D0F
:40194000FDE49CFCA31202919002647401F0414590025FE0FF7E007C017D00120331C374D69FFF74FF9EFE74109DFDE49CFCA3120291414590025FE0FF7E007C017D0012BB
:401980000331C374D29FFF74FF9EFE74109DFDE49CFCA3120291414590025FE0FF7E007C017D00120331C374D49FFF74FF9EFE74109DFDE49CFCA3120291414590025FE056
:4019C000FF7E007C017D00120331C374D89FFF74FF9EFE74109DFDE49CFCA31202919002647404F0805F90025FE0FF7E007C017D00120331C374DC9FFF74FF9EFE74109DE0
:401A0000FDE49CFCA31202919002647401F0803590025FE0FF7E007C017D00120331C374E09FFF74FF9EFE74109DFDE49CFCA31202919002647404F0800BE4FFFEFDFC904E
:401A40000260120291900264E0B40119900260120269A907AA06AB0512074DE4FCFDFE900265120291900264E06402705C900260120269EF2401FFE43EFEE43DFDE43CA9CE
:401A800007AA06AB0512074DE4FCFDFE900265120291900265120285C000C001C002C003900260120269A907AA06AB0512074DE4FCFDFE780812021CD003D002D001D00096
:401AC0001201DD900265120291900264E06404600261B5900260120269EF2403FFE43EFEE43DFDE43CA907AA06AB0512074DE4FCFDFE900265120291900265120285C00085
:401B0000C001C002C003900260120269EF2402FFE43EFEE43DFDE43CA907AA06AB0512074DE4FCFDFE780812021CD003D002D001D0001201DD9002651202919002651202A0
:401B400085C000C001C002C003900260120269EF2401FFE43EFEE43DFDE43CA907AA06AB0512074DE4FCFDFE781012021CD003D002D001D0001201DD90026512029190028D
:401B800065120285C000C001C002C003900260120269A907AA06AB0512074DE4FCFDFE781812021CD003D002D001D0001201DD900265120291900265020269900000EFF0FC
:401BC000E4F541F54275430AC200F544F54512112CEF60057F001223251227B5D2AF9044F474FDF0E4F53D754B00754C00754D39900000E0FF70067EFF7FFF80008F4E7B3F
:401C0000017A0079017D2C7C0112239D8F40900000E060021543E5436004E54070C9E54060030221BFC3E53A9407E53994004008900001E064016005753D0481C39000042A
:401C4000E0FE900003E0FDEEF541EDF542E5422407FFE43541FED3EF953AEE95395008EF942CEE94014005753D03805774062542F58274003541F583E0FE74052542F5828E
:401C800074003541F583E0FDEEF53EEDF53F74072542F58274003541F583E064176005753D04801F7B017A007901E5422404FDE43541FC1215C7EF653F7003EE653E6003D9
:401CC000753D08E4F53BF53CE53D60030221AE900005E0F538753D04900002E01202E71CFE311D2B321DB1341F52351F60371FAC381DB1391FEE3A21953B000021AB200079
:401D0000030221AEE542454160030221AEFF120CCBEF70047F0180027F00900005EFF0753B00753C01E4F53D0221AE2000030221AEE5426401454160030221AEE538C394B7
:401D40000140030221AE9003F4E0FEA3E0F5828E83120275E4FBFA7901F812014B8F24E538B5241E9003F4E0FEA3E0F5828E83120275E4FB7A01F9F812014B7522008F23FA
:401D80008014E538D395244007E4F522F5238006752201752300E523900005F0E522A3F0A374FFF0E4A3F0F53B753C04F53D0221AE900002E06434703C2000030221AEE5BB
:401DC000426403454160030221AEE538C39440400FE538D3947F50087544007545108006754401754520AE44AF457D007B017A01792D12035E2000030221AEC3E54294039D
:401E0000E541940050030221AEE54224FDFFE54134FFFE742D2545F974013544A801FC7D017B017A007908120446E54224FDFFE54134FFFEEF2545F545EE3544F544E53850
:401E4000C39440401BE538D3947F5014122236754100754210900259E4F0A37480F0800F7541017542209002597401F0A3E4F0E54565427004E54465416002E147900007C3
:401E8000E0FE900006E0FDEEF544EDF545D390025AE09545900259E0954440047F0080027F0A8F3DE53D60030221AEE538D3943F506FE5387F00FEEF2545FFE5443E900209
:401EC0005BF0A3EFF09003F4E0FEA3E0F5828E83120275E4FB7A01F9F812014B90025DEEF0A3EFF09003F4E0FEA3E0F5828E83120275EFE4EF600A90025DE475F0011200B4
:401F00004590025DE0FEA3E0FFC390025CE09F90025BE09E500B753D0AE4F544F5450221AE7B017A01792D900265E541F0A3E542F0AD45AC44AF38120F57EF60047F0A8032
:401F4000027F008F3D8003753D03E4F544F5450221AE2000030221AEE4F544F5450221BF2000030221AEE5452542FFE5443541FED3EF942CEE9401502DE4F53DAE41AF42EE
:401F8000742D2545F974013544A801FC7D017B017A007905120446E5422545F545E5413544F5440221AE753D030221AEE5424541703678257C00FD7BFF7A0979D5FE7F0809
:401FC000120446D200753B00753C08E4F544F545AE3BAF3C78057C007D01FB7A007925120446E4F53D0221AE753D040221AE2000030221AEE5426403454160030221AE90FF
:402000000007E0FE900006E0FDEEF52FEDF530E538C394404057E538D3947F50505136AE2FAF307C007D101203318F368E358D348C33C3E5309480E52F940050047F0080B5
:40204000027F0A8F3DE53D600221AE85364D85354C85344B85334AE4755110F550F54FF54EFF7E80FDFC12179C8F378069AE2FAF307C017D00120331C004C005C006C007A0
:40208000AF38E4FCFDFEFBFA7901F81200C0D003D002D001D0001200A58F368E358D348C33C3E52F940150047F0080027F0A8F3DE53D600221AE85364D85354C85344B8520
:4020C000334AE4F551755001F54FF54EFFFE7D10FC12179C8F37E538D3943F5072AF387E007C207D00120331E42FFFE43EFEED3408FDE43CFCC004A905AA06AB07AE2FAFBE
:40210000307C007D20120331D0001200A58F368E358D348C33E4F52DF52EC3E52E9420E52D9400502AE4E52E2536FFE52D3535FEE43534FDE43533A907AA06AB0512074DD7
:40214000EF2537F537052EE52E7002052D80CB852F31853032E538702AAE31AF32FCFD7BFFFAF9F8C31201F87019FD7F05121822C3E5379FF537E4FD7F06121822C3E537B3
:402180009FF537E537F404900005F0E4F53DF53B753C018019E4FF120CCBEF70069046FA7480F01205FD120C3C8003753D057B017A007901853B4A853C4BAF3D12167890FB
:4021C0000000E07003021BE4300003021BE42212070B906008E0547FF0906012E054FBF09043A5E054FEF09043B5E054FEF09051F8E04480F0E04440F01206F39044CA7433
:4022000080F0A37401F09044CA7420F09044C87401F004F051669044D97410F0E4900323F090032BF090031FF0900325F090032AF09003FFF02212070B9043A0E04408F0B1
:402240009043B0E04408F090470174C8F09043ACE04410F09043BCE04410F0904700E0542060F80206F390458FE054407E007806CEC313CE13D8F9FF22C0E0C0F0C083C049
:4022800082C085C084C086758600C093759300C0D075D000C000C001C002C003C004C005C006C0075166D007D006D005D004D003D002D001D000D0D0D093D086D084D08531
:4022C000D082D083D0F0D0E03290646DE0FF227B027A447904AD07AC06020731EFC43354E0904482F0229044C87404F0229043A3E04401F07B027A4F7906EFFD7C00120764
:40230000319043A3E054FEF0227B027A4F7904EFFD7C00020731904210E0548060047F0180027F002290FFFF12030DEFF09046EA7401F090000102030D90FFFC12030D129A
:402340000291850883850982120269D3EF9400EE9480402E9003E1120269120600850883850982C083C082120269E42FFFEE3480FEED34FFFDEC34FFFCD082D08312029108
:4023800080C09003D71202698508838509821202851200C012060090000402030D8B468A4789488C498D4AE54E75F00AA485F050F551D3E54A9440E54994004006754900A1
:4023C000754A409003FEE0602D916FEF7018E55145506012E47F01FEFDFC7139E55115517002155080E3916FEF601791AF9175E49003FEF0800C91AFEF6007916FEF6002CD
:402400009175E54E75F00AA485F050F5517F0112178BEF64016018E55145506012E47F01FEFDFC7139E55115517002155080DE7F0112178BEFB40125AB46AA47A9489002D0
:4024400063E549F0A3E54AF07F0191BCAB4BAA4CA94DEE8FF0120086E4F54F800FAB4BAA4CA94DE4F5F0120086754F10AF4F2290032BE0FF227F01EFD394004031EF9409E5
:40248000502CEF75F00BA42431F582E43403F583E4F0EF75F00BA42435F582E43403F583E0FE75F010EF905FFE12029DEEF022E4FF900323E06004E0FFE4F02290025FEF92
:4024C000F0A31202B29002601202A9E94A4B7002A15690025FE0FFD39400407AEF94095075B166D3900264E09F900263E09E400990025FE0FFB1668008900263E0FEA3E0CB
:40250000FF900263EEF0A3EFF0E4A3F0A3F0900263E0FEA3E0FFA3E0FCA3E0FDC39FEC9E502B90025FE075F01090607812029DE0FF9002601202A9E92DF9EA3CFAEF120065
:4025400033900265E475F00112004580C190025FE0FF91778007E4900263F0A3F0900263E0FEA3E0FF22E4FDFCEFD39400402AEF9409502575F010EF905FFC12029DE0544B
:402580000FFD75F010EF905FFD12029DE0FBEDFCEBFD24FEFD74FF3CFCAE04AF052280FE32E4900000F0900000E0FFD3941F5020EF75F002A42400FFE5F03444FAA9077B08
:4025C000017C257D9E120731900000E004F080D622900263ECF0A3EDF0900262EFF0541F25E0FFE433FEE42FFFEE3444FAA9077B01120722900265EEF0A3EFF0900262E044
:4026000075F002A42400FFE5F03444FAA9077B01A3E0FEA3E0FFFDAC06120731900265E0FEA3E0FF2212070B900261EFF09043A5E04401F09043B5E04401F090609D740162
:40264000F090600904F0906010E0547FF0E4FFFE1206A0904394E054F9F0906012E054DFF0904394E04401F07F017E001206A07F287E001206A09051F8E0547FF0E054BF3A
:40268000F0904394E04402F07F027E001206A0904394E04404F0906084E4F0A3F0900261E0FF1206F37D077F17D1F97C377DAC7F17B1D17D077F18D1F97C297D277F18B171
:4026C000D17D077F15D1F97C067D9E7F15B1D17D07E4FFD1F97C377D0CE4FFB1D17D077F01D1F97C377D5C7F01B1D17D077F0CD1F97C227D797F0CA1D1AC07ED540775F07C
:4027000020A4FFEC541F2480F582E43444F583EFF02290025FEFF0A3EDF09003FFE07008D1259003FF7401F090025FE0FFA3E0FDE4FE7E019003F87401F0A3DEFC7E019033
:402740000329EFF0E4900328F0900323F090032BF090031FF0900325F090032AF0900320F09044C27480F0A37401F09044C27420F09044C07401F004F0ED14600C04701255
:40278000906009E054FEF08010906009E04401F08007906009E04401F09060287403F09060087480F0E47F01FEFDFC1206009060127404F022D2AF9044F474FDF07D02E464
:4027C000FFF1129003FE7401F022E4FF7F019003F87401F0A3DFFCE4900328F0900323F090032BF090031FF0900325F090032AF0900320F09060287403F09060087480F016
:40280000229002601202B290025FEFF0D3940050022126E0FF940940022126EF75F00BA42436F582E43403F583E0FEA3E0FFC3E49FFF74029EFED3900264E09F900263E0AE
:402840009E402490025FE075F00BA42436F582E43403F583E0FEA3E0FFC3E49F900264F074029E900263F0900263E0FCA3E0FDECFF90025FE0FE75F00BA42433F582E43483
:4028800003F583E04FFF75F010EE905FFC12029DEFF0ED90025FE075F010905FFD12029DEDF09002601202A9E94A4B6046E4900265F0A3F0900263E0FEA3E0FFA3E0FCA33C
:4028C000E0FDC39FEC9E502B9002601202A9E92DF9EA3CFA12001AFF90025FE075F01090607812029DEFF0900265E475F00112004580C190025FE0FF75F00BA42431F582C4
:40290000E43403F583E4F0EF75F00BA42435F582E43403F583E0FF90025FE075F010905FFE12029DEFF022C0E0C0F0C083C082C085C084C086758600C093759300C0D07507
:40294000D000C000C001C002C003C004C005C006C007906028E0900277F0E0FF541070024106A37401F0EF54806020900277E0540F64016005A3E4F0802FD1E490032CE0A3
:4029800054806025900278E4F0801E900277E05440600451298012900277E0542060051230108005900278E4F0900278E06057906028E0900277F0E05480704A90032FE03C
:4029C000FF900327E04F900277F0E0FF906029F0E0FEEF6E703090032CE0900278F0906028E05480900277F0E0700F90032CE0906028F0E0540F900278F090032CE0FF9064
:402A00000278E0B507D0D007D006D005D004D003D002D001D000D0D0D093D086D084D085D082D083D0F0D0E032900328E024FC600A24FE6008240470078006E1B31236E932
:402A400022E4FD900320E0FF90032DE48FF0120045D3900318E09400900317E09400403AED940850359003191202A912001AFFE42DF582E43460F583EFF09003191202A95B
:402A8000E92401F9E43AFA9003191202B20D90031774FFF5F012004580B7900320E064086006EDD394004015900327E06480F090032C740FF09003287402F0800A90032CD0
:402AC0007402F0900328F090032FEDF0900320F0221202B2900317E07002A3E070051230C4802F9003287402F0E4900327F01235F0906007E0FE906006E0FDEEEDFFD39027
:402B00000318E09F900317E09E4005EEF0A3EFF051417F0122E490027AF0906000E090027CF07B007A007900A31202B2E4900317F0A3F090027CE0548064806002A12E90FD
:402B40006001E07002817D24F8700281EF24FE7002A10B24046002C1C6906003E0B4012B123E6D900280EEF0A3EFF0F5828E83A31202BB9003191202B2900317E4F0A37472
:402B800012F051D490027AEFF0C1C6906003E064027060906002E0FF123428900280EEF0A3EFF04E7002C1C6900280E0FEA3E0F5828E83A31202BB9003191202B2900319F0
:402BC0001202A9E92403F9E43AFA12001AFE9003191202A9E92402F9E43AFA12001AFDEEEDFF900317EEF0A3EFF051D490027AEFF0C1C6906003E064037079FF7BFF7A0783
:402C000079A090027D1202B2906002E0D39F401F90027D1202A912001A601412001AFE7C0029F9EC3AFA90027D1202B20F80D9906002E0FF6016900775E493FEEFB5060CF4
:402C40007BFF7A0779FF90027D1202B290027D1202A912001A7002C1C612001AFF900317E4F0A3EFF09003191202B251D490027AEFF0C1C6F14590027AEFF0C1C690027C31
:402C8000E05403603F24FE6002C1C6900317E4F0A37402F0906004E0547F75F00BA42432F582E43403F583E09003FBF0E4A3F07B017A0379FB9003191202B251D490027AAC
:402CC000EFF0C1C6900317E4F0A37402F090032AE09003FBF0E4A3F07B017A0379FB9003191202B251D490027AEFF0C1C6C1C6900317E4F0A304F0FB7A03792B9003191269
:402D000002B251D490027AEFF0C1C6900317E4F0A304F0906004E02416F9E43403FA7B0190031951D190027AEFF0C1C6C1C6906001E0147002A1F224FE7002C16224FA60B5
:402D40001B24FE607024066002C1C6906002E0900325F0D1CC90027AEFF0C1C6906002E090027BF0D39400400EE014FF123428900280EEF0A3EFF090027BE0FFD3940040C0
:402D80000A900280E07002A3E07005EF6002C1C690032BE0FF90027BE0FE6F600F90032BEEF09003237401F0FF1238E2D1CC90027AEFF0C1C612367DEF7002C1C6906004DD
:402DC000E0FE90031FF074162EF582E43403F583E0FF74242EF582E43403F583E06F60099003237401F0123C6AD1CC90027AEFF0C1C690027CE05403601A1460311460026E
:402E0000C1C6906002E06002C1C6123F0D90027AEFF0C1C6906002E064016002C1C690032AE054FDF0D1CC90027AEFF0C1C6906004E0FFC394014002C1C674262FF582E45B
:402E40003403F583C083C082E0FF906002E0F4FEEF5ED082D083F0D1CC90027AEFF08066806490027CE05403601614602B147056906002E07050123E8690027AEFF08046FA
:402E8000906002E06401703E90032AE04402F0D1CC90027AEFF0802E906004E0FFC39401502474262FF582E43403F583C083C082E0FF906002E0F4FEEF5ED082D083F0D1D7
:402EC000CC90027AEFF090027AE0FF229003287406F090032CF09003277480F0E490032FF07F0122906028E0900279F0E0906028F0E0900279F0E0FF5480600690032CEFE7
:402F0000F0227F02F1D3906000E0546024E0601124E060162440701B7115900279EFF08017F145900279EFF0800EF1C3900279EFF08005E4900279F0900279E0700690032D
:402F40002C7403F022E4900283F0906000E0540324FE600D047024906004E0900282F0801F906004E0547F75F00BA4243AF582E43403F583E0900282F08005E4900282F07A
:402F8000900282E0FFD394015023900321E0FCA3E02FF582E43CF583E49324FD700A123118900283EFF08005E4900283F0900283E0FF22E4900328F07F01F1D390032C7407
:402FC00003F022E4FF906000E054806005A3E0FE80002290031C1202A9E94A4B603190031C1202A9EF12003390032DE0FEA3E0FF90031C1202A9E92401F9E43AFAEE8FF07A
:403000001200867B007A00790090031C1202B222900328E024FC600A24FE60082404700F800E802B7F03122FD390032C7403F022900320E0FF90032DE48FF0120045E49006
:403040000328F07F01122FD390032C7403F022E4FF906029E0540F24FEFEFD90032DE48DF0120045D3900318E09400900317E09400403CEED394004036E42FF582E434602C
:40308000F583E0FD9003191202A9ED1200339003191202A9E92401F9E43AFA9003191202B20F1E90031774FFF5F012004580B5AF0690032FEEF0900327E06480F090032CE9
:4030C000740BF0229003287402F09003277480F090032C740FF0E4900320F090032FF07F01229003287404F09003277480F0B1F0906007E0FE906006E0FDEEEDFFD3900329
:4031000018E09F900317E09E4005EEF0A3EFF090032C740BF07F0122E4900284F0906004E0900285F0906000E05480700221FDA3E014604F14606414700221CD24FD60024D
:4031400041D3906003E0B421189175900317E07002A3E0700241D3122AD4900284EFF041D3906003E06422600241D3B11E900317E07002A3E0700241D3122AD4900284EF9F
:40318000F041D351D9900317E07002A3E0700241D3122AD4900284EFF041D3900285E0FFC39401400241D3906002E0600241D3900317F0A304F074F72FF9E43403FA7B0182
:4031C000900319122AD1900284EFF041D3900285E0FFC39401400241D3900317E4F0A304F074F82FF9E43403FA7B019003191202B2122AD4900284EFF041D341D39060019F
:40320000E024F6602214700241AC2402600241D351D9900317E07002A3E0700241D311E2900284EFF041D3900285E0FFC39401400241D3906002E0600241D3A3E0FE74F700
:403240002FF582E43403F583EEF074F62FF582E43403F583E0FE74F72FF582E43403F583E0C39E5011900285E024F6F582E43403F583E4F0802C900285E0FF24F6F582E46A
:403280003403F583E0D39401401874F72FF582E43403F583E0FE74F62FF582E43403F583EEF0122ECC900284EFF08027900285E0FFC39401501D906002E0FE94015014741C
:4032C000F82FF582E43403F583EEF0122ECC900284EFF0900284E0FF22E4900317F0A3F090032BE014FF9128900286EEF0A3EFF0906003E090028BF0906004E090028CF0F2
:403300002402FFE433FEEF7802C333CE33CED8F9FF900287E02FFF900286E03EFEF0A3EFF0F5828E83A31202BBAF01900286EAF0A3EFF090028CE0FFC394014002812774B7
:40334000162FF582E43403F583E075F004A4FFAEF0900287E02FF0900286E03EF0E0FEA3E0F5828E83A31202BBAF01900286EAF0A3EFF090028BE0FFC3940150028127EF7A
:40338000D3940340028127EF24FFFFE434FFFEEF7802C333CE33CED8F9FF900287E02FFF900286E03EFEF0A3EFF0906002E0FD90028BF08F828E83E493C39D406A90028631
:4033C000E0FEA3E0F5828E83A31202BB9002881202B290028BE075F008A4FF9002881202A9E92FF9EA35F0FA9002881202B29002881202A9E92402F9E43AFA1202C790034F
:40340000191202B29002881202A912005BFF900317E5F0F0A3EFF0E92405F9E43AFA1202C790031C1202B22290028DEFF0900329E025E025E024ADF582E43408F58312024C
:40344000BBAE02AF01EF2408FFE43EFE8F82F583E493FD90028DE0FCC39D4005E4FEFF80138F828E8375F004EC12029DA31202BBAE02AF012290032BE014FF912890028648
:40348000EEF0A3EFF0906004E0900288F02402FFE433FEEF7802C333CE33CED8F9FF900287E02FFF900286E03EFEF0A3EFF0F5828E83A31202BBAF01900286EAF0A3EFF0AB
:4034C000A3E02416F582E43403F583E075F004A4FFAEF0900287E02FF0900286E03EF0E0FEA3E0F5828E83A31202BBAE02AF01900286EEF0A3EFF02410FFE43EFE9002869F
:40350000F0A3EFF0F5828E83A31202BB12001AFF900317E4F0A3EFF09003190202B290032BE014FF9128900286EEF0A3EFF0906004E090028BF02402FFE433FEEF7802C369
:4035400033CE33CED8F9FF900287E02FFF900286E03EFEF0A3EFF0F5828E83A31202BBAF01900286EAF0A3EFF090028BE02416F582E43403F583E075F004A4FFAEF0900231
:4035800087E02FF0900286E03EF0E0FEA3E0F5828E83A31202BBAE02AF01900286EEF0A3EFF0240CFFE43EFE900286F0A3EFF0F5828E83A31202BB9002881202B29002885F
:4035C0001202A9E92401F9E43AFA12001AFE9002881202A912001AFDEEEDFF900317EEF0A3EFF0E92402F9E43AFA9003190202B2E490032DF0A3F090031C1202A9E94A4B4E
:40360000601D90031C1202A9E412003390031C1202A9E92401F9E43AFAE4F5F01200862290032BE014FF9128AD07AC06ED4C603D8D828C83A31202BBE92404F9E43AFA1200
:40364000001A2402FFE433FEEF7802C333CE33CED8F92DFDEE3CFCAF058D82F583A31202BBAF0190028AEAF0A3EFF08007E490028AF0A3F090028AE0FEA3E0FF22E49002B4
:4036800082F0906004E0900283F090032BE014FF91288F828E83A31202BBE92404F9E43AFA12001AFF900283E0FED39F4006EED39401502F74162EF582E43403F583E0FF53
:4036C00074242EF582E43403F583EFF0906002E0FF74162EF582E43403F583EFF09002827401F0900282E0FF22900325E0600CE04480906008F0E4900325F0E4900328F070
:403700007F01122FD390032C7403F022C0E0C083C082C085C084C086758600C093759300C0D075D000C00790600B7401F090600EE0FF90033BE054036401600790033EE008
:403740006480F090033C7401F0D007D0D0D093D086D084D085D082D083D0E032C0E0C083C082C085C084C086758600C093759300C0D075D000C00790600B7402F090601E8C
:40378000E0FF900346E0540364016007900349E06480F09003477401F0D007D0D0D093D086D084D085D082D083D0E032C0E0C0F0C083C082C085C084C086758600C09375B8
:4037C0009300C0D075D000C000C001C002C003C004C005C006C0071227CAD007D006D005D004D003D002D001D000D0D0D093D086D084D085D082D083D0F0D0E0327D01EDF2
:40380000C39409400201DB75F010ED90607012029D740CF0ED75F00BA42435F582E43403F583E06031ED75F00BA42434F582E43403F583E05480600F75F010ED905FFE126B
:40384000029D740CF0801C75F010ED905FFE12029D7408F0800D75F010ED905FFE12029D7480F0ED75F00BA42436F582E43403F583E0A3E0FF75F010ED90607612029DEF91
:40388000F0ED75F00BA42436F582E43403F583E0FF75F010ED90607712029DEFF0ED75F00BA42436F582E43403F583E0A3E0FF75F010ED90607412029DEFF0ED75F00BA45D
:4038C0002436F582E43403F583E0FF75F010ED90607512029DEFF00D0237FF90600A74FFF022E4900284F0A3F0900282F0900282E0FEC39409507AEE75F00BA42430F58200
:40390000E43403F583E4F0EE75F00BA42432F582E43403F583E4F0EE75F00BA42433F582E43403F583E4F0EE75F00BA42438F582E43403F583E4F0A3F0EE75F00BA4243A84
:40394000F582E43403F583E4F0EE75F00BA42431F582E43403F583E4F0EE75F00BA42435F582E43403F583E4F0900282E004F001EDEF602FE4900283F0900283E0FFC39473
:4039800001502074162FF582E43403F583E4F074242FF582E43403F583E4F0900283E004F080D690032BE0D3940050028169E014FF123428900286EEF0A3EFF0900286E009
:4039C000FCA3E0FDF5828C83A31202BBE92407F9E43AFA12001A5440600990032AE04401F0800790032AE054FEF0ED2404FFE43CFE900286F0A3EFF0F5828E83E493900280
:403A000082F0A37401F0900283E0C39409400261A5900286E0FEA3E0F5828E83A31202BBAF01900288EAF0A3EFF0E4FF900282E0FEEFC39E4002619D900288E0FCA3E0F503
:403A4000828C83740293547FFD900283E0FE6D7001E46002618C900288E0A3E0F5828C83740493FC740593FDEE75F00BA42438F582E43403F583E0FAA3E0C39DEA9C5029A1
:403A8000900288E0FCA3E0F5828C83740493FC740593FD900283E075F00BA42438F582E43403F583ECF0A3EDF0900288E0FCA3E0FDF5828C83E4932416F582E43403F58375
:403AC000E0FE8D828C83740193FDEE6D6002618C900288E0A3E0FDF5828C83740293FE900283E0FB75F00BA42434F582E43403F583EEF08D828C83740393FEEB75F00BA4AB
:403B00002430F582E43403F583EEF0900288E0FCA3E0F5828C837403935403FE900288E0A3E0F5828C8374029354806031EEB401047D0780027D0D900283E0FC75F00BA43E
:403B40002435F582E43403F583EDF0EC75F00BA42431F582E43403F5837401F0802EEEB401047E0580027E09900283E0FD75F00BA42435F582E43403F583EEF0ED75F00BBC
:403B8000A42431F582E43403F583E4F0900289E02407F0900288E03400F00F412C900283E004F04106900286E0FEA3E0F5828E83A31202BBAF01900288EAF0A3EFF0E49041
:403BC0000283F0900282E0FFA3E0C39F5038900288E0FEA3E0F5828E83E493FD740293547F75F00BA4243AF582E43403F583EDF0900289E02407F0900288E03400F090027E
:403C000083E004F080BD123620900321EEF0A3EFF0E4900284F0A3F090028204F0900282E0FFC39409503F900284E0FCA3E0FDEF75F00BA42436F582E43403F583ECF0A3B5
:403C4000EDF0EF75F00BA42438F582E43403F583E0FEA3E0FF900284EE8FF0120045900282E004F080B71237FD2290032BE0D394005002C16CE014FF123428EF2404FFE45E
:403C80003EFE8F82F583E493900282F08F828E83A31202BBAD01AC0290031FE0900283F0E4FB900282E0FFEBC39F4002C16C8D828C83E493FF900283E0FE6F6002C1628DA7
:403CC000828C830493FF74162EF582E43403F583E06F6002C1628D828C83740293547FFA7403935403F9EA75F00BA42433F582E43403F583E4F08D828C83740293FFEA7501
:403D0000F00BA42434F582E43403F583EFF08D828C83740393FFEA75F00BA42430F582E43403F583EFF08D828C83740493FE740593FFEA75F00BA42438F582E43403F583AB
:403D4000EEF0A3EFF08D828C837402935480602DE9B401047F0780027F0DEA75F00BA42435F582E43403F583EFF0EA75F00BA42431F582E43403F5837401F0802AE9B401DB
:403D8000047F0580027F09EA75F00BA42435F582E43403F583EFF0EA75F00BA42431F582E43403F583E4F075F010EA905FFE12029D7401F0EA75F00BA42438F582E43403B2
:403DC000F583E0FF75F010EA905FFC12029DEFF0EA75F00BA42438F582E43403F583E0A3E0FF75F010EA905FFD12029DEFF0EA75F00BA42436F582E43403F583E0A3E0FF2D
:403E000075F010EA90607612029DEFF0EA75F00BA42436F582E43403F583E0FF75F010EA90607712029DEFF0EA75F00BA42436F582E43403F583E0A3E0FF75F010EA906083
:403E40007412029DEFF0EA75F00BA42436F582E43403F583E0FF75F010EA90607512029DEFF0ED2407FDE43CFC0B81A222900329E025E025E024ADF582E43408F58312028E
:403E8000BBAE02AF0122E4900282F0906004E0547FFFD394004070EF9409506BEF75F00BA42432F582E43403F583E04401F0EF75F00BA42433F582E43403F583E4F0EF75C5
:403EC000F00BA42431F582E43403F583E04402F0EF75F00BA42434F582E43403F583E05480600F75F010EF905FFE12029D748DF0800D75F010EF905FFE12029D7489F012A5
:403F00002ECC900282EFF0900282E0FF22E4900282F0906004E0547FFFD394005002E1E2EF94094002E1E2EF75F00BA42432F582E43403F583E054FEF0EF75F00BA4243305
:403F4000F582E43403F583E4F075F010EF905FFC12029DE0547FF0EF75F00BA42431F582E43403F583E054FDF0EF75F00BA42434F582E43403F583E054806030EF75F00B35
:403F8000A42431F582E43403F583E0B4010F75F010EF905FFE12029D740CF0803D75F010EF905FFE12029D740DF0802EEF75F00BA42431F582E43403F583E0B4010F75F09F
:403FC00010EF905FFE12029D7408F0800D75F010EF905FFE12029D7409F0122ECC900282EFF0900282E0FF22000000000000000000000000000000000000000000000000A8
:404000000000000000000000000000000000000000000000000000000000000000000000000000000000000000000000000000000000000000000000000000000000000080
:404040000000000000000000000000000000000000000000000000000000000000000000000000000000000000000000000000000000000000000000000000000000000040
:404080000000000000000000000000000000000000000000000000000000000000000000000000000000000000000000000000000000000000000000000000000000000000
:4040C00000000000000000000000000000000000000000000000000000000000000000000000000000000000000000000000000000000000000000000000000000000000C0
:40410000024A6E008F828E83E0540100000070F82278FFE4F6D8FD024AFC024462E86480F8E933E83360110460F0ED33EC337009E8FCE9FDEAFEEBFF220460DED3EB9FEA0F
:404140009EE99DE8C2E78CF0C2F795F0400CE8CCF8E9CDF9EACEFAEBCFFB12442D85D0F05804700320D5B3E80470075002B2D502446C92D5EC0460F7E4CCC0E0C398F860E4
:404180003B94186008400DD0E0FB024444E4FBFAC9FC8028E830E406E4C9FBE4CAFCE830E305E4C9CACBFCE854076010F8C3E913F9EA13FAEB13FBEC13FCD8F130F52FC328
:4041C000E49CFCEF9BFFEE9AFEED99FDD0E0FBEF4E4D4C701222DB03024469EC2CFCEF33FFEE33FEED33FDED30E7EB024444EF2BFFEE3AFEED39FDD0E0FB50130BBB0003DC
:4042000002446CED13FDEE13FEEF13FFEC13FC024444EC4D6011E8497017ED33EC3304600DE4FCFFFEFD22E933E8330470F802446212442D58046009E4CC24815006285086
:404240000902446C284003024469C0E0EB4A7044B98006D0E0FB024458EF4E701CBD8008EBFFEAFEE9FD80EBE98DF0A4FEE5F00242FBE9CDF9EAFEEBFFEF89F0A4FCE5F0AD
:40428000CE89F0A42EFFE435F0CD89F0A42DFEE435F08067EF4E7005BD80D780C3EF8BF0A4ACF0EE8BF0A42CFCE435F0F8EF8AF0A42CE5F038FCE433CB8DF0A42CFCE5F0AD
:4042C0003BF8EE8AF0A42CFCE5F038F8E433CF89F0A42CFCE5F038CF3400CE89F0A42FFFE5F03EFEE433C98DF0A42EFEE5F039CD8AF0A42FFFE5F03EFEE43DFD33D0E0FB8C
:4043000050070BBB000F02446CEC2CFCEF33FFEE33FEED33FD02444402446CEC5D046005E85904700302446212442D580460F6EC4860F2EC7004FDFEFF22C860DB2481C839
:404340005009C398600250060244699850CAF582E9294B4A7005AB8202445875F0007C1A7880C3EF9BEE9AED99400DC3EF9BFFEE9AFEED99FDE842F0DC23ACF0D0E0FFD0EE
:40438000E0FED0E0FDAB8220E7101BEB60BAEC2CFCEF33FFEE33FEED33FD024444E803F830E705C0F075F000EF2FFFEE33FEED33FD40B830E7C280AA75F020800E75F01023
:4043C000800575F0087D007E007F003392D530D503124629EC334010EF33FFEE33FEED33FDEC33FCD5F0ED22E5F0247EA2D513CC92E7CDCEFF22EDD2E7CD33EC3392D52421
:40440000814006E4FFFEFDFC22FCE4CFCECDCC24E0501174FF80EDC3CC13CCCD13CDCE13CECF13CF0470F030D5DE024629E9D2E7C933E833F892D5EDD2E7CD33EC33FC5002
:4044400002B2D522EC30E7100FBF000C0EBE00080DBD00040BEB6014A2D5EB13FCED92E7FD2274FFFCFDFEFF22E480F8A2D574FF13FC7D80E480EFBB010689828A83E02296
:404480005002E722BBFE02E32289828A83E49322BB010689828A83F0225002F722BBFE01F322EF8DF0A4A8F0CF8CF0A428CE8DF0A42EFE22C5F0F8A3E028F0C5F0F8E582B2
:4044C000158270021583E038F022A3F8E0C5F025F0F0E582158270021583E0C838F0E822BB010A89828A83F0E5F0A3F0225006F709A7F01922BBFE06F3E5F009F31922E8B4
:404500008FF0A4CC8BF0A42CFCE98EF0A42CFC8AF0EDA42CFCEA8EF0A4CDA8F08BF0A42DCC3825F0FDE98FF0A42CCD35F0FCEB8EF0A4FEA9F0EB8FF0A4CFC5F02ECD39FE7E
:40454000E43CFCEAA42DCE35F0FDE43CFC2275F008758200EF2FFFEE33FECD33CDCC33CCC58233C5829BED9AEC99E58298400CF582EE9BFEED9AFDEC99FC0FD5F0D6E4CEEC
:40458000FBE4CDFAE4CCF9A88222B800C1B90059BA002DEC8BF084CFCECDFCE5F0CBF97818EF2FFFEE33FEED33FDEC33FCEB33FB10D703994004EB99FB0FD8E5E4F9FA22DC
:4045C0007818EF2FFFEE33FEED33FDEC33FCC933C910D7059BE99A4007EC9BFCE99AF90FD8E0E4C9FAE4CCFB2275F010EF2FFFEE33FEED33FDCC33CCC833C810D7079BEC96
:404600009AE899400AED9BFDEC9AFCE899F80FD5F0DAE4CDFBE4CCFAE4C8F922CFF4CFCEF4CECDF4CDCCF4CC22C3E49FFFE49EFEE49DFDE49CFC22EB9FF5F0EA9E42F0E979
:404640009D42F0EC6480C864809845F022EB9FF5F0EA9E42F0E99D42F0E89C45F022E8600FECC313FCED13FDEE13FEEF13FFD8F122E8600FEFC333FFEE33FEED33FDEC33B1
:40468000FCD8F122BB010789828A830247665005E9F802475ABBFE05E9F802477289828A8302477EBB010789828A830246BE5005E9F802478EBBFE05E9F802479A22ECF009
:4046C000A3EDF0A3EEF0A3EFF022A42582F582E5F03583F58322D083D082F8E4937012740193700DA3A393F8740193F5828883E4737402936860EFA3A3A380DFE5092582C2
:40470000F582E5083583F583B508048582092210AF06858209F50822858209F508D2AF22E5092582F582E5083583F58322EC8EF0A4CCC5F0CCCDF8EFA4CEC5F02DFDE43C83
:40474000FCE8A42EC8C5F03DFDE43CFCEFA4FFE5F028FEE43DFDE43CFC22E6FC08E6FD08E6FE08E6FF22E0FCA3E0FDA3E0FEA3E0FF22E2FC08E2FD08E2FE08E2FF22E4934F
:40478000FC740193FD740293FE740393FF22ECF608EDF608EEF608EFF622ECF208EDF208EEF208EFF222410A03554109A73241099C0041099B004109FE01410A09124109BC
:4047C0009D004109FA004109A532410A010041099E00410A08014209A000004109A4004109FD004109FC00440A0400000000410A02004109FB024109FF004109A600410A5F
:4048000000004109F90041099F004109A2004109A30041099800410CE000410CDF00410CE400410CE300410CE20060390BBD480707070778B5B60755CE865695FD7D3D1D91
:404840000D0585C5E5F5E007078D0730684284A4830124C3040274A344C282E364D443038123146394B4C4440CC200001388410CB300420CA83DF4420CAA0000410CAC0021
:40488000420CAD0BB8420CAF0000420CB10000440B6A00000000440B6E00000000410B3900410B4600440B5C00000000440B6000000000410B6400410B6500410B66004103
:4048C0000B6700440AAE713D0A07440ABF713D0A07410A9800440A9D00000000410ABE00410AA1C4440A9900000000440AC3017D7840410A9700410A8000420AA3002A4202
:404900000A7E002A440AC800000000410AD000410AC700420A810000440A7000000000410A7400440A7500000000440A7900000000410A7D00440C5000000000440C4600B0
:40494000000000410C4E00410C4F00440C5400000000440C3D00000000440C4100000000410C450041090300440C8100000000440C7D00000000410C7C00440C8500000023
:4049800000410C7300420C742710440C78000D4A58410C7032410C6E00410C7100410C6F00410C6915440C6A00000000410C7200410C5800410C5900410C5A00410C5B00C5
:4049C000410C5C00410C5D00410C5E00410C5F00410C6200410C6300410C6400440C6500000000410B1000410B2C0C490AD1000004040000000000410CE600410CEB004190
:404A00000CECFF410CEDFF410CEEFF410CEFFF410CF0FF410CF1FF410CCB80410CCA7F440CC6000000FF440C9F023366C4440C9A0000903C410C9E25440CA4481E00004166
:404A40000CF200460CCC008102370300410CF3FF410CF4FF430CD2000000410CF500420C140180420C16FF7F420C1201000075930078007583467582E8E04401F0009048CB
:404A80000074C0F07581099076BCE4F0A3F0A3F0A3F0907010F0907019F0907020F09076007410F0907604E4F0A3F0A3F0A3F09078007800087400F0A37408F0E8B80402B9
:404AC00074FFA3F0A37422F0A374BCF0A37476F0A3E4F0A3E81475F008A4F0A3B804D59070107401F0907014F07E707F18124104907010F0EA900CA3F002411175081F7529
:404B000009FD12C42912A81912C3BC024B49025D1BE493A3F8E493A34003F68001F208DFF48029E493A3F85407240CC8C333C4540F4420C8834004F456800146F6DFE480E1
:404B40000B01020408102040809047A6E47E019360BCA3FF543F30E509541FFEE493A360010ECF54C025E060A840B8E493A3FAE493A3F8E493A3C8C582C8CAC583CAF0A3E1
:404B8000C8C582C8CAC583CADFE9DEE780BEC2D5E830E70FB2D5E4C39BFBE49AFAE499F9E498F8EC30E717B2D5124BC412458AE4C39BFBE49AFAE499F9E498F88003124590
:404BC0008A30D50DE4C39FFFE49EFEE49DFDE49CFC22758600EF4E601BEF60010E8C838D828B958A858984E493A30586F0A31586DFF5DEF3E4F59522EC30E703124629221C
:404C0000EC4D4E700D78FCEF24E950032840FD2200007BF178DA0000EF28FF78FFEE38FEED38FDEC38FC50E7EF2BFFEE38FEED38FDEC38FC40F22205020304758600EF4E25
:404C40006027EF60010E759300900A2AE0F595A3E0F585A3E0F5848B938A838982E0A30586F0A31586DFF6DEF4E4F593F5952232EEFA900C9EE0F88FF0A4FFAEF0E88AF0A1
:404C8000A42EFEE5F03400FDEF24C9FF78FFEE38FEED38FDE438FC5003024C0022EC4D6011ED60010C8B938A838982E4F0A3DDFCDCFA75930022EF54016004D2AF8002C2B4
:404CC000AFEF5402FF9044F4E054FD4FF0229044F4E0F84402F0E85402FF10AF012274014FFF228B938A838982EFF0A3EEF0A3EDF0A3ECF0759300224520200050202000B9
:404D000053202000432020008B938A838982E0FFA3E0FE759300228B938A838982EDF0A3ECF0759300228B938A838982E0759300FF228B938A838982EDF0759300228000E5
:404D400000000000000000000000000000000000000000000000000000000000000000000000004000000000000000000000000000000000000000000000000000000000F3
:404D800000000000000000000000000000000000000100000000000000000000000000000000002000000000000000000000000000000000000000000000000000000000D2
:404DC0008000000000000000000400000001000000000000040400000000000000000000000140404000000000001000000000000000000000000000000000000000400015
:404E000000000000000020000000000000000000000080000000800000000000000000008000000000000000100000000000000000000000000000000000000000000000C2
:404E400000000000000000000000000000000000000000000000000000000000000000404000000000000000000000000000000000000000000000000000000000000000B2
:404E800000000000000000000000000000000000000000000000000000000000000020000000000000000000000000000000000000000000000000000000000000000100D1
:404EC00001000020000020000000000000000000000001808404000000000000000000000001506041000000000000000040000004000040000000000000000000000000F2
:404F000000000000000010000000000000000000000000000000400000000000000000009000000080000000000000004000000000000000000000000000000000000000D1
:404F40000000000000000000000000000000100000000000000000000000000000000000000000000000000000000000000000000000000000000000000020000000000001
:404F800000000000000000000000000000000040000000000000000000000000000000000000000000000000000000000000000000000000000000000000000000000000B1
:404FC0002000010000000100000000000000004000000100804400000000110020000000000141604100000000140000000000000000000000000000000000000000000062
:40500000000010000000000000000000200000000000200000000000000000000000000020000000100000000000A000000000000000000000000000000000000000000050
:40504000000000000000001000000000002A0000000000000000000000000000000000000000000000000000000000000000000000000000000004000000000000440400AA
:4050800000000000000000000000000000000000100001002000000080000000000001200000000020000000000000000000000000000000000000000000000000000000FE
:4050C0001000000010004000000000100000044010000000000000000000110000000000000000404100000000000000002100000000000000000000000000000000000039
:40510000E00000000000000000000000E00010000000E0006000C00000000000000080004000000000000000000000000000000000000000000000000000000000000000DF
:405140000000000000000000000000000000004000000000800004000001000010000000000000000000000000000000000011000000000041000000000000800000000088
:4051800000200000000000000000000000000000000000000000000000000000000000000000000000000000000000000000000000000000000000000000000000000000CF
:4051C000800000000000000000000000000000000000000000000000000000000000000000000000000000000000000000000000000000000000000000000000000000002F
:4052000000006000700000000000F00020001000000000000000000000000000000080000000000000000000000000000000000000000000000000000000000000000100FD
:405240000000000000000100000000000100010000001000010001000000080000000100000008000100010000000100082302523E760800082303524676100008230452FD
:405280004E7620000823055256762800082306525E76300005230752667020000523085266703000052309526670500005230A52667060000523FE526670700015220C0C9E
:4052C000DB49C8004022FE0CDB51300180220E0CDB08000180220F0CDB0A00018022100CDB0C00018022110CDB0E00010022120CDB4400008022130CDB4600008022FE0C7A
:40530000DB4D00008023154D3E4800008023164DBE4880008023174E3E4300008023184EBE4380008023194F3E42000080231A4FBE42800080231B503E41000080231C5068
:40534000BE41800080231D513E4000008023FE51BE40800007231F082852000007232008305208000723210838521000062322084052600007232308485278000823240818
:40538000504578000C232508604F0000202326106C6470002023FE108C6570000823280858510000802329086C00000080232A08EC00800080232B096C02000080232C09C8
:4053C000EC02800080232D0A6C04000080232E0AEC04800080232F0B6C0600008023300BEC0680008023310C6C1400008023320CEC1480008023330D6C1600008023340D01
:40540000EC1680008023350E6C1800008023360EEC1880008023370F6C1A00008023380FEC1A800010233910AC50100010233A10BC50000080233B10CC4D800080233C11AE
:405440004C4C000080233D11CC4C800080233E124C47000080233F12CC478000802340134C46800080234113CC450000802342144C45800080234314CC1B00008023441507
:405480004C1B800080234515CC150000802346164C15800080234716CC190000802348174C19800080234917CC17000080234A184C17800080234B18CC09800080234C194A
:4054C0004C07000080234D19CC07800080234E1A4C0B800080234F1ACC0500008023501B4C0580008023511BCC0D80008023521C4C0300008023531CCC0380008023541D22
:405500004C0F80008023551DCC0100008023561E4C0180008023571ECC4900008023FE1F4C498000010000000200000004000000050000000600001201000200000008C0D9
:4055400016DC0503000F0E80010902B700040100C0020904000000FF00000C0904010000010100090A2401000134000202030C2402010306000203000000092403020101F9
:405580000001000C240203010100020300000009240304030600030009040200000102000A09040201010102000A072401020201000B240201020210010077010905822D87
:4055C00080010100000725018001000009040300000102000B09040301010102000B072401030101000B240201020210010077010905032D800101000007250180010000DF
:40560000040309040C03410045003900520042001A0350006500610062006500720072007900200053004400520022035000650061006200650072007200790020005200C3
:4056400065006300650069007600650024035000650061006200650072007200790020005400720061006E0073006D00690074001E03500065006100620065007200720004
:405680007900200052006100640069006F0016034400470038005300410051002D004900320043001A037700770077002E006F0062006400650076002E00610074001E03D2
:4056C0004D0075006C00740075007300200043006F006E00740072006F006C0020034D0075006C00740075007300200049005100200053006F0075006E00640024034D001B
:4057000075006C007400750073002000490051002000520065006300650069007600650026034D0075006C0074007500730020004900510020005400720061006E007300FA
:405740006D006900740026034D0075006C007400750073002000530044005200200043006F006E00740072006F006C0020034D0075006C00740075007300200053004400BE
:4057800052002C004C004C0043002E001203500072006F0066006900630069006F0026037700770077002E006D0075006C007400750073002D007300640072002E006300A5
:4057C0006F006D0000120350004500300046004B004F002D0030000201822D0180010301032D018001FF01010101FF554902FF57D7000000000000000000000000000000FD
:405800000000FF57E501FF55370000000001FF57E901FF58053031323334353637383941424344454600E4900A31F0A3F0A3F0A3F0A3F07F64FEFDFC11E5D2AF9044F474EA
:40584000FDF0126C94F16812C7F87E9F7FEB12C823128771E4FFFEFDFC900A371246BE7FC031CF900A2FEFF0700812C1DEF16812C27D126F22900A30EFF0900A2FE0700C85
:40588000A3E060087BFF7A4C79F8316C900A30E060087BFF7A4C79FC316C900A2FE070087BFF7A4D7900316C7F02F1F17F807E9F7DD57C00900A991246BE900A99E0FCA38B
:4058C000E0FDA3E0FEA3E0FF127A45EF70ECE47FDC7E05FDFC11E5D1C2EF54FEFFD1BCE47F05FEFDFC90FFFC1246FC1246BE850883850982E0A3E0A3E0FEA3E0D39400EE6B
:405900009480403D900CA4E0FCA3E0FDA3E0FEA3E0FF124C00850883850982C083C082E0FCA3E0FDA3E0FEA3E02400FFEE3480FEED34FFFDEC34FFFCD082D0831246BE809E
:40594000AD900C9AE0FCA3E0FDA3E0FEA3E0FF850883850982E0F8A3E0F9A3E0FAA3E0FB1244FF124C009000040246FC900A36EBF0A3EAF0A3E9F0E4900A3AF0A3F0900B71
:4059800010E0600312AFEFD1C2EF5401440AFFD1BC900A36E0FBA3E0FAA3E0F9126B52D1B6EF5408FF900A39E06F60F3EFF0A374FFF5F01244CA45F070E5900A3A04F0A38B
:4059C00074E0F07B007A007900126B5280D122900A36EFF0E4900A3BF0FF7ED77DA37C701267F0900AB21246BE900A36E0FD7FB751A6900A3BEFF07002419EE4FFFEFDFC77
:405A0000900A37E0F8A3E0F9A3E0FAA3E0FBC312464D6014900A37E0FCA3E0FDA3E0FEA3E0FF900AC31246BE7D807F1051A6900A3BEFF07D807F1151A6900A3BEFF07D805B
:405A40007F1251A6900A3BEFF07D0C7F1051A6900A3BEFF07D0C7F1151A6900A3BEFF07D0C7F1251A6900A3BEFF0E4FDFF128398E4FFB1007F01B100E4FD7F011285E2E40E
:405A8000FD7F021285E2E4FD7F01F12FE4FD7F02F12FE4FD7F01F181E4FD7F02F181900A3BE0FF7E0022900A5B7401F0E4A3F0900A59EFF0A3EDF07B017A0A7959900A6101
:405AC0007402F0E4A3F07F60128533900A5CEFF01284AFEF30E1F9F1EBEF64026005E4900A5BF0900A5BE0FF22900A4FEFF0900B46E0B40800400281FA905B00F828287310
:405B0000025B18025B84025BA9025BEF025C1E025C44025CA8025CD7E47F80FEFDFC900A50E0F8A3E0F9A3E0FAA3E0FB1244FFE42FFFEE34FEFEED34FFFDEC34FFFC900BF9
:405B40003A1246BEE4FFFEFDFC900B3E1246BEE47F01FEFDFC900B421246BE900B42E0FCA3E0FDA3E0FEA3E0E4FFEEE4FDFC780812465EAD07900A4FE0FF51A6900B46E069
:405B800004F081FA900A4FE004FFC007900B42E0FCA3E0FDA3E0FEA3E0FFE4AD07D00751A6900B46E004F081FA900A4FE02402FFC007900B3AE0FCA3E0FDA3E0FEA3E0E443
:405BC000FFFEED5403FDE4FC781012465EA804A905AA06AB07900A54E0FFE4EB4FFFEAE9E8AD07D00751A6900B46E004F081FA900A4FE02403FFC007900B3AE0FCA3E0FD4F
:405C0000A3E0FEA3E0E4FFEEE4FDFC780812465EAD07D00751A6900B46E004F081FA900A4FE02404FFC007900B3AE0FCA3E0FDA3E0FEA3E0FFE4AD07D00751A6900B46E0B8
:405C400004F081FA900A4FE02405FFC007900B3EE0FCA3E0FDA3E0FEA3E0E4FFFEED540FFDE4FC781012465EC004C005C006C007A3E0FCA3E0FDA3E0FEA3E0E4FFFEED543D
:405C80000FFDE4FC780C12465ED003D002D001D000EF4BFFEE4AED49EC48AD07D00751A6900B46E004F08052900A4FE02406FFC007900B3EE0FCA3E0FDA3E0FEA3E0E4FFBF
:405CC000EEE4FDFC780812465EAD07D00751A6900B46E004F08023900A4FE02407FFC007900B3EE0FCA3E0FDA3E0FEA3E0FFE4AD07D00751A6E4900B46F0900B46E0FF22DA
:405D0000900A3CEFF070067D207FB141A6900A3CE0B401067D807FB151A622E4900A27F0A3F0A3F0A3F0A3F0A3F0A3F0A3740AF01126126A63127064900A03E0FFB4430C3A
:405D4000900A28E06F6002EFF012A286D1B6EF5408FF900A25F0A3E06F60D7A3E0FF04F0EFB407004002C1A6905D6FF8282873025D84025DBF025E02025E2D025E32025E2C
:405D80003F025E54900A2EE014F070A6124CCE900A2DEFF0D1B6900A29EFF0900A2DE0FF124CB6900A29E030E4089009A27401F08005E49009A2F0900A2E740AF0A13290ED
:405DC0000A03E0FF64437002A132900A28E06F602DD1C2EF54FEFFD1BCD1C2EF4402FFD1BCD1C2900A2CEFF04408F04410FFF0D1BCE4900CE4F0900A03E0900A28F0D1C819
:405E0000A132128D169009A7E0FF900998E06F600DEFF0E075F064A4FFAEF012C809900A08E064016002A13212A03BA132127451A132900A00E06002A132128E8AA13212DE
:405E40008BE912C417EF7002A1327BFF7A4D7904316CA132900A03E064436016900A99E0FCA3E0FDA3E0FEA3E0FF127A45900A00EFF0D1B6EF20E202F1DD9009A3E0B401D0
:405E80000EE4F07F2C7E01FDFC11E5F1E3A1329009A3E064026002A132F07F2C7E01FDFC11E5F1DDA132F1F7E4900A27F0900A25E0A3F0A13222906460E0FF22906474EF8F
:405EC000F022906474E0FF22900CE2E024FE602524F8603014604A240B7053900CE4E0604D900CE3E07047900CE27402F0D1C2EF54FDFF80C7D1C2EF54F7FFD1BC900CE2CF
:405F0000740AF022900CE4E07024900CE3E0701ED1C2EF54FE4408FFD1BC900CE2740BF022D1C2EF4402FFD1BCE4900CE2F022900A3DEDF0900A3CEFF02410FF7B017A0AD1
:405F4000793E128428900A3DE0B40107A3E0547FF08007900A3EE04440F0900A3CE02410FF900A3EE0FD41A6900CE6E0700912AC97900CE67401F012C1CA9044C17480F08E
:405F800022900A3CEFF0A3EDF07B017A0A793E7F03128428EF7045900A3DE0B4011BA3E0FF900A3CE0FE7401A806088002C333D8FCF45F900A3EF0801A900A3EE0FF900AB5
:405FC0003CE0FE7401A806088002C333D8FC4F900A3EF0900A3EE0FD7F0351A6229046FA7440F09046F6E04401F022900CB8E0FF22906576EFF02212B695EF6010900B100A
:40600000E0701A7D02FF12A9F4F1900191900B10E0600AE4900CE4F0111E12AFEF227DF07F4011C5900A36EFF012C30312C2C9900CEDE0FF115E900CECE0FF115E900CEF0E
:40604000E0FF115E900CEEE0FF115E900CF0E0FF115E12C31712C2DD900A36E0FF227E01EFC39418502875F010EFA42410F582E5F03470F583E054FEF075F010EFA424105B
:40608000F582E5F03470F583E054DFF0E41EAF06227DC07F4011C57D807F4511C57DFF7F4111C57DFF7F4211C5913C314212C2EE124CCE90659BE04410F0124CB6906579AA
:4060C000E04401F022900A37EFF0A3EDF0E4900A3BF0A3F0A3F0900A3BE0FFC39402505FEF14602F0470EF900A37E0900A39F0900A38E0900A3AF07B017A0A7939900A6122
:406100007402F0E4A3F07F46128533900A3BE004F080C31284AFEF30E708900A3BE014F0800AEF30E106900A3BE004F0900A3C74FFF5F01244B445F0709C7F012280977F11
:406140000022E4900A2FF0900A2FE0FFC39403400221E9EF6402703FE02407F582E43409F583E0FF900907E0FBE4900A3EF07D01FC71B5900A2FE02407F582E43409F58369
:40618000E0FF7B017A097903E9EAE4AD01AC027B4B7A65B185804A900A2FE0FE2407F582E43409F583E0FF74082EF582E43409F583E0FB900A3E7404F07D017C0071B59087
:4061C0000A2FE02407F582E43409F583E0FF7B017A09790BE9EAE4AD01AC027B4B7A65B185900A2FE004F02147900CEFE0FFD11B900CEFE0FF900907E0FDB1FDE4900A2F5E
:40620000F0900A2FE0FFC3940340026121EF04A3F0C39403402EE4F0900A2FE0240FF582E43409F583E0FF900A30E0240FF582E43409F583E0FB900A3E7405F07D807C0138
:4062400071B58029900A2FE0240FF582E43409F583E0FF900A30E0240FF582E43409F583E0FB900A3E7401F07D80FC71B5900A2FE0FB75F080A42483F582E5F03404F58390
:40628000EB2583F583FEE582EEE4AD82AC06C005740F2BF582E43409F583E0FF7B017A09790BE9EAE4AB01D005B185900A2FE02400F582E43400F583E0FF900A30E02400E7
:4062C000F582E43400F583E0FB900A3E7402F07D807C0171B5900A2FE0F975F080A42483F582E5F03404F583E92583F583FEE582EEE4AB82AA06C002C003740029F582E476
:406300003400F583E0FF7B017A097903E9EAE4AD01AC02D003D002B185900A2FE004F04101900CEEE0FFD11B900CEEE0FF90090FE0FDB1FD900CF0E0FFD11B900CF0E0FFD7
:40634000900000E0FDB1FD900CF0E0FF7D01716A900CEEE0FF7D0112C3F2900CEEE0FF7D01716A900CEFE0FF7D017E01EFC394185040ED601575F010EFA42410F582E5F08F
:406380003470F583E04420F0801375F010EFA42410F582E5F03470F583E054DFF075F010EFA42410F582E5F03470F583E04401F0E4FEAF0622900A3BECF0A3EDF0A3EBF032
:4063C000900A3AEFF0900A3F7401F0EFC394805065900A3BE054F0A3705C900A3AE075F008A42400FFE5F03478FE900A40F0A3EFF0AA06F97B01900A3BE0FCA3E0FD124D61
:4064000019900A3DE0FF900A3AE0FE75F008A42402F582E5F03478F583EFF0900A3EE0FF75F008EEA42403F582E5F03478F583EFF0E4900A3FF0900A3FE0FF22E4900A2FF5
:40644000F0900A2FE0FFC394035070EFB4021C2404F582E43409F583E0FF900904E0FBE4900A3EF07D01FC71B58028900A2FE0FE2404F582E43409F583E0FF74052EF5824A
:40648000E43409F583E0FB900A3E7404F07D017C0071B5900A2FE02404F582E43409F583E0FF7B017A09790AE9EAE4AB017D497C65B185900A2FE004F08086900CEDE0FF7B
:4064C000D11B900CEDE0FF900904E0FDB1FDE4900A2FF0900A2FE0FFC394034002A160EF04A3F0C394034002E4F0900A2FE0240CF582E43409F583E0FF900A30E0240CF5B1
:4065000082E43409F583E0FB900A3E7402F07D807C0171B5900A2FE0F975F080A42403F582E5F03400F583E92583F583FEE582EEE4AB82AA06C002C003740C29F582E43463
:4065400009F583E0FF7B017A09790AE9EAE4AD01AC02D003D002B185900A2FE004F081D3900CECE0FFD11B900CECE0FF90090CE0FDB1FD900CECE0FF7D01716A900CEDE047
:40658000FF7D01616A900A3BECF0A3EDF0A3EAF0A3EBF0900A3AEFF0900A3F7401F0EFC394805053900A3AE075F008A42404FFE5F03478FE900A40F0A3EFF0AA06F97B0131
:4065C000900A3BE0FCA3E0FD124D19900A3AE075F008A42406FFE5F03478FE900A40F0A3EFF0AA06F97B01900A3DE0FCA3E0FD124D19E4900A3FF0900A3FE0FF227E01EF74
:40660000C39418501375F010EFA42419F582E5F03470F583EDF0E41EAF06227E01EFC39418502875F010EFA42414F582E5F03470F583E04404F075F010EFA42410F582E578
:40664000F03470F583E04401F0E41EAF0622900A30EBF0A3EAF0A3E9F0900A2FEFF024FFFFE434FFFEEFC4F8540FC868FFEEC454F048EF2488FFE43460FAA907900A367428
:4066800001F0A3EAF0A3E9F0900CE0E030E108900A357492F08006900A3574D2F0900A2FE02423F582E4340BF583E0FF115E900A2FE02407F582E4340BF583E0FBFF900A81
:4066C00033E0FCA3E0FDA3E0900A3EF071B5900A2FE02407F582E4340BF583E0FFC007900A36E0FBA3E0FAA3E0F9FFAE02EAE4AD07AC06C005900A30E0FBA3E0FAA3E0F924
:40670000FFEAE4AB07D005D007B185900A2FE02423F582E4340BF583E0FFD11B900A2FE0FE2423F582E4340BF583E0FF74072EF582E4340BF583E0FDB1FD900A2FE0242316
:40674000F582E4340BF583E0FF7D01616A900A36EFF07FF47E3D12737B126E3F900A37EFF0E0FBFFE4900A3EF07D01FC71B5900A37E0FF7B227A427D667C65B185900A369A
:40678000E0FFA3E0FDB1FD900A36E0FF7D01616A900B09E0B4FF07F1DA7F0212B18D900B0AE0B4FF07F1BE7F0312B18DE4900CE1F0F1BEE4900A33F0A3F07F03C14EF1D4B0
:4067C0007E007C017D801244A274832FF974043EFA7B0122906465E0FF22F1D47E007C017D801244A274032FF974003EFA7B012290FFFC1246FC1246BE90FFF61246FC7BFB
:4068000001900006124720A982AA83850883850982EBF0A3EAF0A3E9F07B0190000A124720A982AA83900003124720EBF0A3EAF0A3E9F0900003124720E0FBA3E0FAA3E04E
:406840002403F9E43AFA124477FF850883850982E0FBA3E0FAA3E0F9EF124490900003124720E0FBA3E0FAA3E02402F9E43AFA124477FF850883850982E0FBA3E0FAA3E066
:406880002401F9E43AFAEF124490900003124720E0FBA3E0FAA3E02401F9E43AFA124477FF850883850982E0FBA3E0FAA3E02402F9E43AFAEF124490900003124720E0FBF6
:4068C000A3E0FAA3E0F9124477FF850883850982E0FBA3E0FAA3E02403F9E43AFAEF124490900006124720E0FCA3E0FDA3E0FEA3E0FF90000E0246FC900A30EBF0A3EAF059
:40690000A3E9F0900A2FEFF024FFFFE434FFFEEFC4F8540FC868FFEEC454F048900A35EFF02488FFE43460FAA907900A377401F0A3EAF0A3E9F0900CE0E030E008900A3693
:406940007491F08006900A3674D1F0900A33E0FCA3E0FDECFF900A2FE0FE75F00BA42438F582E5F03409F583E04FFF900A35E0FB240CF582E43460F583EFF0ED740D2BF58F
:4069800082E43460F583EDF074232EF582E4340BF583E0FF12605E900A2FE02407F582E4340BF583E0FBFF900A33E0FCA3E0FD900A36E0900A3EF01263B5900A2FE02407A3
:4069C000F582E4340BF583E0FFC007900A30E0FBA3E0FAA3E0F9FFAE02EAE4AD07AC06C005900A37E0FBA3E0FAA3E0F9FFEAE4AB07D005D007126585900A2FE02423F58266
:406A0000E4340BF583E0FF12661B900A2FE0FE2423F582E4340BF583E0FF74072EF582E4340BF583E0FD1265FD900A2FE02423F582E4340BF583E0FF7D0112636A900A2F57
:406A4000E075F00BA42436F582E5F03409F583E4F0900A35E02480F582E43460F583E04401F0227F037127EF6012900CE1E0701B7F0351CC900CE17401F0800F900CE1E032
:406A800060097F037134E4900CE1F0711AEF60047F0351CC7F037109EFB401161267BE900A337401F0A37480F07F0312664E7F0351CC7F027109EFB401111267DA900A331B
:406AC0007401F0A37480F07F0211F822EFD394004036EF94095031EF75F00BA42436F582E43409F583E4F0EF75F00BA4243AF582E43409F583E0FE75F010EFA424FEF582F4
:406B0000E5F0345FF583EEF022EF75F00BA42436F582E43409F583E0FF22E4FF900922E06004E0FFE4F02274122FF582E43409F583E0FF22EFD394004017EF94095012757A
:406B4000F010EFA424FEF582E5F0345FF5837408F022EA494B6015E4900BB5F0900BB8F0900BBAEBF0A3EAF0A3E9F022900BB8E0147002811414700281451470028177249A
:406B80000360028193900BBAE0FBA3E0FAA3E0F9900BB5E0FFE92FF9E43AFA1244777004900BB5F0900BBAE0FBA3E0FAA3E0F9900BB5E0FF04F0E92FF9E43AFA124477FF19
:406BC000C39461400AEFD3947A500474E02FFFEFC394224006EFD3945A4008900BB67407F0800F749B2FF582E4340BF583E0900BB6F0900BB6E0FF5407A3F070037406F090
:406C0000EFB40710900BB97402F0E4900BB7F0A37403F022900BB6E0FF30E708900BB97403F08006900BB97401F0EF25E0900BB6F0A3E014F0125EC2EF54FEFF125EBC905B
:406C40000BB87402F0900BB9E07025900BB87403F0900BB7E07008900BB97402F08005E4900BB9F0125EC2EF4401FF125EBC8007900BB9E014F022900BB9E07010900BB7DF
:406C8000E07003A3F022900BB87401F022900BB9E014F022E4900A3AF0A3F0FBFA7D017F0191B112674D91F5E47F01FEFDFC0258E5900A38EAF0A3EBF0AE05E4900CF1F004
:406CC000AD07AF06AB07900A40F0A3F0A3F0FFF1EB900CF1E0FF900A38E0FCA3E0FDA3E0FAA3E0FBF173900CF1E0FFE4FDB104900CF1E0FF229064957420F0906492F09012
:406D00006491F022AC077B01ECC39418503375F010ECA42410F582E5F03470F583E054F1FAED540725E0FFE433AE02EF4AFF75F010ECA42410F582E5F03470F583EFF0E4D0
:406D40001BAF0322900A39EAF0A3EBF0AE05900CEC7403F0AD07AF06AB07E4900A40F0A3F0A3F07F03F1EB900CECE0FF900A39E0FCA3E0FDA3E0FAA3E0FBF173900CECE0AD
:406D8000FF7D01B104900CECE0FF22900A39EAF0A3EBF0AE05900CED7404F0AD07AF06AB07900A40F0E4A3F0A3F07F04F1EB900CEDE0FF900A39E0FCA3E0FDA3E0FAA3E064
:406DC000FBF173900CEDE0FF7D01B104900CEDE0FF22E4900A3BF0A3F0FBFA7D017F01B18BE4900A3BF0A3F0FBFA7D017F01B144E4900A36F0900A36E0C394035019D13F59
:406E0000900A36E02404F582E43409F583EFF0900A36E004F080DEE4900A36F0900A36E0C394035019D13F900A36E0240CF582E43409F583EFF0900A36E004F080DE2290DF
:406E40000A3874FFF0124CCE900CCBE0D394184023900CCAE0FE900A38F0900CCBE014F075F008EEA42400F582E5F03478F583E0900CCAF0124CB6900A38E0FF22E4900A99
:406E80003BF0A3F0FBFA7D017F01F12CE4900A3BF0A3F0FBFA7D017F0112C328E4900A3BF0A3F0FBFA7D017F0112C372E4900A36F0900A36E0C394035019D13F900A36E08B
:406EC0002407F582E43409F583EFF0900A36E004F080DEE4900A36F0900A36E0C394035019D13F900A36E0240FF582E43409F583EFF0900A36E004F080DEE4900A36F09047
:406F00000A36E0C394035019D13F900A36E02400F582E43400F583EFF0900A36E004F080DE2212C2A6B1D2D17D02601E900A39EAF0A3EBF0AE05900CEE7405F0AD07AF067B
:406F4000AB07900A40F0E4A3F0A3F07F05F1EB900CEEE0FF900A39E0FCA3E0FDA3E0FAA3E0FBF173900CEEE0FF7D01B104900CEEE0FF22900A3EECF0A3EDF0A3EAF0A3EBCE
:406F8000F0900A3DEFF0900A427401F0EFC394185053900A3DE075F008A42404FFE5F03476FE900A43F0A3EFF0AA06F97B01900A3EE0FCA3E0FD124D19900A3DE075F00839
:406FC000A42406FFE5F03476FE900A43F0A3EFF0AA06F97B01900A40E0FCA3E0FD124D19E4900A42F0900A42E0FF22AC077A01ECC39418506CEB540175F080A4FFED547FCB
:407000004FFF75F008ECA42400F582E5F03476F583EFF0900A41E0540F75F010A4FF900A40E0540F4FFF75F008ECA42401F582E5F03476F583EFF0900A42E0540FFF75F001
:4070400008ECA42402F582E5F03476F583EFF075F008ECA42403F582E5F03476F583E4F01AAF0222906461E0FD7C0020E002413DA3E0FEE42DFDEC3EFCFEAF05ED2410FFFD
:40708000EE34AA900A2FF0A3EFF0900CAAE0FEA3E0FF900A2FE0FCA3E0FDC39FFFEC9EA3F0A3EFF0EC1243BD7B177AB779D178391242121243F6900A33EEF0A3EFF0900ACA
:4070C00031E0FCA3E0FDEC1243BDE4FBFAF9783F1242121243F6900A2FE0FDA3E0900CAACDF0A3EDF0900A34E02FFF900A33E03EFE900CA9E02FF0900CA8E03EF0D3A3E06E
:4071000094E8900CA8E0943F4007743FF0A374E8F0C3900CA9E0940C900CA8E0943A5007743AF0A3740CF0900CADE07002A3E070024133900CACE0602FE4900CA8F0A3F01B
:40714000900CACE014F060024133125EC2EF54FEFF125EBC900CA8743DF0A374F4F07D017F0C7E00513E4133900CAEE024FFF0900CADE034FFF0900A31E0FEA3E0FFC3EEA0
:4071800064809480500FC3900CB0E09FF0900CAFE09EF08014900A31E0FEA3E0FF900CB0E02FF0900CAFE03EF0900CAFE0C313FEA3E013FF900CAFEEF0A3EFF0C39402EE58
:4071C00094005018A3E07002A3E0602D900CB2E024FFF0900CB1E034FFF0801DD3900CB0E09407900CAFE09400400E900CB2E004F07006900CB1E004F0D3900CB2E0943239
:40720000900CB1E09400402BE4900CAFF0A3F0A3F0A3F0900CAC74C8F0A3740BF0A374B8F0125EC2EF4401FF125EBC7D017F0D7E00513E900CA8E0FEA3E0FF717B22900A11
