:100000000204AE008F828E83E0540100000070F87D
:100010002278FFE4F6D8FD020513BB010689828A27
:1000200083E0225002E722BBFE02E32289828A8318
:10003000E49322BB010689828A83F0225002F722D0
:10004000BBFE01F322C5F0F8A3E028F0C5F0F8E507
:1000500082158270021583E038F022BB010A898282
:100060008A83E0F5F0A3E022500687F009E7192221
:10007000BBFE07E3F5F009E3192289828A83E49342
:10008000F5F074019322BB010A89828A83F0E5F0BE
:10009000A3F0225006F709A7F01922BBFE06F3E5EC
:1000A000F009F31922EF2BFFEE3AFEED39FDEC38A3
:1000B000FC22C3EF9BFFEE9AFEED99FDEC98FC222B
:1000C000E88FF0A4CC8BF0A42CFCE98EF0A42CFCDF
:1000D0008AF0EDA42CFCEA8EF0A4CDA8F08BF0A45D
:1000E0002DCC3825F0FDE98FF0A42CCD35F0FCEBBC
:1000F0008EF0A4FEA9F0EB8FF0A4CFC5F02ECD3981
:10010000FEE43CFCEAA42DCE35F0FDE43CFC227577
:10011000F008758200EF2FFFEE33FECD33CDCC33E8
:10012000CCC58233C5829BED9AEC99E58298400C50
:10013000F582EE9BFEED9AFDEC99FC0FD5F0D6E42E
:10014000CEFBE4CDFAE4CCF9A88222B800C1B90014
:1001500059BA002DEC8BF084CFCECDFCE5F0CBF975
:100160007818EF2FFFEE33FEED33FDEC33FCEB336D
:10017000FB10D703994004EB99FB0FD8E5E4F9FA9B
:10018000227818EF2FFFEE33FEED33FDEC33FCC980
:1001900033C910D7059BE99A4007EC9BFCE99AF913
:1001A0000FD8E0E4C9FAE4CCFB2275F010EF2FFF82
:1001B000EE33FEED33FDCC33CCC833C810D7079BEC
:1001C000EC9AE899400AED9BFDEC9AFCE899F80F4F
:1001D000D5F0DAE4CDFBE4CCFAE4C8F922EF4BFF2A
:1001E000EE4AFEED49FDEC48FC22C3E49FFFE49E8D
:1001F000FEE49DFDE49CFC22EB9FF5F0EA9E42F0BC
:10020000E99D42F0E89C45F022E8600FECC313FC46
:10021000ED13FDEE13FEEF13FFD8F122E8600FEFB0
:10022000C333FFEE33FEED33FDEC33FCD8F122BBDC
:10023000010789828A830202695005E9F802046C89
:10024000BBFE05E9F802047889828A83020275BB45
:10025000010789828A830202915005E9F802048429
:10026000BBFE05E9F802049022E0FCA3E0FDA3E058
:10027000FEA3E0FF22E493FC740193FD740293FE5D
:10028000740393FF22E0F8A3E0F9A3E0FAA3E0FBF4
:1002900022ECF0A3EDF0A3EEF0A3EFF022A4258270
:1002A000F582E5F03583F58322E0FBA3E0FAA3E0D5
:1002B000F922EBF0A3EAF0A3E9F022E493FB740146
:1002C00093FA740293F922BB010789828A8302029E
:1002D000A95005E9F802049CBBFE05E9F80204A553
:1002E00089828A830202BBD083D082F8E4937012A1
:1002F000740193700DA3A393F8740193F58288831E
:10030000E4737402936860EFA3A3A380DFE509257B
:1003100082F582E5083583F583B5080485820922D4
:1003200010AF06858209F50822858209F508D2AF4B
:1003300022EC8EF0A4CCC5F0CCCDF8EFA4CEC5F065
:100340002DFDE43CFCE8A42EC8C5F03DFDE43CFCDA
:10035000EFA4FFE5F028FEE43DFDE43CFC22EF4E77
:100360006012EF60010EEDBB010B89828A83F0A35E
:10037000DFFCDEFA2289F05007F709DFFCA9F02242
:10038000BBFEFCF309DFFCA9F022E709F608DFFA5F
:100390008046E709F208DFFA803E88828C83E7090D
:1003A000F0A3DFFA8032E309F608DFFA806EE30992
:1003B000F208DFFA806688828C83E309F0A3DFFA13
:1003C000805A89828A83E0A3F608DFFA804E898208
:1003D0008A83E0A3F208DFFA804280D280FA80C6E6
:1003E00080D4805580F28029801080A680EA809A8F
:1003F00080A880DA80E280CA802988848C858982FE
:100400008A83E493A30586F0A30586DFF5DEF380F7
:100410000B89828A83E493A3F608DFF9ECFAA9F04A
:10042000EDFB2288848C8589828A83E0A30586F08F
:10043000A30586DFF6DEF480E389828A83E493A352
:10044000F208DFF980D688F0EF60010E4E60CD88AB
:10045000F0ED2402B4040050C3F582EB2402B4048E
:100460000050B923234582239003DA73E6FC08E6A3
:10047000FD08E6FE08E6FF22E2FC08E2FD08E2FED7
:1004800008E2FF22ECF608EDF608EEF608EFF62299
:10049000ECF208EDF208EEF208EFF222E6FB08E6D5
:1004A000FA08E6F922E2FB08E2FA08E2F92275937B
:1004B0000078007583467582E8E04401F0009046BC
:1004C000ECE0F99046FAE0FA9003E0F0B903225428
:1004D00020B40012B8001AEA901FFFF07401901FB8
:1004E000FEF09046F6F0901FFEE06005901FFFE0E2
:1004F000FA90480074C0F075815912181B900000E2
:1005000078007920E4F0A3D8FCD9FAEA9003E0F06F
:1005100002001175081F7509FD1227FE1210FE0258
:10052000055D020B10E493A3F8E493A34003F68067
:1005300001F208DFF48029E493A3F85407240CC8DF
:10054000C333C4540F4420C8834004F4568001468A
:10055000F6DFE4800B01020408102040809005A221
:10056000E47E019360BCA3FF543F30E509541FFEB5
:10057000E493A360010ECF54C025E060A840B8E426
:1005800093A3FAE493A3F8E493A3C8C582C8CAC5A9
:1005900083CAF0A3C8C582C8CAC583CADFE9DEE73B
:1005A00080BE4103E5004103E6004203F209D04268
:1005B00003F409D14103FD004403DC016E3600441D
:1005C00003D700005DC04103DB184403E12EE000C7
:1005D000004103FE004303ED0000004103FF004122
:1005E00004000000EC4D6011ED60010C8B938A83D8
:1005F0008982E4F0A3DDFCDCFA759300220221EA93
:10060000EC4D4E700D78FCEF24E950032840FD229C
:1006100000007BF178DA0000EF28FF78FFEE38FE6B
:10062000ED38FDEC38FC50E7EF2BFFEE38FEED38EF
:10063000FDEC38FC40F22205020304758600EF4E03
:100640006027EF60010E759300900005E0F595A31B
:10065000E0F585A3E0F5848B938A838982E0A30586
:1006600086F0A31586DFF6DEF4E4F593F59522AC6B
:10067000EAADA08E838F82E493F9601CA3E493F526
:10068000EAA3E493F5A0A3E49360F1FAA3E493F85A
:0F069000A3E493F2DAF6D9E48DA08CEA22323299
:1006A000EEFA9003DBE0F88FF0A4FFAEF0E88AF0FA
:1006B000A42EFEE5F03400FDEF24C9FF78FFEE38EC
:1006C000FEED38FDE438FC5003020600227586007A
:1006D000EF4E601BEF60010E8C838D828B958A85B7
:1006E0008984E493A30586F0A31586DFF5DEF3E4A1
:1006F000F59522EF54016004D2AF8002C2AFEF54EF
:1007000002FF9044F4E054FD4FF0229044F4E0F8EE
:100710004402F0E85402FF10AF012274014FFF229F
:100720008B938A838982E0FFA3E0FE759300228B7E
:10073000938A838982EDF0A3ECF0759300229003F5
:10074000E0E0FA8E838F827400758101738B938A47
:10075000838982E0759300FF228B938A838982EDDF
:10076000F0759300221201000200000008B4041D7D
:10077000B701300203800109022900010100C00213
:1007800009040000020300000309211101000122F5
:100790002400070501034000010705820340000112
:1007A000040309040C0341004500390052004200D3
:1007B0002C03430079007000720065007300730021
:1007C0002000530065006D00690063006F006E003B
:1007D00064007500630074006F0072002203500013
:1007E00053006F0043003300200042006F006F0091
:1007F00074006C006F006100640065007200000A04
:10080000033000300030003100240005010900A150
:10081000000900A1000900150025FF750895409109
:10082000020900150025FF750895408102C0C0002F
:1008300000240005010900A1000900A1000900151C
:100840000025FF7508954091020900150025FF75E8
:100850000895408102C0C00000004101028E0102E3
:10086000D200410102D50102CF00FF085900FF0864
:10087000610000000001FF083101FF078901FF0846
:1008800069000001030040030000820300400303ED
:1008900001FF077702FF088101FF087D00FF088F35
:1008A00001FF07650000000001FF089001FF08A09C
:1008B00000010100010000004000000808000800DD
:1008C000C000006F0B0040000000004060006000AE
:1008D0000000170045017E02004F010A4B0052053F
:1008E00009400C20102011207C400064017D010192
:1008F0000501EE010109019C80010B039C80AA40C7
:10090000B401010C05B880BE41D804DB04DF01014D
:100910000D0618011A80588068028802D60801174F
:1009200001EE0A0119029C80EE0A011B01B0800150
:100930004004320433803640CC700141039608A64F
:1009400040A78001420A12805B0296089B02A640E3
:10095000A780AB02C410D640EE80014303A640A797
:1009600080AE8401450464048804D801E401014692
:1009700003A102B502EC0801470408080F40A102D8
:10098000C20C014803AE40AF80EE50014C070F404F
:100990006102A102AC08AF40C204D802014D02B30B
:1009A00040EA04015101003A004F00000C005100E0
:1009B0000010005130004001000010000114000838
:1009C000000140000A00014C00020001500000201C
:1009D00000FFFFFFFF6930091E033C010144E342B1
:1009E000830143009481424400C0E0C0F0C083C052
:1009F00082C085C084C086758600C093759300C090
:100A0000D075D000C000C001C002C003C004C00542
:100A1000C006C0079003E6E01460481460741470C8
:100A20000241C12403600241E19003EA1202A9904D
:100A300003E5E0FF04F0E92FF9E43AFA12001A9016
:100A400003E7F0E0FE5407A3F0EE70179003E5F023
:100A50009003E97402F09003E8E4F09003E6740375
:100A6000F0807E9003E7E0FF30E7089003E974032D
:100A7000F080069003E97401F0EF25E09003E7F0C1
:100A8000A3E014F0710AEF54FEFF71049003E674C2
:100A900002F09003E9E070219003E67403F0900304
:100AA000E8E07006A37402F080059003E9E4F071B9
:100AB0000AEF4401FF710480089003E9E014F0801C
:100AC000209003E9E070149003E8E070069003E6DC
:100AD000F0800E9003E67401F080069003E9E014C4
:100AE000F0D007D006D005D004D003D002D001D07A
:100AF00000D0D0D093D086D084D085D082D083D07F
:100B0000F0D0E03290647DEFF02290647DE0FF222F
:100B10007BFF7A0979DD9003EA1202B212274CEFCB
:100B200030E01E1227ECEF600E7BFF7A0979E4902B
:100B300003EA1202B2800AE4FF7156EF7003FF91DC
:100B4000DD7E097FE9F17EB1C8D2AF9044F474FD37
:100B5000F0B14280FE228F46AD467F0312183CEF73
:100B60002401FFE43EFEE43DFDE43CFCE4FB7A01AD
:100B7000F9F81200C0C004C005C006C007AD467F2A
:100B80000412183CD003D002D001D0001200A58F6F
:100B90004E8E4D8D4C8C4BC201E4F54FAD467F031C
:100BA00012183CEF2401FFE43EFEE43DFDE43CFC72
:100BB000E4FB7A01F9F81200C08F4A8E498D488C07
:100BC00047AF4EAE4DAD4CAC4BAB4AAA49A948A875
:100BD00047C31201F85032854A82854983E493F570
:100BE000506005F46002D201E550254FF54FAF4A41
:100BF000AE49AD48AC47E47B01FAF9F81200A58F85
:100C00004A8E498D488C4780B8AD467F0312183C08
:100C1000EF2401FFE43EFEE43DFDE43CFCE4FB7A0E
:100C200001F9F81200C078031202098F4A8E498D2B
:100C3000488C47E47FC07EFFFDFCAB4EAA4DA94C1B
:100C4000A84BC31201F87007FF7E20FDFC800DAF9A
:100C50004EAE4DAD4CAC4B78031202098F4E8E4D0B
:100C60008D4C8C4BAF4EAE4DAD4CAC4BAB4AAA4904
:100C7000A948A847C31201F85039E4254AFFE435D2
:100C800049FEE5483408FDE43547A907AA06AB0547
:100C900012074DEF254FF54FAF4AAE49AD48AC476F
:100CA000E47B01FAF9F81200A58F4A8E498D488C31
:100CB0004780B1E54FF404F54FAD467F0112183C73
:100CC000A804A905AA06AB07AF4FE4FCFDFEC312BA
:100CD00001F870032001037F06227F00228F21E5A7
:100CE00021B402079046FAE4F0804FAF217156EF2D
:100CF0007043F522E522C394015032AF227E007C7E
:100D0000017D00120331C374D09FFF74FF9EFE74F7
:100D1000109DFDE49CFCE522B521047B0180027B53
:100D200000900004EBF01222E4052280C79046FAFE
:100D30007480F080059046FAE4F09046F6E04401B5
:100D4000F022752106E4FF7156EF7002F521E4F5FB
:100D50004DF54CF54BF54A9003F4E0FEA3E0F58227
:100D60008E831202758F518E508D4F8C4EE4FFFE94
:100D70007D10FC1217959003F2E0FCA3E0F5828C45
:100D800083E493FEC3EF9EFFF404FFB506129003C5
:100D9000F4E0FEA3E0F5828E83120275EF4E70043C
:100DA0007F00B1ED9046FAE054C064406004E52154
:100DB00060099046FAE4F0FF121BDAE4FF121BDA36
:100DC0009046FA7480F0A13A9003FDE07009122772
:100DD000709003FD7401F09043A3E04401F0904350
:100DE000B3E04401F0904F00E04401F02290FFFF97
:100DF00012030DEFF09046EA7401F0900001020337
:100E00000D900262EFF0A3EDF0D394075002800141
:100E1000C340047F00B1ED900262E0D3941F500202
:100E20008001C340047F00B1ED900263E054077578
:100E3000F020A4FF900262E0541F2480F582E43485
:100E400044F583EFF02212070B900261EFF090431C
:100E5000A5E04401F09043B5E04401F090609D743A
:100E600001F090600904F0906010E0547FF0E4FF1E
:100E7000FE1206A0904394E054F9F0906012E05402
:100E8000DFF0904394E04401F07F017E001206A061
:100E90007F287E001206A09051F8E0547FF0E054C5
:100EA000BFF0904394E04402F07F027E001206A05F
:100EB000904394E04404F0906084E4F0A3F0900246
:100EC00061E0FF1206F37D077F17D1017C287D7B4F
:100ED0007F17F1187D077F18D1017C297DE37F18EA
:100EE000F1187D077F15D1017C067D9E7F15F118D5
:100EF0007D07E4FFD1017C377DC9E4FFF1187D0750
:100F00007F01D1017C387D197F01F1187D077F0CAD
:100F1000D1017C227D947F0C900263ECF0A3EDF074
:100F2000900262EFF0D3941F50028001C340047F0F
:100F300000B1ED900262E0541F25E0FFE433FEE4CF
:100F40002FFFEE3444FAA9077B01120722900265B5
:100F5000EEF0A3EFF0900262E075F002A42400FF2F
:100F6000E5F03444FAA9077B01A3E0FEA3E0FFFD0E
:100F7000AC06120731900265E0FEA3E0FF2290006C
:100F800000EEF0A3EFF0122769900000E0FEA3E06E
:100F9000FF1227527F0712275F9044C07404F0228B
:100FA00090025FEFF0A3EDF09003FFE07008D146F0
:100FB0009003FF7401F090025FE0FFA3E0FDE4FE08
:100FC0007E019003F87401F0A3DEFC7E01900329FA
:100FD000EFF0E4900328F0900323F090032BF090BF
:100FE000031FF0900325F090032AF0900320F09067
:100FF00044C27480F0A37401F09044C27420F09055
:1010000044C07401F004F0ED14600C0470129060A0
:1010100009E054FEF08010906009E04401F0800780
:10102000906009E04401F09060287403F09060083B
:101030007480F0E47F01FEFDFC12060090601274E3
:1010400004F0227B007A4079807DBF7C5D12072FFF
:101050009040827419F09043007406F07B007A424D
:1010600079127D177C3312072F9042107405F0E03F
:10107000FFE47FC87E32FDFC9000001202919000D8
:1010800000120269D3EF9400EE94004029904210C0
:10109000E054806021E47FE07E01FDFC12060090B8
:1010A000000012026974FFFBFAF9F81200A5900023
:1010B0000012029180C89042007452F07B0C7A01B9
:1010C000790F12074D9046A1EFF07B007A4079042A
:1010D000E4FDFC12072F9040047407F0904006E4F2
:1010E000F09040087448F0904004E4F0904009F01B
:1010F0009040017402F09043A2E04401F0227B0092
:101100007A4679E812074DEF4405FD7B007A46796F
:10111000E8120759E4F523E523C39408502CE5238E
:1011200075F005A424A8F582E43409AF82F5218F77
:1011300022F5831202BB8F82852183740393FC7492
:101140000493FD1205E4052380CD7E087FD21206AC
:101150006F7B017A50790312074DEF4402FD7B014A
:101160007A5079031207597B017A50791312074D8F
:10117000EF4402FD7B017A5079131207599043A086
:10118000E04440F09043C2E04410F07C087DB07B26
:10119000007A5179C27F087E001206CD7C087DB8A6
:1011A0007B007A5179F07F0A7E001206CD7C087DA3
:1011B000C27B007A5179127F087E001206CD7C082E
:1011C0007DCA7B007A5179227F087E001206CD907D
:1011D00044F47401F0904322E04408F09046ECE0BF
:1011E000C394055006904689743AF090480074F113
:1011F000F0114390480074B1F0511C7B007A4379A0
:10120000A0C00179B09000051202B2D0017F0E7E1D
:101210000012063B9043B0E054FDF0227B0C7A01B3
:1012200079CF12074DEF540790586EF0EFC4540F6A
:10123000A3F09058767444F0228B4E8A4F89508CDC
:10124000518D5274FFF553F554855157855258E529
:1012500052455170086354FF6353FF41E5C3E5589D
:101260009552FFE5579551FEAB4EE5502FF9E54FEE
:101270003EFA12001A755500F556E4FDEDC39408C8
:10128000503DE5565401FFE5545401FBE4EB6F601B
:1012900015E553C313FEE55413FFEE6484F553EFD5
:1012A0006408F554800BE553C313F553E55413F567
:1012B00054E555C313F555E55613F5560D80BDE5B8
:1012C00052155270021551E552455170906354FF0A
:1012D0006353FF855355855456E554FCE555FFECA3
:1012E000F553EFF554AE53AF54228B478A488949E2
:1012F0007401120033AB472549F9E43548FAEF127F
:101300000033E54BAB47E5492402F9E43548FAE5FB
:101310004B120033E54AFFAB47E5492403F9E435B6
:1013200048FAEF120033AB47AA48A949E54B240419
:10133000FDE4354AFC51398E4C8F4DEFAB47E54B00
:101340002404FDE4354AFCE5492DF9E5483CFAEF73
:10135000120033E54CFFAB47E54B2405FDE4354A6D
:10136000FCE5492DF9E5483CFAEF120033AB47E5BF
:101370004B2406FFE4354AFEE5492FF9E5483EFADD
:101380007417120033E54B2407FDE4354AFC75530E
:101390000075540075554A755696AB47AA48A94939
:1013A0008C518D52E55675F00AA485F058F5599088
:1013B0000263E4F0A37440F07F02D16F7F0271FBFF
:1013C000EF7018E55945586012E47F01FEFDFC916D
:1013D0000CE55915597002155880E17F0271FBEF39
:1013E00070057557108011AB53AA54A955E5518566
:1013F00052F0120086E4F557AF5722EF75F00BA4B8
:101400002431F582E43403F583E0FF2290FFFC12DF
:10141000030D120291850883850982120269D3EFB8
:101420009400EE9480402E9003E1120269120600AF
:10143000850883850982C083C082120269E42FFF78
:10144000EE3480FEED34FFFDEC34FFFCD082D0831F
:1014500012029180C09003D7120269850883850922
:10146000821202851200C012060090000402030DD1
:101470008B468A4789488C498D4AE54E75F00AA407
:1014800085F050F551D3E54A9440E5499400400673
:10149000754900754A409003FEE0602DB140EF7041
:1014A00018E55145506012E47F01FEFDFC910CE50A
:1014B0005115517002155080E3B140EF6017B180B3
:1014C000B146E49003FEF0800CB180EF6007B140BC
:1014D000EF6002B146E54E75F00AA485F050F55173
:1014E0007F0171FBEF64016018E55145506012E423
:1014F0007F01FEFDFC910CE55115517002155080E5
:10150000DF7F0171FBEFB40125AB46AA47A94890E4
:101510000263E549F0A3E54AF07F01B18DAB4BAA28
:101520004CA94DEE8FF0120086E4F54F800FAB4BC7
:10153000AA4CA94DE4F5F0120086754F10AF4F226A
:1015400090032BE0FF227F01EFD394004031EF9412
:1015500009502CEF75F00BA42431F582E43403F527
:1015600083E4F0EF75F00BA42435F582E43403F541
:1015700083E0FE75F010EF905FFE12029DEEF02208
:10158000E4FF900323E06004E0FFE4F02290025FB8
:10159000EFF0A31202B29002601202A9E94A4B7066
:1015A00002C12790025FE0FFD39400407AEF9409D4
:1015B0005075D137D3900264E09F900263E09E4063
:1015C0000990025FE0FFD1378008900263E0FEA33C
:1015D000E0FF900263EEF0A3EFF0E4A3F0A3F0903D
:1015E0000263E0FEA3E0FFA3E0FCA3E0FDC39FECE9
:1015F0009E502B90025FE075F01090607812029D73
:10160000E0FF9002601202A9E92DF9EA3CFAEF121C
:101610000033900265E475F00112004580C190022C
:101620005FE0FFB1488007E4900263F0A3F090020E
:1016300063E0FEA3E0FF22E4FDFCEFD39400402A28
:10164000EF9409502575F010EF905FFC12029DE0B9
:10165000540FFD75F010EF905FFD12029DE0FBED61
:10166000FCEBFD24FEFD74FF3CFCAE04AF052290B4
:1016700002601202B290025FEFF0D394005002E1D8
:1016800094E0FF94094002E194EF75F00BA4243636
:10169000F582E43403F583E0FEA3E0FFC3E49FFF9B
:1016A00074029EFED3900264E09F900263E09E402D
:1016B0002490025FE075F00BA42436F582E4340335
:1016C000F583E0FEA3E0FFC3E49F900264F07402A0
:1016D0009E900263F0900263E0FCA3E0FDECFF90BB
:1016E000025FE0FE75F00BA42433F582E43403F5C9
:1016F00083E04FFF75F010EE905FFC12029DEFF05B
:10170000ED90025FE075F010905FFD12029DEDF02C
:101710009002601202A9E94A4B6046E4900265F02B
:10172000A3F0900263E0FEA3E0FFA3E0FCA3E0FDD2
:10173000C39FEC9E502B9002601202A9E92DF9EA9A
:101740003CFA12001AFF90025FE075F0109060788A
:1017500012029DEFF0900265E475F00112004580E1
:10176000C190025FE0FF75F00BA42431F582E434F0
:1017700003F583E4F0EF75F00BA42435F582E4342F
:1017800003F583E0FF90025FE075F010905FFE12BA
:10179000029DEFF0228F498E488D478C46E4F5522A
:1017A000EF7003EE64806019E4FFFE7D10FCAB492E
:1017B000AA48A947A846C31201F860057F00120D88
:1017C000EDD3E5519400E5509400404CAF51AE503C
:1017D000AD4FAC4E74FFFBFAF9F81200A58F518E95
:1017E000508D4F8C4EE549254DFFE548354CFEE5C3
:1017F00047354BFDE546354AFCEF2551FFEE3550A8
:10180000FEED354FFDEC354EA907AA06AB051207D4
:101810004DEF2552F55280A9AF52229046FAE0547E
:10182000C064807016F521F0AD217F02113CEF4EAF
:101830006009AD217F02113C12073E2290025FED4C
:10184000F0AB079002647402F0E4FFFEFDFCA3120B
:101850000291EB1202E7187E0118AA0218CE0318B3
:10186000F204191605194006198E07196A0819B2EB
:101870000919D60A1A000B1A2A0C00001A549002F1
:101880005FE0FF7E007C017D001203311201EAEF70
:1018900024C0FFEE34FFFEED3410FDE43CFCA31247
:1018A00002919002647401F0416490025FE0FF7E57
:1018B000007C017D00120331C374C39FFF74FF9E3F
:1018C000FE74109DFDE49CFCA31202914164900201
:1018D0005FE0FF7E007C017D00120331C374C79F6F
:1018E000FF74FF9EFE74109DFDE49CFCA312029108
:1018F000416490025FE0FF7E007C017D00120331B5
:10190000C374CB9FFF74FF9EFE74109DFDE49CFC8E
:10191000A3120291416490025FE0FF7E007C017D92
:1019200000120331C374D09FFF74FF9EFE74109D9C
:10193000FDE49CFCA31202919002647401F04164E6
:1019400090025FE0FF7E007C017D00120331C374D2
:10195000D19FFF74FF9EFE74109DFDE49CFCA312BA
:1019600002919002647401F0416490025FE0FF7E96
:10197000007C017D00120331C374D69FFF74FF9E6B
:10198000FE74109DFDE49CFCA31202914164900240
:101990005FE0FF7E007C017D00120331C374D29FA3
:1019A000FF74FF9EFE74109DFDE49CFCA312029147
:1019B000416490025FE0FF7E007C017D00120331F4
:1019C000C374D49FFF74FF9EFE74109DFDE49CFCC5
:1019D000A3120291416490025FE0FF7E007C017DD2
:1019E00000120331C374D89FFF74FF9EFE74109DD4
:1019F000FDE49CFCA31202919002647404F08064E4
:101A000090025FE0FF7E007C017D00120331C37411
:101A1000DC9FFF74FF9EFE74109DFDE49CFCA312EE
:101A200002919002647401F0803A90025FE0FF7EC0
:101A3000007C017D00120331C374E09FFF74FF9EA0
:101A4000FE74109DFDE49CFCA3120291900264744C
:101A500004F080107F00120DEDE4FFFEFDFC90020B
:101A600060120291900264E0B401199002601202C7
:101A700069A907AA06AB0512074DE4FCFDFE90021A
:101A800065120291900264E06402705C9002601240
:101A90000269EF2401FFE43EFEE43DFDE43CA907BA
:101AA000AA06AB0512074DE4FCFDFE90026512028A
:101AB00091900265120285C000C001C002C003906F
:101AC0000260120269A907AA06AB0512074DE4FCE1
:101AD000FDFE780812021CD003D002D001D0001203
:101AE00001DD900265120291900264E064046002DC
:101AF00061D4900260120269EF2403FFE43EFEE429
:101B00003DFDE43CA907AA06AB0512074DE4FCFD28
:101B1000FE900265120291900265120285C000C01B
:101B200001C002C003900260120269EF2402FFE4C8
:101B30003EFEE43DFDE43CA907AA06AB0512074DB5
:101B4000E4FCFDFE780812021CD003D002D001D0C4
:101B5000001201DD90026512029190026512028569
:101B6000C000C001C002C003900260120269EF24ED
:101B700001FFE43EFEE43DFDE43CA907AA06AB05F7
:101B800012074DE4FCFDFE781012021CD003D002B7
:101B9000D001D0001201DD90026512029190026521
:101BA000120285C000C001C002C003900260120290
:101BB00069A907AA06AB0512074DE4FCFDFE7818DB
:101BC00012021CD003D002D001D0001201DD90021D
:101BD00065120291900265020269900000EFF0E444
:101BE000F541F54275430AC200F544F54512264316
:101BF000EF60057F00120DED12282ED2AF9044F455
:101C000074FDF0E4F53D754B00754C00754D399051
:101C10000000E0FF70067EFF7FFF80008F4E7B019B
:101C20007A0079017D2C7C011214708F40900000A5
:101C3000E060021543E5436004E54070C9E540609B
:101C4000030221DAC3E53A9407E53994004008908D
:101C50000001E064016005753D0481E2900004E04C
:101C6000FE900003E0FDEEF541EDF542E54224076C
:101C7000FFE43541FED3EF953AEE95395008EF94E5
:101C80002CEE94014005753D03805774062542F5FE
:101C90008274003541F583E0FE74052542F58274B7
:101CA000003541F583E0FDEEF53EEDF53F74072587
:101CB00042F58274003541F583E064176005753D97
:101CC00004801F7B017A007901E5422404FDE4359C
:101CD00041FC121239EF653F7003EE653E600375FB
:101CE0003D08E4F53BF53CE53D60030221C9900069
:101CF00005E0F538753D04900002E01202E71D1D75
:101D0000311D4A321DD0341F71351F7F371FCB382C
:101D10001DD039200B3A21B03B000021C620000322
:101D20000221C9E542454160030221C9FF120B5659
:101D3000EF70047F0180027F00900005EFF0753B9B
:101D400000753C01E4F53D0221C92000030221C9D0
:101D5000E5426401454160030221C9E538C39401AD
:101D600040030221C99003F4E0FEA3E0F5828E83D4
:101D7000120275E4FBFA7901F812014B8F24E53861
:101D8000B5241E9003F4E0FEA3E0F5828E831202D8
:101D900075E4FB7A01F9F812014B7522008F23805C
:101DA00014E538D395244007E4F522F52380067521
:101DB0002201752300E523900005F0E522A3F0A39E
:101DC00074FFF0E4A3F0F53B753C04F53D0221C936
:101DD000900002E06434703C2000030221C9E54217
:101DE0006403454160030221C9E538C39440400FB4
:101DF000E538D3947F50087544007545108006750A
:101E00004401754520AE44AF457D007B017A0179E0
:101E10002D12035E2000030221C9C3E5429403E5AD
:101E200041940050030221C9E54224FDFFE54134FD
:101E3000FFFE742D2545F974013544A801FC7D0190
:101E40007B017A007908120446E54224FDFFE54152
:101E500034FFFEEF2545F545EE3544F544E538C33E
:101E60009440401BE538D3947F50141222517541A1
:101E700000754210900259E4F0A37480F0800F7551
:101E800041017542209002597401F0A3E4F0E54548
:101E900065427004E54465416002E166900007E038
:101EA000FE900006E0FDEEF544EDF545D390025AB4
:101EB000E09545900259E0954440047F0080027F00
:101EC0000A8F3DE53D60030221C9E538D3943F50B8
:101ED0006FE5387F00FEEF2545FFE5443E90025B4D
:101EE000F0A3EFF09003F4E0FEA3E0F5828E8312FE
:101EF0000275E4FB7A01F9F812014B90025DEEF0F5
:101F0000A3EFF09003F4E0FEA3E0F5828E831202CB
:101F100075EFE4EF600A90025DE475F00112004590
:101F200090025DE0FEA3E0FFC390025CE09F9002A0
:101F30005BE09E500B753D0AE4F544F5450221C96E
:101F40007B017A01792D900265E541F0A3E542F02D
:101F5000AD45AC44AF381223E9EF60047F0A80023C
:101F60007F008F3D8003753D03E4F544F545022174
:101F7000C92000030221C9E4F544F5450221DA2015
:101F800000030221C9E5452542FFE5443541FED362
:101F9000EF942CEE9401502DE4F53DAE41AF427428
:101FA0002D2545F974013544A801FC7D017B017A9A
:101FB000007905120446E5422545F545E5413544DD
:101FC000F5440221C9753D030221C9E5424541702E
:101FD0003578257C00FD7BFF7A0979D5FE7F0812D4
:101FE0000446D200753B00753C08E4F544F545AE67
:101FF0003BAF3C78057C007D01FB7A00792512041B
:1020000046E4F53D21C9753D0421C920000221C9DE
:10201000E54264034541600221C9900007E0FE905B
:102020000006E0FDEEF52FEDF530E538C3944040B5
:1020300057E538D3947F50505151AE2FAF307C00CC
:102040007D101203318F368E358D348C33C3E530DD
:102050009480E52F940050047F0080027F0A8F3D1A
:10206000E53D600221C985364D85354C85344B856B
:10207000334AE4755110F550F54FF54EFF7E80FD63
:10208000FC1217958F378069AE2FAF307C017D0031
:10209000120331C004C005C006C007AF38E4FCFD20
:1020A000FEFBFA7901F81200C0D003D002D001D0B3
:1020B000001200A58F368E358D348C33C3E52F94F6
:1020C0000150047F0080027F0A8F3DE53D600221C0
:1020D000C985364D85354C85344B85334AE4F551F9
:1020E000755001F54FF54EFFFE7D10FC1217958FD0
:1020F00037E538D3943F5072AF387E007C207D00A6
:10210000120331E42FFFE43EFEED3408FDE43CFC15
:10211000C004A905AA06AB07AE2FAF307C007D2016
:10212000120331D0001200A58F368E358D348C33DA
:10213000E4F52DF52EC3E52E9420E52D9400502ACC
:10214000E4E52E2536FFE52D3535FEE43534FDE496
:102150003533A907AA06AB0512074DEF2537F5372A
:10216000052EE52E7002052D80CB852F318530326E
:10217000E538702AAE31AF32FCFD7BFFFAF9F8C3C7
:102180001201F87019FD7F0512183CC3E5379FF561
:1021900037E4FD7F0612183CC3E5379FF537E53776
:1021A000F404900005F0E4F53DF53B753C01801921
:1021B000E4FF120B56EF70069046FA7480F0120599
:1021C000FD120D3A8003753D057B017A007901858A
:1021D0003B4A853C4BAF3D1212EA900000E0700391
:1021E000021C03300003021C032212070B9060083C
:1021F000E0547FF0906012E054FBF09043A5E0546F
:10220000FEF09043B5E054FEF09051F8E04480F0C9
:10221000E04440F01206F39044CA7480F0A37401C5
:10222000F09044CA7420F09044C87401F004F05156
:10223000819044D97410F0E4900323F090032BF0C4
:1022400090031FF0900325F090032AF09003FFF015
:102250002212070B9043A0E04408F09043B0E04402
:1022600008F090470174C8F09043ACE04410F0903F
:1022700043BCE04410F0904700E0542060F80206B0
:10228000F390458FE054407E007806CEC313CE1302
:10229000D8F9FF22C0E0C0F0C083C082C085C084EE
:1022A000C086758600C093759300C0D075D000C0FD
:1022B00000C001C002C003C004C005C006C0075171
:1022C00081D007D006D005D004D003D002D001D0F1
:1022D00000D0D0D093D086D084D085D082D083D087
:1022E000F0D0E032900000120291900000120269DA
:1022F000E42FFFE43EFEED34F0FDEC34FFFC9000F3
:1023000005120291E4FBFA7901F8900005120269C6
:1023100012014B900109EFF0900005120269EFEEF7
:10232000E4FDFCFB7A01F9F812014B90010AEEF092
:10233000A3EFF0900000120269EFFBE4FAF9F890C5
:1023400000001202691200B290010C120291E4FB2B
:10235000C3EA9401502590010C120269EF2BFFEEA5
:102360003A8F82F583E493FF74092BF58274003A67
:10237000F583EFF00BEB70010A80D590000012029C
:1023800069EFE4FE74092FF582EE3400F583E0FD79
:10239000900004E0FCED6C601F74092FF582EE34B0
:1023A00000F583ECF0900109E0FFA3E0FCA3E0FD61
:1023B0007B017A00790971B922900110EFF0D39472
:1023C0003F40067E007F1080047E017F0090011157
:1023D000EEF0A3EFF0900111E0FFA3E0900265CFD3
:1023E000F0A3EFF0900110E0FF900260ECF0A3ED9D
:1023F000F0A31202B290025FEFF0E4900267F0EFF8
:10240000D3943F500E90025FE09401400690026723
:102410007401F090025FE0FFD3947F400690026762
:102420007401F0EFC39440400CEFD3944140069008
:1024300002677401F0EFD3943F501E900260E0FEFB
:10244000A3E0FFE4FCFDFB7A01F9F8C31201F850A8
:102450002F9002677401F08027D3900261E094808E
:10246000900260E0940040069002677401F09002D0
:1024700065E07004A3E0641060069002677401F0E8
:102480009002621202A9E94A4B700590026704F0BB
:10249000900267E06002A162B1BFEF6002A15C90B0
:1024A0000260E0FCA3E0FDA31202A9900265E0FF38
:1024B000A3E090026ECFF0A3EFF090025FE0FF1276
:1024C00028CB900267EFF064076002A15890472282
:1024D000E0540270087F01FE1206A080F0904722AF
:1024E000E054026009E0FF1313543FFF80027FFFB6
:1024F000EF7006900267F0800690026774FFF0901C
:102500000267E0705390025FE0FFA3E0FCA3E0FDF0
:102510009003F0E0FBA3E090026CF0D1A290026780
:10252000EFF064077032904722E0540270087F0198
:10253000FE1206A080F0904722E054026009E0FFFE
:102540001313543FFF80027FFFEF7006900267F085
:10255000800690026774FFF0B1688006900267748D
:1025600004F0900267E0FF2212070BE4900400F0F1
:102570000206F3D12FB1BFEF7039D159900260EF4D
:10258000F06407702A904722E0540270087F01FE31
:102590001206A080F0904722E054026009E0FF1389
:1025A00013543FFF80027FFFEF7004900260F0B190
:1025B0006880069002607404F0900260E0FF229050
:1025C00002687404F012070B900400E0700704F036
:1025D000E4900268F01206F3900268E0FF22D12F27
:1025E00090026074FFF0B1BFEF70387F01D174EFDB
:1025F0006407702B7B017A0379F07D02D1F6EFB48A
:102600000215E4900260F0904722E0540270107FBF
:1026100001FE1206A080F0904722E0540260D5B17E
:102620006880069002607404F0900260E0FF22125D
:10263000070B9043A0E04408F09043B0E04408F05A
:102640000206F3B17390025FEFF07007B1DE900203
:102650005FEFF090025FE0FF227F07904722E05497
:1026600002600E90472074B6F074E0F0740DF080B4
:10267000027F04227E07904722E05402601F9047A9
:102680002074B6F074E1F0740EF0904722E054022A
:102690007007904720EFF080067E0980027E04AF2D
:1026A0000622900269ECF0A3EDF0AC077D0790479D
:1026B00022E05402603B90472074B6F074D8F07466
:1026C00005F0904722E054027023904720ECF090F0
:1026D0000269E0904720F0900269E0A3E090472073
:1026E000F0EBF090026CE0904720F080067D0980CE
:1026F000027D04AF05229002611202B2900264EDE5
:10270000F0E4A3F0900264E0FFA3E0C39F50379091
:102710004722E054016003D38001C340097F017E5A
:10272000001206A080E9904720E0FF9002611202AB
:10273000A9900265E029F9E43AFAEF120033900219
:1027400065E004F080BE900265E0FF2290646DE0D9
:10275000FF227B027A447904AD07AC06020731EF11
:10276000C43354E0904482F0229044C87404F022B0
:10277000904F00E05401F0904F02E054FCF0904F75
:1027800001E04401F0904F0BE054CFF0E04430F012
:10279000E054F0F0E0440FF07FF0F1A87FF0F1B5E5
:1027A000E4FF904F03EFF0227B027A4F7904EFFDB4
:1027B0007C00020731900000EFF09043A3E0540149
:1027C0007003D38001C340057F00120DED9043A339
:1027D000E04401F07B027A4F7906900000E0FD7C36
:1027E000001207319043A3E054FEF022904210E023
:1027F000548060047F0180027F002280FE32E490DA
:102800000000F0900000E0FFD3941F5020EF75F01F
:1028100002A42400FFE5F03444FAA9077B017C27D9
:102820007DFB120731900000E004F080D622D2AF89
:102830009044F474FDF07D02E4FF120FA09003FEBB
:102840007401F022E4FF7F019003F87401F0A3DF2C
:10285000FCE4900328F0900323F090032BF0900306
:102860001FF0900325F090032AF0900320F0906071
:10287000287403F09060087480F022C0E0C0F0C0BB
:1028800083C082C085C084C086758600C09375935E
:1028900000C0D075D000C000C001C002C003C00499
:1028A000C005C006C0071144D007D006D005D0042B
:1028B000D003D002D001D000D0D0D093D086D08425
:1028C000D085D082D083D0F0D0E032900268EFF093
:1028D000A3ECF0A3EDF0A31202B29002707407F023
:1028E000904722E05402700221D790472074B6F03E
:1028F00074D5F07402F0904722E05402600221CFB8
:10290000900268E0904720F0E4900271F0A3F0900C
:10291000026EE0FEA3E0FF900271E0FCA3E0FDC3C5
:102920009FEC9E501F90026B1202A9E92DF9EA3C20
:10293000FA12001A904720F0900271E475F001122B
:10294000004580CB90026EE064017002A3E060025B
:1029500021DD900268E0FFD3943F400221DD7E003C
:102960007C207D00120331E42FFFE43EFEED3408AD
:10297000FDE43CFCC004A905AA06AB07A3E0FEA346
:10298000E0FF7C007D20120331D0001200A59002F0
:1029900073120291E4900271F0A3F0900271E0FED4
:1029A000A3E0FFC39420EE94005032E4FCFDA31298
:1029B00002851200A5A907AA06AB0512074D90478C
:1029C00020EFF0900271E475F00112004580CC9088
:1029D00002707409F080069002707404F090027026
:1029E000E0FF22C0E0C0F0C083C082C085C084C0C8
:1029F00086758600C093759300C0D075D000C00066
:102A0000C001C002C003C004C005C006C00790607A
:102A100028E0900277F0E0FF5410700241C3A374E5
:102A200001F0EF54806021900277E0540F64016060
:102A300005A3E4F0803012301090032CE054806045
:102A400025900278E4F0801E900277E05440600404
:102A500051E68012900277E0542060051236F7802C
:102A600005900278E4F0900278E06057906028E0EA
:102A7000900277F0E05480704A90032FE0FF9003BB
:102A800027E04F900277F0E0FF906029F0E0FEEF42
:102A90006E703090032CE0900278F0906028E05443
:102AA00080900277F0E0700F90032CE0906028F0A7
:102AB000E0540F900278F090032CE0FF900278E051
:102AC000B507D0D007D006D005D004D003D002D0AF
:102AD00001D000D0D0D093D086D084D085D082D001
:102AE00083D0F0D0E032900328E024FC600A24FE7A
:102AF0006008240470068005E1A1F1B122E4FD9094
:102B00000320E0FF90032DE48FF0120045D39003E3
:102B100018E09400900317E09400403AED940850B8
:102B2000359003191202A912001AFFE42DF582E470
:102B30003460F583EFF09003191202A9E92401F93A
:102B4000E43AFA9003191202B20D90031774FFF5DC
:102B5000F012004580B7900320E064086006EDD3D2
:102B600094004015900327E06480F090032C740FCC
:102B7000F09003287402F0800A90032C7402F09005
:102B80000328F090032FEDF0900320F0221202B200
:102B9000900317E07002A3E070051237AB802F900E
:102BA00003287402F0E4900327F01235FE906007CA
:102BB000E0FE906006E0FDEEEDFFD3900318E09F8D
:102BC000900317E09E4005EEF0A3EFF051FD7F016A
:102BD00022E490027AF0906000E090027CF07B00AA
:102BE0007A007900A31202B2E4900317F0A3F090E8
:102BF000027CE0548064806002A1EB906001E07090
:102C000002A13A24F87002A1AC24FE7002A1C824EB
:102C1000046002E183906003E0B4012B123ED79080
:102C20000280EEF0A3EFF0F5828E83A31202BB9038
:102C300003191202B2900317E4F0A37412F071901A
:102C400090027AEFF0E183906003E064027060909C
:102C50006002E0FF123426900280EEF0A3EFF04E07
:102C60007002E183900280E0FEA3E0F5828E83A3F0
:102C70001202BB9003191202B29003191202A9E9C1
:102C80002403F9E43AFA12001AFE9003191202A979
:102C9000E92402F9E43AFA12001AFDEEEDFF90037E
:102CA00017EEF0A3EFF0719090027AEFF0E18390CD
:102CB0006003E064037079FF7BFF7A0779A09002DC
:102CC0007D1202B2906002E0D39F401F90027D12FD
:102CD00002A912001A601412001AFE7C0029F9ECF5
:102CE0003AFA90027D1202B20F80D9906002E0FFA2
:102CF0006016900775E493FEEFB5060C7BFF7A072C
:102D000079FF90027D1202B290027D1202A9120098
:102D10001A7002E18312001AFF900317E4F0A3EF88
:102D2000F09003191202B2719090027AEFF0E183F1
:102D300012307390027AEFF0E18390027CE054034A
:102D4000603F24FE6002E183900317E4F0A3740265
:102D5000F0906004E0547F75F00BA42432F582E417
:102D60003403F583E09003FBF0E4A3F07B017A03E6
:102D700079FB9003191202B2719090027AEFF0E1A0
:102D800083900317E4F0A37402F090032AE0900309
:102D9000FBF0E4A3F07B017A0379FB9003191202A4
:102DA000B2719090027AEFF0E183E183900317E42F
:102DB000F0A304F0FB7A03792B9003191202B2718D
:102DC0009090027AEFF0E183900317E4F0A304F00F
:102DD000906004E02416F9E43403FA7B01900319AF
:102DE000718D90027AEFF0E183E183906001E0144D
:102DF0007002C1AF24FE7002E11F24FA601B24FEA2
:102E0000607024066002E183906002E0900325F088
:102E1000F18990027AEFF0E183906002E090027B0A
:102E2000F0D39400400EE014FF123426900280EE9E
:102E3000F0A3EFF090027BE0FFD39400400A9002F1
:102E400080E07002A3E07005EF6002E18390032B45
:102E5000E0FF90027BE0FE6F600F90032BEEF0909E
:102E600003237401F0FF12394DF18990027AEFF0DB
:102E7000E18312368BEF7002E183906004E0FE90F4
:102E8000031FF074162EF582E43403F583E0FF741B
:102E9000242EF582E43403F583E06F600990032368
:102EA0007401F0123CD4F18990027AEFF0E1839042
:102EB000027CE05403601A146031146002E18390D4
:102EC0006002E06002E183123F7790027AEFF0E166
:102ED00083906002E064016002E18390032AE05481
:102EE000FDF0F18990027AEFF0E183906004E0FF59
:102EF000C394014002E18374262FF582E43403F584
:102F000083C083C082E0FF906002E0F4FEEF5ED0F9
:102F100082D083F0F18990027AEFF080668064902D
:102F2000027CE05403601614602B1470569060020B
:102F3000E07050123EF090027AEFF080469060020E
:102F4000E06401703E90032AE04402F0F1899002AF
:102F50007AEFF0802E906004E0FFC3940150247457
:102F6000262FF582E43403F583C083C082E0FF900E
:102F70006002E0F4FEEF5ED082D083F0F18990022F
:102F80007AEFF090027AE0FF229003287406F09026
:102F9000032CF09003277480F0E490032FF07F015E
:102FA00022E4900328F07F01F1D390032C7403F006
:102FB00022900325E0600CE04480906008F0E490EB
:102FC0000325F0E4900328F07F01F1D390032C74E3
:102FD00003F02290031C1202A9E94A4B60319003CE
:102FE0001C1202A9EF12003390032DE0FEA3E0FFB4
:102FF00090031C1202A9E92401F9E43AFAEE8FF0D9
:103000001200867B007A00790090031C1202B22223
:10301000906028E0900279F0E0906028F0E0900263
:1030200079F0E0FF5480600690032CEFF0227F02DD
:10303000122FD3906000E0546024E0601224E0601E
:10304000172440701C122BD1900279EFF0801711D9
:1030500073900279EFF0800EB1EE900279EFF0807C
:1030600005E4900279F0900279E0700690032C74E8
:1030700003F022E4900283F0906000E0540324FE09
:10308000600D047024906004E0900282F0801F9034
:103090006004E0547F75F00BA4243AF582E4340315
:1030A000F583E0900282F08005E4900282F09002C5
:1030B00082E0FFD394015022900321E0FCA3E02F93
:1030C000F582E43CF583E49324FD700911E090025D
:1030D00083EFF08005E4900283F0900283E0FF220A
:1030E000E4900284F0906004E0900285F09060002B
:1030F000E05480700221C5A3E014604F1460641492
:103100007002219524FD6002419B906003E0B42190
:10311000189173900317E07002A3E07002419B12B4
:103120002B90900284EFF0419B906003E06422605A
:1031300002419BB11C900317E07002A3E0700241B2
:103140009B122B90900284EFF0419B51A1900317AA
:10315000E07002A3E07002419B122B90900284EF7A
:10316000F0419B900285E0FFC394014002419B9097
:103170006002E06002419B900317F0A304F074F733
:103180002FF9E43403FA7B01900319122B8D90027E
:1031900084EFF0419B900285E0FFC394014002411F
:1031A0009B900317E4F0A304F074F82FF9E43403C0
:1031B000FA7B019003191202B2122B90900284EF55
:1031C000F0419B419B906001E024F6602214700264
:1031D000417424026002419B51A1900317E07002E8
:1031E000A3E07002419B71F0900284EFF0419B904C
:1031F0000285E0FFC394014002419B906002E060C1
:1032000002419BA3E0FE74F72FF582E43403F583BB
:10321000EEF074F62FF582E43403F583E0FE74F7E4
:103220002FF582E43403F583E0C39E5011900285AC
:10323000E024F6F582E43403F583E4F0802C900278
:1032400085E0FF24F6F582E43403F583E0D39401AE
:10325000401874F72FF582E43403F583E0FE74F62A
:103260002FF582E43403F583EEF0122F8990028467
:10327000EFF08027900285E0FFC39401501D90601D
:1032800002E0FE9401501474F82FF582E43403F543
:1032900083EEF0122F89900284EFF0900284E0FF19
:1032A00022E4900317F0A3F090032BE014FF912683
:1032B000900286EEF0A3EFF0906003E090028BF0B6
:1032C000906004E090028CF02402FFE433FEEF787B
:1032D00002C333CE33CED8F9FF900287E02FFF90A0
:1032E0000286E03EFEF0A3EFF0F5828E83A3120289
:1032F000BBAF01900286EAF0A3EFF090028CE0FFF2
:10330000C39401400261EF74162FF582E43403F593
:1033100083E075F004A4FFAEF0900287E02FF090F8
:103320000286E03EF0E0FEA3E0F5828E83A3120267
:10333000BBAF01900286EAF0A3EFF090028BE0FFB2
:10334000C39401500261EFEFD39403400261EFEFA9
:1033500024FFFFE434FFFEEF7802C333CE33CED830
:10336000F9FF900287E02FFF900286E03EFEF0A377
:10337000EFF0906002E0FD90028BF08F828E83E48C
:1033800093C39D406A900286E0FEA3E0F5828E839F
:10339000A31202BB9002881202B290028BE075F079
:1033A00008A4FF9002881202A9E92FF9EA35F0FA81
:1033B0009002881202B29002881202A9E92402F94E
:1033C000E43AFA1202C79003191202B2900288126C
:1033D00002A912005BFF900317E5F0F0A3EFF0E9FC
:1033E0002405F9E43AFA1202C790031C1202B22231
:1033F0009003287404F09003277480F0B1FE90606D
:1034000007E0FE906006E0FDEEEDFFD3900318E0CC
:103410009F900317E09E4005EEF0A3EFF090032C81
:10342000740BF07F012290028DEFF0900329E025CC
:10343000E025E024ADF582E43408F5831202BBAE4A
:1034400002AF01EF2408FFE43EFE8F82F583E49390
:10345000FD90028DE0FCC39D4005E4FEFF80138FCC
:10346000828E8375F004EC12029DA31202BBAE02A1
:10347000AF012290032BE014FF9126900286EEF01C
:10348000A3EFF0906004E0900288F02402FFE433A0
:10349000FEEF7802C333CE33CED8F9FF900287E037
:1034A0002FFF900286E03EFEF0A3EFF0F5828E83C0
:1034B000A31202BBAF01900286EAF0A3EFF0A3E0F3
:1034C0002416F582E43403F583E075F004A4FFAE1E
:1034D000F0900287E02FF0900286E03EF0E0FEA33D
:1034E000E0F5828E83A31202BBAE02AF019002868A
:1034F000EEF0A3EFF02410FFE43EFE900286F0A36E
:10350000EFF0F5828E83A31202BB12001AFF900324
:1035100017E4F0A3EFF09003190202B290032BE03E
:1035200014FF9126900286EEF0A3EFF0906004E085
:1035300090028BF02402FFE433FEEF7802C333CE17
:1035400033CED8F9FF900287E02FFF900286E03E4D
:10355000FEF0A3EFF0F5828E83A31202BBAF0190C1
:103560000286EAF0A3EFF090028BE02416F582E4E5
:103570003403F583E075F004A4FFAEF0900287E019
:103580002FF0900286E03EF0E0FEA3E0F5828E830D
:10359000A31202BBAE02AF01900286EEF0A3EFF0E1
:1035A000240CFFE43EFE900286F0A3EFF0F5828E3D
:1035B00083A31202BB9002881202B2900288120208
:1035C000A9E92401F9E43AFA12001AFE90028812DD
:1035D00002A912001AFDEEEDFF900317EEF0A3EF23
:1035E000F0E92402F9E43AFA9003190202B2E4FF86
:1035F000906000E054806005A3E0FE800022E4902B
:10360000032DF0A3F090031C1202A9E94A4B601DA0
:1036100090031C1202A9E412003390031C1202A9A9
:10362000E92401F9E43AFAE4F5F012008622900365
:103630002BE014FF9126AD07AC06ED4C603D8D826A
:103640008C83A31202BBE92404F9E43AFA12001AAB
:103650002402FFE433FEEF7802C333CE33CED8F931
:103660002DFDEE3CFCAF058D82F583A31202BBAFAE
:103670000190028AEAF0A3EFF08007E490028AF05A
:10368000A3F090028AE0FEA3E0FF22E4900282F021
:10369000906004E0900283F090032BE014FF9126E9
:1036A0008F828E83A31202BBE92404F9E43AFA1252
:1036B000001AFF900283E0FED39F4006EED39401F0
:1036C000502F74162EF582E43403F583E0FF742442
:1036D0002EF582E43403F583EFF0906002E0FF748E
:1036E000162EF582E43403F583EFF0900282740124
:1036F000F0900282E0FF22900328E024FC600A247C
:10370000FE60082404700F800E802B7F03122FD3DD
:1037100090032C7403F022900320E0FF90032DE42B
:103720008FF0120045E4900328F07F01122FD39010
:10373000032C7403F022E4FF906029E0540F24FE70
:10374000FEFD90032DE48DF0120045D3900318E0A8
:103750009400900317E09400403CEED39400403670
:10376000E42FF582E43460F583E0FD900319120242
:10377000A9ED1200339003191202A9E92401F9E41A
:103780003AFA9003191202B20F1E90031774FFF554
:10379000F012004580B5AF0690032FEEF09003279E
:1037A000E06480F090032C740BF0229003287402E4
:1037B000F09003277480F090032C740FF0E49003D2
:1037C00020F090032FF07F0122C0E0C083C082C0B0
:1037D00085C084C086758600C093759300C0D0757F
:1037E000D000C00790600B7401F090600EE0FF9075
:1037F000033BE054036401600790033EE06480F003
:1038000090033C7401F0D007D0D0D093D086D08400
:10381000D085D082D083D0E032C0E0C083C082C0E7
:1038200085C084C086758600C093759300C0D0752E
:10383000D000C00790600B7402F090601EE0FF9013
:103840000346E0540364016007900349E06480F09C
:103850009003477401F0D007D0D0D093D086D084A5
:10386000D085D082D083D0E0327D01EDC394094071
:1038700002214675F010ED90607012029D740CF0FC
:10388000ED75F00BA42435F582E43403F583E06094
:1038900031ED75F00BA42434F582E43403F583E0B4
:1038A0005480600F75F010ED905FFE12029D740C55
:1038B000F0801C75F010ED905FFE12029D7408F010
:1038C000800D75F010ED905FFE12029D7480F0ED9A
:1038D00075F00BA42436F582E43403F583E0A3E00D
:1038E000FF75F010ED90607612029DEFF0ED75F02F
:1038F0000BA42436F582E43403F583E0FF75F01061
:10390000ED90607712029DEFF0ED75F00BA4243678
:10391000F582E43403F583E0A3E0FF75F010ED9049
:10392000607412029DEFF0ED75F00BA42436F58261
:10393000E43403F583E0FF75F010ED90607512023A
:103940009DEFF00D016B90600A74FFF022E490028D
:1039500084F0A3F0900282F0900282E0FEC394090A
:10396000507AEE75F00BA42430F582E43403F5832D
:10397000E4F0EE75F00BA42432F582E43403F58311
:10398000E4F0EE75F00BA42433F582E43403F58300
:10399000E4F0EE75F00BA42438F582E43403F583EB
:1039A000E4F0A3F0EE75F00BA4243AF582E43403BE
:1039B000F583E4F0EE75F00BA42431F582E43403D2
:1039C000F583E4F0EE75F00BA42435F582E43403BE
:1039D000F583E4F0900282E004F02158EF602FE4D8
:1039E000900283F0900283E0FFC39401502074168C
:1039F0002FF582E43403F583E4F074242FF582E498
:103A00003403F583E4F0900283E004F080D6900361
:103A10002BE0D39400500281D3E014FF123426909F
:103A20000286EEF0A3EFF0900286E0FCA3E0FDF545
:103A3000828C83A31202BBE92407F9E43AFA12004C
:103A40001A5440600990032AE04401F08007900373
:103A50002AE054FEF0ED2404FFE43CFE900286F0E0
:103A6000A3EFF0F5828E83E493900282F0A37401B9
:103A7000F0900283E0C3940940028110900286E036
:103A8000FEA3E0F5828E83A31202BBAF01900288F1
:103A9000EAF0A3EFF0E4FF900282E0FEEFC39E4065
:103AA000028108900288E0FCA3E0F5828C83740216
:103AB00093547FFD900283E0FE6D7001E46002612B
:103AC000F7900288E0A3E0F5828C83740493FC7481
:103AD0000593FDEE75F00BA42438F582E43403F56C
:103AE00083E0FAA3E0C39DEA9C5029900288E0FCA1
:103AF000A3E0F5828C83740493FC740593FD90021B
:103B000083E075F00BA42438F582E43403F583ECEC
:103B1000F0A3EDF0900288E0FCA3E0FDF5828C8339
:103B2000E4932416F582E43403F583E0FE8D828C61
:103B300083740193FDEE6D600261F7900288E0A34B
:103B4000E0FDF5828C83740293FE900283E0FB75A6
:103B5000F00BA42434F582E43403F583EEF08D8277
:103B60008C83740393FEEB75F00BA42430F582E490
:103B70003403F583EEF0900288E0FCA3E0F5828C3C
:103B8000837403935403FE900288E0A3E0F5828CD3
:103B90008374029354806031EEB401047D07800287
:103BA0007D0D900283E0FC75F00BA42435F582E4D2
:103BB0003403F583EDF0EC75F00BA42431F582E4C9
:103BC0003403F5837401F0802EEEB401047E058089
:103BD000027E09900283E0FD75F00BA42435F58286
:103BE000E43403F583EEF0ED75F00BA42431F58297
:103BF000E43403F583E4F0900289E02407F09002B6
:103C000088E03400F00F4197900283E004F04171A6
:103C1000900286E0FEA3E0F5828E83A31202BBAF82
:103C200001900288EAF0A3EFF0E4900283F09002A2
:103C300082E0FFA3E0C39F5038900288E0FEA3E03B
:103C4000F5828E83E493FD740293547F75F00BA488
:103C5000243AF582E43403F583EDF0900289E02400
:103C600007F0900288E03400F0900283E004F080D6
:103C7000BD12362E900321EEF0A3EFF0E490028403
:103C8000F0A3F090028204F0900282E0FFC3940956
:103C9000503F900284E0FCA3E0FDEF75F00BA424FC
:103CA00036F582E43403F583ECF0A3EDF0EF75F024
:103CB0000BA42438F582E43403F583E0FEA3E0FF8F
:103CC000900284EE8FF0120045900282E004F080B2
:103CD000B711692290032BE0D394005002C1D6E0C3
:103CE00014FF123426EF2404FFE43EFE8F82F58396
:103CF000E493900282F08F828E83A31202BBAD0107
:103D0000AC0290031FE0900283F0E4FB900282E09B
:103D1000FFEBC39F4002C1D68D828C83E493FF905A
:103D20000283E0FE6F6002C1CC8D828C830493FF1E
:103D300074162EF582E43403F583E06F6002C1CC83
:103D40008D828C83740293547FFA7403935403F925
:103D5000EA75F00BA42433F582E43403F583E4F030
:103D60008D828C83740293FFEA75F00BA42434F5E2
:103D700082E43403F583EFF08D828C83740393FF28
:103D8000EA75F00BA42430F582E43403F583EFF0F8
:103D90008D828C83740493FE740593FFEA75F00B97
:103DA000A42438F582E43403F583EEF0A3EFF08D1C
:103DB000828C837402935480602DE9B401047F07E0
:103DC00080027F0DEA75F00BA42435F582E43403FC
:103DD000F583EFF0EA75F00BA42431F582E43403A7
:103DE000F5837401F0802AE9B401047F0580027F25
:103DF00009EA75F00BA42435F582E43403F583EF6A
:103E0000F0EA75F00BA42431F582E43403F583E481
:103E1000F075F010EA905FFE12029D7401F0EA75F1
:103E2000F00BA42438F582E43403F583E0FF75F049
:103E300010EA905FFC12029DEFF0EA75F00BA424EB
:103E400038F582E43403F583E0A3E0FF75F010EA6F
:103E5000905FFD12029DEFF0EA75F00BA42436F599
:103E600082E43403F583E0A3E0FF75F010EA90608C
:103E70007612029DEFF0EA75F00BA42436F582E489
:103E80003403F583E0FF75F010EA90607712029D2D
:103E9000EFF0EA75F00BA42436F582E43403F583E1
:103EA000E0A3E0FF75F010EA90607412029DEFF05D
:103EB000EA75F00BA42436F582E43403F583E0FFC1
:103EC00075F010EA90607512029DEFF0ED2407FD89
:103ED000E43CFC0BA10C22900329E025E025E02422
:103EE000ADF582E43408F5831202BBAE02AF0122C5
:103EF000E4900282F0906004E0547FFFD39400408D
:103F000070EF9409506BEF75F00BA42432F582E446
:103F10003403F583E04401F0EF75F00BA42433F58E
:103F200082E43403F583E4F0EF75F00BA42431F55B
:103F300082E43403F583E04402F0EF75F00BA4242F
:103F400034F582E43403F583E05480600F75F0109B
:103F5000EF905FFE12029D748DF0800D75F010EFF2
:103F6000905FFE12029D7489F0122F89900282EFF9
:103F7000F0900282E0FF22E4900282F0906004E080
:103F8000547FFFD39400500302404EEF9409400346
:103F900002404EEF75F00BA42432F582E43403F5B1
:103FA00083E054FEF0EF75F00BA42433F582E43483
:103FB00003F583E4F075F010EF905FFC12029DE0D2
:103FC000547FF0EF75F00BA42431F582E43403F54F
:103FD00083E054FDF0EF75F00BA42434F582E43453
:103FE00003F583E054806030EF75F00BA42431F5C5
:103FF00082E43403F583E0B4010F75F010EF905FB5
:10400000FE12029D740CF0803D75F010EF905FFE83
:1040100012029D740DF0802EEF75F00BA42431F583
:1040200082E43403F583E0B4010F75F010EF905F84
:10403000FE12029D7408F0800D75F010EF905FFE87
:1040400012029D7409F0122F89900282EFF0900203
:0440500082E0FF22E9
:00000001FF
