:10410000024AA7008F828E83E0540100000070F8FD
:104110002278FFE4F6D8FD024B35024462E8648061
:10412000F8E933E83360110460F0ED33EC337009E3
:10413000E8FCE9FDEAFEEBFF220460DED3EB9FEA38
:104140009EE99DE8C2E78CF0C2F795F0400CE8CC00
:10415000F8E9CDF9EACEFAEBCFFB12442D85D0F089
:104160005804700320D5B3E80470075002B2D5029A
:10417000446C92D5EC0460F7E4CCC0E0C398F860DE
:104180003B94186008400DD0E0FB024444E4FBFA85
:10419000C9FC8028E830E406E4C9FBE4CAFCE83046
:1041A000E305E4C9CACBFCE854076010F8C3E9137F
:1041B000F9EA13FAEB13FBEC13FCD8F130F52FC33B
:1041C000E49CFCEF9BFFEE9AFEED99FDD0E0FBEF47
:1041D0004E4D4C701222DB03024469EC2CFCEF3391
:1041E000FFEE33FEED33FDED30E7EB024444EF2B01
:1041F000FFEE3AFEED39FDD0E0FB50130BBB0003A0
:1042000002446CED13FDEE13FEEF13FFEC13FC0202
:104210004444EC4D6011E8497017ED33EC33046011
:104220000DE4FCFFFEFD22E933E8330470F802449C
:104230006212442D58046009E4CC248150062850B1
:104240000902446C284003024469C0E0EB4A704410
:10425000B98006D0E0FB024458EF4E701CBD8008C8
:10426000EBFFEAFEE9FD80EBE98DF0A4FEE5F0024C
:1042700042FBE9CDF9EAFEEBFFEF89F0A4FCE5F0A3
:10428000CE89F0A42EFFE435F0CD89F0A42DFEE414
:1042900035F08067EF4E7005BD80D780C3EF8BF09F
:1042A000A4ACF0EE8BF0A42CFCE435F0F8EF8AF02F
:1042B000A42CE5F038FCE433CB8DF0A42CFCE5F025
:1042C0003BF8EE8AF0A42CFCE5F038F8E433CF8913
:1042D000F0A42CFCE5F038CF3400CE89F0A42FFFF9
:1042E000E5F03EFEE433C98DF0A42EFEE5F039CDB5
:1042F0008AF0A42FFFE5F03EFEE43DFD33D0E0FB65
:1043000050070BBB000F02446CEC2CFCEF33FFEEAC
:1043100033FEED33FD02444402446CEC5D04600561
:10432000E85904700302446212442D580460F6EC0C
:104330004860F2EC7004FDFEFF22C860DB2481C8F7
:104340005009C398600250060244699850CAF58229
:10435000E9294B4A7005AB8202445875F0007C1A7B
:104360007880C3EF9BEE9AED99400DC3EF9BFFEE73
:104370009AFEED99FDE842F0DC23ACF0D0E0FFD0EE
:10438000E0FED0E0FDAB8220E7101BEB60BAEC2C26
:10439000FCEF33FFEE33FEED33FD024444E803F857
:1043A00030E705C0F075F000EF2FFFEE33FEED3380
:1043B000FD40B830E7C280AA75F020800E75F0107D
:1043C000800575F0087D007E007F003392D530D5E2
:1043D00003124629EC334010EF33FFEE33FEED338A
:1043E000FDEC33FCD5F0ED22E5F0247EA2D513CC14
:1043F00092E7CDCEFF22EDD2E7CD33EC3392D52438
:10440000814006E4FFFEFDFC22FCE4CFCECDCC24AF
:10441000E0501174FF80EDC3CC13CCCD13CDCE137F
:10442000CECF13CF0470F030D5DE024629E9D2E7B3
:10443000C933E833F892D5EDD2E7CD33EC33FC50F5
:1044400002B2D522EC30E7100FBF000C0EBE000800
:104450000DBD00040BEB6014A2D5EB13FCED92E74D
:10446000FD2274FFFCFDFEFF22E480F8A2D574FF5C
:1044700013FC7D80E480EFBB010689828A83E02201
:104480005002E722BBFE02E32289828A83E4932260
:10449000BB010689828A83F0225002F722BBFE010B
:1044A000F322EF8DF0A4A8F0CF8CF0A428CE8DF0ED
:1044B000A42EFE22C5F0F8A3E028F0C5F0F8E582AE
:1044C000158270021583E038F022A3F8E0C5F025CC
:1044D000F0F0E582158270021583E0C838F0E8221A
:1044E000BB010A89828A83F0E5F0A3F0225006F727
:1044F00009A7F01922BBFE06F3E5F009F31922E83B
:104500008FF0A4CC8BF0A42CFCE98EF0A42CFC8AB8
:10451000F0EDA42CFCEA8EF0A4CDA8F08BF0A42D35
:10452000CC3825F0FDE98FF0A42CCD35F0FCEB8ED6
:10453000F0A4FEA9F0EB8FF0A4CFC5F02ECD39FE8C
:10454000E43CFCEAA42DCE35F0FDE43CFC2275F001
:1045500008758200EF2FFFEE33FECD33CDCC33CC88
:10456000C58233C5829BED9AEC99E58298400CF5A3
:1045700082EE9BFEED9AFDEC99FC0FD5F0D6E4CED1
:10458000FBE4CDFAE4CCF9A88222B800C1B9005905
:10459000BA002DEC8BF084CFCECDFCE5F0CBF978D2
:1045A00018EF2FFFEE33FEED33FDEC33FCEB33FB66
:1045B00010D703994004EB99FB0FD8E5E4F9FA22F0
:1045C0007818EF2FFFEE33FEED33FDEC33FCC933EB
:1045D000C910D7059BE99A4007EC9BFCE99AF90FB3
:1045E000D8E0E4C9FAE4CCFB2275F010EF2FFFEE1F
:1045F00033FEED33FDCC33CCC833C810D7079BEC6A
:104600009AE899400AED9BFDEC9AFCE899F80FD5E1
:10461000F0DAE4CDFBE4CCFAE4C8F922CFF4CFCE53
:10462000F4CECDF4CDCCF4CC22C3E49FFFE49EFEC7
:10463000E49DFDE49CFC22EB9FF5F0EA9E42F0E94C
:104640009D42F0EC6480C864809845F022EB9FF5B1
:10465000F0EA9E42F0E99D42F0E89C45F022E860D5
:104660000FECC313FCED13FDEE13FEEF13FFD8F1B7
:1046700022E8600FEFC333FFEE33FEED33FDEC3382
:10468000FCD8F122BB010789828A8302479B50052F
:10469000E9F802478FBBFE05E9F80247A789828A3D
:1046A000830247B3BB010789828A830246F3500520
:1046B000E9F80247C3BBFE05E9F80247CF227401BF
:1046C000FF3395E0FEFDFCA3A3A3E0CF2FF0E5822E
:1046D000158270021583E0CE3EF0E58215827002ED
:1046E0001583E0CD3DF0E582158270021583E0CCA4
:1046F0003CF022ECF0A3EDF0A3EEF0A3EFF022A447
:104700002582F582E5F03583F58322D083D082F8C7
:10471000E4937012740193700DA3A393F874019342
:10472000F5828883E4737402936860EFA3A3A38087
:10473000DFE5092582F582E5083583F583B50804B0
:104740008582092210AF06858209F5082285820933
:10475000F508D2AF22E5092582F582E5083583F513
:104760008322EC8EF0A4CCC5F0CCCDF8EFA4CEC55E
:10477000F02DFDE43CFCE8A42EC8C5F03DFDE43C72
:10478000FCEFA4FFE5F028FEE43DFDE43CFC22E65E
:10479000FC08E6FD08E6FE08E6FF22E0FCA3E0FDDB
:1047A000A3E0FEA3E0FF22E2FC08E2FD08E2FE082F
:1047B000E2FF22E493FC740193FD740293FE740300
:1047C00093FF22ECF608EDF608EEF608EFF622EC81
:1047D000F208EDF208EEF208EFF222410A03554129
:1047E00009A73241099C0041099B004109FE014192
:1047F0000A091241099D004109FA004109A5324107
:104800000A010041099E00410A08014209A0000076
:104810004109A4004109FD004109FC00440A0400CB
:10482000000000410A02004109FB024109FF00416A
:1048300009A600410A00004109F90041099F004111
:1048400009A2004109A30041099800410CE9004177
:104850000CE800410CED00410CEC00410CEB006059
:10486000390BBD480707070778B5B60755CE8656FA
:1048700095FD7D3D1D0D0585C5E5F5E007078D0717
:1048800030684284A4830124C3040274A344C28216
:10489000E364D443038123146394B4C4440CA4009C
:1048A000001388410C9900410CC200420CB73DF442
:1048B000420CB90000410CBB00420CBC0BB8420CCE
:1048C000BE0000420CC00000440B6A00000000441F
:1048D0000B6E00000000410B3900410B4600440BF9
:1048E0005C00000000440B6000000000410B64000D
:1048F000410B6500410B6600410B6700440AAE7135
:104900003D0A07440ABF713D0A07410A9800440A5C
:104910009D00000000410ABE00410AA1C4440A995A
:1049200000000000440AC3017D7840410A9700411D
:104930000A8000420AA3002A420A7E002A440AC8CA
:1049400000000000410AD000410AC700420A81006D
:1049500000440A7000000000410A7400440A750017
:10496000000000440A7900000000410A7D00440C68
:104970005000000000440C4600000000410C4E00B6
:10498000410C4F00440C5400000000440C3D00005A
:104990000000440C4100000000410C4500410903A7
:1049A00000440C8100000000440C7D000000004128
:1049B0000C7C00440C8500000000410C7300420C8C
:1049C000742710440C78000D4A58410C7032410C89
:1049D0006E00410C7100410C6F00410C6915440CD4
:1049E0006A00000000410C7200410C5800410C5953
:1049F00000410C5A00410C5B00410C5C00410C5D15
:104A000000410C5E00410C5F00410C6200410C63F0
:104A100000410C6400440C6500000000410B1000D4
:104A2000410B2C0C490AD1000004040000000000D6
:104A3000410CEF00410CF400410CF5FF410CF6FF76
:104A4000410CF7FF410CF8FF410CF9FF410CFAFF54
:104A5000410CD480410CD37F440CCF000000FF44B4
:104A60000CAE023366C4440CA90000903C410CAD6E
:104A700025440CB3481E0000410CFB00460CD50039
:104A80008102370300410CFCFF410CFDFF430CDBAE
:104A9000000000410CFE00420C140180420C16FF85
:104AA0007F420C12010000759300780075834675F3
:104AB00082E8E04401F00090480074C0F07581097C
:104AC0009076BCE4F0A3F0A3F0A3F0907010F09007
:104AD0007019F0907020F09076007410F0907604C9
:104AE000E4F0A3F0A3F0A3F090780078000874003D
:104AF000F0A37408F0E8B8040274FFA3F0A37422D2
:104B0000F0A374BCF0A37476F0A3E4F0A3E81475EA
:104B1000F008A4F0A3B804D59070107401F0907060
:104B200014F07E707F18124104907010F0EA900C1F
:104B3000B2F002411175081F7509FD12BC9712A54C
:104B40009412BC2A024B82025DB0E493A3F8E49372
:104B5000A34003F68001F208DFF48029E493A3F870
:104B60005407240CC8C333C4540F4420C8834004E2
:104B7000F456800146F6DFE4800B010204081020A1
:104B800040809047DBE47E019360BCA3FF543F303C
:104B9000E509541FFEE493A360010ECF54C025E045
:104BA00060A840B8E493A3FAE493A3F8E493A3C8FD
:104BB000C582C8CAC583CAF0A3C8C582C8CAC5838E
:104BC000CADFE9DEE780BEC2D5E830E70FB2D5E440
:104BD000C39BFBE49AFAE499F9E498F8EC30E71700
:104BE000B2D5124BFD12458AE4C39BFBE49AFAE46A
:104BF00099F9E498F8800312458A30D50DE4C39FF3
:104C0000FFE49EFEE49DFDE49CFC22758600EF4ED1
:104C10006027EF60010E759300900A2AE0F595A3D6
:104C2000E0F585A3E0F5848B938A838982E0A30570
:104C300086F0A31586DFF6DEF4E4F593F5952232CF
:104C4000EEFA900CADE0F88FF0A4FFAEF0E88AF039
:104C5000A42EFEE5F03400FDEF24C9FF78FFEE3806
:104C6000FEED38FDE438FC5003024D00227586004D
:104C7000EF4E601BEF60010E8C838D828B958A85D1
:104C80008984E493A30586F0A31586DFF5DEF3E4BB
:104C9000F59522EC4D6011ED60010C8B938A8389B0
:104CA00082E4F0A3DDFCDCFA75930022EF5401608E
:104CB00004D2AF8002C2AFEF5402FF9044F4E0543C
:104CC000FD4FF0229044F4E0F84402F0E85402FF73
:104CD00010AF012274014FFF228B938A838982EFE8
:104CE000F0A3EEF0A3EDF0A3ECF0759300224520C5
:104CF000200050202000532020004320200032328A
:104D0000EC4D4E700D78FCEF24E950032840FD2255
:104D100000007BF178DA0000EF28FF78FFEE38FE24
:104D2000ED38FDEC38FC50E7EF2BFFEE38FEED38A8
:104D3000FDEC38FC40F222050203048B938A838940
:104D400082E0FFA3E0FE759300228B938A83898221
:104D5000EDF0A3ECF0759300228B938A838982E0B7
:104D6000759300FF228B938A838982EDF0759300FF
:104D700022EC30E7031246292204001001A00000B3
:104D800000080010000000180000100000000000E3
:104D90000104000000000018000018001551140064
:104DA000000000080008000040008800000000002B
:104DB0001500A4000181282200000000000000006E
:104DC00000000000000000000000000000000000E3
:104DD0000000000040480220000000000202002203
:104DE00010000000000000000000000000000000B3
:104DF00000000000000000000012000000000000A1
:104E000000000000000000000000000000000000A2
:104E10000000000000000000000000000000000092
:104E20000000000000000000000000000000000082
:104E3000000000000000000000C50060001200003B
:104E4000000000A200EA00FF00000000000000F8DF
:104E500000F800000000000000000000000000005A
:104E60000000000000000000000000000000000042
:104E70000000000000000000000000000000000032
:104E80000000000000000000000000000000000022
:104E90000200000080000000000000000000000090
:104EA0000000000000000000000000000000000002
:104EB00000000000000000000000000000000000F2
:104EC00000000000000000000000000000000000E2
:104ED00000000000000000000000000000000000D2
:104EE0000000000000000000000000008000000042
:104EF00000000000000040000000000080000000F2
:104F00000000000000000000000040000000000061
:104F1000000000000000000002000000000000008F
:104F200080000010000000020800000000000000E7
:104F30008000000000000000000000000020004091
:104F40000000000000000000000000000000000061
:104F50000000000000800020000000800000000031
:104F6000000000C000000040000000000000000041
:104F70000000000000000000000000000000000031
:104F80000000000000000000000000000000000021
:104F900000000000000000000000000000004000D1
:104FA0000000000000000000000000000000000001
:104FB00000000000000000000000000000000000F1
:104FC00000000000000000000000000200000000DF
:104FD00008000000000000000000000000000000C9
:104FE00000000000000000000000000000000000C1
:104FF0000000000000000000000060000000000051
:105000004000000000000000000000000000001050
:1050100080000000000020000200000000004000AE
:105020000000000000000000000000000000000080
:105030000000000000000000000000000000000070
:1050400000200000000000000000000000C0000080
:10505000000000000000000000000010000000A0A0
:105060000000000000000000000000000000000040
:105070000000000000000000000000000000000030
:105080000000000000000000000000000000000020
:1050900000000000000000000000101000000000F0
:1050A0000000000000000000000000000000000000
:1050B00000000000000000000000000000000000F0
:1050C00000000000000000000000000040000000A0
:1050D00000000000000000000000000000000000D0
:1050E00000000000000000000000000400000000BC
:1050F00000000000000000000000000001000000AF
:105100000000002400000000010000000200203028
:10511000010000000000202002000000000040000C
:105120000000000020040400000000000000000057
:10513000000000000000000000000000000000006F
:10514000001000000000000000000000002000002F
:10515000000000000020000000000000002000000F
:1051600000000010004000200000000000000000CF
:10517000000000000000000000000000000000002F
:10518000000000000000000000100000000000000F
:10519000000000000000000000000000000000000F
:1051A00000000000000000000000000000000000FF
:1051B00000000000000000100000000000000000DF
:1051C00000000000000000000000100000000020AF
:1051D00000000004000000000000000000000000CB
:1051E00000000000000000000000000000000000BF
:1051F00000000000000000000020000000900004FB
:105200000000000000000000040004000200002074
:105210000180000000342020060000000010400043
:10522000208000000000000000002000400000007E
:10523000000000000000000000000000001000005E
:10524000000000000000002000000000006000409E
:10525000000000000000000000000050004000209E
:1052600000000000008000000000000000000000BE
:10527000000000000000000000000000000000002E
:10528000008000000000200040000000000000003E
:10529000000000000000000000000000000000000E
:1052A00000000000000000000000000000000000FE
:1052B00000090000002000000101000000000000C3
:1052C000000000000000000000000000200000209E
:1052D0000100002004000000002000000204000083
:1052E00000000000000000000000000000000000BE
:1052F0000000000000000000000000000000000CA2
:105300000000000000000000000804000200000887
:105310000000000000102000020000000000400813
:10532000000000000000000031000000000000004C
:105330000200000000000000000000E0000000008B
:1053400000000000000000E00010000000E000602D
:1053500000C000000000000000000010000000106D
:10536000001000000000000000000000000000002D
:10537000000000000000000000000000000000002D
:105380000000000000000000000000001000040009
:105390000008000001000000010000000000000003
:1053A00000000000000000000010000400002008C1
:1053B000000000000000800000000000200000004D
:1053C00000000000000000000000000000000000DD
:1053D00000000000000000000000000000000000CD
:1053E00000000000000000000000000000000000BD
:1053F00000000000000000000000000000000000AD
:10540000000000000000000000000000000000009C
:10541000000000000000000000000000000000008C
:10542000000000000000000000000000000000007C
:10543000000000000000000000000000006000709C
:105440000000000000F0002000100000000000003C
:10545000000000000000000000000000000000004C
:10546000000000000000000000000000000000003C
:10547000000000000000000000010000000000002B
:105480000001000000000001000100000010000108
:1054900000010000000800000001000000080001F9
:1054A000000100000001000823025479760800087A
:1054B00023035481761000082304548976200008C1
:1054C0002305549176280008230654997630000568
:1054D000230754A170200005230854A17030000553
:1054E000230954A170500005230A54A170600005DF
:1054F00023FE54A170700015220C0CE449C8004032
:1055000022FE0CE451300180220E0CE40A000080DF
:10551000220F0CE40C80020022100CE40E000100AB
:1055200022110CE44400008022120CE446000080AA
:1055300022FE0CE44D00008023144D790100008010
:1055400023154DF90180008023164E794900008013
:1055500023174EF94980008023184F7948000080B6
:1055600023194FF948800080231A507943000080A6
:10557000231B50F943800080231C51794200008096
:10558000231D51F942800080231E52794100008082
:10559000231F52F94180008023205379400000806E
:1055A00023FE53F9408000072322082852000007F9
:1055B000232308305208000723240838521000061D
:1055C0002325084052600007232608485278000827
:1055D000232708504578000C232808604F0000203E
:1055E000232911EC6470002023FE120C6570000862
:1055F000232B085851000080232C086C00000080E9
:10560000232D08EC00800080232E096C020000800E
:10561000232F09EC0280008023300A6C04000080F4
:1056200023310AEC0480008023320B6C06000080DA
:1056300023330BEC0680008023340C6C08000080C0
:1056400023350CEC0880008023360D6C0C000080A4
:1056500023370DEC1400008023380E6C148000807A
:1056600023390EEC16000080233A0F6C1680008060
:10567000233B0FEC18000080233C106C1880008046
:10568000233D10EC1A000080233E116C1A8000109C
:10569000233F122C501000102340123C5000008079
:1056A0002341124C4D800080234212CC4C000080DC
:1056B0002343134C4C800080234413CC47000080CC
:1056C0002345144C47800080234614CC468000803C
:1056D0002347154C45000080234815CC45800080A9
:1056E0002349164C1B000080234A16CC1B800080E7
:1056F000234B174C15000080234C17CC15800080DD
:10570000234D184C19000080234E18CC19800080BE
:10571000234F194C17000080235019CC17800080AC
:1057200023511A4C0900008023521ACC09800080B2
:1057300023531B4C0700008023541BCC07800080A0
:1057400023551C4C0B80008023561CCC0500008088
:1057500023571D4C0580008023581DCC0D00008070
:1057600023591E4C0D800080235A1ECC030000805C
:1057700023FE1F4C03800001000000020000000413
:1057800000000005000000060000120100020000F9
:105790000008C016DC0503000F0E80010902B700E7
:1057A000040100C0020904000000FF00000C09040D
:1057B000010000010100090A240100013400020275
:1057C000030C240201030600020300000009240365
:1057D0000201010001000C24020301010002030088
:1057E000000009240304030600030009040200006A
:1057F0000102000A09040201010102000A07240152
:10580000020201000B2402010202100100770109CB
:1058100005822D800101000007250180010000099B
:10582000040300000102000B09040301010102004E
:105830000B072401030101000B24020102021001E5
:105840000077010905032D80010100000725018073
:10585000010000040309040C034100450039005213
:105860000042001A0350006500610062006500728A
:1058700000720079002000530044005200220350BF
:10588000006500610062006500720072007900200E
:105890000052006500630065006900760065002421
:1058A00003500065006100620065007200720079BB
:1058B0000020005400720061006E0073006D0069EA
:1058C0000074001E035000650061006200650072F4
:1058D0000072007900200052006100640069006FCE
:1058E0000016034400470038005300410051002DCA
:1058F000004900320043001A037700770077002E3A
:10590000006F0062006400650076002E0061007484
:10591000001E034D0075006C0074007500730020BC
:105920000043006F006E00740072006F006C002076
:10593000034D0075006C0074007500730020004971
:10594000005100200053006F0075006E00640024B9
:10595000034D0075006C0074007500730020004951
:105960000051002000520065006300650069007668
:1059700000650026034D0075006C0074007500730F
:105980000020004900510020005400720061006EA8
:105990000073006D006900740026034D0075006CF3
:1059A0000074007500730020005300440052002072
:1059B0000043006F006E00740072006F006C0020E6
:1059C000034D0075006C00740075007300200053D7
:1059D00000440052002C004C004C0043002E0010EC
:1059E0000355006C00740069006D0075007300269B
:1059F000037700770077002E006D0075006C00744F
:105A000000750073002D007300640072002E0063A7
:105A1000006F006D000000001203500045003000D0
:105A200046004B004F002D0030000201822D018006
:105A3000010301032D018001FF01010101FF579CBA
:105A400002FF5A2A000000000000000000000000D1
:105A50000000000000FF5A3801FF578A00000000D4
:105A600001FF5A3C01FF5A58303132333435363752
:105A7000383941424344454600E4900A31F0A3F0EE
:105A8000A3F0A3F0A3F07F64FEFDFC7137D2AF90CA
:105A900044F474FDF0F1C6F17512BF517EA17FB3DD
:105AA00012BF8F128BEEE4FFFEFDFC900A37124608
:105AB000F37FC01278A1900A2FEFF0700812B9346A
:105AC000F17512B9D3F1EA900A30EFF0900A2FE0A5
:105AD000700CA3E060087BFF7A4C79EE71BE900AEF
:105AE00030E060087BFF7A4C79F271BE900A2FE0BB
:105AF00070087BFF7A4C79F671BE7F02F1E47F80FB
:105B00007E9F7DD57C00900A991246F3900A99E019
:105B1000FCA3E0FDA3E0FEA3E0FF127FB1EF70EC79
:105B2000E47FDC7E05FDFC7137B1AAEF54FEFF91E6
:105B300021E47F05FEFDFC90FFFC1247311246F385
:105B4000850883850982E0A3E0A3E0FEA3E0D39467
:105B500000EE9480403D900CB3E0FCA3E0FDA3E098
:105B6000FEA3E0FF124D00850883850982C083C033
:105B700082E0FCA3E0FDA3E0FEA3E02400FFEE34FE
:105B800080FEED34FFFDEC34FFFCD082D083124662
:105B9000F380AD900CA9E0FCA3E0FDA3E0FEA3E040
:105BA000FF850883850982E0F8A3E0F9A3E0FAA362
:105BB000E0FB1244FF124D00900004024731900AAE
:105BC00036EBF0A3EAF0A3E9F0E4900A3AF0A3F090
:105BD000900B10E06003126134B1AAEF5401440A43
:105BE000FF9121900A36E0FBA3E0FAA3E0F91270DE
:105BF00035F16FEF5408FF900A39E06F60F3EFF072
:105C0000A374FFF5F01244CA45F070E5900A3A0417
:105C1000F0A374E0F07B007A00790012703580D137
:105C200022906577EFF022900CA474FF1246C0E436
:105C3000FBFAF9F8C312464D7010900C9BF07F8868
:105C40007E13FDFC900CA41246F3900CA0E07002B1
:105C5000A3E0601D900CA1E024FFF0900CA0E034C4
:105C6000FFF0E07002A3E07008B1AAEF547FFF914B
:105C700021900C9FE0600414F08023900C9BE0FFC7
:105C8000900CA2E06F6017900C9E7401F0A374C892
:105C9000F0E47F887E13FDFC900CA41246F3900C78
:105CA00099E0147002A131147002A17E24026002F6
:105CB000A1A9F16FEF30E407900C9AE004F0229074
:105CC0000C9AE0FFC394554028EFD3947350229070
:105CD0000C997401F0A37414F0900CA2E0900C9B4A
:105CE000F0A3F0A37404F0B1AAEF54DF4440FF81A5
:105CF00021E4900C9AF0900C9EE07008900CA3E0C8
:105D00007002A1A9B1AAEF4480FF9121900CA3E0F9
:105D1000600C900CA07403F0A374E8F08009900C60
:105D2000A0E4F0A3740AF0E4900CA3F0900C9EF0B1
:105D300022900C9AE014F0E0706F900C9DE06030BF
:105D4000B1AAEF4420FF9121900C9CE0FF30E308C2
:105D5000900C9A7408F08006900C9A7403F0EF256A
:105D6000E0900C9CF0A3E014F0900C997402F022E7
:105D7000B1AAEF549FFF9121E4900C99F022900C6E
:105D80009AE014F0E07022900C9DE06008900C9A6C
:105D90007403F08006900C9A740AF0B1AAEF54DFF5
:105DA000FF9121900C997401F022906577E0FF2219
:105DB000E4900A27F0A3F0A3F0A3F0A3F0A3F0A3CC
:105DC000F0A3740AF05179126A58127177900A039D
:105DD000E0FFB4430C900A28E06F6002EFF012A2DB
:105DE00052F16FEF5408FF900A25F0A3E06F60D7DF
:105DF000A3E0FF04F0EFB407004002C1F7905E0497
:105E0000F8282873025E19025E1D025E5E025E7E45
:105E1000025E83025E90025EA5912780AA900A032B
:105E2000E0FF644360A1900A28E06F602DB1AAEF03
:105E300054FEFF9121B1AAEF4402FF9121B1AA9033
:105E40000A2CEFF04408F04410FFF09121E4900C8C
:105E5000EDF0900A03E0900A28F0F108A1C7128F34
:105E6000CA9009A7E0FF900998E06F7002A1C7EF00
:105E7000F0E075F064A4FFAEF012BF75A1C7128800
:105E8000FFA1C7900A00E06002A1C7129017A1C746
:105E9000129FE612BC85EF7002A1C77BFF7A4C7996
:105EA000FA71BEA1C7900A03E064436016900A9994
:105EB000E0FCA3E0FDA3E0FEA3E0FF127FB1900AA7
:105EC00000EFF0F16FEF20E202F18E9009A3E0B451
:105ED000010EE4F07F2C7E01FDFC7137F194A1C727
:105EE0009009A3E064026002A1C7F07F2C7E01FD4F
:105EF000FC7137F18EA1C71261A1E4900A27F090DE
:105F00000A25E0A3F0A1C722900CEBE024FE602557
:105F100024F8603014604A240B7053900CEDE0605C
:105F20004D900CECE07047900CEB7402F0B1AAEFCE
:105F300054FDFF8121B1AAEF54F7FF9121900CEBA2
:105F4000740AF022900CEDE07024900CECE0701ECE
:105F5000B1AAEF54FE4408FF9121900CEB740BF0B2
:105F600022B1AAEF4402FF9121E4900CEBF02290C1
:105F70006463E0FF22900CEFE0700912AB04900C18
:105F8000EF7401F012B9209044C17480F022904661
:105F9000FA7440F09046F6E04401F022B1AAEF54C2
:105FA000FBFF912190099B7401F0FF906477EFF063
:105FB00022B1AAEF54F7FF54FDFF4404FF91219052
:105FC000099B7401F022E4900A3AF0A3F0FBFA7DF9
:105FD000017F01126F7812678512BA7EE47F01FE9D
:105FE000FDFC6137906576EFF02212B9FC126DED81
:105FF000126D487DF07F401261FC900A36EFF0127E
:10600000BA5912BA1F900CF6E0FF1134900CF5E06B
:10601000FF1134900CF8E0FF1134900CF7E0FF1101
:1060200034900CF9E0FF113412BA6D12BA33900AB1
:1060300036E0FF227E01EFC39418502875F010EF70
:10604000A42410F582E5F03470F583E054FEF07579
:10605000F010EFA42410F582E5F03470F583E054DD
:10606000DFF0E41EAF0622900A3CEFF0C394095023
:1060700004E0FF80027F01900A3DEFF0900A3DE0CE
:10608000FF2407F582E4340BF583E0F4602F7423DA
:106090002FF582E4340BF583E0FF1134900A3DE0E4
:1060A0002407F582E4340BF583E0FF11F6900A3DF6
:1060B000E02407F582E4340BF58374FFF0900A3D89
:1060C000E02411F582E4340BF583E0FFF460121153
:1060D000F6900A3DE02411F582E4340BF58374FF59
:1060E000F0900A3DE004F0E0C394095008900A3CA7
:1060F000E06409608722900A3EEFF0C39480503339
:10610000124CC4900A3FEFF0900CD3E0FF900A3E8F
:10611000E0FE75F008A42400F582E5F03478F583FC
:10612000EFF0900CD3EEF0A3E004F0900A3FE0FF14
:10613000124CAC227F091167124CC4906008E054E5
:106140007FF0906012E054FBF09043A5E054FEF025
:106150009043B5E054FEF09051F8E04480F0E04404
:1061600040F0124CAC9044CA7480F0A37401F090DB
:1061700044CA7420F09044C87404F07408F012C348
:10618000219044D97410F0E4900922F0900930F085
:1061900090091EF0900927F090092FF0900B10F055
:1061A00022F1C7EF6011900B10E0701B7D02FF120F
:1061B000A861126B258011900B10E0600AE4900C2E
:1061C000EDF0125FF33134227DC07F4031FC7D80E1
:1061D0007F4531FC7DFF7F4131FC7DFF7F4231FCFB
:1061E000B173517912BA44124CC4906597E04410CF
:1061F000F0124CAC90657BE04401F022900A37EF3E
:10620000F0A3EDF0E4900A3BF0A3F0A3F0900A3B7A
:10621000E0FFC39402505FEF14602F0470EF900A08
:1062200037E0900A39F0900A38E0900A3AF07B01A2
:106230007A0A7939900A617402F0E4A3F07F461279
:106240007E4B900A3BE004F080C3127CC1EF30E744
:1062500008900A3BE014F0800AEF30E106900A3B18
:10626000E004F0900A3C74FFF5F01244B445F0707D
:106270009C7F012280977F0022E4900A2FF0900AF1
:106280002FE0FFC3940340026120EF6402703FE0FF
:106290002407F582E43409F583E0FF900907E0FB69
:1062A000E4900A3EF07D01FC91EC900A2FE0240777
:1062B000F582E43409F583E0FF7B017A097903E98B
:1062C000EAE4AD01AC027B477A64D1BC804A900A13
:1062D0002FE0FE2407F582E43409F583E0FF74081B
:1062E0002EF582E43409F583E0FB900A3E7404F055
:1062F0007D017C0091EC900A2FE02407F582E434C4
:1063000009F583E0FF7B017A09790BE9EAE4AD0145
:10631000AC027B477A64D1BC900A2FE004F0417E46
:10632000900CF8E0FFF152900CF8E0FF900907E0C4
:10633000FDF134E4900A2FF0900A2FE0FFC394039C
:1063400040028158EF04A3F0C39403402EE4F09080
:106350000A2FE0240FF582E43409F583E0FF900A68
:1063600030E0240FF582E43409F583E0FB900A3E27
:106370007405F07D807C0191EC8029900A2FE02447
:106380000FF582E43409F583E0FF900A30E0240F32
:10639000F582E43409F583E0FB900A3E7401F07D58
:1063A00080FC91EC900A2FE0FB75F080A42483F52B
:1063B00082E5F03404F583EB2583F583FEE582EE78
:1063C000E4AD82AC06C005740F2BF582E43409F508
:1063D00083E0FF7B017A09790BE9EAE4AB01D005A0
:1063E000D1BC900A2FE02400F582E43400F583E06C
:1063F000FF900A30E02400F582E43400F583E0FBEE
:10640000900A3E7402F07D807C0191EC900A2FE0AE
:10641000F975F080A42483F582E5F03404F583E96E
:106420002583F583FEE582EEE4AB82AA06C002C0B6
:1064300003740029F582E43400F583E0FF7B017AE0
:10644000097903E9EAE4AD01AC02D003D002D1BC82
:10645000900A2FE004F06138900CF7E0FFF15290C1
:106460000CF7E0FF90090FE0FDF134900CF9E0FF2C
:10647000F152900CF9E0FF900000E0FDF134900C37
:10648000F9E0FF7D0191A1900CF7E0FF7D0112BCC6
:1064900060900CF7E0FF7D0191A1900CF8E0FF7D8A
:1064A000017E01EFC394185040ED601575F010EFB8
:1064B000A42410F582E5F03470F583E04420F080E8
:1064C0001375F010EFA42410F582E5F03470F58315
:1064D000E054DFF075F010EFA42410F582E5F034FD
:1064E00070F583E04401F0E4FEAF0622900A3BEC35
:1064F000F0A3EDF0A3EBF0900A3AEFF0900A3F74AE
:1065000001F0EFC394805065900A3BE054F0A37013
:106510005C900A3AE075F008A42400FFE5F03478B6
:10652000FE900A40F0A3EFF0AA06F97B01900A3B27
:10653000E0FCA3E0FD124D4C900A3DE0FF900A3ACA
:10654000E0FE75F008A42402F582E5F03478F583C6
:10655000EFF0900A3EE0FF75F008EEA42403F58208
:10656000E5F03478F583EFF0E4900A3FF0900A3FCD
:10657000E0FF22E4900A2FF0900A2FE0FFC394037B
:106580005070EFB4021C2404F582E43409F583E072
:10659000FF900904E0FBE4900A3EF07D01FC91ECE1
:1065A0008028900A2FE0FE2404F582E43409F58364
:1065B000E0FF74052EF582E43409F583E0FB900AD0
:1065C0003E7404F07D017C0091EC900A2FE02404DD
:1065D000F582E43409F583E0FF7B017A09790AE961
:1065E000EAE4AB017D4B7C65D1BC900A2FE004F05E
:1065F0008086900CF6E0FFF152900CF6E0FF9009D7
:1066000004E0FDF134E4900A2FF0900A2FE0FFC37C
:1066100094034002C197EF04A3F0C394034002E443
:10662000F0900A2FE0240CF582E43409F583E0FFB2
:10663000900A30E0240CF582E43409F583E0FB9005
:106640000A3E7402F07D807C0191EC900A2FE0F903
:1066500075F080A42403F582E5F03400F583E92584
:1066600083F583FEE582EEE4AB82AA06C002C00396
:10667000740C29F582E43409F583E0FF7B017A0983
:10668000790AE9EAE4AD01AC02D003D002D1BC90B2
:106690000A2FE004F0C10A900CF5E0FFF152900CD3
:1066A000F5E0FF90090CE0FDF134900CF5E0FF7D82
:1066B0000191A1900CF6E0FF7D0181A1900A3BECD5
:1066C000F0A3EDF0A3EAF0A3EBF0900A3AEFF0901C
:1066D0000A3F7401F0EFC394805053900A3AE0757A
:1066E000F008A42404FFE5F03478FE900A40F0A3FB
:1066F000EFF0AA06F97B01900A3BE0FCA3E0FD1253
:106700004D4C900A3AE075F008A42406FFE5F034F9
:1067100078FE900A40F0A3EFF0AA06F97B01900AF8
:106720003DE0FCA3E0FD124D4CE4900A3FF0900ADE
:106730003FE0FF227E01EFC39418501375F010EF75
:10674000A42419F582E5F03470F583EDF0E41EAF72
:1067500006227E01EFC39418502875F010EFA42490
:1067600014F582E5F03470F583E04404F075F01020
:10677000EFA42410F582E5F03470F583E04401F0D5
:10678000E41EAF0622900A36EFF07FF47E3DF1D68C
:10679000126D0A900A37EFF0E0FBFFE4900A3EF03A
:1067A0007D01FC91EC900A37E0FF7B227A427D6705
:1067B0007C64D1BC900A36E0FFA3E0FDF134900A7E
:1067C00036E0FF7D0181A1905111E0548060047F8B
:1067D0000180027F0022AD07AC06EC906579F0EFF6
:1067E000906578F02290FFFC1247311246F390FF3B
:1067F000F61247317B01900006124755A982AA8301
:10680000850883850982EBF0A3EAF0A3E9F07B0118
:1068100090000A124755A982AA8390000312475597
:10682000EBF0A3EAF0A3E9F0900003124755E0FB78
:10683000A3E0FAA3E02403F9E43AFA124477FF85CF
:106840000883850982E0FBA3E0FAA3E0F9EF124494
:1068500090900003124755E0FBA3E0FAA3E0240266
:10686000F9E43AFA124477FF850883850982E0FB50
:10687000A3E0FAA3E02401F9E43AFAEF124490907D
:106880000003124755E0FBA3E0FAA3E02401F9E47A
:106890003AFA124477FF850883850982E0FBA3E07A
:1068A000FAA3E02402F9E43AFAEF124490900003CC
:1068B000124755E0FBA3E0FAA3E0F9124477FF8505
:1068C0000883850982E0FBA3E0FAA3E02403F9E44E
:1068D0003AFAEF124490900006124755E0FCA3E00C
:1068E000FDA3E0FEA3E0FF90000E024731900A30C6
:1068F000EBF0A3EAF0A3E9F0900A2FEFF024FFFFFA
:10690000E434FFFEEFC4F8540FC868FFEEC454F03F
:1069100048900A35EFF02488FFE43460FAA9079024
:106920000A377401F0A3EAF0A3E9F0900CE9E03033
:10693000E008900A367491F08006900A3674D1F01F
:10694000900A33E0FCA3E0FDECFF900A2FE0FE7517
:10695000F00BA42438F582E5F03409F583E04FFF0D
:10696000900A35E0FB240CF582E43460F583EFF007
:10697000ED740D2BF582E43460F583EDF074232E75
:10698000F582E4340BF583E0FF126034900A2FE0C7
:106990002407F582E4340BF583E0FBFF900A33E033
:1069A000FCA3E0FD900A36E0900A3EF01264EC9001
:1069B0000A2FE02407F582E4340BF583E0FFC007DB
:1069C000900A30E0FBA3E0FAA3E0F9FFAE02EAE4AC
:1069D000AD07AC06C005900A37E0FBA3E0FAA3E0E0
:1069E000F9FFEAE4AB07D005D0071266BC900A2F86
:1069F000E02423F582E4340BF583E0FF1267529024
:106A00000A2FE0FE2423F582E4340BF583E0FF74C3
:106A1000072EF582E4340BF583E0FD126734900A0B
:106A20002FE02423F582E4340BF583E0FF7D01128F
:106A300064A1900A2FE075F00BA42436F582E5F0EE
:106A40003409F583E4F0900A35E02480F582E434DB
:106A500060F583E04401F0227F0312AEB9EF6012CB
:106A6000900CEAE0701C7F0351C1900CEA7401F0B5
:106A70008010900CEAE0600A7F0312B038E4900CBA
:106A8000EAF012AEACEF60047F0351C17F0351FE08
:106A9000EFB40114710F900A337401F0A37480F005
:106AA0007F03714F7F0351C17F0251FEEFB401108C
:106AB00091F4900A337401F0A37480F07F0211ED19
:106AC00022EFD394004036EF94095031EF75F00B6C
:106AD000A42436F582E43409F583E4F0EF75F00B75
:106AE000A4243AF582E43409F583E0FE75F010EF52
:106AF000A424FEF582E5F0345FF583EEF022EF7515
:106B0000F00BA42436F582E43409F583E0FF22D1AA
:106B10005A7E007C017D801244A274832FF9740494
:106B20003EFA7B0122900B09E0B4FF0691F47F024C
:106B30009154900B0AE0B4FF06710F7F039154E467
:106B4000900CEAF0710FE4900A33F0A3F07F039009
:106B50000A30EBF0A3EAF0A3E9F0900A2FEFF0245B
:106B6000FFFFE434FFFEEFC4F8540FC868FFEEC423
:106B700054F048EF2488FFE43460FAA907900A36FD
:106B80007401F0A3EAF0A3E9F0900CE9E030E10829
:106B9000900A357492F08006900A3574D2F0900A0B
:106BA0002FE02423F582E4340BF583E0FF126034F8
:106BB000900A2FE02407F582E4340BF583E0FBFF15
:106BC000900A33E0FCA3E0FDA3E0900A3EF01264DB
:106BD000EC900A2FE02407F582E4340BF583E0FF04
:106BE000C007900A36E0FBA3E0FAA3E0F9FFAE028B
:106BF000EAE4AD07AC06C005900A30E0FBA3E0FA7A
:106C0000A3E0F9FFEAE4AB07D005D0071266BC9019
:106C10000A2FE02423F582E4340BF583E0FF1267AA
:106C200052900A2FE0FE2423F582E4340BF583E032
:106C3000FF74072EF582E4340BF583E0FD12673410
:106C4000900A2FE02423F582E4340BF583E0FF7DE6
:106C5000010264A1900A2FEFF0E4A3F0A3F0A3F0E7
:106C6000A3F0EF24FD6030047058900A30E0FAA3DE
:106C7000E0FBA3E0FFA3E0900A38CFF0A3EFF07DA4
:106C8000017F2012BBE1900A2FE02423F582E43437
:106C90000BF583EFF0802B900A30E0FAA3E0FBA322
:106CA000E0FFA3E0900A38CFF0A3EFF07D017F2052
:106CB00012BB98900A2FE02423F582E4340BF5836D
:106CC000EFF0900A2FE0FFD394004027EF94095093
:106CD00022B10A900A2FE02407F582E4340BF583F1
:106CE000EFF0B10A900A2FE02411F582E4340BF59D
:106CF00083EFF022D15A7E007C017D801244A27481
:106D0000032FF974003EFA7B0122900A3874FFF0D9
:106D1000124CC4900CD4E0D394184023900CD3E0D0
:106D2000FE900A38F0900CD4E014F075F008EEA450
:106D30002400F582E5F03478F583E0900CD3F0126E
:106D40004CAC900A38E0FF22E4900A3BF0A3F0FB41
:106D5000FA7D017F01F130E4900A3BF0A3F0FBFAE9
:106D60007D017F0112BA8DE4900A3BF0A3F0FBFA9B
:106D70007D017F0112BB4FE4900A36F0900A36E0A5
:106D8000C394035019B10A900A36E02407F582E44F
:106D90003409F583EFF0900A36E004F080DEE490E9
:106DA0000A36F0900A36E0C394035019B10A900AEB
:106DB00036E0240FF582E43409F583EFF0900A36CB
:106DC000E004F080DEE4900A36F0900A36E0C394E6
:106DD000035019B10A900A36E02400F582E4340029
:106DE000F583EFF0900A36E004F080DE22E4900AAA
:106DF0003BF0A3F0FBFA7D017F01D1A8E4900A3BB0
:106E0000F0A3F0FBFA7D017F01D160E4900A36F037
:106E1000900A36E0C394035019B10A900A36E02470
:106E200004F582E43409F583EFF0900A36E004F0CB
:106E300080DEE4900A36F0900A36E0C394035019DD
:106E4000B10A900A36E0240CF582E43409F583EFA8
:106E5000F0900A36E004F080DE22906465E0FF22C4
:106E6000900A39EAF0A3EBF0AE05900CF57403F04C
:106E7000AD07AF06AB07E4900A40F0A3F0A3F07FA4
:106E80000312BAD6900CF5E0FF900A39E0FCA3E0BB
:106E9000FDA3E0FAA3E0FBF1BD900CF5E0FF7D015E
:106EA000D1F0900CF5E0FF22900A39EAF0A3EBF064
:106EB000AE05900CF67404F0AD07AF06AB07900A70
:106EC00040F0E4A3F0A3F07F0412BAD6900CF6E0F1
:106ED000FF900A39E0FCA3E0FDA3E0FAA3E0FBF198
:106EE000BD900CF6E0FF7D01D1F0900CF6E0FF22A2
:106EF000AC077B01ECC39418503375F010ECA4245C
:106F000010F582E5F03470F583E054F1FAED5407A2
:106F100025E0FFE433AE02EF4AFF75F010ECA42445
:106F200010F582E5F03470F583EFF0E41BAF032237
:106F3000900A39EAF0A3EBF0AE05900CF77405F077
:106F4000AD07AF06AB07900A40F0E4A3F0A3F07FD3
:106F50000512BAD6900CF7E0FF900A39E0FCA3E0E6
:106F6000FDA3E0FAA3E0FBF1BD900CF7E0FF7D018B
:106F7000D1F0900CF7E0FF22900A38EAF0A3EBF092
:106F8000AE05E4900CFAF0AD07AF06AB07900A40EF
:106F9000F0A3F0A3F0FF12BAD6900CFAE0FF900A2B
:106FA00038E0FCA3E0FDA3E0FAA3E0FBF1BD900C08
:106FB000FAE0FFE4FDD1F0900CFAE0FF22900A3EE7
:106FC000ECF0A3EDF0A3EAF0A3EBF0900A3DEFF0B4
:106FD000900A427401F0EFC394185053900A3DE0B8
:106FE00075F008A42404FFE5F03476FE900A43F01F
:106FF000A3EFF0AA06F97B01900A3EE0FCA3E0FDB6
:10700000124D4C900A3DE075F008A42406FFE5F00F
:107010003476FE900A43F0A3EFF0AA06F97B0190C4
:107020000A40E0FCA3E0FD124D4CE4900A42F090CF
:107030000A42E0FF22EA494B6015E4900BB5F0905C
:107040000BB8F0900BBAEBF0A3EAF0A3E9F02290B2
:107050000BB8E014700201F71470022128147002BA
:10706000215A240360022176900BBAE0FBA3E0FAD8
:10707000A3E0F9900BB5E0FFE92FF9E43AFA1244E6
:10708000777004900BB5F0900BBAE0FBA3E0FAA385
:10709000E0F9900BB5E0FF04F0E92FF9E43AFA12B9
:1070A0004477FFC39461400AEFD3947A500474E0AC
:1070B0002FFFEFC394224006EFD3945A4008900B61
:1070C000B67407F0800F749B2FF582E4340BF583C0
:1070D000E0900BB6F0900BB6E0FF5407A3F07003FE
:1070E0007406F0EFB40710900BB97402F0E4900B43
:1070F000B7F0A37403F022900BB6E0FF30E70890DE
:107100000BB97403F08006900BB97401F0EF25E021
:10711000900BB6F0A3E014F0125DAAEF54FEFF123C
:107120005C21900BB87402F0900BB9E07025900BC5
:10713000B87403F0900BB7E07008900BB97402F0CC
:107140008005E4900BB9F0125DAAEF4401FF125CD8
:10715000218007900BB9E014F022900BB9E0701079
:10716000900BB7E07003A3F022900BB87401F022EB
:10717000900BB9E014F022906461E0FD7C0020E007
:10718000026153906464E0FEE42DFDEC3EFCFEAF32
:1071900005ED2410FFEE34AA900A2FF0A3EFF09033
:1071A0000CB9E0FEA3E0FF900A2FE0FCA3E0FDC3D2
:1071B0009FFFEC9EA3F0A3EFF0EC1243BD7B177A88
:1071C000B779D178391242121243F6900A33EEF0B1
:1071D000A3EFF0900A31E0FCA3E0FDEC1243BDE424
:1071E000FBFAF9783F1242121243F6900A2FE0FDA3
:1071F000A3E0900CB9CDF0A3EDF0900A34E02FFF9E
:10720000900A33E03EFE900CB8E02FF0900CB7E00F
:107210003EF0D3A3E094E8900CB7E0943F400774AD
:107220003FF0A374E8F0C3900CB8E0940C900CB756
:10723000E0943A5007743AF0A3740CF0900CBCE060
:107240007002A3E070026148900CBBE0602FE490F4
:107250000CB7F0A3F0900CBBE014F0600261481290
:107260005DAAEF54FEFF125C21900CB7743DF0A3B1
:1072700074F4F07D017F0C7E0071546148900CBD68
:10728000E024FFF0900CBCE034FFF0900A31E0FE07
:10729000A3E0FFC3EE64809480500FC3900CBFE066
:1072A0009FF0900CBEE09EF08014900A31E0FEA3A7
:1072B000E0FF900CBFE02FF0900CBEE03EF0900C91
:1072C000BEE0C313FEA3E013FF900CBEEEF0A3EFED
:1072D000F0C39402EE94005018A3E07002A3E060A3
:1072E0002D900CC1E024FFF0900CC0E034FFF08042
:1072F0001DD3900CBFE09407900CBEE09400400EAC
:10730000900CC1E004F07006900CC0E004F0D39043
:107310000CC1E09432900CC0E09400402BE4900C3F
:10732000BEF0A3F0A3F0A3F0900CBB74C8F0A3745C
:107330000BF0A374B8F0125DAAEF4401FF125C21B8
:107340007D017F0D7E007154900CB7E0FEA3E0FF3D
:107350001267D622900A35EEF0A3EFF0A3EDF0917C
:1073600080900A39EFF09188900A3AEEF0A3EFF09E
:10737000900A35E0FCA3E0FD6F7002EC6E700281B4
:107380007F9043A2E05401900A38F0A3E0703AA342
:10739000E0FEA3E0FF4E6004ED4C702DEF4E701147
:1073A0007B027A407980124D4C904082E054BFF0CD
:1073B00022904082E04440F07B027A407980900A3B
:1073C00035E0FCA3E0FD024D4C900A38E06053909C
:1073D0004001E4F090401004F0904014E4F090403C
:1073E00008E0547FF0904082E05408600A900A352B
:1073F000E07002A3E0702B7B027A407902900A3A97
:10740000E0FCA3E0FD124D4C9040017407F0904069
:1074100001E0540170F89043A2E054FEF090400166
:10742000E4F09043A2E05401602F7B027A4079029D
:10743000900A35E0FCA3E0FD124D4C900A37E06065
:10744000047F0280027F00EF4401904001F09040F1
:1074500001E05401602980F6227B027A4079809015
:107460000A35E0FCA3E0FD124D4C9043A2C083C05E
:1074700082E0FF900A38E0FEEF4ED082D083F02207
:10748000904082E05407FF227B027A407980024DCF
:107490003D900A331246F3E4FFFEFDFC900A4712CA
:1074A00046F3900A33E0FCA3E0FDA3E0FEA3E0FF77
:1074B0001267E5E41243B8E4FBFAF9784A12431B79
:1074C000900A371246F3900A37E0FCA3E0FDA3E0F0
:1074D000FEA3E0FF1243F6900A3B1246F37F007EC4
:1074E000247D747C49900A37E0F8A3E0F9A3E0FA20
:1074F000A3E0FB1242121243F67B407A42790F78E6
:1075000000124BC7AC00AD01AE02AF03900A4312AC
:1075100046F37F407E427D0F7C00900A3BE0F8A35B
:10752000E0F9A3E0FAA3E0FB1244FF900A43E0F87D
:10753000A3E0F9A3E0FAA3E02FFFEA3EFEE93DFD58
:10754000E83CFC900A3F1246F3900A3FE0FCA3E0BF
:10755000FDA3E0FEA3E0FF22900A4FEFF0A3EDF0C1
:10756000900B39E0B40800400302785A907573F824
:1075700028287302758B0276F002771702774B0288
:10758000777C0277A4027808027837900A55E0FCED
:10759000A3E0FDA3E0FEA3E0FFE41243B8C004C0F3
:1075A00005C006C007900A51E0FCA3E0FDA3E0FE81
:1075B000A3E0FFE41243B8D003D002D001D0001200
:1075C000431BE4FBFAF978431242121243F6900B84
:1075D0002D1246F3900A50E0FF7E007C007D801261
:1075E0004762900B2DE0F8A3E0F9A3E0FAA3E02FA7
:1075F000FFEA3EFEE93DFDE83CFCE42FFFEE34FEF1
:10760000FEED34FFFDEC34FFFC900B2D1246F390A1
:107610000A55E0FCA3E0FDA3E0FEA3E0FFE4124373
:10762000B8C004C005C006C007900A51E0FCA3E042
:10763000FDA3E0FEA3E0FFE41243B8D003D002D0E4
:1076400001D00012431BE4FBFAF9784312421212F4
:1076500043F6900B311246F3900B31E0FCA3E0FDB2
:10766000A3E0FEA3E0FF900A55E0F8A3E0F9A3E051
:10767000FAA3E0FB1244FFC004C005C006C007E443
:107680007F80FEFDFC900A51E0F8A3E0F9A3E0FA48
:10769000A3E0FB1244FFD003D002D001D000C3EF1F
:1076A0009BFFEE9AFEED99FDEC98FC900B31124693
:1076B000F3900A55E0FCA3E0FDA3E0FEA3E0FF90F9
:1076C0000B351246F3900B35E0FCA3E0FDA3E0FE82
:1076D000A3E0E4FFEEE4FDFC780812465EAD0790FF
:1076E0000A4FE0FF127860900B39E004F002785AFC
:1076F000900A4FE004FFC007900B35E0FCA3E0FDCB
:10770000A3E0FEA3E0FFE4AD07D007127860900B82
:1077100039E004F002785A900A4FE02402FFC007D3
:10772000900B2DE0FCA3E0FDA3E0FEA3E0E4FFFE50
:10773000ED5403FDE4FC781012465EAD07D007124D
:107740007860900B39E004F002785A900A4FE024F8
:1077500003FFC007900B2DE0FCA3E0FDA3E0FEA318
:10776000E0E4FFEEE4FDFC780812465EAD07D007CA
:10777000127860900B39E004F002785A900A4FE0DA
:107780002404FFC007900B2DE0FCA3E0FDA3E0FE66
:10779000A3E0FFE4AD07D007127860900B39E00456
:1077A000F002785A900A4FE02405FFC007900B3191
:1077B000E0FCA3E0FDA3E0FEA3E0E4FFFEED540F38
:1077C000FDE4FC781012465EC004C005C006C00788
:1077D000A3E0FCA3E0FDA3E0FEA3E0E4FFFEED5484
:1077E0000FFDE4FC780C12465ED003D002D001D02D
:1077F00000EF4BFFEE4AED49EC48AD07D0071160B2
:10780000900B39E004F08052900A4FE02406FFC04C
:1078100007900B31E0FCA3E0FDA3E0FEA3E0E4FF52
:10782000EEE4FDFC780812465EAD07D007116090CB
:107830000B39E004F08023900A4FE02407FFC007D3
:10784000900B31E0FCA3E0FDA3E0FEA3E0FFE4AD7C
:1078500007D0071160E4900B39F0900B39E0FF225C
:10786000900A5B7401F0E4A3F0900A59EFF0A3EDE5
:10787000F07B017A0A7959900A617402F0E4A3F06E
:107880007F60D14B900A5CEFF091C1EF30E1FAD10B
:10789000FAEF64026005E4900A5BF0900A5BE0FF97
:1078A00022900A36EFF0E4900A3BF0FF7ED77DA3EA
:1078B0007C701267E5900AB21246F3900A36E0FD3A
:1078C0007FB71160900A3BEFF07002216DE4FFFE7C
:1078D000FDFC900A37E0F8A3E0F9A3E0FAA3E0FB8F
:1078E000C312464D6014900A37E0FCA3E0FDA3E00C
:1078F000FEA3E0FF900AC31246F37D807F10116063
:10790000900A3BEFF07D807F111160900A3BEFF011
:107910007D807F121160900A3BEFF07D0C7F10118B
:1079200060900A3BEFF07D0C7F111160900A3BEFF5
:10793000F07D0C7F121160900A3BEFF0E4FDFFB187
:10794000BCE4FF718C7F01718CE4FD7F0191DFE469
:10795000FD7F0291DFE4FD7F0171A7E4FD7F0271ED
:10796000A7E4FD7F0171DFE4FD7F0271DF900A3B38
:10797000E0FF7E0022900A4FEFF0900B46E0B40843
:10798000004002618690798CF82828730279A4025D
:107990007A10027A35027A7B027AAA027AD0027BC6
:1079A00034027B63E47F80FEFDFC900A50E0F8A384
:1079B000E0F9A3E0FAA3E0FB1244FFE42FFFEE346A
:1079C000FEFEED34FFFDEC34FFFC900B3A1246F363
:1079D000E4FFFEFDFC900B3E1246F3E47F01FEFD4A
:1079E000FC900B421246F3900B42E0FCA3E0FDA397
:1079F000E0FEA3E0E4FFEEE4FDFC780812465EAD95
:107A000007900A4FE0FF1160900B46E004F061869A
:107A1000900A4FE004FFC007900B42E0FCA3E0FD9A
:107A2000A3E0FEA3E0FFE4AD07D0071160900B4692
:107A3000E004F06186900A4FE02402FFC007900B3B
:107A40003AE0FCA3E0FDA3E0FEA3E0E4FFFEED547A
:107A500003FDE4FC781012465EA804A905AA06AB53
:107A600007900A54E0FFE4EB4FFFEAE9E8AD07D0E6
:107A7000071160900B46E004F06186900A4FE02405
:107A800003FFC007900B3AE0FCA3E0FDA3E0FEA3D8
:107A9000E0E4FFEEE4FDFC780812465EAD07D00797
:107AA0001160900B46E004F06186900A4FE02404D8
:107AB000FFC007900B3AE0FCA3E0FDA3E0FEA3E0CB
:107AC000FFE4AD07D0071160900B46E004F061863B
:107AD000900A4FE02405FFC007900B3EE0FCA3E0B6
:107AE000FDA3E0FEA3E0E4FFFEED540FFDE4FC780F
:107AF0001012465EC004C005C006C007A3E0FCA388
:107B0000E0FDA3E0FEA3E0E4FFFEED540FFDE4FC86
:107B1000780C12465ED003D002D001D000EF4BFFAC
:107B2000EE4AED49EC48AD07D0071160900B46E0F6
:107B300004F08052900A4FE02406FFC007900B3EED
:107B4000E0FCA3E0FDA3E0FEA3E0E4FFEEE4FDFC27
:107B5000780812465EAD07D0071160900B46E0042E
:107B6000F08023900A4FE02407FFC007900B3EE00F
:107B7000FCA3E0FDA3E0FEA3E0FFE4AD07D0071106
:107B800060E4900B46F0900B46E0FF22900A3CEF39
:107B9000F070067D207FB10160900A3CE0B40106E0
:107BA0007D807FB1116022900A3DEDF0900A3CEF9C
:107BB000F02410FF7B017A0A793E913A900A3DE069
:107BC000B40107A3E0547FF08007900A3EE04440F0
:107BD000F0900A3CE02410FF900A3EE0FD01609026
:107BE0000A3CEFF0A3EDF07B017A0A793E7F039126
:107BF0003AEF7045900A3DE0B4011BA3E0FF900A04
:107C00003CE0FE7401A806088002C333D8FCF45F90
:107C1000900A3EF0801A900A3EE0FF900A3CE0FE97
:107C20007401A806088002C333D8FC4F900A3EF0C6
:107C3000900A3EE0FD7F03116022900A40EFF0A31E
:107C4000EBF0A3EAF0A3E9F0E4A3F0A3F07B01A337
:107C500004F0A3740AF0A37440F091C1900A45EFB8
:107C6000F064806056A3E0FBA3E0FAA3E0F9900A79
:107C7000617401F0E4A3F07F60D14B900A45EFF00E
:107C800091C1EF30E1FA900A45E0702F900A41E08F
:107C9000FBA3E0FAA3E0F9900A4D7401F0E4A3F02D
:107CA0007F60F100900A45EFF091C1EF30E0FA906B
:107CB0000A45E06006900A447401F0900A44E0FF2F
:107CC000229044C97480F0900CCBE0FF900CEEE061
:107CD00054406004EF4404FF9044C17480F022904B
:107CE0000A3DEDF0900A3CEFF0E4900A3FF0EFC35C
:107CF00094004011900A3CE0D394035008900A3F4E
:107D00007418F08016900A3CE0FFC39400400CEF1A
:107D1000D394035006900A3F7419F0900A3FE0FF95
:107D20007B017A0A793E913A900A3CE0FFC39400C5
:107D3000403AEFD394035034900A3EE0FF900A3C5F
:107D4000E025E0FE7403A806088002C333D8FCF4E3
:107D50005F900A3EF0E0FF900A3DE0FDA806088033
:107D600002C333D8FC4F900A3EF08044900A3CE0B6
:107D7000FFC39400403AEFD394035034900A3EE09E
:107D8000FF900A3CE024FC25E0FE7403A80608806E
:107D900002C333D8FCF45F900A3EF0E0FF900A3D46
:107DA000E0FDA806088002C333D8FC4F900A3EF0DD
:107DB000900A3FE0FF900A3EE0FD0160900A3DED31
:107DC000F0900A3CEFF0900A3F7403F0EF2410FFAC
:107DD0007B017A0A793E913AEF706F900A3DE01488
:107DE000601D14602F14604124037050900A3EE01F
:107DF000FFA3E0F4FEEF5E900A3EF0E0F0803D90DD
:107E00000A3EE0FFA3E0F4FEEF5E900A3EF0E0449D
:107E100001F08028900A3EE0FFA3E0F4FEEF5E90C0
:107E20000A3EF0E04402F08013900A3EE0FFA3E037
:107E3000F4FEEF5E900A3EF0E04403F0900A3CE06E
:107E40002410FF900A3EE0FD116022900A5EEBF0E4
:107E5000A3EAF0A3E9F0AC077D02900A5EE0FBA381
:107E6000E0FAA3E04A4B7002C1F7900CEEE0B410C8
:107E70000F9049D9E054087003FD801A7D018016E7
:107E8000900CEEE0B4600FE4FD9044D97480F09063
:107E90000CCBE054F7F0ED705E900CEE7445F0E41E
:107EA000900CC7F0900A61E0900CCAF0900A5EE076
:107EB000F9A3E0FAA3E0900CC3C9F0A3EAF0A3E9A8
:107EC000F0900A62E0FF900CC8F0900CCBE054FDFB
:107ED000F0AE04EE25E09049D8F0EF5401600CA319
:107EE0007412F09049D77404F080069049D9740157
:107EF000F09044C17480F0AF0522900CC7E0FF22DF
:107F0000900A4AEBF0A3EAF0A3E9F0AC077D0290F7
:107F10000A4AE0FBA3E0FAA3E04A4B7002E1AE900C
:107F20000CEEE0B4100F9049D9E054087003FD80C6
:107F30001A7D018016900CEEE0B4600FE4FD9044D1
:107F4000D97480F0900CCBE054F7F0ED7060900C99
:107F5000EE7449F0E4900CC6F0900A4DE0900CC924
:107F6000F0900A4AE0F9A3E0FAA3E0900CCCC9F043
:107F7000A3EAF0A3E9F0900A4EE0FF900CC8F0905D
:107F80000CCBE054FEF0AE04EE25E044019049D85D
:107F9000F0EF5401600CA37412F09049D77404F010
:107FA00080069049D97401F09044C17480F0AF0507
:107FB00022900A361246F37F407E787D7D7C0190C8
:107FC0000A3A1246F3900B67E014700302813314EF
:107FD00070030286ED147003028743147003028756
:107FE0007A1470030287B6240560030287D09009D3
:107FF000A6E024FE601D14604124037056900A36EA
:10800000E0FCA3E0FDA3E0FEA3E0FF900B6E1246B0
:10801000F38040900A36E0FCA3E0FDA3E0FEA3E07D
:108020002464FFE43EFEE43DFDE43CFC900B6E1254
:1080300046F39009A67403F08019900A36E0FCA379
:10804000E0FDA3E0FEA3E0FF900B6E1246F3E49088
:1080500009A6F0900CEDE0600201DF900A04E0FC5C
:10806000A3E0FDA3E0FEA3E0FF900B6EE0F8A3E029
:10807000F9A3E0FAA3E02FFFEA3EFEE93DFDE83C6C
:10808000FC900B5CE0F8A3E0F9A3E0FAA3E0FBC3EB
:1080900012464D7002E1D0900A04E0FCA3E0FDA37B
:1080A000E0FEA3E0FF900B6EE0F8A3E0F9A3E0FA96
:1080B000A3E02FFFEA3EFEE93DFDE83CFC900B6AA1
:1080C0001246F3900B6AE0FCA3E0FDA3E0FEA3E000
:1080D000FF900B5C1246F3900B67E004F0E1D09048
:1080E0000B6EE0FCA3E0FDA3E0FEA3E0FF900B5CC1
:1080F000E0F8A3E0F9A3E0FAA3E0FBC312464D7059
:1081000002E1D0900B6EE0FCA3E0FDA3E0FEA3E053
:10811000FF900B6A1246F3900B6EE0FCA3E0FDA308
:10812000E0FEA3E0FF900B5C1246F3900B67E004C7
:10813000F0E1D0900A97E0900B68F0900A80E09010
:108140000B69F0E0FC1243C2E4FBFA79C8784212F2
:10815000431B900A421246F3900A42E0F8A3E0F96A
:10816000A3E0FAA3E0FBC000C001C002C003900B73
:1081700068E0FC1243C2D003D002D001D00012410B
:1081800021900A421246F3900B6AE0FCA3E0FDA3A3
:10819000E0FEA3E0FFE41243B87B007A2479747810
:1081A0004912431B900A3E1246F3900A42E0FCA398
:1081B000E0FDA3E0FEA3E0FF900A3EE0F8A3E0F9B3
:1081C000A3E0FAA3E0FB124212E4FBFA798078C044
:1081D000124212900A3E1246F3900A3EE0FCA3E0DF
:1081E000FDA3E0FEA3E0FF1243F6900A4A1246F315
:1081F000E4FFFEFDFC900A4AE0F8A3E0F9A3E0FAF0
:10820000A3E0FBC31246375051E47B04FAF9F8901F
:108210000A4AE0FCA3E0FDA3E0FEA3E0FF124BC787
:10822000AC00AD01AE02AF03E4FBFAF9F8C31246AD
:1082300037700241C5900A4AE0FCA3E0FDA3E0FECE
:10824000A3E0FFE40BF8EF2BFFEA3EFEE93DFDE87B
:108250003CFC900A4A1246F380AFE4FFFEFDFC901E
:108260000A4AE0F8A3E0F9A3E0FAA3E0FBD3124640
:10827000374052E47B04FAF9F8900A4AE0FCA3E0A4
:10828000FDA3E0FEA3E0FF124BC7AC00AD01AE02C0
:10829000AF03E4FBFAF9F8C31246376028900A4AA4
:1082A000E0FCA3E0FDA3E0FEA3E0FF74FFEF24FFEA
:1082B000FFEE34FFFEED34FFFDEC34FFFC900A4A84
:1082C0001246F380AE900B6AE0FCA3E0FDA3E0FE53
:1082D000A3E0FFE47B04FAF9F81244FF900B6A1262
:1082E00046F3900B6AE0F8A3E0F9A3E0FAA3E0FB01
:1082F000900A4AE0FCA3E0FDA3E0FEA3E0FFEB2F21
:10830000FFEA3EFEE93DFDE83CFC900B6A1246F3B5
:10831000E4900B64F0900A4EF07F06FEFDFC900B9B
:1083200060E0F8A3E0F9A3E0FAA3E0FBC312464D36
:10833000500261F2E4FFFEFDFC900B6AE0F8A3E05E
:10834000F9A3E0FAA3E0FBD312464D500261F2908C
:108350000B60E0F8A3E0F9A3E0FAA3E0FB7F007E66
:10836000E97DA47C3512458A900B6AE0F8A3E0F918
:10837000A3E0FAA3E0FBD312464D5076900B6AE0DF
:10838000FCA3E0FDA3E0FEA3E0FF900B60E0F8A3F8
:10839000E0F9A3E0FAA3E0FB1244FF900B4712467A
:1083A000F37F007E467DC37C23900B47E0F8A3E07B
:1083B000F9A3E0FAA3E0FBC312464D4035900A3A18
:1083C000E0F8A3E0F9A3E0FAA3E0FB900B47E0FCA0
:1083D000A3E0FDA3E0FEA3E0FF12458A900B4FEF60
:1083E000F0C3940F400CE0D3945A5006900A4E7498
:1083F00001F0900A4EE06020900B60E0FCA3E0FDED
:10840000A3E0FEA3E0FF900B581246F3900B6474B8
:1084100001F0900AA2F0A1F4900B6AE0F8A3E0F951
:10842000A3E0FAA3E0FB7F807E177DB47C2C12458D
:108430008A900B581246F3E47F06FEFDFC900B5821
:10844000E0F8A3E0F9A3E0FAA3E0FBC312464D5025
:108450000CE47F06FEFDFC900B581246F3E47F0807
:108460007E07FDFC900B58E0F8A3E0F9A3E0FAA327
:10847000E0FBD312464D400DE47F087E07FDFC90E3
:108480000B581246F3900B58E0FCA3E0FDA3E0FE6E
:10849000A3E05401FFE4FEFDFCEF6026900B58E0E2
:1084A000FCA3E0FDA3E0FEA3E0FF74FFEF24FFFFC9
:1084B000EE34FFFEED34FFFDEC34FFFC900B581260
:1084C00046F3E47F06FEFDFC900B58E0F8A3E0F9CC
:1084D000A3E0FAA3E0FBC312464D500CE47F06FE76
:1084E000FDFC900B581246F3900B6AE0FCA3E0FDF4
:1084F000A3E0FEA3E0FF900B58E0F8A3E0F9A3E0AF
:10850000FAA3E0FB1244FF900B471246F37F007E74
:10851000E97DA47C35900B47E0F8A3E0F9A3E0FAED
:10852000A3E0FBD312464D501B7F007E467DC37CEB
:1085300023900B47E0F8A3E0A3E0A3E0C312464D6D
:108540004002A1EB900B6AE0F8A3E0F9A3E0FAA3E4
:10855000E0FB7F007EE97DA47C3512458A900B58B4
:108560001246F3900B58E0FCA3E0FDA3E0FEA3E06D
:108570005401FFE4FEFDFCEF6026900B58E0FCA3E5
:10858000E0FDA3E0FEA3E0FF74FFEF24FFFFEE3465
:10859000FFFEED34FFFDEC34FFFC900B581246F368
:1085A000E47F06FEFDFC900B58E0F8A3E0F9A3E0A1
:1085B000FAA3E0FBC312464D500CE47F06FEFDFC1F
:1085C000900B581246F3900B6AE0FCA3E0FDA3E089
:1085D000FEA3E0FF900B58E0F8A3E0F9A3E0FAA3B4
:1085E000E0FB1244FF900B471246F3E4900B64F05B
:1085F000900AA2F0900A3AE0F8A3E0F9A3E0FAA307
:10860000E0FB900B47E0FCA3E0FDA3E0FEA3E0FF4E
:1086100012458A900B4FEFF0900A3AE0F8A3E0F988
:10862000A3E0FAA3E0FB900B47E0FCA3E0FDA3E08E
:10863000FEA3E0FF12458AAC00AD01AE02AF03908D
:108640000B4B1246F3900B4BE0FCA3E0FDA3E0FEC6
:10865000A3E0FFE41243B8900A461246F3900A469C
:10866000E0FCA3E0FDA3E0FEA3E0FF7BF07AFF794E
:108670007F7849124212900A461246F3900A46E069
:10868000FCA3E0FDA3E0FEA3E0FFC004C005C0061C
:10869000C007900A3AE0FCA3E0FDA3E0FEA3E0FFE0
:1086A000E41243B8A804A905AA06AB07D007D00670
:1086B000D005D00412431B900A461246F3900A4696
:1086C000E0FCA3E0FDA3E0FEA3E0FF1243F6900B65
:1086D000501246F37FFF7EFF7D0F7C00900B5412FB
:1086E00046F3E4900B66F0A3E004F0E1D0900B6455
:1086F000E07011A3E0700D7D807F10127860900B08
:10870000657401F0900B50E0FCA3E0FDA3E0FEA334
:10871000E0FF900A511246F3900B54E0FCA3E0FDF9
:10872000A3E0FEA3E0FF900A551246F3900B4FE042
:10873000FD7F1A127558EF6002E1D0900B67E004DC
:10874000F0E1D0900B64E06008900B67E004F080EB
:108750007F900B58E0FCA3E0FDA3E0FEA3E0FF90B8
:108760000A501246F3E4900A54F07F2A127975EF0A
:10877000705E900B67E004F08056900AA2E07015DE
:108780007DA07FB1127860900AA27401F0900B6610
:108790007406F08005E4900B66F0900B58E0FCA3A3
:1087A000E0FDA3E0FEA3E0FF900B601246F3900B08
:1087B000677405F0801A900B66E0600414F0801076
:1087C0007D4F7F10127860E4900B65F0900B67F09E
:1087D000900B67E0FF22900A331246F3900A377439
:1087E00001F0E4FFFEFDFC900A70E0F8A3E0F9A3BD
:1087F000E0FAA3E0FBC312464D7017900A33E0FC89
:10880000A3E0FDA3E0FEA3E0FF900A701246F37F11
:108810000022900A70E0FCA3E0FDA3E0FEA3E0FFCD
:10882000FBAA06A905A804900A33E0FCA3E0FDA377
:10883000E0FEA3E0C39BFFEE9AFEED99FDEC98FCF1
:10884000124D71900A381246F37F807E847D1E7C23
:1088500000900A38E0F8A3E0F9A3E0FAA3E0FBC334
:1088600012464D4007E4900A37F08079E47BE87ABD
:1088700003F9F8900A33E0FCA3E0FDA3E0FEA3E0D7
:10888000FF12458AE47B107A27F9F81244FFE47B53
:10889000E87A03F9F812458A900A3C1246F3900AE6
:1088A0003CE0A3E0A3E0FEA3E0C394F4EE94015007
:1088B0000DE47FF47E01FDFC900A3C1246F3900A21
:1088C0003CE0FCA3E0FDA3E0FEA3E0FF900A38E05B
:1088D000F8A3E0F9A3E0FAA3E0FBD312464D40056C
:1088E000E4900A37F0900A33E0FCA3E0FDA3E0FE39
:1088F000A3E0FF900A701246F3900A37E0FF22903F
:108900000A74E0147002412C147002418524026044
:108910000261ED900AAEE0FCA3E0FDA3E0FEA3E05F
:10892000FF900A75E0F8A3E0F9A3E0FAA3E0FBC327
:1089300012464D70024125124CC4AB07900AAEE0BE
:10894000FCA3E0FDA3E0FEA3E0FF900A751246F34E
:10895000AF03124CAC900C4EE014603904704D9093
:108960000A75E0FCA3E0FDA3E0FEA3E0FF12749112
:10897000900A2F1246F3900A2FE0FCA3E0FDA3E03B
:10898000FEA3E0FFE47B04FAF9F812458A900A2F6F
:108990001246F38017900A75E0FCA3E0FDA3E0FE09
:1089A000A3E0FF1267E5900A2F1246F3E47F64FE0E
:1089B000FDFC900A2FE0F8A3E0F9A3E0FAA3E0FBA6
:1089C000D312464D405F900A2FE0FCA3E0FDA3E0E8
:1089D000FEA3E0FF900A99E0F8A3E0F9A3E0FAA370
:1089E000E0FB12464D603E900A2FE0FCA3E0FDA3A1
:1089F000E0FEA3E0FF900A991246F3900A99E0FC8A
:108A0000A3E0FDA3E0FEA3E0FF900C6A1246F39002
:108A10000A99E0FCA3E0FDA3E0FEA3E0FF1287D6E5
:108A2000900AA2EFF0900A74E004F022900AD0E0DD
:108A3000FF900A7DE06F6047900AD0E01460161442
:108A4000601F1460282403702E900A817401F0A323
:108A50007490F08022900A817402F0A37458F08020
:108A600016900A817403F0A37420F0800A900A81A2
:108A70007403F0A374E8F0900AD0E0900A7DF090BF
:108A80000A74E004F0900A99E0FCA3E0FDA3E0FE84
:108A9000A3E0FF900A79E0F8A3E0F9A3E0FAA3E0ED
:108AA000FBC312464D700261E8900A99E0FCA3E016
:108AB000FDA3E0FEA3E0FF900AC81246F3900A036C
:108AC000E024BD7002618E24F77002615124F760CA
:108AD000432414600261D4900AC8E0FCA3E0FDA323
:108AE000E0FEA3E02454FFEE342EFEE43DFDE43C22
:108AF000FCC007900AC7E0FFFB3395E0FAF9F8D015
:108B000007C3EF9BFFEE9AFEED99FDEC98FCA312D4
:108B100046F361D4900AC8E0FCA3E0FDA3E0FEA305
:108B2000E024E0FFEE342EFEE43DFDE43CFCC00713
:108B3000900AC7E0FFFB3395E0FAF9F8D007C3EFDE
:108B40009BFFEE9AFEED99FDEC98FCA31246F361B3
:108B5000D4900AC8E0FCA3E0FDA3E0FEA3E024E07B
:108B6000FFEE342EFEE43DFDE43CFCC007900AC756
:108B7000E0FFFB3395E0FAF9F8D007C3EF9BFFEE77
:108B80009AFEED99FDEC98FCA31246F38046900AFC
:108B9000C8E0FCA3E0FDA3E0FEA3E024E0FFEE3488
:108BA0002EFEE43DFDE43CFCC006C007900A81E0D7
:108BB000FEA3E0FFFBAA06EA3395E0F9F8D007D060
:108BC00006C3EF9BFFEE9AFEED99FDEC98FC900A30
:108BD000AA1246F3900A99E0FCA3E0FDA3E0FEA3ED
:108BE000E0FF900A791246F3E4900A74F022E490D0
:108BF0000A36F0A3F09175E47F64FEFDFC125B374A
:108C00007B007A808B828A83E0900A97F08B828A3D
:108C100083A3E0900A80F08B828A83A3A3A3E090D1
:108C20000A36F0EB2404F582E43AF583E0900A3743
:108C3000F0900A36E0B40112900A97E0FF3395E015
:108C4000FE7CFF7DFF1244A2EFF0900A37E0B401F2
:108C500012900A80E0FF3395E0FE7CFF7DFF124416
:108C6000A2EFF0AE02AF038F828E83A3A3E0900C3D
:108C7000E9F0E4F02291A7124CC49043A0E044082C
:108C8000F09043B0E04408F090470174C8F090437E
:108C9000ACE04410F09043BCE04410F0904700E09A
:108CA000542060F8024CAC91BD900A38EFF0700788
:108CB000B109900A38EFF0900A38E0FF22B166B1AE
:108CC000A5EF7039F1AF900A39EFF06407702A9080
:108CD0004722E0540270087F01FE124C4080F09061
:108CE0004722E054026009E0FF1313543FFF800263
:108CF0007FFFEF7004900A39F0B15B8006900A396B
:108D00007404F0900A39E0FF22B166900A3974FFCA
:108D1000F0B1A5EF70397F01D179EF6407702C7B3A
:108D2000017A0C79DE7D0212CC7EEFB40215E4905C
:108D30000A39F0904722E0540270107F01FE124C75
:108D40004080F0904722E0540260D4B15B800690EE
:108D50000A397404F0900A39E0FF22124CC4E490FE
:108D60000CFEF0024CAC124CC49043A0E04408F05E
:108D70009043B0E04408F0024CAC900A3074FFF02D
:108D8000B166B1A5EF70127F01D179EFB4070690FB
:108D90000A307407F0B15B8006900A307404F090DA
:108DA0000A30E0FF22900A3E7404F0124CC4900C8A
:108DB000FEE0700704F0E4900A3EF0124CAC900A1A
:108DC0003EE0FF22900A39EBF0A3EAF0A3E9F0A31A
:108DD000EDF0B166900A3CE0C394804002C16DB1F1
:108DE000A5EF6002C165900A3D74FFF0900A39E07A
:108DF000FBA3E0FAA3E0F9900A42E4F0A37410F0B8
:108E00007F4012CCDEEF64077069904722E0540285
:108E100060F8904722E054026009E0FF1313543FCA
:108E2000FF80027FFFEF7004900A3DF0900A3DE062
:108E3000702B900A3CE0FD7C00900CDEE0FBA3E090
:108E4000900A42F07F4012CD51EFB40708900A3DDE
:108E50007407F0801E900A3D74FFF08016900A3D62
:108E600074FFF0800E900A3D7404F08006900A3D75
:108E70007401F0900A3DE0FF227E07904722E05403
:108E800002601F90472074B6F074E1F0740EF09009
:108E90004722E054027007904720EFF080067E09D9
:108EA00080027E04AF0622B166904722E054026041
:108EB00023E054026009E0FF1313543FFF80027F58
:108EC000FFEF7006900A39F08006900A3974FFF0BF
:108ED000B15B8006900A397407F0900A39E0FF22EE
:108EE000E4900A34F0900A37F0A3F0900A357480C9
:108EF000F0A3E4F0D1A7900A34EFF0E06407700229
:108F0000E1A7900A377405F0900A37E0FFC3941088
:108F1000501474892FF582E4340CF583E4F0900A40
:108F200037E004F080E2900A97E0C36480948050B8
:108F30001AE0FF3395E0FE7CFF7DFF1244A2900C07
:108F400089EFF0900C8C7401F0800D900A97E090FE
:108F50000C89F0E4900C8CF0900A80E0C36480945B
:108F600080501AE0FF3395E0FE7CFF7DFF1244A2A3
:108F7000900C8AEFF0900C8D7401F0800D900A80B7
:108F8000E0900C8AF0E4900C8DF0900CE9E0900CED
:108F90008BF07B017A0C7989E4FDB1C4E49009FF80
:108FA000F09009A67402F0900A34E0FF7E00227F60
:108FB00007904722E05402600E90472074B6F07488
:108FC000E0F0740DF080027F0422E4900A31F0A3F7
:108FD000F0A3F0900A2F7480F0A3E4F0900A97E0D9
:108FE000900A32F0900A80E0900A33F09009FFE096
:108FF000B40323900ABEE0900A32F0900AA1E090F8
:109000000A33F0900A32E0900A97F0900A33E09029
:109010000A80F0128EE022900A99E0FCA3E0FDA302
:10902000E0FEA3E0FF900CE0E0F8A3E0F9A3E0FA93
:10903000A3E0FBC312464D7002A17B900A99E0FCAD
:10904000A3E0FDA3E0FEA3E0FF900CE01246F37F57
:10905000C07E3B7D477C03900CE0E0F8A3E0F9A3E1
:10906000E0FAA3E0FBD312464D4008900CA2740C2A
:10907000F041047FC07E057DD97C01900CE0E0F8D2
:10908000A3E0F9A3E0FAA3E0FBD312464D40089019
:109090000CA2740BF041047F807EBA7D8C7C019021
:1090A0000CE0E0F8A3E0F9A3E0FAA3E0FBD312465A
:1090B0004D4008900CA2740AF041047F807EB17D7F
:1090C0004F7C01900CE0E0F8A3E0F9A3E0FAA3E004
:1090D000FBD312464D4008900CA27409F041047F66
:1090E000C07EEA7D217C01900CE0E0F8A3E0F9A3CA
:1090F000E0FAA3E0FBD312464D4008900CA274089E
:10910000F041047F007E247DF47C00900CE0E0F8C8
:10911000A3E0F9A3E0FAA3E0FBD312464D40089088
:109120000CA27407F041047F007E1B7DB77C009089
:109130000CE0E0F8A3E0F9A3E0FAA3E0FBD31246C9
:109140004D4008900CA27406F041047F407E547D8F
:10915000897C00900CE0E0F8A3E0F9A3E0FAA3E03A
:10916000FBD312464D4008900CA27405F041047FD9
:10917000807E8D7D5B7C00900CE0E0F8A3E0F9A39D
:10918000E0FAA3E0FBD312464D4008900CA2740411
:10919000F080717F407E4B7D4C7C00900CE0E0F8CD
:1091A000A3E0F9A3E0FAA3E0FBD312464D400890F8
:1091B0000CA27403F0804D7FC07EC67D2D7C009094
:1091C0000CE0E0F8A3E0F9A3E0FAA3E0FBD3124639
:1091D0004D4008900CA27402F080297F607EE37DF0
:1091E000167C00900CE0E0F8A3E0F9A3E0FAA3E01D
:1091F000FBD312464D4008900CA27401F08005E4A8
:10920000900CA2F07F007E367D6E7C01900CE0E039
:10921000F8A3E0F9A3E0FAA3E0FBD312464D400720
:10922000E4FF125FE441B87FC07EE17DE47C009002
:109230000CE0E0F8A3E0F9A3E0FAA3E0FBD31246C8
:109240004D40077F01125FE4806E7F407E547D8930
:109250007C00900CE0E0F8A3E0F9A3E0FAA3E0FBC7
:10926000D312464D40077F02125FE4804B7FC07EE1
:10927000307D467C00900CE0E0F8A3E0F9A3E0FA32
:10928000A3E0FBD312464D40077F03125FE4802822
:109290007F807EB97D2A7C00900CE0E0F8A3E0F9A5
:1092A000A3E0FAA3E0FBD312464D40077F04125F10
:1092B000E480057F05125FE4900CEC7401F07F20E0
:1092C0007E297D1B7C00900CE0E0F8A3E0F9A3E090
:1092D000FAA3E0FBC312464D40247F907EAB7D1E77
:1092E0007C00900CE0E0F8A3E0A3E0A3E0D31246FA
:1092F0004D500BE49009F8F0900CECF0A14E7FC0BB
:109300007E197D357C00900CE0E0F8A3E0F9A3E045
:10931000FAA3E0FBC312464D40267F107E307D3D10
:109320007C00900CE0E0F8A3E0A3E0A3E0D31246B9
:109330004D500D9009F87401F0E4900CECF0A14E42
:109340007F247E087D517C00900CE0E0F8A3E0F9DA
:10935000A3E0FAA3E0FBC312464D40267F7C7E9A31
:109360007D527C00900CE0E0F8A3E0A3E0A3E0D302
:1093700012464D500D9009F87402F0E4900CECF098
:10938000A14E7FA07E817D6A7C00900CE0E0F8A376
:10939000E0F9A3E0FAA3E0FBC312464D40267FB0FC
:1093A0007E8A7D6F7C00900CE0E0F8A3E0A3E0A350
:1093B000E0D312464D500D9009F87403F0E4900C80
:1093C000ECF0A14E7F007ECF7D997C00900CE0E018
:1093D000F8A3E0F9A3E0FAA3E0FBC312464D402650
:1093E0007F807E077D9B7C00900CE0E0F8A3E0A3EB
:1093F000E0A3E0D312464D500D9009F87404F0E458
:10940000900CECF0A14E7F007E647D137C01900CEB
:10941000E0E0F8A3E0F9A3E0FAA3E0FBC312464DB5
:1094200040267F907E407D157C01900CE0E0F8A303
:10943000E0A3E0A3E0D312464D500D9009F8740666
:10944000F0E4900CECF0A14E7F607E517DD57C0065
:10945000900CE0E0F8A3E0F9A3E0FAA3E0FBC3126C
:10946000464D40267FC07E1D7DDB7C00900CE0E0F9
:10947000F8A3E0A3E0A3E0D312464D500D9009F805
:109480007405F0E4900CECF0A14E7F207E217D402D
:109490007C01900CE0E0F8A3E0F9A3E0FAA3E0FB84
:1094A000C312464D40267F207E747D477C01900C80
:1094B000E0E0F8A3E0A3E0A3E0D312464D500D9006
:1094C00009F87407F0E4900CECF0A14E7F707E7CFC
:1094D0007D7B7C01900CE0E0F8A3E0F9A3E0FAA327
:1094E000E0FBC312464D40267F407E787D7D7C01A7
:1094F000900CE0E0F8A3E0A3E0A3E0D312464D50C7
:109500000D9009F87408F0E4900CECF080407FE0D6
:109510007EF07DAA7C01900CE0E0F8A3E0F9A3E0E6
:10952000FAA3E0FBC312464D40247FB07E567DC5B2
:109530007C01900CE0E0F8A3E0A3E0A3E0D31246A6
:109540004D500B9009F87409F0E4900CECF07FE0BA
:109550007EF07DAA7C01900CE0E0F8A3E0F9A3E0A6
:10956000FAA3E0FBC312464D4011900A02E0600BE3
:109570009009F87409F0E4900CECF07F002290FF61
:10958000FC1247311246F390FFF61247317B0190EF
:109590000006124755A982AA83850883850982EBB4
:1095A000F0A3EAF0A3E9F07B0190000A124755A965
:1095B00082AA83900003124755EBF0A3EAF0A3E9D7
:1095C000F0900003124755E0FBA3E0FAA3E0240368
:1095D000F9E43AFA124477FF850883850982E0FBB3
:1095E000A3E0FAA3E0F9EF1244909000031247556C
:1095F000E0FBA3E0FAA3E02402F9E43AFA1244778C
:10960000FF850883850982E0FBA3E0FAA3E024013B
:10961000F9E43AFAEF124490900003124755E0FB48
:10962000A3E0FAA3E02401F9E43AFA124477FF85B3
:109630000883850982E0FBA3E0FAA3E02402F9E4B1
:109640003AFAEF124490900003124755E0FBA3E072
:10965000FAA3E0F9124477FF850883850982E0FBCD
:10966000A3E0FAA3E02403F9E43AFAEF124490905D
:109670000006124755E0FCA3E0FDA3E0FEA3E0FFD7
:1096800090000E024731E4FF900CEDE0600374108F
:10969000FF90099CE0FE30E004EF4420FFEE30E153
:1096A00004EF4402FF22E4900A0DF0906000E09085
:1096B0000A0EF0906001E0900A0FF0900A0EE0545C
:1096C00080648060030299D8A3E012470B970100E1
:1096D000972D02990306984B20992333976C3A975C
:1096E000923C97C53D97F03F981050982451994A65
:1096F00094999295988AA498A9A598CCBF000099AE
:10970000D8900C4A74E7F0A37406F090091874011D
:10971000F0A3740CF0A3744AF0900916E4F0A3745B
:1097200002F0129D5D900A0DEFF00299D8D186905B
:109730000C4AEFF0E0FCA3E0FDA3E0FEA3E0FFEEA7
:10974000EDEC4408FC900C4A1246F39009187401A1
:10975000F0A3740CF0A3744AF0900916E4F0A3048B
:10976000F0129D5D900A0DEFF00299D87A0A79AE59
:109770009009187401F0A3740AF0A374AEF0900974
:1097800016E4F0A37404F0129D5D900A0DEFF00250
:1097900099D87F707E3D7D0A7C071267E5900C4A60
:1097A0001246F39009187401F0A3740CF0A3744AE4
:1097B000F0900916E4F0A37404F0129D5D900A0D78
:1097C000EFF00299D87A0A79B29009187401F0A3DF
:1097D000740AF0A374B2F0900916E4F0A37404F0D4
:1097E000129D5D900A0DEFF0E4900C4EF00299D8B6
:1097F0009009187401F0A3740AF0A374B8F09009EA
:1098000016E4F0A37406F0B15D900A0DEFF021D8D4
:10981000906002E030E008900CED7401F08005E407
:10982000900CEDF0129686900C4AEFF090091874A7
:1098300001F0A3740CF0A3744AF0900916E4F0A3AD
:1098400004F0B15D900A0DEFF021D8906003E06460
:1098500087600221D87B027A607904124D3DEF6463
:10986000014E600221D8900C4AF07B019009180447
:10987000F0A3740CF0A3744AF0900916E4F0A3046A
:10988000F0B15D900A0DEFF021D89009187401F045
:10989000A37409F0A3749CF0900916E4F0A304F0FB
:1098A000B15D900A0DEFF021D87A0979A2900918DC
:1098B0007401F0A37409F0A374A2F0900916E4F007
:1098C000A304F0B15D900A0DEFF021D8900C85E073
:1098D000FCA3E0FDA3E0FEA3E0FF12957E900C54F4
:1098E0001246F39009187401F0A3740CF0A3745499
:1098F000F0900916E4F0A37404F0B15D900A0DEF46
:10990000F021D89009187401F0A3740AF0A3741020
:10991000F0900916E4F0A37404F0B15D900A0DEF25
:10992000F021D8900A97E0900C45F0900918740146
:10993000F0A3740CF0A37445F0900916E4F0A304AE
:10994000F0B15D900A0DEFF021D8900A97E0FF3357
:1099500095E0FEFDFC900C461246F3900C46E0FCB0
:10996000A3E0FDA3E0FEA3E0FF12957E900C501251
:1099700046F39009187401F0A3740CF0A37450F02E
:10998000900916E4F0A37402F0B15D900A0DEFF0B7
:109990008046900A80E0FF3395E0FEFDFC900C4687
:1099A0001246F3900C46E0FCA3E0FDA3E0FEA3E02A
:1099B000FF12957E900C501246F39009187401F036
:1099C000A3740CF0A37450F0900916E4F0A3740291
:1099D000F0B15D900A0DEFF0900A0EE05480600245
:1099E000A120A3E012470B9A2D309A4D329A713381
:1099F0009AE7359AAC3A9B86709C06719BA5729C3F
:109A000025739C44759C63769C82779BC47A9CA149
:109A10007B9CDF7D9CC07F9BE3909CFE9C9B0AA06F
:109A20009B29A99B48F39B67F700009D209009188C
:109A30007401F0A3740AF0A3748DF0900916E4F099
:109A4000A37406F0B126900A0DEFF0A1207A0A79EE
:109A5000AE9009187401F0A3740AF0A374AEF090EC
:109A60000916E4F0A37404F0B126900A0DEFF0A1FA
:109A7000207A0A79BE9009187401F0A3740AF0A341
:109A800074BEF0900916E4F0A304F0B126900A0D1C
:109A9000EFF0900ABEE0FF3395E0FEFDFC900C4134
:109AA0001246F39009FFE04401F0A1207A0A79A15F
:109AB0009009187401F0A3740AF0A374A1F090093E
:109AC00016E4F0A304F0B126900A0DEFF0900AA17D
:109AD000E0FF3395E0FEFDFC900C3D1246F390094B
:109AE000FFE04402F0A1207A0A79C79009187401B6
:109AF000F0A3740AF0A374C7F0900916E4F0A3046D
:109B0000F0B126900A0DEFF0A1209009187401F031
:109B1000A3740CF0A3744EF0900916E4F0A304F0C3
:109B2000B126900A0DEFF0A1209009187401F0A35E
:109B3000740AF0A37402F0900916E4F0A304F0B1E3
:109B400026900A0DEFF0A1209009187401F0A3747B
:109B500009F0A374FBF0900916E4F0A304F0B12619
:109B6000900A0DEFF0A1209009187401F0A3740978
:109B7000F0A374F9F0900916E4F0A304F0B1269074
:109B80000A0DEFF0A1209009187401F0A3740AF0F7
:109B9000A37403F0900916E4F0A304F0B126900A30
:109BA0000DEFF0A1209009187401F0A37409F0A33F
:109BB000749FF0900916E4F0A304F0B126900A0D0A
:109BC000EFF0A1209009187401F0A37409F0A374B8
:109BD000A7F0900916E4F0A304F0B126900A0DEF67
