:10410000024A6A008F828E83E0540100000070F83A
:104110002278FFE4F6D8FD024AF8024462E864809F
:10412000F8E933E83360110460F0ED33EC337009E3
:10413000E8FCE9FDEAFEEBFF220460DED3EB9FEA38
:104140009EE99DE8C2E78CF0C2F795F0400CE8CC00
:10415000F8E9CDF9EACEFAEBCFFB12442D85D0F089
:104160005804700320D5B3E80470075002B2D5029A
:10417000446C92D5EC0460F7E4CCC0E0C398F860DE
:104180003B94186008400DD0E0FB024444E4FBFA85
:10419000C9FC8028E830E406E4C9FBE4CAFCE83046
:1041A000E305E4C9CACBFCE854076010F8C3E9137F
:1041B000F9EA13FAEB13FBEC13FCD8F130F52FC33B
:1041C000E49CFCEF9BFFEE9AFEED99FDD0E0FBEF47
:1041D0004E4D4C701222DB03024469EC2CFCEF3391
:1041E000FFEE33FEED33FDED30E7EB024444EF2B01
:1041F000FFEE3AFEED39FDD0E0FB50130BBB0003A0
:1042000002446CED13FDEE13FEEF13FFEC13FC0202
:104210004444EC4D6011E8497017ED33EC33046011
:104220000DE4FCFFFEFD22E933E8330470F802449C
:104230006212442D58046009E4CC248150062850B1
:104240000902446C284003024469C0E0EB4A704410
:10425000B98006D0E0FB024458EF4E701CBD8008C8
:10426000EBFFEAFEE9FD80EBE98DF0A4FEE5F0024C
:1042700042FBE9CDF9EAFEEBFFEF89F0A4FCE5F0A3
:10428000CE89F0A42EFFE435F0CD89F0A42DFEE414
:1042900035F08067EF4E7005BD80D780C3EF8BF09F
:1042A000A4ACF0EE8BF0A42CFCE435F0F8EF8AF02F
:1042B000A42CE5F038FCE433CB8DF0A42CFCE5F025
:1042C0003BF8EE8AF0A42CFCE5F038F8E433CF8913
:1042D000F0A42CFCE5F038CF3400CE89F0A42FFFF9
:1042E000E5F03EFEE433C98DF0A42EFEE5F039CDB5
:1042F0008AF0A42FFFE5F03EFEE43DFD33D0E0FB65
:1043000050070BBB000F02446CEC2CFCEF33FFEEAC
:1043100033FEED33FD02444402446CEC5D04600561
:10432000E85904700302446212442D580460F6EC0C
:104330004860F2EC7004FDFEFF22C860DB2481C8F7
:104340005009C398600250060244699850CAF58229
:10435000E9294B4A7005AB8202445875F0007C1A7B
:104360007880C3EF9BEE9AED99400DC3EF9BFFEE73
:104370009AFEED99FDE842F0DC23ACF0D0E0FFD0EE
:10438000E0FED0E0FDAB8220E7101BEB60BAEC2C26
:10439000FCEF33FFEE33FEED33FD024444E803F857
:1043A00030E705C0F075F000EF2FFFEE33FEED3380
:1043B000FD40B830E7C280AA75F020800E75F0107D
:1043C000800575F0087D007E007F003392D530D5E2
:1043D00003124629EC334010EF33FFEE33FEED338A
:1043E000FDEC33FCD5F0ED22E5F0247EA2D513CC14
:1043F00092E7CDCEFF22EDD2E7CD33EC3392D52438
:10440000814006E4FFFEFDFC22FCE4CFCECDCC24AF
:10441000E0501174FF80EDC3CC13CCCD13CDCE137F
:10442000CECF13CF0470F030D5DE024629E9D2E7B3
:10443000C933E833F892D5EDD2E7CD33EC33FC50F5
:1044400002B2D522EC30E7100FBF000C0EBE000800
:104450000DBD00040BEB6014A2D5EB13FCED92E74D
:10446000FD2274FFFCFDFEFF22E480F8A2D574FF5C
:1044700013FC7D80E480EFBB010689828A83E02201
:104480005002E722BBFE02E32289828A83E4932260
:10449000BB010689828A83F0225002F722BBFE010B
:1044A000F322EF8DF0A4A8F0CF8CF0A428CE8DF0ED
:1044B000A42EFE22C5F0F8A3E028F0C5F0F8E582AE
:1044C000158270021583E038F022A3F8E0C5F025CC
:1044D000F0F0E582158270021583E0C838F0E8221A
:1044E000BB010A89828A83F0E5F0A3F0225006F727
:1044F00009A7F01922BBFE06F3E5F009F31922E83B
:104500008FF0A4CC8BF0A42CFCE98EF0A42CFC8AB8
:10451000F0EDA42CFCEA8EF0A4CDA8F08BF0A42D35
:10452000CC3825F0FDE98FF0A42CCD35F0FCEB8ED6
:10453000F0A4FEA9F0EB8FF0A4CFC5F02ECD39FE8C
:10454000E43CFCEAA42DCE35F0FDE43CFC2275F001
:1045500008758200EF2FFFEE33FECD33CDCC33CC88
:10456000C58233C5829BED9AEC99E58298400CF5A3
:1045700082EE9BFEED9AFDEC99FC0FD5F0D6E4CED1
:10458000FBE4CDFAE4CCF9A88222B800C1B9005905
:10459000BA002DEC8BF084CFCECDFCE5F0CBF978D2
:1045A00018EF2FFFEE33FEED33FDEC33FCEB33FB66
:1045B00010D703994004EB99FB0FD8E5E4F9FA22F0
:1045C0007818EF2FFFEE33FEED33FDEC33FCC933EB
:1045D000C910D7059BE99A4007EC9BFCE99AF90FB3
:1045E000D8E0E4C9FAE4CCFB2275F010EF2FFFEE1F
:1045F00033FEED33FDCC33CCC833C810D7079BEC6A
:104600009AE899400AED9BFDEC9AFCE899F80FD5E1
:10461000F0DAE4CDFBE4CCFAE4C8F922CFF4CFCE53
:10462000F4CECDF4CDCCF4CC22C3E49FFFE49EFEC7
:10463000E49DFDE49CFC22EB9FF5F0EA9E42F0E94C
:104640009D42F0EC6480C864809845F022EB9FF5B1
:10465000F0EA9E42F0E99D42F0E89C45F022E860D5
:104660000FECC313FCED13FDEE13FEEF13FFD8F1B7
:1046700022E8600FEFC333FFEE33FEED33FDEC3382
:10468000FCD8F122BB010789828A83024766500564
:10469000E9F802475ABBFE05E9F802477289828AA7
:1046A0008302477EBB010789828A830246BE50058A
:1046B000E9F802478EBBFE05E9F802479A22ECF0C2
:1046C000A3EDF0A3EEF0A3EFF022A42582F582E59E
:1046D000F03583F58322D083D082F8E4937012748E
:1046E0000193700DA3A393F8740193F5828883E47A
:1046F000737402936860EFA3A3A380DFE5092582AA
:10470000F582E5083583F583B50804858209221012
:10471000AF06858209F50822858209F508D2AF2205
:10472000E5092582F582E5083583F58322EC8EF0D4
:10473000A4CCC5F0CCCDF8EFA4CEC5F02DFDE43C63
:10474000FCE8A42EC8C5F03DFDE43CFCEFA4FFE569
:10475000F028FEE43DFDE43CFC22E6FC08E6FD0812
:10476000E6FE08E6FF22E0FCA3E0FDA3E0FEA3E0F6
:10477000FF22E2FC08E2FD08E2FE08E2FF22E493E9
:10478000FC740193FD740293FE740393FF22ECF614
:1047900008EDF608EEF608EFF622ECF208EDF20866
:1047A000EEF208EFF222410A02554109A632410910
:1047B0009C0041099B004109FD01410A0812410981
:1047C0009D004109F9004109A432410A0000410954
:1047D0009E00410A07014209A000004109A30041CF
:1047E00009FC004109FB00440A0300000000410AE3
:1047F00001004109FA024109FE004109A5004109F1
:10480000FF004109F80041099F004109A200410948
:104810009800410CDF00410CDE00410CE300410C2C
:10482000E200410CE10060390BBC4807070707783C
:10483000B5B60755CE865695FD7D3D1D0D0585C542
:10484000E5F5E007078D0730684284A4830124C39F
:10485000040274A344C282E364D443038123146337
:1048600094B4C4440CC100001388410CB200420C43
:10487000A73DF4420CA90000410CAB00420CAC0B6C
:10488000B8420CAE0000420CB00000440B690000BE
:104890000000440B6D00000000410B3800410B4547
:1048A00000440B5B00000000440B5F00000000416F
:1048B0000B6300410B6400410B6500410B66004433
:1048C0000AAD713D0A07440ABE713D0A07410A97C5
:1048D00000440A9C00000000410ABD00410AA0C437
:1048E000440A9800000000440AC2017D7840410A51
:1048F0009600410A7F00420AA2002A420A7D002A4D
:10490000440AC700000000410ACF00410AC6004225
:104910000A800000440A6F00000000410A7300444E
:104920000A7400000000440A7800000000410A7C7C
:1049300000440C4F00000000440C45000000004102
:104940000C4D00410C4E00440C5300000000440C80
:104950003C00000000440C4000000000410C4400FA
:1049600041090300440C8000000000440C7C00005E
:104970000000410C7B00440C8400000000410C72DC
:1049800000420C732710440C77000D4A58410C6FFD
:1049900032410C6D00410C7000410C6E00410C68FE
:1049A00015440C6900000000410C7100410C5700D7
:1049B000410C5800410C5900410C5A00410C5B005D
:1049C000410C5C00410C5D00410C5E00410C61003B
:1049D000410C6200410C6300440C64000000004183
:1049E0000B0F00410B2B0C490AD0000004040000FF
:1049F000000000410CE500410CEA00410CEBFF41D6
:104A00000CECFF410CEDFF410CEEFF410CEFFF41C0
:104A10000CF0FF410CCA80410CC97F440CC500005A
:104A200000FF440C9E023366C4440C990000903C85
:104A3000410C9D25440CA3481E0000410CF100468A
:104A40000CCB008102370300410CF2FF410CF3FF55
:104A5000430CD1000000410CF400420C13018042D1
:104A60000C15FF7F420C1101000075930078007552
:104A700083467582E8E04401F00090480074C0F07D
:104A80007581099076BCE4F0A3F0A3F0A3F09070D8
:104A900010F0907019F0907020F09076007410F083
:104AA000907604E4F0A3F0A3F0A3F09078007800EF
:104AB000087400F0A37408F0E8B8040274FFA3F0CF
:104AC000A37422F0A374BCF0A37476F0A3E4F0A363
:104AD000E81475F008A4F0A3B804D5907010740120
:104AE000F0907014F07E707F18124104907010F0F6
:104AF000EA900CA2F002411175081F7509FD12BA67
:104B00004D12A7EC12B9E0024B45025D8CE493A371
:104B1000F8E493A34003F68001F208DFF48029E46F
:104B200093A3F85407240CC8C333C4540F4420C8BB
:104B3000834004F456800146F6DFE4800B01020452
:104B400008102040809047A6E47E019360BCA3FF3C
:104B5000543F30E509541FFEE493A360010ECF5487
:104B6000C025E060A840B8E493A3FAE493A3F8E476
:104B700093A3C8C582C8CAC583CAF0A3C8C582C8E2
:104B8000CAC583CADFE9DEE780BEC2D5E830E70FD9
:104B9000B2D5E4C39BFBE49AFAE499F9E498F8EC03
:104BA00030E717B2D5124BC012458AE4C39BFBE431
:104BB0009AFAE499F9E498F8800312458A30D50D01
:104BC000E4C39FFFE49EFEE49DFDE49CFC223232A0
:104BD000EEFA900C9DE0F88FF0A4FFAEF0E88AF0BA
:104BE000A42EFEE5F03400FDEF24C9FF78FFEE3877
:104BF000FEED38FDE438FC5003024C00220289042B
:104C0000EC4D4E700D78FCEF24E950032840FD2256
:104C100000007BF178DA0000EF28FF78FFEE38FE25
:104C2000ED38FDEC38FC50E7EF2BFFEE38FEED38A9
:104C3000FDEC38FC40F22205020304758600EF4EBD
:104C40006027EF60010E759300900A29E0F595A3A7
:104C5000E0F585A3E0F5848B938A838982E0A30540
:104C600086F0A31586DFF6DEF4E4F593F59522755C
:104C70008600EF4E601BEF60010E8C838D828B955A
:104C80008A858984E493A30586F0A31586DFF5DE83
:104C9000F3E4F59522EC4D6011ED60010C8B938AE5
:104CA000838982E4F0A3DDFCDCFA75930022EF54E3
:104CB000016004D2AF8002C2AFEF5402FF9044F40F
:104CC000E054FD4FF0229044F4E0F84402F0E85440
:104CD00002FF10AF012274014FFF228B938A838958
:104CE00082EFF0A3EEF0A3EDF0A3ECF075930022B9
:104CF0004520200050202000532020004320200089
:104D00008B938A838982E0FFA3E0FE759300228B58
:104D1000938A838982EDF0A3ECF0759300228B9344
:104D20008A838982E0759300FF228B938A8389822C
:104D3000EDF075930022EC30E70312462922800043
:104D40000000000000000000000000000000000063
:104D50000000000000000000000000000000000053
:104D60000000004000000000000000000000000003
:104D70000000000000000000000000000000000033
:104D80000000000000000000000000000000000023
:104D90000001000000000000000000000000000012
:104DA00000000020000000000000000000000000E3
:104DB00000000000000000000000000000000000F3
:104DC000800000000000000000040000000100005E
:104DD00000000000040400000000000000000000CB
:104DE00000014040400000000000100000000000F2
:104DF0000000000000000000000000000000400073
:104E00000000000000002000000000000000000082
:104E10000000800000008000000000000000000092
:104E200080000000000000001000000000000000F2
:104E30000000000000000000000000000000000072
:104E40000000000000000000000000000000000062
:104E50000000000000000000000000000000004012
:104E60004000000000000000000000000000000002
:104E70000000000000000000000000000000000032
:104E80000000000000000000000000000000000022
:104E900000000000000000000000000000002000F2
:104EA0000000000000000000000000000000000002
:104EB00000000000000000000000000000000100F1
:104EC00001000020000020000000000000000000A1
:104ED00000000180840400000000000000000000C9
:104EE0000001506041000000000000000040000090
:104EF000040000400000000000000000000000006E
:104F00000000000000001000000000000000000091
:104F10000000000000004000000000000000000051
:104F20009000000080000000000000004000000031
:104F30000000000000000000000000000000000071
:104F40000000000000000000000000000000100051
:104F50000000000000000000000000000000000051
:104F60000000000000000000000000000000000041
:104F70000000000000000000000020000000000011
:104F800000000000000000000000000000000040E1
:104F90000000000000000000000000000000000011
:104FA0000000000000000000000000000000000001
:104FB00000000000000000000000000000000000F1
:104FC000200001000000010000000000000000407F
:104FD00000000100804400000000110020000000DB
:104FE00000014160410000000014000000000000CA
:104FF00000000000000000000000000000000000B1
:105000000000100000000000000000002000000070
:105010000000200000000000000000000000000070
:1050200020000000100000000000A00000000000B0
:105030000000000000000000000000000000000070
:10504000000000000000001000000000002A000026
:105050000000000000000000000000000000000050
:105060000000000000000000000000000000000040
:1050700000000000000004000000000000440400E4
:105080000000000000000000000000000000000020
:10509000100001002000000080000000000001203E
:1050A00000000000200000000000000000000000E0
:1050B00000000000000000000000000000000000F0
:1050C000100000001000400000000010000004402C
:1050D00010000000000000000000110000000000AF
:1050E000000000404100000000000000002100001E
:1050F00000000000000000000000000000000000B0
:10510000E00000000000000000000000E0001000CF
:105110000000E0006000C00000000000000080000F
:10512000400000000000000000000000000000003F
:10513000000000000000000000000000000000006F
:10514000000000000000000000000000000000401F
:1051500000000000800004000001000010000000BA
:10516000000000000000000000000000000011002E
:10517000000000004100000000000080000000006E
:1051800000200000000000000000000000000000FF
:10519000000000000000000000000000000000000F
:1051A00000000000000000000000000000000000FF
:1051B00000000000000000000000000000000000EF
:1051C000800000000000000000000000000000005F
:1051D00000000000000000000000000000000000CF
:1051E00000000000000000000000000000000000BF
:1051F00000000000000000000000000000000000AF
:1052000000006000700000000000F00020001000AE
:10521000000000000000000000000000000080000E
:10522000000000000000000000000000000000007E
:10523000000000000000000000000000000001006D
:10524000000000000000010000000000010001005B
:105250000000100001000100000008000000010033
:1052600000000800010001000000010008230252B4
:105270003E760800082303524676100008230452A5
:105280004E76200008230552567628000823065241
:105290005E76300005230752667020000523085211
:1052A00066703000052309526670500005230A52CB
:1052B000667060000523FE526670700015220C0CAB
:1052C000DA49C8004022FE0CDA51300180220E0C6F
:1052D000DA08000180220F0CDA0A00018022100C8B
:1052E000DA0C00018022110CDA0E00010022120CEF
:1052F000DA4400008022130CDA4600008022FE0C03
:10530000DA4D00008023154D3E4800008023164DE5
:10531000BE4880008023174E3E4300008023184E75
:10532000BE4380008023194F3E42000080231A4F65
:10533000BE42800080231B503E41000080231C5051
:10534000BE41800080231D513E4000008023FE515D
:10535000BE40800007231F082852000007232008B2
:105360003052080007232108385210000623220873
:10537000405260000723230848527800082324087D
:10538000504578000C232508604F0000202326108C
:105390006C6470002023FE108C65700008232808C0
:1053A00058510000802329086C00000080232A083F
:1053B000EC00800080232B096C02000080232C0964
:1053C000EC02800080232D0A6C04000080232E0A4A
:1053D000EC04800080232F0B6C0600008023300B30
:1053E000EC0680008023310C6C1400008023320C0A
:1053F000EC1480008023330D6C1600008023340DE4
:10540000EC1680008023350E6C1800008023360EC9
:10541000EC1880008023370F6C1A00008023380FAF
:10542000EC1A800010233910AC50100010233A10F1
:10543000BC50000080233B10CC4D800080233C11E9
:105440004C4C000080233D11CC4C800080233E1248
:105450004C47000080233F12CC478000802340133C
:105460004C46800080234113CC4500008023421429
:105470004C45800080234314CC1B0000802344153E
:105480004C1B800080234515CC1500008023461658
:105490004C15800080234716CC1900008023481744
:1054A0004C19800080234917CC17000080234A182C
:1054B0004C17800080234B18CC09800080234C19A6
:1054C0004C07000080234D19CC07800080234E1A22
:1054D0004C0B800080234F1ACC0500008023501B0A
:1054E0004C0580008023511BCC0D80008023521C72
:1054F0004C0300008023531CCC0380008023541DE8
:105500004C0F80008023551DCC0100008023561EC7
:105510004C0180008023571ECC4900008023FE1FD1
:105520004C4980000100000002000000040000005F
:10553000050000000600001201000200000008C083
:1055400016DC0503000F0E80010902B700040100FC
:10555000C0020904000000FF00000C090401000063
:10556000010100090A2401000134000202030C2495
:1055700002010306000203000000092403020101E6
:105580000001000C240203010100020300000009D5
:1055900024030403060003000904020000010200C2
:1055A0000A09040201010102000A072401020201A2
:1055B000000B240201020210010077010905822D6F
:1055C000800101000007250180010000090403009B
:1055D000000102000B09040301010102000B072472
:1055E00001030101000B24020102021001007701F6
:1055F0000905032D8001010000072501800100003D
:10560000040309040C034100450039005200420024
:105610001A035000650061006200650072007200AC
:10562000790020005300440052002203500065001E
:105630006100620065007200720079002000520073
:105640006500630065006900760065002403500072
:105650006500610062006500720072007900200040
:105660005400720061006E0073006D0069007400E8
:105670001E03500065006100620065007200720048
:105680007900200052006100640069006F00160379
:105690004400470038005300410051002D004900EC
:1056A000320043001A037700770077002E006F0066
:1056B00062006400650076002E00610074001E0325
:1056C0004D0075006C0074007500730020004300ED
:1056D0006F006E00740072006F006C0020034D00BC
:1056E00075006C00740075007300200049005100C3
:1056F000200053006F0075006E00640024034D000D
:1057000075006C00740075007300200049005100A2
:1057100020005200650063006500690076006500A6
:1057200026034D0075006C007400750073002000A6
:105730004900510020005400720061006E007300A7
:105740006D006900740026034D0075006C00740044
:1057500075007300200053004400520020004300F5
:105760006F006E00740072006F006C0020034D002B
:1057700075006C0074007500730020005300440035
:1057800052002C004C004C0043002E00120350002D
:1057900072006F0066006900630069006F002603F5
:1057A0007700770077002E006D0075006C007400A4
:1057B000750073002D007300640072002E006300FA
:1057C0006F006D0000120350004500300046004B92
:1057D000004F002D0030000201822D0180010301E5
:1057E000032D018001FF01010101FF554902FF570F
:1057F000D7000000000000000000000000000000D2
:105800000000FF57E501FF55370000000001FF577A
:10581000E901FF58053031323334353637383941F4
:10582000424344454600E4900A30F0A3F0A3F0A3BD
:10583000F0A3F07F64FEFDFC11E3D2AF9044F4745A
:10584000FDF0F158F13F12BE047E9F7FBE12BE42B2
:1058500012887CE4FFFEFDFC900A361246BE7FC033
:1058600031CD900A2EEFF0700812B6EAF13F12B770
:1058700089F1EC900A2FEFF0900A2EE0700CA3E073
:1058800060087BFF7A4C79F0316A900A2FE060085B
:105890007BFF7A4C79F4316A900A2EE070087BFF26
:1058A0007A4C79F8316A7F02F1D87F807E9F7DD56E
:1058B0007C00900A981246BE900A98E0FCA3E0FD96
:1058C000A3E0FEA3E0FF127863EF70ECE47FDC7EE0
:1058D00005FDFC11E3B186EF54FEFFB119E47F052D
:1058E000FEFDFC90FFFC1246FC1246BE8508838537
:1058F0000982E0A3E0A3E0FEA3E0D39400EE94804D
:10590000403D900CA3E0FCA3E0FDA3E0FEA3E0FF7C
:10591000124C00850883850982C083C082E0FCA305
:10592000E0FDA3E0FEA3E02400FFEE3480FEED34B2
:10593000FFFDEC34FFFCD082D0831246BE80AD90D8
:105940000C99E0FCA3E0FDA3E0FEA3E0FF85088343
:10595000850982E0F8A3E0F9A3E0FAA3E0FB124492
:10596000FF124C009000040246FC900A35EBF0A3B5
:10597000EAF0A3E9F0E4900A39F0A3F0900B0FE00D
:105980006003126136B186EF5401440AFFB11990E9
:105990000A35E0FBA3E0FAA3E0F9127037F100EF5B
:1059A0005408FF900A38E06F60F3EFF0A374FFF53E
:1059B000F01244CA45F070E5900A3904F0A374E08F
:1059C000F07B007A00790012703780D122900A357E
:1059D000EFF0E4900A3AF0FF7ED77DA37C70126767
:1059E000E7900AB11246BE900A35E0FD7FB751A498
:1059F000900A3AEFF07002419CE4FFFEFDFC900A31
:105A000036E0F8A3E0F9A3E0FAA3E0FBC312464DA9
:105A10006014900A36E0FCA3E0FDA3E0FEA3E0FFE3
:105A2000900AC21246BE7D807F1051A4900A3AEFC0
:105A3000F07D807F1151A4900A3AEFF07D807F12B3
:105A400051A4900A3AEFF07D0C7F1051A4900A3ACD
:105A5000EFF07D0C7F1151A4900A3AEFF07D0C7F9E
:105A60001251A4900A3AEFF0E4FDFF1284A3E4FF80
:105A700091FE7F0191FEE4FD7F0112879EE4FD7F90
:105A80000212879EE4FD7F01F106E4FD7F02F1062C
:105A9000E4FD7F01F176E4FD7F02F176900A3AE0C1
:105AA000FF7E0022900A5A7401F0E4A3F0900A5895
:105AB000EFF0A3EDF07B017A0A7958900A60740246
:105AC000F0E4A3F07F6012863E900A5BEFF012854F
:105AD000BAEF30E1F9F1D2EF64026005E4900A5ABE
:105AE000F0900A5AE0FF22900A4EEFF0900B45E04A
:105AF000B40800400281F8905AFEF8282873025B2F
:105B000016025B82025BA7025BED025C1C025C4238
:105B1000025CA6025CD5E47F80FEFDFC900A4FE0AB
:105B2000F8A3E0F9A3E0FAA3E0FB1244FFE42FFF9F
:105B3000EE34FEFEED34FFFDEC34FFFC900B391229
:105B400046BEE4FFFEFDFC900B3D1246BEE47F0125
:105B5000FEFDFC900B411246BE900B41E0FCA3E021
:105B6000FDA3E0FEA3E0E4FFEEE4FDFC78081246AE
:105B70005EAD07900A4EE0FF51A4900B45E004F0A3
:105B800081F8900A4EE004FFC007900B41E0FCA3AF
:105B9000E0FDA3E0FEA3E0FFE4AD07D00751A49031
:105BA0000B45E004F081F8900A4EE02402FFC007A4
:105BB000900B39E0FCA3E0FDA3E0FEA3E0E4FFFED0
:105BC000ED5403FDE4FC781012465EA804A905AA72
:105BD00006AB07900A53E0FFE4EB4FFFEAE9E8ADBC
:105BE00007D00751A4900B45E004F081F8900A4ECD
:105BF000E02403FFC007900B39E0FCA3E0FDA3E025
:105C0000FEA3E0E4FFEEE4FDFC780812465EAD077B
:105C1000D00751A4900B45E004F081F8900A4EE0C3
:105C20002404FFC007900B39E0FCA3E0FDA3E0FED5
:105C3000A3E0FFE4AD07D00751A4900B45E004F0CA
:105C400081F8900A4EE02405FFC007900B3DE0FC70
:105C5000A3E0FDA3E0FEA3E0E4FFFEED540FFDE4AE
:105C6000FC781012465EC004C005C006C007A3E061
:105C7000FCA3E0FDA3E0FEA3E0E4FFFEED540FFD76
:105C8000E4FC780C12465ED003D002D001D000EFC5
:105C90004BFFEE4AED49EC48AD07D00751A4900BFD
:105CA00045E004F08052900A4EE02406FFC00790C1
:105CB0000B3DE0FCA3E0FDA3E0FEA3E0E4FFEEE487
:105CC000FDFC780812465EAD07D00751A4900B4545
:105CD000E004F08023900A4EE02407FFC007900BF9
:105CE0003DE0FCA3E0FDA3E0FEA3E0FFE4AD07D0B0
:105CF0000751A4E4900B45F0900B45E0FF22900A79
:105D00003BEFF070067D207FB141A4900A3BE0B4E8
:105D100001067D807FB151A422906474EFF022903F
:105D20000CE1E024FE602524F8603014604A240B66
:105D30007053900CE3E0604D900CE2E07047900CE3
:105D4000E17402F0B186EF54FDFF80CDB186EF54CF
:105D5000F7FFB119900CE1740AF022900CE3E070A7
:105D600024900CE2E0701EB186EF54FE4408FFB1AF
:105D700019900CE1740BF022B186EF4402FFB119C7
:105D8000E4900CE1F022906474E0FF22E4900A2693
:105D9000F0A3F0A3F0A3F0A3F0A3F0A3F0A3740A80
:105DA000F01126126A5A127179900A02E0FFB44388
:105DB0000C900A27E06F6002EFF012A259F100EF99
:105DC0005408FF900A24F0A3E06F60D7A3E0FF041B
:105DD000F0EFB407004002C1EF905DE0F8282873AF
:105DE000025DF5025E30025E73025E9E025EA302F9
:105DF0005EB0025EC5900A2DE014F070A6124CC68B
:105E0000900A2CEFF0F100900A28EFF0900A2CE0B5
:105E1000FF124CAE900A28E030E4089009A2740109
:105E2000F08005E49009A2F0900A2D740AF0A1A375
:105E3000900A02E0FF64437002A1A3900A27E06F7A
:105E4000602DB186EF54FEFFB119B186EF4402FF19
:105E5000B119B186900A2BEFF04408F04410FFF01E
:105E6000B119E4900CE3F0900A02E0900A27F0B137
:105E70001FA1A3128E1F9009A6E0FF900998E06F62
:105E8000600DEFF0E075F064A4FFAEF012BE289054
:105E90000A07E064016002A1A312A00EA1A312816F
:105EA000B5A1A39009FFE06002A1A3128F92A1A364
:105EB000128C2512BA3BEF7002A1A37BFF7A4C79BA
:105EC000FC316AA1A3900A02E064436016900A982C
:105ED000E0FCA3E0FDA3E0FEA3E0FF1278639009DD
:105EE000FFEFF0F100EF30E202A1A3F1DEA1A31277
:105EF00061A3E4900A26F0900A24E0A3F0A1A32273
:105F0000906460E0FF22900A3CEDF0900A3BEFF0D5
:105F10002410FF7B017A0A793D128533900A3CE018
:105F2000B40107A3E0547FF08007900A3DE04440AD
:105F3000F0900A3BE02410FF900A3DE0FD41A49060
:105F40000CE5E0700912AC6A900CE57401F012B631
:105F5000D69044C17480F022E4900A39F0A3F0FB9B
:105F6000FA7D017F01126F7A12678712B834E47FDD
:105F700001FEFDFC01E3900A3BEFF0A3EDF07B0195
:105F80007A0A793D7F03128533EF7045900A3CE031
:105F9000B4011BA3E0FF900A3BE0FE7401A80608D1
:105FA0008002C333D8FCF45F900A3DF0801A900A57
:105FB0003DE0FF900A3BE0FE7401A806088002C3A2
:105FC00033D8FC4F900A3DF0900A3DE0FD7F03512D
:105FD000A422900CB7E0FF22906576EFF022904665
:105FE000FA7440F09046F6E04401F02212B7B21283
:105FF0006DEF126D4A7DF07F401261FE900A35EF21
:10600000F012B80F12B7D5900CECE0FF1136900CDF
:10601000EBE0FF1136900CEEE0FF1136900CEDE056
:10602000FF1136900CEFE0FF113612B82312B7E9DA
:10603000900A35E0FF227E01EFC39418502875F0D6
:1060400010EFA42410F582E5F03470F583E054FEDF
:10605000F075F010EFA42410F582E5F03470F583AC
:10606000E054DFF0E41EAF0622900A3BEFF0C39449
:10607000095004E0FF80027F01900A3CEFF0900A93
:106080003CE0FF2406F582E4340BF583E0F4602F56
:1060900074222FF582E4340BF583E0FF1136900A69
:1060A0003CE02406F582E4340BF583E0FF11F89020
:1060B0000A3CE02406F582E4340BF58374FFF0908B
:1060C0000A3CE02410F582E4340BF583E0FFF46031
:1060D0001211F8900A3CE02410F582E4340BF583A9
:1060E00074FFF0900A3CE004F0E0C394095008907B
:1060F0000A3BE06409608722900A3DEFF0C3948078
:106100005033124CC6900A3EEFF0900CC9E0FF905D
:106110000A3DE0FE75F008A42400F582E5F034782D
:10612000F583EFF0900CC9EEF0A3E004F0900A3E86
:10613000E0FF124CAE227F091169124CC690600834
:10614000E0547FF0906012E054FBF09043A5E054DF
:10615000FEF09043B5E054FEF09051F8E04480F03A
:10616000E04440F0124CAE9044CA7480F0A3740135
:10617000F09044CA7420F09044C87404F07408F09D
:1061800012C22A9044D97410F0E4900922F09009C8
:1061900030F090091EF0900927F090092FF0900B35
:1061A0000FF022F1C9EF6011900B0FE0701B7D0220
:1061B000FF12A9C7126B278011900B0FE0600AE451
:1061C000900CE3F0125FF53136227DC07F4031FE46
:1061D0007D807F4531FE7DFF7F4131FE7DFF7F4227
:1061E00031FEB175517B12B7FA124CC690659BE037
:1061F0004410F0124CAE906579E04401F022900A10
:1062000036EFF0A3EDF0E4900A3AF0A3F0A3F0909B
:106210000A3AE0FFC39402505FEF14602F0470EF5E
:10622000900A36E0900A38F0900A37E0900A39F088
:106230007B017A0A7938900A607402F0E4A3F07F57
:106240004612863E900A3AE004F080C31285BAEF07
:1062500030E708900A3AE014F0800AEF30E1069047
:106260000A3AE004F0900A3B74FFF5F01244B4459A
:10627000F0709C7F012280977F0022E4900A2EF02C
:10628000900A2EE0FFC3940340026122EF64027083
:106290003FE02407F582E43409F583E0FF90090725
:1062A000E0FBE4900A3DF07D01FC91EE900A2EE0C7
:1062B0002407F582E43409F583E0FF7B017A09794C
:1062C00003E9EAE4AD01AC027B4B7A65D1BE804ABA
:1062D000900A2EE0FE2407F582E43409F583E0FFFE
:1062E00074082EF582E43409F583E0FB900A3D74CE
:1062F00004F07D017C0091EE900A2EE02407F582E7
:10630000E43409F583E0FF7B017A09790BE9EAE4DB
:10631000AD01AC027B4B7A65D1BE900A2EE004F051
:106320004180900CEEE0FFF154900CEEE0FF9009FC
:1063300007E0FDF136E4900A2EF0900A2EE0FFC34C
:1063400094034002815AEF04A3F0C39403402EE467
:10635000F0900A2EE0240FF582E43409F583E0FF83
:10636000900A2FE0240FF582E43409F583E0FB90D6
:106370000A3D7405F07D807C0191EE8029900A2E03
:10638000E0240FF582E43409F583E0FF900A2FE062
:10639000240FF582E43409F583E0FB900A3D740193
:1063A000F07D80FC91EE900A2EE0FB75F080A42435
:1063B00083F582E5F03404F583EB2583F583FEE570
:1063C00082EEE4AD82AC06C005740F2BF582E43496
:1063D00009F583E0FF7B017A09790BE9EAE4AB0177
:1063E000D005D1BE900A2EE02400F582E43400F5F9
:1063F00083E0FF900A2FE02400F582E43400F58367
:10640000E0FB900A3D7402F07D807C0191EE900AE1
:106410002EE0F975F080A42483F582E5F03404F5CC
:1064200083E92583F583FEE582EEE4AB82AA06C00C
:1064300002C003740029F582E43400F583E0FF7B99
:10644000017A097903E9EAE4AD01AC02D003D00294
:10645000D1BE900A2EE004F0613A900CEDE0FFF11D
:1064600054900CEDE0FF90090FE0FDF136900CEF39
:10647000E0FFF154900CEFE0FF900000E0FDF136FA
:10648000900CEFE0FF7D0191A3900CEDE0FF7D010A
:1064900012BA16900CEDE0FF7D0191A3900CEEE096
:1064A000FF7D017E01EFC394185040ED601575F03B
:1064B00010EFA42410F582E5F03470F583E0442059
:1064C000F0801375F010EFA42410F582E5F034701D
:1064D000F583E054DFF075F010EFA42410F582E5A9
:1064E000F03470F583E04401F0E4FEAF0622900A38
:1064F0003AECF0A3EDF0A3EBF0900A39EFF0900A3C
:106500003E7401F0EFC394805065900A3AE054F075
:10651000A3705C900A39E075F008A42400FFE5F050
:106520003478FE900A3FF0A3EFF0AA06F97B0190C1
:106530000A3AE0FCA3E0FD124D11900A3CE0FF9006
:106540000A39E0FE75F008A42402F582E5F03478FB
:10655000F583EFF0900A3DE0FF75F008EEA4240308
:10656000F582E5F03478F583EFF0E4900A3EF090A0
:106570000A3EE0FF22E4900A2EF0900A2EE0FFC3CC
:1065800094035070EFB4021C2404F582E43409F53E
:1065900083E0FF900904E0FBE4900A3DF07D01FCFC
:1065A00091EE8028900A2EE0FE2404F582E434095E
:1065B000F583E0FF74052EF582E43409F583E0FBF2
:1065C000900A3D7404F07D017C0091EE900A2EE06B
:1065D0002404F582E43409F583E0FF7B017A09792C
:1065E0000AE9EAE4AB017D497C65D1BE900A2EE060
:1065F00004F08086900CECE0FFF154900CECE0FF8E
:10660000900904E0FDF136E4900A2EF0900A2EE0A5
:10661000FFC394034002C199EF04A3F0C394034065
:1066200002E4F0900A2EE0240CF582E43409F583AC
:10663000E0FF900A2FE0240CF582E43409F583E0B2
:10664000FB900A3D7402F07D807C0191EE900A2E51
:10665000E0F975F080A42403F582E5F03400F583B9
:10666000E92583F583FEE582EEE4AB82AA06C0024B
:10667000C003740C29F582E43409F583E0FF7B0143
:106680007A09790AE9EAE4AD01AC02D003D002D17B
:10669000BE900A2EE004F0C10C900CEBE0FFF15428
:1066A000900CEBE0FF90090CE0FDF136900CEBE074
:1066B000FF7D0191A3900CECE0FF7D0181A3900A86
:1066C0003AECF0A3EDF0A3EAF0A3EBF0900A39EF77
:1066D000F0900A3E7401F0EFC394805053900A3951
:1066E000E075F008A42404FFE5F03478FE900A3F3A
:1066F000F0A3EFF0AA06F97B01900A3AE0FCA3E0D0
:10670000FD124D11900A39E075F008A42406FFE54A
:10671000F03478FE900A3FF0A3EFF0AA06F97B016F
:10672000900A3CE0FCA3E0FD124D11E4900A3EF01B
:10673000900A3EE0FF227E01EFC39418501375F0DB
:1067400010EFA42419F582E5F03470F583EDF0E440
:106750001EAF06227E01EFC39418502875F010EF8B
:10676000A42414F582E5F03470F583E04404F07558
:10677000F010EFA42410F582E5F03470F583E044C6
:1067800001F0E41EAF0622900A35EFF07FF47E3D63
:10679000F1D8126D0C900A36EFF0E0FBFFE4900A9E
:1067A0003DF07D01FC91EE900A36E0FF7B227A42BB
:1067B0007D667C65D1BE900A35E0FFA3E0FDF13631
:1067C000900A35E0FF7D0181A3905111E054806073
:1067D000047F0180027F0022AD07AC06EC90657556
:1067E000F0EF906574F02290FFFC1246FC1246BE5A
:1067F00090FFF61246FC7B01900006124720A9820A
:10680000AA83850883850982EBF0A3EAF0A3E9F067
:106810007B0190000A124720A982AA8390000312EC
:106820004720EBF0A3EAF0A3E9F090000312472021
:10683000E0FBA3E0FAA3E02403F9E43AFA12447778
:10684000FF850883850982E0FBA3E0FAA3E0F9EF66
:10685000124490900003124720E0FBA3E0FAA3E06B
:106860002402F9E43AFA124477FF85088385098205
:10687000E0FBA3E0FAA3E02401F9E43AFAEF1244C2
:1068800090900003124720E0FBA3E0FAA3E024016C
:10689000F9E43AFA124477FF850883850982E0FB20
:1068A000A3E0FAA3E02402F9E43AFAEF124490904C
:1068B0000003124720E0FBA3E0FAA3E0F9124477BB
:1068C000FF850883850982E0FBA3E0FAA3E02403A7
:1068D000F9E43AFAEF124490900006124720E0FCE7
:1068E000A3E0FDA3E0FEA3E0FF90000E0246FC90B3
:1068F0000A2FEBF0A3EAF0A3E9F0900A2EEFF024C0
:10690000FFFFE434FFFEEFC4F8540FC868FFEEC485
:1069100054F048900A34EFF02488FFE43460FAA978
:1069200007900A367401F0A3EAF0A3E9F0900CDFB7
:10693000E030E008900A357491F08006900A3574D2
:10694000D1F0900A32E0FCA3E0FDECFF900A2EE0CB
:10695000FE75F00BA42438F582E5F03409F583E0E8
:106960004FFF900A34E0FB240CF582E43460F58399
:10697000EFF0ED740D2BF582E43460F583EDF074E7
:10698000222EF582E4340BF583E0FF126036900A84
:106990002EE02406F582E4340BF583E0FBFF900A39
:1069A00032E0FCA3E0FD900A35E0900A3DF012646D
:1069B000EE900A2EE02406F582E4340BF583E0FF26
:1069C000C007900A2FE0FBA3E0FAA3E0F9FFAE02B4
:1069D000EAE4AD07AC06C005900A36E0FBA3E0FA96
:1069E000A3E0F9FFEAE4AB07D005D0071266BE903A
:1069F0000A2EE02422F582E4340BF583E0FF1267CF
:106A000054900A2EE0FE2422F582E4340BF583E054
:106A1000FF74062EF582E4340BF583E0FD12673631
:106A2000900A2EE02422F582E4340BF583E0FF7D0A
:106A3000011264A3900A2EE075F00BA42436F582AF
:106A4000E5F03409F583E4F0900A34E02480F5821F
:106A5000E43460F583E04401F0227F0312AFCFEF0E
:106A60006012900CE0E0701C7F0351C3900CE07446
:106A700001F08010900CE0E0600A7F0312B14EE458
:106A8000900CE0F012AFC2EF60047F0351C37F03AC
:106A90007100EFB401147111900A327401F0A37403
:106AA00080F07F0371517F0351C37F027100EFB407
:106AB000011091F6900A327401F0A37480F07F0205
:106AC00011EF22EFD394004036EF94095031EF7567
:106AD000F00BA42436F582E43409F583E4F0EF7575
:106AE000F00BA4243AF582E43409F583E0FE75F056
:106AF00010EFA424FEF582E5F0345FF583EEF0227A
:106B0000EF75F00BA42436F582E43409F583E0FF39
:106B100022D15C7E007C017D801244A274832FF917
:106B200074043EFA7B0122900B08E0B4FF0691F654
:106B30007F029156900B09E0B4FF0671117F03911B
:106B400056E4900CE0F07111E4900A32F0A3F07F6B
:106B500003900A2FEBF0A3EAF0A3E9F0900A2EEFDE
:106B6000F024FFFFE434FFFEEFC4F8540FC868FFC1
:106B7000EEC454F048EF2488FFE43460FAA907908B
:106B80000A357401F0A3EAF0A3E9F0900CDFE030DD
:106B9000E108900A347492F08006900A3474D2F0BE
:106BA000900A2EE02422F582E4340BF583E0FF12F4
:106BB0006036900A2EE02406F582E4340BF583E07B
:106BC000FBFF900A32E0FCA3E0FDA3E0900A3DF059
:106BD0001264EE900A2EE02406F582E4340BF5836D
:106BE000E0FFC007900A35E0FBA3E0FAA3E0F9FF5D
:106BF000AE02EAE4AD07AC06C005900A2FE0FBA3A5
:106C0000E0FAA3E0F9FFEAE4AB07D005D00712668B
:106C1000BE900A2EE02422F582E4340BF583E0FFD7
:106C2000126754900A2EE0FE2422F582E4340BF51C
:106C300083E0FF74062EF582E4340BF583E0FD1249
:106C40006736900A2EE02422F582E4340BF583E0C7
:106C5000FF7D010264A3900A2EEFF0E4A3F0A3F0FD
:106C6000A3F0A3F0EF24FD6030047058900A2FE0E9
:106C7000FAA3E0FBA3E0FFA3E0900A37CFF0A3EF75
:106C8000F07D017F2012B997900A2EE02422F58230
:106C9000E4340BF583EFF0802B900A2FE0FAA3E0A9
:106CA000FBA3E0FFA3E0900A37CFF0A3EFF07D0154
:106CB0007F2012B94E900A2EE02422F582E4340B94
:106CC000F583EFF0900A2EE0FFD394004027EF9475
:106CD000095022B10C900A2EE02406F582E4340B10
:106CE000F583EFF0B10C900A2EE02410F582E43425
:106CF0000BF583EFF022D15C7E007C017D80124495
:106D0000A274032FF974003EFA7B0122900A3774B3
:106D1000FFF0124CC6900CCAE0D394184023900C9C
:106D2000C9E0FE900A37F0900CCAE014F075F00844
:106D3000EEA42400F582E5F03478F583E0900CC9E8
:106D4000F0124CAE900A37E0FF22E4900A3AF0A32A
:106D5000F0FBFA7D017F01F132E4900A3AF0A3F0F2
:106D6000FBFA7D017F0112B843E4900A3AF0A3F0E8
:106D7000FBFA7D017F0112B905E4900A35F0900A13
:106D800035E0C394035019B10C900A35E02407F59F
:106D900082E43409F583EFF0900A35E004F080DEF8
:106DA000E4900A35F0900A35E0C394035019B10C11
:106DB000900A35E0240FF582E43409F583EFF09072
:106DC0000A35E004F080DEE4900A35F0900A35E000
:106DD000C394035019B10C900A35E02400F582E405
:106DE0003400F583EFF0900A35E004F080DE22E411
:106DF000900A3AF0A3F0FBFA7D017F01D1AAE4905A
:106E00000A3AF0A3F0FBFA7D017F01D162E4900A17
:106E100035F0900A35E0C394035019B10C900A354F
:106E2000E02404F582E43409F583EFF0900A35E0BC
:106E300004F080DEE4900A35F0900A35E0C3940354
:106E40005019B10C900A35E0240CF582E43409F5B0
:106E500083EFF0900A35E004F080DE22906465E074
:106E6000FF22900A38EAF0A3EBF0AE05900CEB7429
:106E700003F0AD07AF06AB07E4900A3FF0A3F0A321
:106E8000F07F0312B88C900CEBE0FF900A38E0FC26
:106E9000A3E0FDA3E0FAA3E0FBF1BF900CEBE0FF61
:106EA0007D01D1F2900CEBE0FF22900A38EAF0A3CA
:106EB000EBF0AE05900CEC7404F0AD07AF06AB0739
:106EC000900A3FF0E4A3F0A3F07F0412B88C900C7A
:106ED000ECE0FF900A38E0FCA3E0FDA3E0FAA3E0B9
:106EE000FBF1BF900CECE0FF7D01D1F2900CECE0E7
:106EF000FF22AC077B01ECC39418503375F010EC03
:106F0000A42410F582E5F03470F583E054F1FAED35
:106F1000540725E0FFE433AE02EF4AFF75F010ECB2
:106F2000A42410F582E5F03470F583EFF0E41BAF94
:106F30000322900A38EAF0A3EBF0AE05900CED7452
:106F400005F0AD07AF06AB07900A3FF0E4A3F0A34E
:106F5000F07F0512B88C900CEDE0FF900A38E0FC51
:106F6000A3E0FDA3E0FAA3E0FBF1BF900CEDE0FF8E
:106F70007D01D1F2900CEDE0FF22900A37EAF0A3F8
:106F8000EBF0AE05E4900CF0F0AD07AF06AB079068
:106F90000A3FF0A3F0A3F0FF12B88C900CF0E0FFD2
:106FA000900A37E0FCA3E0FDA3E0FAA3E0FBF1BF09
:106FB000900CF0E0FFE4FDD1F2900CF0E0FF2290A5
:106FC0000A3DECF0A3EDF0A3EAF0A3EBF0900A3C4D
:106FD000EFF0900A417401F0EFC394185053900AF7
:106FE0003CE075F008A42404FFE5F03476FE900A36
:106FF00042F0A3EFF0AA06F97B01900A3DE0FCA362
:10700000E0FD124D11900A3CE075F008A42406FF43
:10701000E5F03476FE900A42F0A3EFF0AA06F97B81
:1070200001900A3FE0FCA3E0FD124D11E4900A41FB
:10703000F0900A41E0FF22EA494B6015E4900BB45E
:10704000F0900BB7F0900BB9EBF0A3EAF0A3E9F0E6
:1070500022900BB7E014700201F9147002212A1477
:107060007002215C240360022178900BB9E0FBA33D
:10707000E0FAA3E0F9900BB4E0FFE92FF9E43AFA63
:107080001244777004900BB4F0900BB9E0FBA3E0CE
:10709000FAA3E0F9900BB4E0FF04F0E92FF9E43A29
:1070A000FA124477FFC39461400AEFD3947A5004F4
:1070B00074E02FFFEFC394224006EFD3945A4008A8
:1070C000900BB57407F0800F749A2FF582E4340B9F
:1070D000F583E0900BB5F0900BB5E0FF5407A3F0FB
:1070E00070037406F0EFB40710900BB87402F0E46C
:1070F000900BB6F0A37403F022900BB5E0FF30E7DD
:1071000008900BB87403F08006900BB87401F0EF90
:1071100025E0900BB5F0A3E014F0125D86EF54FE6D
:10712000FF125D19900BB77402F0900BB8E0702558
:10713000900BB77403F0900BB6E07008900BB87426
:1071400002F08005E4900BB8F0125D86EF4401FF79
:10715000125D198007900BB8E014F022900BB8E094
:107160007010900BB6E07003A3F022900BB774017F
:10717000F022900BB8E014F022906461E0FD7C00F6
:1071800020E0026153A3E0FEE42DFDEC3EFCFEAFE7
:1071900005ED2410FFEE34AA900A2EF0A3EFF09034
:1071A0000CA9E0FEA3E0FF900A2EE0FCA3E0FDC3E3
:1071B0009FFFEC9EA3F0A3EFF0EC1243BD7B177A88
:1071C000B779D178391242121243F6900A32EEF0B2
:1071D000A3EFF0900A30E0FCA3E0FDEC1243BDE425
:1071E000FBFAF9783F1242121243F6900A2EE0FDA4
:1071F000A3E0900CA9CDF0A3EDF0900A33E02FFFAF
:10720000900A32E03EFE900CA8E02FF0900CA7E030
:107210003EF0D3A3E094E8900CA7E0943F400774BD
:107220003FF0A374E8F0C3900CA8E0940C900CA776
:10723000E0943A5007743AF0A3740CF0900CACE070
:107240007002A3E070026148900CABE0602FE49004
:107250000CA7F0A3F0900CABE014F06002614812B0
:107260005D86EF54FEFF125D19900CA7743DF0A3EC
:1072700074F4F07D017F0C7E0071546148900CAD78
:10728000E024FFF0900CACE034FFF0900A30E0FE18
:10729000A3E0FFC3EE64809480500FC3900CAFE076
:1072A0009FF0900CAEE09EF08014900A30E0FEA3B8
:1072B000E0FF900CAFE02FF0900CAEE03EF0900CB1
:1072C000AEE0C313FEA3E013FF900CAEEEF0A3EF0D
:1072D000F0C39402EE94005018A3E07002A3E060A3
:1072E0002D900CB1E024FFF0900CB0E034FFF08062
:1072F0001DD3900CAFE09407900CAEE09400400ECC
:10730000900CB1E004F07006900CB0E004F0D39063
:107310000CB1E09432900CB0E09400402BE4900C5F
:10732000AEF0A3F0A3F0A3F0900CAB74C8F0A3747C
:107330000BF0A374B8F0125D86EF4401FF125D19E3
:107340007D017F0D7E007154900CA7E0FEA3E0FF4D
:107350001267D822900A34EEF0A3EFF0A3EDF0917B
:1073600080900A38EFF09188900A39EEF0A3EFF0A0
:10737000900A34E0FCA3E0FD6F7002EC6E700281B5
:107380007F9043A2E05401900A37F0A3E0703AA343
:10739000E0FEA3E0FF4E6004ED4C702DEF4E701147
:1073A0007B027A407980124D11904082E054BFF008
:1073B00022904082E04440F07B027A407980900A3B
:1073C00034E0FCA3E0FD024D11900A37E0605390D9
:1073D0004001E4F090401004F0904014E4F090403C
:1073E00008E0547FF0904082E05408600A900A342C
:1073F000E07002A3E0702B7B027A407902900A3998
:10740000E0FCA3E0FD124D119040017407F09040A4
:1074100001E0540170F89043A2E054FEF090400166
:10742000E4F09043A2E05401602F7B027A4079029D
:10743000900A34E0FCA3E0FD124D11900A36E060A2
:10744000047F0280027F00EF4401904001F09040F1
:1074500001E05401602980F6227B027A4079809015
:107460000A34E0FCA3E0FD124D119043A2C083C09A
:1074700082E0FF900A37E0FEEF4ED082D083F02208
:10748000904082E05407FF227B027A407980024DCF
:1074900002900A321246BEE4FFFEFDFC900A46123C
:1074A00046BE900A32E0FCA3E0FDA3E0FEA3E0FFAD
:1074B0001267E7E41243B8E4FBFAF9784A12431B77
:1074C000900A361246BE900A36E0FCA3E0FDA3E027
:1074D000FEA3E0FF1243F6900A3A1246BE7F007EFA
:1074E000247D747C49900A36E0F8A3E0F9A3E0FA21
:1074F000A3E0FB1242121243F67B407A42790F78E6
:1075000000124B8AAC00AD01AE02AF03900A4212EA
:1075100046BE7F407E427D0F7C00900A3AE0F8A391
:10752000E0F9A3E0FAA3E0FB1244FF900A42E0F87E
:10753000A3E0F9A3E0FAA3E02FFFEA3EFEE93DFD58
:10754000E83CFC900A3E1246BE900A3EE0FCA3E0F6
:10755000FDA3E0FEA3E0FF22900A4EEFF0A3EDF0C2
:10756000900B38E0B40800400302785D907573F822
:1075700028287302758B0276F002771702774B0288
:10758000777C0277A4027809027839900A54E0FCEB
:10759000A3E0FDA3E0FEA3E0FFE41243B8C004C0F3
:1075A00005C006C007900A50E0FCA3E0FDA3E0FE82
:1075B000A3E0FFE41243B8D003D002D001D0001200
:1075C000431BE4FBFAF978431242121243F6900B84
:1075D0002C1246BE900A4FE0FF7E007C007D801298
:1075E000472D900B2CE0F8A3E0F9A3E0FAA3E02FDD
:1075F000FFEA3EFEE93DFDE83CFCE42FFFEE34FEF1
:10760000FEED34FFFDEC34FFFC900B2C1246BE90D7
:107610000A54E0FCA3E0FDA3E0FEA3E0FFE4124374
:10762000B8C004C005C006C007900A50E0FCA3E043
:10763000FDA3E0FEA3E0FFE41243B8D003D002D0E4
:1076400001D00012431BE4FBFAF9784312421212F4
:1076500043F6900B301246BE900B30E0FCA3E0FDE9
:10766000A3E0FEA3E0FF900A54E0F8A3E0F9A3E052
:10767000FAA3E0FB1244FFC004C005C006C007E443
:107680007F80FEFDFC900A50E0F8A3E0F9A3E0FA49
:10769000A3E0FB1244FFD003D002D001D000C3EF1F
:1076A0009BFFEE9AFEED99FDEC98FC900B30124694
:1076B000BE900A54E0FCA3E0FDA3E0FEA3E0FF902F
:1076C0000B341246BE900B34E0FCA3E0FDA3E0FEB9
:1076D000A3E0E4FFEEE4FDFC780812465EAD0790FF
:1076E0000A4EE0FF125AA4900B38E004F002785DD5
:1076F000900A4EE004FFC007900B34E0FCA3E0FDCD
:10770000A3E0FEA3E0FFE4AD07D007125AA4900B5C
:1077100038E004F002785D900A4EE02402FFC007D2
:10772000900B2CE0FCA3E0FDA3E0FEA3E0E4FFFE51
:10773000ED5403FDE4FC781012465EAD07D007124D
:107740005AA4900B38E004F002785D900A4EE024D1
:1077500003FFC007900B2CE0FCA3E0FDA3E0FEA319
:10776000E0E4FFEEE4FDFC780812465EAD07D007CA
:10777000125AA4900B38E004F002785D900A4EE0B3
:107780002404FFC007900B2CE0FCA3E0FDA3E0FE67
:10779000A3E0FFE4AD07D007125AA4900B38E00431
:1077A000F002785D900A4EE02405FFC007900B3090
:1077B000E0FCA3E0FDA3E0FEA3E0E4FFFEED540F38
:1077C000FDE4FC781012465EC004C005C006C00788
:1077D000A3E0FCA3E0FDA3E0FEA3E0E4FFFEED5484
:1077E0000FFDE4FC780C12465ED003D002D001D02D
:1077F00000EF4BFFEE4AED49EC48AD07D007125AB7
:10780000A4900B38E004F08054900A4EE02406FF68
:10781000C007900B30E0FCA3E0FDA3E0FEA3E0E492
:10782000FFEEE4FDFC780812465EAD07D007125A61
:10783000A4900B38E004F08024900A4EE02407FF67
:10784000C007900B30E0FCA3E0FDA3E0FEA3E0FF47
:10785000E4AD07D007125AA4E4900B38F0900B382F
:10786000E0FF22900A351246BE7F407E787D7D7C07
:1078700001900A391246BE900B66E014700221E6B0
:10788000147002E1A1147002E1F914700302803057
:1078900014700302806C240560030280869009A5A1
:1078A000E024FE601D14604124037056900A35E008
:1078B000FCA3E0FDA3E0FEA3E0FF900B6D1246BE2B
:1078C0008040900A35E0FCA3E0FDA3E0FEA3E024A5
:1078D00064FFE43EFEE43DFDE43CFC900B6D12468B
:1078E000BE9009A57403F08019900A35E0FCA3E06E
:1078F000FDA3E0FEA3E0FF900B6D1246BEE49009ED
:10790000A5F0900CE3E060022190900A03E0FCA354
:10791000E0FDA3E0FEA3E0FF900B6DE0F8A3E0F92B
:10792000A3E0FAA3E02FFFEA3EFEE93DFDE83CFCC0
:10793000900B5BE0F8A3E0F9A3E0FAA3E0FBC3122D
:10794000464D7003028086900A03E0FCA3E0FDA38D
:10795000E0FEA3E0FF900B6DE0F8A3E0F9A3E0FAEE
:10796000A3E02FFFEA3EFEE93DFDE83CFC900B69F9
:107970001246BE900B69E0FCA3E0FDA3E0FEA3E08D
:10798000FF900B5B1246BE900B66E004F00280860F
:10799000900B6DE0FCA3E0FDA3E0FEA3E0FF900BE5
:1079A0005BE0F8A3E0F9A3E0FAA3E0FBC312464DC5
:1079B0007003028086900B6DE0FCA3E0FDA3E0FE67
:1079C000A3E0FF900B691246BE900B6DE0FCA3E0B4
:1079D000FDA3E0FEA3E0FF900B5B1246BE900B669A
:1079E000E004F0028086900A96E0900B67F0900A1F
:1079F0007FE0900B68F0E0FC1243C2E4FBFA79C828
:107A0000784212431B900A411246BE900A41E0F8A8
:107A1000A3E0F9A3E0FAA3E0FBC000C001C002C0EC
:107A200003900B67E0FC1243C2D003D002D001D018
:107A300000124121900A411246BE900B69E0FCA35E
:107A4000E0FDA3E0FEA3E0FFE41243B87B007A244C
:107A50007974784912431B900A3D1246BE900A4140
:107A6000E0FCA3E0FDA3E0FEA3E0FF900A3DE0F808
:107A7000A3E0F9A3E0FAA3E0FB124212E4FBFA79D7
:107A80008078C0124212900A3D1246BE900A3DE034
:107A9000FCA3E0FDA3E0FEA3E0FF1243F6900A4939
:107AA0001246BEE4FFFEFDFC900A49E0F8A3E0F9AF
:107AB000A3E0FAA3E0FBC31246375051E47B04FA7B
:107AC000F9F8900A49E0FCA3E0FDA3E0FEA3E0FF83
:107AD000124B8AAC00AD01AE02AF03E4FBFAF9F839
:107AE000C312463770026178900A49E0FCA3E0FDBA
:107AF000A3E0FEA3E0FFE40BF8EF2BFFEA3EFEE974
:107B00003DFDE83CFC900A491246BE80AFE4FFFE12
:107B1000FDFC900A49E0F8A3E0F9A3E0FAA3E0FB3A
:107B2000D31246374052E47B04FAF9F8900A49E050
:107B3000FCA3E0FDA3E0FEA3E0FF124B8AAC00AD86
:107B400001AE02AF03E4FBFAF9F8C312463760282E
:107B5000900A49E0FCA3E0FDA3E0FEA3E0FF74FF70
:107B6000EF24FFFFEE34FFFEED34FFFDEC34FFFCAD
:107B7000900A491246BE80AE900B69E0FCA3E0FD7E
:107B8000A3E0FEA3E0FFE47B04FAF9F81244FF90BF
:107B90000B691246BE900B69E0F8A3E0F9A3E0FA86
:107BA000A3E0FB900A49E0FCA3E0FDA3E0FEA3E014
:107BB000FFEB2FFFEA3EFEE93DFDE83CFC900B6940
:107BC0001246BEE4900B63F0900A4DF07F06FEFD76
:107BD000FC900B5FE0F8A3E0F9A3E0FAA3E0FBC39D
:107BE00012464D500281A5E4FFFEFDFC900B69E0BA
:107BF000F8A3E0F9A3E0FAA3E0FBD312464D50024C
:107C000081A5900B5FE0F8A3E0F9A3E0FAA3E0FB05
:107C10007F007EE97DA47C3512458A900B69E0F8EF
:107C2000A3E0F9A3E0FAA3E0FBD312464D5076900F
:107C30000B69E0FCA3E0FDA3E0FEA3E0FF900B5F77
:107C4000E0F8A3E0F9A3E0FAA3E0FB1244FF900BF5
:107C5000461246BE7F007E467DC37C23900B46E0E5
:107C6000F8A3E0F9A3E0FAA3E0FBC312464D4035C8
:107C7000900A39E0F8A3E0F9A3E0FAA3E0FB900B47
:107C800046E0FCA3E0FDA3E0FEA3E0FF12458A90DE
:107C90000B4EEFF0C3940F400CE0D3945A50069073
:107CA0000A4D7401F0900A4DE06020900B5FE0FCFB
:107CB000A3E0FDA3E0FEA3E0FF900B571246BE90A9
:107CC0000B637401F0900AA1F0C1A7900B69E0F872
:107CD000A3E0F9A3E0FAA3E0FB7F807E177DB47CEC
:107CE0002C12458A900B571246BEE47F06FEFDFC1F
:107CF000900B57E0F8A3E0F9A3E0FAA3E0FBC3126E
:107D0000464D500CE47F06FEFDFC900B571246BE1C
:107D1000E47F087E07FDFC900B57E0F8A3E0F9A391
:107D2000E0FAA3E0FBD312464D400DE47F087E0746
:107D3000FDFC900B571246BE900B57E0FCA3E0FDF4
:107D4000A3E0FEA3E05401FFE4FEFDFCEF602690FB
:107D50000B57E0FCA3E0FDA3E0FEA3E0FF74FFEF00
:107D600024FFFFEE34FFFEED34FFFDEC34FFFC900A
:107D70000B571246BEE47F06FEFDFC900B57E0F861
:107D8000A3E0F9A3E0FAA3E0FBC312464D500CE4D4
:107D90007F06FEFDFC900B571246BE900B69E0FC7F
:107DA000A3E0FDA3E0FEA3E0FF900B57E0F8A3E003
:107DB000F9A3E0FAA3E0FB1244FF900B461246BE83
:107DC0007F007EE97DA47C35900B46E0F8A3E0F9C6
:107DD000A3E0FAA3E0FBD312464D501B7F007E4682
:107DE0007DC37C23900B46E0F8A3E0A3E0A3E0C3AF
:107DF00012464D4002C19E900B69E0F8A3E0F9A342
:107E0000E0FAA3E0FB7F007EE97DA47C3512458A81
:107E1000900B571246BE900B57E0FCA3E0FDA3E089
:107E2000FEA3E05401FFE4FEFDFCEF6026900B573B
:107E3000E0FCA3E0FDA3E0FEA3E0FF74FFEF24FF5E
:107E4000FFEE34FFFEED34FFFDEC34FFFC900B57EA
:107E50001246BEE47F06FEFDFC900B57E0F8A3E05F
:107E6000F9A3E0FAA3E0FBC312464D500CE47F06F1
:107E7000FEFDFC900B571246BE900B69E0FCA3E0A0
:107E8000FDA3E0FEA3E0FF900B57E0F8A3E0F9A309
:107E9000E0FAA3E0FB1244FF900B461246BEE490CA
:107EA0000B63F0900AA1F0900A39E0F8A3E0F9A37F
:107EB000E0FAA3E0FB900B46E0FCA3E0FDA3E0FEAC
:107EC000A3E0FF12458A900B4EEFF0900A39E0F8DC
:107ED000A3E0F9A3E0FAA3E0FB900B46E0FCA3E0EB
:107EE000FDA3E0FEA3E0FF12458AAC00AD01AE02A7
:107EF000AF03900B4A1246BE900B4AE0FCA3E0FD94
:107F0000A3E0FEA3E0FFE41243B8900A451246BE88
:107F1000900A45E0FCA3E0FDA3E0FEA3E0FF7BF0B8
:107F20007AFF797F7849124212900A451246BE9034
:107F30000A45E0FCA3E0FDA3E0FEA3E0FFC004C00F
:107F400005C006C007900A39E0FCA3E0FDA3E0FEEF
:107F5000A3E0FFE41243B8A804A905AA06AB07D022
:107F600007D006D005D00412431B900A451246BE26
:107F7000900A45E0FCA3E0FDA3E0FEA3E0FF12436E
:107F8000F6900B4F1246BE7FFF7EFF7D0F7C009068
:107F90000B531246BEE4900B65F0A3E004F00280A0
:107FA00086900B63E07011A3E0700D7D807F10124E
:107FB0005AA4900B647401F0900B4FE0FCA3E0FD19
:107FC000A3E0FEA3E0FF900A501246BE900B53E0E0
:107FD000FCA3E0FDA3E0FEA3E0FF900A541246BE1E
:107FE000900B4EE0FD7F1A127558EF6003028086F9
:107FF000900B66E004F0028086900B63E0600890CE
:108000000B66E004F0807F900B57E0FCA3E0FDA33B
:10801000E0FEA3E0FF900A4F1246BEE4900A53F040
:108020007F2A125AE7EF705E900B66E004F08056EC
:10803000900AA1E070157DA07FB1125AA4900AA108
:108040007401F0900B657406F08005E4900B65F008
:10805000900B57E0FCA3E0FDA3E0FEA3E0FF900B34
:108060005F1246BE900B667405F0801A900B65E0B7
:10807000600414F080107D4F7F10125AA4E4900B1E
:1080800064F0900B66F0900B66E0FF22900A3212CB
:1080900046BE900A367401F0E4FFFEFDFC900A6FC4
:1080A000E0F8A3E0F9A3E0FAA3E0FBC312464D70A9
:1080B00017900A32E0FCA3E0FDA3E0FEA3E0FF90EE
:1080C0000A6F1246BE7F0022900A6FE0FCA3E0FD1B
:1080D000A3E0FEA3E0FFFBAA06A905A804900A32CC
:1080E000E0FCA3E0FDA3E0FEA3E0C39BFFEE9AFE4D
:1080F000ED99FDEC98FC124D36900A371246BE7F82
:10810000807E847D1E7C00900A37E0F8A3E0F9A30E
:10811000E0FAA3E0FBC312464D4007E4900A36F0B4
:108120008079E47BE87A03F9F8900A32E0FCA3E076
:10813000FDA3E0FEA3E0FF12458AE47B107A27F955
:10814000F81244FFE47BE87A03F9F812458A900AB2
:108150003B1246BE900A3BE0A3E0A3E0FEA3E0C3CF
:1081600094F4EE9401500DE47FF47E01FDFC900A3E
:108170003B1246BE900A3BE0FCA3E0FDA3E0FEA359
:10818000E0FF900A37E0F8A3E0F9A3E0FAA3E0FBF0
:10819000D312464D4005E4900A36F0900A32E0FCD6
:1081A000A3E0FDA3E0FEA3E0FF900A6F1246BE909D
:1081B0000A36E0FF22900A73E014700241E1147065
:1081C00002613A2402600281A2900AADE0FCA3E0C1
:1081D000FDA3E0FEA3E0FF900A74E0F8A3E0F9A39A
:1081E000E0FAA3E0FBC312464D700241DA124CC61E
:1081F000AB07900AADE0FCA3E0FDA3E0FEA3E0FF27
:10820000900A741246BEAF03124CAE900C4DE014AF
:10821000603904704D900A74E0FCA3E0FDA3E0FE19
:10822000A3E0FF127491900A2E1246BE900A2EE02F
:10823000FCA3E0FDA3E0FEA3E0FFE47B04FAF9F871
:1082400012458A900A2E1246BE8017900A74E0FCEE
:10825000A3E0FDA3E0FEA3E0FF1267E7900A2E1261
:1082600046BEE47F64FEFDFC900A2EE0F8A3E0F930
:10827000A3E0FAA3E0FBD312464D405E900A2EE045
:10828000FCA3E0FDA3E0FEA3E0FF900A98E0F8A3C2
:10829000E0F9A3E0FAA3E0FB12464D603D900A2E00
:1082A000E0FCA3E0FDA3E0FEA3E0FF900A981246E5
:1082B000BE900A98E0FCA3E0FDA3E0FEA3E0FF90DF
:1082C0000C691246BE900A98E0FCA3E0FDA3E0FE14
:1082D000A3E0FF118C900AA1EFF0900A73E004F084
:1082E00022900ACFE0FF900A7CE06F6047900ACFAF
:1082F000E014601614601F1460282403702E900A86
:10830000807401F0A37490F08022900A807402F0CF
:10831000A37458F08016900A807403F0A37420F0C0
:10832000800A900A807403F0A374E8F0900ACFE00A
:10833000900A7CF0900A73E004F0900A98E0FCA3A5
:10834000E0FDA3E0FEA3E0FF900A78E0F8A3E0F9E7
:10835000A3E0FAA3E0FBC312464D7002819D900A90
:1083600098E0FCA3E0FDA3E0FEA3E0FF900AC712A3
:1083700046BE900A02E024BD7002814324F77002D9
:10838000810624F76043241460028189900AC7E0C3
:10839000FCA3E0FDA3E0FEA3E02454FFEE342EFE98
:1083A000E43DFDE43CFCC007900AC6E0FFFB3395CA
:1083B000E0FAF9F8D007C3EF9BFFEE9AFEED99FDC6
:1083C000EC98FCA31246BE8189900AC7E0FCA3E0AA
:1083D000FDA3E0FEA3E024E0FFEE342EFEE43DFD2D
:1083E000E43CFCC007900AC6E0FFFB3395E0FAF9D5
:1083F000F8D007C3EF9BFFEE9AFEED99FDEC98FCD9
:10840000A31246BE8189900AC7E0FCA3E0FDA3E069
:10841000FEA3E024E0FFEE342EFEE43DFDE43CFC50
:10842000C007900AC6E0FFFB3395E0FAF9F8D007E1
:10843000C3EF9BFFEE9AFEED99FDEC98FCA312466C
:10844000BE8046900AC7E0FCA3E0FDA3E0FEA3E0E7
:1084500024E0FFEE342EFEE43DFDE43CFCC006C00B
:1084600007900A80E0FEA3E0FFFBAA06EA3395E04E
:10847000F9F8D007D006C3EF9BFFEE9AFEED99FD09
:10848000EC98FC900AA91246BE900A98E0FCA3E082
:10849000FDA3E0FEA3E0FF900A781246BEE4900A36
:1084A00073F022900A3CEDF0900A3BEFF0900A3E08
:1084B0007403F0EF2410FF7B017A0A793DB133EFAA
:1084C0007070900A3CE014601D14602F1460412409
:1084D000037050900A3DE0FFA3E0F4FEEF5E900AC7
:1084E0003DF0E0F0803D900A3DE0FFA3E0F4FEEFB8
:1084F0005E900A3DF0E04401F08028900A3DE0FFE4
:10850000A3E0F4FEEF5E900A3DF0E04402F0801339
:10851000900A3DE0FFA3E0F4FEEF5E900A3DF0E03C
:108520004403F0900A3BE02410FF900A3DE0FD1266
:108530005AA422900A3FEFF0A3EBF0A3EAF0A3E9DC
:10854000F0E4A3F0A3F07B01A304F0A3740AF0A36A
:10855000743FF0B1BA900A44EFF064806056A3E033
:10856000FBA3E0FAA3E0F9900A607401F0E4A3F041
:108570007F60D13E900A44EFF0B1BAEF30E1FA905B
:108580000A44E0702F900A40E0FBA3E0FAA3E0F970
:10859000900A4C7401F0E4A3F07F60D1ED900A449E
:1085A000EFF0B1BAEF30E0FA900A44E06006900ACA
:1085B000437401F0900A43E0FF229044C97480F0B4
:1085C000900CBBE0FF900CE4E054406004EF4404E6
:1085D000FF9044C17480F022E4900A2FF0A3F0A32E
:1085E000F0A3F0900A2FEFF0E4900A33F0900A33F2
:1085F000E0C3940850427B017A0A792F900A607494
:1086000001F0E4A3F07F40D13E900A31EFF0B1BA1F
:10861000EF30E1FA125FD2900A32EFF0B401089025
:108620000A307401F08011E47F05FEFDFC1258E36E
:10863000900A33E004F080B5900A30E0FF22900AFF
:108640005DEBF0A3EAF0A3E9F0AC077D02900A5DD0
:10865000E0FBA3E0FAA3E04A4B7002C1EA900CE40D
:10866000E0B4100F9049D9E054087003FD801A7DE2
:10867000018016900CE4E0B4600FE4FD9044D974DE
:1086800080F0900CBBE054F7F0ED705E900CE47459
:1086900045F0E4900CB7F0900A60E0900CBAF090CE
:1086A0000A5DE0F9A3E0FAA3E0900CB3C9F0A3EAF5
:1086B000F0A3E9F0900A61E0FF900CB8F0900CBBD9
:1086C000E054FDF0AE04EE25E09049D8F0EF5401FF
:1086D000600CA37412F09049D77404F0800690499E
:1086E000D97401F09044C17480F0AF0522900A491A
:1086F000EBF0A3EAF0A3E9F0AC077D02900A49E0B1
:10870000FBA3E0FAA3E04A4B7002E19B900CE4E08B
:10871000B4100F9049D9E054087003FD801A7D0110
:108720008016900CE4E0B4600FE4FD9044D97480AE
:10873000F0900CBBE054F7F0ED7060900CE47449DD
:10874000F0E4900CB6F0900A4CE0900CB9F0900A6E
:1087500049E0F9A3E0FAA3E0900CBCC9F0A3EAF069
:10876000A3E9F0900A4DE0FF900CB8F0900CBBE04C
:1087700054FEF0AE04EE25E044019049D8F0EF54E9
:1087800001600CA37412F09049D77404F080069035
:1087900049D97401F09044C17480F0AF0522900A69
:1087A0003CEDF0900A3BEFF0E4900A3EF0EFC3940A
:1087B000004011900A3BE0D394035008900A3E74A5
:1087C00018F08016900A3BE0FFC39400400CEFD3F2
:1087D00094035006900A3E7419F0900A3EE0FF7B25
:1087E000017A0A793DB133900A3BE0FFC39400401F
:1087F0003AEFD394035034900A3DE0FF900A3BE0F7
:1088000025E0FE7403A806088002C333D8FCF45F99
:10881000900A3DF0E0FF900A3CE0FDA806088002C7
:10882000C333D8FC4F900A3DF08044900A3BE0FFF0
:10883000C39400403AEFD394035034900A3DE0FFD4
:10884000900A3BE024FC25E0FE7403A806088002A1
:10885000C333D8FCF45F900A3DF0E0FF900A3CE09F
:10886000FDA806088002C333D8FC4F900A3DF09063
:108870000A3EE0FF900A3DE0FD025AA4E4900A356A
:10888000F0A3F0124BFDE47F64FEFDFC1258E37B85
:10889000007A808B828A83E0900A96F08B828A83AA
:1088A000A3E0900A7FF08B828A83A3A3A3E0900ABF
:1088B00035F0EB2404F582E43AF583E0900A36F0D3
:1088C000900A35E0B40112900A96E0FF3395E0FE7D
:1088D0007CFF7DFF1244A2EFF0900A36E0B4011253
:1088E000900A7FE0FF3395E0FE7CFF7DFF1244A2FB
:1088F000EFF0AE02AF038F828E83A3A3E0900CDF74
:10890000F0E4F0223136124CC69043A0E04408F067
:108910009043B0E04408F090470174C8F09043AC35
:10892000E04410F09043BCE04410F0904700E05465
:108930002060F8024CAE314C900A37EFF0700731EE
:1089400098900A37EFF0900A37E0FF2231F4513364
:10895000EF7039D104900A38EFF06407702A90471D
:1089600022E0540270087F01FE124BD080F0904745
:1089700022E054026009E0FF1313543FFF80027F9E
:10898000FFEF7004900A38F031E98006900A3874DD
:1089900004F0900A38E0FF2231F4900A3874FFF0B6
:1089A0005133EF70387F017103EF6407702B7B0147
:1089B0007A0C79D47D02D1BFEFB40215E4900A3865
:1089C000F0904722E0540270107F01FE124BD080DD
:1089D000F0904722E0540260D531E98006900A38D1
:1089E0007404F0900A38E0FF22124CC6E4900CF4B4
:1089F000F0024CAE124CC69043A0E04408F0904305
:108A0000B0E04408F0024CAE900A2F74FFF031F44D
:108A10005133EF70127F017103EFB40706900A2FF4
:108A20007407F031E98006900A2F7404F0900A2F41
:108A3000E0FF22900A3D7404F0124CC6900CF4E062
:108A4000700704F0E4900A3DF0124CAE900A3DE04D
:108A5000FF22900A38EBF0A3EAF0A3E9F0A3EDF0CF
:108A600031F4900A3BE0C39480400241F75133EF68
:108A7000707D900A3C74FFF0900A38E0FBA3E0FAA6
:108A8000A3E0F9900A41E4F0A37410F07F40F11FD5
:108A9000EF64077068904722E0540260F890472224
:108AA000E054026009E0FF1313543FFF80027FFF90
:108AB000EF7004900A3CF0900A3CE0702A900A3B68
:108AC000E0FD7C00900CD4E0FBA3E0900A41F07F35
:108AD00040D16BEFB40708900A3C7407F0801E90F9
:108AE0000A3C74FFF08016900A3C74FFF0800E90F0
:108AF0000A3C7404F08006900A3C7401F0900A3C31
:108B0000E0FF227E07904722E05402601F9047203A
:108B100074B6F074E1F0740EF0904722E0540270E5
:108B200007904720EFF080067E0980027E04AF06A2
:108B30002231F4904722E054026023E0540260099D
:108B4000E0FF1313543FFF80027FFFEF7006900A8F
:108B500038F08006900A3874FFF031E98006900AF8
:108B6000387407F0900A38E0FF22900A2FEBF0A348
:108B7000EAF0A3E9F0904722E054026002810FE09E
:108B8000FF1313543F60028107E05401602C9047AB
:108B900020E0900A32F0904722E054016003D38035
:108BA00001C340097F017E00124BD080E99047202D
:108BB000E0900A33F0E4A3F08006900A347407F0E2
:108BC000900A34E0704F900A32E0B40116A3E0FF3F
:108BD000900A2FE0FBA3E0FAA3E0F9E48FF012443F
:108BE000E0801D900A33E0FFC3E49FFFE49400F9A6
:108BF000900A2FE0FBA3E0FAA3E0C98FF01244E053
:108C0000E4900A34F0800E900A347407F0800690E5
:108C10000A347410F0900A34E06407600231E9907D
:108C20000A34E0FF22E4900A2EF0FFFEFDFC900CD7
:108C300077E0F8A3E0F9A3E0FAA3E0FBC312464D06
:108C40006002A10E900C73E07002A3E0600281FF4D
:108C5000900C72E014604114700281DC2402600206
:108C6000A1345108900A2EEFF024FC601724F46020
:108C70000D24096002A134900C72E004F022E4900B
:108C80000C72F0227B017A0C7975716A900A2EEFD2
:108C9000F0E4900C72F022227B017A0C7975716AF3
:108CA000900A2EEFF024F9602524F7602824106044
:108CB00002A134900C75E0FEA3E0FFEE3395E0FDD9
:108CC000FC900C801246BE900C72E004F022900CD6
:108CD000727401F022E4900C72F02222900C80E079
:108CE000FCA3E0FDA3E0FEA3E0FFA31246BE900CB0
:108CF000737427F0A37410F0E4900C72F0222290A9
:108D00000C74E024FFF0900C73E034FFF022900C20
:108D100077E0FCA3E0FDA3E0FEA3E0FF74FFEF24F7
:108D2000FFFFEE34FFFEED34FFFDEC34FFFC900C52
:108D3000771246BE22E4900A33F0900A36F0A3F090
:108D4000900A347480F0A3E4F07131900A33EFF0AC
:108D5000E064077002A1FC900A367405F0900A36B0
:108D6000E0FFC39410501474882FF582E4340CF59E
:108D700083E4F0900A36E004F080E2900A96E0C3C3
:108D800064809480501AE0FF3395E0FE7CFF7DFF05
:108D90001244A2900C88EFF0900C8B7401F0800DBF
:108DA000900A96E0900C88F0E4900C8BF0900A7F8B
:108DB000E0C364809480501AE0FF3395E0FE7CFFAE
:108DC0007DFF1244A2900C89EFF0900C8C7401F09E
:108DD000800D900A7FE0900C89F0E4900C8CF0906C
:108DE0000CDFE0900C8AF07B017A0C7988E4FD516D
:108DF00052E49009FEF09009A57402F0900A33E065
:108E0000FF7E00227F07904722E05402600E9047C9
:108E10002074B6F074E0F0740DF080027F0422E458
:108E2000900A30F0A3F0A3F0900A2E7480F0A3E42F
:108E3000F0900A96E0900A31F0900A7FE0900A32B2
:108E4000F09009FEE0B40322900ABDE0900A31F0F0
:108E5000900AA0E0900A32F0900A31E0900A96F071
:108E6000900A32E0900A7FF0B13522900A3EECF091
:108E7000A3EDF0AC077D07904722E05402603B90E1
:108E8000472074B6F074D8F07405F0904722E0548F
:108E9000027023904720ECF0900A3EE0904720F0CB
:108EA000900A3EE0A3E0904720F0EBF0900A41E00A
:108EB000904720F080067D0980027D04AF05229056
:108EC0000A39EBF0A3EAF0A3E9F0A3EDF0E4A3F094
:108ED000900A3CE0FFA3E0C39F503E904722E0543D
:108EE000016003D38001C340097F017E00124BD093
:108EF00080E9904720E0FF900A39E0FBA3E0FAA365
:108F0000E0F9900A3DE0FEE92EF9E43AFAEF124466
:108F100090900A3DE004F080B7900A3DE0FF229077
:108F20000A3EEBF0A3EAF0A3E9F0900A437407F0DD
:108F3000904722E05402604E90472074B6F074D5FA
:108F4000F07402F0904722E054027032904720EF14
:108F5000F0E4FFFED3900A42E09F900A41E09E4079
:108F60002B900A3EE0FBA3E0FAA3E02FF9EA3EFAD9
:108F7000124477904720F00FEF70010E80D6900AD0
:108F8000437409F08006900A437404F0900A43E0A9
:108F9000FF22900A98E0FCA3E0FDA3E0FEA3E0FF1F
:108FA000900CD6E0F8A3E0F9A3E0FAA3E0FBC3122B
:108FB000464D70030294F8900A98E0FCA3E0FDA3EC
:108FC000E0FEA3E0FF900CD61246BE7FC07E3B7D44
:108FD000477C03900CD6E0F8A3E0F9A3E0FAA3E005
:108FE000FBD312464D4009900CBF740CF0029181E6
:108FF0007FC07E057DD97C01900CD6E0F8A3E0F916
:10900000A3E0FAA3E0FBD312464D4008900CBF74D6
:109010000BF021817F807EBA7D8C7C01900CD6E0A4
:10902000F8A3E0F9A3E0FAA3E0FBD312464D400811
:10903000900CBF740AF021817F807EB17D4F7C014E
:10904000900CD6E0F8A3E0F9A3E0FAA3E0FBD3127A
:10905000464D4008900CBF7409F021817FC07EEA24
:109060007D217C01900CD6E0F8A3E0F9A3E0FAA3FF
:10907000E0FBD312464D4008900CBF7408F02181EC
:109080007F007E247DF47C00900CD6E0F8A3E0F90C
:10909000A3E0FAA3E0FBD312464D4008900CBF7446
:1090A00007F021817F007E1B7DB77C00900CD6E00D
:1090B000F8A3E0F9A3E0FAA3E0FBD312464D400881
:1090C000900CBF7406F021817F407E547D897C0026
:1090D000900CD6E0F8A3E0F9A3E0FAA3E0FBD312EA
:1090E000464D4008900CBF7405F021817F807E8D35
:1090F0007D5B7C00900CD6E0F8A3E0F9A3E0FAA336
:10910000E0FBD312464D4008900CBF7404F0807110
:109110007F407E4B7D4C7C00900CD6E0F8A3E0F9BC
:10912000A3E0FAA3E0FBD312464D4008900CBF74B5
:1091300003F0804D7FC07EC67D2D7C00900CD6E074
:10914000F8A3E0F9A3E0FAA3E0FBD312464D4008F0
:10915000900CBF7402F080297F607EE37D167C0056
:10916000900CD6E0F8A3E0F9A3E0FAA3E0FBD31259
:10917000464D4008900CBF7401F08005E4900CBF90
:10918000F07F007E367D6E7C01900CD6E0F8A3E087
:10919000F9A3E0FAA3E0FBD312464D4007E4FF1227
:1091A0005FD841357FC07EE17DE47C00900CD6E045
:1091B000F8A3E0F9A3E0FAA3E0FBD312464D400781
:1091C0007F01125FD8806E7F407E547D897C009045
:1091D0000CD6E0F8A3E0F9A3E0FAA3E0FBD3124633
:1091E0004D40077F02125FD8804B7FC07E307D46A6
:1091F0007C00900CD6E0F8A3E0F9A3E0FAA3E0FB32
:10920000D312464D40077F03125FD880287F807EAF
:10921000B97D2A7C00900CD6E0F8A3E0F9A3E0FA2F
:10922000A3E0FBD312464D40077F04125FD88005B0
:109230007F05125FD8900CE27401F07F207E297DBB
:109240001B7C00900CD6E0F8A3E0F9A3E0FAA3E0C1
:10925000FBC312464D40247F907EAB7D1E7C009068
:109260000CD6E0F8A3E0A3E0A3E0D312464D500BE8
:10927000E49009F7F0900CE2F081CB7FC07E197D7D
:10928000357C00900CD6E0F8A3E0F9A3E0FAA3E067
:10929000FBC312464D40267F107E307D3D7C009002
:1092A0000CD6E0F8A3E0A3E0A3E0D312464D500DA6
:1092B0009009F77401F0E4900CE2F081CB7F247EFA
:1092C000087D517C00900CD6E0F8A3E0F9A3E0FA09
:1092D000A3E0FBC312464D40267F7C7E9A7D527CE4
:1092E00000900CD6E0F8A3E0A3E0A3E0D312464D33
:1092F000500D9009F77402F0E4900CE2F081CB7FFE
:10930000A07E817D6A7C00900CD6E0F8A3E0F9A3F2
:10931000E0FAA3E0FBC312464D40267FB07E8A7D73
:109320006F7C00900CD6E0F8A3E0A3E0A3E0D3129A
:10933000464D500D9009F77403F0E4900CE2F08173
:10934000CB7F007ECF7D997C00900CD6E0F8A3E027
:10935000F9A3E0FAA3E0FBC312464D40267F807ECE
:10936000077D9B7C00900CD6E0F8A3E0A3E0A3E08F
:10937000D312464D500D9009F77404F0E4900CE2BE
:10938000F081CB7F007E647D137C01900CD6E0F8E9
:10939000A3E0F9A3E0FAA3E0FBC312464D40267F09
:1093A000907E407D157C01900CD6E0F8A3E0A3E010
:1093B000A3E0D312464D500D9009F77406F0E490E7
:1093C0000CE2F081CB7F607E517DD57C00900CD685
:1093D000E0F8A3E0F9A3E0FAA3E0FBC312464D4096
:1093E000267FC07E1D7DDB7C00900CD6E0F8A3E0DC
:1093F000A3E0A3E0D312464D500D9009F77405F099
:10940000E4900CE2F081CB7F207E217D407C0190B6
:109410000CD6E0F8A3E0F9A3E0FAA3E0FBC3124600
:109420004D40267F207E747D477C01900CD6E0F86D
:10943000A3E0A3E0A3E0D312464D500D9009F774CA
:1094400007F0E4900CE2F081CB7F707E7C7D7B7C2A
:1094500001900CD6E0F8A3E0F9A3E0FAA3E0FBC387
:1094600012464D40267F407E787D7D7C01900CD653
:10947000E0F8A3E0A3E0A3E0D312464D500D90091D
:10948000F77408F0E4900CE2F080407FE07EF07D1D
:10949000AA7C01900CD6E0F8A3E0F9A3E0FAA3E0DF
:1094A000FBC312464D40247FB07E567DC57C0190A3
:1094B0000CD6E0F8A3E0A3E0A3E0D312464D500B96
:1094C0009009F77409F0E4900CE2F07FE07EF07D03
:1094D000AA7C01900CD6E0F8A3E0F9A3E0FAA3E09F
:1094E000FBC312464D4011900A01E0600B9009F752
:1094F0007409F0E4900CE2F07F002290FFFC124629
:10950000FC1246BE90FFF61246FC7B01900006124C
:109510004720A982AA83850883850982EBF0A3EA04
:10952000F0A3E9F07B0190000A124720A982AA83E8
:10953000900003124720EBF0A3EAF0A3E9F09000BB
:1095400003124720E0FBA3E0FAA3E02403F9E43A86
:10955000FA124477FF850883850982E0FBA3E0FACD
:10956000A3E0F9EF124490900003124720E0FBA320
:10957000E0FAA3E02402F9E43AFA124477FF8508FE
:1095800083850982E0FBA3E0FAA3E02401F9E43A31
:10959000FAEF124490900003124720E0FBA3E0FA98
:1095A000A3E02401F9E43AFA124477FF85088385A1
:1095B0000982E0FBA3E0FAA3E02402F9E43AFAEF1F
:1095C000124490900003124720E0FBA3E0FAA3E0CE
:1095D000F9124477FF850883850982E0FBA3E0FA4E
:1095E000A3E02403F9E43AFAEF1244909000061243
:1095F0004720E0FCA3E0FDA3E0FEA3E0FF90000E07
:109600000246FCE4FF900CE3E060037410FF900955
:109610009CE0FE30E004EF4420FFEE30E104EF4434
:1096200002FF22E4900A0CF0906000E0900A0DF036
:10963000906001E0900A0EF0900A0DE05480648082
:10964000600302995AA3E01246D6967E0096AA02BB
:1096500098850697CB2098A53396E93A970F3C97C3
:10966000423D976D3F978F5097A35198CC94991492
:1096700095980CA4982BA5984EBF0000995A900C71
:109680004974E8F0A37403F09009187401F0A3740E
:109690000CF0A37449F0900916E4F0A37402F012E0
:1096A0009CDE900A0CEFF002995AD103900C49EF1E
:1096B000F0E0FCA3E0FDA3E0FEA3E0FFEEEDEC4450
:1096C00008FC900C491246BE9009187401F0A3746E
:1096D0000CF0A37449F0900916E4F0A304F0129C76
:1096E000DE900A0CEFF002995A7A0A79AD900918C7
:1096F0007401F0A3740AF0A374ADF0900916E4F0BD
:10970000A37404F0129CDE900A0CEFF002995A7FC9
:10971000707E3D7D0A7C071267E7900C491246BEB9
:109720009009187401F0A3740CF0A37449F0900927
:1097300016E4F0A37404F0129CDE900A0CEFF00221
:10974000995A7A0A79B19009187401F0A3740AF051
:10975000A374B1F0900916E4F0A37404F0129CDE37
:10976000900A0CEFF0E4900C4DF002995A90091811
:109770007401F0A3740AF0A374B7F0900916E4F032
:10978000A37406F0129CDE900A0CEFF002995A9036
:109790006002E030E008900CE37401F08005E49092
:1097A0000CE3F0D103900C49EFF09009187401F02C
:1097B000A3740CF0A37449F0900916E4F0A304F02C
:1097C000129CDE900A0CEFF002995A906003E0645C
:1097D00087600302995A7B027A607904124D02EF86
:1097E00064014E600302995A900C49F07B01900984
:1097F0001804F0A3740CF0A37449F0900916E4F077
:10980000A304F091DE900A0CEFF0215A900918742D
:1098100001F0A37409F0A3749CF0900916E4F0A37E
:1098200004F091DE900A0CEFF0215A7A0979A290A7
:1098300009187401F0A37409F0A374A2F09009163A
:10984000E4F0A304F091DE900A0CEFF0215A900CA2
:1098500084E0FCA3E0FDA3E0FEA3E0FF1294FB90F4
:109860000C531246BE9009187401F0A3740CF0A3B7
:109870007453F0900916E4F0A37404F091DE900A9A
:109880000CEFF0215A9009187401F0A3740AF0A3A8
:10989000740FF0900916E4F0A37404F091DE900ABE
:1098A0000CEFF0215A900A96E0900C44F0900918C1
:1098B0007401F0A3740CF0A37444F0900916E4F062
:1098C000A304F091DE900A0CEFF0215A900A96E082
:1098D000FF3395E0FEFDFC900C451246BE900C4512
:1098E000E0FCA3E0FDA3E0FEA3E0FF1294FB900CDC
:1098F0004F1246BE9009187401F0A3740CF0A374C3
:109900004FF0900916E4F0A37402F091DE900A0C77
:10991000EFF08046900A7FE0FF3395E0FEFDFC907B
:109920000C451246BE900C45E0FCA3E0FDA3E0FE12
:10993000A3E0FF1294FB900C4F1246BE90091874DE
:1099400001F0A3740CF0A3744FF0900916E4F0A397
:109950007402F091DE900A0CEFF0900A0DE0548052
:10996000600281A2A3E01246D699AF3099CF329916
:10997000F3339A69359A2E3A9B08709B88719B271E
:10998000729BA7739BC6759BE5769C04779B467A72
:109990009C237B9C617D9C427F9B65909C809C9AD4
:1099A0008CA09AABA99ACAF39AE9F700009CA290FE
:1099B00009187401F0A3740AF0A3748CF0900916CE
:1099C000E4F0A37406F091A8900A0CEFF081A27A5B
:1099D0000A79AD9009187401F0A3740AF0A374AD6C
:1099E000F0900916E4F0A37404F091A8900A0CEF2B
:1099F000F081A27A0A79BD9009187401F0A3740A63
:109A0000F0A374BDF0900916E4F0A304F091A890BF
:109A10000A0CEFF0900ABDE0FF3395E0FEFDFC90EC
:109A20000C401246BE9009FEE04401F081A27A0A81
:109A300079A09009187401F0A3740AF0A374A0F03F
:109A4000900916E4F0A304F091A8900A0CEFF090AE
:109A50000AA0E0FF3395E0FEFDFC900C3C1246BEF0
:109A60009009FEE04402F081A27A0A79C6900918B2
:109A70007401F0A3740AF0A374C6F0900916E4F020
:109A8000A304F091A8900A0CEFF081A29009187439
:109A900001F0A3740CF0A3744DF0900916E4F0A348
:109AA00004F091A8900A0CEFF081A29009187401BB
:109AB000F0A3740AF0A37401F0900916E4F0A30473
:109AC000F091A8900A0CEFF081A29009187401F0AF
:109AD000A37409F0A374FAF0900916E4F0A304F05B
:109AE00091A8900A0CEFF081A29009187401F0A3DC
:109AF0007409F0A374F8F0900916E4F0A304F0914F
:109B0000A8900A0CEFF081A29009187401F0A374D8
:109B10000AF0A37402F0900916E4F0A304F091A8EF
:109B2000900A0CEFF081A29009187401F0A3740957
:109B3000F0A3749FF0900916E4F0A304F091A890AC
:109B40000A0CEFF081A29009187401F0A37409F0D7
:109B5000A374A6F0900916E4F0A304F091A8900A6B
:109B60000CEFF081A27A0A79CF9009187401F0A362
:109B7000740AF0A374CFF0900916E4F0A304F091F6
:109B8000A8900A0CEFF081A29009187401F0A37458
:109B900009F0A374FDF0900916E4F0A304F091A875
:109BA000900A0CEFF081A29009187401F0A37409D7
:109BB000F0A3749EF0900916E4F0A304F091A8902D
:109BC0000A0CEFF081A29009187401F0A37409F057
:109BD000A3749DF0900916E4F0A304F091A8900AF4
