:400000000204AE008F828E83E0540100000070F82278FFE4F6D8FD020513BB010689828A83E0225002E722BBFE02E32289828A83E49322BB010689828A83F0225002F722EC
:40004000BBFE01F322C5F0F8A3E028F0C5F0F8E582158270021583E038F022BB010A89828A83E0F5F0A3E022500687F009E71922BBFE07E3F5F009E3192289828A83E4930C
:40008000F5F074019322BB010A89828A83F0E5F0A3F0225006F709A7F01922BBFE06F3E5F009F31922EF2BFFEE3AFEED39FDEC38FC22C3EF9BFFEE9AFEED99FDEC98FC2258
:4000C000E88FF0A4CC8BF0A42CFCE98EF0A42CFC8AF0EDA42CFCEA8EF0A4CDA8F08BF0A42DCC3825F0FDE98FF0A42CCD35F0FCEB8EF0A4FEA9F0EB8FF0A4CFC5F02ECD3919
:40010000FEE43CFCEAA42DCE35F0FDE43CFC2275F008758200EF2FFFEE33FECD33CDCC33CCC58233C5829BED9AEC99E58298400CF582EE9BFEED9AFDEC99FC0FD5F0D6E440
:40014000CEFBE4CDFAE4CCF9A88222B800C1B90059BA002DEC8BF084CFCECDFCE5F0CBF97818EF2FFFEE33FEED33FDEC33FCEB33FB10D703994004EB99FB0FD8E5E4F9FAB4
:40018000227818EF2FFFEE33FEED33FDEC33FCC933C910D7059BE99A4007EC9BFCE99AF90FD8E0E4C9FAE4CCFB2275F010EF2FFFEE33FEED33FDCC33CCC833C810D7079BE4
:4001C000EC9AE899400AED9BFDEC9AFCE899F80FD5F0DAE4CDFBE4CCFAE4C8F922EF4BFFEE4AFEED49FDEC48FC22C3E49FFFE49EFEE49DFDE49CFC22EB9FF5F0EA9E42F065
:40020000E99D42F0E89C45F022E8600FECC313FCED13FDEE13FEEF13FFD8F122E8600FEFC333FFEE33FEED33FDEC33FCD8F122BB010789828A830202695005E9F802046CC1
:40024000BBFE05E9F802047889828A83020275BB010789828A830202915005E9F8020484BBFE05E9F802049022E0FCA3E0FDA3E0FEA3E0FF22E493FC740193FD740293FE49
:40028000740393FF22E0F8A3E0F9A3E0FAA3E0FB22ECF0A3EDF0A3EEF0A3EFF022A42582F582E5F03583F58322E0FBA3E0FAA3E0F922EBF0A3EAF0A3E9F022E493FB740165
:4002C00093FA740293F922BB010789828A830202A95005E9F802049CBBFE05E9F80204A589828A830202BBD083D082F8E4937012740193700DA3A393F8740193F582888356
:40030000E4737402936860EFA3A3A380DFE5092582F582E5083583F583B508048582092210AF06858209F50822858209F508D2AF22EC8EF0A4CCC5F0CCCDF8EFA4CEC5F068
:400340002DFDE43CFCE8A42EC8C5F03DFDE43CFCEFA4FFE5F028FEE43DFDE43CFC22EF4E6012EF60010EEDBB010B89828A83F0A3DFFCDEFA2289F05007F709DFFCA9F0221A
:40038000BBFEFCF309DFFCA9F022E709F608DFFA8046E709F208DFFA803E88828C83E709F0A3DFFA8032E309F608DFFA806EE309F208DFFA806688828C83E309F0A3DFFAFA
:4003C000805A89828A83E0A3F608DFFA804E89828A83E0A3F208DFFA804280D280FA80C680D4805580F28029801080A680EA809A80A880DA80E280CA802988848C85898224
:400400008A83E493A30586F0A30586DFF5DEF3800B89828A83E493A3F608DFF9ECFAA9F0EDFB2288848C8589828A83E0A30586F0A30586DFF6DEF480E389828A83E493A38E
:40044000F208DFF980D688F0EF60010E4E60CD88F0ED2402B4040050C3F582EB2402B4040050B923234582239003DA73E6FC08E6FD08E6FE08E6FF22E2FC08E2FD08E2FEDF
:4004800008E2FF22ECF608EDF608EEF608EFF622ECF208EDF208EEF208EFF222E6FB08E6FA08E6F922E2FB08E2FA08E2F92275930078007583467582E8E04401F000904691
:4004C000ECE0F99046FAE0FA9003E0F0B903225420B40012B8001AEA901FFFF07401901FFEF09046F6F0901FFEE06005901FFFE0FA90480074C0F07581591217F990000073
:4005000078007920E4F0A3D8FCD9FAEA9003E0F002001175081F7509FD12259912148402055D020B10E493A3F8E493A34003F68001F208DFF48029E493A3F85407240CC859
:40054000C333C4540F4420C8834004F456800146F6DFE4800B01020408102040809005A2E47E019360BCA3FF543F30E509541FFEE493A360010ECF54C025E060A840B8E4B5
:4005800093A3FAE493A3F8E493A3C8C582C8CAC583CAF0A3C8C582C8CAC583CADFE9DEE780BE4103E5004103E6004203F209D04203F409D14103FD004403DC016E36004458
:4005C00003D700005DC04103DB184403E12EE000004103FE004303ED0000004103FF004104000000EC4D6011ED60010C8B938A838982E4F0A3DDFCDCFA759300220221C726
:40060000EC4D4E700D78FCEF24E950032840FD2200007BF178DA0000EF28FF78FFEE38FEED38FDEC38FC50E7EF2BFFEE38FEED38FDEC38FC40F22205020304758600EF4E6B
:400640006027EF60010E759300900005E0F595A3E0F585A3E0F5848B938A838982E0A30586F0A31586DFF6DEF4E4F593F59522ACEAADA08E838F82E493F9601CA3E493F564
:40068000EAA3E493F5A0A3E49360F1FAA3E493F8A3E493F2DAF6D9E48DA08CEA22323200EEFA9003DBE0F88FF0A4FFAEF0E88AF0A42EFEE5F03400FDEF24C9FF78FFEE38CA
:4006C000FEED38FDE438FC500302060022758600EF4E601BEF60010E8C838D828B958A858984E493A30586F0A31586DFF5DEF3E4F59522EF54016004D2AF8002C2AFEF5473
:4007000002FF9044F4E054FD4FF0229044F4E0F84402F0E85402FF10AF012274014FFF228B938A838982E0FFA3E0FE759300228B938A838982EDF0A3ECF075930022900375
:40074000E0E0FA8E838F827400758101738B938A838982E0759300FF228B938A838982EDF0759300221201000200000008B4041DB701300203800109022900010100C002EB
:400780000904000002030000030921110100012224000705010340000107058203400001040309040C03410045003900520042002C034300790070007200650073007300F0
:4007C0002000530065006D00690063006F006E0064007500630074006F0072002203500053006F0043003300200042006F006F0074006C006F006100640065007200000A98
:40080000033000300030003100240005010900A1000900A1000900150025FF7508954091020900150025FF750895408102C0C00000240005010900A1000900A1000900151C
:400840000025FF7508954091020900150025FF750895408102C0C00000004101028E0102D200410102D50102CF00FF085900FF08610000000001FF083101FF078901FF08AD
:400880006900000103004003000082030040030301FF077702FF088101FF087D00FF088F01FF07650000000001FF089001FF08A00001010001000000400000080800080093
:4008C000C000006F0B00400000000040600060000000170045017E02004F010A4B00520509400C20102011207C400064017D01010501EE010109019C80010B039C80AA40FE
:40090000B401010C05B880BE41D804DB04DF01010D0618011A80588068028802D608011701EE0A0119029C80EE0A011B01B080014004320433803640CC700141039608A6B6
:4009400040A78001420A12805B0296089B02A640A780AB02C410D640EE80014303A640A780AE8401450464048804D801E401014603A102B502EC0801470408080F40A1021F
:40098000C20C014803AE40AF80EE50014C070F406102A102AC08AF40C204D802014D02B340EA04015101003A004F00000C005100001000513000400100001000011400086D
:4009C000000140000A00014C000200015000002036000040006930091E033C010144E342830143009481424400C0E0C0F0C083C082C085C084C086758600C093759300C0F0
:400A0000D075D000C000C001C002C003C004C005C006C0079003E6E014604814607414700241C12403600241E19003EA1202A99003E5E0FF04F0E92FF9E43AFA12001A90EB
:400A400003E7F0E0FE5407A3F0EE70179003E5F09003E97402F09003E8E4F09003E67403F0807E9003E7E0FF30E7089003E97403F080069003E97401F0EF25E09003E7F0C4
:400A8000A3E014F0710AEF54FEFF71049003E67402F09003E9E070219003E67403F09003E8E07006A37402F080059003E9E4F0710AEF4401FF710480089003E9E014F08099
:400AC000209003E9E070149003E8E070069003E6F0800E9003E67401F080069003E9E014F0D007D006D005D004D003D002D001D000D0D0D093D086D084D085D082D083D057
:400B0000F0D0E03290647DEFF02290647DE0FF227BFF7A0979DD9003EA1202B21222C1EF30E01E12230EEF600E7BFF7A0979E49003EA1202B2800AE4FF7156EF7003FF91F4
:400B4000DD7E097FE9B1ECB1C8D2AF9044F474FDF0B14180FE228F46AD467F0312181AEF2401FFE43EFEE43DFDE43CFCE4FB7A01F9F81200C0C004C005C006C007AD467FB7
:400B80000412181AD003D002D001D0001200A58F4E8E4D8D4C8C4BC201E4F54FAD467F0312181AEF2401FFE43EFEE43DFDE43CFCE4FB7A01F9F81200C08F4A8E498D488C49
:400BC00047AF4EAE4DAD4CAC4BAB4AAA49A948A847C31201F85032854A82854983E493F5506005F46002D201E550254FF54FAF4AAE49AD48AC47E47B01FAF9F81200A58F6C
:400C00004A8E498D488C4780B8AD467F0312181AEF2401FFE43EFEE43DFDE43CFCE4FB7A01F9F81200C078031202098F4A8E498D488C47E47FC07EFFFDFCAB4EAA4DA94C02
:400C4000A84BC31201F87007FF7E20FDFC800DAF4EAE4DAD4CAC4B78031202098F4E8E4D8D4C8C4BAF4EAE4DAD4CAC4BAB4AAA49A948A847C31201F85039E4254AFFE435BF
:400C800049FEE5483408FDE43547A907AA06AB0512074DEF254FF54FAF4AAE49AD48AC47E47B01FAF9F81200A58F4A8E498D488C4780B1E54FF404F54FAD467F0112181A80
:400CC000A804A905AA06AB07AF4FE4FCFDFEC31201F870032001037F06227F00228F21E521B402079046FAE4F0804EAF217156EF7042F522E522C394015031AF227E007CD3
:400D0000017D00120331C374D09FFF74FF9EFE74109DFDE49CFCE522B521047B0180027B00900004EBF0D148052280C89046FA7480F080059046FAE4F09046F6E04401F092
:400D400022752106E4FF7156EF7002F521E4F54DF54CF54BF54A9003F4E0FEA3E0F5828E831202758F518E508D4F8C4EE4FFFE7D10FC1217949003F2E0FCA3E0F5828C83B0
:400D8000E493FEC3EF9EFFF404FFB506129003F4E0FEA3E0F5828E83120275EF4E70057F0012231D9046FAE054C064406004E52160099046FAE4F0FF121BB3E4FF121BB3AE
:400DC0009046FA7480F0A1399003FDE07008D10E9003FD7401F09043A3E04401F09043B3E04401F0904F00E04401F022900000EEF0A3EFF01222DE900000E0FEA3E0FF1269
:400E000022C77F071222D49044C07404F022904F00E05401F0904F02E054FCF0904F01E04401F0904F0BE054CFF0E04430F0E054F0F0E0440FF07FF01223017FF01222E59E
:400E4000E4FF904F03EFF022900000120291900000120269E42FFFE43EFEED34F0FDEC34FFFC900005120291E4FBFA7901F890000512026912014B900109EFF090000512FA
:400E80000269EFEEE4FDFCFB7A01F9F812014B90010AEEF0A3EFF0900000120269EFFBE4FAF9F89000001202691200B290010C120291E4FBC3EA9401502590010C120269C4
:400EC000EF2BFFEE3A8F82F583E493FF74092BF58274003AF583EFF00BEB70010A80D5900000120269EFE4FE74092FF582EE3400F583E0FD900004E0FCED6C601F74092F5C
:400F0000F582EE3400F583ECF0900109E0FFA3E0FCA3E0FD7B017A007909F11D22900110EFF0D3943F40067E007F1080047E017F00900111EEF0A3EFF0900111E0FFA3E0A3
:400F4000900265CFF0A3EFF0900110E0FF900260ECF0A3EDF0A31202B290025FEFF0E4900267F0EFD3943F500E90025FE0940140069002677401F090025FE0FFD3947F4072
:400F8000069002677401F0EFC39440400CEFD3944140069002677401F0EFD3943F501E900260E0FEA3E0FFE4FCFDFB7A01F9F8C31201F8502F9002677401F08027D3900270
:400FC00061E09480900260E0940040069002677401F0900265E07004A3E0641060069002677401F09002621202A9E94A4B700590026704F0900267E060030210C712118B38
:40100000EF600201C1900260E0FCA3E0FDA31202A9900265E0FFA3E090026ECFF0A3EFF090025FE0FF51B1900267EFF06407600201BD904722E0540270087F01FE1206A043
:4010400080F0904722E054026009E0FF1313543FFF80027FFFEF7006900267F0800690026774FFF0900267E0705390025FE0FFA3E0FCA3E0FD9003F0E0FBA3E090026CF067
:401080005107900267EFF064077032904722E0540270087F01FE1206A080F0904722E054026009E0FF1313543FFF80027FFFEF7006900267F0800690026774FFF011CD80E9
:4010C000069002677404F0900267E0FF2212070BE4900400F00206F331AA318BEF703931BE900260EFF06407702A904722E0540270087F01FE1206A080F0904722E0540298
:401100006009E0FF1313543FFF80027FFFEF7004900260F011CD80069002607404F0900260E0FF2211D890025FEFF07007313A90025FEFF090025FE0FF2231AA900260741B
:40114000FFF0318BEF70387F0131D9EF6407702B7B017A0379F07D02515BEFB40215E4900260F0904722E0540270107F01FE1206A080F0904722E0540260D511CD800690F4
:4011800002607404F0900260E0FF229002687404F012070B900400E0700704F0E4900268F01206F3900268E0FF2212070B9043A0E04408F09043B0E04408F00206F37F0766
:4011C000904722E05402600E90472074B6F074E0F0740DF080027F04227E07904722E05402601F90472074B6F074E1F0740EF0904722E054027007904720EFF080067E09E1
:4012000080027E04AF0622900269ECF0A3EDF0AC077D07904722E05402603B90472074B6F074D8F07405F0904722E054027023904720ECF0900269E0904720F0900269E093
:40124000A3E0904720F0EBF090026CE0904720F080067D0980027D04AF05229002611202B2900264EDF0E4A3F0900264E0FFA3E0C39F5037904722E054016003D38001C393
:4012800040097F017E001206A080E9904720E0FF9002611202A9900265E029F9E43AFAEF120033900265E004F080BE900265E0FF22900268EFF0A3ECF0A3EDF0A31202B2B9
:4012C0009002707407F0904722E05402700261BD90472074B6F074D5F07402F0904722E05402600261B5900268E0904720F0E4900271F0A3F090026EE0FEA3E0FF900271DD
:40130000E0FCA3E0FDC39FEC9E501F90026B1202A9E92DF9EA3CFA12001A904720F0900271E475F00112004580CB90026EE064017002A3E0600261C3900268E0FFD3943FCC
:40134000400261C37E007C207D00120331E42FFFE43EFEED3408FDE43CFCC004A905AA06AB07A3E0FEA3E0FF7C007D20120331D0001200A5900273120291E4900271F0A3D5
:40138000F0900271E0FEA3E0FFC39420EE94005032E4FCFDA31202851200A5A907AA06AB0512074D904720EFF0900271E475F00112004580CC9002707409F080069002705C
:4013C0007404F0900270E0FF227B007A4079807DBF7C5D12072F9040827419F09043007406F07B007A4279127D177C3312072F9042107405F0E0FFE47FC87E32FDFC900010
:4014000000120291900000120269D3EF9400EE94004029904210E054806021E47FE07E01FDFC12060090000012026974FFFBFAF9F81200A590000012029180C890420074EF
:4014400052F07B0C7A01790F12074D9046A1EFF07B007A407904E4FDFC12072F9040047407F0904006E4F09040087448F0904004E4F0904009F09040017402F09043A2E0A3
:401480004401F0227B007A4679E812074DEF4405FD7B007A4679E8120759E4F523E523C39408502CE52375F005A424A8F582E43409AF82F5218F22F5831202BB8F82852141
:4014C00083740393FC740493FD1205E4052380CD7E087FD212066F7B017A50790312074DEF4402FD7B017A5079031207597B017A50791312074DEF4402FD7B017A507913C3
:401500001207599043A0E04440F09043C2E04410F07C087DB07B007A5179C27F087E001206CD7C087DB87B007A5179F07F0A7E001206CD7C087DC27B007A5179127F087EB0
:40154000001206CD7C087DCA7B007A5179227F087E001206CD9044F47401F0904322E04408F09046ECE0C394055006904689743AF090480074F1F071C990480074B1F0B15C
:40158000A27B007A4379A0C00179B09000051202B2D0017F0E7E0012063B9043B0E054FDF0227B0C7A0179CF12074DEF540790586EF0EFC4540FA3F09058767444F0228B62
:4015C0004E8A4F89508C518D5274FFF553F554855157855258E552455170086354FF6353FFC16BC3E5589552FFE5579551FEAB4EE5502FF9E54F3EFA12001A755500F556EA
:40160000E4FDEDC39408503DE5565401FFE5545401FBE4EB6F6015E553C313FEE55413FFEE6484F553EF6408F554800BE553C313F553E55413F554E555C313F555E55613EE
:40164000F5560D80BDE552155270021551E552455170906354FF6353FF855355855456E554FCE555FFECF553EFF554AE53AF54228B478A4889497401120033AB472549F942
:40168000E43548FAEF120033E54BAB47E5492402F9E43548FAE54B120033E54AFFAB47E5492403F9E43548FAEF120033AB47AA48A949E54B2404FDE4354AFCB1BF8E4C8FFC
:4016C0004DEFAB47E54B2404FDE4354AFCE5492DF9E5483CFAEF120033E54CFFAB47E54B2405FDE4354AFCE5492DF9E5483CFAEF120033AB47E54B2406FFE4354AFEE54981
:401700002FF9E5483EFA7417120033E54B2407FDE4354AFC75530075540075554A755696AB47AA48A9498C518D52E55675F00AA485F058F559900263E4F0A37440F07F0203
:401740001227F97F02F183EF7019E55945586013E47F01FEFDFC122331E55915597002155880E07F02F183EF70057557108011AB53AA54A955E5518552F0120086E4F5574B
:40178000AF5722EF75F00BA42431F582E43403F583E0FF228F498E488D478C46E4F552D3E5519400E5509400404CAF51AE50AD4FAC4E74FFFBFAF9F81200A58F518E508DDE
:4017C0004F8C4EE549254DFFE548354CFEE547354BFDE546354AFCEF2551FFEE3550FEED354FFDEC354EA907AA06AB0512074DEF2552F55280A9AF52229046FAE054C064DD
:40180000807016F521F0AD217F02111AEF4E6009AD217F02111A12073E2290025FEDF0AB079002647402F0E4FFFEFDFCA3120291EB1202E7185C0118880218AC0318D004DB
:4018400018F405191E06196C0719480819900919B40A19DE0B1A080C00001A3290025FE0FF7E007C017D001203311201EAEF24C0FFEE34FFFEED3410FDE43CFCA312029112
:401880009002647401F0413D90025FE0FF7E007C017D00120331C374C39FFF74FF9EFE74109DFDE49CFCA3120291413D90025FE0FF7E007C017D00120331C374C79FFF741C
:4018C000FF9EFE74109DFDE49CFCA3120291413D90025FE0FF7E007C017D00120331C374CB9FFF74FF9EFE74109DFDE49CFCA3120291413D90025FE0FF7E007C017D0012F6
:401900000331C374D09FFF74FF9EFE74109DFDE49CFCA31202919002647401F0413D90025FE0FF7E007C017D00120331C374D19FFF74FF9EFE74109DFDE49CFCA3120291DF
:401940009002647401F0413D90025FE0FF7E007C017D00120331C374D69FFF74FF9EFE74109DFDE49CFCA3120291413D90025FE0FF7E007C017D00120331C374D29FFF743D
:40198000FF9EFE74109DFDE49CFCA3120291413D90025FE0FF7E007C017D00120331C374D49FFF74FF9EFE74109DFDE49CFCA3120291413D90025FE0FF7E007C017D00122C
:4019C0000331C374D89FFF74FF9EFE74109DFDE49CFCA31202919002647404F0805F90025FE0FF7E007C017D00120331C374DC9FFF74FF9EFE74109DFDE49CFCA3120291A8
:401A00009002647401F0803590025FE0FF7E007C017D00120331C374E09FFF74FF9EFE74109DFDE49CFCA31202919002647404F0800BE4FFFEFDFC90026012029190026412
:401A4000E0B40119900260120269A907AA06AB0512074DE4FCFDFE900265120291900264E06402705C900260120269EF2401FFE43EFEE43DFDE43CA907AA06AB0512074DFE
:401A8000E4FCFDFE900265120291900265120285C000C001C002C003900260120269A907AA06AB0512074DE4FCFDFE780812021CD003D002D001D0001201DD900265120268
:401AC00091900264E06404600261AD900260120269EF2403FFE43EFEE43DFDE43CA907AA06AB0512074DE4FCFDFE900265120291900265120285C000C001C002C0039002B0
:401B000060120269EF2402FFE43EFEE43DFDE43CA907AA06AB0512074DE4FCFDFE780812021CD003D002D001D0001201DD900265120291900265120285C000C001C002C0F0
:401B400003900260120269EF2401FFE43EFEE43DFDE43CA907AA06AB0512074DE4FCFDFE781012021CD003D002D001D0001201DD900265120291900265120285C000C00196
:401B8000C002C003900260120269A907AA06AB0512074DE4FCFDFE781812021CD003D002D001D0001201DD900265120291900265020269900000EFF0E4F541F54275430A68
:401BC000C200F544F545121124EF60057F0012231D1227ADD2AF9044F474FDF0E4F53D754B00754C00754D39900000E0FF70067EFF7FFF80008F4E7B017A0079017D2C7C50
:401C0000011223958F40900000E060021543E5436004E54070C9E54060030221B7C3E53A9407E53994004008900001E064016005753D0481BB900004E0FE900003E0FDEE20
:401C4000F541EDF542E5422407FFE43541FED3EF953AEE95395008EF942CEE94014005753D03805774062542F58274003541F583E0FE74052542F58274003541F583E0FD8B
:401C8000EEF53EEDF53F74072542F58274003541F583E064176005753D04801F7B017A007901E5422404FDE43541FC1215BFEF653F7003EE653E6003753D08E4F53BF53C21
:401CC000E53D60030221A6900005E0F538753D04900002E01202E71CF6311D23321DA9341F4A351F58371FA4381DA9391FE63A218D3B000021A32000030221A6E542454157
:401D000060030221A6FF120B56EF70047F0180027F00900005EFF0753B00753C01E4F53D0221A62000030221A6E5426401454160030221A6E538C3940140030221A690032E
:401D4000F4E0FEA3E0F5828E83120275E4FBFA7901F812014B8F24E538B5241E9003F4E0FEA3E0F5828E83120275E4FB7A01F9F812014B7522008F238014E538D395244025
:401D800007E4F522F5238006752201752300E523900005F0E522A3F0A374FFF0E4A3F0F53B753C04F53D0221A6900002E06434703C2000030221A6E54264034541600302B4
:401DC00021A6E538C39440400FE538D3947F50087544007545108006754401754520AE44AF457D007B017A01792D12035E2000030221A6C3E5429403E54194005003022111
:401E0000A6E54224FDFFE54134FFFE742D2545F974013544A801FC7D017B017A007908120446E54224FDFFE54134FFFEEF2545F545EE3544F544E538C39440401BE538D3A6
:401E4000947F501412222E754100754210900259E4F0A37480F0800F7541017542209002597401F0A3E4F0E54565427004E54465416002E13F900007E0FE900006E0FDEE76
:401E8000F544EDF545D390025AE09545900259E0954440047F0080027F0A8F3DE53D60030221A6E538D3943F506FE5387F00FEEF2545FFE5443E90025BF0A3EFF09003F4FC
:401EC000E0FEA3E0F5828E83120275E4FB7A01F9F812014B90025DEEF0A3EFF09003F4E0FEA3E0F5828E83120275EFE4EF600A90025DE475F00112004590025DE0FEA3E073
:401F0000FFC390025CE09F90025BE09E500B753D0AE4F544F5450221A67B017A01792D900265E541F0A3E542F0AD45AC44AF38120F4DEF60047F0A80027F008F3D80037594
:401F40003D03E4F544F5450221A62000030221A6E4F544F5450221B72000030221A6E5452542FFE5443541FED3EF942CEE9401502DE4F53DAE41AF42742D2545F9740135A5
:401F800044A801FC7D017B017A007905120446E5422545F545E5413544F5440221A6753D030221A6E5424541703678257C00FD7BFF7A0979D5FE7F08120446D200753B00E9
:401FC000753C08E4F544F545AE3BAF3C78057C007D01FB7A007925120446E4F53D0221A6753D040221A62000030221A6E5426403454160030221A6900007E0FE900006E0A2
:40200000FDEEF52FEDF530E538C394404057E538D3947F5050512EAE2FAF307C007D101203318F368E358D348C33C3E5309480E52F940050047F0080027F0A8F3DE53D603F
:402040000221A685364D85354C85344B85334AE4755110F550F54FF54EFF7E80FDFC1217948F378069AE2FAF307C017D00120331C004C005C006C007AF38E4FCFDFEFBFAD2
:402080007901F81200C0D003D002D001D0001200A58F368E358D348C33C3E52F940150047F0080027F0A8F3DE53D600221A685364D85354C85344B85334AE4F55175500172
:4020C000F54FF54EFFFE7D10FC1217948F37E538D3943F5072AF387E007C207D00120331E42FFFE43EFEED3408FDE43CFCC004A905AA06AB07AE2FAF307C007D20120331A4
:40210000D0001200A58F368E358D348C33E4F52DF52EC3E52E9420E52D9400502AE4E52E2536FFE52D3535FEE43534FDE43533A907AA06AB0512074DEF2537F537052EE5D7
:402140002E7002052D80CB852F31853032E538702AAE31AF32FCFD7BFFFAF9F8C31201F87019FD7F0512181AC3E5379FF537E4FD7F0612181AC3E5379FF537E537F40490E3
:402180000005F0E4F53DF53B753C018019E4FF120B56EF70069046FA7480F01205FD120D398003753D057B017A007901853B4A853C4BAF3D121670900000E07003021BDC9E
:4021C000300003021BDC2212070B906008E0547FF0906012E054FBF09043A5E054FEF09043B5E054FEF09051F8E04480F0E04440F01206F39044CA7480F0A37401F0904443
:40220000CA7420F09044C87401F004F0515E9044D97410F0E4900323F090032BF090031FF0900325F090032AF09003FFF02212070B9043A0E04408F09043B0E04408F090D6
:40224000470174C8F09043ACE04410F09043BCE04410F0904700E0542060F80206F390458FE054407E007806CEC313CE13D8F9FF22C0E0C0F0C083C082C085C084C08675B2
:402280008600C093759300C0D075D000C000C001C002C003C004C005C006C007515ED007D006D005D004D003D002D001D000D0D0D093D086D084D085D082D083D0F0D0E0EA
:4022C0003290646DE0FF227B027A447904AD07AC06020731EFC43354E0904482F0229044C87404F0229043A3E04401F07B027A4F7906EFFD7C001207319043A3E054FEF0B0
:40230000227B027A4F7904EFFD7C00020731904210E0548060047F0180027F002290FFFF12030DEFF09046EA7401F090000102030D90FFFC12030D120291850883850982B0
:40234000120269D3EF9400EE9480402E9003E1120269120600850883850982C083C082120269E42FFFEE3480FEED34FFFDEC34FFFCD082D08312029180C09003D712026994
:402380008508838509821202851200C012060090000402030D8B468A4789488C498D4AE54E75F00AA485F050F551D3E54A9440E54994004006754900754A409003FEE060F8
:4023C0002D9167EF7018E55145506012E47F01FEFDFC7131E55115517002155080E39167EF601791A7916DE49003FEF0800C91A7EF60079167EF6002916DE54E75F00AA491
:4024000085F050F5517F01121783EF64016018E55145506012E47F01FEFDFC7131E55115517002155080DE7F01121783EFB40125AB46AA47A948900263E549F0A3E54AF0F1
:402440007F0191B4AB4BAA4CA94DEE8FF0120086E4F54F800FAB4BAA4CA94DE4F5F0120086754F10AF4F2290032BE0FF227F01EFD394004031EF9409502CEF75F00BA4248D
:4024800031F582E43403F583E4F0EF75F00BA42435F582E43403F583E0FE75F010EF905FFE12029DEEF022E4FF900323E06004E0FFE4F02290025FEFF0A31202B2900260EA
:4024C0001202A9E94A4B7002A14E90025FE0FFD39400407AEF94095075B15ED3900264E09F900263E09E400990025FE0FFB15E8008900263E0FEA3E0FF900263EEF0A3EFCA
:40250000F0E4A3F0A3F0900263E0FEA3E0FFA3E0FCA3E0FDC39FEC9E502B90025FE075F01090607812029DE0FF9002601202A9E92DF9EA3CFAEF120033900265E475F00155
:4025400012004580C190025FE0FF916F8007E4900263F0A3F0900263E0FEA3E0FF22E4FDFCEFD39400402AEF9409502575F010EF905FFC12029DE0540FFD75F010EF905F68
:40258000FD12029DE0FBEDFCEBFD24FEFD74FF3CFCAE04AF052280FE32E4900000F0900000E0FFD3941F5020EF75F002A42400FFE5F03444FAA9077B017C257D9612073168
:4025C000900000E004F080D622900263ECF0A3EDF0900262EFF0541F25E0FFE433FEE42FFFEE3444FAA9077B01120722900265EEF0A3EFF0900262E075F002A42400FFE538
:40260000F03444FAA9077B01A3E0FEA3E0FFFDAC06120731900265E0FEA3E0FF2212070B900261EFF09043A5E04401F09043B5E04401F090609D7401F090600904F09060A8
:4026400010E0547FF0E4FFFE1206A0904394E054F9F0906012E054DFF0904394E04401F07F017E001206A07F287E001206A09051F8E0547FF0E054BFF0904394E04402F09A
:402680007F027E001206A0904394E04404F0906084E4F0A3F0900261E0FF1206F37D077F17D1F17C377D937F17B1C97D077F18D1F17C297D1F7F18B1C97D077F15D1F17CF8
:4026C000067D9E7F15B1C97D07E4FFD1F17C367DF3E4FFB1C97D077F01D1F17C377D437F01B1C97D077F0CD1F17C227D717F0CA1C9AC07ED540775F020A4FFEC541F248058
:40270000F582E43444F583EFF02290025FEFF0A3EDF09003FFE07008D11D9003FF7401F090025FE0FFA3E0FDE4FE7E019003F87401F0A3DEFC7E01900329EFF0E490032857
:40274000F0900323F090032BF090031FF0900325F090032AF0900320F09044C27480F0A37401F09044C27420F09044C07401F004F0ED14600C047012906009E054FEF08064
:4027800010906009E04401F08007906009E04401F09060287403F09060087480F0E47F01FEFDFC1206009060127404F022D2AF9044F474FDF07D02E4FFF10A9003FE7401FF
:4027C000F022E4FF7F019003F87401F0A3DFFCE4900328F0900323F090032BF090031FF0900325F090032AF0900320F09060287403F09060087480F0229002601202B290B4
:40280000025FEFF0D394005002211EE0FF94094002211EEF75F00BA42436F582E43403F583E0FEA3E0FFC3E49FFF74029EFED3900264E09F900263E09E402490025FE075E0
:40284000F00BA42436F582E43403F583E0FEA3E0FFC3E49F900264F074029E900263F0900263E0FCA3E0FDECFF90025FE0FE75F00BA42433F582E43403F583E04FFF75F0BD
:4028800010EE905FFC12029DEFF0ED90025FE075F010905FFD12029DEDF09002601202A9E94A4B6046E4900265F0A3F0900263E0FEA3E0FFA3E0FCA3E0FDC39FEC9E502B06
:4028C0009002601202A9E92DF9EA3CFA12001AFF90025FE075F01090607812029DEFF0900265E475F00112004580C190025FE0FF75F00BA42431F582E43403F583E4F0EFB2
:4029000075F00BA42435F582E43403F583E0FF90025FE075F010905FFE12029DEFF022C0E0C0F0C083C082C085C084C086758600C093759300C0D075D000C000C001C0024A
:40294000C003C004C005C006C007906028E0900277F0E0FF5410700221FEA37401F0EF54806020900277E0540F64016005A3E4F0802FD1DB90032CE054806025900278E4A0
:40298000F0801E900277E05440600451218012900277E05420600512301A8005900278E4F0900278E06057906028E0900277F0E05480704A90032FE0FF900327E04F900207
:4029C00077F0E0FF906029F0E0FEEF6E703090032CE0900278F0906028E05480900277F0E0700F90032CE0906028F0E0540F900278F090032CE0FF900278E0B507D0D00721
:402A0000D006D005D004D003D002D001D000D0D0D093D086D084D085D082D083D0F0D0E032900328E024FC600A24FE6008240470068005E1ABF1BB22E4FD900320E0FF9059
:402A4000032DE48FF0120045D3900318E09400900317E09400403AED940850359003191202A912001AFFE42DF582E43460F583EFF09003191202A9E92401F9E43AFA9003CE
:402A8000191202B20D90031774FFF5F012004580B7900320E064086006EDD394004015900327E06480F090032C740FF09003287402F0800A90032C7402F0900328F09003DE
:402AC0002FEDF0900320F0221202B2900317E07002A3E070051230CE802F9003287402F0E4900327F01235FA906007E0FE906006E0FDEEEDFFD3900318E09F900317E09EF5
:402B00004005EEF0A3EFF051387F0122E490027AF0906000E090027CF07B007A007900A31202B2E4900317F0A3F090027CE0548064806002A125906001E07002817424F80D
:402B4000700281E624FE7002A10224046002C1BD906003E0B4012B123E55900280EEF0A3EFF0F5828E83A31202BB9003191202B2900317E4F0A37412F051CB90027AEFF069
:402B8000C1BD906003E064027060906002E0FF123432900280EEF0A3EFF04E7002C1BD900280E0FEA3E0F5828E83A31202BB9003191202B29003191202A9E92403F9E43A26
:402BC000FA12001AFE9003191202A9E92402F9E43AFA12001AFDEEEDFF900317EEF0A3EFF051CB90027AEFF0C1BD906003E064037079FF7BFF7A0779A090027D1202B290FB
:402C00006002E0D39F401F90027D1202A912001A601412001AFE7C0029F9EC3AFA90027D1202B20F80D9906002E0FF6016900775E493FEEFB5060C7BFF7A0779FF90027DF0
:402C40001202B290027D1202A912001A7002C1BD12001AFF900317E4F0A3EFF09003191202B251CB90027AEFF0C1BDF13D90027AEFF0C1BD90027CE05403603F24FE600285
:402C8000C1BD900317E4F0A37402F0906004E0547F75F00BA42432F582E43403F583E09003FBF0E4A3F07B017A0379FB9003191202B251CB90027AEFF0C1BD900317E4F03D
:402CC000A37402F090032AE09003FBF0E4A3F07B017A0379FB9003191202B251CB90027AEFF0C1BDC1BD900317E4F0A304F0FB7A03792B9003191202B251CB90027AEFF0AD
:402D0000C1BD900317E4F0A304F0906004E02416F9E43403FA7B0190031951C890027AEFF0C1BDC1BD906001E0147002A1E924FE7002C15924FA601B24FE60702406600216
:402D4000C1BD906002E0900325F0D1C390027AEFF0C1BD906002E090027BF0D39400400EE014FF123432900280EEF0A3EFF090027BE0FFD39400400A900280E07002A3E079
:402D80007005EF6002C1BD90032BE0FF90027BE0FE6F600F90032BEEF09003237401F0FF1238CAD1C390027AEFF0C1BD123687EF7002C1BD906004E0FE90031FF074162EC8
:402DC000F582E43403F583E0FF74242EF582E43403F583E06F60099003237401F0123C52D1C390027AEFF0C1BD90027CE05403601A146031146002C1BD906002E06002C15D
:402E0000BD123EF590027AEFF0C1BD906002E064016002C1BD90032AE054FDF0D1C390027AEFF0C1BD906004E0FFC394014002C1BD74262FF582E43403F583C083C082E012
:402E4000FF906002E0F4FEEF5ED082D083F0D1C390027AEFF08066806490027CE05403601614602B147056906002E07050123E6E90027AEFF08046906002E06401703E90BA
:402E8000032AE04402F0D1C390027AEFF0802E906004E0FFC39401502474262FF582E43403F583C083C082E0FF906002E0F4FEEF5ED082D083F0D1C390027AEFF090027A9B
:402EC000E0FF229003287406F090032CF09003277480F0E490032FF07F0122906028E0900279F0E0906028F0E0900279F0E0FF5480600690032CEFF0227F02F1DD90600059
:402F0000E0546024E0601124E060162440701C710C900279EFF08018F13D900279EFF0800F123FD0900279EFF08005E4900279F0900279E0700690032C7403F022E49002EA
:402F400083F0906000E0540324FE600D047024906004E0900282F0801F906004E0547F75F00BA4243AF582E43403F583E0900282F08005E4900282F0900282E0FFD394014A
:402F80005023900321E0FCA3E02FF582E43CF583E49324FD700A123122900283EFF08005E4900283F0900283E0FF22E4900328F07F01F1DD90032C7403F022900325E06041
:402FC0000CE04480906008F0E4900325F0E4900328F07F01F1DD90032C7403F02290031C1202A9E94A4B603190031C1202A9EF12003390032DE0FEA3E0FF90031C1202A9E1
:40300000E92401F9E43AFAEE8FF01200867B007A00790090031C1202B222900328E024FC600A24FE60082404700F800E802B7F03122FDD90032C7403F022900320E0FF90CE
:40304000032DE48FF0120045E4900328F07F01122FDD90032C7403F022E4FF906029E0540F24FEFEFD90032DE48DF0120045D3900318E09400900317E09400403CEED3943C
:40308000004036E42FF582E43460F583E0FD9003191202A9ED1200339003191202A9E92401F9E43AFA9003191202B20F1E90031774FFF5F012004580B5AF0690032FEEF09E
:4030C000900327E06480F090032C740BF0229003287402F09003277480F090032C740FF0E4900320F090032FF07F01229003287404F09003277480F0B1FA906007E0FE9075
:403100006006E0FDEEEDFFD3900318E09F900317E09E4005EEF0A3EFF090032C740BF07F0122E4900284F0906004E0900285F0906000E0548070024107A3E014604F1460FB
:403140006414700221D724FD600241DD906003E0B42118917F900317E07002A3E0700241DD122ACB900284EFF041DD906003E06422600241DDB128900317E07002A3E07032
:403180000241DD122ACB900284EFF041DD51E3900317E07002A3E0700241DD122ACB900284EFF041DD900285E0FFC39401400241DD906002E0600241DD900317F0A304F047
:4031C00074F72FF9E43403FA7B01900319122AC8900284EFF041DD900285E0FFC39401400241DD900317E4F0A304F074F82FF9E43403FA7B019003191202B2122ACB9002F5
:4032000084EFF041DD41DD906001E024F6602214700241B62402600241DD51E3900317E07002A3E0700241DD11EC900284EFF041DD900285E0FFC39401400241DD9060026C
:40324000E0600241DDA3E0FE74F72FF582E43403F583EEF074F62FF582E43403F583E0FE74F72FF582E43403F583E0C39E5011900285E024F6F582E43403F583E4F0802C89
:40328000900285E0FF24F6F582E43403F583E0D39401401874F72FF582E43403F583E0FE74F62FF582E43403F583EEF0122EC3900284EFF08027900285E0FFC39401501DF7
:4032C000906002E0FE9401501474F82FF582E43403F583EEF0122EC3900284EFF0900284E0FF22E4900317F0A3F090032BE014FF9132900286EEF0A3EFF0906003E0900211
:403300008BF0906004E090028CF02402FFE433FEEF7802C333CE33CED8F9FF900287E02FFF900286E03EFEF0A3EFF0F5828E83A31202BBAF01900286EAF0A3EFF090028CEF
:40334000E0FFC394014002813174162FF582E43403F583E075F004A4FFAEF0900287E02FF0900286E03EF0E0FEA3E0F5828E83A31202BBAF01900286EAF0A3EFF090028BFB
:40338000E0FFC3940150028131EFD3940340028131EF24FFFFE434FFFEEF7802C333CE33CED8F9FF900287E02FFF900286E03EFEF0A3EFF0906002E0FD90028BF08F828E19
:4033C00083E493C39D406A900286E0FEA3E0F5828E83A31202BB9002881202B290028BE075F008A4FF9002881202A9E92FF9EA35F0FA9002881202B29002881202A9E924B4
:4034000002F9E43AFA1202C79003191202B29002881202A912005BFF900317E5F0F0A3EFF0E92405F9E43AFA1202C790031C1202B22290028DEFF0900329E025E025E0249B
:40344000ADF582E43408F5831202BBAE02AF01EF2408FFE43EFE8F82F583E493FD90028DE0FCC39D4005E4FEFF80138F828E8375F004EC12029DA31202BBAE02AF0122906A
:40348000032BE014FF9132900286EEF0A3EFF0906004E0900288F02402FFE433FEEF7802C333CE33CED8F9FF900287E02FFF900286E03EFEF0A3EFF0F5828E83A31202BBD3
:4034C000AF01900286EAF0A3EFF0A3E02416F582E43403F583E075F004A4FFAEF0900287E02FF0900286E03EF0E0FEA3E0F5828E83A31202BBAE02AF01900286EEF0A3EFD6
:40350000F02410FFE43EFE900286F0A3EFF0F5828E83A31202BB12001AFF900317E4F0A3EFF09003190202B290032BE014FF9132900286EEF0A3EFF0906004E090028BF06A
:403540002402FFE433FEEF7802C333CE33CED8F9FF900287E02FFF900286E03EFEF0A3EFF0F5828E83A31202BBAF01900286EAF0A3EFF090028BE02416F582E43403F583E7
:40358000E075F004A4FFAEF0900287E02FF0900286E03EF0E0FEA3E0F5828E83A31202BBAE02AF01900286EEF0A3EFF0240CFFE43EFE900286F0A3EFF0F5828E83A31202F8
:4035C000BB9002881202B29002881202A9E92401F9E43AFA12001AFE9002881202A912001AFDEEEDFF900317EEF0A3EFF0E92402F9E43AFA9003190202B2E490032DF0A373
:40360000F090031C1202A9E94A4B601D90031C1202A9E412003390031C1202A9E92401F9E43AFAE4F5F01200862290032BE014FF9132AD07AC06ED4C603D8D828C83A3120D
:4036400002BBE92404F9E43AFA12001A2402FFE433FEEF7802C333CE33CED8F92DFDEE3CFCAF058D82F583A31202BBAF0190028AEAF0A3EFF08007E490028AF0A3F0900245
:403680008AE0FEA3E0FF22E4900282F0906004E0900283F090032BE014FF91328F828E83A31202BBE92404F9E43AFA12001AFF900283E0FED39F4006EED39401502F7416DE
:4036C0002EF582E43403F583E0FF74242EF582E43403F583EFF0906002E0FF74162EF582E43403F583EFF09002827401F0900282E0FF22C0E0C083C082C085C084C086759B
:403700008600C093759300C0D075D000C00790600B7401F090600EE0FF90033BE054036401600790033EE06480F090033C7401F0D007D0D0D093D086D084D085D082D083C7
:40374000D0E032C0E0C083C082C085C084C086758600C093759300C0D075D000C00790600B7402F090601EE0FF900346E0540364016007900349E06480F09003477401F088
:40378000D007D0D0D093D086D084D085D082D083D0E032C0E0C0F0C083C082C085C084C086758600C093759300C0D075D000C000C001C002C003C004C005C006C007122785
:4037C000C2D007D006D005D004D003D002D001D000D0D0D093D086D084D085D082D083D0F0D0E0327D01EDC3940940030238C375F010ED90607012029D740CF0ED75F00BD7
:40380000A42435F582E43403F583E06031ED75F00BA42434F582E43403F583E05480600F75F010ED905FFE12029D740CF0801C75F010ED905FFE12029D7408F0800D75F020
:4038400010ED905FFE12029D7480F0ED75F00BA42436F582E43403F583E0A3E0FF75F010ED90607612029DEFF0ED75F00BA42436F582E43403F583E0FF75F010ED9060779D
:4038800012029DEFF0ED75F00BA42436F582E43403F583E0A3E0FF75F010ED90607412029DEFF0ED75F00BA42436F582E43403F583E0FF75F010ED90607512029DEFF00DB3
:4038C0000237E690600A74FFF022E4900284F0A3F0900282F0900282E0FEC39409507AEE75F00BA42430F582E43403F583E4F0EE75F00BA42432F582E43403F583E4F0EE35
:4039000075F00BA42433F582E43403F583E4F0EE75F00BA42438F582E43403F583E4F0A3F0EE75F00BA4243AF582E43403F583E4F0EE75F00BA42431F582E43403F583E4EC
:40394000F0EE75F00BA42435F582E43403F583E4F0900282E004F001D5EF602FE4900283F0900283E0FFC39401502074162FF582E43403F583E4F074242FF582E43403F558
:4039800083E4F0900283E004F080D690032BE0D3940050028151E014FF123432900286EEF0A3EFF0900286E0FCA3E0FDF5828C83A31202BBE92407F9E43AFA12001A544014
:4039C000600990032AE04401F0800790032AE054FEF0ED2404FFE43CFE900286F0A3EFF0F5828E83E493900282F0A37401F0900283E0C394094002618D900286E0FEA3E061
:403A0000F5828E83A31202BBAF01900288EAF0A3EFF0E4FF900282E0FEEFC39E40026185900288E0FCA3E0F5828C83740293547FFD900283E0FE6D7001E4600261749002C3
:403A400088E0A3E0F5828C83740493FC740593FDEE75F00BA42438F582E43403F583E0FAA3E0C39DEA9C5029900288E0FCA3E0F5828C83740493FC740593FD900283E07528
:403A8000F00BA42438F582E43403F583ECF0A3EDF0900288E0FCA3E0FDF5828C83E4932416F582E43403F583E0FE8D828C83740193FDEE6D60026174900288E0A3E0FDF5EC
:403AC000828C83740293FE900283E0FB75F00BA42434F582E43403F583EEF08D828C83740393FEEB75F00BA42430F582E43403F583EEF0900288E0FCA3E0F5828C83740313
:403B0000935403FE900288E0A3E0F5828C8374029354806031EEB401047D0780027D0D900283E0FC75F00BA42435F582E43403F583EDF0EC75F00BA42431F582E43403F5D4
:403B4000837401F0802EEEB401047E0580027E09900283E0FD75F00BA42435F582E43403F583EEF0ED75F00BA42431F582E43403F583E4F0900289E02407F0900288E034BD
:403B800000F00F4114900283E004F021EE900286E0FEA3E0F5828E83A31202BBAF01900288EAF0A3EFF0E4900283F0900282E0FFA3E0C39F5038900288E0FEA3E0F5828E57
:403BC00083E493FD740293547F75F00BA4243AF582E43403F583EDF0900289E02407F0900288E03400F0900283E004F080BD12362A900321EEF0A3EFF0E4900284F0A3F03C
:403C000090028204F0900282E0FFC39409503F900284E0FCA3E0FDEF75F00BA42436F582E43403F583ECF0A3EDF0EF75F00BA42438F582E43403F583E0FEA3E0FF90028486
:403C4000EE8FF0120045900282E004F080B71237E42290032BE0D394005002C154E014FF123432EF2404FFE43EFE8F82F583E493900282F08F828E83A31202BBAD01AC0211
:403C800090031FE0900283F0E4FB900282E0FFEBC39F4002C1548D828C83E493FF900283E0FE6F6002C14A8D828C830493FF74162EF582E43403F583E06F6002C14A8D8253
:403CC0008C83740293547FFA7403935403F9EA75F00BA42433F582E43403F583E4F08D828C83740293FFEA75F00BA42434F582E43403F583EFF08D828C83740393FFEA7567
:403D0000F00BA42430F582E43403F583EFF08D828C83740493FE740593FFEA75F00BA42438F582E43403F583EEF0A3EFF08D828C837402935480602DE9B401047F0780027F
:403D40007F0DEA75F00BA42435F582E43403F583EFF0EA75F00BA42431F582E43403F5837401F0802AE9B401047F0580027F09EA75F00BA42435F582E43403F583EFF0EAB1
:403D800075F00BA42431F582E43403F583E4F075F010EA905FFE12029D7401F0EA75F00BA42438F582E43403F583E0FF75F010EA905FFC12029DEFF0EA75F00BA42438F5EE
:403DC00082E43403F583E0A3E0FF75F010EA905FFD12029DEFF0EA75F00BA42436F582E43403F583E0A3E0FF75F010EA90607612029DEFF0EA75F00BA42436F582E434036E
:403E0000F583E0FF75F010EA90607712029DEFF0EA75F00BA42436F582E43403F583E0A3E0FF75F010EA90607412029DEFF0EA75F00BA42436F582E43403F583E0FF75F018
:403E400010EA90607512029DEFF0ED2407FDE43CFC0B818A22900329E025E025E024ADF582E43408F5831202BBAE02AF0122E4900282F0906004E0547FFFD394004070EF7F
:403E80009409506BEF75F00BA42432F582E43403F583E04401F0EF75F00BA42433F582E43403F583E4F0EF75F00BA42431F582E43403F583E04402F0EF75F00BA42434F532
:403EC00082E43403F583E05480600F75F010EF905FFE12029D748DF0800D75F010EF905FFE12029D7489F0122EC3900282EFF0900282E0FF22E4900282F0906004E0547F81
:403F0000FFD394005002E1CAEF94094002E1CAEF75F00BA42432F582E43403F583E054FEF0EF75F00BA42433F582E43403F583E4F075F010EF905FFC12029DE0547FF0EF56
:403F400075F00BA42431F582E43403F583E054FDF0EF75F00BA42434F582E43403F583E054806030EF75F00BA42431F582E43403F583E0B4010F75F010EF905FFE12029DFC
:403F8000740CF0803D75F010EF905FFE12029D740DF0802EEF75F00BA42431F582E43403F583E0B4010F75F010EF905FFE12029D7408F0800D75F010EF905FFE12029D743C
:403FC00009F0122EC3900282EFF0900282E0FF22E4FF906000E054806005A3E0FE8000220000000000000000000000000000000000000000000000000000000000000000AE
:404000000000000000000000000000000000000000000000000000000000000000000000000000000000000000000000000000000000000000000000000000000000000080
:404040000000000000000000000000000000000000000000000000000000000000000000000000000000000000000000000000000000000000000000000000000000000040
:404080000000000000000000000000000000000000000000000000000000000000000000000000000000000000000000000000000000000000000000000000000000000000
:4040C00000000000000000000000000000000000000000000000000000000000000000000000000000000000000000000000000000000000000000000000000000000000C0
:40410000024A43008F828E83E0540100000070F82278FFE4F6D8FD024AD1024462E86480F8E933E83360110460F0ED33EC337009E8FCE9FDEAFEEBFF220460DED3EB9FEA65
:404140009EE99DE8C2E78CF0C2F795F0400CE8CCF8E9CDF9EACEFAEBCFFB12442D85D0F05804700320D5B3E80470075002B2D502446C92D5EC0460F7E4CCC0E0C398F860E4
:404180003B94186008400DD0E0FB024444E4FBFAC9FC8028E830E406E4C9FBE4CAFCE830E305E4C9CACBFCE854076010F8C3E913F9EA13FAEB13FBEC13FCD8F130F52FC328
:4041C000E49CFCEF9BFFEE9AFEED99FDD0E0FBEF4E4D4C701222DB03024469EC2CFCEF33FFEE33FEED33FDED30E7EB024444EF2BFFEE3AFEED39FDD0E0FB50130BBB0003DC
:4042000002446CED13FDEE13FEEF13FFEC13FC024444EC4D6011E8497017ED33EC3304600DE4FCFFFEFD22E933E8330470F802446212442D58046009E4CC24815006285086
:404240000902446C284003024469C0E0EB4A7044B98006D0E0FB024458EF4E701CBD8008EBFFEAFEE9FD80EBE98DF0A4FEE5F00242FBE9CDF9EAFEEBFFEF89F0A4FCE5F0AD
:40428000CE89F0A42EFFE435F0CD89F0A42DFEE435F08067EF4E7005BD80D780C3EF8BF0A4ACF0EE8BF0A42CFCE435F0F8EF8AF0A42CE5F038FCE433CB8DF0A42CFCE5F0AD
:4042C0003BF8EE8AF0A42CFCE5F038F8E433CF89F0A42CFCE5F038CF3400CE89F0A42FFFE5F03EFEE433C98DF0A42EFEE5F039CD8AF0A42FFFE5F03EFEE43DFD33D0E0FB8C
:4043000050070BBB000F02446CEC2CFCEF33FFEE33FEED33FD02444402446CEC5D046005E85904700302446212442D580460F6EC4860F2EC7004FDFEFF22C860DB2481C839
:404340005009C398600250060244699850CAF582E9294B4A7005AB8202445875F0007C1A7880C3EF9BEE9AED99400DC3EF9BFFEE9AFEED99FDE842F0DC23ACF0D0E0FFD0EE
:40438000E0FED0E0FDAB8220E7101BEB60BAEC2CFCEF33FFEE33FEED33FD024444E803F830E705C0F075F000EF2FFFEE33FEED33FD40B830E7C280AA75F020800E75F01023
:4043C000800575F0087D007E007F003392D530D503124629EC334010EF33FFEE33FEED33FDEC33FCD5F0ED22E5F0247EA2D513CC92E7CDCEFF22EDD2E7CD33EC3392D52421
:40440000814006E4FFFEFDFC22FCE4CFCECDCC24E0501174FF80EDC3CC13CCCD13CDCE13CECF13CF0470F030D5DE024629E9D2E7C933E833F892D5EDD2E7CD33EC33FC5002
:4044400002B2D522EC30E7100FBF000C0EBE00080DBD00040BEB6014A2D5EB13FCED92E7FD2274FFFCFDFEFF22E480F8A2D574FF13FC7D80E480EFBB010689828A83E02296
:404480005002E722BBFE02E32289828A83E49322BB010689828A83F0225002F722BBFE01F322EF8DF0A4A8F0CF8CF0A428CE8DF0A42EFE22C5F0F8A3E028F0C5F0F8E582B2
:4044C000158270021583E038F022A3F8E0C5F025F0F0E582158270021583E0C838F0E822BB010A89828A83F0E5F0A3F0225006F709A7F01922BBFE06F3E5F009F31922E8B4
:404500008FF0A4CC8BF0A42CFCE98EF0A42CFC8AF0EDA42CFCEA8EF0A4CDA8F08BF0A42DCC3825F0FDE98FF0A42CCD35F0FCEB8EF0A4FEA9F0EB8FF0A4CFC5F02ECD39FE7E
:40454000E43CFCEAA42DCE35F0FDE43CFC2275F008758200EF2FFFEE33FECD33CDCC33CCC58233C5829BED9AEC99E58298400CF582EE9BFEED9AFDEC99FC0FD5F0D6E4CEEC
:40458000FBE4CDFAE4CCF9A88222B800C1B90059BA002DEC8BF084CFCECDFCE5F0CBF97818EF2FFFEE33FEED33FDEC33FCEB33FB10D703994004EB99FB0FD8E5E4F9FA22DC
:4045C0007818EF2FFFEE33FEED33FDEC33FCC933C910D7059BE99A4007EC9BFCE99AF90FD8E0E4C9FAE4CCFB2275F010EF2FFFEE33FEED33FDCC33CCC833C810D7079BEC96
:404600009AE899400AED9BFDEC9AFCE899F80FD5F0DAE4CDFBE4CCFAE4C8F922CFF4CFCEF4CECDF4CDCCF4CC22C3E49FFFE49EFEE49DFDE49CFC22EB9FF5F0EA9E42F0E979
:404640009D42F0EC6480C864809845F022EB9FF5F0EA9E42F0E99D42F0E89C45F022E8600FECC313FCED13FDEE13FEEF13FFD8F122E8600FEFC333FFEE33FEED33FDEC33B1
:40468000FCD8F122BB010789828A830247665005E9F802475ABBFE05E9F802477289828A8302477EBB010789828A830246BE5005E9F802478EBBFE05E9F802479A22ECF009
:4046C000A3EDF0A3EEF0A3EFF022A42582F582E5F03583F58322D083D082F8E4937012740193700DA3A393F8740193F5828883E4737402936860EFA3A3A380DFE5092582C2
:40470000F582E5083583F583B508048582092210AF06858209F50822858209F508D2AF22E5092582F582E5083583F58322EC8EF0A4CCC5F0CCCDF8EFA4CEC5F02DFDE43C83
:40474000FCE8A42EC8C5F03DFDE43CFCEFA4FFE5F028FEE43DFDE43CFC22E6FC08E6FD08E6FE08E6FF22E0FCA3E0FDA3E0FEA3E0FF22E2FC08E2FD08E2FE08E2FF22E4934F
:40478000FC740193FD740293FE740393FF22ECF608EDF608EEF608EFF622ECF208EDF208EEF208EFF222410BE055410BD732410BCF00410BCE00410BDB01410BE612410B83
:4047C000D000410BD532410BDE00410BD100410BE500440BE100000000410BDF00410BDA02410BDC00410BD600410BDD00410BD900410BD200410BD300410BD400410BCB8F
:4048000000410C8400410C8300410C8800410C8700410C860060390B4B480707070778B5B60755CE865695FD7D3D1D0D0585C5E5F5E007078D0730684284A4830124C3048D
:404840000274A344C282E364D443038123146394B4C4440C6600001388410C5700420C4C3DF4420C4E0000410C5000420C510BB8420C530000420C550000440AF80000002A
:4048800000440AFC00000000410AC700410AD400440AEA00000000440AEE00000000410AF200410AF300410AF400410AF500440A3C713D0A07440A4D713D0A07410A2600FB
:4048C000440A2B00000000410A4C00410A3000440A2700000000440A51017D7840410A2500410A0E00420A31002A420A0C002A440A5600000000410A5E00410A5500420AB8
:404900000F00004409FE00000000410A0200440A0300000000440A0700000000410A0B00410C1100410C1200440C1300000000440C0000000000440C0400000000410C08BB
:404940000041090300440C2500000000440C2100000000410C2000440C2900000000410C1700420C182710440C1C000D4A58410BFD32410BFB00410BFE00410BFC00410B62
:40498000F615440BF700000000410BFF00410BE700410BE800410BE900410BEA00410BEB00410BEC00410BED00410BF000410BF100440BF200000000410A9E00410ABA0C2D
:4049C000490A5F000004040000000000410C8A00410C8F00410C90FF410C91FF410C92FF410C93FF410C94FF410C95FF410C6F80410C6E7F440C6A000000FF440C4302331C
:404A000066C4440C3E0000903C410C4225440C48481E0000410C9600460C70008102370300410C97FF410C98FF430C76000000410C9900420BA20180420BA4FF7F420BA0A0
:404A400001000075930078007583467582E8E04401F00090480074C0F07581099076BCE4F0A3F0A3F0A3F0907010F0907019F0907020F09076007410F0907604E4F0A3F035
:404A8000A3F0A3F09078007800087400F0A37408F0E8B8040274FFA3F0A37422F0A374BCF0A37476F0A3E4F0A3E81475F008A4F0A3B804D59070107401F0907014F07E700E
:404AC0007F18124104907010F0EA900C47F002411175081F7509FD12B15312A09B12B0F5024B1E026802E493A3F8E493A34003F68001F208DFF48029E493A3F85407240CB6
:404B0000C8C333C4540F4420C8834004F456800146F6DFE4800B01020408102040809047A6E47E019360BCA3FF543F30E509541FFEE493A360010ECF54C025E060A840B885
:404B4000E493A3FAE493A3F8E493A3C8C582C8CAC583CAF0A3C8C582C8CAC583CADFE9DEE780BEC2D5E830E70FB2D5E4C39BFBE49AFAE499F9E498F8EC30E717B2D5124B68
:404B80009912458AE4C39BFBE49AFAE499F9E498F8800312458A30D50DE4C39FFFE49EFEE49DFDE49CFC22758600EF4E6027EF60010E7593009009B8E0F595A3E0F585A305
:404BC000E0F5848B938A838982E0A30586F0A31586DFF6DEF4E4F593F59522EC4D6011ED60010C8B938A838982E4F0A3DDFCDCFA759300228B938A838982E0759300FF2262
:404C0000EC4D4E700D78FCEF24E950032840FD2200007BF178DA0000EF28FF78FFEE38FEED38FDEC38FC50E7EF2BFFEE38FEED38FDEC38FC40F2220502030432EEFA900CA7
:404C400042E0F88FF0A4FFAEF0E88AF0A42EFEE5F03400FDEF24C9FF78FFEE38FEED38FDE438FC5003024C0022758600EF4E601BEF60010E8C838D828B958A858984E493CD
:404C8000A30586F0A31586DFF5DEF3E4F59522EF54016004D2AF8002C2AFEF5402FF9044F4E054FD4FF0229044F4E0F84402F0E85402FF10AF012274014FFF228B938A83A4
:404CC0008982EFF0A3EEF0A3EDF0A3ECF075930022452020005020200053202000432020008B938A838982E0FFA3E0FE759300228B938A838982EDF0A3ECF0759300228BEE
:404D0000938A838982EDF075930022EC30E7031246292280000000000000000000000000000000000000000000000000000000000000000000000000400000000000000058
:404D40000000000000000000000000000000000000000000000000000000000000000000000000000000010000000000000000000000000000000000200000000000000012
:404D80000000000000000000000000000000000000000000008000000000000000000400000001000000000000040400000000000000000000000140404000000000001095
:404DC00000000000000000000000000000000000000000400000000000000020000000000000000000000080000000800000000000000000008000000000000000100000C3
:404E000000000000000000000000000000000000000000000000000000000000000000000000000000000000000000000000000000000000404000000000000000000000F2
:404E40000000000000000000000000000000000000000000000000000000000000000000000000000000000000000000000000000000002000000000000000000000000012
:404E800000000000000000000000000000000000000000010001000020000020000000000000000000000001808404000000000000000000000001506041000000000000B5
:404EC00000004000000400004000000000000000000000000000000000000010000000000000000000000000000000400000000000000000009000000080000000000000CE
:404F00000040000000000000000000000000000000000000000000000000000000000000000000100000000000000000000000000000000000000000000000000000000021
:404F400000000000000000000000000000000020000000000000000000000000000000000000000040000000000000000000000000000000000000000000000000000000D1
:404F800000000000000000000000000000000000000000000020000100000001000000000000000040000001008044000000001100200000000001416041000000001400A2
:404FC000000000000000000000000000000000000000000000000010000000000000000000200000000000200000000000000000000000000020000000100000000000A091
:40500000000000000000000000000000000000000000000000000000000000001000000000002A000000000000000000000000000000000000000000000000000000000036
:4050400000000000000000000000000400000000000044040000000000000000000000000000000000100001002000000080000000000001200000000020000000000000F2
:40508000000000000000000000000000000000000000000000100000001000400000000010000004401000000000000000000011000000000000000040410000000000009A
:4050C000000021000000000000000000000000000000000000E00000000000000000000000E00010000000E0006000C00000000000000080004000000000000000000000FF
:40510000000000000000000000000000000000000000000000000000000000000000000000000000400000000080000400000100001000000000000000000000000000009A
:40514000000000110000000000410000000000008000000000002000000000000000000000000000000000000000000000000000000000000000000000000000000000003D
:40518000000000000000000000000000000000000000000000800000000000000000000000000000000000000000000000000000000000000000000000000000000000006F
:4051C00000000000000000000000000000000000000000000000006000700000000000F000200010000000000000000000000000000000800000000000000000000000003F
:405200000000000000000000000000000000000000000001000000000000000100000000000100010000001000010001000000080000000100000008000100010000000144
:40524000000823025213760800082303521B7610000823045223762000082305522B7628000823065233763000052307523B702000052308523B703000052309523B7050F5
:405280000005230A523B7060000523FE523B70700015220C0C7F49C8004022FE0C7F51300180220E0C7F08000180220F0C7F0A00018022100C7F0C00018022110C7F0E005F
:4052C000010022120C7F4400008022130C7F4600008022FE0C7F4D00008023154D134800008023164D934880008023174E134300008023184E934380008023194F134200CE
:405300000080231A4F9342800080231B501341000080231C509341800080231D51134000008023FE519340800007231F08285200000723200830520800072321083852100A
:40534000000623220840526000072323084852780008232408504578000C232508604F0000202326106C6470002023FE108C6570000823280858510000802329086C000063
:405380000080232A08EC00800080232B096C02000080232C09EC02800080232D0A6C04000080232E0AEC04800080232F0B6C0600008023300BEC0680008023310C6C14008D
:4053C000008023320CEC1480008023330D6C1600008023340DEC1680008023350E6C1800008023360EEC1880008023370F6C1A00008023380FEC1A800010233910AC501045
:405400000010233A10BC50000080233B10CC4D800080233C114C4C000080233D11CC4C800080233E124C47000080233F12CC478000802340134C46800080234113CC45002E
:4054400000802342144C45800080234314CC1B0000802344154C1B800080234515CC150000802346164C15800080234716CC190000802348174C19800080234917CC1700EE
:405480000080234A184C17800080234B18CC09800080234C194C07000080234D19CC07800080234E1A4C0B800080234F1ACC0500008023501B4C0580008023511BCC0D80EC
:4054C000008023521C4C0300008023531CCC0380008023541D4C0F80008023551DCC0100008023561E4C0180008023571ECC4900008023FE1F4C4980000100000002000031
:405500000004000000050000000600001201000200000008C016DC0503000F0E80010902B700040100C0020904000000FF00000C0904010000010100090A240100013400C9
:405540000202030C24020103060002030000000924030201010001000C240203010100020300000009240304030600030009040200000102000A09040201010102000A07F1
:405580002401020201000B240201020210010077010905822D80010100000725018001000009040300000102000B09040301010102000B072401030101000B240201020270
:4055C00010010077010905032D800101000007250180010000040309040C03410045003900520042001A0350006500610062006500720072007900200053004400520022BC
:4056000003500065006100620065007200720079002000520065006300650069007600650024035000650061006200650072007200790020005400720061006E0073006D54
:4056400000690074001E0350006500610062006500720072007900200052006100640069006F0016034400470038005300410051002D004900320043001A037700770077B5
:40568000002E006F0062006400650076002E00610074001E034D0075006C00740075007300200043006F006E00740072006F006C0020034D0075006C007400750073002030
:4056C0000049005100200053006F0075006E00640024034D0075006C007400750073002000490051002000520065006300650069007600650026034D0075006C0074007559
:4057000000730020004900510020005400720061006E0073006D006900740026034D0075006C007400750073002000530044005200200043006F006E00740072006F006C0D
:405740000020034D0075006C0074007500730020005300440052002C004C004C0043002E001203500072006F0066006900630069006F0026037700770077002E006D007550
:40578000006C007400750073002D007300640072002E0063006F006D0000120350004500300046004B004F002D0030000201822D0180010301032D018001FF01010101FF3B
:4057C000551E02FF57AC0000000000000000000000000000000000FF57BA01FF550C0000000001FF57BE01FF57DA3031323334353637383941424344454600E49009BFF0AD
:40580000A3F0A3F0A3F0A3F07F64FEFDFC11BDD2AF9044F474FDF0127A8412A55B126FD57E9D7F3712B4C712961EE4FFFEFDFC9009C51246BE7FC031A89009BDEFF070091A
:4058400012AFAB12A55B12B04A1267E19009BEEFF09009BDE0700CA3E060087BFF7A4C79D131449009BEE060087BFF7A4C79D531449009BDE070087BFF7A4C79D931447F9C
:40588000807E9F7DD57C00900A271246BEE4900A2FF0900A27E0FCA3E0FDA3E0FEA3E0FF1286DDEF70ECE47FDC7E05FDFC11BDF1E3EF54FEFFF1DDE47F05FEFDFC90FFFCD4
:4058C0001246FC1246BE850883850982E0A3E0A3E0FEA3E0D39400EE9480403D900C48E0FCA3E0FDA3E0FEA3E0FF124C00850883850982C083C082E0FCA3E0FDA3E0FEA30B
:40590000E02400FFEE3480FEED34FFFDEC34FFFCD082D0831246BE80AD900C3EE0FCA3E0FDA3E0FEA3E0FF850883850982E0F8A3E0F9A3E0FAA3E0FB1244FF124C009000B9
:40594000040246FC9009C4EBF0A3EAF0A3E9F0E49009C8F0A3F0900A9EE0600312A638F1E3EF5401440AFFF1DD9009C4E0FBA3E0FAA3E0F91279421269ABEF5408FF900941
:40598000C7E06F60F2EFF0A374FFF5F01244CA45F070E49009C804F0A374E0F07B007A00790012794280D0229009C4EFF0E49009C9F0FF7ED77DA37C70126FF9900A4012DB
:4059C00046BE9009C4E0FD7FB751859009C9EFF07002417DE4FFFEFDFC9009C5E0F8A3E0F9A3E0FAA3E0FBC312464D60149009C5E0FCA3E0FDA3E0FEA3E0FF900A51124689
:405A0000BE7D807F1051859009C9EFF07D807F1151859009C9EFF07D807F1251859009C9EFF07D0C7F1051859009C9EFF07D0C7F1151859009C9EFF07D0C7F1251859009D4
:405A4000C9EFF0E4FDFF1294C0E4FF1296017F01129601E4FD7F0112925CE4FD7F0212925CE4FD7F0112912EE4FD7F0212912EE4FD7F0112902DE4FD7F0212902D9009C998
:405A8000E0FF7E00229009E97401F0E4A3F09009E7EFF0A3EDF07B017A0979E79009EF7402F0E4A3F07F601291AD9009EAEFF0129110EF30E1F91294BAEF64026005E4909B
:405AC00009E9F09009E9E0FF229009DDEFF0900AD4E0B40800400281DA905AE0F8282873025AF8025B64025B89025BCF025BFE025C24025C88025CB7E47F80FEFDFC90094E
:405B0000DEE0F8A3E0F9A3E0FAA3E0FB1244FFE42FFFEE34FEFEED34FFFDEC34FFFC900AC81246BEE4FFFEFDFC900ACC1246BEE47F01FEFDFC900AD01246BE900AD0E0FC8C
:405B4000A3E0FDA3E0FEA3E0E4FFEEE4FDFC780812465EAD079009DDE0FF5185900AD4E004F081DA9009DDE004FFC007900AD0E0FCA3E0FDA3E0FEA3E0FFE4AD07D0075198
:405B800085900AD4E004F081DA9009DDE02402FFC007900AC8E0FCA3E0FDA3E0FEA3E0E4FFFEED5403FDE4FC781012465EA804A905AA06AB079009E2E0FFE4EB4FFFEAE979
:405BC000E8AD07D0075185900AD4E004F081DA9009DDE02403FFC007900AC8E0FCA3E0FDA3E0FEA3E0E4FFEEE4FDFC780812465EAD07D0075185900AD4E004F081DA90093F
:405C0000DDE02404FFC007900AC8E0FCA3E0FDA3E0FEA3E0FFE4AD07D0075185900AD4E004F081DA9009DDE02405FFC007900ACCE0FCA3E0FDA3E0FEA3E0E4FFFEED540FDA
:405C4000FDE4FC781012465EC004C005C006C007A3E0FCA3E0FDA3E0FEA3E0E4FFFEED540FFDE4FC780C12465ED003D002D001D000EF4BFFEE4AED49EC48AD07D007518526
:405C8000900AD4E004F080529009DDE02406FFC007900ACCE0FCA3E0FDA3E0FEA3E0E4FFEEE4FDFC780812465EAD07D0075185900AD4E004F080239009DDE02407FFC00753
:405CC000900ACCE0FCA3E0FDA3E0FEA3E0FFE4AD07D0075185E4900AD4F0900AD4E0FF229009DDEFF0A3EDF0900AC7E0B408004002E1D7905CFAF8282873025D12025E7536
:405D0000025E9A025ECC025EFB025F21025F85025FB49009E3E0FCA3E0FDA3E0FEA3E0FFE41243B8C004C005C006C0079009DFE0FCA3E0FDA3E0FEA3E0FFE41243B8D003E8
:405D4000D002D001D00012431BE4FBFAF978431242121243F6900ABB1246BE9009DEE0FF7E007C007D8012472D900ABBE0F8A3E0F9A3E0FAA3E02FFFEA3EFEE93DFDE83C80
:405D8000FCE42FFFEE34FEFEED34FFFDEC34FFFC900ABB1246BE9009E3E0FCA3E0FDA3E0FEA3E0FFE41243B8C004C005C006C0079009DFE0FCA3E0FDA3E0FEA3E0FFE41265
:405DC00043B8D003D002D001D00012431BE4FBFAF978431242121243F6900ABF1246BE900ABFE0FCA3E0FDA3E0FEA3E0FF9009E3E0F8A3E0F9A3E0FAA3E0FB1244FFC004A9
:405E0000C005C006C007E47F80FEFDFC9009DFE0F8A3E0F9A3E0FAA3E0FB1244FFD003D002D001D000C3EF9BFFEE9AFEED99FDEC98FC900ABF1246BE9009E3E0FCA3E0FDB8
:405E4000A3E0FEA3E0FF900AC31246BE900AC3E0FCA3E0FDA3E0FEA3E0E4FFEEE4FDFC780812465EAD079009DDE0FF5185900AC7E004F0E1D79009DDE004FFC007900AC3C2
:405E8000E0FCA3E0FDA3E0FEA3E0FFE4AD07D0075185900AC7E004F0E1D79009DDE02402FFC007900ABBE0FCA3E0FDA3E0FEA3E0E4FFFEED5403FDE4FC781012465EAD0766
:405EC000D0075185900AC7E004F0E1D79009DDE02403FFC007900ABBE0FCA3E0FDA3E0FEA3E0E4FFEEE4FDFC780812465EAD07D0075185900AC7E004F0E1D79009DDE02464
:405F000004FFC007900ABBE0FCA3E0FDA3E0FEA3E0FFE4AD07D0075185900AC7E004F0E1D79009DDE02405FFC007900ABFE0FCA3E0FDA3E0FEA3E0E4FFFEED540FFDE4FCA5
:405F4000781012465EC004C005C006C007A3E0FCA3E0FDA3E0FEA3E0E4FFFEED540FFDE4FC780C12465ED003D002D001D000EF4BFFEE4AED49EC48AD07D0075185900AC79F
:405F8000E004F080529009DDE02406FFC007900ABFE0FCA3E0FDA3E0FEA3E0E4FFEEE4FDFC780812465EAD07D0075185900AC7E004F080239009DDE02407FFC007900ABF7F
:405FC000E0FCA3E0FDA3E0FEA3E0FFE4AD07D0075185E4900AC7F0900AC7E0FF22906474EFF022906474E0FF22F1E3EF54FBFFF1DD900BCE7401F0FF906477EFF02212A9C1
:4060000065EF6010900A9EE0701A7D02FF12A275F1970198900A9EE0600AE4900C88F0112512A638227DF07F4011CC9009C4EFF012B0D012B096900C91E0FF1165900C9093
:40604000E0FF1165900C93E0FF1165900C92E0FF1165900C94E0FF116512B0E412B0AA9009C4E0FF227E01EFC39418502875F010EFA42410F582E5F03470F583E054FEF0B4
:4060800075F010EFA42410F582E5F03470F583E054DFF0E41EAF06227DC07F4011CC7D807F4511CC7DFF7F4111CC7DFF7F4211CC9143314912B0BB124CA790659BE0441022
:4060C000F0124C8F906579E04401F0229009C5EFF0A3EDF0E49009C9F0A3F0A3F09009C9E0FFC39402505FEF14602F0470EF9009C5E09009C7F09009C6E09009C8F07B012D
:406100007A0979C79009EF7402F0E4A3F07F461291AD9009C9E004F080C3129110EF30E7089009C9E014F0800AEF30E1069009C9E004F09009CA74FFF5F01244B445F07072
:406140009C7F012280977F0022E49009BDF09009BDE0FFC39403400221F0EF6402703FE02407F582E43409F583E0FF900907E0FBE49009CCF07D01FC71BC9009BDE0240763
:40618000F582E43409F583E0FF7B017A097903E9EAE4AD01AC027B4B7A65B18C804A9009BDE0FE2407F582E43409F583E0FF74082EF582E43409F583E0FB9009CC7404F006
:4061C0007D017C0071BC9009BDE02407F582E43409F583E0FF7B017A09790BE9EAE4AD01AC027B4B7A65B18C9009BDE004F0214E900C93E0FFD122900C93E0FF900907E088
:40620000FDD104E49009BDF09009BDE0FFC3940340026128EF04A3F0C39403402EE4F09009BDE0240FF582E43409F583E0FF9009BEE0240FF582E43409F583E0FB9009CCD4
:406240007405F07D807C0171BC80299009BDE0240FF582E43409F583E0FF9009BEE0240FF582E43409F583E0FB9009CC7401F07D80FC71BC9009BDE0FB75F080A42483F572
:4062800082E5F03404F583EB2583F583FEE582EEE4AD82AC06C005740F2BF582E43409F583E0FF7B017A09790BE9EAE4AB01D005B18C9009BDE02400F582E43400F583E019
:4062C000FF9009BEE02400F582E43400F583E0FB9009CC7402F07D807C0171BC9009BDE0F975F080A42483F582E5F03404F583E92583F583FEE582EEE4AB82AA06C002C0F6
:4063000003740029F582E43400F583E0FF7B017A097903E9EAE4AD01AC02D003D002B18C9009BDE004F04108900C92E0FFD122900C92E0FF90090FE0FDD104900C94E0FF7E
:40634000D122900C94E0FF900000E0FDD104900C94E0FF7D017171900C92E0FF7D0112B12B900C92E0FF7D017171900C93E0FF7D017E01EFC394185040ED601575F010EFC5
:40638000A42410F582E5F03470F583E04420F0801375F010EFA42410F582E5F03470F583E054DFF075F010EFA42410F582E5F03470F583E04401F0E4FEAF06229009C9EC6F
:4063C000F0A3EDF0A3EBF09009C8EFF09009CD7401F0EFC3948050659009C9E054F0A3705C9009C8E075F008A42400FFE5F03478FE9009CEF0A3EFF0AA06F97B019009C9E0
:40640000E0FCA3E0FD124CF29009CBE0FF9009C8E0FE75F008A42402F582E5F03478F583EFF09009CCE0FF75F008EEA42403F582E5F03478F583EFF0E49009CDF09009CD4F
:40644000E0FF22E49009BDF09009BDE0FFC394035070EFB4021C2404F582E43409F583E0FF900904E0FBE49009CCF07D01FC71BC80289009BDE0FE2404F582E43409F5835E
:40648000E0FF74052EF582E43409F583E0FB9009CC7404F07D017C0071BC9009BDE02404F582E43409F583E0FF7B017A09790AE9EAE4AB017D497C65B18C9009BDE004F037
:4064C0008086900C91E0FFD122900C91E0FF900904E0FDD104E49009BDF09009BDE0FFC394034002A167EF04A3F0C394034002E4F09009BDE0240CF582E43409F583E0FFEE
:406500009009BEE0240CF582E43409F583E0FB9009CC7402F07D807C0171BC9009BDE0F975F080A42403F582E5F03400F583E92583F583FEE582EEE4AB82AA06C002C0031E
:40654000740C29F582E43409F583E0FF7B017A09790AE9EAE4AD01AC02D003D002B18C9009BDE004F081DA900C90E0FFD122900C90E0FF90090CE0FDD104900C90E0FF7D9F
:40658000017171900C91E0FF7D0161719009C9ECF0A3EDF0A3EAF0A3EBF09009C8EFF09009CD7401F0EFC3948050539009C8E075F008A42404FFE5F03478FE9009CEF0A37D
:4065C000EFF0AA06F97B019009C9E0FCA3E0FD124CF29009C8E075F008A42406FFE5F03478FE9009CEF0A3EFF0AA06F97B019009CBE0FCA3E0FD124CF2E49009CDF09009AE
:40660000CDE0FF227E01EFC39418501375F010EFA42419F582E5F03470F583EDF0E41EAF06227E01EFC39418502875F010EFA42414F582E5F03470F583E04404F075F0105F
:40664000EFA42410F582E5F03470F583E04401F0E41EAF06229009BEEBF0A3EAF0A3E9F09009BDEFF024FFFFE434FFFEEFC4F8540FC868FFEEC454F048EF2488FFE43460D9
:40668000FAA9079009C47401F0A3EAF0A3E9F0900C84E030E1089009C37492F080069009C374D2F09009BDE024B1F582E4340AF583E0FF11659009BDE02495F582E4340AF9
:4066C000F583E0FBFF9009C1E0FCA3E0FDA3E09009CCF071BC9009BDE02495F582E4340AF583E0FFC0079009C4E0FBA3E0FAA3E0F9FFAE02EAE4AD07AC06C0059009BEE0D7
:40670000FBA3E0FAA3E0F9FFEAE4AB07D005D007B18C9009BDE024B1F582E4340AF583E0FFD1229009BDE0FE24B1F582E4340AF583E0FF74952EF582E4340AF583E0FDD120
:40674000049009BDE024B1F582E4340AF583E0FF7D0161719009C4EFF07FF47E3D128319127C2F9009C5EFF0E0FBFFE49009CCF07D01FC71BC9009C5E0FF7B227A427D6685
:406780007C65B18C9009C4E0FFA3E0FDD1049009C4E0FF7D016171900A97E0B4FF07F1EC7F02127F1D900A98E0B4FF07F1C57F03127F1DE4900C85F0F1C5E49009C1F0A399
:4067C000F07F03C155F1DB7E007C017D801244A274832FF974043EFA7B0122906465E0FF2212B073127BC2127C6D0125F1DB7E007C017D801244A274032FF974003EFA7B67
:406800000122E49009B5F0A3F0A3F0A3F0A3F0A3F0A3F0A3740AF01257FB31BF128002900BE0E0FFB4430B9009B6E06F6002EFF0517831ABEF5408FF9009B3F0A3E06F60F0
:40684000D9A3E0FF04F0EFB407004002219A906855F828287302686A0268A50268F60269200269250269310269469009BCE014F070A8124CA79009BBEFF031AB9009B7EFCB
:40688000F09009BBE0FF124C8F9009B7E030E408900BD37401F08005E4900BD3F09009BC740AF0011A900BE0E0FF64437002011A9009B6E06F603B125FE3EF54FEFF125F38
:4068C000DD125FE3EF4402FF9161EF54FBFF71D4125FE39009BAEFF04408F04410F04404FFF0125FDDE4900C88F0900BE0E09009B6F071DA011A129A15900BD7E0FF900B8F
:40690000CBE06F600CEFF0E075F064A4FFAEF0F169900BE5E064016002011A12933A011A1283EF011A900BDDE06002011A91B4011A129B6AF1C6EF7002011A7BFF7A4C799B
:40694000DD125944011A900BE0E064436016900A27E0FCA3E0FDA3E0FEA3E0FF1286DD900BDDEFF031ABEF20E20231B1900BD4E0B4010FE4F07F2C7E01FDFC1258BD31B742
:40698000011A900BD4E064026002011AF07F2C7E01FDFC1258BD31B1011A125FFEE49009B5F09009B3E0A3F0011A22906460E0FF229046FA7440F09046F6E04401F0227F7B
:4069C00003F15CEF6012900C85E0701C7F03512A900C857401F08010900C85E0600A7F0312A947E4900C85F0F14FEF60047F03512A7F035167EFB401161267C59009C174D2
:406A000001F0A37480F07F031266557F03512A7F025167EFB401121267EC9009C17401F0A37480F07F021277D722EFD394004036EF94095031EF75F00BA42436F582E43430
:406A400009F583E4F0EF75F00BA4243AF582E43409F583E0FE75F010EFA424FEF582E5F0345FF583EEF022EF75F00BA42436F582E43409F583E0FF22900BF1E0B40B004018
:406A8000026185906A8AF8282873026AAB026B11026B28026B39026B85026B42026B4E026B58026B85026B85026B73900BF7E0FCA3E0FDA3E0FEA3E0FF900BF2E0F8A3E021
:406AC000F9A3E0FAA3E0FBC312464D602E900BF7E0FCA3E0FDA3E0FEA3E0FF1286DD900BFFEFF060026185900BF7E0FCA3E0FDA3E0FEA3E0FF900BF21246BE900C87E0608E
:406B0000026185900BE0E06443707A900BF104F0227186EF600C900BCF7401F0900BF104F022E4900BF1F022129D87900BFFEFF07053900BF17403F0229198900BF17405E5
:406B4000F0227186EF703E900BF17406F022125FE9900BF17407F022900BCEE0700E916A900BFFEFF0701E900BF1F022900BF1740AF0227186EF6007900BF17403F022906F
:406B80000BF17407F022124CA79009BEEFF031AB9009BDEFF0A3E0FF124C8F9009BDE0FF30E008900BCC7401F08005E4900BCCF0EF30E108900BCD7401F08005E4900BCD12
:406BC000F0900BCCE06006900BCDE070047F0180027F0022906576EFF022900C86E014603114603524F86042146066240B7071900C88E0606B900C87E07065900C8604F078
:406C0000125FE3EF54FDFF125FDD9164EF4404FF80C2900C867402F022125FE3EF54F7FF125FDD900C86740AF022900C88E07030900C87E0702A125FE3EF54FE4408FF129C
:406C40005FDD9164EF54FBFF71D4900C86740BF022125FE3EF4402FF125FDDE4900C86F022125FDD906576E0FF22900BF7E0FCA3E0FDA3E0FEA3E0FF1286DDEF600122919D
:406C800064EF54FBFF71D4125FE3EF441EFF125FDDE4900BCFF0FF22125FE3EF54F7FF54FDFF4404FF9161EF4404FF71D4900BCE7401F022900A27E0FCA3E0FDA3E0FEA3DB
:406CC000E0FF900C7BE0F8A3E0F9A3E0FAA3E0FBC312464D7002E14C900A27E0FCA3E0FDA3E0FEA3E0FF900C7B1246BE7FC07E3B7D477C03900C7BE0F8A3E0F9A3E0FAA335
:406D0000E0FBD312464D4008900C64740CF0C1A17FC07E057DD97C01900C7BE0F8A3E0F9A3E0FAA3E0FBD312464D4008900C64740BF0C1A17F807EBA7D8C7C01900C7BE0A6
:406D4000F8A3E0F9A3E0FAA3E0FBD312464D4008900C64740AF0C1A17F807EB17D4F7C01900C7BE0F8A3E0F9A3E0FAA3E0FBD312464D4008900C647409F0C1A17FC07EEA01
:406D80007D217C01900C7BE0F8A3E0F9A3E0FAA3E0FBD312464D4008900C647408F0C1A17F007E247DF47C00900C7BE0F8A3E0F9A3E0FAA3E0FBD312464D4008900C64741C
:406DC00007F0C1A17F007E1B7DB77C00900C7BE0F8A3E0F9A3E0FAA3E0FBD312464D4008900C647406F0C1A17F407E547D897C00900C7BE0F8A3E0F9A3E0FAA3E0FBD31222
:406E0000464D4008900C647405F0C1A17F807E8D7D5B7C00900C7BE0F8A3E0F9A3E0FAA3E0FBD312464D4008900C647404F080717F407E4B7D4C7C00900C7BE0F8A3E0F997
:406E4000A3E0FAA3E0FBD312464D4008900C647403F0804D7FC07EC67D2D7C00900C7BE0F8A3E0F9A3E0FAA3E0FBD312464D4008900C647402F080297F607EE37D167C00F6
:406E8000900C7BE0F8A3E0F9A3E0FAA3E0FBD312464D4008900C647401F08005E4900C64F07F807E1A7D067C00900C7BE0F8A3E0F9A3E0FAA3E0FBD312464D40067F027142
:406EC000D480047F0171D4900C877401F07FC07ED4FD7C00900C7BE0F8A3E0F9A3E0FAA3E0FBC312464D40247FE07E227D027C00900C7BE0F8A3E0A3E0A3E0D312464D5077
:406F00000BE4900BD8F0900C87F080407F807E1A7D067C00900C7BE0F8A3E0F9A3E0FAA3E0FBC312464D40247F207EA17D077C00900C7BE0F8A3E0A3E0A3E0D312464D5066
:406F40000B900BD87401F0E4900C87F07F0022E4FF900922E06004E0FFE4F02274122FF582E43409F583E0FF227B027A4F7904AD07AC06024CF2904F00E05401F0904F02CB
:406F8000E054FCF0904F00E04404F0904F0BE054CFF0E04430F0E054F0F0E0440FF0904F01E04401F07F317E00F1697F317E00F1B97F08904F03EFF0227B027A4F7906AD31
:406FC00007AC06024CF2904210E0548060047F0180027F0022900C96E07008F176900C967401F09043A3E04401F09043B3E04401F0904F00E04401F02290FFFC1246FC1246
:4070000046BE90FFF61246FC7B01900006124720A982AA83850883850982EBF0A3EAF0A3E9F07B0190000A124720A982AA83900003124720EBF0A3EAF0A3E9F09000031230
:407040004720E0FBA3E0FAA3E02403F9E43AFA124477FF850883850982E0FBA3E0FAA3E0F9EF124490900003124720E0FBA3E0FAA3E02402F9E43AFA124477FF8508838582
:407080000982E0FBA3E0FAA3E02401F9E43AFAEF124490900003124720E0FBA3E0FAA3E02401F9E43AFA124477FF850883850982E0FBA3E0FAA3E02402F9E43AFAEF1244FF
:4070C00090900003124720E0FBA3E0FAA3E0F9124477FF850883850982E0FBA3E0FAA3E02403F9E43AFAEF124490900006124720E0FCA3E0FDA3E0FEA3E0FF90000E0246F8
:40710000FCE490099BF0906000E090099CF0906001E090099DF090099CE05480648060026191A3E01246D6715500717F02734C06729420736C3371BC3A71E03C72113D72B2
:407140003A3F725A50726E5172D3A472F2A57315BF00007391900C09740CF0A374E0F09009187401F0A3740CF0A37409F0900916E4F0A37402F0F11E90099BEFF06191F146
:407180005E900C09EFF0E0FCA3E0FDA3E0FEA3E0FFEEEDEC4408FC900C091246BE9009187401F0A3740CF0A37409F0900916E4F0A304F0F11E90099BEFF061917A0A793C24
:4071C0009009187401F0A3740AF0A3743CF0900916E4F0A37404F0F11E90099BEFF061917F707E3D7D0A7C07126FF9900C091246BE9009187401F0A3740CF0A37409F090D1
:407200000916E4F0A37404F0F11E90099BEFF061917A0A79409009187401F0A3740AF0A37440F0900916E4F0A37404F0F11E90099BEFF0E4900C11F061919009187401F058
