:10410000024A4D008F828E83E0540100000070F857
:104110002278FFE4F6D8FD024ADB024462E86480BC
:10412000F8E933E83360110460F0ED33EC337009E3
:10413000E8FCE9FDEAFEEBFF220460DED3EB9FEA38
:104140009EE99DE8C2E78CF0C2F795F0400CE8CC00
:10415000F8E9CDF9EACEFAEBCFFB12442D85D0F089
:104160005804700320D5B3E80470075002B2D5029A
:10417000446C92D5EC0460F7E4CCC0E0C398F860DE
:104180003B94186008400DD0E0FB024444E4FBFA85
:10419000C9FC8028E830E406E4C9FBE4CAFCE83046
:1041A000E305E4C9CACBFCE854076010F8C3E9137F
:1041B000F9EA13FAEB13FBEC13FCD8F130F52FC33B
:1041C000E49CFCEF9BFFEE9AFEED99FDD0E0FBEF47
:1041D0004E4D4C701222DB03024469EC2CFCEF3391
:1041E000FFEE33FEED33FDED30E7EB024444EF2B01
:1041F000FFEE3AFEED39FDD0E0FB50130BBB0003A0
:1042000002446CED13FDEE13FEEF13FFEC13FC0202
:104210004444EC4D6011E8497017ED33EC33046011
:104220000DE4FCFFFEFD22E933E8330470F802449C
:104230006212442D58046009E4CC248150062850B1
:104240000902446C284003024469C0E0EB4A704410
:10425000B98006D0E0FB024458EF4E701CBD8008C8
:10426000EBFFEAFEE9FD80EBE98DF0A4FEE5F0024C
:1042700042FBE9CDF9EAFEEBFFEF89F0A4FCE5F0A3
:10428000CE89F0A42EFFE435F0CD89F0A42DFEE414
:1042900035F08067EF4E7005BD80D780C3EF8BF09F
:1042A000A4ACF0EE8BF0A42CFCE435F0F8EF8AF02F
:1042B000A42CE5F038FCE433CB8DF0A42CFCE5F025
:1042C0003BF8EE8AF0A42CFCE5F038F8E433CF8913
:1042D000F0A42CFCE5F038CF3400CE89F0A42FFFF9
:1042E000E5F03EFEE433C98DF0A42EFEE5F039CDB5
:1042F0008AF0A42FFFE5F03EFEE43DFD33D0E0FB65
:1043000050070BBB000F02446CEC2CFCEF33FFEEAC
:1043100033FEED33FD02444402446CEC5D04600561
:10432000E85904700302446212442D580460F6EC0C
:104330004860F2EC7004FDFEFF22C860DB2481C8F7
:104340005009C398600250060244699850CAF58229
:10435000E9294B4A7005AB8202445875F0007C1A7B
:104360007880C3EF9BEE9AED99400DC3EF9BFFEE73
:104370009AFEED99FDE842F0DC23ACF0D0E0FFD0EE
:10438000E0FED0E0FDAB8220E7101BEB60BAEC2C26
:10439000FCEF33FFEE33FEED33FD024444E803F857
:1043A00030E705C0F075F000EF2FFFEE33FEED3380
:1043B000FD40B830E7C280AA75F020800E75F0107D
:1043C000800575F0087D007E007F003392D530D5E2
:1043D00003124629EC334010EF33FFEE33FEED338A
:1043E000FDEC33FCD5F0ED22E5F0247EA2D513CC14
:1043F00092E7CDCEFF22EDD2E7CD33EC3392D52438
:10440000814006E4FFFEFDFC22FCE4CFCECDCC24AF
:10441000E0501174FF80EDC3CC13CCCD13CDCE137F
:10442000CECF13CF0470F030D5DE024629E9D2E7B3
:10443000C933E833F892D5EDD2E7CD33EC33FC50F5
:1044400002B2D522EC30E7100FBF000C0EBE000800
:104450000DBD00040BEB6014A2D5EB13FCED92E74D
:10446000FD2274FFFCFDFEFF22E480F8A2D574FF5C
:1044700013FC7D80E480EFBB010689828A83E02201
:104480005002E722BBFE02E32289828A83E4932260
:10449000BB010689828A83F0225002F722BBFE010B
:1044A000F322EF8DF0A4A8F0CF8CF0A428CE8DF0ED
:1044B000A42EFE22C5F0F8A3E028F0C5F0F8E582AE
:1044C000158270021583E038F022A3F8E0C5F025CC
:1044D000F0F0E582158270021583E0C838F0E8221A
:1044E000BB010A89828A83F0E5F0A3F0225006F727
:1044F00009A7F01922BBFE06F3E5F009F31922E83B
:104500008FF0A4CC8BF0A42CFCE98EF0A42CFC8AB8
:10451000F0EDA42CFCEA8EF0A4CDA8F08BF0A42D35
:10452000CC3825F0FDE98FF0A42CCD35F0FCEB8ED6
:10453000F0A4FEA9F0EB8FF0A4CFC5F02ECD39FE8C
:10454000E43CFCEAA42DCE35F0FDE43CFC2275F001
:1045500008758200EF2FFFEE33FECD33CDCC33CC88
:10456000C58233C5829BED9AEC99E58298400CF5A3
:1045700082EE9BFEED9AFDEC99FC0FD5F0D6E4CED1
:10458000FBE4CDFAE4CCF9A88222B800C1B9005905
:10459000BA002DEC8BF084CFCECDFCE5F0CBF978D2
:1045A00018EF2FFFEE33FEED33FDEC33FCEB33FB66
:1045B00010D703994004EB99FB0FD8E5E4F9FA22F0
:1045C0007818EF2FFFEE33FEED33FDEC33FCC933EB
:1045D000C910D7059BE99A4007EC9BFCE99AF90FB3
:1045E000D8E0E4C9FAE4CCFB2275F010EF2FFFEE1F
:1045F00033FEED33FDCC33CCC833C810D7079BEC6A
:104600009AE899400AED9BFDEC9AFCE899F80FD5E1
:10461000F0DAE4CDFBE4CCFAE4C8F922CFF4CFCE53
:10462000F4CECDF4CDCCF4CC22C3E49FFFE49EFEC7
:10463000E49DFDE49CFC22EB9FF5F0EA9E42F0E94C
:104640009D42F0EC6480C864809845F022EB9FF5B1
:10465000F0EA9E42F0E99D42F0E89C45F022E860D5
:104660000FECC313FCED13FDEE13FEEF13FFD8F1B7
:1046700022E8600FEFC333FFEE33FEED33FDEC3382
:10468000FCD8F122BB010789828A83024766500564
:10469000E9F802475ABBFE05E9F802477289828AA7
:1046A0008302477EBB010789828A830246BE50058A
:1046B000E9F802478EBBFE05E9F802479A22ECF0C2
:1046C000A3EDF0A3EEF0A3EFF022A42582F582E59E
:1046D000F03583F58322D083D082F8E4937012748E
:1046E0000193700DA3A393F8740193F5828883E47A
:1046F000737402936860EFA3A3A380DFE5092582AA
:10470000F582E5083583F583B50804858209221012
:10471000AF06858209F50822858209F508D2AF2205
:10472000E5092582F582E5083583F58322EC8EF0D4
:10473000A4CCC5F0CCCDF8EFA4CEC5F02DFDE43C63
:10474000FCE8A42EC8C5F03DFDE43CFCEFA4FFE569
:10475000F028FEE43DFDE43CFC22E6FC08E6FD0812
:10476000E6FE08E6FF22E0FCA3E0FDA3E0FEA3E0F6
:10477000FF22E2FC08E2FD08E2FE08E2FF22E493E9
:10478000FC740193FD740293FE740393FF22ECF614
:1047900008EDF608EEF608EFF622ECF208EDF20866
:1047A000EEF208EFF222410BDF55410BD632410BFE
:1047B000CF00410BCE00410BDA01410BE512410B5A
:1047C000D000410BD432410BDD00410BD100410B35
:1047D000E401440BE000000000410BDE00410BD976
:1047E00002410BDB00410BD500410BDC00410BD833
:1047F00000410BD200410BD300410BCB00410C8791
:1048000000410C8600410C8B00410C8A00410C8950
:104810000060390B4B480707070778B5B60755CE38
:10482000865695FD7D3D1D0D0585C5E5F5E007071F
:104830008D0730684284A4830124C3040274A34416
:10484000C282E364D443038123146394B4C4440C4C
:104850006900001388410C5A00420C4F3DF4420C91
:10486000510000410C5300420C540BB8420C56004E
:1048700000420C580000440AF800000000440AFC02
:1048800000000000410AC700410AD400440AEA00BF
:10489000000000440AEE00000000410AF200410A54
:1048A000F300410AF400410AF500440A3C713D0A54
:1048B00007440A4D713D0A07410A2600440A2B00AD
:1048C000000000410A4C00410A3000440A27000061
:1048D0000000440A51017D7840410A2500410A0E3A
:1048E00000420A31002A420A0C002A440A560000FB
:1048F0000000410A5E00410A5500420A0F000044D0
:1049000009FE00000000410A0200440A0300000002
:1049100000440A0700000000410A0B00440BF900A4
:10492000000000440BEF00000000410BF700410BBA
:10493000F800440BFD00000000440BE600000000FE
:10494000440BEA00000000410BEE00410903004463
:104950000C2800000000440C2400000000410C233F
:1049600000440C2C00000000410C1A00420C1B27D4
:1049700010440C1F000D4A58410C1732410C150011
:10498000410C1800410C1600410C1015440C11008C
:10499000000000410C1900410C0100410C020041D3
:1049A0000C0300410C0400410C0500410C060041C1
:1049B0000C0700410C0A00410C0B00440C0C0000D9
:1049C0000000410A9E00410ABA0C490A5F00000437
:1049D000040000000000410C8D00410C9200410CCD
:1049E00093FF410C94FF410C95FF410C96FF410C45
:1049F00097FF410C98FF410C7280410C717F440C71
:104A00006D000000FF440C46023366C4440C4100B4
:104A100000903C410C4525440C4B481E0000410CC5
:104A20009900460C73008102370300410C9AFF4144
:104A30000C9BFF430C79000000410C9C00420BA230
:104A40000180420BA4FF7F420BA001000075930080
:104A500078007583467582E8E04401F000904800D4
:104A600074C0F07581099076BCE4F0A3F0A3F0A3C4
:104A7000F0907010F0907019F0907020F090760027
:104A80007410F0907604E4F0A3F0A3F0A3F0907813
:104A9000007800087400F0A37408F0E8B804027409
:104AA000FFA3F0A37422F0A374BCF0A37476F0A368
:104AB000E4F0A3E81475F008A4F0A3B804D590704E
:104AC000107401F0907014F07E707F181241049001
:104AD0007010F0EA900C4AF002411175081F750938
:104AE000FD12BBA7129F7F12BB3A024B280267F34D
:104AF000E493A3F8E493A34003F68001F208DFF403
:104B00008029E493A3F85407240CC8C333C4540F7A
:104B10004420C8834004F456800146F6DFE4800B4D
:104B200001020408102040809047A6E47E019360B3
:104B3000BCA3FF543F30E509541FFEE493A360017A
:104B40000ECF54C025E060A840B8E493A3FAE493E4
:104B5000A3F8E493A3C8C582C8CAC583CAF0A3C892
:104B6000C582C8CAC583CADFE9DEE780BEC2D5E810
:104B700030E70FB2D5E4C39BFBE49AFAE499F9E479
:104B800098F8EC30E717B2D5124BA312458AE4C36C
:104B90009BFBE49AFAE499F9E498F8800312458AB9
:104BA00030D50DE4C39FFFE49EFEE49DFDE49CFC34
:104BB00022758600EF4E6027EF60010E759300901E
:104BC00009B8E0F595A3E0F585A3E0F5848B938A19
:104BD000838982E0A30586F0A31586DFF6DEF4E480
:104BE000F593F59522EC4D6011ED60010C8B938AE5
:104BF000838982E4F0A3DDFCDCFA75930022323273
:104C0000EC4D4E700D78FCEF24E950032840FD2256
:104C100000007BF178DA0000EF28FF78FFEE38FE25
:104C2000ED38FDEC38FC50E7EF2BFFEE38FEED38A9
:104C3000FDEC38FC40F2220502030432EEFA900C3F
:104C400045E0F88FF0A4FFAEF0E88AF0A42EFEE570
:104C5000F03400FDEF24C9FF78FFEE38FEED38FD9B
:104C6000E438FC5003024C0022758600EF4E601BB6
:104C7000EF60010E8C838D828B958A858984E49305
:104C8000A30586F0A31586DFF5DEF3E4F59522EFA4
:104C900054016004D2AF8002C2AFEF5402FF9044CF
:104CA000F4E054FD4FF0229044F4E0F84402F0E8C0
:104CB0005402FF10AF012274014FFF228B938A83AD
:104CC0008982EFF0A3EEF0A3EDF0A3ECF075930072
:104CD0002245202000502020005320200043202087
:104CE000008B938A838982E0FFA3E0FE7593002204
:104CF0008B938A838982EDF0A3ECF0759300228B6D
:104D0000938A838982E0759300FF228B938A83893B
:104D100082EDF075930022EC30E7031246292280E1
:104D20000000000000000000000000000000000083
:104D30000000000000000000000000000000000073
:104D40000000000040000000000000000000000023
:104D50000000000000000000000000000000000053
:104D60000000000000000000000000000000000043
:104D70000000010000000000000000000000000032
:104D80000000000020000000000000000000000003
:104D90000000000000000000000000000000000013
:104DA000008000000000000000000400000001007E
:104DB00000000000000404000000000000000000EB
:104DC0000000014040400000000000100000000012
:104DD0000000000000000000000000000000004093
:104DE00000000000000000200000000000000000A3
:104DF00000000080000000800000000000000000B3
:104E00000080000000000000001000000000000012
:104E10000000000000000000000000000000000092
:104E20000000000000000000000000000000000082
:104E30000000000000000000000000000000000072
:104E400040400000000000000000000000000000E2
:104E50000000000000000000000000000000000052
:104E60000000000000000000000000000000000042
:104E70000000000000000000000000000000002012
:104E80000000000000000000000000000000000022
:104E90000000000000000000000000000000000111
:104EA00000010000200000200000000000000000C1
:104EB00000000001808404000000000000000000E9
:104EC00000000150604100000000000000004000B0
:104ED000000400004000000000000000000000008E
:104EE00000000000000000100000000000000000B2
:104EF0000000000000000040000000000000000072
:104F00000090000000800000000000000040000051
:104F10000000000000000000000000000000000091
:104F20000000000000000000000000000000001071
:104F30000000000000000000000000000000000071
:104F40000000000000000000000000000000000061
:104F50000000000000000000000000200000000031
:104F60000000000000000000000000000000000041
:104F700040000000000000000000000000000000F1
:104F80000000000000000000000000000000000021
:104F90000000000000000000000000000000000011
:104FA00000200001000000010000000000000000DF
:104FB00040000001008044000000001100200000BB
:104FC00000000141604100000000140000000000EA
:104FD00000000000000000000000000000000000D1
:104FE0000000001000000000000000000020000091
:104FF0000000002000000000000000000000000091
:105000000020000000100000000000A000000000D0
:105010000000000000000000000000000000000090
:1050200000000000000000001000000000002A0046
:105030000000000000000000000000000000000070
:105040000000000000000000000000000000000060
:105050000000000000000004000000000000440404
:105060000000000000000000000000000000000040
:10507000001000010020000000800000000000017E
:1050800020000000002000000000000000000000E0
:105090000000000000000000000000000000000010
:1050A000001000000010004000000000100000048C
:1050B000401000000000000000000011000000008F
:1050C000000000004041000000000000000021003E
:1050D00000000000000000000000000000000000D0
:1050E00000E00000000000000000000000E00010F0
:1050F000000000E0006000C0000000000000008030
:10510000004000000000000000000000000000005F
:10511000000000000000000000000000000000008F
:10512000000000000000000000000000000000007F
:10513000400000000080000400000100001000009A
:10514000000000000000000000000000000000114E
:10515000000000000041000000000000800000008E
:10516000000020000000000000000000000000001F
:10517000000000000000000000000000000000002F
:10518000000000000000000000000000000000001F
:10519000000000000000000000000000000000000F
:1051A000008000000000000000000000000000007F
:1051B00000000000000000000000000000000000EF
:1051C00000000000000000000000000000000000DF
:1051D00000000000000000000000000000000000CF
:1051E0000000006000700000000000F000200010CF
:1051F000000000000000000000000000000000802F
:10520000000000000000000000000000000000009E
:10521000000000000000000000000000000000018D
:10522000000000000000000100000000000100017B
:105230000000001000010001000000080000000153
:105240000000000800010001000000010008230226
:10525000521F760800082303522776100008230403
:10526000522F76200008230552377628000823069F
:10527000523F76300005230752477020000523086F
:105280005247703000052309524770500005230A29
:1052900052477060000523FE524770700015220CC3
:1052A0000C8249C8004022FE0C8251300180220E3F
:1052B0000C8208000180220F0C820A00018022105B
:1052C0000C820C00018022110C820E0001002212BF
:1052D0000C824400008022130C824600008022FED3
:1052E0000C824D00008023154D1F480000802316BE
:1052F0004D9F4880008023174E1F430000802318D5
:105300004E9F4380008023194F1F42000080231AC4
:105310004F9F42800080231B501F41000080231CB0
:10532000509F41800080231D511F4000008023FEBC
:10533000519F40800007231F0828520000072320A8
:105340000830520800072321083852100006232293
:10535000084052600007232308485278000823249D
:1053600008504578000C232508604F0000202326B4
:10537000106C6470002023FE108C657000082328D8
:105380000858510000802329086C00000080232A5F
:1053900008EC00800080232B096C02000080232C85
:1053A00009EC02800080232D0A6C04000080232E6B
:1053B0000AEC04800080232F0B6C06000080233051
:1053C0000BEC0680008023310C6C1400008023322B
:1053D0000CEC1480008023330D6C16000080233405
:1053E0000DEC1680008023350E6C180000802336EB
:1053F0000EEC1880008023370F6C1A0000802338D1
:105400000FEC1A800010233910AC50100010233A12
:1054100010BC50000080233B10CC4D800080233C0A
:10542000114C4C000080233D11CC4C800080233E69
:10543000124C47000080233F12CC4780008023405D
:10544000134C46800080234113CC4500008023424A
:10545000144C45800080234314CC1B00008023445F
:10546000154C1B800080234515CC15000080234679
:10547000164C15800080234716CC19000080234865
:10548000174C19800080234917CC17000080234A4D
:10549000184C17800080234B18CC09800080234CC7
:1054A000194C07000080234D19CC07800080234E43
:1054B0001A4C0B800080234F1ACC0500008023502B
:1054C0001B4C0580008023511BCC0D800080235293
:1054D0001C4C0300008023531CCC03800080235409
:1054E0001D4C0F80008023551DCC010000802356E9
:1054F0001E4C0180008023571ECC4900008023FEF3
:105500001F4C498000010000000200000004000060
:105510000005000000060000120100020000000863
:10552000C016DC0503000F0E80010902B70004015C
:1055300000C0020904000000FF00000C0904010083
:1055400000010100090A2401000134000202030CD9
:1055500024020103060002030000000924030201E3
:10556000010001000C2402030101000203000000FD
:1055700009240304030600030009040200000102D9
:10558000000A09040201010102000A0724010202C3
:1055900001000B24020102021001007701090582BB
:1055A0002D8001010000072501800100000904038E
:1055B00000000102000B09040301010102000B07B6
:1055C0002401030101000B240201020210010077F3
:1055D000010905032D80010100000725018001005C
:1055E00000040309040C0341004500390052004245
:1055F000001A0350006500610062006500720072CD
:10560000007900200053004400520022035000653E
:105610000061006200650072007200790020005293
:105620000065006300650069007600650024035092
:105630000065006100620065007200720079002060
:10564000005400720061006E0073006D0069007408
:10565000001E035000650061006200650072007268
:10566000007900200052006100640069006F00169C
:10567000034400470038005300410051002D004909
:1056800000320043001A037700770077002E006F86
:105690000062006400650076002E00610074001E48
:1056A000034D0075006C007400750073002000430A
:1056B000006F006E00740072006F006C0020034DDC
:1056C0000075006C007400750073002000490051E3
:1056D00000200053006F0075006E00640024034D2D
:1056E0000075006C007400750073002000490051C3
:1056F00000200052006500630065006900760065C7
:105700000026034D0075006C0074007500730020C6
:10571000004900510020005400720061006E0073C7
:10572000006D006900740026034D0075006C007464
:105730000075007300200053004400520020004315
:10574000006F006E00740072006F006C0020034D4B
:105750000075006C00740075007300200053004455
:105760000052002C004C004C0043002E001203504D
:105770000072006F0066006900630069006F002618
:10578000037700770077002E006D0075006C0074C1
:1057900000750073002D007300640072002E00631A
:1057A000006F006D000012035000450030004600FD
:1057B0004B004F002D0030000201822D01800103BB
:1057C00001032D018001FF01010101FF552A02FFA4
:1057D00057B80000000000000000000000000000BA
:1057E000000000FF57C601FF55180000000001FF30
:1057F00057CA01FF57E6303132333435363738393E
:1058000041424344454600E49009BFF0A3F0A3F0B1
:10581000A3F0A3F07F64FEFDFC11C9D2AF9044F465
:1058200074FDF0127AD012A43F12BF5E7E9C7F51AD
:1058300012BF9C129607E4FFFEFDFC9009C51246BC
:10584000BE7FC031B49009BDEFF0700912B8AE123E
:10585000A43F12B94D127D5C9009BEEFF09009BDD6
:10586000E0700CA3E060087BFF7A4C79D131509056
:1058700009BEE060087BFF7A4C79D531509009BDB4
:10588000E070087BFF7A4C79D931507F807E9F7D14
:10589000D57C00900A271246BEE4900A2FF0900AA9
:1058A00027E0FCA3E0FDA3E0FEA3E0FF1287F3EFF7
:1058B00070ECE47FDC7E05FDFC11C9F1EEEF54FED7
:1058C000FFF1E8E47F05FEFDFC90FFFC1246FC12B0
:1058D00046BE850883850982E0A3E0A3E0FEA3E03D
:1058E000D39400EE9480403D900C4BE0FCA3E0FD8F
:1058F000A3E0FEA3E0FF124C00850883850982C067
:1059000083C082E0FCA3E0FDA3E0FEA3E02400FF4F
:10591000EE3480FEED34FFFDEC34FFFCD082D0830A
:105920001246BE80AD900C41E0FCA3E0FDA3E0FE7A
:10593000A3E0FF850883850982E0F8A3E0F9A3E0EE
:10594000FAA3E0FB1244FF124C009000040246FC54
:105950009009C4EBF0A3EAF0A3E9F0E49009C8F0E1
:10596000A3F0900A9EE0600312A7CFF1EEEF54017E
:10597000440AFFF1E89009C4E0FBA3E0FAA3E0F9D0
:1059800012798E12696CEF5408FF9009C7E06F60BE
:10599000F2EFF0A374FFF5F01244CA45F070E49002
:1059A00009C804F0A374E0F07B007A007900127952
:1059B0008E80D0229009C4EFF0E49009C9F0FF7EF8
:1059C000D77DA37C7012701E900A401246BE9009CB
:1059D000C4E0FD7FB751919009C9EFF07002418991
:1059E000E4FFFEFDFC9009C5E0F8A3E0F9A3E0FAAE
:1059F000A3E0FBC312464D60149009C5E0FCA3E090
:105A0000FDA3E0FEA3E0FF900A511246BE7D807F19
:105A10001051919009C9EFF07D807F11519190094B
:105A2000C9EFF07D807F1251919009C9EFF07D0C94
:105A30007F1051919009C9EFF07D0C7F1151919029
:105A400009C9EFF07D0C7F1251919009C9EFF0E484
:105A5000FDFF1294A9E4FF1295EA7F011295EAE492
:105A6000FD7F0112924BE4FD7F0212924BE4FD7F19
:105A70000112911CE4FD7F0212911CE4FD7F0112D2
:105A8000901BE4FD7F0212901B9009C9E0FF7E008D
:105A9000229009E97401F0E4A3F09009E7EFF0A384
:105AA000EDF07B017A0979E79009EF7402F0E4A345
:105AB000F07F6012919C9009EAEFF01290FEEF30B7
:105AC000E1F9F1F4EF64026005E49009E9F090096E
:105AD000E9E0FF229009DDEFF0900AD4E0B408007D
:105AE000400281E5905AEBF8282873025B03025BC1
:105AF0006F025B94025BDA025C09025C2F025C932A
:105B0000025CC2E47F80FEFDFC9009DEE0F8A3E0C9
:105B1000F9A3E0FAA3E0FB1244FFE42FFFEE34FE0A
:105B2000FEED34FFFDEC34FFFC900AC81246BEE4E3
:105B3000FFFEFDFC900ACC1246BEE47F01FEFDFC98
:105B4000900AD01246BE900AD0E0FCA3E0FDA3E08C
:105B5000FEA3E0E4FFEEE4FDFC780812465EAD072C
:105B60009009DDE0FF5191900AD4E004F081E590C6
:105B700009DDE004FFC007900AD0E0FCA3E0FDA32C
:105B8000E0FEA3E0FFE4AD07D0075191900AD4E016
:105B900004F081E59009DDE02402FFC007900AC807
:105BA000E0FCA3E0FDA3E0FEA3E0E4FFFEED540370
:105BB000FDE4FC781012465EA804A905AA06AB070E
:105BC0009009E2E0FFE4EB4FFFEAE9E8AD07D00718
:105BD0005191900AD4E004F081E59009DDE02403BE
:105BE000FFC007900AC8E0FCA3E0FDA3E0FEA3E02D
:105BF000E4FFEEE4FDFC780812465EAD07D00751E5
:105C000091900AD4E004F081E59009DDE02404FFDE
:105C1000C007900AC8E0FCA3E0FDA3E0FEA3E0FFFC
:105C2000E4AD07D0075191900AD4E004F081E590EB
:105C300009DDE02405FFC007900ACCE0FCA3E0FDED
:105C4000A3E0FEA3E0E4FFFEED540FFDE4FC7810BA
:105C500012465EC004C005C006C007A3E0FCA3E076
:105C6000FDA3E0FEA3E0E4FFFEED540FFDE4FC78AD
:105C70000C12465ED003D002D001D000EF4BFFEEF5
:105C80004AED49EC48AD07D0075191900AD4E004A1
:105C9000F080529009DDE02406FFC007900ACCE0B6
:105CA000FCA3E0FDA3E0FEA3E0E4FFEEE4FDFC784E
:105CB0000812465EAD07D0075191900AD4E004F077
:105CC00080239009DDE02407FFC007900ACCE0FCA8
:105CD000A3E0FDA3E0FEA3E0FFE4AD07D0075191F0
:105CE000E4900AD4F0900AD4E0FF229009DDEFF0AE
:105CF000A3EDF0900AC7E0B408004002E1E2905D35
:105D000005F8282873025D1D025E80025EA5025E12
:105D1000D7025F06025F2C025F90025FBF9009E32B
:105D2000E0FCA3E0FDA3E0FEA3E0FFE41243B8C063
:105D300004C005C006C0079009DFE0FCA3E0FDA396
:105D4000E0FEA3E0FFE41243B8D003D002D001D0BC
:105D50000012431BE4FBFAF978431242121243F695
:105D6000900ABB1246BE9009DEE0FF7E007C007DFB
:105D70008012472D900ABBE0F8A3E0F9A3E0FAA354
:105D8000E02FFFEA3EFEE93DFDE83CFCE42FFFEE9C
:105D900034FEFEED34FFFDEC34FFFC900ABB1246EE
:105DA000BE9009E3E0FCA3E0FDA3E0FEA3E0FFE476
:105DB0001243B8C004C005C006C0079009DFE0FC6C
:105DC000A3E0FDA3E0FEA3E0FFE41243B8D003D0BC
:105DD00002D001D00012431BE4FBFAF978431242CF
:105DE000121243F6900ABF1246BE900ABFE0FCA30F
:105DF000E0FDA3E0FEA3E0FF9009E3E0F8A3E0F9F3
:105E0000A3E0FAA3E0FB1244FFC004C005C006C033
:105E100007E47F80FEFDFC9009DFE0F8A3E0F9A332
:105E2000E0FAA3E0FB1244FFD003D002D001D0007F
:105E3000C3EF9BFFEE9AFEED99FDEC98FC900ABF34
:105E40001246BE9009E3E0FCA3E0FDA3E0FEA3E060
:105E5000FF900AC31246BE900AC3E0FCA3E0FDA374
:105E6000E0FEA3E0E4FFEEE4FDFC780812465EAD40
:105E7000079009DDE0FF5191900AC7E004F0E1E2EC
:105E80009009DDE004FFC007900AC3E0FCA3E0FD39
:105E9000A3E0FEA3E0FFE4AD07D0075191900AC74D
:105EA000E004F0E1E29009DDE02402FFC007900A7F
:105EB000BBE0FCA3E0FDA3E0FEA3E0E4FFFEED54A5
:105EC00003FDE4FC781012465EAD07D007519190B7
:105ED0000AC7E004F0E1E29009DDE02403FFC00717
:105EE000900ABBE0FCA3E0FDA3E0FEA3E0E4FFEE2C
:105EF000E4FDFC780812465EAD07D0075191900A88
:105F0000C7E004F0E1E29009DDE02404FFC007905F
:105F10000ABBE0FCA3E0FDA3E0FEA3E0FFE4AD07C5
:105F2000D0075191900AC7E004F0E1E29009DDE06A
:105F30002405FFC007900ABFE0FCA3E0FDA3E0FE3C
:105F4000A3E0E4FFFEED540FFDE4FC781012465E82
:105F5000C004C005C006C007A3E0FCA3E0FDA3E0A9
:105F6000FEA3E0E4FFFEED540FFDE4FC780C1246C6
:105F70005ED003D002D001D000EF4BFFEE4AED49D6
:105F8000EC48AD07D0075191900AC7E004F0805269
:105F90009009DDE02406FFC007900ABFE0FCA3E003
:105FA000FDA3E0FEA3E0E4FFEEE4FDFC780812466A
:105FB0005EAD07D0075191900AC7E004F0802390AE
:105FC00009DDE02407FFC007900ABFE0FCA3E0FD65
:105FD000A3E0FEA3E0FFE4AD07D0075191E4900AEF
:105FE000C7F0900AC7E0FF22906474EFF02290643B
:105FF00074E0FF22900C5FE0FF2212AE1BEF6010F6
:10600000900A9EE0701A7D02FF12A159F19301944B
:10601000900A9EE0600AE4900C8BF0112112A7CF49
:10602000227DF07F4011C89009C4EFF012B99B1295
:10603000B961900C94E0FF1161900C93E0FF116145
:10604000900C96E0FF1161900C95E0FF1161900CAF
:1060500097E0FF116112B9AF12B9759009C4E0FF62
:10606000227E01EFC39418502875F010EFA424107D
:10607000F582E5F03470F583E054FEF075F010EF32
:10608000A42410F582E5F03470F583E054DFF0E4E9
:106090001EAF06227DC07F4011C87D807F4511C89C
:1060A0007DFF7F4111C87DFF7F4211C8913F31457F
:1060B00012B986124CA790659BE04410F0124C8FE9
:1060C000906579E04401F0229009C5EFF0A3EDF06E
:1060D000E49009C9F0A3F0A3F09009C9E0FFC394CC
:1060E00002505FEF14602F0470EF9009C5E0900933
:1060F000C7F09009C6E09009C8F07B017A0979C71A
:106100009009EF7402F0E4A3F07F4612919C90098D
:10611000C9E004F080C31290FEEF30E7089009C98F
:10612000E014F0800AEF30E1069009C9E004F09035
:1061300009CA74FFF5F01244B445F0709C7F012247
:1061400080977F0022E49009BDF09009BDE0FFC375
:106150009403400221ECEF6402703FE02407F582D3
:10616000E43409F583E0FF900907E0FBE49009CCF3
:10617000F07D01FC71B89009BDE02407F582E4349C
:1061800009F583E0FF7B017A097903E9EAE4AD01CF
:10619000AC027B4B7A65B188804A9009BDE0FE2451
:1061A00007F582E43409F583E0FF74082EF582E4F4
:1061B0003409F583E0FB9009CC7404F07D017C0088
:1061C00071B89009BDE02407F582E43409F583E055
:1061D000FF7B017A09790BE9EAE4AD01AC027B4B64
:1061E0007A65B1889009BDE004F0214A900C96E0F0
:1061F000FFD11E900C96E0FF900907E0FDD100E46E
:106200009009BDF09009BDE0FFC3940340026124F2
:10621000EF04A3F0C39403402EE4F09009BDE02402
:106220000FF582E43409F583E0FF9009BEE0240F06
:10623000F582E43409F583E0FB9009CC7405F07D28
:10624000807C0171B880299009BDE0240FF582E4BB
:106250003409F583E0FF9009BEE0240FF582E434B1
:1062600009F583E0FB9009CC7401F07D80FC71B8E6
:106270009009BDE0FB75F080A42483F582E5F0343D
:1062800004F583EB2583F583FEE582EEE4AD82AC75
:1062900006C005740F2BF582E43409F583E0FF7B1B
:1062A000017A09790BE9EAE4AB01D005B1889009DC
:1062B000BDE02400F582E43400F583E0FF9009BEE0
:1062C000E02400F582E43400F583E0FB9009CC740F
:1062D00002F07D807C0171B89009BDE0F975F08015
:1062E000A42483F582E5F03404F583E92583F5835E
:1062F000FEE582EEE4AB82AA06C002C00374002968
:10630000F582E43400F583E0FF7B017A097903E943
:10631000EAE4AD01AC02D003D002B1889009BDE03F
:1063200004F04104900C95E0FFD11E900C95E0FF25
:1063300090090FE0FDD100900C97E0FFD11E900C6A
:1063400097E0FF900000E0FDD100900C97E0FF7D0A
:1063500001716D900C95E0FF7D0112BB70900C9562
:10636000E0FF7D01716D900C96E0FF7D017E01EFF5
:10637000C394185040ED601575F010EFA42410F58B
:1063800082E5F03470F583E04420F0801375F0105E
:10639000EFA42410F582E5F03470F583E054DFF0CB
:1063A00075F010EFA42410F582E5F03470F583E069
:1063B0004401F0E4FEAF06229009C9ECF0A3EDF031
:1063C000A3EBF09009C8EFF09009CD7401F0EFC392
:1063D000948050659009C9E054F0A3705C9009C89E
:1063E000E075F008A42400FFE5F03478FE9009CEB3
:1063F000F0A3EFF0AA06F97B019009C9E0FCA3E045
:10640000FD124CF29009CBE0FF9009C8E0FE75F058
:1064100008A42402F582E5F03478F583EFF09009C2
:10642000CCE0FF75F008EEA42403F582E5F03478A3
:10643000F583EFF0E49009CDF09009CDE0FF22E480
:106440009009BDF09009BDE0FFC394035070EFB414
:10645000021C2404F582E43409F583E0FF9009046A
:10646000E0FBE49009CCF07D01FC71B88028900934
:10647000BDE0FE2404F582E43409F583E0FF7405F1
:106480002EF582E43409F583E0FB9009CC7404F026
:106490007D017C0071B89009BDE02404F582E434EC
:1064A00009F583E0FF7B017A09790AE9EAE4AB01A7
:1064B0007D497C65B1889009BDE004F08086900C30
:1064C00094E0FFD11E900C94E0FF900904E0FDD110
:1064D00000E49009BDF09009BDE0FFC394034002C1
:1064E000A163EF04A3F0C394034002E4F09009BD5C
:1064F000E0240CF582E43409F583E0FF9009BEE066
:10650000240CF582E43409F583E0FB9009CC740295
:10651000F07D807C0171B89009BDE0F975F080A430
:106520002403F582E5F03400F583E92583F583FE45
:10653000E582EEE4AB82AA06C002C003740C29F522
:1065400082E43409F583E0FF7B017A09790AE9EAFC
:10655000E4AD01AC02D003D002B1889009BDE004E3
:10656000F081D6900C93E0FFD11E900C93E0FF9049
:10657000090CE0FDD100900C93E0FF7D01716D905E
:106580000C94E0FF7D01616D9009C9ECF0A3EDF082
:10659000A3EAF0A3EBF09009C8EFF09009CD7401E5
:1065A000F0EFC3948050539009C8E075F008A4241C
:1065B00004FFE5F03478FE9009CEF0A3EFF0AA06D0
:1065C000F97B019009C9E0FCA3E0FD124CF29009AF
:1065D000C8E075F008A42406FFE5F03478FE9009C1
:1065E000CEF0A3EFF0AA06F97B019009CBE0FCA363
:1065F000E0FD124CF2E49009CDF09009CDE0FF22CD
:106600007E01EFC39418501375F010EFA42419F510
:1066100082E5F03470F583EDF0E41EAF06227E01D2
:10662000EFC39418502875F010EFA42414F582E5F8
:10663000F03470F583E04404F075F010EFA42410FA
:10664000F582E5F03470F583E04401F0E41EAF0616
:10665000229009BEEBF0A3EAF0A3E9F09009BDEFA8
:10666000F024FFFFE434FFFEEFC4F8540FC868FFC6
:10667000EEC454F048EF2488FFE43460FAA9079090
:1066800009C47401F0A3EAF0A3E9F0900C87E030AC
:10669000E1089009C37492F080069009C374D2F0A7
:1066A0009009BDE024B1F582E4340AF583E0FF11DE
:1066B000619009BDE02495F582E4340AF583E0FB9E
:1066C000FF9009C1E0FCA3E0FDA3E09009CCF071CC
:1066D000B89009BDE02495F582E4340AF583E0FF23
:1066E000C0079009C4E0FBA3E0FAA3E0F9FFAE0203
:1066F000EAE4AD07AC06C0059009BEE0FBA3E0FAF2
:10670000A3E0F9FFEAE4AB07D005D007B188900910
:10671000BDE024B1F582E4340AF583E0FFD11E9098
:1067200009BDE0FE24B1F582E4340AF583E0FF748C
:10673000952EF582E4340AF583E0FDD1009009BD81
:10674000E024B1F582E4340AF583E0FF7D01616D58
:106750009009C4EFF07FF47E3D128307127C7B909A
:1067600009C5EFF0E0FBFFE49009CCF07D01FC717E
:10677000B89009C5E0FF7B227A427D667C65B188CE
:106780009009C4E0FFA3E0FDD1009009C4E0FF7DC3
:1067900001616D900A97E0B4FF07F1DD7F0212A856
:1067A000B9900A98E0B4FF07F1C17F0312A8B9E4D9
:1067B000900C88F0F1C1E49009C1F0A3F07F03C10F
:1067C00051F1D77E007C017D801244A274832FF9A1
:1067D00074043EFA7B0122906465E0FF22F1D77ECB
:1067E000007C017D801244A274032FF974003EFAEC
:1067F0007B0122E49009B5F0A3F0A3F0A3F0A3F08D
:10680000A3F0A3F0A3740AF012580791CA127FEF05
:10681000900BDFE0FFB4430B9009B6E06F6002EF2E
:10682000F03172316CEF5408FF9009B3F0A3E06FC0
:1068300060D9A3E0FF04F0EFB407004002215B90B1
:106840006846F828287302685B0268960268DF02CF
:10685000690902690E02691B0269319009BCE014E2
:10686000F070A8124CA79009BBEFF0316C9009B7FB
:10687000EFF09009BBE0FF124C8F9009B7E030E4D5
:1068800008900BD37401F08005E4900BD3F09009CD
:10689000BC740AF0010B900BDFE0FF64437002014F
:1068A0000B9009B6E06F6033125FEEEF54FEFF12FB
:1068B0005FE8125FEEEF4402FF125FE8125FEE90B6
:1068C00009BAEFF04408F04410FFF0125FE8E490DA
:1068D0000C8BF0900BDFE09009B6F09140010BB10A
:1068E00093900BD6E0FF900BCBE06F600DEFF0E0E4
:1068F00075F064A4FFAEF012BF82900BE4E0640177
:106900006002010B129329010B1283DD010B900B26
:10691000DCE06002010B1296D8010B129A8412BBC4
:1069200095EF7002010B7BFF7A4C79DD1259500113
:106930000B900BDFE064436016900A27E0FCA3E0B5
:10694000FDA3E0FEA3E0FF1287F3900BDCEFF03134
:106950006CEF30E202010BB185010B125FFAE4909B
:1069600009B5F09009B3E0A3F0010B22906460E058
:10697000FF22E49009BFF0900C0BE0B40B00400242
:106980008130906989F82828730269AA026A2C026A
:106990006A86026AC9026B11026B33026B85026B55
:1069A0009B026C30026C30026BDC900C11E0FCA39B
:1069B000E0FDA3E0FEA3E0FF900C0CE0F8A3E0F9FB
:1069C000A3E0FAA3E0FBC312464D6047900C11E030
:1069D000FCA3E0FDA3E0FEA3E0FF1287F3900C19F7
:1069E000EFF060028130900C11E0FCA3E0FDA3E029
:1069F000FEA3E0FF900C0C1246BE900C8AE06002F1
:106A00008130900BDFE0644360028130900C0BE03A
:106A100004F022900C8AE060028130900BDFE06489
:106A20004360028130900C0BE004F022124CA790DE
:106A300009BEEFF0316C9009BDEFF0A3E0FF124CFE
:106A40008F9009BDE0FF30E008900BCC7401F0801E
:106A500005E4900BCCF0EF30E108900BCD7401F021
:106A60008005E4900BCDF0900BCCE06006900BCD50
:106A7000E0700D900BCF7401F0900C0BE004F0224D
:106A8000E4900C0BF022125FEEEF54EFFF125FE880
:106A9000900A0FE0FEA3E0FFEE3395E0FDFC900CC2
:106AA00011E0F8A3E0F9A3E0FAA3E02FFFEA3EFE2D
:106AB000E93DFDE83CFC1287F3900C19EFF0600211
:106AC0008130900C0BE004F022125FEE9009BFEFD2
:106AD000F0900BD2E0640170239009BFE054F7F00E
:106AE00054FDF0913AEF4404FF9131900BCE7401C4
:106AF000F0FF91C4900C0B7405F0800D9009BFE07D
:106B000054F7F0900C0B7404F09009BFE0FF025FA3
:106B1000E8125FEEEF54FDFF125FE8913AEF440494
:106B2000FF9131900BCE7401F0FF91C4900C0BE0FB
:106B300004F022124CA79009BEEFF0316C9009BD11
:106B4000EFF0A3E0FF124C8F9009BDE0FF30E008AA
:106B5000900BCC7401F08005E4900BCCF0EF30E1A9
:106B600008900BCD7401F08005E4900BCDF0900BF4
:106B7000CCE070028130900BCDE070028130900C3F
:106B80000BE004F022125FEEEF4402FF9137EF5466
:106B9000FBFF9131900C0BE004F022900BCEE070E3
:106BA00034900C11E0FCA3E0FDA3E0FEA3E0FF1293
:106BB00087F3900C19EFF07077125FEE9009BFEF3A
:106BC000F04408F04410FFF0125FE8E4900BCFF0BF
:106BD000900C0BF022900C0B740AF022124CA79030
:106BE00009BEEFF0316C9009BDEFF0A3E0FF124C4D
:106BF0008F9009BDE0FF30E008900BCC7401F0806D
:106C000005E4900BCCF0EF30E108900BCD7401F06F
:106C10008005E4900BCDF0900BCCE06006900BCD9E
:106C2000E07007900C0B7404F022900C0B7407F0CA
:106C300022906576EFF022125FE8906576E0FF2201
:106C4000900C89E014602E14603224F8603F1460C8
:106C500063240B706E900C8BE06068900C8AE0707F
:106C600062900C8904F0125FEEEF54FDFF9137EF54
:106C70004404FF80BC900C897402F022125FEEEF96
:106C800054F7FF125FE8900C89740AF022900C8B85
:106C9000E07030900C8AE0702A125FEEEF54FE44F0
:106CA00008FF125FE8913AEF54FBFF9131900C8995
:106CB000740BF022125FEEEF4402FF125FE8E490E3
:106CC0000C89F022906477EFF0227F0312A8ACEFDA
:106CD0006012900C88E0701C7F03B137900C8874B0
:106CE00001F08010900C88E0600A7F0312ADFDE493
:106CF000900C88F012A89FEF60047F03B1377F03E8
:106D0000B174EFB401161267C19009C17401F0A308
:106D10007480F07F031266517F03B1377F02B17434
:106D2000EFB401121267DD9009C17401F0A3748001
:106D3000F07F0212782322EFD394004036EF9409BB
:106D40005031EF75F00BA42436F582E43409F58355
:106D5000E4F0EF75F00BA4243AF582E43409F583EE
:106D6000E0FE75F010EFA424FEF582E5F0345FF547
:106D700083EEF022EF75F00BA42436F582E434099B
:106D8000F583E0FF229046FA7440F09046F6E04426
:106D900001F022E49009BFF0A3F0A3F09009BD74C4
:106DA00080F0A3E4F0900A25E09009C0F0900A0E6C
:106DB000E09009C1F0900BDBE0B40322900A4CE0B4
:106DC0009009C0F0900A30E09009C1F09009C0E04D
:106DD000900A25F09009C1E0900A0EF0B1DF22E49C
:106DE0009009C2F09009C5F0A3F09009C37480F037
:106DF000A3E4F0D1AF9009C2EFF0E064077002C1E4
:106E0000A79009C57405F09009C5E0FFC394105020
:106E10001474302FF582E4340CF583E4F09009C546
:106E2000E004F080E2900A25E0C364809480501A68
:106E3000E0FF3395E0FE7CFF7DFF1244A2900C3012
:106E4000EFF0900C337401F0800D900A25E0900C67
:106E500030F0E4900C33F0900A0EE0C3648094802C
:106E6000501AE0FF3395E0FE7CFF7DFF1244A290B4
:106E70000C31EFF0900C347401F0800D900A0EE0AC
:106E8000900C31F0E4900C34F0900C87E0900C32D0
:106E9000F07B017A0C7930E4FD12B9C0E4900BDB91
:106EA000F0900BD57402F09009C2E0FF7E0022F151
:106EB0001E904722E054026023E054026009E0FF84
:106EC0001313543FFF80027FFFEF70069009C7F055
:106ED00080069009C774FFF0D1E880069009C77456
:106EE00007F09009C7E0FF22124CA7E4900C9CF039
:106EF000024C8F9009BE74FFF0F11EF1D1EF7012B9
:106F00007F01F1F0EFB407069009BE7407F0D1E8F5
:106F100080069009BE7404F09009BEE0FF22124C76
:106F2000A79043A0E04408F09043B0E04408F0028A
:106F30004C8FF11EF1D1EF703A12C72B9009C7EFB9
:106F4000F06407702A904722E0540270087F01FE27
:106F5000124C3C80F0904722E054026009E0FF139D
:106F600013543FFF80027FFFEF70049009C7F0D1F8
:106F7000E880069009C77404F09009C7E0FF22F189
:106F80001E9009C774FFF0F1D1EF70397F01F1F065
:106F9000EF6407702C7B017A0C797C7D0212C6CBE2
:106FA000EFB40215E49009C7F0904722E054027054
:106FB000107F01FE124C3C80F0904722E0540260AA
:106FC000D4D1E880069009C77404F09009C7E0FFA7
:106FD000229009CC7404F0124CA7900C9CE070072E
:106FE00004F0E49009CCF0124C8F9009CCE0FF2221
:106FF0007E07904722E05402601F90472074B6F04D
:1070000074E1F0740EF0904722E05402700790474C
:1070100020EFF080067E0980027E04AF062290FFFA
:10702000FC1246FC1246BE90FFF61246FC7B019015
:107030000006124720A982AA83850883850982EB6E
:10704000F0A3EAF0A3E9F07B0190000A124720A91F
:1070500082AA83900003124720EBF0A3EAF0A3E991
:10706000F0900003124720E0FBA3E0FAA3E0240322
:10707000F9E43AFA124477FF850883850982E0FB38
:10708000A3E0FAA3E0F9EF12449090000312472026
:10709000E0FBA3E0FAA3E02402F9E43AFA12447711
:1070A000FF850883850982E0FBA3E0FAA3E02401C1
:1070B000F9E43AFAEF124490900003124720E0FB03
:1070C000A3E0FAA3E02401F9E43AFA124477FF8539
:1070D0000883850982E0FBA3E0FAA3E02402F9E437
:1070E0003AFAEF124490900003124720E0FBA3E02D
:1070F000FAA3E0F9124477FF850883850982E0FB53
:10710000A3E0FAA3E02403F9E43AFAEF12449090E2
:107110000006124720E0FCA3E0FDA3E0FEA3E0FF91
:1071200090000E0246FCE490099BF0906000E09015
:10713000099CF0906001E090099DF090099CE0545A
:107140008064806002814CA3E01246D67180007199
:10715000AB0273770672BF2073973371E83A720CF3
:107160003C723C3D72653F72855072995173BE947A
:1071700074069572FEA4731DA57340BF0000744C85
:10718000900BF37496F0A37402F07B01900918142D
:10719000F0A3740BF0A374F3F0900916E4F0A37459
:1071A00002F0F18790099BEFF0814CF1C8900BF34E
:1071B000EFF0E0FCA3E0FDA3E0FEA3E0FFEEEDECCA
:1071C0004408FC900BF31246BE9009187401F0A31A
:1071D000740BF0A374F3F0900916E4F0A304F0F13B
:1071E0008790099BEFF0814C7A0A793C90091874DA
:1071F00001F0A3740AF0A3743CF0900916E4F0A324
:107200007404F0F18790099BEFF0814C7F707E3D14
:107210007D0A7C07111E900BF31246BE900918746C
:1072200001F0A3740BF0A374F3F0900916E4F0A33B
:107230007404F0F18790099BEFF0814C7A0A794051
:107240009009187401F0A3740AF0A37440F0900937
:1072500016E4F0A37404F0F18790099BEFF0E4903A
:107260000BF7F0814C9009187401F0A3740AF0A395
:107270007446F0900916E4F0A37406F0F1879009C3
:107280009BEFF0814C906002E030E008900C8B7432
:1072900001F08005E4900C8BF0F1C8900BF3EFF057
:1072A0009009187401F0A3740BF0A374F3F0900923
:1072B00016E4F0A304F0F18790099BEFF0814C9065
:1072C0006003E064876002814C7B027A607904127B
:1072D0004CE3EF64014E6002814C900BF3F07B01B4
:1072E00090091804F0A3740BF0A374F3F09009163E
:1072F000E4F0A304F0F18790099BEFF0814C900932
:10730000187401F0A3740BF0A374CFF0900916E485
:10731000F0A304F0F18790099BEFF0814C7A0B7990
:10732000D39009187401F0A3740BF0A374D3F090F8
:107330000916E4F0A304F0F18790099BEFF0814C6B
:10734000900C2CE0FCA3E0FDA3E0FEA3E0FF12996B
:107350007C900BFD1246BE9009187401F0A3740BCB
:10736000F0A374FDF0900916E4F0A37404F0F18723
:1073700090099BEFF0814C9009187401F0A37409F7
:10738000F0A3749EF0900916E4F0A37404F0F18762
:1073900090099BEFF0814C900A25E0900BEEF09065
:1073A00009187401F0A3740BF0A374EEF0900916A1
:1073B000E4F0A304F0F18790099BEFF0814C900A70
:1073C00025E0FF3395E0FEFDFC900BEF1246BE90EA
:1073D0000BEFE0FCA3E0FDA3E0FEA3E0FF12997C2D
:1073E000900BF91246BE9009187401F0A3740BF0CB
:1073F000A374F9F0900916E4F0A37402F0F18790F9
:10740000099BEFF08046900A0EE0FF3395E0FEFD09
:10741000FC900BEF1246BE900BEFE0FCA3E0FDA347
:10742000E0FEA3E0FF12997C900BF91246BE900992
:10743000187401F0A3740BF0A374F9F0900916E42A
:10744000F0A37402F0F18790099BEFF090099CE0A3
:1074500054806002E14BA3E01246D6749B3074BBAB
:107460003274DF33755535751A3A75F47076747168
:1074700076137276937376B27576D17776327A76A2
:10748000F07B772E7D770F7F7651907578A075977A
:10749000A975B6F375D5F70000774B9009187401FC
:1074A000F0A3740AF0A3741BF0900916E4F0A3741F
:1074B00006F0F15190099BEFF0E14B7A0A793C908C
:1074C00009187401F0A3740AF0A3743CF090091633
:1074D000E4F0A37404F0F15190099BEFF0E14B7AD2
:1074E0000A794C9009187401F0A3740AF0A3744C43
:1074F000F0900916E4F0A304F0F15190099BEFF02D
:10750000900A4CE0FF3395E0FEFDFC900BEA12463A
:10751000BE900BDBE04401F0E14B7A0A7930900930
:10752000187401F0A3740AF0A37430F0900916E403
:10753000F0A304F0F15190099BEFF0900A30E0FFC6
:107540003395E0FEFDFC900BE61246BE900BDBE0AF
:107550004402F0E14B7A0A79559009187401F0A3BE
:10756000740AF0A37455F0900916E4F0A304F0F146
:107570005190099BEFF0E14B9009187401F0A3744E
:107580000BF0A374F7F0900916E4F0A304F0F151A6
:1075900090099BEFF0E14B9009187401F0A3740B74
:1075A000F0A374DEF0900916E4F0A304F0F151901A
:1075B000099BEFF0E14B9009187401F0A3740BF0F4
:1075C000A374D9F0900916E4F0A304F0F1519009E6
:1075D0009BEFF0E14B9009187401F0A3740BF0A33A
:1075E00074D8F0900916E4F0A304F0F15190099BCF
:1075F000EFF0E14B9009187401F0A3740BF0A37441
:10760000DFF0900916E4F0A304F0F15190099BEF2C
:10761000F0E14B9009187401F0A3740BF0A374D23D
:10762000F0900916E4F0A304F0F15190099BEFF0FB
:10763000E14B9009187401F0A3740BF0A374D6F019
:10764000900916E4F0A304F0F15190099BEFF0E1EA
:107650004B7A0A795E9009187401F0A3740AF0A3BA
:10766000745EF0900916E4F0A304F0F15190099BC8
:10767000EFF0E14B9009187401F0A3740BF0A374C0
:10768000DAF0900916E4F0A304F0F15190099BEFB1
:10769000F0E14B9009187401F0A3740BF0A374D1BE
:1076A000F0900916E4F0A304F0F15190099BEFF07B
:1076B000E14B9009187401F0A3740BF0A374D0F09F
:1076C000900916E4F0A304F0F15190099BEFF080CB
:1076D0007A9009187401F0A3740BF0A374D4F0909D
:1076E0000916E4F0A304F0F15190099BEFF0805BE0
:1076F0009009187401F0A3740BF0A374E5F09009DD
:1077000016E4F0A304F0F15190099BEFF0803C9057
:1077100009187401F0A3740BF0A374DDF09009163E
:10772000E4F0A304F0F15190099BEFF0801D900963
:10773000187401F0A3740BF0A374E4F0900916E43C
:10774000F0A304F0F15190099BEFF090099BE0FF4A
:107750002290092D7404F090092C7480F0F1E890C7
:107760006007E0FE906006E0FDEEEDFFD3900917A4
:10777000E09F900916E09E4005EEF0A3EFF090091F
:1077800031740BF07F0122900916E07002A3E070C3
:107790000512B7E3802F90092D7402F0E490092CB4
:1077A000F0F1E8906007E0FE906006E0FDEEEDFF8E
:1077B000D3900917E09F900916E09E4005EEF0A3D4
:1077C000EFF012AF457F0122E4FF900C8BE06003E5
:1077D0007410FF900BCFE0FE30E004EF4420FFEE8A
:1077E00030E104EF4402FF22E4900932F0A3F0906C
:1077F000091BE0FBA3E0FAA3E04A4B602590091BBC
:10780000E0FBA3E0FAA3E0F9E412449090091BE046
:10781000FBA3E0FAA3E02401F9E43AFAE4F5F0125C
:1078200044E0229009BEEBF0A3EAF0A3E9F090094E
:10783000BDEFF024FFFFE434FFFEEFC4F8540FC89F
:1078400068FFEEC454F0489009C3EFF02488FFE4C9
:107850003460FAA9079009C57401F0A3EAF0A3E91E
:10786000F0900C87E030E0089009C47491F0800635
:107870009009C474D1F09009C1E0FCA3E0FDECFFD5
:107880009009BDE0FE75F00BA42438F582E5F034D4
:1078900009F583E04FFF9009C3E0FB240CF582E477
:1078A0003460F583EFF0ED740D2BF582E43460F570
:1078B00083EDF074B12EF582E4340AF583E0FF1213
:1078C00060619009BDE02495F582E4340AF583E017
:1078D000FBFF9009C1E0FCA3E0FD9009C4E0900922
:1078E000CCF01263B89009BDE02495F582E4340A27
:1078F000F583E0FFC0079009BEE0FBA3E0FAA3E038
:10790000F9FFAE02EAE4AD07AC06C0059009C5E098
:10791000FBA3E0FAA3E0F9FFEAE4AB07D005D00748
:107920001265889009BDE024B1F582E4340AF5833C
:10793000E0FF12661E9009BDE0FE24B1F582E4343A
:107940000AF583E0FF74952EF582E4340AF583E0AE
:10795000FD1266009009BDE024B1F582E4340AF519
:1079600083E0FF7D0112636D9009BDE075F00BA40B
:107970002436F582E5F03409F583E4F09009C3E09C
:107980002480F582E43460F583E04401F022EA4982
:107990004B6015E4900B43F0900B46F0900B48EBD6
:1079A000F0A3EAF0A3E9F022900B46E01470024144
:1079B00050147002418114700241B32403600241EB
:1079C000CF900B48E0FBA3E0FAA3E0F9900B43E073
:1079D000FFE92FF9E43AFA1244777004900B43F070
:1079E000900B48E0FBA3E0FAA3E0F9900B43E0FF23
:1079F00004F0E92FF9E43AFA124477FFC3946140A6
:107A00000AEFD3947A500474E02FFFEFC39422401E
:107A100006EFD3945A4008900B447407F0800F741B
:107A2000292FF582E4340BF583E0900B44F0900BA2
:107A300044E0FF5407A3F070037406F0EFB407109E
:107A4000900B477402F0E4900B45F0A37403F0220E
:107A5000900B44E0FF30E708900B477403F080067A
:107A6000900B477401F0EF25E0900B44F0A3E01475
:107A7000F0125FEEEF54FEFF125FE8900B467402C7
:107A8000F0900B47E07025900B467403F0900B4587
:107A9000E07008900B477402F08005E4900B47F00B
:107AA000125FEEEF4401FF125FE88007900B47E0A2
:107AB00014F022900B47E07010900B45E07003A388
:107AC000F022900B467401F022900B47E014F02254
:107AD000E49009C8F0A3F0FBFA7D017F0151ED129B
:107AE00067507131E47F01FEFDFC0258C99009C660
:107AF000EAF0A3EBF0AE05E4900C98F0AD07AF060A
:107B0000AB079009CEF0A3F0A3F0FFD16B900C98D7
:107B1000E0FF9009C6E0FCA3E0FDA3E0FAA3E0FBD0
:107B2000B1AC900C98E0FFE4FD7140900C98E0FF40
:107B3000229064957420F0906492F0906491F02209
:107B4000AC077B01ECC39418503375F010ECA424FF
:107B500010F582E5F03470F583E054F1FAED540746
:107B600025E0FFE433AE02EF4AFF75F010ECA424E9
:107B700010F582E5F03470F583EFF0E41BAF0322DB
:107B80009009C7EAF0A3EBF0AE05900C937403F0F4
:107B9000AD07AF06AB07E49009CEF0A3F0A3F07FEA
:107BA00003D16B900C93E0FF9009C7E0FCA3E0FDCC
:107BB000A3E0FAA3E0FBB1AC900C93E0FF7D017170
:107BC00040900C93E0FF229009C7EAF0A3EBF0AEDF
:107BD00005900C947404F0AD07AF06AB079009CE86
:107BE000F0E4A3F0A3F07F04D16B900C94E0FF903D
:107BF00009C7E0FCA3E0FDA3E0FAA3E0FBB1AC9071
:107C00000C94E0FF7D017140900C94E0FF22E49021
:107C100009C9F0A3F0FBFA7D017F0171C7E4900967
:107C2000C9F0A3F0FBFA7D017F017180E49009C4E3
:107C3000F09009C4E0C394035019917B9009C4E00B
:107C40002404F582E43409F583EFF09009C4E004DC
:107C5000F080DEE49009C4F09009C4E0C3940350BE
:107C600019917B9009C4E0240CF582E43409F58372
:107C7000EFF09009C4E004F080DE229009C674FFA2
:107C8000F0124CA7900C72E0D394184023900C7122
:107C9000E0FE9009C6F0900C72E014F075F008EE6A
:107CA000A42400F582E5F03478F583E0900C71F0BF
:107CB000124C8F9009C6E0FF22E49009C9F0A3F0AE
:107CC000FBFA7D017F01B165E49009C9F0A3F0FBE7
:107CD000FA7D017F01D124E49009C9F0A3F0FBFAF9
:107CE0007D017F01D1E4E49009C4F09009C4E0C3B0
:107CF00094035019917B9009C4E02407F582E43481
:107D000009F583EFF09009C4E004F080DEE4900907
:107D1000C4F09009C4E0C394035019917B9009C446
:107D2000E0240FF582E43409F583EFF09009C4E014
:107D300004F080DEE49009C4F09009C4E0C3940329
:107D40005019917B9009C4E02400F582E43400F5D9
:107D500083EFF09009C4E004F080DE22F1B9910EC7
:107D600091B90260219009C7EAF0A3EBF0AE05904B
:107D70000C957405F0AD07AF06AB079009CEF0E4A3
:107D8000A3F0A3F07F05D16B900C95E0FF9009C79D
:107D9000E0FCA3E0FDA3E0FAA3E0FBB1AC900C95FE
:107DA000E0FF7D017140900C95E0FF229009CCEC42
:107DB000F0A3EDF0A3EAF0A3EBF09009CBEFF09085
:107DC00009D07401F0EFC3941850539009CBE075BB
:107DD000F008A42404FFE5F03476FE9009D1F0A366
:107DE000EFF0AA06F97B019009CCE0FCA3E0FD12BC
:107DF0004CF29009CBE075F008A42406FFE5F034BE
:107E000076FE9009D1F0A3EFF0AA06F97B01900964
:107E1000CEE0FCA3E0FD124CF2E49009D0F0900912
:107E2000D0E0FF229009C7EAF0A3EBF0AE05900C7A
:107E3000967406F0AD07AF06AB079009CEF0E4A349
:107E4000F0A3F07F06D16B900C96E0FF9009C7E09D
:107E5000FCA3E0FDA3E0FAA3E0FBB1AC900C96E03C
:107E6000FF7D017140900C96E0FF22AC077A01EC97
:107E7000C39418506CEB540175F080A4FFED547F4F
:107E80004FFF75F008ECA42400F582E5F03476F598
:107E900083EFF09009CFE0540F75F010A4FF900924
:107EA000CEE0540F4FFF75F008ECA42401F582E5F5
:107EB000F03476F583EFF09009D0E0540FFF75F0C1
:107EC00008ECA42402F582E5F03476F583EFF07532
:107ED000F008ECA42403F582E5F03476F583E4F0B1
:107EE0001AAF02229009C7EAF0A3EBF0AE05900C9E
:107EF000977407F0AD07AF06AB07E49009CEF0A387
:107F0000F0A3F07F07D16B900C97E0FF9009C7E0DA
:107F1000FCA3E0FDA3E0FAA3E0FBB1AC900C97E07A
:107F2000FF7D017140900C97E0FF229009C4EAF0B8
:107F3000A3EBF0AE05900C9A7402F0AD07AF06AB60
:107F4000079009CEF0E4A3F0A3F07F02D16B900C70
:107F50009AE0FF9009C4E0FCA3E0FDA3E0FAA3E0EF
:107F6000FBB1AC900C9AE0FF7D027140900C9AE05E
:107F7000FF229009C4EAF0A3EBF0AE05900C9B74CD
:107F800001F0AD07AF06AB079009CEF0E4A3F0A374
:107F9000F07F01D16B900C9BE0FF9009C4E0FCA343
:107FA000E0FDA3E0FAA3E0FBB1AC900C9BE0FF7D09
:107FB000027140900C9BE0FF22900C92E07008F15F
:107FC000DC900C927401F0124CA790659AE044206A
:107FD000F0124C8F906579E04404F02290658BE0BC
:107FE00054F8F0E0F0906589E054F8F0E0F0229069
:107FF0006461E0FD7C0020E0030281C9A3E0FEE4AF
:108000002DFDEC3EFCFEAF05ED2410FFEE34AA90F2
:1080100009BDF0A3EFF0900C51E0FEA3E0FF900942
:10802000BDE0FCA3E0FDC39FFFEC9EA3F0A3EFF037
:10803000EC1243BD7B177AB779D17839124212120C
:1080400043F69009C1EEF0A3EFF09009BFE0FCA366
:10805000E0FDEC1243BDE4FBFAF9783F1242121244
:1080600043F69009BDE0FDA3E0900C51CDF0A3EDE7
:10807000F09009C2E02FFF9009C1E03EFE900C5045
:10808000E02FF0900C4FE03EF0D3A3E094E8900C8A
:108090004FE0943F4007743FF0A374E8F0C3900CA6
:1080A00050E0940C900C4FE0943A5007743AF0A3CF
:1080B000740CF0900C54E07002A3E0700221BF90A9
:1080C0000C53E0602FE4900C4FF0A3F0900C53E0C1
:1080D00014F0600221BF125FEEEF54FEFF125FE862
:1080E000900C4F743DF0A374F4F07D017F0C7E0082
:1080F00031CA21BF900C55E024FFF0900C54E034BD
:10810000FFF09009BFE0FEA3E0FFC3EE648094801F
:10811000500FC3900C57E09FF0900C56E09EF080FB
:10812000149009BFE0FEA3E0FF900C57E02FF09001
:108130000C56E03EF0900C56E0C313FEA3E013FF94
:10814000900C56EEF0A3EFF0C39402EE940050189A
:10815000A3E07002A3E0602D900C59E024FFF090A2
:108160000C58E034FFF0801DD3900C57E09407903A
:108170000C56E09400400E900C59E004F07006900C
:108180000C58E004F0D3900C59E09432900C58E075
:108190009400402BE4900C56F0A3F0A3F0A3F090D1
:1081A0000C5374C8F0A3740BF0A374B8F0125FEE14
:1081B000EF4401FF125FE87D017F0D7E0031CA9020
:1081C0000C4FE0FEA3E0FF7107229009C3EEF0A37D
:1081D000EFF0A3EDF051F69009C7EFF051FE9009D2
:1081E000C8EEF0A3EFF09009C3E0FCA3E0FD6F70D0
:1081F00002EC6E700241F59043A2E054019009C672
:10820000F0A3E0703AA3E0FEA3E0FF4E6004ED4C63
:10821000702DEF4E70117B027A407980124CF290F3
:108220004082E054BFF022904082E04440F07B0264
:108230007A4079809009C3E0FCA3E0FD024CF29003
:1082400009C6E06053904001E4F090401004F090C3
:108250004014E4F0904008E0547FF0904082E054F5
:1082600008600A9009C3E07002A3E0702B7B027AD9
:108270004079029009C8E0FCA3E0FD124CF2904066
:10828000017407F0904001E0540170F89043A2E0BF
:1082900054FEF0904001E4F09043A2E05401602FBE
:1082A0007B027A4079029009C3E0FCA3E0FD124C06
:1082B000F29009C5E060047F0280027F00EF440174
:1082C000904001F0904001E05401602980F6227B4B
:1082D000027A4079809009C3E0FCA3E0FD124CF2E1
:1082E0009043A2C083C082E0FF9009C6E0FEEF4E3B
:1082F000D082D083F022904082E05407FF227B029C
:108300007A407980024CE3AD07AC06EC906575F0DD
:10831000EF906574F0229009C11246BEE4FFFEFDA5
:10832000FC9009D51246BE9009C1E0FCA3E0FDA374
:10833000E0FEA3E0FF12701EE41243B8E4FBFAF97A
:10834000784A12431B9009C51246BE9009C5E0FC4D
:10835000A3E0FDA3E0FEA3E0FF1243F69009C912DB
:1083600046BE7F007E247D747C499009C5E0F8A359
:10837000E0F9A3E0FAA3E0FB1242121243F67B40BD
:108380007A42790F7800124B6DAC00AD01AE02AFAE
:10839000039009D11246BE7F407E427D0F7C009043
:1083A00009C9E0F8A3E0F9A3E0FAA3E0FB1244FF57
:1083B0009009D1E0F8A3E0F9A3E0FAA3E02FFFEAE7
:1083C0003EFEE93DFDE83CFC9009CD1246BE900919
:1083D000CDE0FCA3E0FDA3E0FEA3E0FF22900A02B3
:1083E000E0147002A108147002A16124026002C1AD
:1083F000C9900A3CE0FCA3E0FDA3E0FEA3E0FF90EF
:108400000A03E0F8A3E0F9A3E0FAA3E0FBC31246F5
:108410004D7002A101124CA7AB07900A3CE0FCA3EF
:10842000E0FDA3E0FEA3E0FF900A031246BEAF0307
:10843000124C8F900BF7E014603804704C900A03D4
:10844000E0FCA3E0FDA3E0FEA3E0FF71169009BDF0
:108450001246BE9009BDE0FCA3E0FDA3E0FEA3E050
:10846000FFE47B04FAF9F812458A9009BD1246BE72
:108470008017900A03E0FCA3E0FDA3E0FEA3E0FF69
:1084800012701E9009BD1246BEE47F64FEFDFC9092
:1084900009BDE0F8A3E0F9A3E0FAA3E0FBD312469C
:1084A0004D405E9009BDE0FCA3E0FDA3E0FEA3E02B
:1084B000FF900A27E0F8A3E0F9A3E0FAA3E0FB129B
:1084C000464D603D9009BDE0FCA3E0FDA3E0FEA3A6
:1084D000E0FF900A271246BE900A27E0FCA3E0FDC9
:1084E000A3E0FEA3E0FF900C111246BE900A27E025
:1084F000FCA3E0FDA3E0FEA3E0FFD1CA900A2FEFAA
:10850000F0900A02E004F022900A5EE0FF900A0B6D
:10851000E06F6047900A5EE014601614601F1460FC
:10852000282403702E900A0F7401F0A37490F08039
:1085300022900A0F7402F0A37458F08016900A0F6C
:108540007403F0A37420F0800A900A0F7403F0A360
:1085500074E8F0900A5EE0900A0BF0900A02E004E2
:10856000F0900A27E0FCA3E0FDA3E0FEA3E0FF906B
:108570000A07E0F8A3E0F9A3E0FAA3E0FBC3124680
:108580004D7002C1C4900A27E0FCA3E0FDA3E0FE09
:10859000A3E0FF900A561246BE900BDFE024BD70A8
:1085A00002C16A24F77002C12D24F76043241460CD
:1085B00002C1B0900A56E0FCA3E0FDA3E0FEA3E0F8
:1085C0002454FFEE342EFEE43DFDE43CFCC0079055
:1085D0000A55E0FFFB3395E0FAF9F8D007C3EF9BAB
:1085E000FFEE9AFEED99FDEC98FCA31246BEC1B0D9
:1085F000900A56E0FCA3E0FDA3E0FEA3E024E0FF28
:10860000EE342EFEE43DFDE43CFCC007900A55E04C
:10861000FFFB3395E0FAF9F8D007C3EF9BFFEE9A22
:10862000FEED99FDEC98FCA31246BEC1B0900A562F
:10863000E0FCA3E0FDA3E0FEA3E024E0FFEE342E87
:10864000FEE43DFDE43CFCC007900A55E0FFFB332F
:1086500095E0FAF9F8D007C3EF9BFFEE9AFEED998B
:10866000FDEC98FCA31246BE8046900A56E0FCA39F
:10867000E0FDA3E0FEA3E024E0FFEE342EFEE43DA7
:10868000FDE43CFCC006C007900A0FE0FEA3E0FF3B
:10869000FBAA06EA3395E0F9F8D007D006C3EF9BB2
:1086A000FFEE9AFEED99FDEC98FC900A381246BE5A
:1086B000900A27E0FCA3E0FDA3E0FEA3E0FF900A00
:1086C000071246BEE4900A02F0229009C11246BE8B
:1086D0009009C57401F0E4FFFEFDFC9009FEE0F88E
:1086E000A3E0F9A3E0FAA3E0FBC312464D70179094
:1086F00009C1E0FCA3E0FDA3E0FEA3E0FF9009FEBA
:108700001246BE7F00229009FEE0FCA3E0FDA3E03C
:10871000FEA3E0FFFBAA06A905A8049009C1E0FC9E
:10872000A3E0FDA3E0FEA3E0C39BFFEE9AFEED995C
:10873000FDEC98FC124D179009C61246BE7F807E54
:10874000847D1E7C009009C6E0F8A3E0F9A3E0FA5E
:10875000A3E0FBC312464D4007E49009C5F08079C1
:10876000E47BE87A03F9F89009C1E0FCA3E0FDA3FB
:10877000E0FEA3E0FF12458AE47B107A27F9F812A5
:1087800044FFE47BE87A03F9F812458A9009CA129B
:1087900046BE9009CAE0A3E0A3E0FEA3E0C394F4C0
:1087A000EE9401500DE47FF47E01FDFC9009CA12A5
:1087B00046BE9009CAE0FCA3E0FDA3E0FEA3E0FFF3
:1087C0009009C6E0F8A3E0F9A3E0FAA3E0FBD31216
:1087D000464D4005E49009C5F09009C1E0FCA3E0D6
:1087E000FDA3E0FEA3E0FF9009FE1246BE9009C57E
:1087F000E0FF229009C41246BE7F407E787D7D7CDA
:10880000019009C81246BE900AF5E0147002217466
:10881000147002E12F147002E187147002E1BF149A
:108820007002E1FB24056003029015900BD5E02453
:10883000FE601D146041240370569009C4E0FCA33F
:10884000E0FDA3E0FEA3E0FF900AFC1246BE8040DC
:108850009009C4E0FCA3E0FDA3E0FEA3E02464FFD4
:10886000E43EFEE43DFDE43CFC900AFC1246BE9072
:108870000BD57403F080199009C4E0FCA3E0FDA3BC
:10888000E0FEA3E0FF900AFC1246BEE4900BD5F098
:10889000900C8BE06002211E900BE0E0FCA3E0FD59
:1088A000A3E0FEA3E0FF900AFCE0F8A3E0F9A3E058
:1088B000FAA3E02FFFEA3EFEE93DFDE83CFC900A0A
:1088C000EAE0F8A3E0F9A3E0FAA3E0FBC312464D07
:1088D0007003029015900BE0E0FCA3E0FDA3E0FE26
:1088E000A3E0FF900AFCE0F8A3E0F9A3E0FAA3E01C
:1088F0002FFFEA3EFEE93DFDE83CFC900AF81246F7
:10890000BE900AF8E0FCA3E0FDA3E0FEA3E0FF9028
:108910000AEA1246BE900AF5E004F0029015900AA9
:10892000FCE0FCA3E0FDA3E0FEA3E0FF900AEAE088
:10893000F8A3E0F9A3E0FAA3E0FBC312464D7003ED
:10894000029015900AFCE0FCA3E0FDA3E0FEA3E08A
:10895000FF900AF81246BE900AFCE0FCA3E0FDA3DB
:10896000E0FEA3E0FF900AEA1246BE900AF5E0049A
:10897000F0029015900A25E0900AF6F0900A0EE0B9
:10898000900AF7F0E0FC1243C2E4FBFA79C878429F
:1089900012431B9009D01246BE9009D0E0F8A3E024
:1089A000F9A3E0FAA3E0FBC000C001C002C003903D
:1089B0000AF6E0FC1243C2D003D002D001D000126C
:1089C00041219009D01246BE900AF8E0FCA3E0FDD8
:1089D000A3E0FEA3E0FFE41243B87B007A2479749D
:1089E000784912431B9009CC1246BE9009D0E0FC96
:1089F000A3E0FDA3E0FEA3E0FF9009CCE0F8A3E034
:108A0000F9A3E0FAA3E0FB124212E4FBFA798078C2
:108A1000C01242129009CC1246BE9009CCE0FCA3D1
:108A2000E0FDA3E0FEA3E0FF1243F69009D8124652
:108A3000BEE4FFFEFDFC9009D8E0F8A3E0F9A3E056
:108A4000FAA3E0FBC31246375051E47B04FAF9F86D
:108A50009009D8E0FCA3E0FDA3E0FEA3E0FF124BE9
:108A60006DAC00AD01AE02AF03E4FBFAF9F8C3123E
:108A70004637700261069009D8E0FCA3E0FDA3E050
:108A8000FEA3E0FFE40BF8EF2BFFEA3EFEE93DFD1D
:108A9000E83CFC9009D81246BE80AFE4FFFEFDFC26
:108AA0009009D8E0F8A3E0F9A3E0FAA3E0FBD31221
:108AB00046374052E47B04FAF9F89009D8E0FCA369
:108AC000E0FDA3E0FEA3E0FF124B6DAC00AD01AEF4
:108AD00002AF03E4FBFAF9F8C312463760289009A5
:108AE000D8E0FCA3E0FDA3E0FEA3E0FF74FFEF24C9
:108AF000FFFFEE34FFFEED34FFFDEC34FFFC900988
:108B0000D81246BE80AE900AF8E0FCA3E0FDA3E0D8
:108B1000FEA3E0FFE47B04FAF9F81244FF900AF8A0
:108B20001246BE900AF8E0F8A3E0F9A3E0FAA3E049
:108B3000FB9009D8E0FCA3E0FDA3E0FEA3E0FFEB7F
:108B40002FFFEA3EFEE93DFDE83CFC900AF81246A4
:108B5000BEE4900AF2F09009DCF07F06FEFDFC9086
:108B60000AEEE0F8A3E0F9A3E0FAA3E0FBC31246A3
:108B70004D50028133E4FFFEFDFC900AF8E0F8A3BB
:108B8000E0F9A3E0FAA3E0FBD312464D5002813393
:108B9000900AEEE0F8A3E0F9A3E0FAA3E0FB7F007F
:108BA0007EE97DA47C3512458A900AF8E0F8A3E0BE
:108BB000F9A3E0FAA3E0FBD312464D5076900AF8F1
:108BC000E0FCA3E0FDA3E0FEA3E0FF900AEEE0F8E6
:108BD000A3E0F9A3E0FAA3E0FB1244FF900AD51248
:108BE00046BE7F007E467DC37C23900AD5E0F8A375
:108BF000E0F9A3E0FAA3E0FBC312464D403590092B
:108C0000C8E0F8A3E0F9A3E0FAA3E0FB900AD5E0FE
:108C1000FCA3E0FDA3E0FEA3E0FF12458A900ADD7D
:108C2000EFF0C3940F400CE0D3945A50069009DC47
:108C30007401F09009DCE06020900AEEE0FCA3E013
:108C4000FDA3E0FEA3E0FF900AE61246BE900AF202
:108C50007401F0900A2FF0C135900AF8E0F8A3E013
:108C6000F9A3E0FAA3E0FB7F807E177DB47C2C1291
:108C7000458A900AE61246BEE47F06FEFDFC900A95
:108C8000E6E0F8A3E0F9A3E0FAA3E0FBC312464D47
:108C9000500CE47F06FEFDFC900AE61246BEE47F1F
:108CA000087E07FDFC900AE6E0F8A3E0F9A3E0FAED
:108CB000A3E0FBD312464D400DE47F087E07FDFC88
:108CC000900AE61246BE900AE6E0FCA3E0FDA3E0AF
:108CD000FEA3E05401FFE4FEFDFCEF6026900AE6EF
:108CE000E0FCA3E0FDA3E0FEA3E0FF74FFEF24FFA0
:108CF000FFEE34FFFEED34FFFDEC34FFFC900AE69E
:108D00001246BEE47F06FEFDFC900AE6E0F8A3E012
:108D1000F9A3E0FAA3E0FBC312464D500CE47F0632
:108D2000FEFDFC900AE61246BE900AF8E0FCA3E0C5
:108D3000FDA3E0FEA3E0FF900AE6E0F8A3E0F9A3BC
:108D4000E0FAA3E0FB1244FF900AD51246BE7F0072
:108D50007EE97DA47C35900AD5E0F8A3E0F9A3E094
:108D6000FAA3E0FBD312464D501B7F007E467DC325
:108D70007C23900AD5E0F8A3E0A3E0A3E0C3124669
:108D80004D4002C12C900AF8E0F8A3E0F9A3E0FA04
:108D9000A3E0FB7F007EE97DA47C3512458A900A22
:108DA000E61246BE900AE6E0FCA3E0FDA3E0FEA3C7
:108DB000E05401FFE4FEFDFCEF6026900AE6E0FCD3
:108DC000A3E0FDA3E0FEA3E0FF74FFEF24FFFFEEAE
:108DD00034FFFEED34FFFDEC34FFFC900AE6124652
:108DE000BEE47F06FEFDFC900AE6E0F8A3E0F9A3EE
:108DF000E0FAA3E0FBC312464D500CE47F06FEFDF3
:108E0000FC900AE61246BE900AF8E0FCA3E0FDA33F
:108E1000E0FEA3E0FF900AE6E0F8A3E0F9A3E0FAA1
:108E2000A3E0FB1244FF900AD51246BEE4900AF27A
:108E3000F0900A2FF09009C8E0F8A3E0F9A3E0FA57
:108E4000A3E0FB900AD5E0FCA3E0FDA3E0FEA3E0D5
:108E5000FF12458A900ADDEFF09009C8E0F8A3E020
:108E6000F9A3E0FAA3E0FB900AD5E0FCA3E0FDA3A0
:108E7000E0FEA3E0FF12458AAC00AD01AE02AF03F5
:108E8000900AD91246BE900AD9E0FCA3E0FDA3E007
:108E9000FEA3E0FFE41243B89009D41246BE900945
:108EA000D4E0FCA3E0FDA3E0FEA3E0FF7BF07AFFAB
:108EB000797F78491242129009D41246BE9009D4A3
:108EC000E0FCA3E0FDA3E0FEA3E0FFC004C005C0FA
:108ED00006C0079009C8E0FCA3E0FDA3E0FEA3E004
:108EE000FFE41243B8A804A905AA06AB07D007D02F
:108EF00006D005D00412431B9009D41246BE900937
:108F0000D4E0FCA3E0FDA3E0FEA3E0FF1243F69053
:108F10000ADE1246BE7FFF7EFF7D0F7C00900AE2D4
:108F20001246BEE4900AF4F0A3E004F0029015901B
:108F30000AF2E07011A3E0700D7D807F10125A914B
:108F4000900AF37401F0900ADEE0FCA3E0FDA3E0D8
:108F5000FEA3E0FF9009DF1246BE900AE2E0FCA308
:108F6000E0FDA3E0FEA3E0FF9009E31246BE900AF5
:108F7000DDE0FD7F1A125CEBEF6003029015900AB2
:108F8000F5E004F0029015900AF2E06009900AF50D
:108F9000E004F0029015900AE6E0FCA3E0FDA3E0F7
:108FA000FEA3E0FF9009DE1246BEE49009E2F07FE6
:108FB0002A125AD4EF705E900AF5E004F0805690C1
:108FC0000A2FE070157DA07FB1125A91900A2F747C
:108FD00001F0900AF47406F08005E4900AF4F09031
:108FE0000AE6E0FCA3E0FDA3E0FEA3E0FF900AEEAA
:108FF0001246BE900AF57405F0801A900AF4E060FB
:109000000414F080107D4F7F10125A91E4900AF3FF
:10901000F0900AF5F0900AF5E0FF229009CAEFF00F
:10902000A3EDF07B017A0979CC7F031177EF7046CD
:109030009009CBE0B4011BA3E0FF9009CAE0FE74E5
:1090400001A806088002C333D8FCF45F9009CCF075
:10905000801A9009CCE0FF9009CAE0FE7401A806CE
:10906000088002C333D8FC4F9009CCF09009CCE0C3
:10907000FD7F03125A91229009CEEFF0A3EBF0A3EB
:10908000EAF0A3E9F0E4A3F0A3F07B01A304F0A3CA
:109090007409F0A374CEF011FE9009D3EFF0648050
:1090A0006056A3E0FBA3E0FAA3E0F99009EF740196
:1090B000F0E4A3F07F60319C9009D3EFF011FEEF54
:1090C00030E1FA9009D3E0702F9009CFE0FBA3E0E4
:1090D000FAA3E0F99009DB7401F0E4A3F07F60B13A
:1090E000399009D3EFF011FEEF30E0FA9009D3E0A8
:1090F00060069009D27401F09009D2E0FF229044FA
:10910000C97480F0900C63E0FF900C8CE0544060D8
:1091100004EF4404FF9044C17480F0229009CBED29
:10912000F09009CAEFF02410FF7B017A0979CC1185
:10913000779009CBE0B40107A3E0547FF08007905B
:1091400009CCE04440F09009CAE02410FF9009CC1B
:10915000E0FD025A91E49009BEF0A304F0E4A3F00C
:10916000A3F09009BEEFF07B017A0979BE9009EF78
:109170007401F0E4A3F07F40319C9009C0EFF0113E
:10918000FEEF30E1FA125FF49009C1EFF064016084
:1091900005E49009BFF09009BFE0FF229009ECEBD5
:1091A000F0A3EAF0A3E9F0AC077D029009ECE0FB44
:1091B000A3E0FAA3E04A4B70024148900C8CE0B463
:1091C000100F9049D9E054087003FD801A7D01808A
:1091D00016900C8CE0B4600FE4FD9044D97480F0DC
:1091E000900C63E054F7F0ED705E900C8C7445F0D9
:1091F000E4900C5FF09009EFE0900C62F09009ECC5
:10920000E0F9A3E0FAA3E0900C5BC9F0A3EAF0A3B5
:10921000E9F09009F0E0FF900C60F0900C63E054EE
:10922000FDF0AE04EE25E09049D8F0EF5401600C5B
:10923000A37412F09049D77404F080069049D97451
:1092400001F09044C17480F0AF05229009CBEDF09D
:109250009009CAEFF0E49009CDF0EFC394004011FB
:109260009009CAE0D3940350089009CD7418F08097
:10927000169009CAE0FFC39400400CEFD39403504A
:10928000069009CD7419F09009CDE0FF7B017A09B1
:1092900079CC11779009CAE0FFC39400403AEFD32C
:1092A000940350349009CCE0FF9009CAE025E0FE19
:1092B0007403A806088002C333D8FCF45F9009CC7D
:1092C000F0E0FF9009CBE0FDA806088002C333D888
:1092D000FC4F9009CCF080449009CAE0FFC3940091
:1092E000403AEFD3940350349009CCE0FF9009CA80
:1092F000E024FC25E0FE7403A806088002C333D8EE
:10930000FCF45F9009CCF0E0FF9009CBE0FDA806EB
:10931000088002C333D8FC4F9009CCF09009CDE00F
:10932000FF9009CCE0FD025A91E49009BDF0900C49
:1093300001E014604714606B14700261CC14700279
:1093400061F5147002811E24FB70028146240A60BC
:109350000281A3900BDAE0FF900C02E06F601590A1
:109360000C087471F0A3EFF0900C02F0900C0174F3
:109370000AF081A3900C01E004F081A3900BD1E0EE
:10938000FF900C07E06F6013A37473F0A3EFF090ED
:109390000C07F0900C01740AF081A3900C01E0041A
:1093A000F081A3900BD0E0FF900C04E06F6015906B
:1093B0000C087475F0A3EFF0900C04F0900C01749D
:1093C0000AF081A3900C01E004F081A3900BD4E09B
:1093D000FF900C05E06F6015900C087477F0A3EF18
:1093E000F0900C05F0900C01740AF081A3900C0130
:1093F000E004F081A3900BDDE0FF900C06E06F60CD
:1094000015900C08747FF0A3EFF0900C06F0900C10
:1094100001740AF081A3900C01E004F081A3900B89
:10942000E5E0FF900C03E06F6015900C08747BF092
:10943000A3EFF0900C03F0900C01740AF08064E448
:10944000900C01F0805D900C0AE014602F047053C2
:10945000900C08E0FF31559009BDEFF0B4010E907B
:109460000C0AE004F0900C01740AF08036E4900CD1
:1094700001F0900C0AF0900BE4F08027900C09E0CA
:10948000FF31559009BDEFF0B4010BE4900C0AF0E8
:10949000900C01F0800DE4900C01F0900C0AF0901B
:1094A0000BE4F0900C01E0FF229009CBEDF0900965
:1094B000CAEFF09009CD7403F0EF2410FF7B017A1E
:1094C0000979CC1177EF70709009CBE014601D140E
:1094D000602F146041240370509009CCE0FFA3E09A
:1094E000F4FEEF5E9009CCF0E0F0803D9009CCE016
:1094F000FFA3E0F4FEEF5E9009CCF0E04401F080C1
:10950000289009CCE0FFA3E0F4FEEF5E9009CCF0D8
:10951000E04402F080139009CCE0FFA3E0F4FEEFFA
:109520005E9009CCF0E04403F09009CAE02410FFFB
:109530009009CCE0FD125A91229009D8EBF0A3EAF1
:10954000F0A3E9F0AC077D029009D8E0FBA3E0FAB4
:10955000A3E04A4B7002A1E7900C8CE0B4100F908E
:1095600049D9E054087003FD801A7D018016900CE3
:109570008CE0B4600FE4FD9044D97480F0900C63EB
:10958000E054F7F0ED7060900C8C7449F0E4900CAE
:109590005EF09009DBE0900C61F09009D8E0F9A34F
:1095A000E0FAA3E0900C64C9F0A3EAF0A3E9F0901C
:1095B00009DCE0FF900C60F0900C63E054FEF0AE2C
:1095C00004EE25E044019049D8F0EF5401600CA36B
:1095D0007412F09049D77404F080069049D9740150
:1095E000F09044C17480F0AF05229009CAEFF0708A
:1095F000077D207FB1025A919009CAE0B401077D2E
:10960000807FB1125A9122E49009C4F0A3F0D18E68
:10961000E47F64FEFDFC1258C97B007A808B828A4D
:1096200083E0900A25F08B828A83A3E0900A0EF0F3
:109630008B828A83A3A3A3E09009C4F0EB2404F5F2
:1096400082E43AF583E09009C5F09009C4E0B401E2
:1096500012900A25E0FF3395E0FE7CFF7DFF124467
:10966000A2EFF09009C5E0B40112900A0EE0FF33BA
:1096700095E0FE7CFF7DFF1244A2EFF0AE02AF0347
:109680008F828E83A3A3E0900C87F0E4F022D1C0F8
:10969000124CA79043A0E04408F09043B0E0440887
:1096A000F090470174C8F09043ACE04410F0904350
:1096B000BCE04410F0904700E0542060F8024C8F6A
:1096C000126F329009C6EFF07008126F7F9009C6D2
:1096D000EFF09009C6E0FF22900A27E0FCA3E0FD2E
:1096E000A3E0FEA3E0FF900C7EE0F8A3E0F9A3E086
:1096F000FAA3E0FBC312464D7003029979900A2742
:10970000E0FCA3E0FDA3E0FEA3E0FF900C7E124688
:10971000BE7FC07E3B7D477C03900C7EE0F8A3E0DB
:10972000F9A3E0FAA3E0FBD312464D4009900C6781
:10973000740CF00298CC7FC07E057DD97C01900C22
:109740007EE0F8A3E0F9A3E0FAA3E0FBD312464DD4
:109750004009900C67740BF00298CC7F807EBA7D34
:109760008C7C01900C7EE0F8A3E0F9A3E0FAA3E082
:10977000FBD312464D4009900C67740AF00298CC56
:109780007F807EB17D4F7C01900C7EE0F8A3E0F9F4
:10979000A3E0FAA3E0FBD312464D4009900C677496
:1097A00009F00298CC7FC07EEA7D217C01900C7E7E
:1097B000E0F8A3E0F9A3E0FAA3E0FBD312464D40A2
:1097C00009900C677408F00298CC7F007E247DF429
:1097D0007C00900C7EE0F8A3E0F9A3E0FAA3E0FBA4
:1097E000D312464D4009900C677407F00298CC7F65
:1097F000007E1B7DB77C00900C7EE0F8A3E0F9A30F
:10980000E0FAA3E0FBD312464D4008900C677406C3
:10981000F001CC7F407E547D897C00900C7EE0F886
:10982000A3E0F9A3E0FAA3E0FBD312464D40089071
:109830000C677405F001CC7F807E8D7D5B7C009091
:109840000C7EE0F8A3E0F9A3E0FAA3E0FBD3124614
:109850004D4008900C677404F080717F407E4B7D12
:109860004C7C00900C7EE0F8A3E0F9A3E0FAA3E0C2
:10987000FBD312464D4008900C677403F0804D7F77
:10988000C07EC67D2D7C00900C7EE0F8A3E0F9A39D
:10989000E0FAA3E0FBD312464D4008900C67740237
:1098A000F080297F607EE37D167C00900C7EE0F8DE
:1098B000A3E0F9A3E0FAA3E0FBD312464D400890E1
:1098C0000C677401F08005E4900C67F07F807E1ACD
:1098D0007D067C00900C7EE0F8A3E0F9A3E0FAA3FB
:1098E000E0FBD312464D40077F02126C3180057FAA
:1098F00001126C31900C8A7401F07FC07ED4FD7C23
:1099000000900C7EE0F8A3E0F9A3E0FAA3E0FBC32B
:1099100012464D40247FE07E227D027C00900C7E2A
:10992000E0F8A3E0A3E0A3E0D312464D500BE4908F
:109930000BD7F0900C8AF080407F807E1A7D067CE9
:1099400000900C7EE0F8A3E0F9A3E0FAA3E0FBC3EB
:1099500012464D40247F207EA17D077C00900C7E26
:10996000E0F8A3E0A3E0A3E0D312464D500B900B28
:10997000D77401F0E4900C8AF07F002290FFFC1273
:1099800046FC1246BE90FFF61246FC7B0190000694
:10999000124720A982AA83850883850982EBF0A358
:1099A000EAF0A3E9F07B0190000A124720A982AAFD
:1099B00083900003124720EBF0A3EAF0A3E9F090B4
:1099C0000003124720E0FBA3E0FAA3E02403F9E43C
:1099D0003AFA124477FF850883850982E0FBA3E009
:1099E000FAA3E0F9EF124490900003124720E0FB45
:1099F000A3E0FAA3E02402F9E43AFA124477FF85DF
:109A00000883850982E0FBA3E0FAA3E02401F9E4DE
:109A10003AFAEF124490900003124720E0FBA3E0D3
:109A2000FAA3E02401F9E43AFA124477FF850883A7
:109A3000850982E0FBA3E0FAA3E02402F9E43AFA04
:109A4000EF124490900003124720E0FBA3E0FAA33A
:109A5000E0F9124477FF850883850982E0FBA3E0E3
:109A6000FAA3E02403F9E43AFAEF124490900006D6
:109A7000124720E0FCA3E0FDA3E0FEA3E0FF90007E
:109A80000E0246FCE49009BDF0FFFEFDFC900C1FA9
:109A9000E0F8A3E0F9A3E0FAA3E0FBC312464D60AF
:109AA00002616E900C1BE07002A3E06002615F90A7
:109AB0000C1AE0146042147002613C2402600261DE
:109AC00094126EF39009BDEFF024FC601724F4604B
:109AD0000D240960026194900C1AE004F022E490D5
:109AE0000C1AF0227B017A0C791D71959009BDEF5B
:109AF000F0E4900C1AF022227B017A0C791D71950A
:109B00009009BDEFF024F9602524F7602824106047
:109B1000026194900C1DE0FEA3E0FFEE3395E0FDA2
:109B2000FC900C281246BE900C1AE004F022900C17
:109B30001A7401F022E4900C1AF02222900C28E012
:109B4000FCA3E0FDA3E0FEA3E0FFA31246BE900C41
:109B50001B7427F0A37410F0E4900C1AF0222290EA
:109B60000C1CE024FFF0900C1BE034FFF022900C62
:109B70001FE0FCA3E0FDA3E0FEA3E0FF74FFEF24E1
:109B8000FFFFEE34FFFEED34FFFDEC34FFFC900CE4
:109B90001F1246BE229009BEEBF0A3EAF0A3E9F043
:109BA000904722E054026002813AE0FF1313543FD1
:109BB00060028132E05401602C904720E09009C19E
:109BC000F0904722E054016003D38001C340097F35
:109BD000017E00124C3C80E9904720E09009C2F0E1
