:10410000024AA3008F828E83E0540100000070F801
:104110002278FFE4F6D8FD024B31024462E8648065
:10412000F8E933E83360110460F0ED33EC337009E3
:10413000E8FCE9FDEAFEEBFF220460DED3EB9FEA38
:104140009EE99DE8C2E78CF0C2F795F0400CE8CC00
:10415000F8E9CDF9EACEFAEBCFFB12442D85D0F089
:104160005804700320D5B3E80470075002B2D5029A
:10417000446C92D5EC0460F7E4CCC0E0C398F860DE
:104180003B94186008400DD0E0FB024444E4FBFA85
:10419000C9FC8028E830E406E4C9FBE4CAFCE83046
:1041A000E305E4C9CACBFCE854076010F8C3E9137F
:1041B000F9EA13FAEB13FBEC13FCD8F130F52FC33B
:1041C000E49CFCEF9BFFEE9AFEED99FDD0E0FBEF47
:1041D0004E4D4C701222DB03024469EC2CFCEF3391
:1041E000FFEE33FEED33FDED30E7EB024444EF2B01
:1041F000FFEE3AFEED39FDD0E0FB50130BBB0003A0
:1042000002446CED13FDEE13FEEF13FFEC13FC0202
:104210004444EC4D6011E8497017ED33EC33046011
:104220000DE4FCFFFEFD22E933E8330470F802449C
:104230006212442D58046009E4CC248150062850B1
:104240000902446C284003024469C0E0EB4A704410
:10425000B98006D0E0FB024458EF4E701CBD8008C8
:10426000EBFFEAFEE9FD80EBE98DF0A4FEE5F0024C
:1042700042FBE9CDF9EAFEEBFFEF89F0A4FCE5F0A3
:10428000CE89F0A42EFFE435F0CD89F0A42DFEE414
:1042900035F08067EF4E7005BD80D780C3EF8BF09F
:1042A000A4ACF0EE8BF0A42CFCE435F0F8EF8AF02F
:1042B000A42CE5F038FCE433CB8DF0A42CFCE5F025
:1042C0003BF8EE8AF0A42CFCE5F038F8E433CF8913
:1042D000F0A42CFCE5F038CF3400CE89F0A42FFFF9
:1042E000E5F03EFEE433C98DF0A42EFEE5F039CDB5
:1042F0008AF0A42FFFE5F03EFEE43DFD33D0E0FB65
:1043000050070BBB000F02446CEC2CFCEF33FFEEAC
:1043100033FEED33FD02444402446CEC5D04600561
:10432000E85904700302446212442D580460F6EC0C
:104330004860F2EC7004FDFEFF22C860DB2481C8F7
:104340005009C398600250060244699850CAF58229
:10435000E9294B4A7005AB8202445875F0007C1A7B
:104360007880C3EF9BEE9AED99400DC3EF9BFFEE73
:104370009AFEED99FDE842F0DC23ACF0D0E0FFD0EE
:10438000E0FED0E0FDAB8220E7101BEB60BAEC2C26
:10439000FCEF33FFEE33FEED33FD024444E803F857
:1043A00030E705C0F075F000EF2FFFEE33FEED3380
:1043B000FD40B830E7C280AA75F020800E75F0107D
:1043C000800575F0087D007E007F003392D530D5E2
:1043D00003124629EC334010EF33FFEE33FEED338A
:1043E000FDEC33FCD5F0ED22E5F0247EA2D513CC14
:1043F00092E7CDCEFF22EDD2E7CD33EC3392D52438
:10440000814006E4FFFEFDFC22FCE4CFCECDCC24AF
:10441000E0501174FF80EDC3CC13CCCD13CDCE137F
:10442000CECF13CF0470F030D5DE024629E9D2E7B3
:10443000C933E833F892D5EDD2E7CD33EC33FC50F5
:1044400002B2D522EC30E7100FBF000C0EBE000800
:104450000DBD00040BEB6014A2D5EB13FCED92E74D
:10446000FD2274FFFCFDFEFF22E480F8A2D574FF5C
:1044700013FC7D80E480EFBB010689828A83E02201
:104480005002E722BBFE02E32289828A83E4932260
:10449000BB010689828A83F0225002F722BBFE010B
:1044A000F322EF8DF0A4A8F0CF8CF0A428CE8DF0ED
:1044B000A42EFE22C5F0F8A3E028F0C5F0F8E582AE
:1044C000158270021583E038F022A3F8E0C5F025CC
:1044D000F0F0E582158270021583E0C838F0E8221A
:1044E000BB010A89828A83F0E5F0A3F0225006F727
:1044F00009A7F01922BBFE06F3E5F009F31922E83B
:104500008FF0A4CC8BF0A42CFCE98EF0A42CFC8AB8
:10451000F0EDA42CFCEA8EF0A4CDA8F08BF0A42D35
:10452000CC3825F0FDE98FF0A42CCD35F0FCEB8ED6
:10453000F0A4FEA9F0EB8FF0A4CFC5F02ECD39FE8C
:10454000E43CFCEAA42DCE35F0FDE43CFC2275F001
:1045500008758200EF2FFFEE33FECD33CDCC33CC88
:10456000C58233C5829BED9AEC99E58298400CF5A3
:1045700082EE9BFEED9AFDEC99FC0FD5F0D6E4CED1
:10458000FBE4CDFAE4CCF9A88222B800C1B9005905
:10459000BA002DEC8BF084CFCECDFCE5F0CBF978D2
:1045A00018EF2FFFEE33FEED33FDEC33FCEB33FB66
:1045B00010D703994004EB99FB0FD8E5E4F9FA22F0
:1045C0007818EF2FFFEE33FEED33FDEC33FCC933EB
:1045D000C910D7059BE99A4007EC9BFCE99AF90FB3
:1045E000D8E0E4C9FAE4CCFB2275F010EF2FFFEE1F
:1045F00033FEED33FDCC33CCC833C810D7079BEC6A
:104600009AE899400AED9BFDEC9AFCE899F80FD5E1
:10461000F0DAE4CDFBE4CCFAE4C8F922CFF4CFCE53
:10462000F4CECDF4CDCCF4CC22C3E49FFFE49EFEC7
:10463000E49DFDE49CFC22EB9FF5F0EA9E42F0E94C
:104640009D42F0EC6480C864809845F022EB9FF5B1
:10465000F0EA9E42F0E99D42F0E89C45F022E860D5
:104660000FECC313FCED13FDEE13FEEF13FFD8F1B7
:1046700022E8600FEFC333FFEE33FEED33FDEC3382
:10468000FCD8F122BB010789828A8302479B50052F
:10469000E9F802478FBBFE05E9F80247A789828A3D
:1046A000830247B3BB010789828A830246F3500520
:1046B000E9F80247C3BBFE05E9F80247CF227401BF
:1046C000FF3395E0FEFDFCA3A3A3E0CF2FF0E5822E
:1046D000158270021583E0CE3EF0E58215827002ED
:1046E0001583E0CD3DF0E582158270021583E0CCA4
:1046F0003CF022ECF0A3EDF0A3EEF0A3EFF022A447
:104700002582F582E5F03583F58322D083D082F8C7
:10471000E4937012740193700DA3A393F874019342
:10472000F5828883E4737402936860EFA3A3A38087
:10473000DFE5092582F582E5083583F583B50804B0
:104740008582092210AF06858209F5082285820933
:10475000F508D2AF22E5092582F582E5083583F513
:104760008322EC8EF0A4CCC5F0CCCDF8EFA4CEC55E
:10477000F02DFDE43CFCE8A42EC8C5F03DFDE43C72
:10478000FCEFA4FFE5F028FEE43DFDE43CFC22E65E
:10479000FC08E6FD08E6FE08E6FF22E0FCA3E0FDDB
:1047A000A3E0FEA3E0FF22E2FC08E2FD08E2FE082F
:1047B000E2FF22E493FC740193FD740293FE740300
:1047C00093FF22ECF608EDF608EEF608EFF622EC81
:1047D000F208EDF208EEF208EFF222410A0255412A
:1047E00009A63241099C0041099B004109FD014194
:1047F0000A081241099D004109F9004109A432410A
:104800000A000041099E00410A07014209A0000078
:104810004109A3004109FC004109FB00440A0300CF
:10482000000000410A01004109FA024109FE00416D
:1048300009A5004109FF004109F80041099F004115
:1048400009A20041099800410CE800410CE7004131
:104850000CEC00410CEB00410CEA0060390BBC4849
:104860000707070778B5B60755CE865695FD7D3DF7
:104870001D0D0585C5E5F5E007078D073068428405
:10488000A4830124C3040274A344C282E364D44316
:10489000038123146394B4C4440CA300001388411F
:1048A0000C9800410CC100420CB63DF4420CB8001B
:1048B00000410CBA00420CBB0BB8420CBD000042D8
:1048C0000CBF0000440B6900000000440B6D0000A9
:1048D0000000410B3800410B4500440B5B00000019
:1048E00000440B5F00000000410B6300410B6400BB
:1048F000410B6500410B6600440AAD713D0A074457
:104900000ABE713D0A07410A9700440A9C00000054
:1049100000410ABD00410AA0C4440A9800000000FA
:10492000440AC2017D7840410A9600410A7F004254
:104930000AA2002A420A7D002A440AC70000000099
:10494000410ACF00410AC600420A800000440A6FB3
:1049500000000000410A7300440A74000000004493
:104960000A7800000000410A7C00440C4F0000005F
:1049700000440C4500000000410C4D00410C4E006D
:10498000440C5300000000440C3C00000000440CA8
:104990004000000000410C440041090300440C8029
:1049A00000000000440C7C00000000410C7B00442F
:1049B0000C8400000000410C7200420C732710446C
:1049C0000C77000D4A58410C6F32410C6D00410CC0
:1049D0007000410C6E00410C6815440C6900000029
:1049E00000410C7100410C5700410C5800410C591A
:1049F00000410C5A00410C5B00410C5C00410C5D15
:104A000000410C5E00410C6100410C6200410C63EE
:104A100000440C6400000000410B0F00410B2B0C04
:104A2000490AD0000004040000000000410CEE0020
:104A3000410CF300410CF4FF410CF5FF410CF6FF73
:104A4000410CF7FF410CF8FF410CF9FF410CD380FA
:104A5000410CD27F440CCE000000FF440CAD023369
:104A600066C4440CA80000903C410CAC25440CB238
:104A7000481E0000410CFA00460CD40081023703A6
:104A800000410CFBFF410CFCFF430CDA000000412D
:104A90000CFD00420C130180420C15FF7F420C11EB
:104AA00001000075930078007583467582E8E04444
:104AB00001F00090480074C0F07581099076BCE464
:104AC000F0A3F0A3F0A3F0907010F0907019F090A4
:104AD0007020F09076007410F0907604E4F0A3F06B
:104AE000A3F0A3F09078007800087400F0A3740895
:104AF000F0E8B8040274FFA3F0A37422F0A374BC1E
:104B0000F0A37476F0A3E4F0A3E81475F008A4F021
:104B1000A3B804D59070107401F0907014F07E70FA
:104B20007F18124104907010F0EA900CB1F002412D
:104B30001175081F7509FD12B97512A52A12B90859
:104B4000024B7E025C57E493A3F8E493A34003F680
:104B50008001F208DFF48029E493A3F85407240CC1
:104B6000C8C333C4540F4420C8834004F4568001A2
:104B700046F6DFE4800B01020408102040809047D5
:104B8000DBE47E019360BCA3FF543F30E509541F72
:104B9000FEE493A360010ECF54C025E060A840B8A6
:104BA000E493A3FAE493A3F8E493A3C8C582C8CA24
:104BB000C583CAF0A3C8C582C8CAC583CADFE9DEF7
:104BC000E780BEC2D5E830E70FB2D5E4C39BFBE473
:104BD0009AFAE499F9E498F8EC30E717B2D5124B59
:104BE000F912458AE4C39BFBE49AFAE499F9E49844
:104BF000F8800312458A30D50DE4C39FFFE49EFE82
:104C0000E49DFDE49CFC22758600EF4E6027EF607A
:104C1000010E759300900A29E0F595A3E0F585A3B0
:104C2000E0F5848B938A838982E0A30586F0A3153F
:104C300086DFF6DEF4E4F593F5952232EEFA900C79
:104C4000ACE0F88FF0A4FFAEF0E88AF0A42EFEE509
:104C5000F03400FDEF24C9FF78FFEE38FEED38FD9B
:104C6000E438FC5003024D0022758600EF4E601BB5
:104C7000EF60010E8C838D828B958A858984E49305
:104C8000A30586F0A31586DFF5DEF3E4F59522ECA7
:104C90004D6011ED60010C8B938A838982E4F0A34F
:104CA000DDFCDCFA75930022EF54016004D2AF8082
:104CB00002C2AFEF5402FF9044F4E054FD4FF022E3
:104CC0009044F4E0F84402F0E85402FF10AF0122EF
:104CD00074014FFF228B938A838982EFF0A3EEF059
:104CE000A3EDF0A3ECF075930022452020005020A6
:104CF00020005320200043202000906577EFF02211
:104D0000EC4D4E700D78FCEF24E950032840FD2255
:104D100000007BF178DA0000EF28FF78FFEE38FE24
:104D2000ED38FDEC38FC50E7EF2BFFEE38FEED38A8
:104D3000FDEC38FC40F222050203048B938A838940
:104D400082E0FFA3E0FE759300228B938A83898221
:104D5000EDF0A3ECF0759300228B938A838982E0B7
:104D6000759300FF228B938A838982EDF0759300FF
:104D700022EC30E7031246292204001001A00000B3
:104D800000080010000000180000100000000000E3
:104D90000104000000000018000018001551140064
:104DA000000000080008000040008800000000002B
:104DB0001500A4000181282200000000000000006E
:104DC00000000000000000000000000000000000E3
:104DD0000000000040480220000000000202002203
:104DE00010000000000000000000000000000000B3
:104DF00000000000000000000012000000000000A1
:104E000000000000000000000000000000000000A2
:104E10000000000000000000000000000000000092
:104E20000000000000000000000000000000000082
:104E3000000000000000000000C50060001200003B
:104E4000000000A200EA00FF00000000000000F8DF
:104E500000F800000000000000000000000000005A
:104E60000000000000000000000000000000000042
:104E70000000000000000000000000000000000032
:104E80000000000000000000000000000000000022
:104E90000200000080000000000000000000000090
:104EA0000000000000000000000000000000000002
:104EB00000000000000000000000000000000000F2
:104EC00000000000000000000000000000000000E2
:104ED00000000000000000000000000000000000D2
:104EE0000000000000000000000000008000000042
:104EF00000000000000040000000000080000000F2
:104F00000000000000000000000040000000000061
:104F1000000000000000000002000000000000008F
:104F200080000010000000020800000000000000E7
:104F30008000000000000000000000000020004091
:104F40000000000000000000000000000000000061
:104F50000000000000800020000000800000000031
:104F6000000000C000000040000000000000000041
:104F70000000000000000000000000000000000031
:104F80000000000000000000000000000000000021
:104F900000000000000000000000000000004000D1
:104FA0000000000000000000000000000000000001
:104FB00000000000000000000000000000000000F1
:104FC00000000000000000000000000200000000DF
:104FD00008000000000000000000000000000000C9
:104FE00000000000000000000000000000000000C1
:104FF0000000000000000000000060000000000051
:105000004000000000000000000000000000001050
:1050100080000000000020000200000000004000AE
:105020000000000000000000000000000000000080
:105030000000000000000000000000000000000070
:1050400000200000000000000000000000C0000080
:10505000000000000000000000000010000000A0A0
:105060000000000000000000000000000000000040
:105070000000000000000000000000000000000030
:105080000000000000000000000000000000000020
:1050900000000000000000000000101000000000F0
:1050A0000000000000000000000000000000000000
:1050B00000000000000000000000000000000000F0
:1050C00000000000000000000000000040000000A0
:1050D00000000000000000000000000000000000D0
:1050E00000000000000000000000000400000000BC
:1050F00000000000000000000000000001000000AF
:105100000000002400000000010000000200203028
:10511000010000000000202002000000000040000C
:105120000000000020040400000000000000000057
:10513000000000000000000000000000000000006F
:10514000001000000000000000000000002000002F
:10515000000000000020000000000000002000000F
:1051600000000010004000200000000000000000CF
:10517000000000000000000000000000000000002F
:10518000000000000000000000100000000000000F
:10519000000000000000000000000000000000000F
:1051A00000000000000000000000000000000000FF
:1051B00000000000000000100000000000000000DF
:1051C00000000000000000000000100000000020AF
:1051D00000000004000000000000000000000000CB
:1051E00000000000000000000000000000000000BF
:1051F00000000000000000000020000000900004FB
:105200000000000000000000040004000200002074
:105210000180000000342020060000000010400043
:10522000208000000000000000002000400000007E
:10523000000000000000000000000000001000005E
:10524000000000000000002000000000006000409E
:10525000000000000000000000000050004000209E
:1052600000000000008000000000000000000000BE
:10527000000000000000000000000000000000002E
:10528000008000000000200040000000000000003E
:10529000000000000000000000000000000000000E
:1052A00000000000000000000000000000000000FE
:1052B00000090000002000000101000000000000C3
:1052C000000000000000000000000000200000209E
:1052D0000100002004000000002000000204000083
:1052E00000000000000000000000000000000000BE
:1052F0000000000000000000000000000000000CA2
:105300000000000000000000000804000200000887
:105310000000000000102000020000000000400813
:10532000000000000000000031000000000000004C
:105330000200000000000000000000E0000000008B
:1053400000000000000000E00010000000E000602D
:1053500000C000000000000000000010000000106D
:10536000001000000000000000000000000000002D
:10537000000000000000000000000000000000002D
:105380000000000000000000000000001000040009
:105390000008000001000000010000000000000003
:1053A00000000000000000000010000400002008C1
:1053B000000000000000800000000000200000004D
:1053C00000000000000000000000000000000000DD
:1053D00000000000000000000000000000000000CD
:1053E00000000000000000000000000000000000BD
:1053F00000000000000000000000000000000000AD
:10540000000000000000000000000000000000009C
:10541000000000000000000000000000000000008C
:10542000000000000000000000000000000000007C
:10543000000000000000000000000000006000709C
:105440000000000000F0002000100000000000003C
:10545000000000000000000000000000000000004C
:10546000000000000000000000000000000000003C
:10547000000000000000000000010000000000002B
:105480000001000000000001000100000010000108
:1054900000010000000800000001000000080001F9
:1054A000000100000001000823025479760800087A
:1054B00023035481761000082304548976200008C1
:1054C0002305549176280008230654997630000568
:1054D000230754A170200005230854A17030000553
:1054E000230954A170500005230A54A170600005DF
:1054F00023FE54A170700015220C0CE349C8004033
:1055000022FE0CE351300180220E0CE30A000080E1
:10551000220F0CE30C80020022100CE30E000100AD
:1055200022110CE34400008022120CE346000080AC
:1055300022FE0CE34D00008023144D790100008011
:1055400023154DF90180008023164E794900008013
:1055500023174EF94980008023184F7948000080B6
:1055600023194FF948800080231A507943000080A6
:10557000231B50F943800080231C51794200008096
:10558000231D51F942800080231E52794100008082
:10559000231F52F94180008023205379400000806E
:1055A00023FE53F9408000072322082852000007F9
:1055B000232308305208000723240838521000061D
:1055C0002325084052600007232608485278000827
:1055D000232708504578000C232808604F0000203E
:1055E000232911EC6470002023FE120C6570000862
:1055F000232B085851000080232C086C00000080E9
:10560000232D08EC00800080232E096C020000800E
:10561000232F09EC0280008023300A6C04000080F4
:1056200023310AEC0480008023320B6C06000080DA
:1056300023330BEC0680008023340C6C08000080C0
:1056400023350CEC0880008023360D6C0C000080A4
:1056500023370DEC1400008023380E6C148000807A
:1056600023390EEC16000080233A0F6C1680008060
:10567000233B0FEC18000080233C106C1880008046
:10568000233D10EC1A000080233E116C1A8000109C
:10569000233F122C501000102340123C5000008079
:1056A0002341124C4D800080234212CC4C000080DC
:1056B0002343134C4C800080234413CC47000080CC
:1056C0002345144C47800080234614CC468000803C
:1056D0002347154C45000080234815CC45800080A9
:1056E0002349164C1B000080234A16CC1B800080E7
:1056F000234B174C15000080234C17CC15800080DD
:10570000234D184C19000080234E18CC19800080BE
:10571000234F194C17000080235019CC17800080AC
:1057200023511A4C0900008023521ACC09800080B2
:1057300023531B4C0700008023541BCC07800080A0
:1057400023551C4C0B80008023561CCC0500008088
:1057500023571D4C0580008023581DCC0D00008070
:1057600023591E4C0D800080235A1ECC030000805C
:1057700023FE1F4C03800001000000020000000413
:1057800000000005000000060000120100020000F9
:105790000008C016DC0503000F0E80010902B700E7
:1057A000040100C0020904000000FF00000C09040D
:1057B000010000010100090A240100013400020275
:1057C000030C240201030600020300000009240365
:1057D0000201010001000C24020301010002030088
:1057E000000009240304030600030009040200006A
:1057F0000102000A09040201010102000A07240152
:10580000020201000B2402010202100100770109CB
:1058100005822D800101000007250180010000099B
:10582000040300000102000B09040301010102004E
:105830000B072401030101000B24020102021001E5
:105840000077010905032D80010100000725018073
:10585000010000040309040C034100450039005213
:105860000042001A0350006500610062006500728A
:1058700000720079002000530044005200220350BF
:10588000006500610062006500720072007900200E
:105890000052006500630065006900760065002421
:1058A00003500065006100620065007200720079BB
:1058B0000020005400720061006E0073006D0069EA
:1058C0000074001E035000650061006200650072F4
:1058D0000072007900200052006100640069006FCE
:1058E0000016034400470038005300410051002DCA
:1058F000004900320043001A037700770077002E3A
:10590000006F0062006400650076002E0061007484
:10591000001E034D0075006C0074007500730020BC
:105920000043006F006E00740072006F006C002076
:10593000034D0075006C0074007500730020004971
:10594000005100200053006F0075006E00640024B9
:10595000034D0075006C0074007500730020004951
:105960000051002000520065006300650069007668
:1059700000650026034D0075006C0074007500730F
:105980000020004900510020005400720061006EA8
:105990000073006D006900740026034D0075006CF3
:1059A0000074007500730020005300440052002072
:1059B0000043006F006E00740072006F006C0020E6
:1059C000034D0075006C00740075007300200053D7
:1059D00000440052002C004C004C0043002E0012EA
:1059E00003500072006F0066006900630069006F79
:1059F0000026037700770077002E006D0075006C9D
:105A0000007400750073002D007300640072002E96
:105A10000063006F006D000012035000450030006D
:105A200046004B004F002D0030000201822D018006
:105A3000010301032D018001FF01010101FF579CBA
:105A400002FF5A2A000000000000000000000000D1
:105A50000000000000FF5A3801FF578A00000000D4
:105A600001FF5A3C01FF5A58303132333435363752
:105A7000383941424344454600E4900A30F0A3F0EF
:105A8000A3F0A3F0A3F07F64FEFDFC713DD2AF90C4
:105A900044F474FDF0126BF112AADD12BD2C7EA14C
:105AA0007F1D12BD6A128B61E4FFFEFDFC900A3679
:105AB0001246F37FC0127AF8900A2EEFF0700912A6
:105AC000B73612AADD12B887126B31900A2FEFF0A9
:105AD000900A2EE0700CA3E060087BFF7A4C79EA14
:105AE00071C4900A2FE060087BFF7A4C79EE71C494
:105AF000900A2EE070087BFF7A4C79F271C47F0225
:105B000012958C7F807E9F7DD57C00900A981246EE
:105B1000F3900A98E0FCA3E0FDA3E0FEA3E0FF12EF
:105B200080A0EF70ECE47FDC7E05FDFC713D9151BF
:105B3000EF54FEFF124CFAE47F05FEFDFC90FFFCE3
:105B40001247311246F3850883850982E0A3E0A35A
:105B5000E0FEA3E0D39400EE9480403D900CB2E0D0
:105B6000FCA3E0FDA3E0FEA3E0FF124D0085088347
:105B7000850982C083C082E0FCA3E0FDA3E0FEA310
:105B8000E02400FFEE3480FEED34FFFDEC34FFFC3A
:105B9000D082D0831246F380AD900CA8E0FCA3E045
:105BA000FDA3E0FEA3E0FF850883850982E0F8A35A
:105BB000E0F9A3E0FAA3E0FB1244FF124D009000CD
:105BC00004024731900A35EBF0A3EAF0A3E9F0E4D0
:105BD000900A39F0A3F0900B0FE0600312AE6D91C4
:105BE00051EF5401440AFF124CFA900A35E0FBA32E
:105BF000E0FAA3E0F9126FA4F113EF5408FF900A42
:105C000038E06F60F3EFF0A374FFF5F01244CA457B
:105C1000F070E5900A3904F0A374E0F07B007A009C
:105C20007900126FA480D12212B164EF6012900B40
:105C30000FE0701C7D02FF12A7F7126902027FB508
:105C4000900B0FE0600AE4900CECF0F18412AE6D62
:105C500022906577E0FF22E4900A26F0A3F0A3F0FB
:105C6000A3F0A3F0A3F0A3F0A3740AF05179126299
:105C7000671270EA900A02E0FFB4430C900A27E032
:105C80006F6002EFF012A1BCF113EF5408FF900A0D
:105C900024F0A3E06F60D7A3E0FF04F0EFB40700A7
:105CA0004002A17A905CABF8282873025CC0025CC9
:105CB000C4025D08025D28025D2D025D3A025D4F5F
:105CC000B18A80AA900A02E0FF644360A1900A278B
:105CD000E06F60309151EF54FEFF124CFA9151EF9A
:105CE0004402FF124CFA9151900A2BEFF04408F055
:105CF0004410FFF0124CFAE4900CECF0900A02E031
:105D0000900A27F0F119816E128FDE9009A6E0FF4C
:105D1000900998E06F7002816EEFF0E075F064A476
:105D2000FFAEF012BD50816E1274CB816E9009FFF0
:105D3000E06002816E12902B816E12A00A12B9638C
:105D4000EF7002816E7BFF7A4C79F671C4816E90A0
:105D50000A02E064436016900A98E0FCA3E0FDA309
:105D6000E0FEA3E0FF1280A09009FFEFF0F113EF37
:105D700030E202816E12B8FA816E9128E4900A2610
:105D8000F0900A24E0A3F0816E22900CA374FF121D
:105D900046C0E4FBFAF9F8C312464D7010900C9A15
:105DA000F07F887E13FDFC900CA31246F3900C9FAD
:105DB000E07002A3E0601E900CA0E024FFF0900CC5
:105DC0009FE034FFF0E07002A3E070099151EF54BE
:105DD0007FFF124CFA900C9EE0600414F080239038
:105DE0000C9AE0FF900CA1E06F6017900C9D74017D
:105DF000F0A374C8F0E47F887E13FDFC900CA3121E
:105E000046F3900C98E0147002C197147002C1E63A
:105E100024026002E112F113EF30E407900C99E0E4
:105E200004F022900C99E0FFC394554029EFD394DD
:105E3000735023900C987401F0A37414F0900CA18B
:105E4000E0900C9AF0A3F0A37404F09151EF54DFAA
:105E50004440FF024CFAE4900C99F0900C9DE070E5
:105E600008900CA2E07002E1129151EF4480FF1201
:105E70004CFA900CA2E0600C900C9F7403F0A37499
:105E8000E8F08009900C9FE4F0A3740AF0E4900C11
:105E9000A2F0900C9DF022900C99E014F0E070724A
:105EA000900C9CE060319151EF4420FF124CFA902D
:105EB0000C9BE0FF30E308900C997408F08006908A
:105EC0000C997403F0EF25E0900C9BF0A3E014F024
:105ED000900C987402F0229151EF549FFF124CFAEB
:105EE000E4900C98F022900C99E014F0E07023906C
:105EF0000C9CE06008900C997403F08006900C995B
:105F0000740AF09151EF54DFFF124CFA900C987420
:105F100001F022906463E0FF22900CEAE024FE602E
:105F20002624F8603214604D240B7057900CECE07E
:105F30006051900CEBE0704B900CEA7402F09151C0
:105F4000EF54FDFF024CFA9151EF54F7FF124CFA57
:105F5000900CEA740AF022900CECE07026900CEBA6
:105F6000E070209151EF54FE4408FF124CFA900C5F
:105F7000EA740BF0229151EF4402FF124CFAE490C4
:105F80000CEAF0227DF07F40127F3A900A35EFF064
:105F900012B8D512B89B900CF5E0FFF1C5900CF447
:105FA000E0FFF1C5900CF7E0FFF1C5900CF6E0FFC3
:105FB000F1C5900CF8E0FFF1C512B8E912B8AF9046
:105FC0000A35E0FF227E01EFC39418502875F010C7
:105FD000EFA42410F582E5F03470F583E054FEF070
:105FE00075F010EFA42410F582E5F03470F583E02D
:105FF00054DFF0E41EAF062290FFFC124731124638
:10600000F390FFF61247317B01900006124755A925
:1060100082AA83850883850982EBF0A3EAF0A3E9CD
:10602000F07B0190000A124755A982AA83900003D1
:10603000124755EBF0A3EAF0A3E9F09000031247F2
:1060400055E0FBA3E0FAA3E02403F9E43AFA124492
:1060500077FF850883850982E0FBA3E0FAA3E0F9D6
:10606000EF124490900003124755E0FBA3E0FAA31F
:10607000E02402F9E43AFA124477FF85088385099F
:1060800082E0FBA3E0FAA3E02401F9E43AFAEF127C
:106090004490900003124755E0FBA3E0FAA3E024EC
:1060A00001F9E43AFA124477FF850883850982E012
:1060B000FBA3E0FAA3E02402F9E43AFAEF124490D9
:1060C000900003124755E0FBA3E0FAA3E0F9124465
:1060D00077FF850883850982E0FBA3E0FAA3E0242B
:1060E00003F9E43AFAEF124490900006124755E0A3
:1060F000FCA3E0FDA3E0FEA3E0FF90000E02473109
:10610000900A2FEBF0A3EAF0A3E9F0900A2EEFF04B
:1061100024FFFFE434FFFEEFC4F8540FC868FFEE1D
:10612000C454F048900A34EFF02488FFE43460FA55
:10613000A907900A367401F0A3EAF0A3E9F0900CE5
:10614000E8E030E008900A357491F08006900A3556
:1061500074D1F0900A32E0FCA3E0FDECFF900A2E2F
:10616000E0FE75F00BA42438F582E5F03409F583E0
:10617000E04FFF900A34E0FB240CF582E43460F534
:1061800083EFF0ED740D2BF582E43460F583EDF0D0
:1061900074222EF582E4340BF583E0FF125FC59084
:1061A0000A2EE02406F582E4340BF583E0FBFF9031
:1061B0000A32E0FCA3E0FD900A35E0900A3DF0D100
:1061C0000E900A2EE02406F582E4340BF583E0FFFE
:1061D000C007900A2FE0FBA3E0FAA3E0F9FFAE02AC
:1061E000EAE4AD07AC06C005900A36E0FBA3E0FA8E
:1061F000A3E0F9FFEAE4AB07D005D0077120900ACD
:106200002EE02422F582E4340BF583E0FF126B7953
:10621000900A2EE0FE2422F582E4340BF583E0FFA1
:1062200074062EF582E4340BF583E0FDF1E0900A6C
:106230002EE02422F582E4340BF583E0FF7D01B1EA
:10624000C3900A2EE075F00BA42436F582E5F034F5
:1062500009F583E4F0900A34E02480F582E43460A8
:10626000F583E04401F0227F0312AFC7EF60129084
:106270000CE9E0701C7F0351D2900CE97401F080AE
:1062800010900CE9E0600A7F0312B146E4900CE93B
:10629000F012AFBAEF60047F0351D27F03710FEFAA
:1062A000B401151269CD900A327401F0A37480F024
:1062B0007F03F1FE7F0351D27F02710FEFB4011112
:1062C000126B5D900A327401F0A37480F07F02318A
:1062D0000022EFD394004036EF94095031EF75F06F
:1062E0000BA42436F582E43409F583E4F0EF75F06D
:1062F0000BA4243AF582E43409F583E0FE75F0102E
:10630000EFA424FEF582E5F0345FF583EEF022EF92
:1063100075F00BA42436F582E43409F583E0FF22FE
:10632000900A3AECF0A3EDF0A3EAF0A3EBF0900AA8
:1063300039EFF0900A3E7401F0EFC394805053900F
:106340000A39E075F008A42404FFE5F03478FE90E3
:106350000A3FF0A3EFF0AA06F97B01900A3AE0FCAD
:10636000A3E0FD124D4C900A39E075F008A4240614
:10637000FFE5F03478FE900A3FF0A3EFF0AA06F9AB
:106380007B01900A3CE0FCA3E0FD124D4CE4900A36
:106390003EF0900A3EE0FF22E4900A2EF0900A2E92
:1063A000E0FFC394034002813FEF6402703FE024AA
:1063B00007F582E43409F583E0FF900907E0FBE488
:1063C000900A3DF07D01FCD10E900A2EE02407F5E5
:1063D00082E43409F583E0FF7B017A097903E9EA75
:1063E000E4AD01AC027B477A647120804A900A2EAA
:1063F000E0FE2407F582E43409F583E0FF74082EFB
:10640000F582E43409F583E0FB900A3D7404F07DE5
:10641000017C00D10E900A2EE02407F582E43409B5
:10642000F583E0FF7B017A09790BE9EAE4AD01AC81
:10643000027B477A647120900A2EE004F0619D90FF
:106440000CF7E0FF126B79900CF7E0FF900907E082
:10645000FDF1E0E4900A2EF0900A2EE0FFC39403D1
:106460004002A178EF04A3F0C39403402EE4F0901F
:106470000A2EE0240FF582E43409F583E0FF900A48
:106480002FE0240FF582E43409F583E0FB900A3D08
:106490007405F07D807C01D10E8029900A2EE024C5
:1064A0000FF582E43409F583E0FF900A2FE0240F12
:1064B000F582E43409F583E0FB900A3D7401F07D38
:1064C00080FCD10E900A2EE0FB75F080A42483F5A9
:1064D00082E5F03404F583EB2583F583FEE582EE57
:1064E000E4AD82AC06C005740F2BF582E43409F5E7
:1064F00083E0FF7B017A09790BE9EAE4AB01D0057F
:106500007120900A2EE02400F582E43400F583E047
:10651000FF900A2FE02400F582E43400F583E0FBCD
:10652000900A3D7402F07D807C01D10E900A2EE02D
:10653000F975F080A42483F582E5F03404F583E94D
:106540002583F583FEE582EEE4AB82AA06C002C095
:1065500003740029F582E43400F583E0FF7B017ABF
:10656000097903E9EAE4AD01AC02D003D00271205D
:10657000900A2EE004F08158900CF6E0FF126B793F
:10658000900CF6E0FF90090FE0FDF1E0900CF8E0D0
:10659000FF126B79900CF8E0FF900000E0FDF1E055
:1065A000900CF8E0FF7D01B1C3900CF6E0FF7D0197
:1065B00012B93E900CF6E0FF7D01B1C3900CF7E0FC
:1065C000FF7D017E01EFC394185040ED601575F01A
:1065D00010EFA42410F582E5F03470F583E0442038
:1065E000F0801375F010EFA42410F582E5F03470FC
:1065F000F583E054DFF075F010EFA42410F582E588
:10660000F03470F583E04401F0E4FEAF0622900A16
:106610003AECF0A3EDF0A3EBF0900A39EFF0900A1A
:106620003E7401F0EFC394805065900A3AE054F054
:10663000A3705C900A39E075F008A42400FFE5F02F
:106640003478FE900A3FF0A3EFF0AA06F97B0190A0
:106650000A3AE0FCA3E0FD124D4C900A3CE0FF90AA
:106660000A39E0FE75F008A42402F582E5F03478DA
:10667000F583EFF0900A3DE0FF75F008EEA42403E7
:10668000F582E5F03478F583EFF0E4900A3EF0907F
:106690000A3EE0FF22E4900A2EF0900A2EE0FFC3AB
:1066A00094035070EFB4021C2404F582E43409F51D
:1066B00083E0FF900904E0FBE4900A3DF07D01FCDB
:1066C000D10E8028900A2EE0FE2404F582E43409DD
:1066D000F583E0FF74052EF582E43409F583E0FBD1
:1066E000900A3D7404F07D017C00D10E900A2EE0EA
:1066F0002404F582E43409F583E0FF7B017A09790B
:106700000AE9EAE4AB017D4B7C657120900A2EE03A
:1067100004F08086900CF5E0FF126B79900CF5E0A8
:10672000FF900904E0FDF1E0E4900A2EF0900A2EBB
:10673000E0FFC394034002E1BAEF04A3F0C3940363
:106740004002E4F0900A2EE0240CF582E43409F5CE
:1067500083E0FF900A2FE0240CF582E43409F583EE
:10676000E0FB900A3D7402F07D807C01D10E900A1E
:106770002EE0F975F080A42403F582E5F03400F5ED
:1067800083E92583F583FEE582EEE4AB82AA06C0A9
:1067900002C003740C29F582E43409F583E0FF7B21
:1067A000017A09790AE9EAE4AD01AC02D003D0022A
:1067B0007120900A2EE004F0E12D900CF4E0FF121D
:1067C0006B79900CF4E0FF90090CE0FDF1E0900C87
:1067D000F4E0FF7D01B1C3900CF5E0FF7D01A1C3A2
:1067E0007E01EFC39418501375F010EFA42419F52F
:1067F00082E5F03470F583EDF0E41EAF0622900AD6
:106800002FEBF0A3EAF0A3E9F0900A2EEFF024FFBB
:10681000FFE434FFFEEFC4F8540FC868FFEEC45421
:10682000F048EF2488FFE43460FAA907900A357431
:1068300001F0A3EAF0A3E9F0900CE8E030E1089061
:106840000A347492F08006900A3474D2F0900A2EC2
:10685000E02422F582E4340BF583E0FF125FC5905B
:106860000A2EE02406F582E4340BF583E0FBFF906A
:106870000A32E0FCA3E0FDA3E0900A3DF012660EB0
:10688000900A2EE02406F582E4340BF583E0FFC085
:1068900007900A35E0FBA3E0FAA3E0F9FFAE02EAB5
:1068A000E4AD07AC06C005900A2FE0FBA3E0FAA315
:1068B000E0F9FFEAE4AB07D005D007126320900AA5
:1068C0002EE02422F582E4340BF583E0FF71799009
:1068D0000A2EE0FE2422F582E4340BF583E0FF74F7
:1068E000062EF582E4340BF583E0FD1267E0900A92
:1068F0002EE02422F582E4340BF583E0FF7D0102D3
:1069000065C3900B08E0B4FF06715D7F02312F90E4
:106910000B09E0B4FF0631CD7F03312FE4900CE981
:10692000F031CDE4900A32F0A3F07F030267FE90CD
:106930000A2EEFF0E4A3F0A3F0A3F0A3F0EF24FD00
:10694000602F047056900A2FE0FAA3E0FBA3E0FF4B
:10695000A3E0900A37CFF0A3EFF07D017F20F12C68
:10696000900A2EE02422F582E4340BF583EFF080C8
:106970002A900A2FE0FAA3E0FBA3E0FFA3E0900A2D
:1069800037CFF0A3EFF07D017F20D1E5900A2EE014
:106990002422F582E4340BF583EFF0900A2EE0FF19
:1069A000D394004027EF9409502231E3900A2EE05F
:1069B0002406F582E4340BF583EFF031E3900A2EE0
:1069C000E02410F582E4340BF583EFF02271737E3E
:1069D000007C017D801244A274832FF974043EFA76
:1069E0007B0122900A3774FFF0124CC0900CD3E068
:1069F000D394184023900CD2E0FE900A37F0900C0C
:106A0000D3E014F075F008EEA42400F582E5F0342C
:106A100078F583E0900CD2F0124CA8900A37E0FF92
:106A200022E4900A3AF0A3F0FBFA7D017F01B11F46
:106A3000E4900A3AF0A3F0FBFA7D017F01B1DEE4B5
:106A4000900A3AF0A3F0FBFA7D017F01D19EE49019
:106A50000A35F0900A35E0C39403501931E3900AE7
:106A600035E02407F582E43409F583EFF0900A3528
:106A7000E004F080DEE4900A35F0900A35E0C3943B
:106A800003501931E3900A35E0240FF582E434090C
:106A9000F583EFF0900A35E004F080DEE4900A35EB
:106AA000F0900A35E0C39403501931E3900A35E0C1
:106AB0002400F582E43400F583EFF0900A35E00419
:106AC000F080DE22E4900A3AF0A3F0FBFA7D017F29
:106AD0000191D8E4900A3AF0A3F0FBFA7D017F011E
:106AE0009151E4900A35F0900A35E0C394035019AF
:106AF00031E3900A35E02404F582E43409F583EFAC
:106B0000F0900A35E004F080DEE4900A35F0900A57
:106B100035E0C39403501931E3900A35E0240CF5B5
:106B200082E43409F583EFF0900A35E004F080DE6A
:106B300022713A51C45121025F84900CF3E0700835
:106B4000F191900CF37401F0124CC0906499E04400
:106B500020F0124CA890657BE04404F02271737E13
:106B6000007C017D801244A274032FF974003EFA68
:106B70007B0122906465E0FF227E01EFC3941850F0
:106B80002875F010EFA42414F582E5F03470F58335
:106B9000E04404F075F010EFA42410F582E5F03421
:106BA00070F583E04401F0E41EAF0622900A35EF51
:106BB000F07FF47E3DF17331E3900A36EFF0E0FBB5
:106BC000FFE4900A3DF07D01FC12660E900A36E06B
:106BD000FF7B227A427D677C64126320900A35E055
:106BE000FFA3E0FD1267E0900A35E0FF7D0102653A
:106BF000C3E4900A39F0A3F0FBFA7D017F01910D07
:106C000071ACF182E47F01FEFDFC025B3D900A372E
:106C1000EAF0A3EBF0AE05E4900CF9F0AD07AF0697
:106C2000AB07900A3FF0A3F0A3F0FFD125900CF939
:106C3000E0FF900A37E0FCA3E0FDA3E0FAA3E0FB4D
:106C4000B166900CF9E0FFE4FD9198900CF9E0FF3B
:106C500022900A38EAF0A3EBF0AE05900CF474032E
:106C6000F0AD07AF06AB07E4900A3FF0A3F0A3F046
:106C70007F03D125900CF4E0FF900A38E0FCA3E0FC
:106C8000FDA3E0FAA3E0FBB166900CF4E0FF7D0108
:106C90009198900CF4E0FF22AC077B01ECC39418B0
:106CA000503375F010ECA42410F582E5F03470F543
:106CB00083E054F1FAED540725E0FFE433AE02EF30
:106CC0004AFF75F010ECA42410F582E5F03470F55D
:106CD00083EFF0E41BAF0322900A38EAF0A3EBF055
:106CE000AE05900CF57404F0AD07AF06AB07900A43
:106CF0003FF0E4A3F0A3F07F04D125900CF5E0FF72
:106D0000900A38E0FCA3E0FDA3E0FAA3E0FBB16643
:106D1000900CF5E0FF7D019198900CF5E0FF22903A
:106D20000A38EAF0A3EBF0AE05900CF67405F0AD6E
:106D300007AF06AB07900A3FF0E4A3F0A3F07F058E
:106D4000D125900CF6E0FF900A38E0FCA3E0FDA30B
:106D5000E0FAA3E0FBB166900CF6E0FF7D019198AC
:106D6000900CF6E0FF22900A3DECF0A3EDF0A3EAD0
:106D7000F0A3EBF0900A3CEFF0900A417401F0EFC1
:106D8000C394185053900A3CE075F008A42404FF03
:106D9000E5F03476FE900A42F0A3EFF0AA06F97B04
:106DA00001900A3DE0FCA3E0FD124D4C900A3CE04E
:106DB00075F008A42406FFE5F03476FE900A42F050
:106DC000A3EFF0AA06F97B01900A3FE0FCA3E0FDE7
:106DD000124D4CE4900A41F0900A41E0FF22900AE3
:106DE00038EAF0A3EBF0AE05900CF77406F0AD07AF
:106DF000AF06AB07900A3FF0E4A3F0A3F07F06D103
:106E000025900CF7E0FF900A38E0FCA3E0FDA3E03A
:106E1000FAA3E0FBB166900CF7E0FF7D019198903A
:106E20000CF7E0FF22AC077A01ECC39418506CEB2E
:106E3000540175F080A4FFED547F4FFF75F008EC0E
:106E4000A42400F582E5F03476F583EFF0900A4053
:106E5000E0540F75F010A4FF900A3FE0540F4FFF6D
:106E600075F008ECA42401F582E5F03476F583EFA3
:106E7000F0900A41E0540FFF75F008ECA42402F5ED
:106E800082E5F03476F583EFF075F008ECA4240386
:106E9000F582E5F03476F583E4F01AAF0222900A29
:106EA00038EAF0A3EBF0AE05900CF87407F0AD07EC
:106EB000AF06AB07E4900A3FF0A3F0A3F07F07D141
:106EC00025900CF8E0FF900A38E0FCA3E0FDA3E079
:106ED000FAA3E0FBB166900CF8E0FF7D0191989079
:106EE0000CF8E0FF22900A35EAF0A3EBF0AE059033
:106EF0000CFB7402F0AD07AF06AB07900A3FF0E45D
:106F0000A3F0A3F07F02D125900CFBE0FF900A359F
:106F1000E0FCA3E0FDA3E0FAA3E0FBB166900CFB6C
:106F2000E0FF7D029198900CFBE0FF22900A35EA89
:106F3000F0A3EBF0AE05900CFC7401F0AD07AF06CA
:106F4000AB07900A3FF0E4A3F0A3F07F01D12590B6
:106F50000CFCE0FF900A35E0FCA3E0FDA3E0FAA3FF
:106F6000E0FBB166900CFCE0FF7D029198900CFC78
:106F7000E0FF22AD07AC06EC906579F0EF90657804
:106F8000F0229064947420F0906493F0906492F0F6
:106F900022906587E054F8F0E0F090658BE054F8BB
:106FA000F0E0F022EA494B6015E4900BB4F0900B4E
:106FB000B7F0900BB9EBF0A3EAF0A3E9F022900B45
:106FC000B7E014700302706A14700302709B1470AF
:106FD000030270CD240360030270E9900BB9E0FB5B
:106FE000A3E0FAA3E0F9900BB4E0FFE92FF9E43A4B
:106FF000FA1244777004900BB4F0900BB9E0FBA345
:10700000E0FAA3E0F9900BB4E0FF04F0E92FF9E413
:107010003AFA124477FFC39461400AEFD3947A504E
:107020000474E02FFFEFC394224006EFD3945A403C
:1070300008900BB57407F0800F749A2FF582E43432
:107040000BF583E0900BB5F0900BB5E0FF5407A370
:10705000F070037406F0EFB40710900BB87402F0F0
:10706000E4900BB6F0A37403F022900BB5E0FF3070
:10707000E708900BB87403F08006900BB87401F029
:10708000EF25E0900BB5F0A3E014F0125C51EF5443
:10709000FEFF124CFA900BB77402F0900BB8E07040
:1070A00025900BB77403F0900BB6E07008900BB806
:1070B0007402F08005E4900BB8F0125C51EF4401CB
:1070C000FF124CFA8007900BB8E014F022900BB836
:1070D000E07010900BB6E07003A3F022900BB77431
:1070E00001F022900BB8E014F022906461E0FD7C86
:1070F0000020E00241C6906464E0FEE42DFDEC3E19
:10710000FCFEAF05ED2410FFEE34AA900A2EF0A38A
:10711000EFF0900CB8E0FEA3E0FF900A2EE0FCA395
:10712000E0FDC39FFFEC9EA3F0A3EFF0EC1243BD84
:107130007B177AB779D178391242121243F6900A46
:1071400032EEF0A3EFF0900A30E0FCA3E0FDEC1289
:1071500043BDE4FBFAF9783F1242121243F6900A5B
:107160002EE0FDA3E0900CB8CDF0A3EDF0900A3333
:10717000E02FFF900A32E03EFE900CB7E02FF09037
:107180000CB6E03EF0D3A3E094E8900CB6E0943F58
:107190004007743FF0A374E8F0C3900CB7E0940C80
:1071A000900CB6E0943A5007743AF0A3740CF09047
:1071B0000CBBE07002A3E0700241BB900CBAE0602F
:1071C0002FE4900CB6F0A3F0900CBAE014F060023B
:1071D00041BB125C51EF54FEFF124CFA900CB67496
:1071E0003DF0A374F4F07D017F0C7E0051C741BBDC
:1071F000900CBCE024FFF0900CBBE034FFF0900A50
:1072000030E0FEA3E0FFC3EE64809480500FC39093
:107210000CBEE09FF0900CBDE09EF08014900A3010
:10722000E0FEA3E0FF900CBEE02FF0900CBDE03E2E
:10723000F0900CBDE0C313FEA3E013FF900CBDEE75
:10724000F0A3EFF0C39402EE94005018A3E0700294
:10725000A3E0602D900CC0E024FFF0900CBFE03460
:10726000FFF0801DD3900CBEE09407900CBDE0941D
:1072700000400E900CC0E004F07006900CBFE004DB
:10728000F0D3900CC0E09432900CBFE09400402BFF
:10729000E4900CBDF0A3F0A3F0A3F0900CBA74C876
:1072A000F0A3740BF0A374B8F0125C51EF4401FF2B
:1072B000124CFA7D017F0D7E0051C7900CB6E0FEA6
:1072C000A3E0FF126F7322900A34EEF0A3EFF0A355
:1072D000EDF071F3900A38EFF071FB900A39EEF09F
:1072E000A3EFF0900A34E0FCA3E0FD6F7002EC6EB7
:1072F000700261F29043A2E05401900A37F0A3E0DB
:10730000703AA3E0FEA3E0FF4E6004ED4C702DEF59
:107310004E70117B027A407980124D4C904082E091
:1073200054BFF022904082E04440F07B027A4079E2
:1073300080900A34E0FCA3E0FD024D4C900A37E057
:107340006053904001E4F090401004F0904014E449
:10735000F0904008E0547FF0904082E05408600ACA
:10736000900A34E07002A3E0702B7B027A4079022D
:10737000900A39E0FCA3E0FD124D4C9040017407E7
:10738000F0904001E0540170F89043A2E054FEF008
:10739000904001E4F09043A2E05401602F7B027A18
:1073A000407902900A34E0FCA3E0FD124D4C900AB3
:1073B00036E060047F0280027F00EF4401904001CC
:1073C000F0904001E05401602980F6227B027A406F
:1073D0007980900A34E0FCA3E0FD124D4C9043A26A
:1073E000C083C082E0FF900A37E0FEEF4ED082D02B
:1073F00083F022904082E05407FF227B027A40799A
:1074000080024D3D900A321246F3E4FFFEFDFC90EF
:107410000A461246F3900A32E0FCA3E0FDA3E0FE28
:10742000A3E0FF125FF8E41243B8E4FBFAF9784AEC
:1074300012431B900A361246F3900A36E0FCA3E092
:10744000FDA3E0FEA3E0FF1243F6900A3A1246F3D2
:107450007F007E247D747C49900A36E0F8A3E0F931
:10746000A3E0FAA3E0FB1242121243F67B407A42F9
:10747000790F7800124BC3AC00AD01AE02AF0390A0
:107480000A421246F37F407E427D0F7C00900A3A0A
:10749000E0F8A3E0F9A3E0FAA3E0FB1244FF900AAE
:1074A00042E0F8A3E0F9A3E0FAA3E02FFFEA3EFEF2
:1074B000E93DFDE83CFC900A3E1246F3900A3EE0AE
:1074C000FCA3E0FDA3E0FEA3E0FF22900A73E0141A
:1074D0007002A1F7147002C15024026002E1B8905A
:1074E0000AADE0FCA3E0FDA3E0FEA3E0FF900A7478
:1074F000E0F8A3E0F9A3E0FAA3E0FBC312464D7065
:1075000002A1F0124CC0AB07900AADE0FCA3E0FD75
:10751000A3E0FEA3E0FF900A741246F3AF03124CFF
:10752000A8900C4DE014603804704C900A74E0FC94
:10753000A3E0FDA3E0FEA3E0FF9104900A2E124613
:10754000F3900A2EE0FCA3E0FDA3E0FEA3E0FFE43D
:107550007B04FAF9F812458A900A2E1246F3801736
:10756000900A74E0FCA3E0FDA3E0FEA3E0FF125F3D
:10757000F8900A2E1246F3E47F64FEFDFC900A2E7A
:10758000E0F8A3E0F9A3E0FAA3E0FBD312464D40F4
:107590005F900A2EE0FCA3E0FDA3E0FEA3E0FF90D5
:1075A0000A98E0F8A3E0F9A3E0FAA3E0FB12464D45
:1075B000603E900A2EE0FCA3E0FDA3E0FEA3E0FF06
:1075C000900A981246F3900A98E0FCA3E0FDA3E02D
:1075D000FEA3E0FF900C691246F3900A98E0FCA32A
:1075E000E0FDA3E0FEA3E0FF1288C8900AA1EFF03F
:1075F000900A73E004F022900ACFE0FF900A7CE04A
:107600006F6047900ACFE014601614601F14602862
:107610002403702E900A807401F0A37490F08022ED
:10762000900A807402F0A37458F08016900A807457
:1076300003F0A37420F0800A900A807403F0A3740E
:10764000E8F0900ACFE0900A7CF0900A73E004F032
:10765000900A98E0FCA3E0FDA3E0FEA3E0FF900AFF
:1076600078E0F8A3E0F9A3E0FAA3E0FBC312464DEB
:107670007002E1B3900A98E0FCA3E0FDA3E0FEA352
:10768000E0FF900AC71246F3900A02E024BD7002A0
:10769000E15924F77002E11C24F7604324146002CE
:1076A000E19F900AC7E0FCA3E0FDA3E0FEA3E02475
:1076B00054FFEE342EFEE43DFDE43CFCC007900A8E
:1076C000C6E0FFFB3395E0FAF9F8D007C3EF9BFF64
:1076D000EE9AFEED99FDEC98FCA31246F3E19F9023
:1076E0000AC7E0FCA3E0FDA3E0FEA3E024E0FFEE78
:1076F000342EFEE43DFDE43CFCC007900AC6E0FFEA
:10770000FB3395E0FAF9F8D007C3EF9BFFEE9AFE42
:10771000ED99FDEC98FCA31246F3E19F900AC7E0B7
:10772000FCA3E0FDA3E0FEA3E024E0FFEE342EFE88
:10773000E43DFDE43CFCC007900AC6E0FFFB339546
:10774000E0FAF9F8D007C3EF9BFFEE9AFEED99FD42
:10775000EC98FCA31246F38046900AC7E0FCA3E035
:10776000FDA3E0FEA3E024E0FFEE342EFEE43DFDA9
:10777000E43CFCC006C007900A80E0FEA3E0FFFBEB
:10778000AA06EA3395E0F9F8D007D006C3EF9BFFCD
:10779000EE9AFEED99FDEC98FC900AA91246F39042
:1077A0000A98E0FCA3E0FDA3E0FEA3E0FF900A78C6
:1077B0001246F3E4900A73F022900A4EEFF0A3ED24
:1077C000F0900B38E0B408004003027AB19077D40F
:1077D000F82828730277EC02794F0279740279A6AF
:1077E0000279D50279FB027A5F027A8E900A54E020
:1077F000FCA3E0FDA3E0FEA3E0FFE41243B8C00455
:10780000C005C006C007900A50E0FCA3E0FDA3E05D
:10781000FEA3E0FFE41243B8D003D002D001D000B1
:1078200012431BE4FBFAF978431242121243F6901A
:107830000B2C1246F3900A4FE0FF7E007C007D8007
:10784000124762900B2CE0F8A3E0F9A3E0FAA3E062
:107850002FFFEA3EFEE93DFDE83CFCE42FFFEE345D
:10786000FEFEED34FFFDEC34FFFC900B2C1246F3D2
:10787000900A54E0FCA3E0FDA3E0FEA3E0FFE412C5
:1078800043B8C004C005C006C007900A50E0FCA37E
:10789000E0FDA3E0FEA3E0FFE41243B8D003D00272
:1078A000D001D00012431BE4FBFAF97843124212D4
:1078B0001243F6900B301246F3900B30E0FCA3E03D
:1078C000FDA3E0FEA3E0FF900A54E0F8A3E0F9A3D3
:1078D000E0FAA3E0FB1244FFC004C005C006C007E5
:1078E000E47F80FEFDFC900A50E0F8A3E0F9A3E0FD
:1078F000FAA3E0FB1244FFD003D002D001D000C3B2
:10790000EF9BFFEE9AFEED99FDEC98FC900B301288
:1079100046F3900A54E0FCA3E0FDA3E0FEA3E0FFE1
:10792000900B341246F3900B34E0FCA3E0FDA3E08F
:10793000FEA3E0E4FFEEE4FDFC780812465EAD072E
:10794000900A4EE0FF51B7900B38E004F041B1903F
:107950000A4EE004FFC007900B34E0FCA3E0FDA357
:10796000E0FEA3E0FFE4AD07D00751B7900B38E08D
:1079700004F041B1900A4EE02402FFC007900B2CA6
:10798000E0FCA3E0FDA3E0FEA3E0E4FFFEED540372
:10799000FDE4FC781012465EAD07D00751B7900B9E
:1079A00038E004F041B1900A4EE02403FFC0079094
:1079B0000B2CE0FCA3E0FDA3E0FEA3E0E4FFEEE47B
:1079C000FDFC780812465EAD07D00751B7900B3822
:1079D000E004F041B1900A4EE02404FFC007900B90
:1079E0002CE0FCA3E0FDA3E0FEA3E0FFE4AD07D0A4
:1079F0000751B7900B38E004F041B1900A4EE024F3
:107A000005FFC007900B30E0FCA3E0FDA3E0FEA360
:107A1000E0E4FFFEED540FFDE4FC781012465EC07A
:107A200004C005C006C007A3E0FCA3E0FDA3E0FE80
:107A3000A3E0E4FFFEED540FFDE4FC780C12465E7B
:107A4000D003D002D001D000EF4BFFEE4AED49EC5D
:107A500048AD07D00751B7900B38E004F080529042
:107A60000A4EE02406FFC007900B30E0FCA3E0FDC7
:107A7000A3E0FEA3E0E4FFEEE4FDFC780812465E1E
:107A8000AD07D00751B7900B38E004F08023900A7F
:107A90004EE02407FFC007900B30E0FCA3E0FDA3FD
:107AA000E0FEA3E0FFE4AD07D00751B7E4900B3848
:107AB000F0900B38E0FF22900A5A7401F0E4A3F032
:107AC000900A58EFF0A3EDF07B017A0A7958900AFA
:107AD000607402F0E4A3F07F60F1F1900A5BEFF0D4
:107AE000F11CEF30E1FAF1EBEF64026005E4900A7B
:107AF0005AF0900A5AE0FF22900A35EFF0E4900A1B
:107B00003AF0FF7ED77DA37C70125FF8900AB11225
:107B100046F3900A35E0FD7FB751B7900A3AEFF08F
:107B2000700261C7E4FFFEFDFC900A36E0F8A3E0B6
:107B3000F9A3E0FAA3E0FBC312464D6014900A36A5
:107B4000E0FCA3E0FDA3E0FEA3E0FF900AC2124622
:107B5000F37D807F1051B7900A3AEFF07D807F115E
:107B600051B7900A3AEFF07D807F1251B7900A3AF0
:107B7000EFF07D0C7F1051B7900A3AEFF07D0C7F4B
:107B80001151B7900A3AEFF07D0C7F1251B7900A6D
:107B90003AEFF0E4FDFF1289F1E4FFB1E67F01B1B5
:107BA000E6E4FD7F01128A82E4FD7F02128A82E40C
:107BB000FD7F01D101E4FD7F02D101E4FD7F01D110
:107BC00039E4FD7F02D139900A3AE0FF7E0022902D
:107BD0000A4EEFF0900B45E0B408004002A1E0909F
:107BE0007BE6F8282873027BFE027C6A027C8F0207
:107BF0007CD5027D04027D2A027D8E027DBDE47F5C
:107C000080FEFDFC900A4FE0F8A3E0F9A3E0FAA3A0
:107C1000E0FB1244FFE42FFFEE34FEFEED34FFFDE7
:107C2000EC34FFFC900B391246F3E4FFFEFDFC90B0
:107C30000B3D1246F3E47F01FEFDFC900B41124622
:107C4000F3900B41E0FCA3E0FDA3E0FEA3E0E4FF22
:107C5000EEE4FDFC780812465EAD07900A4EE0FFA8
:107C600051B7900B45E004F0A1E0900A4EE004FF0C
:107C7000C007900B41E0FCA3E0FDA3E0FEA3E0FF02
:107C8000E4AD07D00751B7900B45E004F0A1E090B8
:107C90000A4EE02402FFC007900B39E0FCA3E0FD90
:107CA000A3E0FEA3E0E4FFFEED5403FDE4FC781046
:107CB00012465EA804A905AA06AB07900A53E0FF86
:107CC000E4EB4FFFEAE9E8AD07D00751B7900B4569
:107CD000E004F0A1E0900A4EE02403FFC007900BFF
:107CE00039E0FCA3E0FDA3E0FEA3E0E4FFEEE4FD49
:107CF000FC780812465EAD07D00751B7900B45E0FF
:107D000004F0A1E0900A4EE02404FFC007900B3974
:107D1000E0FCA3E0FDA3E0FEA3E0FFE4AD07D00795
:107D200051B7900B45E004F0A1E0900A4EE0240525
:107D3000FFC007900B3DE0FCA3E0FDA3E0FEA3E045
:107D4000E4FFFEED540FFDE4FC781012465EC00423
:107D5000C005C006C007A3E0FCA3E0FDA3E0FEA3AE
:107D6000E0E4FFFEED540FFDE4FC780C12465ED01B
:107D700003D002D001D000EF4BFFEE4AED49EC48B2
:107D8000AD07D00751B7900B45E004F08052900A40
:107D90004EE02406FFC007900B3DE0FCA3E0FDA3EE
:107DA000E0FEA3E0E4FFEEE4FDFC780812465EADE1
:107DB00007D00751B7900B45E004F08023900A4E9E
:107DC000E02407FFC007900B3DE0FCA3E0FDA3E02B
:107DD000FEA3E0FFE4AD07D00751B7E4900B45F0F8
:107DE000900B45E0FF22900A3BEFF070067D207F6C
:107DF000B141B7900A3BE0B401067D807FB151B735
:107E000022900A3CEDF0900A3BEFF02410FF7B013A
:107E10007A0A793DD194900A3CE0B40107A3E0547A
:107E20007FF08007900A3DE04440F0900A3BE02458
:107E300010FF900A3DE0FD41B7900A3BEFF0A3ED43
:107E4000F07B017A0A793D7F03D194EF7045900A67
:107E50003CE0B4011BA3E0FF900A3BE0FE7401A8E4
:107E600006088002C333D8FCF45F900A3DF0801A04
:107E7000900A3DE0FF900A3BE0FE7401A8060880EE
:107E800002C333D8FC4F900A3DF0900A3DE0FD7FDD
:107E90000351B722900A3FEFF0A3EBF0A3EAF0A35F
:107EA000E9F0E4A3F0A3F07B01A304F0A3740AF0CB
:107EB000A3743FF0F11C900A44EFF064806057A374
:107EC000E0FBA3E0FAA3E0F9900A607401F0E4A3F8
:107ED000F07F60F1F1900A44EFF0F11CEF30E1FA2D
:107EE000900A44E07030900A40E0FBA3E0FAA3E07F
:107EF000F9900A4C7401F0E4A3F07F6012B7D590BA
:107F00000A44EFF0F11CEF30E0FA900A44E060061A
:107F1000900A437401F0900A43E0FF229044C97430
:107F200080F0900CCAE0FF900CEDE054406004EF4C
:107F30004404FF9044C17480F022900A36EFF0A30D
:107F4000EDF0E4900A3AF0A3F0A3F0900A3AE0FFD3
:107F5000C39402505DEF14602E0470EF900A36E077
:107F6000900A38F0900A37E0900A39F07B017A0ADB
:107F70007938900A607402F0E4A3F07F46F1F19042
:107F80000A3AE004F080C4F11CEF30E708900A3AA6
:107F9000E014F0800AEF30E106900A3AE004F09035
:107FA0000A3B74FFF5F01244B445F0709E7F012245
:107FB00080997F00227DC07F40F13A7D807F45F12E
:107FC0003A7DFF7F41F13A7DFF7F42F13A1266959B
:107FD00012639812B8C0124CC0906597E04410F03C
:107FE000124CA890657BE04401F022900CC6E0FFA3
:107FF00022900A5DEBF0A3EAF0A3E9F0AC077D0262
:10800000900A5DE0FBA3E0FAA3E04A4B7002019DF9
:10801000900CEDE0B4100F9049D9E054087003FDC6
:10802000801A7D018016900CEDE0B4600FE4FD90A5
:1080300044D97480F0900CCAE054F7F0ED705E9073
:108040000CED7445F0E4900CC6F0900A60E0900CE2
:10805000C9F0900A5DE0F9A3E0FAA3E0900CC2C970
:10806000F0A3EAF0A3E9F0900A61E0FF900CC7F0FA
:10807000900CCAE054FDF0AE04EE25E09049D8F033
:10808000EF5401600CA37412F09049D77404F0808F
:10809000069049D97401F09044C17480F0AF052274
:1080A000900A351246F37F407E787D7D7C01900AF0
:1080B000391246F3900B66E01470024124147002EA
:1080C000E1DF14700302883514700302886C1470A9
:1080D000030288A8240560030288C29009A5E02451
:1080E000FE601D14604124037056900A35E0FCA325
:1080F000E0FDA3E0FEA3E0FF900B6D1246F380408D
:10810000900A35E0FCA3E0FDA3E0FEA3E02464FFB9
:10811000E43EFEE43DFDE43CFC900B6D1246F39022
:1081200009A57403F08019900A35E0FCA3E0FDA3D3
:10813000E0FEA3E0FF900B6D1246F3E49009A5F07A
:10814000900CECE0600221CE900A03E0FCA3E0FD7D
:10815000A3E0FEA3E0FF900B6DE0F8A3E0F9A3E03D
:10816000FAA3E02FFFEA3EFEE93DFDE83CFC900B60
:108170005BE0F8A3E0F9A3E0FAA3E0FBC312464DED
:1081800070030288C2900A03E0FCA3E0FDA3E0FEB6
:10819000A3E0FF900B6DE0F8A3E0F9A3E0FAA3E001
:1081A0002FFFEA3EFEE93DFDE83CFC900B691246DC
:1081B000F3900B69E0FCA3E0FDA3E0FEA3E0FF90D9
:1081C0000B5B1246F3900B66E004F00288C2900B42
:1081D0006DE0FCA3E0FDA3E0FEA3E0FF900B5BE0FD
:1081E000F8A3E0F9A3E0FAA3E0FBC312464D700345
:1081F0000288C2900B6DE0FCA3E0FDA3E0FEA3E0CB
:10820000FF900B691246F3900B6DE0FCA3E0FDA319
:10821000E0FEA3E0FF900B5B1246F3900B66E004D8
:10822000F00288C2900A96E0900B67F0900A7FE017
:10823000900B68F0E0FC1243C2E4FBFA79C8784284
:1082400012431B900A411246F3900A41E0F8A3E062
:10825000F9A3E0FAA3E0FBC000C001C002C0039094
:108260000B67E0FC1243C2D003D002D001D0001251
:108270004121900A411246F3900B69E0FCA3E0FD16
:10828000A3E0FEA3E0FFE41243B87B007A247974F4
:10829000784912431B900A3D1246F3900A41E0FCD4
:1082A000A3E0FDA3E0FEA3E0FF900A3DE0F8A3E019
:1082B000F9A3E0FAA3E0FB124212E4FBFA7980781A
:1082C000C0124212900A3D1246F3900A3DE0FCA310
:1082D000E0FDA3E0FEA3E0FF1243F6900A49124638
:1082E000F3E4FFFEFDFC900A49E0F8A3E0F9A3E007
:1082F000FAA3E0FBC31246375051E47B04FAF9F8C5
:10830000900A49E0FCA3E0FDA3E0FEA3E0FF124BCE
:10831000C3AC00AD01AE02AF03E4FBFAF9F8C3123F
:108320004637700261B6900A49E0FCA3E0FDA3E085
:10833000FEA3E0FFE40BF8EF2BFFEA3EFEE93DFD74
:10834000E83CFC900A491246F380AFE4FFFEFDFCD6
:10835000900A49E0F8A3E0F9A3E0FAA3E0FBD31206
:1083600046374052E47B04FAF9F8900A49E0FCA34E
:10837000E0FDA3E0FEA3E0FF124BC3AC00AD01AEF5
:1083800002AF03E4FBFAF9F8C31246376028900AFB
:1083900049E0FCA3E0FDA3E0FEA3E0FF74FFEF24AF
:1083A000FFFFEE34FFFEED34FFFDEC34FFFC900ADE
:1083B000491246F380AE900B69E0FCA3E0FDA3E018
:1083C000FEA3E0FFE47B04FAF9F81244FF900B6986
:1083D0001246F3900B69E0F8A3E0F9A3E0FAA3E0FA
:1083E000FB900A49E0FCA3E0FDA3E0FEA3E0FFEB65
:1083F0002FFFEA3EFEE93DFDE83CFC900B6912468A
:10840000F3E4900B63F0900A4DF07F06FEFDFC90C4
:108410000B5FE0F8A3E0F9A3E0FAA3E0FBC3124688
:108420004D500281E3E4FFFEFDFC900B69E0F8A3F0
:10843000E0F9A3E0FAA3E0FBD312464D500281E33A
:10844000900B5FE0F8A3E0F9A3E0FAA3E0FB7F0064
:108450007EE97DA47C3512458A900B69E0F8A3E0A3
:10846000F9A3E0FAA3E0FBD312464D5076900B69D6
:10847000E0FCA3E0FDA3E0FEA3E0FF900B5FE0F8CB
:10848000A3E0F9A3E0FAA3E0FB1244FF900B46122D
:1084900046F37F007E467DC37C23900B46E0F8A325
:1084A000E0F9A3E0FAA3E0FBC312464D4035900A81
:1084B00039E0F8A3E0F9A3E0FAA3E0FB900B46E073
:1084C000FCA3E0FDA3E0FEA3E0FF12458A900B4E63
:1084D000EFF0C3940F400CE0D3945A5006900A4D2D
:1084E0007401F0900A4DE06020900B5FE0FCA3E087
:1084F000FDA3E0FEA3E0FF900B571246F3900B6341
:108500007401F0900AA1F0C1E5900B69E0F8A3E0D6
:10851000F9A3E0FAA3E0FB7F807E177DB47C2C12E8
:10852000458A900B571246F3E47F06FEFDFC900B44
:1085300057E0F8A3E0F9A3E0FAA3E0FBC312464D2D
:10854000500CE47F06FEFDFC900B571246F3E47FCF
:10855000087E07FDFC900B57E0F8A3E0F9A3E0FAD2
:10856000A3E0FBD312464D400DE47F087E07FDFCDF
:10857000900B571246F3900B57E0FCA3E0FDA3E0ED
:10858000FEA3E05401FFE4FEFDFCEF6026900B57D4
:10859000E0FCA3E0FDA3E0FEA3E0FF74FFEF24FFF7
:1085A000FFEE34FFFEED34FFFDEC34FFFC900B5783
:1085B0001246F3E47F06FEFDFC900B57E0F8A3E0C3
:1085C000F9A3E0FAA3E0FBC312464D500CE47F068A
:1085D000FEFDFC900B571246F3900B69E0FCA3E004
:1085E000FDA3E0FEA3E0FF900B57E0F8A3E0F9A3A2
:1085F000E0FAA3E0FB1244FF900B461246F37F0023
:108600007EE97DA47C35900B46E0F8A3E0F9A3E079
:10861000FAA3E0FBD312464D501B7F007E467DC37C
:108620007C23900B46E0F8A3E0A3E0A3E0C312464E
:108630004D4002C1DC900B69E0F8A3E0F9A3E0FA39
:10864000A3E0FB7F007EE97DA47C3512458A900B78
:10865000571246F3900B57E0FCA3E0FDA3E0FEA306
:10866000E05401FFE4FEFDFCEF6026900B57E0FCB8
:10867000A3E0FDA3E0FEA3E0FF74FFEF24FFFFEE05
:1086800034FFFEED34FFFDEC34FFFC900B57124637
:10869000F3E47F06FEFDFC900B57E0F8A3E0F9A39E
:1086A000E0FAA3E0FBC312464D500CE47F06FEFD4A
:1086B000FC900B571246F3900B69E0FCA3E0FDA37E
:1086C000E0FEA3E0FF900B57E0F8A3E0F9A3E0FA87
:1086D000A3E0FB1244FF900B461246F3E4900B63B9
:1086E000F0900AA1F0900A39E0F8A3E0F9A3E0FACB
:1086F000A3E0FB900B46E0FCA3E0FDA3E0FEA3E0BB
:10870000FF12458A900B4EEFF0900A39E0F8A3E093
:10871000F9A3E0FAA3E0FB900B46E0FCA3E0FDA385
:10872000E0FEA3E0FF12458AAC00AD01AE02AF034C
:10873000900B4A1246F3900B4AE0FCA3E0FDA3E045
:10874000FEA3E0FFE41243B8900A451246F3900AF4
:1087500045E0FCA3E0FDA3E0FEA3E0FF7BF07AFF91
:10876000797F7849124212900A451246F3900A45E1
:10877000E0FCA3E0FDA3E0FEA3E0FFC004C005C051
:1087800006C007900A39E0FCA3E0FDA3E0FEA3E0E9
:10879000FFE41243B8A804A905AA06AB07D007D086
:1087A00006D005D00412431B900A451246F3900AE6
:1087B00045E0FCA3E0FDA3E0FEA3E0FF1243F6903A
:1087C0000B4F1246F37FFF7EFF7D0F7C00900B5313
:1087D0001246F3E4900B65F0A3E004F00288C29027
:1087E0000B63E07011A3E0700D7D807F10127AB7EB
:1087F000900B647401F0900B4FE0FCA3E0FDA3E04C
:10880000FEA3E0FF900A501246F3900B53E0FCA346
:10881000E0FDA3E0FEA3E0FF900A541246F3900BA4
:108820004EE0FD7F1A1277B9EF600201C2900B662D
:10883000E004F001C2900B63E06008900B66E00476
:10884000F0807F900B57E0FCA3E0FDA3E0FEA3E0E7
:10885000FF900A4F1246F3E4900A53F07F2A127BEE
:10886000CFEF705E900B66E004F08056900AA1E0B6
:1088700070157DA07FB1127AB7900AA17401F090B3
:108880000B657406F08005E4900B65F0900B57E0E3
:10889000FCA3E0FDA3E0FEA3E0FF900B5F1246F314
:1088A000900B667405F0801A900B65E0600414F07C
:1088B00080107D4F7F10127AB7E4900B64F0900B1C
:1088C00066F0900B66E0FF22900A321246F3900A9F
:1088D000367401F0E4FFFEFDFC900A6FE0F8A3E0BF
:1088E000F9A3E0FAA3E0FBC312464D7017900A32D9
:1088F000E0FCA3E0FDA3E0FEA3E0FF900A6F1246B8
:10890000F37F0022900A6FE0FCA3E0FDA3E0FEA34A
:10891000E0FFFBAA06A905A804900A32E0FCA3E048
:10892000FDA3E0FEA3E0C39BFFEE9AFEED99FDECF4
:1089300098FC124D71900A371246F37F807E847D39
:108940001E7C00900A37E0F8A3E0F9A3E0FAA3E068
:10895000FBC312464D4007E4900A36F08079E47B71
:10896000E87A03F9F8900A32E0FCA3E0FDA3E0FE08
:10897000A3E0FF12458AE47B107A27F9F81244FF3E
:10898000E47BE87A03F9F812458A900A3B1246F331
:10899000900A3BE0A3E0A3E0FEA3E0C394F4EE94CE
:1089A00001500DE47FF47E01FDFC900A3B1246F37A
:1089B000900A3BE0FCA3E0FDA3E0FEA3E0FF900AE9
:1089C00037E0F8A3E0F9A3E0FAA3E0FBD312464DA9
:1089D0004005E4900A36F0900A32E0FCA3E0FDA3E3
:1089E000E0FEA3E0FF900A6F1246F3900A36E0FF24
:1089F00022900A3CEDF0900A3BEFF0900A3E74039F
:108A0000F0EF2410FF7B017A0A793D127E94EF701B
:108A100070900A3CE014601D14602F146041240320
:108A20007050900A3DE0FFA3E0F4FEEF5E900A3D37
:108A3000F0E0F0803D900A3DE0FFA3E0F4FEEF5E41
:108A4000900A3DF0E04401F08028900A3DE0FFA349
:108A5000E0F4FEEF5E900A3DF0E04402F0801390F7
:108A60000A3DE0FFA3E0F4FEEF5E900A3DF0E04433
:108A700003F0900A3BE02410FF900A3DE0FD127ADB
:108A8000B722900A3CEDF0900A3BEFF0E4900A3EEA
:108A9000F0EFC394004011900A3BE0D394035008D8
:108AA000900A3E7418F08016900A3BE0FFC39400D1
:108AB000400CEFD394035006900A3E7419F0900ACC
:108AC0003EE0FF7B017A0A793D127E94900A3BE0FA
:108AD000FFC39400403AEFD394035034900A3DE032
:108AE000FF900A3BE025E0FE7403A806088002C35D
:108AF00033D8FCF45F900A3DF0E0FF900A3CE0FDC3
:108B0000A806088002C333D8FC4F900A3DF0804489
:108B1000900A3BE0FFC39400403AEFD394035034F3
:108B2000900A3DE0FF900A3BE024FC25E0FE740340
:108B3000A806088002C333D8FCF45F900A3DF0E039
:108B4000FF900A3CE0FDA806088002C333D8FC4F22
:108B5000900A3DF0900A3EE0FF900A3DE0FD027A67
:108B6000B7E4900A35F0A3F071E8E47F64FEFDFC01
:108B7000125B3D7B007A808B828A83E0900A96F0BC
:108B80008B828A83A3E0900A7FF08B828A83A3A3DF
:108B9000A3E0900A35F0EB2404F582E43AF583E093
:108BA000900A36F0900A35E0B40112900A96E0FF80
:108BB0003395E0FE7CFF7DFF1244A2EFF0900A3671
:108BC000E0B40112900A7FE0FF3395E0FE7CFF7D68
:108BD000FF1244A2EFF0AE02AF038F828E83A3A3F5
:108BE000E0900CE8F0E4F022911A124CC09043A0FF
:108BF000E04408F09043B0E04408F090470174C8A6
:108C0000F09043ACE04410F09043BCE04410F0908E
:108C10004700E0542060F8024CA89130900A37EFEA
:108C2000F07007917D900A37EFF0900A37E0FF224D
:108C300091DAB119EF703A12CD83900A38EFF064EF
:108C400007702A904722E0540270087F01FE124C00
:108C50003C80F0904722E054026009E0FF13135477
:108C60003FFF80027FFFEF7004900A38F091CF80C1
:108C700006900A387404F0900A38E0FF2291DA90E6
:108C80000A3874FFF0B119EF70397F01B1EDEF646C
:108C900007702C7B017A0C79DD7D0212CC5CEFB47D
:108CA0000215E4900A38F0904722E0540270107FD9
:108CB00001FE124C3C80F0904722E0540260D491B7
:108CC000CF8006900A387404F0900A38E0FF221230
:108CD0004CC0E4900CFDF0024CA8124CC09043A094
:108CE000E04408F09043B0E04408F0024CA8900A39
:108CF0002F74FFF091DAB119EF70127F01B1EDEF2F
:108D0000B40706900A2F7407F091CF8006900A2FBF
:108D10007404F0900A2FE0FF22900A3D7404F012D0
:108D20004CC0900CFDE0700704F0E4900A3DF01296
:108D30004CA8900A3DE0FF22900A38EBF0A3EAF03D
:108D4000A3E9F0A3EDF091DA900A3BE0C3948040F0
:108D500002A1E1B119EF6002A1D9900A3C74FFF0C1
:108D6000900A38E0FBA3E0FAA3E0F9900A41E4F0AE
:108D7000A37410F07F4012CCBCEF64077069904779
:108D800022E0540260F8904722E054026009E0FFBC
:108D90001313543FFF80027FFFEF7004900A3CF0F2
:108DA000900A3CE0702B900A3BE0FD7C00900CDDCB
:108DB000E0FBA3E0900A41F07F4012CD2FEFB40713
:108DC00008900A3C7407F0801E900A3C74FFF08003
:108DD00016900A3C74FFF0800E900A3C7404F080F8
:108DE00006900A3C7401F0900A3CE0FF227E079056
:108DF0004722E05402601F90472074B6F074E1F0FF
:108E0000740EF0904722E054027007904720EFF074
:108E100080067E0980027E04AF062291DA90472206
:108E2000E054026023E054026009E0FF1313543F52
:108E3000FF80027FFFEF7006900A38F08006900AEC
:108E40003874FFF091CF8006900A387407F0900ACA
:108E500038E0FF22900A2FEBF0A3EAF0A3E9F090AC
:108E60004722E054026002C1F9E0FF1313543F604F
:108E700002C1F1E05401602C904720E0900A32F0EA
:108E8000904722E054016003D38001C340097F0171
:108E90007E00124C3C80E9904720E0900A33F0E4D9
:108EA000A3F08006900A347407F0900A34E0704F03
:108EB000900A32E0B40116A3E0FF900A2FE0FBA372
:108EC000E0FAA3E0F9E48FF01244E0801D900A3349
:108ED000E0FFC3E49FFFE49400F9900A2FE0FBA3B6
:108EE000E0FAA3E0C98FF01244E0E4900A34F08085
:108EF0000E900A347407F08006900A347410F090D3
:108F00000A34E06407600291CF900A34E0FF22E463
:108F1000900A33F0900A36F0A3F0900A347480F08F
:108F2000A3E4F0D11B900A33EFF0E064077002E194
:108F3000D6900A367405F0900A36E0FFC3941050BC
:108F40001474882FF582E4340CF583E4F0900A362B
:108F5000E004F080E2900A96E0C364809480501AA6
:108F6000E0FF3395E0FE7CFF7DFF1244A2900C8869
:108F7000EFF0900C8B7401F0800D900A96E0900C4D
:108F800088F0E4900C8BF0900A7FE0C364809480BA
:108F9000501AE0FF3395E0FE7CFF7DFF1244A29063
:108FA0000C89EFF0900C8C7401F0800D900A7FE03A
:108FB000900C89F0E4900C8CF0900CE8E0900C8A16
:108FC000F07B017A0C7988E4FDB138E49009FEF079
:108FD0009009A57402F0900A33E0FF7E0022E4902D
:108FE0000A30F0A3F0A3F0900A2E7480F0A3E4F00E
:108FF000900A96E0900A31F0900A7FE0900A32F0F1
:109000009009FEE0B40323900ABDE0900A31F0908D
:109010000AA0E0900A32F0900A31E0900A96F090AF
:109020000A32E0900A7FF0128F0F22900A98E0FC3B
:10903000A3E0FDA3E0FEA3E0FF900CDFE0F8A3E0D7
:10904000F9A3E0FAA3E0FBC312464D7002A1899098
:109050000A98E0FCA3E0FDA3E0FEA3E0FF900CDF94
:109060001246F37FC07E3B7D477C03900CDFE0F827
:10907000A3E0F9A3E0FAA3E0FBD312464D40089029
:109080000CA1740CF041187FC07E057DD97C019045
:109090000CDFE0F8A3E0F9A3E0FAA3E0FBD312466B
:1090A0004D4008900CA1740BF041187F807EBA7D72
:1090B0008C7C01900CDFE0F8A3E0F9A3E0FAA3E0D8
:1090C000FBD312464D4008900CA1740AF041187F62
:1090D000807EB17D4F7C01900CDFE0F8A3E0F9A326
:1090E000E0FAA3E0FBD312464D4008900CA17409AE
:1090F000F041187FC07EEA7D217C01900CDFE0F812
:10910000A3E0F9A3E0FAA3E0FBD312464D40089098
:109110000CA17408F041187F007E247DF47C00903F
:109120000CDFE0F8A3E0F9A3E0FAA3E0FBD31246DA
:109130004D4008900CA17407F041187F007E1B7D04
:10914000B77C00900CDFE0F8A3E0F9A3E0FAA3E01D
:10915000FBD312464D4008900CA17406F041187FD5
:10916000407E547D897C00900CDFE0F8A3E0F9A3F9
:10917000E0FAA3E0FBD312464D4008900CA1740521
:10918000F041187F807E8D7D5B7C00900CDFE0F8E5
:10919000A3E0F9A3E0FAA3E0FBD312464D40089008
:1091A0000CA17404F080717F407E4B7D4C7C00905C
:1091B0000CDFE0F8A3E0F9A3E0FAA3E0FBD312464A
:1091C0004D4008900CA17403F0804D7FC07EC67D99
:1091D0002D7C00900CDFE0F8A3E0F9A3E0FAA3E017
:1091E000FBD312464D4008900CA17402F080297FF9
:1091F000607EE37D167C00900CDFE0F8A3E0F9A32D
:10920000E0FAA3E0FBD312464D4008900CA1740194
:10921000F08005E4900CA1F07F007E367D6E7C012D
:10922000900CDFE0F8A3E0F9A3E0FAA3E0FBD3128F
:10923000464D4006E4FFB18C41C67FC07EE17DE42F
:109240007C00900CDFE0F8A3E0F9A3E0FAA3E0FBD8
:10925000D312464D40067F01B18C806A7F407E5418
:109260007D897C00900CDFE0F8A3E0F9A3E0FAA38D
:10927000E0FBD312464D40067F02B18C80487FC090
:109280007E307D467C00900CDFE0F8A3E0F9A3E09F
:10929000FAA3E0FBD312464D40067F03B18C802633
:1092A0007F807EB97D2A7C00900CDFE0F8A3E0F996
:1092B000A3E0FAA3E0FBD312464D40067F04B18C35
:1092C00080047F05B18C900CEB7401F07F207E2927
:1092D0007D1B7C00900CDFE0F8A3E0F9A3E0FAA38B
:1092E000E0FBC312464D40247F907EAB7D1E7C0088
:1092F000900CDFE0F8A3E0A3E0A3E0D312464D50CA
:109300000BE49009F7F0900CEBF0A15C7FC07E19A4
:109310007D357C00900CDFE0F8A3E0F9A3E0FAA330
:10932000E0FBC312464D40267F107E307D3D7C0021
:10933000900CDFE0F8A3E0A3E0A3E0D312464D5089
:109340000D9009F77401F0E4900CEBF0A15C7F2420
:109350007E087D517C00900CDFE0F8A3E0F9A3E0EB
:10936000FAA3E0FBC312464D40267F7C7E9A7D52D5
:109370007C00900CDFE0F8A3E0A3E0A3E0D312466A
:109380004D500D9009F77402F0E4900CEBF0A15CE5
:109390007FA07E817D6A7C00900CDFE0F8A3E0F97D
:1093A000A3E0FAA3E0FBC312464D40267FB07E8ABD
:1093B0007D6F7C00900CDFE0F8A3E0A3E0A3E0D396
:1093C00012464D500D9009F77403F0E4900CEBF049
:1093D000A15C7F007ECF7D997C00900CDFE0F8A33C
:1093E000E0F9A3E0FAA3E0FBC312464D40267F80DC
:1093F0007E077D9B7C00900CDFE0F8A3E0A3E0A358
:10940000E0D312464D500D9009F77404F0E4900C2F
:10941000EBF0A15C7F007E647D137C01900CDFE0AB
:10942000F8A3E0F9A3E0FAA3E0FBC312464D4026FF
:109430007F907E407D157C01900CDFE0F8A3E0A3D7
:10944000E0A3E0D312464D500D9009F77406F0E406
:10945000900CEBF0A15C7F607E517DD57C00900C80
:10946000DFE0F8A3E0F9A3E0FAA3E0FBC312464D66
:1094700040267FC07E1D7DDB7C00900CDFE0F8A3E2
:10948000E0A3E0A3E0D312464D500D9009F7740518
:10949000F0E4900CEBF0A15C7F207E217D407C010C
:1094A000900CDFE0F8A3E0F9A3E0FAA3E0FBC3121D
:1094B000464D40267F207E747D477C01900CDFE086
:1094C000F8A3E0A3E0A3E0D312464D500D9009F7B6
:1094D0007407F0E4900CEBF0A15C7F707E7C7D7BE8
:1094E0007C01900CDFE0F8A3E0F9A3E0FAA3E0FB35
:1094F000C312464D40267F407E787D7D7C01900CD6
:10950000DFE0F8A3E0A3E0A3E0D312464D500D90B6
:1095100009F77408F0E4900CEBF080407FE07EF0F7
:109520007DAA7C01900CDFE0F8A3E0F9A3E0FAA3A8
:10953000E0FBC312464D40247FB07E567DC57C01C2
:10954000900CDFE0F8A3E0A3E0A3E0D312464D5077
:109550000B9009F77409F0E4900CEBF07FE07EF0DB
:109560007DAA7C01900CDFE0F8A3E0F9A3E0FAA368
:10957000E0FBC312464D4011900A01E0600B9009D8
:10958000F77409F0E4900CEBF07F0022906576EF21
:10959000F02290FFFC1247311246F390FFF612477B
:1095A000317B01900006124755A982AA8385088362
:1095B000850982EBF0A3EAF0A3E9F07B0190000AB1
:1095C000124755A982AA83900003124755EBF0A3D6
:1095D000EAF0A3E9F0900003124755E0FBA3E0FA9C
:1095E000A3E02403F9E43AFA124477FF850883855F
:1095F0000982E0FBA3E0FAA3E0F9EF1244909000A7
:1096000003124755E0FBA3E0FAA3E02402F9E43A91
:10961000FA124477FF850883850982E0FBA3E0FA0C
:10962000A3E02401F9E43AFAEF1244909000031207
:109630004755E0FBA3E0FAA3E02401F9E43AFA126B
:109640004477FF850883850982E0FBA3E0FAA3E065
:109650002402F9E43AFAEF124490900003124755BD
:10966000E0FBA3E0FAA3E0F9124477FF85088385C5
:109670000982E0FBA3E0FAA3E02403F9E43AFAEF5D
:10968000124490900006124755E0FCA3E0FDA3E0D1
:10969000FEA3E0FF90000E024731E4FF900CECE0E7
:1096A00060037410FF90099CE0FE30E004EF44205A
:1096B000FFEE30E104EF4402FF22E4900A0CF09048
:1096C0006000E0900A0DF0906001E0900A0EF090CA
:1096D0000A0DE05480648060030299E9A3E0124718
:1096E0000B971500973F02991406985C2099343324
:1096F000977E3A97A43C97D73D98013F9821509880
:109700003551995B9499A395989BA498BAA598DD37
:10971000BF000099E9900C4974E7F0A37401F09040
:109720000918F0A3740CF0A37449F0900916E4F042
:10973000A37402F0129D6E900A0CEFF00299E9D129
:109740009A900C49EFF0E0FCA3E0FDA3E0FEA3E05B
:10975000FFEEEDEC4408FC900C491246F39009181A
:109760007401F0A3740CF0A37449F0900916E4F0AE
:10977000A304F0129D6E900A0CEFF00299E97A0AA8
:1097800079AD9009187401F0A3740AF0A374ADF0D8
:10979000900916E4F0A37404F0129D6E900A0CEF89
:1097A000F00299E97F707E3D7D0A7C07125FF89098
:1097B0000C491246F39009187401F0A3740CF0A33D
:1097C0007449F0900916E4F0A37404F0129D6E90B1
:1097D0000A0CEFF00299E97A0A79B190091874013C
:1097E000F0A3740AF0A374B1F0900916E4F0A37426
:1097F00004F0129D6E900A0CEFF0E4900C4DF021F5
:10980000E99009187401F0A3740AF0A374B7F090FA
:109810000916E4F0A37406F0B16E900A0CEFF02183
:10982000E9906002E030E008900CEC7401F08005F3
:10983000E4900CECF012969A900C49EFF090091815
:109840007401F0A3740CF0A37449F0900916E4F0CD
:10985000A304F0B16E900A0CEFF021E9906003E0F0
:109860006487600221E97B027A607904124D3DEF42
:1098700064014E600221E9900C49F07B01900918C7
:1098800004F0A3740CF0A37449F0900916E4F0A35B
:1098900004F0B16E900A0CEFF021E9900918740100
:1098A000F0A37409F0A3749CF0900916E4F0A304EB
:1098B000F0B16E900A0CEFF021E97A0979A29009D3
:1098C000187401F0A37409F0A374A2F0900916E4CF
:1098D000F0A304F0B16E900A0CEFF021E9900C8433
:1098E000E0FCA3E0FDA3E0FEA3E0FF129592900C44
:1098F000531246F39009187401F0A3740CF0A3748A
:1099000053F0900916E4F0A37404F0B16E900A0CC1
:10991000EFF021E99009187401F0A3740AF0A37420
:109920000FF0900916E4F0A37404F0B16E900A0CE5
:10993000EFF021E9900A96E0900C44F09009187439
:1099400001F0A3740CF0A37444F0900916E4F0A3A2
:1099500004F0B16E900A0CEFF021E9900A96E0FF56
:109960003395E0FEFDFC900C451246F3900C45E06B
:10997000FCA3E0FDA3E0FEA3E0FF129592900C4F44
:109980001246F39009187401F0A3740CF0A3744FFD
:10999000F0900916E4F0A37402F0B16E900A0CEF97
:1099A000F08046900A7FE0FF3395E0FEFDFC900CCE
:1099B000451246F3900C45E0FCA3E0FDA3E0FEA3B6
:1099C000E0FF129592900C4F1246F3900918740123
:1099D000F0A3740CF0A3744FF0900916E4F0A37494
:1099E00002F0B16E900A0CEFF0900A0DE054806026
:1099F00002A131A3E012470B9A3E309A5E329A825E
:109A0000339AF8359ABD3A9B97709C17719BB67242
:109A10009C36739C55759C74769C93779BD57A9CE9
:109A2000B27B9CF07D9CD17F9BF4909D0F9C9B1BF7
:109A3000A09B3AA99B59F39B78F700009D319009B0
:109A4000187401F0A3740AF0A3748CF0900916E462
:109A5000F0A37406F0B137900A0CEFF0A1317A0A46
:109A600079AD9009187401F0A3740AF0A374ADF0F5
:109A7000900916E4F0A37404F0B137900A0CEFF0EB
:109A8000A1317A0A79BD9009187401F0A3740AF023
:109A9000A374BDF0900916E4F0A304F0B137900A66
:109AA0000CEFF0900ABDE0FF3395E0FEFDFC900C5A
:109AB000401246F39009FEE04401F0A1317A0A79A0
:109AC000A09009187401F0A3740AF0A374A0F09098
:109AD0000916E4F0A304F0B137900A0CEFF0900AF5
:109AE000A0E0FF3395E0FEFDFC900C3C1246F390A5
:109AF00009FEE04402F0A1317A0A79C6900918748F
:109B000001F0A3740AF0A374C6F0900916E4F0A360
:109B100004F0B137900A0CEFF0A1319009187401EC
:109B2000F0A3740CF0A3744DF0900916E4F0A304B4
:109B3000F0B137900A0CEFF0A1319009187401F0E0
:109B4000A3740AF0A37401F0900916E4F0A304F0E2
:109B5000B137900A0CEFF0A1319009187401F0A30D
:109B60007409F0A374FAF0900916E4F0A304F0B1BC
:109B700037900A0CEFF0A1319009187401F0A3742A
:109B800009F0A374F8F0900916E4F0A304F0B137DB
:109B9000900A0CEFF0A1319009187401F0A3740A37
:109BA000F0A37402F0900916E4F0A304F0B137902A
:109BB0000A0CEFF0A1319009187401F0A37409F0B8
:109BC000A3749FF0900916E4F0A304F0B137900A53
:109BD0000CEFF0A1319009187401F0A37409F0A3FF
