:100000000204AE008F828E83E0540100000070F87D
:100010002278FFE4F6D8FD020513BB010689828A27
:1000200083E0225002E722BBFE02E32289828A8318
:10003000E49322BB010689828A83F0225002F722D0
:10004000BBFE01F322C5F0F8A3E028F0C5F0F8E507
:1000500082158270021583E038F022BB010A898282
:100060008A83E0F5F0A3E022500687F009E7192221
:10007000BBFE07E3F5F009E3192289828A83E49342
:10008000F5F074019322BB010A89828A83F0E5F0BE
:10009000A3F0225006F709A7F01922BBFE06F3E5EC
:1000A000F009F31922EF2BFFEE3AFEED39FDEC38A3
:1000B000FC22C3EF9BFFEE9AFEED99FDEC98FC222B
:1000C000E88FF0A4CC8BF0A42CFCE98EF0A42CFCDF
:1000D0008AF0EDA42CFCEA8EF0A4CDA8F08BF0A45D
:1000E0002DCC3825F0FDE98FF0A42CCD35F0FCEBBC
:1000F0008EF0A4FEA9F0EB8FF0A4CFC5F02ECD3981
:10010000FEE43CFCEAA42DCE35F0FDE43CFC227577
:10011000F008758200EF2FFFEE33FECD33CDCC33E8
:10012000CCC58233C5829BED9AEC99E58298400C50
:10013000F582EE9BFEED9AFDEC99FC0FD5F0D6E42E
:10014000CEFBE4CDFAE4CCF9A88222B800C1B90014
:1001500059BA002DEC8BF084CFCECDFCE5F0CBF975
:100160007818EF2FFFEE33FEED33FDEC33FCEB336D
:10017000FB10D703994004EB99FB0FD8E5E4F9FA9B
:10018000227818EF2FFFEE33FEED33FDEC33FCC980
:1001900033C910D7059BE99A4007EC9BFCE99AF913
:1001A0000FD8E0E4C9FAE4CCFB2275F010EF2FFF82
:1001B000EE33FEED33FDCC33CCC833C810D7079BEC
:1001C000EC9AE899400AED9BFDEC9AFCE899F80F4F
:1001D000D5F0DAE4CDFBE4CCFAE4C8F922EF4BFF2A
:1001E000EE4AFEED49FDEC48FC22C3E49FFFE49E8D
:1001F000FEE49DFDE49CFC22EB9FF5F0EA9E42F0BC
:10020000E99D42F0E89C45F022E8600FECC313FC46
:10021000ED13FDEE13FEEF13FFD8F122E8600FEFB0
:10022000C333FFEE33FEED33FDEC33FCD8F122BBDC
:10023000010789828A830202695005E9F802046C89
:10024000BBFE05E9F802047889828A83020275BB45
:10025000010789828A830202915005E9F802048429
:10026000BBFE05E9F802049022E0FCA3E0FDA3E058
:10027000FEA3E0FF22E493FC740193FD740293FE5D
:10028000740393FF22E0F8A3E0F9A3E0FAA3E0FBF4
:1002900022ECF0A3EDF0A3EEF0A3EFF022A4258270
:1002A000F582E5F03583F58322E0FBA3E0FAA3E0D5
:1002B000F922EBF0A3EAF0A3E9F022E493FB740146
:1002C00093FA740293F922BB010789828A8302029E
:1002D000A95005E9F802049CBBFE05E9F80204A553
:1002E00089828A830202BBD083D082F8E4937012A1
:1002F000740193700DA3A393F8740193F58288831E
:10030000E4737402936860EFA3A3A380DFE509257B
:1003100082F582E5083583F583B5080485820922D4
:1003200010AF06858209F50822858209F508D2AF4B
:1003300022EC8EF0A4CCC5F0CCCDF8EFA4CEC5F065
:100340002DFDE43CFCE8A42EC8C5F03DFDE43CFCDA
:10035000EFA4FFE5F028FEE43DFDE43CFC22EF4E77
:100360006012EF60010EEDBB010B89828A83F0A35E
:10037000DFFCDEFA2289F05007F709DFFCA9F02242
:10038000BBFEFCF309DFFCA9F022E709F608DFFA5F
:100390008046E709F208DFFA803E88828C83E7090D
:1003A000F0A3DFFA8032E309F608DFFA806EE30992
:1003B000F208DFFA806688828C83E309F0A3DFFA13
:1003C000805A89828A83E0A3F608DFFA804E898208
:1003D0008A83E0A3F208DFFA804280D280FA80C6E6
:1003E00080D4805580F28029801080A680EA809A8F
:1003F00080A880DA80E280CA802988848C858982FE
:100400008A83E493A30586F0A30586DFF5DEF380F7
:100410000B89828A83E493A3F608DFF9ECFAA9F04A
:10042000EDFB2288848C8589828A83E0A30586F08F
:10043000A30586DFF6DEF480E389828A83E493A352
:10044000F208DFF980D688F0EF60010E4E60CD88AB
:10045000F0ED2402B4040050C3F582EB2402B4048E
:100460000050B923234582239003DA73E6FC08E6A3
:10047000FD08E6FE08E6FF22E2FC08E2FD08E2FED7
:1004800008E2FF22ECF608EDF608EEF608EFF62299
:10049000ECF208EDF208EEF208EFF222E6FB08E6D5
:1004A000FA08E6F922E2FB08E2FA08E2F92275937B
:1004B0000078007583467582E8E04401F0009046BC
:1004C000ECE0F99046FAE0FA9003E0F0B903225428
:1004D00020B40012B8001AEA901FFFF07401901FB8
:1004E000FEF09046F6F0901FFEE06005901FFFE0E2
:1004F000FA90480074C0F07581591217F990000005
:1005000078007920E4F0A3D8FCD9FAEA9003E0F06F
:1005100002001175081F7509FD1225991214840235
:10052000055D020B10E493A3F8E493A34003F68067
:1005300001F208DFF48029E493A3F85407240CC8DF
:10054000C333C4540F4420C8834004F4568001468A
:10055000F6DFE4800B01020408102040809005A221
:10056000E47E019360BCA3FF543F30E509541FFEB5
:10057000E493A360010ECF54C025E060A840B8E426
:1005800093A3FAE493A3F8E493A3C8C582C8CAC5A9
:1005900083CAF0A3C8C582C8CAC583CADFE9DEE73B
:1005A00080BE4103E5004103E6004203F209D04268
:1005B00003F409D14103FD004403DC016E3600441D
:1005C00003D700005DC04103DB184403E12EE000C7
:1005D000004103FE004303ED0000004103FF004122
:1005E00004000000EC4D6011ED60010C8B938A83D8
:1005F0008982E4F0A3DDFCDCFA759300220221C7B6
:10060000EC4D4E700D78FCEF24E950032840FD229C
:1006100000007BF178DA0000EF28FF78FFEE38FE6B
:10062000ED38FDEC38FC50E7EF2BFFEE38FEED38EF
:10063000FDEC38FC40F22205020304758600EF4E03
:100640006027EF60010E759300900005E0F595A31B
:10065000E0F585A3E0F5848B938A838982E0A30586
:1006600086F0A31586DFF6DEF4E4F593F59522AC6B
:10067000EAADA08E838F82E493F9601CA3E493F526
:10068000EAA3E493F5A0A3E49360F1FAA3E493F85A
:0F069000A3E493F2DAF6D9E48DA08CEA22323299
:1006A000EEFA9003DBE0F88FF0A4FFAEF0E88AF0FA
:1006B000A42EFEE5F03400FDEF24C9FF78FFEE38EC
:1006C000FEED38FDE438FC5003020600227586007A
:1006D000EF4E601BEF60010E8C838D828B958A85B7
:1006E0008984E493A30586F0A31586DFF5DEF3E4A1
:1006F000F59522EF54016004D2AF8002C2AFEF54EF
:1007000002FF9044F4E054FD4FF0229044F4E0F8EE
:100710004402F0E85402FF10AF012274014FFF229F
:100720008B938A838982E0FFA3E0FE759300228B7E
:10073000938A838982EDF0A3ECF0759300229003F5
:10074000E0E0FA8E838F827400758101738B938A47
:10075000838982E0759300FF228B938A838982EDDF
:10076000F0759300221201000200000008B4041D7D
:10077000B701300203800109022900010100C00213
:1007800009040000020300000309211101000122F5
:100790002400070501034000010705820340000112
:1007A000040309040C0341004500390052004200D3
:1007B0002C03430079007000720065007300730021
:1007C0002000530065006D00690063006F006E003B
:1007D00064007500630074006F0072002203500013
:1007E00053006F0043003300200042006F006F0091
:1007F00074006C006F006100640065007200000A04
:10080000033000300030003100240005010900A150
:10081000000900A1000900150025FF750895409109
:10082000020900150025FF750895408102C0C0002F
:1008300000240005010900A1000900A1000900151C
:100840000025FF7508954091020900150025FF75E8
:100850000895408102C0C00000004101028E0102E3
:10086000D200410102D50102CF00FF085900FF0864
:10087000610000000001FF083101FF078901FF0846
:1008800069000001030040030000820300400303ED
:1008900001FF077702FF088101FF087D00FF088F35
:1008A00001FF07650000000001FF089001FF08A09C
:1008B00000010100010000004000000808000800DD
:1008C000C000006F0B0040000000004060006000AE
:1008D0000000170045017E02004F010A4B0052053F
:1008E00009400C20102011207C400064017D010192
:1008F0000501EE010109019C80010B039C80AA40C7
:10090000B401010C05B880BE41D804DB04DF01014D
:100910000D0618011A80588068028802D60801174F
:1009200001EE0A0119029C80EE0A011B01B0800150
:100930004004320433803640CC700141039608A64F
:1009400040A78001420A12805B0296089B02A640E3
:10095000A780AB02C410D640EE80014303A640A797
:1009600080AE8401450464048804D801E401014692
:1009700003A102B502EC0801470408080F40A102D8
:10098000C20C014803AE40AF80EE50014C070F404F
:100990006102A102AC08AF40C204D802014D02B30B
:1009A00040EA04015101003A004F00000C005100E0
:1009B0000010005130004001000010000114000838
:1009C000000140000A00014C00020001500000201C
:1009D00000FFFFFFFF6930091E033C010144E342B1
:1009E000830143009481424400C0E0C0F0C083C052
:1009F00082C085C084C086758600C093759300C090
:100A0000D075D000C000C001C002C003C004C00542
:100A1000C006C0079003E6E01460481460741470C8
:100A20000241C12403600241E19003EA1202A9904D
:100A300003E5E0FF04F0E92FF9E43AFA12001A9016
:100A400003E7F0E0FE5407A3F0EE70179003E5F023
:100A50009003E97402F09003E8E4F09003E6740375
:100A6000F0807E9003E7E0FF30E7089003E974032D
:100A7000F080069003E97401F0EF25E09003E7F0C1
:100A8000A3E014F0710AEF54FEFF71049003E674C2
:100A900002F09003E9E070219003E67403F0900304
:100AA000E8E07006A37402F080059003E9E4F071B9
:100AB0000AEF4401FF710480089003E9E014F0801C
:100AC000209003E9E070149003E8E070069003E6DC
:100AD000F0800E9003E67401F080069003E9E014C4
:100AE000F0D007D006D005D004D003D002D001D07A
:100AF00000D0D0D093D086D084D085D082D083D07F
:100B0000F0D0E03290647DEFF02290647DE0FF222F
:100B10007BFF7A0979DD9003EA1202B21222C1EF5B
:100B200030E01E12230EEF600E7BFF7A0979E4900D
:100B300003EA1202B2800AE4FF7156EF7003FF91DC
:100B4000DD7E097FE9B1ECB1C8D2AF9044F474FD09
:100B5000F0B14180FE228F46AD467F0312181AEF96
:100B60002401FFE43EFEE43DFDE43CFCE4FB7A01AD
:100B7000F9F81200C0C004C005C006C007AD467F2A
:100B80000412181AD003D002D001D0001200A58F91
:100B90004E8E4D8D4C8C4BC201E4F54FAD467F031C
:100BA00012181AEF2401FFE43EFEE43DFDE43CFC94
:100BB000E4FB7A01F9F81200C08F4A8E498D488C07
:100BC00047AF4EAE4DAD4CAC4BAB4AAA49A948A875
:100BD00047C31201F85032854A82854983E493F570
:100BE000506005F46002D201E550254FF54FAF4A41
:100BF000AE49AD48AC47E47B01FAF9F81200A58F85
:100C00004A8E498D488C4780B8AD467F0312181A2A
:100C1000EF2401FFE43EFEE43DFDE43CFCE4FB7A0E
:100C200001F9F81200C078031202098F4A8E498D2B
:100C3000488C47E47FC07EFFFDFCAB4EAA4DA94C1B
:100C4000A84BC31201F87007FF7E20FDFC800DAF9A
:100C50004EAE4DAD4CAC4B78031202098F4E8E4D0B
:100C60008D4C8C4BAF4EAE4DAD4CAC4BAB4AAA4904
:100C7000A948A847C31201F85039E4254AFFE435D2
:100C800049FEE5483408FDE43547A907AA06AB0547
:100C900012074DEF254FF54FAF4AAE49AD48AC476F
:100CA000E47B01FAF9F81200A58F4A8E498D488C31
:100CB0004780B1E54FF404F54FAD467F0112181A95
:100CC000A804A905AA06AB07AF4FE4FCFDFEC312BA
:100CD00001F870032001037F06227F00228F21E5A7
:100CE00021B402079046FAE4F0804EAF217156EF2E
:100CF0007042F522E522C394015031AF227E007C80
:100D0000017D00120331C374D09FFF74FF9EFE74F7
:100D1000109DFDE49CFCE522B521047B0180027B53
:100D200000900004EBF0D148052280C89046FA7488
:100D300080F080059046FAE4F09046F6E04401F039
:100D400022752106E4FF7156EF7002F521E4F54D9E
:100D5000F54CF54BF54A9003F4E0FEA3E0F5828EE6
:100D6000831202758F518E508D4F8C4EE4FFFE7DA5
:100D700010FC1217949003F2E0FCA3E0F5828C8340
:100D8000E493FEC3EF9EFFF404FFB506129003F454
:100D9000E0FEA3E0F5828E83120275EF4E70057FB0
:100DA0000012231D9046FAE054C064406004E5211F
:100DB00060099046FAE4F0FF121BB3E4FF121BB384
:100DC0009046FA7480F0A1399003FDE07008D10ECE
:100DD0009003FD7401F09043A3E04401F09043B30D
:100DE000E04401F0904F00E04401F022900000EE5A
:100DF000F0A3EFF01222DE900000E0FEA3E0FF126D
:100E000022C77F071222D49044C07404F022904F6E
:100E100000E05401F0904F02E054FCF0904F01E0EC
:100E20004401F0904F0BE054CFF0E04430F0E05438
:100E3000F0F0E0440FF07FF01223017FF01222E582
:100E4000E4FF904F03EFF022900000120291900017
:100E500000120269E42FFFE43EFEED34F0FDEC34B5
:100E6000FFFC900005120291E4FBFA7901F8900072
:100E70000512026912014B900109EFF09000051272
:100E80000269EFEEE4FDFCFB7A01F9F812014B90E8
:100E9000010AEEF0A3EFF0900000120269EFFBE40C
:100EA000FAF9F89000001202691200B290010C12D7
:100EB0000291E4FBC3EA9401502590010C120269EF
:100EC000EF2BFFEE3A8F82F583E493FF74092BF545
:100ED0008274003AF583EFF00BEB70010A80D59035
:100EE0000000120269EFE4FE74092FF582EE34006F
:100EF000F583E0FD900004E0FCED6C601F74092FA9
:100F0000F582EE3400F583ECF0900109E0FFA3E0F8
:100F1000FCA3E0FD7B017A007909F11D229001100C
:100F2000EFF0D3943F40067E007F1080047E017F67
:100F300000900111EEF0A3EFF0900111E0FFA3E0AB
:100F4000900265CFF0A3EFF0900110E0FF900260F7
:100F5000ECF0A3EDF0A31202B290025FEFF0E49088
:100F60000267F0EFD3943F500E90025FE09401408F
:100F7000069002677401F090025FE0FFD3947F4017
:100F8000069002677401F0EFC39440400CEFD394D5
:100F90004140069002677401F0EFD3943F501E90D9
:100FA0000260E0FEA3E0FFE4FCFDFB7A01F9F8C378
:100FB0001201F8502F9002677401F08027D390023D
:100FC00061E09480900260E09400400690026774B3
:100FD00001F0900265E07004A3E0641060069002E6
:100FE000677401F09002621202A9E94A4B70059001
:100FF000026704F0900267E060030210C712118BD1
:10100000EF600201C1900260E0FCA3E0FDA31202C8
:10101000A9900265E0FFA3E090026ECFF0A3EFF08D
:1010200090025FE0FF51B1900267EFF06407600249
:1010300001BD904722E0540270087F01FE1206A015
:1010400080F0904722E054026009E0FF1313543F00
:10105000FF80027FFFEF7006900267F0800690022B
:101060006774FFF0900267E0705390025FE0FFA3A7
:10107000E0FCA3E0FD9003F0E0FBA3E090026CF045
:101080005107900267EFF064077032904722E054F6
:101090000270087F01FE1206A080F0904722E05403
:1010A000026009E0FF1313543FFF80027FFFEF70DF
:1010B00006900267F0800690026774FFF011CD8001
:1010C000069002677404F0900267E0FF2212070B9B
:1010D000E4900400F00206F331AA318BEF7039314D
:1010E000BE900260EFF06407702A904722E054023D
:1010F00070087F01FE1206A080F0904722E05402A3
:101100006009E0FF1313543FFF80027FFFEF70047C
:10111000900260F011CD80069002607404F090029D
:1011200060E0FF2211D890025FEFF07007313A9033
:10113000025FEFF090025FE0FF2231AA900260743C
:10114000FFF0318BEF70387F0131D9EF6407702BDE
:101150007B017A0379F07D02515BEFB40215E490D4
:101160000260F0904722E0540270107F01FE1206E8
:10117000A080F0904722E0540260D511CD80069007
:1011800002607404F0900260E0FF22900268740430
:10119000F012070B900400E0700704F0E49002687E
:1011A000F01206F3900268E0FF2212070B9043A0B2
:1011B000E04408F09043B0E04408F00206F37F07F3
:1011C000904722E05402600E90472074B6F074E01D
:1011D000F0740DF080027F04227E07904722E054D5
:1011E00002601F90472074B6F074E1F0740EF09026
:1011F0004722E054027007904720EFF080067E09F6
:1012000080027E04AF0622900269ECF0A3EDF0AC00
:10121000077D07904722E05402603B90472074B658
:10122000F074D8F07405F0904722E05402702390D7
:101230004720ECF0900269E0904720F0900269E0CE
:10124000A3E0904720F0EBF090026CE0904720F094
:1012500080067D0980027D04AF05229002611202A2
:10126000B2900264EDF0E4A3F0900264E0FFA3E02A
:10127000C39F5037904722E054016003D38001C3DD
:1012800040097F017E001206A080E9904720E0FF20
:101290009002611202A9900265E029F9E43AFAEF9E
:1012A000120033900265E004F080BE900265E0FF1A
:1012B00022900268EFF0A3ECF0A3EDF0A31202B2CB
:1012C0009002707407F0904722E05402700261BDF2
:1012D00090472074B6F074D5F07402F0904722E085
:1012E0005402600261B5900268E0904720F0E490FB
:1012F0000271F0A3F090026EE0FEA3E0FF90027195
:10130000E0FCA3E0FDC39FEC9E501F90026B120215
:10131000A9E92DF9EA3CFA12001A904720F0900250
:1013200071E475F00112004580CB90026EE064011B
:101330007002A3E0600261C3900268E0FFD3943FB3
:10134000400261C37E007C207D00120331E42FFF48
:10135000E43EFEED3408FDE43CFCC004A905AA0609
:10136000AB07A3E0FEA3E0FF7C007D20120331D099
:10137000001200A5900273120291E4900271F0A392
:10138000F0900271E0FEA3E0FFC39420EE940050C1
:1013900032E4FCFDA31202851200A5A907AA06AB40
:1013A0000512074D904720EFF0900271E475F001AF
:1013B00012004580CC9002707409F0800690027093
:1013C0007404F0900270E0FF227B007A4079807D07
:1013D000BF7C5D12072F9040827419F09043007417
:1013E00006F07B007A4279127D177C3312072F902A
:1013F00042107405F0E0FFE47FC87E32FDFC9000EF
:1014000000120291900000120269D3EF9400EE9452
:10141000004029904210E054806021E47FE07E018A
:10142000FDFC12060090000012026974FFFBFAF93D
:10143000F81200A590000012029180C8904200743A
:1014400052F07B0C7A01790F12074D9046A1EFF014
:101450007B007A407904E4FDFC12072F904004746D
:1014600007F0904006E4F09040087448F090400483
:10147000E4F0904009F09040017402F09043A2E043
:101480004401F0227B007A4679E812074DEF4405CB
:10149000FD7B007A4679E8120759E4F523E523C37A
:1014A0009408502CE52375F005A424A8F582E434B3
:1014B00009AF82F5218F22F5831202BB8F8285212D
:1014C00083740393FC740493FD1205E4052380CD1B
:1014D0007E087FD212066F7B017A50790312074D86
:1014E000EF4402FD7B017A5079031207597B017AA0
:1014F00050791312074DEF4402FD7B017A507913A6
:101500001207599043A0E04440F09043C2E04410D9
:10151000F07C087DB07B007A5179C27F087E001292
:1015200006CD7C087DB87B007A5179F07F0A7E0079
:101530001206CD7C087DC27B007A5179127F087E2D
:10154000001206CD7C087DCA7B007A5179227F0883
:101550007E001206CD9044F47401F0904322E044E2
:1015600008F09046ECE0C394055006904689743A22
:10157000F090480074F1F071C990480074B1F0B176
:10158000A27B007A4379A0C00179B09000051202D5
:10159000B2D0017F0E7E0012063B9043B0E054FDB6
:1015A000F0227B0C7A0179CF12074DEF5407905847
:1015B0006EF0EFC4540FA3F09058767444F0228B71
:1015C0004E8A4F89508C518D5274FFF553F55485D6
:1015D0005157855258E552455170086354FF635383
:1015E000FFC16BC3E5589552FFE5579551FEAB4ED1
:1015F000E5502FF9E54F3EFA12001A755500F556E1
:10160000E4FDEDC39408503DE5565401FFE5545404
:1016100001FBE4EB6F6015E553C313FEE55413FFC4
:10162000EE6484F553EF6408F554800BE553C3135F
:10163000F553E55413F554E555C313F555E5561325
:10164000F5560D80BDE552155270021551E5524513
:101650005170906354FF6353FF855355855456E58D
:1016600054FCE555FFECF553EFF554AE53AF54225F
:101670008B478A4889497401120033AB472549F9E1
:10168000E43548FAEF120033E54BAB47E549240255
:10169000F9E43548FAE54B120033E54AFFAB47E57C
:1016A000492403F9E43548FAEF120033AB47AA485E
:1016B000A949E54B2404FDE4354AFCB1BF8E4C8FAB
:1016C0004DEFAB47E54B2404FDE4354AFCE5492DDD
:1016D000F9E5483CFAEF120033E54CFFAB47E54B28
:1016E0002405FDE4354AFCE5492DF9E5483CFAEFCF
:1016F000120033AB47E54B2406FFE4354AFEE549CB
:101700002FF9E5483EFA7417120033E54B2407FD24
:10171000E4354AFC75530075540075554A75569664
:10172000AB47AA48A9498C518D52E55675F00AA4D9
:1017300085F058F559900263E4F0A37440F07F02FD
:101740001227F97F02F183EF7019E55945586013AC
:10175000E47F01FEFDFC122331E559155970021595
:101760005880E07F02F183EF70057557108011AB50
:1017700053AA54A955E5518552F0120086E4F55755
:10178000AF5722EF75F00BA42431F582E43403F552
:1017900083E0FF228F498E488D478C46E4F552D373
:1017A000E5519400E5509400404CAF51AE50AD4F20
:1017B000AC4E74FFFBFAF9F81200A58F518E508DD4
:1017C0004F8C4EE549254DFFE548354CFEE5473544
:1017D0004BFDE546354AFCEF2551FFEE3550FEED59
:1017E000354FFDEC354EA907AA06AB0512074DEFA4
:1017F0002552F55280A9AF52229046FAE054C064B7
:10180000807016F521F0AD217F02111AEF4E6009AC
:10181000AD217F02111A12073E2290025FEDF0AB5C
:10182000079002647402F0E4FFFEFDFCA312029133
:10183000EB1202E7185C0118880218AC0318D004F8
:1018400018F405191E06196C07194808199009198A
:10185000B40A19DE0B1A080C00001A3290025FE07D
:10186000FF7E007C017D001203311201EAEF24C0EB
:10187000FFEE34FFFEED3410FDE43CFCA3120291B8
:101880009002647401F0413D90025FE0FF7E007CB5
:10189000017D00120331C374C39FFF74FF9EFE7469
:1018A000109DFDE49CFCA3120291413D90025FE07B
:1018B000FF7E007C017D00120331C374C79FFF745B
:1018C000FF9EFE74109DFDE49CFCA3120291413D1D
:1018D00090025FE0FF7E007C017D00120331C37443
:1018E000CB9FFF74FF9EFE74109DFDE49CFCA31231
:1018F0000291413D90025FE0FF7E007C017D00127D
:101900000331C374D09FFF74FF9EFE74109DFDE4ED
:101910009CFCA31202919002647401F0413D90027C
:101920005FE0FF7E007C017D00120331C374D19F14
:10193000FF74FF9EFE74109DFDE49CFCA3120291B7
:101940009002647401F0413D90025FE0FF7E007CF4
:10195000017D00120331C374D69FFF74FF9EFE7495
:10196000109DFDE49CFCA3120291413D90025FE0BA
:10197000FF7E007C017D00120331C374D29FFF748F
:10198000FF9EFE74109DFDE49CFCA3120291413D5C
:1019900090025FE0FF7E007C017D00120331C37482
:1019A000D49FFF74FF9EFE74109DFDE49CFCA31267
:1019B0000291413D90025FE0FF7E007C017D0012BC
:1019C0000331C374D89FFF74FF9EFE74109DFDE425
:1019D0009CFCA31202919002647404F0805F900258
:1019E0005FE0FF7E007C017D00120331C374DC9F49
:1019F000FF74FF9EFE74109DFDE49CFCA3120291F7
:101A00009002647401F0803590025FE0FF7E007CFC
:101A1000017D00120331C374E09FFF74FF9EFE74CA
:101A2000109DFDE49CFCA31202919002647404F0EA
:101A3000800BE4FFFEFDFC900260120291900264B4
:101A4000E0B40119900260120269A907AA06AB0569
:101A500012074DE4FCFDFE900265120291900264B3
:101A6000E06402705C900260120269EF2401FFE4FE
:101A70003EFEE43DFDE43CA907AA06AB0512074D76
:101A8000E4FCFDFE9002651202919002651202854F
:101A9000C000C001C002C003900260120269A90721
:101AA000AA06AB0512074DE4FCFDFE780812021CE5
:101AB000D003D002D001D0001201DD9002651202E5
:101AC00091900264E06404600261AD9002601202D1
:101AD00069EF2403FFE43EFEE43DFDE43CA907AAD0
:101AE00006AB0512074DE4FCFDFE90026512029163
:101AF000900265120285C000C001C002C0039002BE
:101B000060120269EF2402FFE43EFEE43DFDE43C86
:101B1000A907AA06AB0512074DE4FCFDFE780812E2
:101B2000021CD003D002D001D0001201DD9002656A
:101B3000120291900265120285C000C001C002C06D
:101B400003900260120269EF2401FFE43EFEE43DCF
:101B5000FDE43CA907AA06AB0512074DE4FCFDFE17
:101B6000781012021CD003D002D001D0001201DD87
:101B7000900265120291900265120285C000C001B8
:101B8000C002C003900260120269A907AA06AB0551
:101B900012074DE4FCFDFE781812021CD003D0029F
:101BA000D001D0001201DD90026512029190026511
:101BB000020269900000EFF0E4F541F54275430A36
:101BC000C200F544F545121124EF60057F00122391
:101BD0001D1227ADD2AF9044F474FDF0E4F53D75CD
:101BE0004B00754C00754D39900000E0FF70067E8B
:101BF000FF7FFF80008F4E7B017A0079017D2C7C76
:101C0000011223958F40900000E060021543E543E8
:101C10006004E54070C9E54060030221B7C3E53ABE
:101C20009407E53994004008900001E064016005E4
:101C3000753D0481BB900004E0FE900003E0FDEEE2
:101C4000F541EDF542E5422407FFE43541FED3EFCF
:101C5000953AEE95395008EF942CEE9401400575B5
:101C60003D03805774062542F58274003541F583A3
:101C7000E0FE74052542F58274003541F583E0FDF0
:101C8000EEF53EEDF53F74072542F58274003541CF
:101C9000F583E064176005753D04801F7B017A00C1
:101CA0007901E5422404FDE43541FC1215BFEF65DE
:101CB0003F7003EE653E6003753D08E4F53BF53C7F
:101CC000E53D60030221A6900005E0F538753D046E
:101CD000900002E01202E71CF6311D23321DA934E8
:101CE0001F4A351F58371FA4381DA9391FE63A214E
:101CF0008D3B000021A32000030221A6E5424541BF
:101D000060030221A6FF120B56EF70047F018002D0
:101D10007F00900005EFF0753B00753C01E4F53D58
:101D20000221A62000030221A6E54264014541608C
:101D3000030221A6E538C3940140030221A69003C3
:101D4000F4E0FEA3E0F5828E83120275E4FBFA79DB
:101D500001F812014B8F24E538B5241E9003F4E0FE
:101D6000FEA3E0F5828E83120275E4FB7A01F9F896
:101D700012014B7522008F238014E538D39524403F
:101D800007E4F522F5238006752201752300E5237B
:101D9000900005F0E522A3F0A374FFF0E4A3F0F5B2
:101DA0003B753C04F53D0221A6900002E0643470CE
:101DB0003C2000030221A6E5426403454160030282
:101DC00021A6E538C39440400FE538D3947F5008EE
:101DD0007544007545108006754401754520AE4474
:101DE000AF457D007B017A01792D12035E2000034F
:101DF0000221A6C3E5429403E54194005003022169
:101E0000A6E54224FDFFE54134FFFE742D2545F98A
:101E100074013544A801FC7D017B017A0079081228
:101E20000446E54224FDFFE54134FFFEEF2545F57C
:101E300045EE3544F544E538C39440401BE538D3BE
:101E4000947F501412222E75410075421090025951
:101E5000E4F0A37480F0800F754101754220900278
:101E6000597401F0A3E4F0E54565427004E544656A
:101E7000416002E13F900007E0FE900006E0FDEEC9
:101E8000F544EDF545D390025AE09545900259E0AE
:101E9000954440047F0080027F0A8F3DE53D60034A
:101EA0000221A6E538D3943F506FE5387F00FEEF5E
:101EB0002545FFE5443E90025BF0A3EFF09003F46C
:101EC000E0FEA3E0F5828E83120275E4FB7A01F94D
:101ED000F812014B90025DEEF0A3EFF09003F4E0F6
:101EE000FEA3E0F5828E83120275EFE4EF600A90A4
:101EF000025DE475F00112004590025DE0FEA3E092
:101F0000FFC390025CE09F90025BE09E500B753D2A
:101F10000AE4F544F5450221A67B017A01792D906A
:101F20000265E541F0A3E542F0AD45AC44AF38129F
:101F30000F4DEF60047F0A80027F008F3D800375A4
:101F40003D03E4F544F5450221A62000030221A645
:101F5000E4F544F5450221B72000030221A6E5453A
:101F60002542FFE5443541FED3EF942CEE94015019
:101F70002DE4F53DAE41AF42742D2545F974013590
:101F800044A801FC7D017B017A007905120446E535
:101F9000422545F545E5413544F5440221A6753D08
:101FA000030221A6E5424541703678257C00FD7B81
:101FB000FF7A0979D5FE7F08120446D200753B00EE
:101FC000753C08E4F544F545AE3BAF3C78057C0034
:101FD0007D01FB7A007925120446E4F53D0221A635
:101FE000753D040221A62000030221A6E5426403F8
:101FF000454160030221A6900007E0FE900006E044
:10200000FDEEF52FEDF530E538C394404057E53847
:10201000D3947F5050512EAE2FAF307C007D1012E4
:1020200003318F368E358D348C33C3E5309480E5A3
:102030002F940050047F0080027F0A8F3DE53D60B1
:102040000221A685364D85354C85344B85334AE4CF
:10205000755110F550F54FF54EFF7E80FDFC1217BF
:10206000948F378069AE2FAF307C017D0012033131
:10207000C004C005C006C007AF38E4FCFDFEFBFA93
:102080007901F81200C0D003D002D001D0001200B4
:10209000A58F368E358D348C33C3E52F94015004D3
:1020A0007F0080027F0A8F3DE53D600221A68536D4
:1020B0004D85354C85344B85334AE4F551755001D7
:1020C000F54FF54EFFFE7D10FC1217948F37E53863
:1020D000D3943F5072AF387E007C207D00120331D4
:1020E000E42FFFE43EFEED3408FDE43CFCC004A90F
:1020F00005AA06AB07AE2FAF307C007D201203315E
:10210000D0001200A58F368E358D348C33E4F52D3A
:10211000F52EC3E52E9420E52D9400502AE4E52EFB
:102120002536FFE52D3535FEE43534FDE43533A99C
:1021300007AA06AB0512074DEF2537F537052EE543
:102140002E7002052D80CB852F31853032E5387019
:102150002AAE31AF32FCFD7BFFFAF9F8C31201F869
:102160007019FD7F0512181AC3E5379FF537E4FD96
:102170007F0612181AC3E5379FF537E537F4049048
:102180000005F0E4F53DF53B753C018019E4FF12D4
:102190000B56EF70069046FA7480F01205FD120D92
:1021A000398003753D057B017A007901853B4A85BD
:1021B0003C4BAF3D121670900000E07003021BDC38
:1021C000300003021BDC2212070B906008E0547FF2
:1021D000F0906012E054FBF09043A5E054FEF090C4
:1021E00043B5E054FEF09051F8E04480F0E0444004
:1021F000F01206F39044CA7480F0A37401F0904486
:10220000CA7420F09044C87401F004F0515E904408
:10221000D97410F0E4900323F090032BF090031F87
:10222000F0900325F090032AF09003FFF0221207AC
:102230000B9043A0E04408F09043B0E04408F090D5
:10224000470174C8F09043ACE04410F09043BCE008
:102250004410F0904700E0542060F80206F39045E7
:102260008FE054407E007806CEC313CE13D8F9FF1A
:1022700022C0E0C0F0C083C082C085C084C0867523
:102280008600C093759300C0D075D000C000C00117
:10229000C002C003C004C005C006C007515ED0071D
:1022A000D006D005D004D003D002D001D000D0D0C9
:1022B000D093D086D084D085D082D083D0F0D0E0A7
:1022C0003290646DE0FF227B027A447904AD07AC62
:1022D00006020731EFC43354E0904482F022904468
:1022E000C87404F0229043A3E04401F07B027A4FCB
:1022F0007906EFFD7C001207319043A3E054FEF015
:10230000227B027A4F7904EFFD7C00020731904274
:1023100010E0548060047F0180027F002290FFFF64
:1023200012030DEFF09046EA7401F09000010203F1
:102330000D90FFFC12030D1202918508838509821E
:10234000120269D3EF9400EE9480402E9003E112C4
:102350000269120600850883850982C083C0821243
:102360000269E42FFFEE3480FEED34FFFDEC34FF14
:10237000FCD082D08312029180C09003D7120269F0
:102380008508838509821202851200C0120600901A
:10239000000402030D8B468A4789488C498D4AE523
:1023A0004E75F00AA485F050F551D3E54A9440E506
:1023B0004994004006754900754A409003FEE0606C
:1023C0002D9167EF7018E55145506012E47F01FED2
:1023D000FDFC7131E55115517002155080E3916794
:1023E000EF601791A7916DE49003FEF0800C91A728
:1023F000EF60079167EF6002916DE54E75F00AA4FA
:1024000085F050F5517F01121783EF64016018E5E4
:102410005145506012E47F01FEFDFC7131E551151C
:10242000517002155080DE7F01121783EFB4012531
:10243000AB46AA47A948900263E549F0A3E54AF0F4
:102440007F0191B4AB4BAA4CA94DEE8FF0120086E0
:10245000E4F54F800FAB4BAA4CA94DE4F5F0120008
:1024600086754F10AF4F2290032BE0FF227F01EFC4
:10247000D394004031EF9409502CEF75F00BA42455
:1024800031F582E43403F583E4F0EF75F00BA42416
:1024900035F582E43403F583E0FE75F010EF905FCC
:1024A000FE12029DEEF022E4FF900323E06004E0C0
:1024B000FFE4F02290025FEFF0A31202B2900260FC
:1024C0001202A9E94A4B7002A14E90025FE0FFD3CD
:1024D0009400407AEF94095075B15ED3900264E0A5
:1024E0009F900263E09E400990025FE0FFB15E8032
:1024F00008900263E0FEA3E0FF900263EEF0A3EF1A
:10250000F0E4A3F0A3F0900263E0FEA3E0FFA3E0F9
:10251000FCA3E0FDC39FEC9E502B90025FE075F0A2
:102520001090607812029DE0FF9002601202A9E90B
:102530002DF9EA3CFAEF120033900265E475F001E0
:1025400012004580C190025FE0FF916F8007E49028
:102550000263F0A3F0900263E0FEA3E0FF22E4FD3B
:10256000FCEFD39400402AEF9409502575F010EF4A
:10257000905FFC12029DE0540FFD75F010EF905F2C
:10258000FD12029DE0FBEDFCEBFD24FEFD74FF3C23
:10259000FCAE04AF052280FE32E4900000F0900013
:1025A00000E0FFD3941F5020EF75F002A42400FF39
:1025B000E5F03444FAA9077B017C257D96120731AA
:1025C000900000E004F080D622900263ECF0A3EDCE
:1025D000F0900262EFF0541F25E0FFE433FEE42F99
:1025E000FFEE3444FAA9077B01120722900265EE40
:1025F000F0A3EFF0900262E075F002A42400FFE582
:10260000F03444FAA9077B01A3E0FEA3E0FFFDAC90
:1026100006120731900265E0FEA3E0FF2212070BCD
:10262000900261EFF09043A5E04401F09043B5E0E3
:102630004401F090609D7401F090600904F0906096
:1026400010E0547FF0E4FFFE1206A0904394E054A3
:10265000F9F0906012E054DFF0904394E04401F010
:102660007F017E001206A07F287E001206A09051F6
:10267000F8E0547FF0E054BFF0904394E04402F05F
:102680007F027E001206A0904394E04404F0906024
:1026900084E4F0A3F0900261E0FF1206F37D077F6F
:1026A00017D1F17C377D937F17B1C97D077F18D192
:1026B000F17C297D1F7F18B1C97D077F15D1F17C81
:1026C000067D9E7F15B1C97D07E4FFD1F17C367D83
:1026D000F3E4FFB1C97D077F01D1F17C377D437FF2
:1026E00001B1C97D077F0CD1F17C227D717F0CA1E6
:1026F000C9AC07ED540775F020A4FFEC541F2480EB
:10270000F582E43444F583EFF02290025FEFF0A30A
:10271000EDF09003FFE07008D11D9003FF7401F00D
:1027200090025FE0FFA3E0FDE4FE7E019003F874F9
:1027300001F0A3DEFC7E01900329EFF0E490032872
:10274000F0900323F090032BF090031FF0900325EB
:10275000F090032AF0900320F09044C27480F0A31C
:102760007401F09044C27420F09044C07401F004ED
:10277000F0ED14600C047012906009E054FEF080DB
:1027800010906009E04401F08007906009E0440186
:10279000F09060287403F09060087480F0E47F018A
:1027A000FEFDFC1206009060127404F022D2AF907D
:1027B00044F474FDF07D02E4FFF10A9003FE74011D
:1027C000F022E4FF7F019003F87401F0A3DFFCE442
:1027D000900328F0900323F090032BF090031FF058
:1027E000900325F090032AF0900320F09060287465
:1027F00003F09060087480F0229002601202B290A0
:10280000025FEFF0D394005002211EE0FF940940D4
:1028100002211EEF75F00BA42436F582E43403F593
:1028200083E0FEA3E0FFC3E49FFF74029EFED3900B
:102830000264E09F900263E09E402490025FE07596
:10284000F00BA42436F582E43403F583E0FEA3E024
:10285000FFC3E49F900264F074029E900263F090C4
:102860000263E0FCA3E0FDECFF90025FE0FE75F088
:102870000BA42433F582E43403F583E04FFF75F0B5
:1028800010EE905FFC12029DEFF0ED90025FE0759C
:10289000F010905FFD12029DEDF09002601202A90F
:1028A000E94A4B6046E4900265F0A3F0900263E0D1
:1028B000FEA3E0FFA3E0FCA3E0FDC39FEC9E502B32
:1028C0009002601202A9E92DF9EA3CFA12001AFFFF
:1028D00090025FE075F01090607812029DEFF0902A
:1028E0000265E475F00112004580C190025FE0FFCF
:1028F00075F00BA42431F582E43403F583E4F0EFA2
:1029000075F00BA42435F582E43403F583E0FF90E1
:10291000025FE075F010905FFE12029DEFF022C0A2
:10292000E0C0F0C083C082C085C084C086758600C8
:10293000C093759300C0D075D000C000C001C00224
:10294000C003C004C005C006C007906028E0900224
:1029500077F0E0FF5410700221FEA37401F0EF54F1
:10296000806020900277E0540F64016005A3E4F0DA
:10297000802FD1DB90032CE054806025900278E416
:10298000F0801E900277E054406004512180129044
:102990000277E05420600512301A8005900278E436
:1029A000F0900278E06057906028E0900277F0E0C5
:1029B0005480704A90032FE0FF900327E04F90026D
:1029C00077F0E0FF906029F0E0FEEF6E703090034A
:1029D0002CE0900278F0906028E05480900277F02C
:1029E000E0700F90032CE0906028F0E0540F90020C
:1029F00078F090032CE0FF900278E0B507D0D00784
:102A0000D006D005D004D003D002D001D000D0D061
:102A1000D093D086D084D085D082D083D0F0D0E03F
:102A200032900328E024FC600A24FE60082404702D
:102A3000068005E1ABF1BB22E4FD900320E0FF90AE
:102A4000032DE48FF0120045D3900318E09400901A
:102A50000317E09400403AED9408503590031912A2
:102A600002A912001AFFE42DF582E43460F583EF29
:102A7000F09003191202A9E92401F9E43AFA90034B
:102A8000191202B20D90031774FFF5F01200458081
:102A9000B7900320E064086006EDD39400401590E1
:102AA0000327E06480F090032C740FF090032874E7
:102AB00002F0800A90032C7402F0900328F0900337
:102AC0002FEDF0900320F0221202B2900317E07075
:102AD00002A3E070051230CE802F9003287402F01C
:102AE000E4900327F01235FA906007E0FE9060064C
:102AF000E0FDEEEDFFD3900318E09F900317E09EFA
:102B00004005EEF0A3EFF051387F0122E490027A05
:102B1000F0906000E090027CF07B007A007900A3E6
:102B20001202B2E4900317F0A3F090027CE054800C
:102B300064806002A125906001E07002817424F835
:102B4000700281E624FE7002A10224046002C1BD6D
:102B5000906003E0B4012B123E55900280EEF0A38A
:102B6000EFF0F5828E83A31202BB9003191202B21A
:102B7000900317E4F0A37412F051CB90027AEFF0B7
:102B8000C1BD906003E064027060906002E0FF12DB
:102B90003432900280EEF0A3EFF04E7002C1BD908F
:102BA0000280E0FEA3E0F5828E83A31202BB9003B5
:102BB000191202B29003191202A9E92403F9E43AA6
:102BC000FA12001AFE9003191202A9E92402F9E48C
:102BD0003AFA12001AFDEEEDFF900317EEF0A3EFA4
:102BE000F051CB90027AEFF0C1BD906003E0640336
:102BF0007079FF7BFF7A0779A090027D1202B29074
:102C00006002E0D39F401F90027D1202A912001AB9
:102C1000601412001AFE7C0029F9EC3AFA90027D49
:102C20001202B20F80D9906002E0FF601690077523
:102C3000E493FEEFB5060C7BFF7A0779FF90027DE7
:102C40001202B290027D1202A912001A7002C1BDD6
:102C500012001AFF900317E4F0A3EFF0900319128B
:102C600002B251CB90027AEFF0C1BDF13D90027AF1
:102C7000EFF0C1BD90027CE05403603F24FE60028F
:102C8000C1BD900317E4F0A37402F0906004E05417
:102C90007F75F00BA42432F582E43403F583E090D1
:102CA00003FBF0E4A3F07B017A0379FB9003191294
:102CB00002B251CB90027AEFF0C1BD900317E4F05D
:102CC000A37402F090032AE09003FBF0E4A3F07BEE
:102CD000017A0379FB9003191202B251CB90027A68
:102CE000EFF0C1BDC1BD900317E4F0A304F0FB7A7F
:102CF00003792B9003191202B251CB90027AEFF0B4
:102D0000C1BD900317E4F0A304F0906004E0241622
:102D1000F9E43403FA7B0190031951C890027AEF69
:102D2000F0C1BDC1BD906001E0147002A1E924FEB4
:102D30007002C15924FA601B24FE607024066002F0
:102D4000C1BD906002E0900325F0D1C390027AEFFC
:102D5000F0C1BD906002E090027BF0D39400400E81
:102D6000E014FF123432900280EEF0A3EFF09002F4
:102D70007BE0FFD39400400A900280E07002A3E061
:102D80007005EF6002C1BD90032BE0FF90027BE075
:102D9000FE6F600F90032BEEF09003237401F0FFA1
:102DA0001238CAD1C390027AEFF0C1BD123687EF54
:102DB0007002C1BD906004E0FE90031FF074162EF7
:102DC000F582E43403F583E0FF74242EF582E434C5
:102DD00003F583E06F60099003237401F0123C5205
:102DE000D1C390027AEFF0C1BD90027CE054036041
:102DF0001A146031146002C1BD906002E06002C12B
:102E0000BD123EF590027AEFF0C1BD906002E06421
:102E1000016002C1BD90032AE054FDF0D1C39002CD
:102E20007AEFF0C1BD906004E0FFC394014002C19D
:102E3000BD74262FF582E43403F583C083C082E09D
:102E4000FF906002E0F4FEEF5ED082D083F0D1C349
:102E500090027AEFF08066806490027CE054036018
:102E60001614602B147056906002E07050123E6E83
:102E700090027AEFF08046906002E06401703E902C
:102E8000032AE04402F0D1C390027AEFF0802E9042
:102E90006004E0FFC39401502474262FF582E434CB
:102EA00003F583C083C082E0FF906002E0F4FEEF90
:102EB0005ED082D083F0D1C390027AEFF090027A94
:102EC000E0FF229003287406F090032CF090032773
:102ED0007480F0E490032FF07F0122906028E0904E
:102EE0000279F0E0906028F0E0900279F0E0FF5481
:102EF00080600690032CEFF0227F02F1DD906000ED
:102F0000E0546024E0601124E060162440701C71DD
:102F10000C900279EFF08018F13D900279EFF0808B
:102F20000F123FD0900279EFF08005E4900279F023
:102F3000900279E0700690032C7403F022E4900272
:102F400083F0906000E0540324FE600D0470249030
:102F50006004E0900282F0801F906004E0547F756E
:102F6000F00BA4243AF582E43403F583E090028266
:102F7000F08005E4900282F0900282E0FFD3940199
:102F80005023900321E0FCA3E02FF582E43CF5837D
:102F9000E49324FD700A123122900283EFF0800541
:102FA000E4900283F0900283E0FF22E4900328F093
:102FB0007F01F1DD90032C7403F022900325E06083
:102FC0000CE04480906008F0E4900325F0E4900366
:102FD00028F07F01F1DD90032C7403F02290031C94
:102FE0001202A9E94A4B603190031C1202A9EF12A8
:102FF000003390032DE0FEA3E0FF90031C1202A912
:10300000E92401F9E43AFAEE8FF01200867B007AA7
:1030100000790090031C1202B222900328E024FCE5
:10302000600A24FE60082404700F800E802B7F034A
:10303000122FDD90032C7403F022900320E0FF9008
:10304000032DE48FF0120045E4900328F07F011275
:103050002FDD90032C7403F022E4FF906029E054EC
:103060000F24FEFEFD90032DE48DF0120045D39059
:103070000318E09400900317E09400403CEED394D2
:10308000004036E42FF582E43460F583E0FD9003E0
:10309000191202A9ED1200339003191202A9E924B2
:1030A00001F9E43AFA9003191202B20F1E900317C5
:1030B00074FFF5F012004580B5AF0690032FEEF0D7
:1030C000900327E06480F090032C740BF0229003AF
:1030D000287402F09003277480F090032C740FF092
:1030E000E4900320F090032FF07F012290032874D6
:1030F00004F09003277480F0B1FA906007E0FE902E
:103100006006E0FDEEEDFFD3900318E09F900317FB
:10311000E09E4005EEF0A3EFF090032C740BF07FDF
:103120000122E4900284F0906004E0900285F09027
:103130006000E0548070024107A3E014604F146007
:103140006414700221D724FD600241DD906003E029
:10315000B42118917F900317E07002A3E070024140
:10316000DD122ACB900284EFF041DD906003E06431
:1031700022600241DDB128900317E07002A3E070E5
:103180000241DD122ACB900284EFF041DD51E39041
:103190000317E07002A3E0700241DD122ACB900217
:1031A00084EFF041DD900285E0FFC39401400241CD
:1031B000DD906002E0600241DD900317F0A304F0AF
:1031C00074F72FF9E43403FA7B01900319122AC82B
:1031D000900284EFF041DD900285E0FFC39401404E
:1031E0000241DD900317E4F0A304F074F82FF9E432
:1031F0003403FA7B019003191202B2122ACB900217
:1032000084EFF041DD41DD906001E024F66022149E
:10321000700241B62402600241DD51E3900317E0E1
:103220007002A3E0700241DD11EC900284EFF041E6
:10323000DD900285E0FFC39401400241DD90600211
:10324000E0600241DDA3E0FE74F72FF582E4340371
:10325000F583EEF074F62FF582E43403F583E0FE97
:1032600074F72FF582E43403F583E0C39E50119088
:103270000285E024F6F582E43403F583E4F0802C43
:10328000900285E0FF24F6F582E43403F583E0D371
:103290009401401874F72FF582E43403F583E0FEBF
:1032A00074F62FF582E43403F583EEF0122EC3900A
:1032B0000284EFF08027900285E0FFC39401501D47
:1032C000906002E0FE9401501474F82FF582E4340B
:1032D00003F583EEF0122EC3900284EFF090028487
:1032E000E0FF22E4900317F0A3F090032BE014FF1B
:1032F0009132900286EEF0A3EFF0906003E090022E
:103300008BF0906004E090028CF02402FFE433FE26
:10331000EF7802C333CE33CED8F9FF900287E02F87
:10332000FF900286E03EFEF0A3EFF0F5828E83A3CD
:103330001202BBAF01900286EAF0A3EFF090028C7C
:10334000E0FFC394014002813174162FF582E4340A
:1033500003F583E075F004A4FFAEF0900287E02F40
:10336000F0900286E03EF0E0FEA3E0F5828E83A3BB
:103370001202BBAF01900286EAF0A3EFF090028B3D
:10338000E0FFC3940150028131EFD39403400281E6
:1033900031EF24FFFFE434FFFEEF7802C333CE3376
:1033A000CED8F9FF900287E02FFF900286E03EFE24
:1033B000F0A3EFF0906002E0FD90028BF08F828E20
:1033C00083E493C39D406A900286E0FEA3E0F58209
:1033D0008E83A31202BB9002881202B290028BE08D
:1033E00075F008A4FF9002881202A9E92FF9EA35C6
:1033F000F0FA9002881202B29002881202A9E9241F
:1034000002F9E43AFA1202C79003191202B29002CA
:10341000881202A912005BFF900317E5F0F0A3EFFA
:10342000F0E92405F9E43AFA1202C790031C1202EB
:10343000B22290028DEFF0900329E025E025E024F0
:10344000ADF582E43408F5831202BBAE02AF01EFA2
:103450002408FFE43EFE8F82F583E493FD90028D05
:10346000E0FCC39D4005E4FEFF80138F828E8375D0
:10347000F004EC12029DA31202BBAE02AF01229037
:10348000032BE014FF9132900286EEF0A3EFF09050
:103490006004E0900288F02402FFE433FEEF78023B
:1034A000C333CE33CED8F9FF900287E02FFF9002CE
:1034B00086E03EFEF0A3EFF0F5828E83A31202BBFE
:1034C000AF01900286EAF0A3EFF0A3E02416F582A4
:1034D000E43403F583E075F004A4FFAEF0900287B6
:1034E000E02FF0900286E03EF0E0FEA3E0F5828E51
:1034F00083A31202BBAE02AF01900286EEF0A3EFEF
:10350000F02410FFE43EFE900286F0A3EFF0F58277
:103510008E83A31202BB12001AFF900317E4F0A3DC
:10352000EFF09003190202B290032BE014FF9132E6
:10353000900286EEF0A3EFF0906004E090028BF032
:103540002402FFE433FEEF7802C333CE33CED8F942
:10355000FF900287E02FFF900286E03EFEF0A3EF8F
:10356000F0F5828E83A31202BBAF01900286EAF0CF
:10357000A3EFF090028BE02416F582E43403F58388
:10358000E075F004A4FFAEF0900287E02FF0900207
:1035900086E03EF0E0FEA3E0F5828E83A31202BB3C
:1035A000AE02AF01900286EEF0A3EFF0240CFFE430
:1035B0003EFE900286F0A3EFF0F5828E83A3120206
:1035C000BB9002881202B29002881202A9E924017B
:1035D000F9E43AFA12001AFE9002881202A91200C7
:1035E0001AFDEEEDFF900317EEF0A3EFF0E92402D1
:1035F000F9E43AFA9003190202B2E490032DF0A321
:10360000F090031C1202A9E94A4B601D90031C12A2
:1036100002A9E412003390031C1202A9E92401F963
:10362000E43AFAE4F5F01200862290032BE014FF4E
:103630009132AD07AC06ED4C603D8D828C83A312B8
:1036400002BBE92404F9E43AFA12001A2402FFE466
:1036500033FEEF7802C333CE33CED8F92DFDEE3CE6
:10366000FCAF058D82F583A31202BBAF0190028AE5
:10367000EAF0A3EFF08007E490028AF0A3F0900252
:103680008AE0FEA3E0FF22E4900282F0906004E072
:10369000900283F090032BE014FF91328F828E838F
:1036A000A31202BBE92404F9E43AFA12001AFF90CB
:1036B0000283E0FED39F4006EED39401502F741690
:1036C0002EF582E43403F583E0FF74242EF582E4C2
:1036D0003403F583EFF0906002E0FF74162EF5825C
:1036E000E43403F583EFF09002827401F0900282DB
:1036F000E0FF22C0E0C083C082C085C084C0867560
:103700008600C093759300C0D075D000C00790604C
:103710000B7401F090600EE0FF90033BE0540364F3
:1037200001600790033EE06480F090033C7401F078
:10373000D007D0D0D093D086D084D085D082D0830B
:10374000D0E032C0E0C083C082C085C084C086752E
:103750008600C093759300C0D075D000C0079060FC
:103760000B7402F090601EE0FF900346E054036487
:10377000016007900349E06480F09003477401F012
:10378000D007D0D0D093D086D084D085D082D083BB
:10379000D0E032C0E0C0F0C083C082C085C084C029
:1037A00086758600C093759300C0D075D000C000A8
:1037B000C001C002C003C004C005C006C007122774
:1037C000C2D007D006D005D004D003D002D001D09B
:1037D00000D0D0D093D086D084D085D082D083D072
:1037E000F0D0E0327D01EDC3940940030238C37587
:1037F000F010ED90607012029D740CF0ED75F00BFE
:10380000A42435F582E43403F583E06031ED75F0EE
:103810000BA42434F582E43403F583E05480600F74
:1038200075F010ED905FFE12029D740CF0801C7517
:10383000F010ED905FFE12029D7408F0800D75F09F
:1038400010ED905FFE12029D7480F0ED75F00BA4F8
:103850002436F582E43403F583E0A3E0FF75F0102D
:10386000ED90607612029DEFF0ED75F00BA424361A
:10387000F582E43403F583E0FF75F010ED90607796
:1038800012029DEFF0ED75F00BA42436F582E434BE
:1038900003F583E0A3E0FF75F010ED906074120271
:1038A0009DEFF0ED75F00BA42436F582E43403F5BA
:1038B00083E0FF75F010ED90607512029DEFF00D42
:1038C0000237E690600A74FFF022E4900284F0A3CD
:1038D000F0900282F0900282E0FEC39409507AEEEA
:1038E00075F00BA42430F582E43403F583E4F0EEA4
:1038F00075F00BA42432F582E43403F583E4F0EE92
:1039000075F00BA42433F582E43403F583E4F0EE80
:1039100075F00BA42438F582E43403F583E4F0A3B6
:10392000F0EE75F00BA4243AF582E43403F583E459
:10393000F0EE75F00BA42431F582E43403F583E452
:10394000F0EE75F00BA42435F582E43403F583E43E
:10395000F0900282E004F001D5EF602FE490028342
:10396000F0900283E0FFC39401502074162FF5827B
:10397000E43403F583E4F074242FF582E43403F592
:1039800083E4F0900283E004F080D690032BE0D330
:10399000940050028151E014FF123432900286EEFE
:1039A000F0A3EFF0900286E0FCA3E0FDF5828C83AB
:1039B000A31202BBE92407F9E43AFA12001A5440B0
:1039C000600990032AE04401F0800790032AE05444
:1039D000FEF0ED2404FFE43CFE900286F0A3EFF03D
:1039E000F5828E83E493900282F0A37401F090023A
:1039F00083E0C394094002618D900286E0FEA3E05B
:103A0000F5828E83A31202BBAF01900288EAF0A375
:103A1000EFF0E4FF900282E0FEEFC39E400261857A
:103A2000900288E0FCA3E0F5828C83740293547FBB
:103A3000FD900283E0FE6D7001E46002617490020B
:103A400088E0A3E0F5828C83740493FC740593FDF5
:103A5000EE75F00BA42438F582E43403F583E0FA24
:103A6000A3E0C39DEA9C5029900288E0FCA3E0F506
:103A7000828C83740493FC740593FD900283E0753B
:103A8000F00BA42438F582E43403F583ECF0A3EDC5
:103A9000F0900288E0FCA3E0FDF5828C83E493249F
:103AA00016F582E43403F583E0FE8D828C83740185
:103AB00093FDEE6D60026174900288E0A3E0FDF575
:103AC000828C83740293FE900283E0FB75F00BA45A
:103AD0002434F582E43403F583EEF08D828C837414
:103AE0000393FEEB75F00BA42430F582E43403F568
:103AF00083EEF0900288E0FCA3E0F5828C837403EF
:103B0000935403FE900288E0A3E0F5828C83740254
:103B10009354806031EEB401047D0780027D0D90E6
:103B20000283E0FC75F00BA42435F582E43403F540
:103B300083EDF0EC75F00BA42431F582E43403F549
:103B4000837401F0802EEEB401047E0580027E09AC
:103B5000900283E0FD75F00BA42435F582E4340374
:103B6000F583EEF0ED75F00BA42431F582E4340317
:103B7000F583E4F0900289E02407F0900288E034B5
:103B800000F00F4114900283E004F021EE900286D1
:103B9000E0FEA3E0F5828E83A31202BBAF01900288
:103BA00088EAF0A3EFF0E4900283F0900282E0FF55
:103BB000A3E0C39F5038900288E0FEA3E0F5828E18
:103BC00083E493FD740293547F75F00BA4243AF5BB
:103BD00082E43403F583EDF0900289E02407F0904D
:103BE0000288E03400F0900283E004F080BD1236D9
:103BF0002A900321EEF0A3EFF0E4900284F0A3F00A
:103C000090028204F0900282E0FFC39409503F903A
:103C10000284E0FCA3E0FDEF75F00BA42436F582EE
:103C2000E43403F583ECF0A3EDF0EF75F00BA4247E
:103C300038F582E43403F583E0FEA3E0FF900284CC
:103C4000EE8FF0120045900282E004F080B7123748
:103C5000E42290032BE0D394005002C154E014FFFF
:103C6000123432EF2404FFE43EFE8F82F583E493A6
:103C7000900282F08F828E83A31202BBAD01AC0250
:103C800090031FE0900283F0E4FB900282E0FFEBE0
:103C9000C39F4002C1548D828C83E493FF900283C2
:103CA000E0FE6F6002C14A8D828C830493FF74161C
:103CB0002EF582E43403F583E06F6002C14A8D8201
:103CC0008C83740293547FFA7403935403F9EA7556
:103CD000F00BA42433F582E43403F583E4F08D8201
:103CE0008C83740293FFEA75F00BA42434F582E40C
:103CF0003403F583EFF08D828C83740393FFEA75B0
:103D0000F00BA42430F582E43403F583EFF08D82C8
:103D10008C83740493FE740593FFEA75F00BA4245E
:103D200038F582E43403F583EEF0A3EFF08D828C56
:103D3000837402935480602DE9B401047F078002EC
:103D40007F0DEA75F00BA42435F582E43403F58386
:103D5000EFF0EA75F00BA42431F582E43403F58327
:103D60007401F0802AE9B401047F0580027F09EA2A
:103D700075F00BA42435F582E43403F583EFF0EA03
:103D800075F00BA42431F582E43403F583E4F07577
:103D9000F010EA905FFE12029D7401F0EA75F00BDC
:103DA000A42438F582E43403F583E0FF75F010EACB
:103DB000905FFC12029DEFF0EA75F00BA42438F539
:103DC00082E43403F583E0A3E0FF75F010EA905F2E
:103DD000FD12029DEFF0EA75F00BA42436F582E4A3
:103DE0003403F583E0A3E0FF75F010EA90607612EB
:103DF000029DEFF0EA75F00BA42436F582E434035B
:103E0000F583E0FF75F010EA90607712029DEFF005
:103E1000EA75F00BA42436F582E43403F583E0A3BD
:103E2000E0FF75F010EA90607412029DEFF0EA7501
:103E3000F00BA42436F582E43403F583E0FF75F03B
:103E400010EA90607512029DEFF0ED2407FDE43C4E
:103E5000FC0B818A22900329E025E025E024ADF5C2
:103E600082E43408F5831202BBAE02AF0122E49073
:103E70000282F0906004E0547FFFD394004070EF22
:103E80009409506BEF75F00BA42432F582E43403EF
:103E9000F583E04401F0EF75F00BA42433F582E4E0
:103EA0003403F583E4F0EF75F00BA42431F582E4DC
:103EB0003403F583E04402F0EF75F00BA42434F5ED
:103EC00082E43403F583E05480600F75F010EF90C6
:103ED0005FFE12029D748DF0800D75F010EF905F03
:103EE000FE12029D7489F0122EC3900282EFF090B0
:103EF0000282E0FF22E4900282F0906004E0547FAE
:103F0000FFD394005002E1CAEF94094002E1CAEFE6
:103F100075F00BA42432F582E43403F583E054FEFB
:103F2000F0EF75F00BA42433F582E43403F583E459
:103F3000F075F010EF905FFC12029DE0547FF0EFFF
:103F400075F00BA42431F582E43403F583E054FDCD
:103F5000F0EF75F00BA42434F582E43403F583E02C
:103F600054806030EF75F00BA42431F582E4340303
:103F7000F583E0B4010F75F010EF905FFE12029D23
:103F8000740CF0803D75F010EF905FFE12029D748E
:103F90000DF0802EEF75F00BA42431F582E434038C
:103FA000F583E0B4010F75F010EF905FFE12029DF3
:103FB0007408F0800D75F010EF905FFE12029D7492
:103FC00009F0122EC3900282EFF0900282E0FF22ED
:103FD000E4FF906000E054806005A3E0FE800022D2
:00000001FF
